{
  "_format": "hh-sol-artifact-1",
  "contractName": "NMWDMarketPlace",
  "sourceName": "contracts/NMWDMarketPlace.sol",
  "abi": [
    {
      "inputs": [],
      "stateMutability": "nonpayable",
      "type": "constructor"
    },
    {
      "anonymous": false,
      "inputs": [
        {
          "indexed": true,
          "internalType": "address",
          "name": "previousOwner",
          "type": "address"
        },
        {
          "indexed": true,
          "internalType": "address",
          "name": "newOwner",
          "type": "address"
        }
      ],
      "name": "OwnershipTransferred",
      "type": "event"
    },
    {
      "anonymous": false,
      "inputs": [
        {
          "indexed": true,
          "internalType": "address",
          "name": "payer",
          "type": "address"
        },
        {
          "indexed": false,
          "internalType": "uint256",
          "name": "tokenId",
          "type": "uint256"
        },
        {
          "indexed": false,
          "internalType": "uint256",
          "name": "amount",
          "type": "uint256"
        },
        {
          "indexed": false,
          "internalType": "uint256",
          "name": "balance",
          "type": "uint256"
        }
      ],
      "name": "Received",
      "type": "event"
    },
    {
      "anonymous": false,
      "inputs": [
        {
          "indexed": true,
          "internalType": "address",
          "name": "payee",
          "type": "address"
        },
        {
          "indexed": false,
          "internalType": "uint256",
          "name": "amount",
          "type": "uint256"
        },
        {
          "indexed": false,
          "internalType": "uint256",
          "name": "balance",
          "type": "uint256"
        }
      ],
      "name": "Sent",
      "type": "event"
    },
    {
      "anonymous": false,
      "inputs": [
        {
          "indexed": false,
          "internalType": "address",
          "name": "deliveredTo",
          "type": "address"
        },
        {
          "indexed": false,
          "internalType": "string",
          "name": "msg",
          "type": "string"
        }
      ],
      "name": "_msg",
      "type": "event"
    },
    {
      "inputs": [],
      "name": "CANNOT_TRANSFER_TO_ZERO_ADDRESS",
      "outputs": [
        {
          "internalType": "string",
          "name": "",
          "type": "string"
        }
      ],
      "stateMutability": "view",
      "type": "function"
    },
    {
      "inputs": [],
      "name": "NMWDcontract",
      "outputs": [
        {
          "internalType": "contract NoMoreWarOnDrugs",
          "name": "",
          "type": "address"
        }
      ],
      "stateMutability": "view",
      "type": "function"
    },
    {
      "inputs": [],
      "name": "NOT_CURRENT_OWNER",
      "outputs": [
        {
          "internalType": "string",
          "name": "",
          "type": "string"
        }
      ],
      "stateMutability": "view",
      "type": "function"
    },
    {
      "inputs": [
        {
          "internalType": "address",
          "name": "",
          "type": "address"
        }
      ],
      "name": "ethBalance",
      "outputs": [
        {
          "internalType": "uint256",
          "name": "",
          "type": "uint256"
        }
      ],
      "stateMutability": "view",
      "type": "function"
    },
    {
      "inputs": [],
      "name": "getBackOwnership",
      "outputs": [],
      "stateMutability": "nonpayable",
      "type": "function"
    },
    {
      "inputs": [
        {
          "internalType": "uint256",
          "name": "_tokenId",
          "type": "uint256"
        }
      ],
      "name": "getPrice",
      "outputs": [
        {
          "internalType": "uint256",
          "name": "",
          "type": "uint256"
        }
      ],
      "stateMutability": "view",
      "type": "function"
    },
    {
      "inputs": [
        {
          "internalType": "address",
          "name": "_to",
          "type": "address"
        },
        {
          "internalType": "uint256",
          "name": "_tokenId",
          "type": "uint256"
        },
        {
          "internalType": "string",
          "name": "_uri",
          "type": "string"
        }
      ],
      "name": "mintThroughPurchase",
      "outputs": [],
      "stateMutability": "payable",
      "type": "function"
    },
    {
      "inputs": [],
      "name": "owner",
      "outputs": [
        {
          "internalType": "address",
          "name": "",
          "type": "address"
        }
      ],
      "stateMutability": "view",
      "type": "function"
    },
    {
      "inputs": [
        {
          "internalType": "uint256",
          "name": "_tokenId",
          "type": "uint256"
        }
      ],
      "name": "purchaseToken",
      "outputs": [],
      "stateMutability": "payable",
      "type": "function"
    },
    {
      "inputs": [
        {
          "internalType": "uint256",
          "name": "_price",
          "type": "uint256"
        },
        {
          "internalType": "uint256",
          "name": "_tokenId",
          "type": "uint256"
        }
      ],
      "name": "setPrice",
      "outputs": [],
      "stateMutability": "nonpayable",
      "type": "function"
    },
    {
      "inputs": [
        {
          "internalType": "address",
          "name": "_newOwner",
          "type": "address"
        }
      ],
      "name": "transferOwnership",
      "outputs": [],
      "stateMutability": "nonpayable",
      "type": "function"
    },
    {
      "inputs": [
        {
          "internalType": "address",
          "name": "nmwdAddress",
          "type": "address"
        }
      ],
      "name": "updateNMWDcontract",
      "outputs": [],
      "stateMutability": "nonpayable",
      "type": "function"
    },
    {
      "inputs": [
        {
          "internalType": "address",
          "name": "_payee",
          "type": "address"
        },
        {
          "internalType": "uint256",
          "name": "_amount",
          "type": "uint256"
        }
      ],
      "name": "withdrawFromContract",
      "outputs": [],
      "stateMutability": "nonpayable",
      "type": "function"
    },
    {
      "inputs": [
        {
          "internalType": "uint256",
          "name": "_amount",
          "type": "uint256"
        }
      ],
      "name": "withdrawUserFunds",
      "outputs": [],
      "stateMutability": "nonpayable",
      "type": "function"
    }
  ],
  "bytecode": "0x60806040523480156200001157600080fd5b50620000226200002860201b60201c565b6200018d565b336000806101000a81548173ffffffffffffffffffffffffffffffffffffffff021916908373ffffffffffffffffffffffffffffffffffffffff1602179055507f2d5a82cbc34270500c60b0532ca36cd4716c295bf0351b25835351664a3125bf60008054906101000a900473ffffffffffffffffffffffffffffffffffffffff16604051620000b9919062000116565b60405180910390a1565b620000ce8162000159565b82525050565b6000620000e360098362000148565b91507f736574206f776e657200000000000000000000000000000000000000000000006000830152602082019050919050565b60006040820190506200012d6000830184620000c3565b81810360208301526200014081620000d4565b905092915050565b600082825260208201905092915050565b600062000166826200016d565b9050919050565b600073ffffffffffffffffffffffffffffffffffffffff82169050919050565b6125fe806200019d6000396000f3fe6080604052600436106100dd5760003560e01c8063d8f3790f1161007f578063ecdf156111610059578063ecdf15611461027e578063f2fde38b146102a7578063f3fe3bc3146102d0578063f7d97577146102fb576100dd565b8063d8f3790f146101e8578063db228cfe14610225578063e757223014610241576100dd565b80638da5cb5b116100bb5780638da5cb5b1461014d578063b0e857ec14610178578063be4185f4146101a1578063c2db2c42146101cc576100dd565b80635c93bec7146100e2578063837381fa146100f9578063860d248a14610122575b600080fd5b3480156100ee57600080fd5b506100f7610324565b005b34801561010557600080fd5b50610120600480360381019061011b9190611d4c565b610583565b005b34801561012e57600080fd5b5061013761078e565b60405161014491906120a5565b60405180910390f35b34801561015957600080fd5b506101626107c7565b60405161016f9190611fa3565b60405180910390f35b34801561018457600080fd5b5061019f600480360381019061019a9190611cfa565b6107eb565b005b3480156101ad57600080fd5b506101b6610a56565b6040516101c3919061208a565b60405180910390f35b6101e660048036038101906101e19190611e18565b610a7c565b005b3480156101f457600080fd5b5061020f600480360381019061020a9190611cfa565b61115d565b60405161021c9190612167565b60405180910390f35b61023f600480360381019061023a9190611d88565b611175565b005b34801561024d57600080fd5b5061026860048036038101906102639190611e18565b6113f0565b6040516102759190612167565b60405180910390f35b34801561028a57600080fd5b506102a560048036038101906102a09190611e18565b61140d565b005b3480156102b357600080fd5b506102ce60048036038101906102c99190611cfa565b611594565b005b3480156102dc57600080fd5b506102e56117df565b6040516102f291906120a5565b60405180910390f35b34801561030757600080fd5b50610322600480360381019061031d9190611e41565b611818565b005b60008054906101000a900473ffffffffffffffffffffffffffffffffffffffff1673ffffffffffffffffffffffffffffffffffffffff163373ffffffffffffffffffffffffffffffffffffffff16146103b2576040517f08c379a00000000000000000000000000000000000000000000000000000000081526004016103a990612127565b60405180910390fd5b7f2d5a82cbc34270500c60b0532ca36cd4716c295bf0351b25835351664a3125bf60008054906101000a900473ffffffffffffffffffffffffffffffffffffffff16604051610401919061201e565b60405180910390a1600073ffffffffffffffffffffffffffffffffffffffff16600160009054906101000a900473ffffffffffffffffffffffffffffffffffffffff1673ffffffffffffffffffffffffffffffffffffffff1614156040518060400160405280600681526020017f3030333030320000000000000000000000000000000000000000000000000000815250906104d3576040517f08c379a00000000000000000000000000000000000000000000000000000000081526004016104ca91906120a5565b60405180910390fd5b50600160009054906101000a900473ffffffffffffffffffffffffffffffffffffffff1673ffffffffffffffffffffffffffffffffffffffff1663f2fde38b60008054906101000a900473ffffffffffffffffffffffffffffffffffffffff166040518263ffffffff1660e01b815260040161054f9190611fa3565b600060405180830381600087803b15801561056957600080fd5b505af115801561057d573d6000803e3d6000fd5b50505050565b60008054906101000a900473ffffffffffffffffffffffffffffffffffffffff1673ffffffffffffffffffffffffffffffffffffffff163373ffffffffffffffffffffffffffffffffffffffff1614610611576040517f08c379a000000000000000000000000000000000000000000000000000000000815260040161060890612127565b60405180910390fd5b7f2d5a82cbc34270500c60b0532ca36cd4716c295bf0351b25835351664a3125bf60008054906101000a900473ffffffffffffffffffffffffffffffffffffffff16604051610660919061201e565b60405180910390a1600073ffffffffffffffffffffffffffffffffffffffff168273ffffffffffffffffffffffffffffffffffffffff16141580156106d157503073ffffffffffffffffffffffffffffffffffffffff168273ffffffffffffffffffffffffffffffffffffffff1614155b6106da57600080fd5b6000811180156106ea5750478111155b6106f357600080fd5b8173ffffffffffffffffffffffffffffffffffffffff166108fc829081150290604051600060405180830381858888f19350505050158015610739573d6000803e3d6000fd5b508173ffffffffffffffffffffffffffffffffffffffff167f6356739d963da01dc3533acba7203430fcc14f2175d48a8dd0973d7db49c785e8247604051610782929190612182565b60405180910390a25050565b6040518060400160405280600681526020017f303138303032000000000000000000000000000000000000000000000000000081525081565b60008054906101000a900473ffffffffffffffffffffffffffffffffffffffff1681565b60008054906101000a900473ffffffffffffffffffffffffffffffffffffffff1673ffffffffffffffffffffffffffffffffffffffff163373ffffffffffffffffffffffffffffffffffffffff1614610879576040517f08c379a000000000000000000000000000000000000000000000000000000000815260040161087090612127565b60405180910390fd5b7f2d5a82cbc34270500c60b0532ca36cd4716c295bf0351b25835351664a3125bf60008054906101000a900473ffffffffffffffffffffffffffffffffffffffff166040516108c8919061201e565b60405180910390a1600073ffffffffffffffffffffffffffffffffffffffff168173ffffffffffffffffffffffffffffffffffffffff161415801561093957503073ffffffffffffffffffffffffffffffffffffffff168173ffffffffffffffffffffffffffffffffffffffff1614155b6040518060400160405280600681526020017f3030333030310000000000000000000000000000000000000000000000000000815250906109b0576040517f08c379a00000000000000000000000000000000000000000000000000000000081526004016109a791906120a5565b60405180910390fd5b5080600160006101000a81548173ffffffffffffffffffffffffffffffffffffffff021916908373ffffffffffffffffffffffffffffffffffffffff160217905550610a536040518060400160405280601781526020017f61646472657373284e4d5744636f6e7472616374293a20000000000000000000815250600160009054906101000a900473ffffffffffffffffffffffffffffffffffffffff16611add565b50565b600160009054906101000a900473ffffffffffffffffffffffffffffffffffffffff1681565b600073ffffffffffffffffffffffffffffffffffffffff163373ffffffffffffffffffffffffffffffffffffffff1614158015610ae557503073ffffffffffffffffffffffffffffffffffffffff163373ffffffffffffffffffffffffffffffffffffffff1614155b610aee57600080fd5b6002600082815260200190815260200160002054341015610b0e57600080fd5b600073ffffffffffffffffffffffffffffffffffffffff16600160009054906101000a900473ffffffffffffffffffffffffffffffffffffffff1673ffffffffffffffffffffffffffffffffffffffff16636352211e836040518263ffffffff1660e01b8152600401610b819190612167565b60206040518083038186803b158015610b9957600080fd5b505afa158015610bad573d6000803e3d6000fd5b505050506040513d601f19601f82011682018060405250810190610bd19190611d23565b73ffffffffffffffffffffffffffffffffffffffff1614156040518060400160405280600681526020017f303033303034000000000000000000000000000000000000000000000000000081525090610c60576040517f08c379a0000000000000000000000000000000000000000000000000000000008152600401610c5791906120a5565b60405180910390fd5b506000600160009054906101000a900473ffffffffffffffffffffffffffffffffffffffff1673ffffffffffffffffffffffffffffffffffffffff16636352211e836040518263ffffffff1660e01b8152600401610cbe9190612167565b60206040518083038186803b158015610cd657600080fd5b505afa158015610cea573d6000803e3d6000fd5b505050506040513d601f19601f82011682018060405250810190610d0e9190611d23565b90503073ffffffffffffffffffffffffffffffffffffffff16600160009054906101000a900473ffffffffffffffffffffffffffffffffffffffff1673ffffffffffffffffffffffffffffffffffffffff1663081812fc846040518263ffffffff1660e01b8152600401610d829190612167565b60206040518083038186803b158015610d9a57600080fd5b505afa158015610dae573d6000803e3d6000fd5b505050506040513d601f19601f82011682018060405250810190610dd29190611d23565b73ffffffffffffffffffffffffffffffffffffffff161480610e9d5750600160009054906101000a900473ffffffffffffffffffffffffffffffffffffffff1673ffffffffffffffffffffffffffffffffffffffff1663e985e9c582306040518363ffffffff1660e01b8152600401610e4c929190611fbe565b60206040518083038186803b158015610e6457600080fd5b505afa158015610e78573d6000803e3d6000fd5b505050506040513d601f19601f82011682018060405250810190610e9c9190611def565b5b6040518060400160405280600681526020017f303033303033000000000000000000000000000000000000000000000000000081525090610f14576040517f08c379a0000000000000000000000000000000000000000000000000000000008152600401610f0b91906120a5565b60405180910390fd5b50600160009054906101000a900473ffffffffffffffffffffffffffffffffffffffff1673ffffffffffffffffffffffffffffffffffffffff166342842e0e8233856040518463ffffffff1660e01b8152600401610f7493929190611fe7565b600060405180830381600087803b158015610f8e57600080fd5b505af1158015610fa2573d6000803e3d6000fd5b505050506110246040518060400160405280601981526020017f65746842616c616e63655b746f6b656e53656c6c65725d3a2000000000000000815250600460008473ffffffffffffffffffffffffffffffffffffffff1673ffffffffffffffffffffffffffffffffffffffff16815260200190815260200160002054611b79565b6110656040518060400160405280601181526020017f636f6e747261637442616c616e63653a20000000000000000000000000000000815250600354611b79565b6103e66103e83461107691906122b5565b61108091906122e6565b600460008373ffffffffffffffffffffffffffffffffffffffff1673ffffffffffffffffffffffffffffffffffffffff16815260200190815260200160002060008282546110ce919061225f565b9250508190555060026103e8346110e591906122b5565b6110ef91906122e6565b60036000828254611100919061225f565b925050819055503373ffffffffffffffffffffffffffffffffffffffff167f02d08db2db312fc60b41a046c46a7772a6c2dcdca0c32a9d3423c6dcbde693e9833447604051611151939291906121ab565b60405180910390a25050565b60046020528060005260406000206000915090505481565b6111c76040518060400160405280601081526020017f70726963655b5f746f6b656e49645d20000000000000000000000000000000008152506002600085815260200190815260200160002054611b79565b6000600260008481526020019081526020016000205414156111e857600080fd5b600260008381526020019081526020016000205434101561123e576040517f08c379a000000000000000000000000000000000000000000000000000000000815260040161123590612147565b60405180910390fd5b600073ffffffffffffffffffffffffffffffffffffffff163373ffffffffffffffffffffffffffffffffffffffff16141580156112a757503073ffffffffffffffffffffffffffffffffffffffff163373ffffffffffffffffffffffffffffffffffffffff1614155b6112b057600080fd5b34600360008282546112c2919061225f565b92505081905550600160009054906101000a900473ffffffffffffffffffffffffffffffffffffffff1673ffffffffffffffffffffffffffffffffffffffff1663d3fc98648484846040518463ffffffff1660e01b81526004016113289392919061204c565b600060405180830381600087803b15801561134257600080fd5b505af1158015611356573d6000803e3d6000fd5b505050506113996040518060400160405280600a81526020017f6d73672e76616c7565200000000000000000000000000000000000000000000081525034611b79565b8273ffffffffffffffffffffffffffffffffffffffff167f02d08db2db312fc60b41a046c46a7772a6c2dcdca0c32a9d3423c6dcbde693e98334476040516113e3939291906121ab565b60405180910390a2505050565b600060026000838152602001908152602001600020549050919050565b60008111801561145c5750600460003373ffffffffffffffffffffffffffffffffffffffff1673ffffffffffffffffffffffffffffffffffffffff168152602001908152602001600020548111155b61146557600080fd5b3373ffffffffffffffffffffffffffffffffffffffff166108fc829081150290604051600060405180830381858888f193505050501580156114ab573d6000803e3d6000fd5b503373ffffffffffffffffffffffffffffffffffffffff167f6356739d963da01dc3533acba7203430fcc14f2175d48a8dd0973d7db49c785e82600460003373ffffffffffffffffffffffffffffffffffffffff1673ffffffffffffffffffffffffffffffffffffffff16815260200190815260200160002054604051611533929190612182565b60405180910390a280600460003373ffffffffffffffffffffffffffffffffffffffff1673ffffffffffffffffffffffffffffffffffffffff168152602001908152602001600020600082825461158a9190612340565b9250508190555050565b60008054906101000a900473ffffffffffffffffffffffffffffffffffffffff1673ffffffffffffffffffffffffffffffffffffffff163373ffffffffffffffffffffffffffffffffffffffff1614611622576040517f08c379a000000000000000000000000000000000000000000000000000000000815260040161161990612127565b60405180910390fd5b7f2d5a82cbc34270500c60b0532ca36cd4716c295bf0351b25835351664a3125bf60008054906101000a900473ffffffffffffffffffffffffffffffffffffffff16604051611671919061201e565b60405180910390a1600073ffffffffffffffffffffffffffffffffffffffff168173ffffffffffffffffffffffffffffffffffffffff1614156040518060400160405280600681526020017f303138303032000000000000000000000000000000000000000000000000000081525090611721576040517f08c379a000000000000000000000000000000000000000000000000000000000815260040161171891906120a5565b60405180910390fd5b508073ffffffffffffffffffffffffffffffffffffffff1660008054906101000a900473ffffffffffffffffffffffffffffffffffffffff1673ffffffffffffffffffffffffffffffffffffffff167f8be0079c531659141344cd1fd0a4f28419497f9722a3daafe3b4186f6b6457e060405160405180910390a3806000806101000a81548173ffffffffffffffffffffffffffffffffffffffff021916908373ffffffffffffffffffffffffffffffffffffffff16021790555050565b6040518060400160405280600681526020017f303138303031000000000000000000000000000000000000000000000000000081525081565b6509184e72a000821161182a57600080fd5b61188b6040518060400160405280601781526020017f61646472657373284e4d5744636f6e7472616374293a20000000000000000000815250600160009054906101000a900473ffffffffffffffffffffffffffffffffffffffff16611add565b6118ea6040518060400160405280600781526020017f6f776e65723a200000000000000000000000000000000000000000000000000081525060008054906101000a900473ffffffffffffffffffffffffffffffffffffffff16611add565b6119296040518060400160405280600c81526020017f6d73672e73656e6465723a20000000000000000000000000000000000000000081525033611add565b600160009054906101000a900473ffffffffffffffffffffffffffffffffffffffff1673ffffffffffffffffffffffffffffffffffffffff16636352211e826040518263ffffffff1660e01b81526004016119849190612167565b60206040518083038186803b15801561199c57600080fd5b505afa9250505080156119cd57506040513d601f19601f820116820180604052508101906119ca9190611d23565b60015b611a87576119d96124cd565b806119e45750611a78565b3373ffffffffffffffffffffffffffffffffffffffff1660008054906101000a900473ffffffffffffffffffffffffffffffffffffffff1673ffffffffffffffffffffffffffffffffffffffff1614611a72576040517f08c379a0000000000000000000000000000000000000000000000000000000008152600401611a6990612127565b60405180910390fd5b50611a82565b3d6000803e3d6000fd5b611ac1565b3373ffffffffffffffffffffffffffffffffffffffff168173ffffffffffffffffffffffffffffffffffffffff1614611abf57600080fd5b505b8160026000838152602001908152602001600020819055505050565b611b758282604051602401611af39291906120c7565b6040516020818303038152906040527f319af333000000000000000000000000000000000000000000000000000000007bffffffffffffffffffffffffffffffffffffffffffffffffffffffff19166020820180517bffffffffffffffffffffffffffffffffffffffffffffffffffffffff8381831617835250505050611c15565b5050565b611c118282604051602401611b8f9291906120f7565b6040516020818303038152906040527f9710a9d0000000000000000000000000000000000000000000000000000000007bffffffffffffffffffffffffffffffffffffffffffffffffffffffff19166020820180517bffffffffffffffffffffffffffffffffffffffffffffffffffffffff8381831617835250505050611c15565b5050565b60008151905060006a636f6e736f6c652e6c6f679050602083016000808483855afa5050505050565b6000611c51611c4c84612213565b6121e2565b905082815260208101848484011115611c6957600080fd5b611c748482856123e0565b509392505050565b600081359050611c8b81612583565b92915050565b600081519050611ca081612583565b92915050565b600081519050611cb58161259a565b92915050565b600082601f830112611ccc57600080fd5b8135611cdc848260208601611c3e565b91505092915050565b600081359050611cf4816125b1565b92915050565b600060208284031215611d0c57600080fd5b6000611d1a84828501611c7c565b91505092915050565b600060208284031215611d3557600080fd5b6000611d4384828501611c91565b91505092915050565b60008060408385031215611d5f57600080fd5b6000611d6d85828601611c7c565b9250506020611d7e85828601611ce5565b9150509250929050565b600080600060608486031215611d9d57600080fd5b6000611dab86828701611c7c565b9350506020611dbc86828701611ce5565b925050604084013567ffffffffffffffff811115611dd957600080fd5b611de586828701611cbb565b9150509250925092565b600060208284031215611e0157600080fd5b6000611e0f84828501611ca6565b91505092915050565b600060208284031215611e2a57600080fd5b6000611e3884828501611ce5565b91505092915050565b60008060408385031215611e5457600080fd5b6000611e6285828601611ce5565b9250506020611e7385828601611ce5565b9150509250929050565b611e8681612374565b82525050565b611e95816123bc565b82525050565b6000611ea682612243565b611eb0818561224e565b9350611ec08185602086016123ef565b611ec9816124af565b840191505092915050565b6000611ee160098361224e565b91507f4e6f74206f776e657200000000000000000000000000000000000000000000006000830152602082019050919050565b6000611f21601c8361224e565b91507f706173736564206f776e65727368697020726571756972656d656e74000000006000830152602082019050919050565b6000611f6160108361224e565b91507f4e6f7420656e6f756768204568746572000000000000000000000000000000006000830152602082019050919050565b611f9d816123b2565b82525050565b6000602082019050611fb86000830184611e7d565b92915050565b6000604082019050611fd36000830185611e7d565b611fe06020830184611e7d565b9392505050565b6000606082019050611ffc6000830186611e7d565b6120096020830185611e7d565b6120166040830184611f94565b949350505050565b60006040820190506120336000830184611e7d565b818103602083015261204481611f14565b905092915050565b60006060820190506120616000830186611e7d565b61206e6020830185611f94565b81810360408301526120808184611e9b565b9050949350505050565b600060208201905061209f6000830184611e8c565b92915050565b600060208201905081810360008301526120bf8184611e9b565b905092915050565b600060408201905081810360008301526120e18185611e9b565b90506120f06020830184611e7d565b9392505050565b600060408201905081810360008301526121118185611e9b565b90506121206020830184611f94565b9392505050565b6000602082019050818103600083015261214081611ed4565b9050919050565b6000602082019050818103600083015261216081611f54565b9050919050565b600060208201905061217c6000830184611f94565b92915050565b60006040820190506121976000830185611f94565b6121a46020830184611f94565b9392505050565b60006060820190506121c06000830186611f94565b6121cd6020830185611f94565b6121da6040830184611f94565b949350505050565b6000604051905081810181811067ffffffffffffffff8211171561220957612208612480565b5b8060405250919050565b600067ffffffffffffffff82111561222e5761222d612480565b5b601f19601f8301169050602081019050919050565b600081519050919050565b600082825260208201905092915050565b600061226a826123b2565b9150612275836123b2565b9250827fffffffffffffffffffffffffffffffffffffffffffffffffffffffffffffffff038211156122aa576122a9612422565b5b828201905092915050565b60006122c0826123b2565b91506122cb836123b2565b9250826122db576122da612451565b5b828204905092915050565b60006122f1826123b2565b91506122fc836123b2565b9250817fffffffffffffffffffffffffffffffffffffffffffffffffffffffffffffffff048311821515161561233557612334612422565b5b828202905092915050565b600061234b826123b2565b9150612356836123b2565b92508282101561236957612368612422565b5b828203905092915050565b600061237f82612392565b9050919050565b60008115159050919050565b600073ffffffffffffffffffffffffffffffffffffffff82169050919050565b6000819050919050565b60006123c7826123ce565b9050919050565b60006123d982612392565b9050919050565b82818337600083830152505050565b60005b8381101561240d5780820151818401526020810190506123f2565b8381111561241c576000848401525b50505050565b7f4e487b7100000000000000000000000000000000000000000000000000000000600052601160045260246000fd5b7f4e487b7100000000000000000000000000000000000000000000000000000000600052601260045260246000fd5b7f4e487b7100000000000000000000000000000000000000000000000000000000600052604160045260246000fd5b6000601f19601f8301169050919050565b60008160e01c9050919050565b600060443d10156124dd57612580565b60046000803e6124ee6000516124c0565b6308c379a081146124ff5750612580565b60405160043d036004823e80513d602482011167ffffffffffffffff8211171561252b57505050612580565b808201805167ffffffffffffffff81111561254a575050505050612580565b8060208301013d850181111561256557505050505050612580565b61256e826124af565b60208401016040528296505050505050505b90565b61258c81612374565b811461259757600080fd5b50565b6125a381612386565b81146125ae57600080fd5b50565b6125ba816123b2565b81146125c557600080fd5b5056fea2646970667358221220a941ab9b85344136558c1d8fc1aefe7a517467a9541bdf96dee400a94c81820764736f6c63430008000033",
  "linkReferences": {},
  "deployedLinkReferences": {}
}