{
  "_format": "hh-sol-artifact-1",
  "contractName": "StopTheWarOnDrugs",
  "sourceName": "contracts/NMWD/StopTheWarOnDrugs.sol",
  "abi": [
    {
      "inputs": [
        {
          "internalType": "string",
          "name": "_name",
          "type": "string"
        },
        {
          "internalType": "string",
          "name": "_symbol",
          "type": "string"
        }
      ],
      "stateMutability": "nonpayable",
      "type": "constructor"
    },
    {
      "anonymous": false,
      "inputs": [
        {
          "indexed": true,
          "internalType": "address",
          "name": "_owner",
          "type": "address"
        },
        {
          "indexed": true,
          "internalType": "address",
          "name": "_approved",
          "type": "address"
        },
        {
          "indexed": true,
          "internalType": "uint256",
          "name": "_tokenId",
          "type": "uint256"
        }
      ],
      "name": "Approval",
      "type": "event"
    },
    {
      "anonymous": false,
      "inputs": [
        {
          "indexed": true,
          "internalType": "address",
          "name": "_owner",
          "type": "address"
        },
        {
          "indexed": true,
          "internalType": "address",
          "name": "_operator",
          "type": "address"
        },
        {
          "indexed": false,
          "internalType": "bool",
          "name": "_approved",
          "type": "bool"
        }
      ],
      "name": "ApprovalForAll",
      "type": "event"
    },
    {
      "anonymous": false,
      "inputs": [
        {
          "indexed": true,
          "internalType": "address",
          "name": "previousOwner",
          "type": "address"
        },
        {
          "indexed": true,
          "internalType": "address",
          "name": "newOwner",
          "type": "address"
        }
      ],
      "name": "OwnershipTransferred",
      "type": "event"
    },
    {
      "anonymous": false,
      "inputs": [
        {
          "indexed": true,
          "internalType": "address",
          "name": "_from",
          "type": "address"
        },
        {
          "indexed": true,
          "internalType": "address",
          "name": "_to",
          "type": "address"
        },
        {
          "indexed": true,
          "internalType": "uint256",
          "name": "_tokenId",
          "type": "uint256"
        }
      ],
      "name": "Transfer",
      "type": "event"
    },
    {
      "anonymous": false,
      "inputs": [
        {
          "indexed": false,
          "internalType": "address",
          "name": "deliveredTo",
          "type": "address"
        },
        {
          "indexed": false,
          "internalType": "string",
          "name": "msg",
          "type": "string"
        }
      ],
      "name": "_msg",
      "type": "event"
    },
    {
      "inputs": [],
      "name": "CANNOT_TRANSFER_TO_ZERO_ADDRESS",
      "outputs": [
        {
          "internalType": "string",
          "name": "",
          "type": "string"
        }
      ],
      "stateMutability": "view",
      "type": "function"
    },
    {
      "inputs": [],
      "name": "NOT_CURRENT_OWNER",
      "outputs": [
        {
          "internalType": "string",
          "name": "",
          "type": "string"
        }
      ],
      "stateMutability": "view",
      "type": "function"
    },
    {
      "inputs": [
        {
          "internalType": "address",
          "name": "_to",
          "type": "address"
        },
        {
          "internalType": "uint256",
          "name": "_tokenId",
          "type": "uint256"
        }
      ],
      "name": "addNFToken",
      "outputs": [],
      "stateMutability": "nonpayable",
      "type": "function"
    },
    {
      "inputs": [
        {
          "internalType": "address",
          "name": "_approved",
          "type": "address"
        },
        {
          "internalType": "uint256",
          "name": "_tokenId",
          "type": "uint256"
        }
      ],
      "name": "approve",
      "outputs": [],
      "stateMutability": "nonpayable",
      "type": "function"
    },
    {
      "inputs": [
        {
          "internalType": "address",
          "name": "_owner",
          "type": "address"
        }
      ],
      "name": "balanceOf",
      "outputs": [
        {
          "internalType": "uint256",
          "name": "",
          "type": "uint256"
        }
      ],
      "stateMutability": "view",
      "type": "function"
    },
    {
      "inputs": [
        {
          "internalType": "uint256",
          "name": "_tokenId",
          "type": "uint256"
        }
      ],
      "name": "burn",
      "outputs": [],
      "stateMutability": "nonpayable",
      "type": "function"
    },
    {
      "inputs": [
        {
          "internalType": "uint256",
          "name": "_tokenId",
          "type": "uint256"
        }
      ],
      "name": "getApproved",
      "outputs": [
        {
          "internalType": "address",
          "name": "",
          "type": "address"
        }
      ],
      "stateMutability": "view",
      "type": "function"
    },
    {
      "inputs": [
        {
          "internalType": "address",
          "name": "_address",
          "type": "address"
        }
      ],
      "name": "getNFTsByAddress",
      "outputs": [
        {
          "internalType": "uint256[]",
          "name": "",
          "type": "uint256[]"
        }
      ],
      "stateMutability": "view",
      "type": "function"
    },
    {
      "inputs": [
        {
          "internalType": "address",
          "name": "_owner",
          "type": "address"
        }
      ],
      "name": "getOwnerNFTCount",
      "outputs": [
        {
          "internalType": "uint256",
          "name": "",
          "type": "uint256"
        }
      ],
      "stateMutability": "view",
      "type": "function"
    },
    {
      "inputs": [
        {
          "internalType": "address",
          "name": "_owner",
          "type": "address"
        },
        {
          "internalType": "address",
          "name": "_operator",
          "type": "address"
        }
      ],
      "name": "isApprovedForAll",
      "outputs": [
        {
          "internalType": "bool",
          "name": "",
          "type": "bool"
        }
      ],
      "stateMutability": "view",
      "type": "function"
    },
    {
      "inputs": [
        {
          "internalType": "address",
          "name": "_to",
          "type": "address"
        },
        {
          "internalType": "uint256",
          "name": "_tokenId",
          "type": "uint256"
        },
        {
          "internalType": "address",
          "name": "royaltyRecipient",
          "type": "address"
        },
        {
          "internalType": "uint256",
          "name": "royaltyValue",
          "type": "uint256"
        }
      ],
      "name": "mint",
      "outputs": [],
      "stateMutability": "nonpayable",
      "type": "function"
    },
    {
      "inputs": [],
      "name": "name",
      "outputs": [
        {
          "internalType": "string",
          "name": "_name",
          "type": "string"
        }
      ],
      "stateMutability": "view",
      "type": "function"
    },
    {
      "inputs": [],
      "name": "owner",
      "outputs": [
        {
          "internalType": "address",
          "name": "",
          "type": "address"
        }
      ],
      "stateMutability": "view",
      "type": "function"
    },
    {
      "inputs": [
        {
          "internalType": "uint256",
          "name": "_tokenId",
          "type": "uint256"
        }
      ],
      "name": "ownerOf",
      "outputs": [
        {
          "internalType": "address",
          "name": "_owner",
          "type": "address"
        }
      ],
      "stateMutability": "view",
      "type": "function"
    },
    {
      "inputs": [
        {
          "internalType": "address",
          "name": "_from",
          "type": "address"
        },
        {
          "internalType": "uint256",
          "name": "_tokenId",
          "type": "uint256"
        }
      ],
      "name": "removeNFToken",
      "outputs": [],
      "stateMutability": "nonpayable",
      "type": "function"
    },
    {
      "inputs": [
        {
          "internalType": "uint256",
          "name": "tokenId",
          "type": "uint256"
        },
        {
          "internalType": "uint256",
          "name": "value",
          "type": "uint256"
        }
      ],
      "name": "royaltyInfo",
      "outputs": [
        {
          "internalType": "address",
          "name": "receiver",
          "type": "address"
        },
        {
          "internalType": "uint256",
          "name": "royaltyAmount",
          "type": "uint256"
        }
      ],
      "stateMutability": "view",
      "type": "function"
    },
    {
      "inputs": [
        {
          "internalType": "address",
          "name": "_from",
          "type": "address"
        },
        {
          "internalType": "address",
          "name": "_to",
          "type": "address"
        },
        {
          "internalType": "uint256",
          "name": "_tokenId",
          "type": "uint256"
        }
      ],
      "name": "safeTransferFrom",
      "outputs": [],
      "stateMutability": "nonpayable",
      "type": "function"
    },
    {
      "inputs": [
        {
          "internalType": "address",
          "name": "_from",
          "type": "address"
        },
        {
          "internalType": "address",
          "name": "_to",
          "type": "address"
        },
        {
          "internalType": "uint256",
          "name": "_tokenId",
          "type": "uint256"
        },
        {
          "internalType": "bytes",
          "name": "_data",
          "type": "bytes"
        }
      ],
      "name": "safeTransferFrom",
      "outputs": [],
      "stateMutability": "nonpayable",
      "type": "function"
    },
    {
      "inputs": [
        {
          "internalType": "uint256",
          "name": "security_value",
          "type": "uint256"
        }
      ],
      "name": "seflDestruct",
      "outputs": [],
      "stateMutability": "nonpayable",
      "type": "function"
    },
    {
      "inputs": [
        {
          "internalType": "address",
          "name": "_operator",
          "type": "address"
        },
        {
          "internalType": "bool",
          "name": "_approved",
          "type": "bool"
        }
      ],
      "name": "setApprovalForAll",
      "outputs": [],
      "stateMutability": "nonpayable",
      "type": "function"
    },
    {
      "inputs": [
        {
          "internalType": "uint256",
          "name": "_tokenId",
          "type": "uint256"
        },
        {
          "internalType": "string",
          "name": "_msg",
          "type": "string"
        }
      ],
      "name": "setTokenMessage",
      "outputs": [],
      "stateMutability": "nonpayable",
      "type": "function"
    },
    {
      "inputs": [
        {
          "internalType": "bytes4",
          "name": "_interfaceID",
          "type": "bytes4"
        }
      ],
      "name": "supportsInterface",
      "outputs": [
        {
          "internalType": "bool",
          "name": "",
          "type": "bool"
        }
      ],
      "stateMutability": "view",
      "type": "function"
    },
    {
      "inputs": [],
      "name": "symbol",
      "outputs": [
        {
          "internalType": "string",
          "name": "_symbol",
          "type": "string"
        }
      ],
      "stateMutability": "view",
      "type": "function"
    },
    {
      "inputs": [
        {
          "internalType": "uint256",
          "name": "_index",
          "type": "uint256"
        }
      ],
      "name": "tokenByIndex",
      "outputs": [
        {
          "internalType": "uint256",
          "name": "",
          "type": "uint256"
        }
      ],
      "stateMutability": "view",
      "type": "function"
    },
    {
      "inputs": [
        {
          "internalType": "uint256",
          "name": "_tokenId",
          "type": "uint256"
        }
      ],
      "name": "tokenMessage",
      "outputs": [
        {
          "internalType": "string",
          "name": "",
          "type": "string"
        }
      ],
      "stateMutability": "view",
      "type": "function"
    },
    {
      "inputs": [
        {
          "internalType": "address",
          "name": "_owner",
          "type": "address"
        },
        {
          "internalType": "uint256",
          "name": "_index",
          "type": "uint256"
        }
      ],
      "name": "tokenOfOwnerByIndex",
      "outputs": [
        {
          "internalType": "uint256",
          "name": "",
          "type": "uint256"
        }
      ],
      "stateMutability": "view",
      "type": "function"
    },
    {
      "inputs": [
        {
          "internalType": "uint256",
          "name": "_tokenId",
          "type": "uint256"
        }
      ],
      "name": "tokenURI",
      "outputs": [
        {
          "internalType": "string",
          "name": "",
          "type": "string"
        }
      ],
      "stateMutability": "view",
      "type": "function"
    },
    {
      "inputs": [],
      "name": "totalSupply",
      "outputs": [
        {
          "internalType": "uint256",
          "name": "",
          "type": "uint256"
        }
      ],
      "stateMutability": "view",
      "type": "function"
    },
    {
      "inputs": [
        {
          "internalType": "address",
          "name": "_from",
          "type": "address"
        },
        {
          "internalType": "address",
          "name": "_to",
          "type": "address"
        },
        {
          "internalType": "uint256",
          "name": "_tokenId",
          "type": "uint256"
        }
      ],
      "name": "transferFrom",
      "outputs": [],
      "stateMutability": "nonpayable",
      "type": "function"
    },
    {
      "inputs": [
        {
          "internalType": "address",
          "name": "_newOwner",
          "type": "address"
        }
      ],
      "name": "transferOwnership",
      "outputs": [],
      "stateMutability": "nonpayable",
      "type": "function"
    },
    {
      "inputs": [
        {
          "internalType": "string",
          "name": "_msg",
          "type": "string"
        }
      ],
      "name": "validateMsg",
      "outputs": [
        {
          "internalType": "bool",
          "name": "",
          "type": "bool"
        }
      ],
      "stateMutability": "pure",
      "type": "function"
    }
  ],
  "bytecode": "0x60806040523480156200001157600080fd5b50604051620052fb380380620052fb8339818101604052810190620000379190620003d6565b60016000806301ffc9a760e01b7bffffffffffffffffffffffffffffffffffffffffffffffffffffffff1916815260200190815260200160002060006101000a81548160ff02191690831515021790555060016000806380ac58cd60e01b7bffffffffffffffffffffffffffffffffffffffffffffffffffffffff1916815260200190815260200160002060006101000a81548160ff021916908315150217905550600160008063780e9d6360e01b7bffffffffffffffffffffffffffffffffffffffffffffffffffffffff1916815260200190815260200160002060006101000a81548160ff0219169083151502179055506001600080635b5e139f60e01b7bffffffffffffffffffffffffffffffffffffffffffffffffffffffff1916815260200190815260200160002060006101000a81548160ff0219169083151502179055506001600080632a55205a60e01b7bffffffffffffffffffffffffffffffffffffffffffffffffffffffff1916815260200190815260200160002060006101000a81548160ff021916908315150217905550620001dc6200021660201b60201c565b8160099080519060200190620001f4929190620002b4565b5080600a90805190602001906200020d929190620002b4565b50505062000644565b33600c60006101000a81548173ffffffffffffffffffffffffffffffffffffffff021916908373ffffffffffffffffffffffffffffffffffffffff1602179055507f2d5a82cbc34270500c60b0532ca36cd4716c295bf0351b25835351664a3125bf600c60009054906101000a900473ffffffffffffffffffffffffffffffffffffffff16604051620002aa91906200049c565b60405180910390a1565b828054620002c290620005b0565b90600052602060002090601f016020900481019282620002e6576000855562000332565b82601f106200030157805160ff191683800117855562000332565b8280016001018555821562000332579182015b828111156200033157825182559160200191906001019062000314565b5b50905062000341919062000345565b5090565b5b808211156200036057600081600090555060010162000346565b5090565b60006200037b620003758462000502565b620004ce565b9050828152602081018484840111156200039457600080fd5b620003a18482856200057a565b509392505050565b600082601f830112620003bb57600080fd5b8151620003cd84826020860162000364565b91505092915050565b60008060408385031215620003ea57600080fd5b600083015167ffffffffffffffff8111156200040557600080fd5b6200041385828601620003a9565b925050602083015167ffffffffffffffff8111156200043157600080fd5b6200043f85828601620003a9565b9150509250929050565b620004548162000546565b82525050565b60006200046960098362000535565b91507f736574206f776e657200000000000000000000000000000000000000000000006000830152602082019050919050565b6000604082019050620004b3600083018462000449565b8181036020830152620004c6816200045a565b905092915050565b6000604051905081810181811067ffffffffffffffff82111715620004f857620004f762000615565b5b8060405250919050565b600067ffffffffffffffff82111562000520576200051f62000615565b5b601f19601f8301169050602081019050919050565b600082825260208201905092915050565b600062000553826200055a565b9050919050565b600073ffffffffffffffffffffffffffffffffffffffff82169050919050565b60005b838110156200059a5780820151818401526020810190506200057d565b83811115620005aa576000848401525b50505050565b60006002820490506001821680620005c957607f821691505b60208210811415620005e057620005df620005e6565b5b50919050565b7f4e487b7100000000000000000000000000000000000000000000000000000000600052602260045260246000fd5b7f4e487b7100000000000000000000000000000000000000000000000000000000600052604160045260246000fd5b614ca780620006546000396000f3fe608060405234801561001057600080fd5b50600436106101e55760003560e01c80637ff0bf071161010f578063b88d4fde116100a2578063e4b7baeb11610071578063e4b7baeb146105c5578063e985e9c5146105f5578063f2fde38b14610625578063f3fe3bc314610641576101e5565b8063b88d4fde1461052d578063bd7f4c8d14610549578063c2af674f14610579578063c87b56dd14610595576101e5565b80638f847076116100de5780638f847076146104bb57806395d89b41146104d75780639c01e1f5146104f5578063a22cb46514610511576101e5565b80637ff0bf0714610433578063860d248a1461044f578063894b5b3c1461046d5780638da5cb5b1461049d576101e5565b80632a55205a1161018757806342966c681161015657806342966c68146103875780634f6ccce7146103a35780636352211e146103d357806370a0823114610403576101e5565b80632a55205a146102ee5780632f745c591461031f5780633c173a4f1461034f57806342842e0e1461036b576101e5565b8063095ea7b3116101c3578063095ea7b31461026857806318160ddd146102845780631dadae8e146102a257806323b872dd146102d2576101e5565b806301ffc9a7146101ea57806306fdde031461021a578063081812fc14610238575b600080fd5b61020460048036038101906101ff919061433a565b61065f565b604051610211919061479f565b60405180910390f35b6102226106c6565b60405161022f91906147ba565b60405180910390f35b610252600480360381019061024d91906143cd565b610758565b60405161025f91906146bf565b60405180910390f35b610282600480360381019061027d919061429b565b610873565b005b61028c610c5d565b604051610299919061481c565b60405180910390f35b6102bc60048036038101906102b7919061412b565b610c6a565b6040516102c9919061477d565b60405180910390f35b6102ec60048036038101906102e79190614190565b610d01565b005b6103086004803603810190610303919061444a565b611161565b604051610316929190614754565b60405180910390f35b6103396004803603810190610334919061429b565b611214565b604051610346919061481c565b60405180910390f35b610369600480360381019061036491906142d7565b61135d565b005b61038560048036038101906103809190614190565b611609565b005b6103a1600480360381019061039c91906143cd565b611629565b005b6103bd60048036038101906103b891906143cd565b611761565b6040516103ca919061481c565b60405180910390f35b6103ed60048036038101906103e891906143cd565b61182f565b6040516103fa91906146bf565b60405180910390f35b61041d6004803603810190610418919061412b565b611915565b60405161042a919061481c565b60405180910390f35b61044d600480360381019061044891906143cd565b6119cf565b005b610457611b02565b60405161046491906147ba565b60405180910390f35b6104876004803603810190610482919061438c565b611b3b565b604051610494919061479f565b60405180910390f35b6104a5611b74565b6040516104b291906146bf565b60405180910390f35b6104d560048036038101906104d0919061429b565b611b9a565b005b6104df611c91565b6040516104ec91906147ba565b60405180910390f35b61050f600480360381019061050a919061429b565b611d23565b005b61052b6004803603810190610526919061425f565b611e1a565b005b610547600480360381019061054291906141df565b611f17565b005b610563600480360381019061055e919061412b565b611f6e565b604051610570919061481c565b60405180910390f35b610593600480360381019061058e91906143f6565b611f80565b005b6105af60048036038101906105aa91906143cd565b612293565b6040516105bc91906147ba565b60405180910390f35b6105df60048036038101906105da91906143cd565b612416565b6040516105ec91906147ba565b60405180910390f35b61060f600480360381019061060a9190614154565b612599565b60405161061c919061479f565b60405180910390f35b61063f600480360381019061063a919061412b565b61262d565b005b61064961287f565b60405161065691906147ba565b60405180910390f35b6000806000837bffffffffffffffffffffffffffffffffffffffffffffffffffffffff19167bffffffffffffffffffffffffffffffffffffffffffffffffffffffff1916815260200190815260200160002060009054906101000a900460ff169050919050565b6060600980546106d590614acd565b80601f016020809104026020016040519081016040528092919081815260200182805461070190614acd565b801561074e5780601f106107235761010080835404028352916020019161074e565b820191906000526020600020905b81548152906001019060200180831161073157829003601f168201915b5050505050905090565b600081600073ffffffffffffffffffffffffffffffffffffffff166001600083815260200190815260200160002060009054906101000a900473ffffffffffffffffffffffffffffffffffffffff1673ffffffffffffffffffffffffffffffffffffffff1614156040518060400160405280600481526020017f303330320000000000000000000000000000000000000000000000000000000081525090610836576040517f08c379a000000000000000000000000000000000000000000000000000000000815260040161082d91906147ba565b60405180910390fd5b506002600084815260200190815260200160002060009054906101000a900473ffffffffffffffffffffffffffffffffffffffff16915050919050565b8060006001600083815260200190815260200160002060009054906101000a900473ffffffffffffffffffffffffffffffffffffffff1690506108b46128b8565b73ffffffffffffffffffffffffffffffffffffffff168173ffffffffffffffffffffffffffffffffffffffff1614806109735750600460008273ffffffffffffffffffffffffffffffffffffffff1673ffffffffffffffffffffffffffffffffffffffff16815260200190815260200160002060003373ffffffffffffffffffffffffffffffffffffffff1673ffffffffffffffffffffffffffffffffffffffff16815260200190815260200160002060009054906101000a900460ff165b6040518060400160405280600481526020017f3033303300000000000000000000000000000000000000000000000000000000815250906109ea576040517f08c379a00000000000000000000000000000000000000000000000000000000081526004016109e191906147ba565b60405180910390fd5b5082600073ffffffffffffffffffffffffffffffffffffffff166001600083815260200190815260200160002060009054906101000a900473ffffffffffffffffffffffffffffffffffffffff1673ffffffffffffffffffffffffffffffffffffffff1614156040518060400160405280600481526020017f303330320000000000000000000000000000000000000000000000000000000081525090610ac7576040517f08c379a0000000000000000000000000000000000000000000000000000000008152600401610abe91906147ba565b60405180910390fd5b5060006001600086815260200190815260200160002060009054906101000a900473ffffffffffffffffffffffffffffffffffffffff1690508073ffffffffffffffffffffffffffffffffffffffff168673ffffffffffffffffffffffffffffffffffffffff1614156040518060400160405280600481526020017f303330380000000000000000000000000000000000000000000000000000000081525090610ba7576040517f08c379a0000000000000000000000000000000000000000000000000000000008152600401610b9e91906147ba565b60405180910390fd5b50856002600087815260200190815260200160002060006101000a81548173ffffffffffffffffffffffffffffffffffffffff021916908373ffffffffffffffffffffffffffffffffffffffff160217905550848673ffffffffffffffffffffffffffffffffffffffff168273ffffffffffffffffffffffffffffffffffffffff167f8c5be1e5ebec7d5bd14f71427d1e84f3dd0314c0f7b2291e5b200ac8c7c3b92560405160405180910390a4505050505050565b6000600580549050905090565b6060600760008373ffffffffffffffffffffffffffffffffffffffff1673ffffffffffffffffffffffffffffffffffffffff168152602001908152602001600020805480602002602001604051908101604052809291908181526020018280548015610cf557602002820191906000526020600020905b815481526020019060010190808311610ce1575b50505050509050919050565b8060006001600083815260200190815260200160002060009054906101000a900473ffffffffffffffffffffffffffffffffffffffff169050610d426128b8565b73ffffffffffffffffffffffffffffffffffffffff168173ffffffffffffffffffffffffffffffffffffffff161480610de05750610d7e6128b8565b73ffffffffffffffffffffffffffffffffffffffff166002600084815260200190815260200160002060009054906101000a900473ffffffffffffffffffffffffffffffffffffffff1673ffffffffffffffffffffffffffffffffffffffff16145b80610e715750600460008273ffffffffffffffffffffffffffffffffffffffff1673ffffffffffffffffffffffffffffffffffffffff16815260200190815260200160002060003373ffffffffffffffffffffffffffffffffffffffff1673ffffffffffffffffffffffffffffffffffffffff16815260200190815260200160002060009054906101000a900460ff165b6040518060400160405280600481526020017f303330340000000000000000000000000000000000000000000000000000000081525090610ee8576040517f08c379a0000000000000000000000000000000000000000000000000000000008152600401610edf91906147ba565b60405180910390fd5b5082600073ffffffffffffffffffffffffffffffffffffffff166001600083815260200190815260200160002060009054906101000a900473ffffffffffffffffffffffffffffffffffffffff1673ffffffffffffffffffffffffffffffffffffffff1614156040518060400160405280600481526020017f303330320000000000000000000000000000000000000000000000000000000081525090610fc5576040517f08c379a0000000000000000000000000000000000000000000000000000000008152600401610fbc91906147ba565b60405180910390fd5b5060006001600086815260200190815260200160002060009054906101000a900473ffffffffffffffffffffffffffffffffffffffff1690508673ffffffffffffffffffffffffffffffffffffffff168173ffffffffffffffffffffffffffffffffffffffff16146040518060400160405280600481526020017f3033303700000000000000000000000000000000000000000000000000000000815250906110a4576040517f08c379a000000000000000000000000000000000000000000000000000000000815260040161109b91906147ba565b60405180910390fd5b50600073ffffffffffffffffffffffffffffffffffffffff168673ffffffffffffffffffffffffffffffffffffffff1614156040518060400160405280600481526020017f30333031000000000000000000000000000000000000000000000000000000008152509061114d576040517f08c379a000000000000000000000000000000000000000000000000000000000815260040161114491906147ba565b60405180910390fd5b5061115886866128c0565b50505050505050565b6000806000600d60008681526020019081526020016000206040518060400160405290816000820160009054906101000a900473ffffffffffffffffffffffffffffffffffffffff1673ffffffffffffffffffffffffffffffffffffffff1673ffffffffffffffffffffffffffffffffffffffff168152602001600182015481525050905080600001516127108260200151866111fe919061497c565b611208919061494b565b92509250509250929050565b6000600760008473ffffffffffffffffffffffffffffffffffffffff1673ffffffffffffffffffffffffffffffffffffffff1681526020019081526020016000208054905082106040518060400160405280600481526020017f3032303100000000000000000000000000000000000000000000000000000000815250906112d2576040517f08c379a00000000000000000000000000000000000000000000000000000000081526004016112c991906147ba565b60405180910390fd5b50600760008473ffffffffffffffffffffffffffffffffffffffff1673ffffffffffffffffffffffffffffffffffffffff168152602001908152602001600020828154811061134a577f4e487b7100000000000000000000000000000000000000000000000000000000600052603260045260246000fd5b9060005260206000200154905092915050565b600c60009054906101000a900473ffffffffffffffffffffffffffffffffffffffff1673ffffffffffffffffffffffffffffffffffffffff163373ffffffffffffffffffffffffffffffffffffffff16146113ed576040517f08c379a00000000000000000000000000000000000000000000000000000000081526004016113e4906147fc565b60405180910390fd5b7f2d5a82cbc34270500c60b0532ca36cd4716c295bf0351b25835351664a3125bf600c60009054906101000a900473ffffffffffffffffffffffffffffffffffffffff1660405161143e9190614726565b60405180910390a16114508484612975565b600061145b84612a09565b905080600b60008681526020019081526020016000209080519060200190611484929190613f2d565b50600082111561149a57611499848484612a83565b5b600460008673ffffffffffffffffffffffffffffffffffffffff1673ffffffffffffffffffffffffffffffffffffffff1681526020019081526020016000206000600c60009054906101000a900473ffffffffffffffffffffffffffffffffffffffff1673ffffffffffffffffffffffffffffffffffffffff1673ffffffffffffffffffffffffffffffffffffffff16815260200190815260200160002060009054906101000a900460ff16611602576001600460008773ffffffffffffffffffffffffffffffffffffffff1673ffffffffffffffffffffffffffffffffffffffff1681526020019081526020016000206000600c60009054906101000a900473ffffffffffffffffffffffffffffffffffffffff1673ffffffffffffffffffffffffffffffffffffffff1673ffffffffffffffffffffffffffffffffffffffff16815260200190815260200160002060006101000a81548160ff0219169083151502179055505b5050505050565b61162483838360405180602001604052806000815250612b5f565b505050565b600c60009054906101000a900473ffffffffffffffffffffffffffffffffffffffff1673ffffffffffffffffffffffffffffffffffffffff163373ffffffffffffffffffffffffffffffffffffffff16146116b9576040517f08c379a00000000000000000000000000000000000000000000000000000000081526004016116b0906147fc565b60405180910390fd5b7f2d5a82cbc34270500c60b0532ca36cd4716c295bf0351b25835351664a3125bf600c60009054906101000a900473ffffffffffffffffffffffffffffffffffffffff1660405161170a9190614726565b60405180910390a160405180602001604052806000815250600b60008381526020019081526020016000209080519060200190611748929190613f2d565b5061175581600080612a83565b61175e8161313b565b50565b600060058054905082106040518060400160405280600481526020017f3032303100000000000000000000000000000000000000000000000000000000815250906117e2576040517f08c379a00000000000000000000000000000000000000000000000000000000081526004016117d991906147ba565b60405180910390fd5b506005828154811061181d577f4e487b7100000000000000000000000000000000000000000000000000000000600052603260045260246000fd5b90600052602060002001549050919050565b60006001600083815260200190815260200160002060009054906101000a900473ffffffffffffffffffffffffffffffffffffffff169050600073ffffffffffffffffffffffffffffffffffffffff168173ffffffffffffffffffffffffffffffffffffffff1614156040518060400160405280600481526020017f30333032000000000000000000000000000000000000000000000000000000008152509061190f576040517f08c379a000000000000000000000000000000000000000000000000000000000815260040161190691906147ba565b60405180910390fd5b50919050565b60008073ffffffffffffffffffffffffffffffffffffffff168273ffffffffffffffffffffffffffffffffffffffff1614156040518060400160405280600481526020017f3033303100000000000000000000000000000000000000000000000000000000815250906119be576040517f08c379a00000000000000000000000000000000000000000000000000000000081526004016119b591906147ba565b60405180910390fd5b506119c882613147565b9050919050565b600c60009054906101000a900473ffffffffffffffffffffffffffffffffffffffff1673ffffffffffffffffffffffffffffffffffffffff163373ffffffffffffffffffffffffffffffffffffffff1614611a5f576040517f08c379a0000000000000000000000000000000000000000000000000000000008152600401611a56906147fc565b60405180910390fd5b7f2d5a82cbc34270500c60b0532ca36cd4716c295bf0351b25835351664a3125bf600c60009054906101000a900473ffffffffffffffffffffffffffffffffffffffff16604051611ab09190614726565b60405180910390a16202f1458114611ac757600080fd5b600c60009054906101000a900473ffffffffffffffffffffffffffffffffffffffff1673ffffffffffffffffffffffffffffffffffffffff16ff5b6040518060400160405280600481526020017f303130320000000000000000000000000000000000000000000000000000000081525081565b600080829050600181511015611b55576000915050611b6f565b60c881511115611b69576000915050611b6f565b60019150505b919050565b600c60009054906101000a900473ffffffffffffffffffffffffffffffffffffffff1681565b600c60009054906101000a900473ffffffffffffffffffffffffffffffffffffffff1673ffffffffffffffffffffffffffffffffffffffff163373ffffffffffffffffffffffffffffffffffffffff1614611c2a576040517f08c379a0000000000000000000000000000000000000000000000000000000008152600401611c21906147fc565b60405180910390fd5b7f2d5a82cbc34270500c60b0532ca36cd4716c295bf0351b25835351664a3125bf600c60009054906101000a900473ffffffffffffffffffffffffffffffffffffffff16604051611c7b9190614726565b60405180910390a1611c8d8282613159565b5050565b6060600a8054611ca090614acd565b80601f0160208091040260200160405190810160405280929190818152602001828054611ccc90614acd565b8015611d195780601f10611cee57610100808354040283529160200191611d19565b820191906000526020600020905b815481529060010190602001808311611cfc57829003601f168201915b5050505050905090565b600c60009054906101000a900473ffffffffffffffffffffffffffffffffffffffff1673ffffffffffffffffffffffffffffffffffffffff163373ffffffffffffffffffffffffffffffffffffffff1614611db3576040517f08c379a0000000000000000000000000000000000000000000000000000000008152600401611daa906147fc565b60405180910390fd5b7f2d5a82cbc34270500c60b0532ca36cd4716c295bf0351b25835351664a3125bf600c60009054906101000a900473ffffffffffffffffffffffffffffffffffffffff16604051611e049190614726565b60405180910390a1611e168282613167565b5050565b80600460003373ffffffffffffffffffffffffffffffffffffffff1673ffffffffffffffffffffffffffffffffffffffff16815260200190815260200160002060008473ffffffffffffffffffffffffffffffffffffffff1673ffffffffffffffffffffffffffffffffffffffff16815260200190815260200160002060006101000a81548160ff0219169083151502179055508173ffffffffffffffffffffffffffffffffffffffff163373ffffffffffffffffffffffffffffffffffffffff167f17307eab39ab6107e8899845ad3d59bd9653f200f220920489ca2b5937696c3183604051611f0b919061479f565b60405180910390a35050565b611f6785858585858080601f016020809104026020016040519081016040528093929190818152602001838380828437600081840152601f19601f82011690508083019250505050505050612b5f565b5050505050565b6000611f7982613147565b9050919050565b81600073ffffffffffffffffffffffffffffffffffffffff166001600083815260200190815260200160002060009054906101000a900473ffffffffffffffffffffffffffffffffffffffff1673ffffffffffffffffffffffffffffffffffffffff1614156040518060400160405280600481526020017f30333032000000000000000000000000000000000000000000000000000000008152509061205c576040517f08c379a000000000000000000000000000000000000000000000000000000000815260040161205391906147ba565b60405180910390fd5b5060006001600085815260200190815260200160002060009054906101000a900473ffffffffffffffffffffffffffffffffffffffff1690508073ffffffffffffffffffffffffffffffffffffffff166120b46128b8565b73ffffffffffffffffffffffffffffffffffffffff16146040518060400160405280600481526020017f303330370000000000000000000000000000000000000000000000000000000081525090612142576040517f08c379a000000000000000000000000000000000000000000000000000000000815260040161213991906147ba565b60405180910390fd5b506000600e6000868152602001908152602001600020805461216390614acd565b9050146040518060400160405280600481526020017f3034303200000000000000000000000000000000000000000000000000000000815250906121dd576040517f08c379a00000000000000000000000000000000000000000000000000000000081526004016121d491906147ba565b60405180910390fd5b5060006121e984611b3b565b9050806040518060400160405280600481526020017f303430330000000000000000000000000000000000000000000000000000000081525090612263576040517f08c379a000000000000000000000000000000000000000000000000000000000815260040161225a91906147ba565b60405180910390fd5b5083600e6000878152602001908152602001600020908051906020019061228b929190613f2d565b505050505050565b606081600073ffffffffffffffffffffffffffffffffffffffff166001600083815260200190815260200160002060009054906101000a900473ffffffffffffffffffffffffffffffffffffffff1673ffffffffffffffffffffffffffffffffffffffff1614156040518060400160405280600481526020017f303330320000000000000000000000000000000000000000000000000000000081525090612371576040517f08c379a000000000000000000000000000000000000000000000000000000000815260040161236891906147ba565b60405180910390fd5b50600b6000848152602001908152602001600020805461239090614acd565b80601f01602080910402602001604051908101604052809291908181526020018280546123bc90614acd565b80156124095780601f106123de57610100808354040283529160200191612409565b820191906000526020600020905b8154815290600101906020018083116123ec57829003601f168201915b5050505050915050919050565b606081600073ffffffffffffffffffffffffffffffffffffffff166001600083815260200190815260200160002060009054906101000a900473ffffffffffffffffffffffffffffffffffffffff1673ffffffffffffffffffffffffffffffffffffffff1614156040518060400160405280600481526020017f3033303200000000000000000000000000000000000000000000000000000000815250906124f4576040517f08c379a00000000000000000000000000000000000000000000000000000000081526004016124eb91906147ba565b60405180910390fd5b50600e6000848152602001908152602001600020805461251390614acd565b80601f016020809104026020016040519081016040528092919081815260200182805461253f90614acd565b801561258c5780601f106125615761010080835404028352916020019161258c565b820191906000526020600020905b81548152906001019060200180831161256f57829003601f168201915b5050505050915050919050565b6000600460008473ffffffffffffffffffffffffffffffffffffffff1673ffffffffffffffffffffffffffffffffffffffff16815260200190815260200160002060008373ffffffffffffffffffffffffffffffffffffffff1673ffffffffffffffffffffffffffffffffffffffff16815260200190815260200160002060009054906101000a900460ff16905092915050565b600c60009054906101000a900473ffffffffffffffffffffffffffffffffffffffff1673ffffffffffffffffffffffffffffffffffffffff163373ffffffffffffffffffffffffffffffffffffffff16146126bd576040517f08c379a00000000000000000000000000000000000000000000000000000000081526004016126b4906147fc565b60405180910390fd5b7f2d5a82cbc34270500c60b0532ca36cd4716c295bf0351b25835351664a3125bf600c60009054906101000a900473ffffffffffffffffffffffffffffffffffffffff1660405161270e9190614726565b60405180910390a1600073ffffffffffffffffffffffffffffffffffffffff168173ffffffffffffffffffffffffffffffffffffffff1614156040518060400160405280600481526020017f3031303200000000000000000000000000000000000000000000000000000000815250906127be576040517f08c379a00000000000000000000000000000000000000000000000000000000081526004016127b591906147ba565b60405180910390fd5b508073ffffffffffffffffffffffffffffffffffffffff16600c60009054906101000a900473ffffffffffffffffffffffffffffffffffffffff1673ffffffffffffffffffffffffffffffffffffffff167f8be0079c531659141344cd1fd0a4f28419497f9722a3daafe3b4186f6b6457e060405160405180910390a380600c60006101000a81548173ffffffffffffffffffffffffffffffffffffffff021916908373ffffffffffffffffffffffffffffffffffffffff16021790555050565b6040518060400160405280600481526020017f303130310000000000000000000000000000000000000000000000000000000081525081565b600033905090565b60006001600083815260200190815260200160002060009054906101000a900473ffffffffffffffffffffffffffffffffffffffff16905061290182613175565b61290b8183613159565b6129158383613167565b818373ffffffffffffffffffffffffffffffffffffffff168273ffffffffffffffffffffffffffffffffffffffff167fddf252ad1be2c89b69c2b068fc378daa952ba7f163c4a11628f55a4df523b3ef60405160405180910390a4505050565b6103e861ffff16600580549050106040518060400160405280600481526020017f3034303100000000000000000000000000000000000000000000000000000000815250906129fa576040517f08c379a00000000000000000000000000000000000000000000000000000000081526004016129f191906147ba565b60405180910390fd5b50612a058282613216565b5050565b60606000612a1683613276565b905060006040518060400160405280601081526020017f697066733a2f2f46303137303132323000000000000000000000000000000000815250905060008183604051602001612a6792919061469b565b6040516020818303038152906040529050809350505050919050565b612710811115612ac8576040517f08c379a0000000000000000000000000000000000000000000000000000000008152600401612abf906147dc565b60405180910390fd5b60405180604001604052808373ffffffffffffffffffffffffffffffffffffffff16815260200182815250600d600085815260200190815260200160002060008201518160000160006101000a81548173ffffffffffffffffffffffffffffffffffffffff021916908373ffffffffffffffffffffffffffffffffffffffff16021790555060208201518160010155905050505050565b8160006001600083815260200190815260200160002060009054906101000a900473ffffffffffffffffffffffffffffffffffffffff169050612ba06128b8565b73ffffffffffffffffffffffffffffffffffffffff168173ffffffffffffffffffffffffffffffffffffffff161480612c3e5750612bdc6128b8565b73ffffffffffffffffffffffffffffffffffffffff166002600084815260200190815260200160002060009054906101000a900473ffffffffffffffffffffffffffffffffffffffff1673ffffffffffffffffffffffffffffffffffffffff16145b80612ccf5750600460008273ffffffffffffffffffffffffffffffffffffffff1673ffffffffffffffffffffffffffffffffffffffff16815260200190815260200160002060003373ffffffffffffffffffffffffffffffffffffffff1673ffffffffffffffffffffffffffffffffffffffff16815260200190815260200160002060009054906101000a900460ff165b6040518060400160405280600481526020017f303330340000000000000000000000000000000000000000000000000000000081525090612d46576040517f08c379a0000000000000000000000000000000000000000000000000000000008152600401612d3d91906147ba565b60405180910390fd5b5083600073ffffffffffffffffffffffffffffffffffffffff166001600083815260200190815260200160002060009054906101000a900473ffffffffffffffffffffffffffffffffffffffff1673ffffffffffffffffffffffffffffffffffffffff1614156040518060400160405280600481526020017f303330320000000000000000000000000000000000000000000000000000000081525090612e23576040517f08c379a0000000000000000000000000000000000000000000000000000000008152600401612e1a91906147ba565b60405180910390fd5b5060006001600087815260200190815260200160002060009054906101000a900473ffffffffffffffffffffffffffffffffffffffff1690508773ffffffffffffffffffffffffffffffffffffffff168173ffffffffffffffffffffffffffffffffffffffff16146040518060400160405280600481526020017f303330370000000000000000000000000000000000000000000000000000000081525090612f02576040517f08c379a0000000000000000000000000000000000000000000000000000000008152600401612ef991906147ba565b60405180910390fd5b50600073ffffffffffffffffffffffffffffffffffffffff168773ffffffffffffffffffffffffffffffffffffffff1614156040518060400160405280600481526020017f303330310000000000000000000000000000000000000000000000000000000081525090612fab576040517f08c379a0000000000000000000000000000000000000000000000000000000008152600401612fa291906147ba565b60405180910390fd5b50612fb687876128c0565b612fd58773ffffffffffffffffffffffffffffffffffffffff16613448565b156131315760008773ffffffffffffffffffffffffffffffffffffffff1663150b7a02338b8a8a6040518563ffffffff1660e01b815260040161301b94939291906146da565b602060405180830381600087803b15801561303557600080fd5b505af1158015613049573d6000803e3d6000fd5b505050506040513d601f19601f8201168201806040525081019061306d9190614363565b905063150b7a0260e01b7bffffffffffffffffffffffffffffffffffffffffffffffffffffffff1916817bffffffffffffffffffffffffffffffffffffffffffffffffffffffff1916146040518060400160405280600481526020017f30333035000000000000000000000000000000000000000000000000000000008152509061312e576040517f08c379a000000000000000000000000000000000000000000000000000000000815260040161312591906147ba565b60405180910390fd5b50505b5050505050505050565b61314481613493565b50565b6000613152826134e6565b9050919050565b6131638282613532565b5050565b613171828261386b565b5050565b600073ffffffffffffffffffffffffffffffffffffffff166002600083815260200190815260200160002060009054906101000a900473ffffffffffffffffffffffffffffffffffffffff1673ffffffffffffffffffffffffffffffffffffffff1614613213576002600082815260200190815260200160002060006101000a81549073ffffffffffffffffffffffffffffffffffffffff02191690555b50565b6132208282613a68565b6005819080600181540180825580915050600190039060005260206000200160009091909190915055600160058054905061325b91906149d6565b60066000838152602001908152602001600020819055505050565b606060008214156040518060400160405280600481526020017f3034303400000000000000000000000000000000000000000000000000000000815250906132f4576040517f08c379a00000000000000000000000000000000000000000000000000000000081526004016132eb91906147ba565b60405180910390fd5b506000604067ffffffffffffffff811115613338577f4e487b7100000000000000000000000000000000000000000000000000000000600052604160045260246000fd5b6040519080825280601f01601f19166020018201604052801561336a5781602001600182028036833780820191505090505b50905060005b604081101561343e576000600f851690506009811161339e578060306133969190614914565b60f81b6133af565b8060376133ab9190614914565b60f81b5b8383603f6133bd91906149d6565b815181106133f4577f4e487b7100000000000000000000000000000000000000000000000000000000600052603260045260246000fd5b60200101907effffffffffffffffffffffffffffffffffffffffffffffffffffffffffffff1916908160001a905350600485901c945050808061343690614aff565b915050613370565b5080915050919050565b60008060007fc5d2460186f7233c927e7db2dcc703c0e500b653ca82273b7bfad8045d85a47060001b9050833f91506000801b821415801561348a5750808214155b92505050919050565b61349c81613c56565b6000600b600083815260200190815260200160002080546134bc90614acd565b9050146134e357600b600082815260200190815260200160002060006134e29190613fb3565b5b50565b6000600760008373ffffffffffffffffffffffffffffffffffffffff1673ffffffffffffffffffffffffffffffffffffffff168152602001908152602001600020805490509050919050565b8173ffffffffffffffffffffffffffffffffffffffff166001600083815260200190815260200160002060009054906101000a900473ffffffffffffffffffffffffffffffffffffffff1673ffffffffffffffffffffffffffffffffffffffff16146040518060400160405280600481526020017f30333037000000000000000000000000000000000000000000000000000000008152509061360b576040517f08c379a000000000000000000000000000000000000000000000000000000000815260040161360291906147ba565b60405180910390fd5b506001600082815260200190815260200160002060006101000a81549073ffffffffffffffffffffffffffffffffffffffff021916905560006008600083815260200190815260200160002054905060006001600760008673ffffffffffffffffffffffffffffffffffffffff1673ffffffffffffffffffffffffffffffffffffffff168152602001908152602001600020805490506136ab91906149d6565b90508181146137da576000600760008673ffffffffffffffffffffffffffffffffffffffff1673ffffffffffffffffffffffffffffffffffffffff168152602001908152602001600020828154811061372d577f4e487b7100000000000000000000000000000000000000000000000000000000600052603260045260246000fd5b9060005260206000200154905080600760008773ffffffffffffffffffffffffffffffffffffffff1673ffffffffffffffffffffffffffffffffffffffff16815260200190815260200160002084815481106137b2577f4e487b7100000000000000000000000000000000000000000000000000000000600052603260045260246000fd5b9060005260206000200181905550826008600083815260200190815260200160002081905550505b600760008573ffffffffffffffffffffffffffffffffffffffff1673ffffffffffffffffffffffffffffffffffffffff16815260200190815260200160002080548061384f577f4e487b7100000000000000000000000000000000000000000000000000000000600052603160045260246000fd5b6001900381819060005260206000200160009055905550505050565b600073ffffffffffffffffffffffffffffffffffffffff166001600083815260200190815260200160002060009054906101000a900473ffffffffffffffffffffffffffffffffffffffff1673ffffffffffffffffffffffffffffffffffffffff16146040518060400160405280600481526020017f303330360000000000000000000000000000000000000000000000000000000081525090613945576040517f08c379a000000000000000000000000000000000000000000000000000000000815260040161393c91906147ba565b60405180910390fd5b50816001600083815260200190815260200160002060006101000a81548173ffffffffffffffffffffffffffffffffffffffff021916908373ffffffffffffffffffffffffffffffffffffffff160217905550600760008373ffffffffffffffffffffffffffffffffffffffff1673ffffffffffffffffffffffffffffffffffffffff1681526020019081526020016000208190806001815401808255809150506001900390600052602060002001600090919091909150556001600760008473ffffffffffffffffffffffffffffffffffffffff1673ffffffffffffffffffffffffffffffffffffffff16815260200190815260200160002080549050613a4d91906149d6565b60086000838152602001908152602001600020819055505050565b600073ffffffffffffffffffffffffffffffffffffffff168273ffffffffffffffffffffffffffffffffffffffff1614156040518060400160405280600481526020017f303330310000000000000000000000000000000000000000000000000000000081525090613b10576040517f08c379a0000000000000000000000000000000000000000000000000000000008152600401613b0791906147ba565b60405180910390fd5b50600073ffffffffffffffffffffffffffffffffffffffff166001600083815260200190815260200160002060009054906101000a900473ffffffffffffffffffffffffffffffffffffffff1673ffffffffffffffffffffffffffffffffffffffff16146040518060400160405280600481526020017f303330360000000000000000000000000000000000000000000000000000000081525090613beb576040517f08c379a0000000000000000000000000000000000000000000000000000000008152600401613be291906147ba565b60405180910390fd5b50613bf68282613167565b808273ffffffffffffffffffffffffffffffffffffffff16600073ffffffffffffffffffffffffffffffffffffffff167fddf252ad1be2c89b69c2b068fc378daa952ba7f163c4a11628f55a4df523b3ef60405160405180910390a45050565b613c5f81613da4565b60006006600083815260200190815260200160002054905060006001600580549050613c8b91906149d6565b9050600060058281548110613cc9577f4e487b7100000000000000000000000000000000000000000000000000000000600052603260045260246000fd5b906000526020600020015490508060058481548110613d11577f4e487b7100000000000000000000000000000000000000000000000000000000600052603260045260246000fd5b90600052602060002001819055506005805480613d57577f4e487b7100000000000000000000000000000000000000000000000000000000600052603160045260246000fd5b600190038181906000526020600020016000905590558260066000838152602001908152602001600020819055506000600660008681526020019081526020016000208190555050505050565b80600073ffffffffffffffffffffffffffffffffffffffff166001600083815260200190815260200160002060009054906101000a900473ffffffffffffffffffffffffffffffffffffffff1673ffffffffffffffffffffffffffffffffffffffff1614156040518060400160405280600481526020017f303330320000000000000000000000000000000000000000000000000000000081525090613e80576040517f08c379a0000000000000000000000000000000000000000000000000000000008152600401613e7791906147ba565b60405180910390fd5b5060006001600084815260200190815260200160002060009054906101000a900473ffffffffffffffffffffffffffffffffffffffff169050613ec283613175565b613ecc8184613159565b82600073ffffffffffffffffffffffffffffffffffffffff168273ffffffffffffffffffffffffffffffffffffffff167fddf252ad1be2c89b69c2b068fc378daa952ba7f163c4a11628f55a4df523b3ef60405160405180910390a4505050565b828054613f3990614acd565b90600052602060002090601f016020900481019282613f5b5760008555613fa2565b82601f10613f7457805160ff1916838001178555613fa2565b82800160010185558215613fa2579182015b82811115613fa1578251825591602001919060010190613f86565b5b509050613faf9190613ff3565b5090565b508054613fbf90614acd565b6000825580601f10613fd15750613ff0565b601f016020900490600052602060002090810190613fef9190613ff3565b5b50565b5b8082111561400c576000816000905550600101613ff4565b5090565b600061402361401e84614868565b614837565b90508281526020810184848401111561403b57600080fd5b614046848285614a8b565b509392505050565b60008135905061405d81614c15565b92915050565b60008135905061407281614c2c565b92915050565b60008135905061408781614c43565b92915050565b60008151905061409c81614c43565b92915050565b60008083601f8401126140b457600080fd5b8235905067ffffffffffffffff8111156140cd57600080fd5b6020830191508360018202830111156140e557600080fd5b9250929050565b600082601f8301126140fd57600080fd5b813561410d848260208601614010565b91505092915050565b60008135905061412581614c5a565b92915050565b60006020828403121561413d57600080fd5b600061414b8482850161404e565b91505092915050565b6000806040838503121561416757600080fd5b60006141758582860161404e565b92505060206141868582860161404e565b9150509250929050565b6000806000606084860312156141a557600080fd5b60006141b38682870161404e565b93505060206141c48682870161404e565b92505060406141d586828701614116565b9150509250925092565b6000806000806000608086880312156141f757600080fd5b60006142058882890161404e565b95505060206142168882890161404e565b945050604061422788828901614116565b935050606086013567ffffffffffffffff81111561424457600080fd5b614250888289016140a2565b92509250509295509295909350565b6000806040838503121561427257600080fd5b60006142808582860161404e565b925050602061429185828601614063565b9150509250929050565b600080604083850312156142ae57600080fd5b60006142bc8582860161404e565b92505060206142cd85828601614116565b9150509250929050565b600080600080608085870312156142ed57600080fd5b60006142fb8782880161404e565b945050602061430c87828801614116565b935050604061431d8782880161404e565b925050606061432e87828801614116565b91505092959194509250565b60006020828403121561434c57600080fd5b600061435a84828501614078565b91505092915050565b60006020828403121561437557600080fd5b60006143838482850161408d565b91505092915050565b60006020828403121561439e57600080fd5b600082013567ffffffffffffffff8111156143b857600080fd5b6143c4848285016140ec565b91505092915050565b6000602082840312156143df57600080fd5b60006143ed84828501614116565b91505092915050565b6000806040838503121561440957600080fd5b600061441785828601614116565b925050602083013567ffffffffffffffff81111561443457600080fd5b614440858286016140ec565b9150509250929050565b6000806040838503121561445d57600080fd5b600061446b85828601614116565b925050602061447c85828601614116565b9150509250929050565b6000614492838361467d565b60208301905092915050565b6144a781614a0a565b82525050565b60006144b8826148a8565b6144c281856148d6565b93506144cd83614898565b8060005b838110156144fe5781516144e58882614486565b97506144f0836148c9565b9250506001810190506144d1565b5085935050505092915050565b61451481614a1c565b82525050565b6000614525826148b3565b61452f81856148e7565b935061453f818560208601614a9a565b61454881614c04565b840191505092915050565b600061455e826148be565b61456881856148f8565b9350614578818560208601614a9a565b61458181614c04565b840191505092915050565b6000614597826148be565b6145a18185614909565b93506145b1818560208601614a9a565b80840191505092915050565b60006145ca601a836148f8565b91507f45524332393831526f79616c746965733a20546f6f20686967680000000000006000830152602082019050919050565b600061460a6009836148f8565b91507f4e6f74206f776e657200000000000000000000000000000000000000000000006000830152602082019050919050565b600061464a601c836148f8565b91507f706173736564206f776e65727368697020726571756972656d656e74000000006000830152602082019050919050565b61468681614a74565b82525050565b61469581614a74565b82525050565b60006146a7828561458c565b91506146b3828461458c565b91508190509392505050565b60006020820190506146d4600083018461449e565b92915050565b60006080820190506146ef600083018761449e565b6146fc602083018661449e565b614709604083018561468c565b818103606083015261471b818461451a565b905095945050505050565b600060408201905061473b600083018461449e565b818103602083015261474c8161463d565b905092915050565b6000604082019050614769600083018561449e565b614776602083018461468c565b9392505050565b6000602082019050818103600083015261479781846144ad565b905092915050565b60006020820190506147b4600083018461450b565b92915050565b600060208201905081810360008301526147d48184614553565b905092915050565b600060208201905081810360008301526147f5816145bd565b9050919050565b60006020820190508181036000830152614815816145fd565b9050919050565b6000602082019050614831600083018461468c565b92915050565b6000604051905081810181811067ffffffffffffffff8211171561485e5761485d614bd5565b5b8060405250919050565b600067ffffffffffffffff82111561488357614882614bd5565b5b601f19601f8301169050602081019050919050565b6000819050602082019050919050565b600081519050919050565b600081519050919050565b600081519050919050565b6000602082019050919050565b600082825260208201905092915050565b600082825260208201905092915050565b600082825260208201905092915050565b600081905092915050565b600061491f82614a7e565b915061492a83614a7e565b92508260ff038211156149405761493f614b48565b5b828201905092915050565b600061495682614a74565b915061496183614a74565b92508261497157614970614b77565b5b828204905092915050565b600061498782614a74565b915061499283614a74565b9250817fffffffffffffffffffffffffffffffffffffffffffffffffffffffffffffffff04831182151516156149cb576149ca614b48565b5b828202905092915050565b60006149e182614a74565b91506149ec83614a74565b9250828210156149ff576149fe614b48565b5b828203905092915050565b6000614a1582614a54565b9050919050565b60008115159050919050565b60007fffffffff0000000000000000000000000000000000000000000000000000000082169050919050565b600073ffffffffffffffffffffffffffffffffffffffff82169050919050565b6000819050919050565b600060ff82169050919050565b82818337600083830152505050565b60005b83811015614ab8578082015181840152602081019050614a9d565b83811115614ac7576000848401525b50505050565b60006002820490506001821680614ae557607f821691505b60208210811415614af957614af8614ba6565b5b50919050565b6000614b0a82614a74565b91507fffffffffffffffffffffffffffffffffffffffffffffffffffffffffffffffff821415614b3d57614b3c614b48565b5b600182019050919050565b7f4e487b7100000000000000000000000000000000000000000000000000000000600052601160045260246000fd5b7f4e487b7100000000000000000000000000000000000000000000000000000000600052601260045260246000fd5b7f4e487b7100000000000000000000000000000000000000000000000000000000600052602260045260246000fd5b7f4e487b7100000000000000000000000000000000000000000000000000000000600052604160045260246000fd5b6000601f19601f8301169050919050565b614c1e81614a0a565b8114614c2957600080fd5b50565b614c3581614a1c565b8114614c4057600080fd5b50565b614c4c81614a28565b8114614c5757600080fd5b50565b614c6381614a74565b8114614c6e57600080fd5b5056fea2646970667358221220650ba9595a2d3f9dd916e3adea1444d86d1fcde4133e7d8dfd8c8875427bdfaf64736f6c63430008000033",
  "linkReferences": {},
  "deployedLinkReferences": {}
}