{
  "_format": "hh-sol-artifact-1",
  "contractName": "NMWDMarketPlace",
  "sourceName": "contracts/NMWDMarketPlace.sol",
  "abi": [
    {
      "inputs": [],
      "stateMutability": "nonpayable",
      "type": "constructor"
    },
    {
      "anonymous": false,
      "inputs": [
        {
          "indexed": true,
          "internalType": "address",
          "name": "previousOwner",
          "type": "address"
        },
        {
          "indexed": true,
          "internalType": "address",
          "name": "newOwner",
          "type": "address"
        }
      ],
      "name": "OwnershipTransferred",
      "type": "event"
    },
    {
      "anonymous": false,
      "inputs": [
        {
          "indexed": true,
          "internalType": "address",
          "name": "payer",
          "type": "address"
        },
        {
          "indexed": false,
          "internalType": "uint256",
          "name": "tokenId",
          "type": "uint256"
        },
        {
          "indexed": false,
          "internalType": "uint256",
          "name": "amount",
          "type": "uint256"
        },
        {
          "indexed": false,
          "internalType": "uint256",
          "name": "balance",
          "type": "uint256"
        }
      ],
      "name": "Received",
      "type": "event"
    },
    {
      "anonymous": false,
      "inputs": [
        {
          "indexed": true,
          "internalType": "address",
          "name": "payee",
          "type": "address"
        },
        {
          "indexed": false,
          "internalType": "uint256",
          "name": "amount",
          "type": "uint256"
        },
        {
          "indexed": false,
          "internalType": "uint256",
          "name": "balance",
          "type": "uint256"
        }
      ],
      "name": "Sent",
      "type": "event"
    },
    {
      "anonymous": false,
      "inputs": [
        {
          "indexed": false,
          "internalType": "address",
          "name": "deliveredTo",
          "type": "address"
        },
        {
          "indexed": false,
          "internalType": "string",
          "name": "msg",
          "type": "string"
        }
      ],
      "name": "_msg",
      "type": "event"
    },
    {
      "inputs": [],
      "name": "CANNOT_TRANSFER_TO_ZERO_ADDRESS",
      "outputs": [
        {
          "internalType": "string",
          "name": "",
          "type": "string"
        }
      ],
      "stateMutability": "view",
      "type": "function"
    },
    {
      "inputs": [],
      "name": "NMWDcontract",
      "outputs": [
        {
          "internalType": "contract NoMoreWarOnDrugs",
          "name": "",
          "type": "address"
        }
      ],
      "stateMutability": "view",
      "type": "function"
    },
    {
      "inputs": [],
      "name": "NOT_CURRENT_OWNER",
      "outputs": [
        {
          "internalType": "string",
          "name": "",
          "type": "string"
        }
      ],
      "stateMutability": "view",
      "type": "function"
    },
    {
      "inputs": [
        {
          "internalType": "address",
          "name": "",
          "type": "address"
        }
      ],
      "name": "ethBalance",
      "outputs": [
        {
          "internalType": "uint256",
          "name": "",
          "type": "uint256"
        }
      ],
      "stateMutability": "view",
      "type": "function"
    },
    {
      "inputs": [],
      "name": "getBackOwnership",
      "outputs": [],
      "stateMutability": "nonpayable",
      "type": "function"
    },
    {
      "inputs": [
        {
          "internalType": "uint256",
          "name": "_tokenId",
          "type": "uint256"
        }
      ],
      "name": "getForSale",
      "outputs": [
        {
          "internalType": "bool",
          "name": "",
          "type": "bool"
        }
      ],
      "stateMutability": "view",
      "type": "function"
    },
    {
      "inputs": [],
      "name": "getMarketPlaceBalance",
      "outputs": [
        {
          "internalType": "uint256",
          "name": "",
          "type": "uint256"
        }
      ],
      "stateMutability": "view",
      "type": "function"
    },
    {
      "inputs": [
        {
          "internalType": "uint256",
          "name": "_tokenId",
          "type": "uint256"
        }
      ],
      "name": "getPrice",
      "outputs": [
        {
          "internalType": "uint256",
          "name": "",
          "type": "uint256"
        }
      ],
      "stateMutability": "view",
      "type": "function"
    },
    {
      "inputs": [
        {
          "internalType": "address",
          "name": "userAddress",
          "type": "address"
        }
      ],
      "name": "getUserBalance",
      "outputs": [
        {
          "internalType": "uint256",
          "name": "",
          "type": "uint256"
        }
      ],
      "stateMutability": "view",
      "type": "function"
    },
    {
      "inputs": [
        {
          "internalType": "address",
          "name": "_to",
          "type": "address"
        },
        {
          "internalType": "uint256",
          "name": "_tokenId",
          "type": "uint256"
        },
        {
          "internalType": "string",
          "name": "_uri",
          "type": "string"
        }
      ],
      "name": "mintThroughPurchase",
      "outputs": [],
      "stateMutability": "payable",
      "type": "function"
    },
    {
      "inputs": [],
      "name": "owner",
      "outputs": [
        {
          "internalType": "address",
          "name": "",
          "type": "address"
        }
      ],
      "stateMutability": "view",
      "type": "function"
    },
    {
      "inputs": [
        {
          "internalType": "uint256",
          "name": "_tokenId",
          "type": "uint256"
        }
      ],
      "name": "purchaseToken",
      "outputs": [],
      "stateMutability": "payable",
      "type": "function"
    },
    {
      "inputs": [
        {
          "internalType": "uint256",
          "name": "_tokenId",
          "type": "uint256"
        },
        {
          "internalType": "bool",
          "name": "_forSale",
          "type": "bool"
        }
      ],
      "name": "setForSale",
      "outputs": [
        {
          "internalType": "bool",
          "name": "",
          "type": "bool"
        }
      ],
      "stateMutability": "nonpayable",
      "type": "function"
    },
    {
      "inputs": [
        {
          "internalType": "uint256",
          "name": "_price",
          "type": "uint256"
        },
        {
          "internalType": "uint256",
          "name": "_tokenId",
          "type": "uint256"
        }
      ],
      "name": "setPrice",
      "outputs": [],
      "stateMutability": "nonpayable",
      "type": "function"
    },
    {
      "inputs": [
        {
          "internalType": "address",
          "name": "_newOwner",
          "type": "address"
        }
      ],
      "name": "transferOwnership",
      "outputs": [],
      "stateMutability": "nonpayable",
      "type": "function"
    },
    {
      "inputs": [
        {
          "internalType": "address",
          "name": "nmwdAddress",
          "type": "address"
        }
      ],
      "name": "updateNMWDcontract",
      "outputs": [],
      "stateMutability": "nonpayable",
      "type": "function"
    },
    {
      "inputs": [
        {
          "internalType": "address",
          "name": "_payee",
          "type": "address"
        },
        {
          "internalType": "uint256",
          "name": "_amount",
          "type": "uint256"
        }
      ],
      "name": "withdrawFromContract",
      "outputs": [],
      "stateMutability": "nonpayable",
      "type": "function"
    },
    {
      "inputs": [
        {
          "internalType": "uint256",
          "name": "_amount",
          "type": "uint256"
        }
      ],
      "name": "withdrawUserFunds",
      "outputs": [],
      "stateMutability": "nonpayable",
      "type": "function"
    }
  ],
  "bytecode": "0x60806040523480156200001157600080fd5b50620000226200002860201b60201c565b6200018d565b336000806101000a81548173ffffffffffffffffffffffffffffffffffffffff021916908373ffffffffffffffffffffffffffffffffffffffff1602179055507f2d5a82cbc34270500c60b0532ca36cd4716c295bf0351b25835351664a3125bf60008054906101000a900473ffffffffffffffffffffffffffffffffffffffff16604051620000b9919062000116565b60405180910390a1565b620000ce8162000159565b82525050565b6000620000e360098362000148565b91507f736574206f776e657200000000000000000000000000000000000000000000006000830152602082019050919050565b60006040820190506200012d6000830184620000c3565b81810360208301526200014081620000d4565b905092915050565b600082825260208201905092915050565b600062000166826200016d565b9050919050565b600073ffffffffffffffffffffffffffffffffffffffff82169050919050565b612b2b806200019d6000396000f3fe6080604052600436106101095760003560e01c8063c2db2c4211610095578063ecdf156111610064578063ecdf15611461034f578063f0a6c16b14610378578063f2fde38b146103b5578063f3fe3bc3146103de578063f7d975771461040957610109565b8063c2db2c421461029d578063d8f3790f146102b9578063db228cfe146102f6578063e75722301461031257610109565b8063860d248a116100dc578063860d248a146101c85780638da5cb5b146101f3578063b0e857ec1461021e578063b4c49d0914610247578063be4185f41461027257610109565b80632abacf8c1461010e578063477348921461014b5780635c93bec714610188578063837381fa1461019f575b600080fd5b34801561011a57600080fd5b50610135600480360381019061013091906123d2565b610432565b604051610142919061264f565b60405180910390f35b34801561015757600080fd5b50610172600480360381019061016d91906122b4565b61045c565b60405161017f9190612757565b60405180910390f35b34801561019457600080fd5b5061019d6104a5565b005b3480156101ab57600080fd5b506101c660048036038101906101c19190612306565b610704565b005b3480156101d457600080fd5b506101dd610928565b6040516101ea9190612685565b60405180910390f35b3480156101ff57600080fd5b50610208610961565b6040516102159190612568565b60405180910390f35b34801561022a57600080fd5b50610245600480360381019061024091906122b4565b610985565b005b34801561025357600080fd5b5061025c610bf0565b6040516102699190612757565b60405180910390f35b34801561027e57600080fd5b50610287610bfa565b604051610294919061266a565b60405180910390f35b6102b760048036038101906102b291906123d2565b610c20565b005b3480156102c557600080fd5b506102e060048036038101906102db91906122b4565b6113c6565b6040516102ed9190612757565b60405180910390f35b610310600480360381019061030b9190612342565b6113de565b005b34801561031e57600080fd5b50610339600480360381019061033491906123d2565b6116f1565b6040516103469190612757565b60405180910390f35b34801561035b57600080fd5b50610376600480360381019061037191906123d2565b61170e565b005b34801561038457600080fd5b5061039f600480360381019061039a91906123fb565b611895565b6040516103ac919061264f565b60405180910390f35b3480156103c157600080fd5b506103dc60048036038101906103d791906122b4565b611ac6565b005b3480156103ea57600080fd5b506103f3611d11565b6040516104009190612685565b60405180910390f35b34801561041557600080fd5b50610430600480360381019061042b9190612437565b611d4a565b005b60006003600083815260200190815260200160002060009054906101000a900460ff169050919050565b6000600560008373ffffffffffffffffffffffffffffffffffffffff1673ffffffffffffffffffffffffffffffffffffffff168152602001908152602001600020549050919050565b60008054906101000a900473ffffffffffffffffffffffffffffffffffffffff1673ffffffffffffffffffffffffffffffffffffffff163373ffffffffffffffffffffffffffffffffffffffff1614610533576040517f08c379a000000000000000000000000000000000000000000000000000000000815260040161052a90612737565b60405180910390fd5b7f2d5a82cbc34270500c60b0532ca36cd4716c295bf0351b25835351664a3125bf60008054906101000a900473ffffffffffffffffffffffffffffffffffffffff1660405161058291906125e3565b60405180910390a1600073ffffffffffffffffffffffffffffffffffffffff16600160009054906101000a900473ffffffffffffffffffffffffffffffffffffffff1673ffffffffffffffffffffffffffffffffffffffff1614156040518060400160405280600681526020017f303034303032000000000000000000000000000000000000000000000000000081525090610654576040517f08c379a000000000000000000000000000000000000000000000000000000000815260040161064b9190612685565b60405180910390fd5b50600160009054906101000a900473ffffffffffffffffffffffffffffffffffffffff1673ffffffffffffffffffffffffffffffffffffffff1663f2fde38b60008054906101000a900473ffffffffffffffffffffffffffffffffffffffff166040518263ffffffff1660e01b81526004016106d09190612568565b600060405180830381600087803b1580156106ea57600080fd5b505af11580156106fe573d6000803e3d6000fd5b50505050565b60008054906101000a900473ffffffffffffffffffffffffffffffffffffffff1673ffffffffffffffffffffffffffffffffffffffff163373ffffffffffffffffffffffffffffffffffffffff1614610792576040517f08c379a000000000000000000000000000000000000000000000000000000000815260040161078990612737565b60405180910390fd5b7f2d5a82cbc34270500c60b0532ca36cd4716c295bf0351b25835351664a3125bf60008054906101000a900473ffffffffffffffffffffffffffffffffffffffff166040516107e191906125e3565b60405180910390a1600073ffffffffffffffffffffffffffffffffffffffff168273ffffffffffffffffffffffffffffffffffffffff161415801561085257503073ffffffffffffffffffffffffffffffffffffffff168273ffffffffffffffffffffffffffffffffffffffff1614155b61085b57600080fd5b60008111801561086b5750478111155b61087457600080fd5b8173ffffffffffffffffffffffffffffffffffffffff166108fc829081150290604051600060405180830381858888f193505050501580156108ba573d6000803e3d6000fd5b5080600460008282546108cd9190612930565b925050819055508173ffffffffffffffffffffffffffffffffffffffff167f6356739d963da01dc3533acba7203430fcc14f2175d48a8dd0973d7db49c785e824760405161091c929190612772565b60405180910390a25050565b6040518060400160405280600681526020017f303138303032000000000000000000000000000000000000000000000000000081525081565b60008054906101000a900473ffffffffffffffffffffffffffffffffffffffff1681565b60008054906101000a900473ffffffffffffffffffffffffffffffffffffffff1673ffffffffffffffffffffffffffffffffffffffff163373ffffffffffffffffffffffffffffffffffffffff1614610a13576040517f08c379a0000000000000000000000000000000000000000000000000000000008152600401610a0a90612737565b60405180910390fd5b7f2d5a82cbc34270500c60b0532ca36cd4716c295bf0351b25835351664a3125bf60008054906101000a900473ffffffffffffffffffffffffffffffffffffffff16604051610a6291906125e3565b60405180910390a1600073ffffffffffffffffffffffffffffffffffffffff168173ffffffffffffffffffffffffffffffffffffffff1614158015610ad357503073ffffffffffffffffffffffffffffffffffffffff168173ffffffffffffffffffffffffffffffffffffffff1614155b6040518060400160405280600681526020017f303034303031000000000000000000000000000000000000000000000000000081525090610b4a576040517f08c379a0000000000000000000000000000000000000000000000000000000008152600401610b419190612685565b60405180910390fd5b5080600160006101000a81548173ffffffffffffffffffffffffffffffffffffffff021916908373ffffffffffffffffffffffffffffffffffffffff160217905550610bed6040518060400160405280601781526020017f61646472657373284e4d5744636f6e7472616374293a20000000000000000000815250600160009054906101000a900473ffffffffffffffffffffffffffffffffffffffff16611fe6565b50565b6000600454905090565b600160009054906101000a900473ffffffffffffffffffffffffffffffffffffffff1681565b6003600082815260200190815260200160002060009054906101000a900460ff166040518060400160405280600681526020017f303034303035000000000000000000000000000000000000000000000000000081525090610cb8576040517f08c379a0000000000000000000000000000000000000000000000000000000008152600401610caf9190612685565b60405180910390fd5b50600073ffffffffffffffffffffffffffffffffffffffff163373ffffffffffffffffffffffffffffffffffffffff1614158015610d2257503073ffffffffffffffffffffffffffffffffffffffff163373ffffffffffffffffffffffffffffffffffffffff1614155b610d2b57600080fd5b6002600082815260200190815260200160002054341015610d4b57600080fd5b600073ffffffffffffffffffffffffffffffffffffffff16600160009054906101000a900473ffffffffffffffffffffffffffffffffffffffff1673ffffffffffffffffffffffffffffffffffffffff16636352211e836040518263ffffffff1660e01b8152600401610dbe9190612757565b60206040518083038186803b158015610dd657600080fd5b505afa158015610dea573d6000803e3d6000fd5b505050506040513d601f19601f82011682018060405250810190610e0e91906122dd565b73ffffffffffffffffffffffffffffffffffffffff1614156040518060400160405280600681526020017f303034303034000000000000000000000000000000000000000000000000000081525090610e9d576040517f08c379a0000000000000000000000000000000000000000000000000000000008152600401610e949190612685565b60405180910390fd5b506000600160009054906101000a900473ffffffffffffffffffffffffffffffffffffffff1673ffffffffffffffffffffffffffffffffffffffff16636352211e836040518263ffffffff1660e01b8152600401610efb9190612757565b60206040518083038186803b158015610f1357600080fd5b505afa158015610f27573d6000803e3d6000fd5b505050506040513d601f19601f82011682018060405250810190610f4b91906122dd565b90503073ffffffffffffffffffffffffffffffffffffffff16600160009054906101000a900473ffffffffffffffffffffffffffffffffffffffff1673ffffffffffffffffffffffffffffffffffffffff1663081812fc846040518263ffffffff1660e01b8152600401610fbf9190612757565b60206040518083038186803b158015610fd757600080fd5b505afa158015610feb573d6000803e3d6000fd5b505050506040513d601f19601f8201168201806040525081019061100f91906122dd565b73ffffffffffffffffffffffffffffffffffffffff1614806110da5750600160009054906101000a900473ffffffffffffffffffffffffffffffffffffffff1673ffffffffffffffffffffffffffffffffffffffff1663e985e9c582306040518363ffffffff1660e01b8152600401611089929190612583565b60206040518083038186803b1580156110a157600080fd5b505afa1580156110b5573d6000803e3d6000fd5b505050506040513d601f19601f820116820180604052508101906110d991906123a9565b5b6040518060400160405280600681526020017f303034303033000000000000000000000000000000000000000000000000000081525090611151576040517f08c379a00000000000000000000000000000000000000000000000000000000081526004016111489190612685565b60405180910390fd5b50600160009054906101000a900473ffffffffffffffffffffffffffffffffffffffff1673ffffffffffffffffffffffffffffffffffffffff166342842e0e8233856040518463ffffffff1660e01b81526004016111b1939291906125ac565b600060405180830381600087803b1580156111cb57600080fd5b505af11580156111df573d6000803e3d6000fd5b505050506112616040518060400160405280601981526020017f65746842616c616e63655b746f6b656e53656c6c65725d3a2000000000000000815250600560008473ffffffffffffffffffffffffffffffffffffffff1673ffffffffffffffffffffffffffffffffffffffff16815260200190815260200160002054612082565b6112a26040518060400160405280601181526020017f636f6e747261637442616c616e63653a20000000000000000000000000000000815250600454612082565b6103e66103e8346112b391906128a5565b6112bd91906128d6565b600560008373ffffffffffffffffffffffffffffffffffffffff1673ffffffffffffffffffffffffffffffffffffffff168152602001908152602001600020600082825461130b919061284f565b9250508190555060026103e83461132291906128a5565b61132c91906128d6565b6004600082825461133d919061284f565b9250508190555060006003600084815260200190815260200160002060006101000a81548160ff0219169083151502179055503373ffffffffffffffffffffffffffffffffffffffff167f02d08db2db312fc60b41a046c46a7772a6c2dcdca0c32a9d3423c6dcbde693e98334476040516113ba9392919061279b565b60405180910390a25050565b60056020528060005260406000206000915090505481565b6114306040518060400160405280601081526020017f70726963655b5f746f6b656e49645d20000000000000000000000000000000008152506002600085815260200190815260200160002054612082565b60006002600084815260200190815260200160002054141561145157600080fd5b60026000838152602001908152602001600020543410156040518060400160405280600681526020017f3030343030360000000000000000000000000000000000000000000000000000815250906114df576040517f08c379a00000000000000000000000000000000000000000000000000000000081526004016114d69190612685565b60405180910390fd5b50600073ffffffffffffffffffffffffffffffffffffffff163373ffffffffffffffffffffffffffffffffffffffff161415801561154957503073ffffffffffffffffffffffffffffffffffffffff163373ffffffffffffffffffffffffffffffffffffffff1614155b61155257600080fd5b3460046000828254611564919061284f565b92505081905550600160009054906101000a900473ffffffffffffffffffffffffffffffffffffffff1673ffffffffffffffffffffffffffffffffffffffff1663d3fc98648484846040518463ffffffff1660e01b81526004016115ca93929190612611565b600060405180830381600087803b1580156115e457600080fd5b505af11580156115f8573d6000803e3d6000fd5b5050505061163b6040518060400160405280600a81526020017f6d73672e76616c7565200000000000000000000000000000000000000000000081525034612082565b61169a6040518060400160405280601381526020017f666f7253616c655b5f746f6b656e49645d2020000000000000000000000000008152506003600085815260200190815260200160002060009054906101000a900460ff1661211e565b8273ffffffffffffffffffffffffffffffffffffffff167f02d08db2db312fc60b41a046c46a7772a6c2dcdca0c32a9d3423c6dcbde693e98334476040516116e49392919061279b565b60405180910390a2505050565b600060026000838152602001908152602001600020549050919050565b60008111801561175d5750600560003373ffffffffffffffffffffffffffffffffffffffff1673ffffffffffffffffffffffffffffffffffffffff168152602001908152602001600020548111155b61176657600080fd5b3373ffffffffffffffffffffffffffffffffffffffff166108fc829081150290604051600060405180830381858888f193505050501580156117ac573d6000803e3d6000fd5b503373ffffffffffffffffffffffffffffffffffffffff167f6356739d963da01dc3533acba7203430fcc14f2175d48a8dd0973d7db49c785e82600560003373ffffffffffffffffffffffffffffffffffffffff1673ffffffffffffffffffffffffffffffffffffffff16815260200190815260200160002054604051611834929190612772565b60405180910390a280600560003373ffffffffffffffffffffffffffffffffffffffff1673ffffffffffffffffffffffffffffffffffffffff168152602001908152602001600020600082825461188b9190612930565b9250508190555050565b6000600160009054906101000a900473ffffffffffffffffffffffffffffffffffffffff1673ffffffffffffffffffffffffffffffffffffffff16636352211e846040518263ffffffff1660e01b81526004016118f29190612757565b60206040518083038186803b15801561190a57600080fd5b505afa92505050801561193b57506040513d601f19601f8201168201806040525081019061193891906122dd565b60015b6119485760009050611ac0565b3373ffffffffffffffffffffffffffffffffffffffff168173ffffffffffffffffffffffffffffffffffffffff16146040518060400160405280600681526020017f3030343030390000000000000000000000000000000000000000000000000000815250906119ee576040517f08c379a00000000000000000000000000000000000000000000000000000000081526004016119e59190612685565b60405180910390fd5b50506003600084815260200190815260200160002060009054906101000a900460ff16151582151514156040518060400160405280600681526020017f303034303038000000000000000000000000000000000000000000000000000081525090611a8f576040517f08c379a0000000000000000000000000000000000000000000000000000000008152600401611a869190612685565b60405180910390fd5b50816003600085815260200190815260200160002060006101000a81548160ff021916908315150217905550600190505b92915050565b60008054906101000a900473ffffffffffffffffffffffffffffffffffffffff1673ffffffffffffffffffffffffffffffffffffffff163373ffffffffffffffffffffffffffffffffffffffff1614611b54576040517f08c379a0000000000000000000000000000000000000000000000000000000008152600401611b4b90612737565b60405180910390fd5b7f2d5a82cbc34270500c60b0532ca36cd4716c295bf0351b25835351664a3125bf60008054906101000a900473ffffffffffffffffffffffffffffffffffffffff16604051611ba391906125e3565b60405180910390a1600073ffffffffffffffffffffffffffffffffffffffff168173ffffffffffffffffffffffffffffffffffffffff1614156040518060400160405280600681526020017f303138303032000000000000000000000000000000000000000000000000000081525090611c53576040517f08c379a0000000000000000000000000000000000000000000000000000000008152600401611c4a9190612685565b60405180910390fd5b508073ffffffffffffffffffffffffffffffffffffffff1660008054906101000a900473ffffffffffffffffffffffffffffffffffffffff1673ffffffffffffffffffffffffffffffffffffffff167f8be0079c531659141344cd1fd0a4f28419497f9722a3daafe3b4186f6b6457e060405160405180910390a3806000806101000a81548173ffffffffffffffffffffffffffffffffffffffff021916908373ffffffffffffffffffffffffffffffffffffffff16021790555050565b6040518060400160405280600681526020017f303138303031000000000000000000000000000000000000000000000000000081525081565b600082116040518060400160405280600681526020017f303034303037000000000000000000000000000000000000000000000000000081525090611dc5576040517f08c379a0000000000000000000000000000000000000000000000000000000008152600401611dbc9190612685565b60405180910390fd5b5060026000828152602001908152602001600020548214156040518060400160405280600681526020017f303034303038000000000000000000000000000000000000000000000000000081525090611e54576040517f08c379a0000000000000000000000000000000000000000000000000000000008152600401611e4b9190612685565b60405180910390fd5b50600160009054906101000a900473ffffffffffffffffffffffffffffffffffffffff1673ffffffffffffffffffffffffffffffffffffffff16636352211e826040518263ffffffff1660e01b8152600401611eb09190612757565b60206040518083038186803b158015611ec857600080fd5b505afa925050508015611ef957506040513d601f19601f82011682018060405250810190611ef691906122dd565b60015b611f90573373ffffffffffffffffffffffffffffffffffffffff1660008054906101000a900473ffffffffffffffffffffffffffffffffffffffff1673ffffffffffffffffffffffffffffffffffffffff1614611f8b576040517f08c379a0000000000000000000000000000000000000000000000000000000008152600401611f8290612737565b60405180910390fd5b611fca565b3373ffffffffffffffffffffffffffffffffffffffff168173ffffffffffffffffffffffffffffffffffffffff1614611fc857600080fd5b505b8160026000838152602001908152602001600020819055505050565b61207e8282604051602401611ffc9291906126a7565b6040516020818303038152906040527f319af333000000000000000000000000000000000000000000000000000000007bffffffffffffffffffffffffffffffffffffffffffffffffffffffff19166020820180517bffffffffffffffffffffffffffffffffffffffffffffffffffffffff83818316178352505050506121ba565b5050565b61211a8282604051602401612098929190612707565b6040516020818303038152906040527f9710a9d0000000000000000000000000000000000000000000000000000000007bffffffffffffffffffffffffffffffffffffffffffffffffffffffff19166020820180517bffffffffffffffffffffffffffffffffffffffffffffffffffffffff83818316178352505050506121ba565b5050565b6121b682826040516024016121349291906126d7565b6040516020818303038152906040527fc3b55635000000000000000000000000000000000000000000000000000000007bffffffffffffffffffffffffffffffffffffffffffffffffffffffff19166020820180517bffffffffffffffffffffffffffffffffffffffffffffffffffffffff83818316178352505050506121ba565b5050565b60008151905060006a636f6e736f6c652e6c6f679050602083016000808483855afa5050505050565b60006121f66121f184612803565b6127d2565b90508281526020810184848401111561220e57600080fd5b6122198482856129d0565b509392505050565b60008135905061223081612ab0565b92915050565b60008151905061224581612ab0565b92915050565b60008135905061225a81612ac7565b92915050565b60008151905061226f81612ac7565b92915050565b600082601f83011261228657600080fd5b81356122968482602086016121e3565b91505092915050565b6000813590506122ae81612ade565b92915050565b6000602082840312156122c657600080fd5b60006122d484828501612221565b91505092915050565b6000602082840312156122ef57600080fd5b60006122fd84828501612236565b91505092915050565b6000806040838503121561231957600080fd5b600061232785828601612221565b92505060206123388582860161229f565b9150509250929050565b60008060006060848603121561235757600080fd5b600061236586828701612221565b93505060206123768682870161229f565b925050604084013567ffffffffffffffff81111561239357600080fd5b61239f86828701612275565b9150509250925092565b6000602082840312156123bb57600080fd5b60006123c984828501612260565b91505092915050565b6000602082840312156123e457600080fd5b60006123f28482850161229f565b91505092915050565b6000806040838503121561240e57600080fd5b600061241c8582860161229f565b925050602061242d8582860161224b565b9150509250929050565b6000806040838503121561244a57600080fd5b60006124588582860161229f565b92505060206124698582860161229f565b9150509250929050565b61247c81612964565b82525050565b61248b81612976565b82525050565b61249a816129ac565b82525050565b60006124ab82612833565b6124b5818561283e565b93506124c58185602086016129df565b6124ce81612a9f565b840191505092915050565b60006124e660098361283e565b91507f4e6f74206f776e657200000000000000000000000000000000000000000000006000830152602082019050919050565b6000612526601c8361283e565b91507f706173736564206f776e65727368697020726571756972656d656e74000000006000830152602082019050919050565b612562816129a2565b82525050565b600060208201905061257d6000830184612473565b92915050565b60006040820190506125986000830185612473565b6125a56020830184612473565b9392505050565b60006060820190506125c16000830186612473565b6125ce6020830185612473565b6125db6040830184612559565b949350505050565b60006040820190506125f86000830184612473565b818103602083015261260981612519565b905092915050565b60006060820190506126266000830186612473565b6126336020830185612559565b818103604083015261264581846124a0565b9050949350505050565b60006020820190506126646000830184612482565b92915050565b600060208201905061267f6000830184612491565b92915050565b6000602082019050818103600083015261269f81846124a0565b905092915050565b600060408201905081810360008301526126c181856124a0565b90506126d06020830184612473565b9392505050565b600060408201905081810360008301526126f181856124a0565b90506127006020830184612482565b9392505050565b6000604082019050818103600083015261272181856124a0565b90506127306020830184612559565b9392505050565b60006020820190508181036000830152612750816124d9565b9050919050565b600060208201905061276c6000830184612559565b92915050565b60006040820190506127876000830185612559565b6127946020830184612559565b9392505050565b60006060820190506127b06000830186612559565b6127bd6020830185612559565b6127ca6040830184612559565b949350505050565b6000604051905081810181811067ffffffffffffffff821117156127f9576127f8612a70565b5b8060405250919050565b600067ffffffffffffffff82111561281e5761281d612a70565b5b601f19601f8301169050602081019050919050565b600081519050919050565b600082825260208201905092915050565b600061285a826129a2565b9150612865836129a2565b9250827fffffffffffffffffffffffffffffffffffffffffffffffffffffffffffffffff0382111561289a57612899612a12565b5b828201905092915050565b60006128b0826129a2565b91506128bb836129a2565b9250826128cb576128ca612a41565b5b828204905092915050565b60006128e1826129a2565b91506128ec836129a2565b9250817fffffffffffffffffffffffffffffffffffffffffffffffffffffffffffffffff048311821515161561292557612924612a12565b5b828202905092915050565b600061293b826129a2565b9150612946836129a2565b92508282101561295957612958612a12565b5b828203905092915050565b600061296f82612982565b9050919050565b60008115159050919050565b600073ffffffffffffffffffffffffffffffffffffffff82169050919050565b6000819050919050565b60006129b7826129be565b9050919050565b60006129c982612982565b9050919050565b82818337600083830152505050565b60005b838110156129fd5780820151818401526020810190506129e2565b83811115612a0c576000848401525b50505050565b7f4e487b7100000000000000000000000000000000000000000000000000000000600052601160045260246000fd5b7f4e487b7100000000000000000000000000000000000000000000000000000000600052601260045260246000fd5b7f4e487b7100000000000000000000000000000000000000000000000000000000600052604160045260246000fd5b6000601f19601f8301169050919050565b612ab981612964565b8114612ac457600080fd5b50565b612ad081612976565b8114612adb57600080fd5b50565b612ae7816129a2565b8114612af257600080fd5b5056fea2646970667358221220e023e2cb9826c833c847bd76c1cd8c8df2160ed2cac46937859a9f79e66c8c8c64736f6c63430008000033",
  "linkReferences": {},
  "deployedLinkReferences": {}
}