{
  "_format": "hh-sol-artifact-1",
  "contractName": "NMWDMarketPlace",
  "sourceName": "contracts/NMWDMarketPlace.sol",
  "abi": [
    {
      "inputs": [],
      "stateMutability": "nonpayable",
      "type": "constructor"
    },
    {
      "anonymous": false,
      "inputs": [
        {
          "indexed": true,
          "internalType": "address",
          "name": "payer",
          "type": "address"
        },
        {
          "indexed": false,
          "internalType": "uint256",
          "name": "tokenId",
          "type": "uint256"
        },
        {
          "indexed": false,
          "internalType": "uint256",
          "name": "amount",
          "type": "uint256"
        }
      ],
      "name": "NFTSent",
      "type": "event"
    },
    {
      "anonymous": false,
      "inputs": [
        {
          "indexed": true,
          "internalType": "address",
          "name": "previousOwner",
          "type": "address"
        },
        {
          "indexed": true,
          "internalType": "address",
          "name": "newOwner",
          "type": "address"
        }
      ],
      "name": "OwnershipTransferred",
      "type": "event"
    },
    {
      "anonymous": false,
      "inputs": [
        {
          "indexed": true,
          "internalType": "address",
          "name": "payee",
          "type": "address"
        },
        {
          "indexed": false,
          "internalType": "uint256",
          "name": "amount",
          "type": "uint256"
        }
      ],
      "name": "RoyaltyPaid",
      "type": "event"
    },
    {
      "anonymous": false,
      "inputs": [
        {
          "indexed": true,
          "internalType": "address",
          "name": "payee",
          "type": "address"
        },
        {
          "indexed": false,
          "internalType": "uint256",
          "name": "amount",
          "type": "uint256"
        }
      ],
      "name": "SecurityWithdrawal",
      "type": "event"
    },
    {
      "anonymous": false,
      "inputs": [
        {
          "indexed": true,
          "internalType": "address",
          "name": "payee",
          "type": "address"
        },
        {
          "indexed": false,
          "internalType": "uint256",
          "name": "amount",
          "type": "uint256"
        }
      ],
      "name": "Sent",
      "type": "event"
    },
    {
      "anonymous": false,
      "inputs": [
        {
          "indexed": false,
          "internalType": "address",
          "name": "deliveredTo",
          "type": "address"
        },
        {
          "indexed": false,
          "internalType": "string",
          "name": "msg",
          "type": "string"
        }
      ],
      "name": "_msg",
      "type": "event"
    },
    {
      "inputs": [],
      "name": "CANNOT_TRANSFER_TO_ZERO_ADDRESS",
      "outputs": [
        {
          "internalType": "string",
          "name": "",
          "type": "string"
        }
      ],
      "stateMutability": "view",
      "type": "function"
    },
    {
      "inputs": [],
      "name": "NMWDcontract",
      "outputs": [
        {
          "internalType": "contract NoMoreWarOnDrugs",
          "name": "",
          "type": "address"
        }
      ],
      "stateMutability": "view",
      "type": "function"
    },
    {
      "inputs": [],
      "name": "NOT_CURRENT_OWNER",
      "outputs": [
        {
          "internalType": "string",
          "name": "",
          "type": "string"
        }
      ],
      "stateMutability": "view",
      "type": "function"
    },
    {
      "inputs": [],
      "name": "getBackOwnership",
      "outputs": [],
      "stateMutability": "nonpayable",
      "type": "function"
    },
    {
      "inputs": [
        {
          "internalType": "uint256",
          "name": "_tokenId",
          "type": "uint256"
        }
      ],
      "name": "getForSale",
      "outputs": [
        {
          "internalType": "bool",
          "name": "",
          "type": "bool"
        }
      ],
      "stateMutability": "view",
      "type": "function"
    },
    {
      "inputs": [],
      "name": "getMarketPlaceBalance",
      "outputs": [
        {
          "internalType": "uint256",
          "name": "",
          "type": "uint256"
        }
      ],
      "stateMutability": "view",
      "type": "function"
    },
    {
      "inputs": [
        {
          "internalType": "uint256",
          "name": "_tokenId",
          "type": "uint256"
        }
      ],
      "name": "getPrice",
      "outputs": [
        {
          "internalType": "uint256",
          "name": "",
          "type": "uint256"
        }
      ],
      "stateMutability": "view",
      "type": "function"
    },
    {
      "inputs": [
        {
          "internalType": "address",
          "name": "_to",
          "type": "address"
        },
        {
          "internalType": "uint256",
          "name": "_tokenId",
          "type": "uint256"
        },
        {
          "internalType": "string",
          "name": "_uri",
          "type": "string"
        },
        {
          "internalType": "address",
          "name": "royaltyRecipient",
          "type": "address"
        },
        {
          "internalType": "uint256",
          "name": "royaltyValue",
          "type": "uint256"
        }
      ],
      "name": "mintThroughPurchase",
      "outputs": [],
      "stateMutability": "payable",
      "type": "function"
    },
    {
      "inputs": [],
      "name": "owner",
      "outputs": [
        {
          "internalType": "address",
          "name": "",
          "type": "address"
        }
      ],
      "stateMutability": "view",
      "type": "function"
    },
    {
      "inputs": [
        {
          "internalType": "uint256",
          "name": "_tokenId",
          "type": "uint256"
        }
      ],
      "name": "purchaseToken",
      "outputs": [],
      "stateMutability": "payable",
      "type": "function"
    },
    {
      "inputs": [
        {
          "internalType": "uint256",
          "name": "_tokenId",
          "type": "uint256"
        },
        {
          "internalType": "bool",
          "name": "_forSale",
          "type": "bool"
        }
      ],
      "name": "setForSale",
      "outputs": [
        {
          "internalType": "bool",
          "name": "",
          "type": "bool"
        }
      ],
      "stateMutability": "nonpayable",
      "type": "function"
    },
    {
      "inputs": [
        {
          "internalType": "uint256",
          "name": "_price",
          "type": "uint256"
        },
        {
          "internalType": "uint256",
          "name": "_tokenId",
          "type": "uint256"
        }
      ],
      "name": "setPrice",
      "outputs": [],
      "stateMutability": "nonpayable",
      "type": "function"
    },
    {
      "inputs": [
        {
          "internalType": "address",
          "name": "_newOwner",
          "type": "address"
        }
      ],
      "name": "transferOwnership",
      "outputs": [],
      "stateMutability": "nonpayable",
      "type": "function"
    },
    {
      "inputs": [
        {
          "internalType": "address",
          "name": "nmwdAddress",
          "type": "address"
        }
      ],
      "name": "updateNMWDcontract",
      "outputs": [],
      "stateMutability": "nonpayable",
      "type": "function"
    },
    {
      "inputs": [
        {
          "internalType": "address",
          "name": "_payee",
          "type": "address"
        },
        {
          "internalType": "uint256",
          "name": "_amount",
          "type": "uint256"
        }
      ],
      "name": "withdrawFromContract",
      "outputs": [],
      "stateMutability": "nonpayable",
      "type": "function"
    }
  ],
  "bytecode": "0x60806040523480156200001157600080fd5b50620000226200002860201b60201c565b6200018d565b336000806101000a81548173ffffffffffffffffffffffffffffffffffffffff021916908373ffffffffffffffffffffffffffffffffffffffff1602179055507f2d5a82cbc34270500c60b0532ca36cd4716c295bf0351b25835351664a3125bf60008054906101000a900473ffffffffffffffffffffffffffffffffffffffff16604051620000b9919062000116565b60405180910390a1565b620000ce8162000159565b82525050565b6000620000e360098362000148565b91507f736574206f776e657200000000000000000000000000000000000000000000006000830152602082019050919050565b60006040820190506200012d6000830184620000c3565b81810360208301526200014081620000d4565b905092915050565b600082825260208201905092915050565b600062000166826200016d565b9050919050565b600073ffffffffffffffffffffffffffffffffffffffff82169050919050565b61287b806200019d6000396000f3fe6080604052600436106100e85760003560e01c8063b4c49d091161008a578063f0a6c16b11610059578063f0a6c16b146102b4578063f2fde38b146102f1578063f3fe3bc31461031a578063f7d9757714610345576100e8565b8063b4c49d0914610205578063be4185f414610230578063c2db2c421461025b578063e757223014610277576100e8565b8063837381fa116100c6578063837381fa1461015d578063860d248a146101865780638da5cb5b146101b1578063b0e857ec146101dc576100e8565b80631f9731ad146100ed5780632abacf8c146101095780635c93bec714610146575b600080fd5b610107600480360381019061010291906120d0565b61036e565b005b34801561011557600080fd5b50610130600480360381019061012b9190612188565b6105a3565b60405161013d9190612430565b60405180910390f35b34801561015257600080fd5b5061015b6105cd565b005b34801561016957600080fd5b50610184600480360381019061017f9190612058565b61082c565b005b34801561019257600080fd5b5061019b610c66565b6040516101a89190612466565b60405180910390f35b3480156101bd57600080fd5b506101c6610c9f565b6040516101d3919061232d565b60405180910390f35b3480156101e857600080fd5b5061020360048036038101906101fe9190612006565b610cc3565b005b34801561021157600080fd5b5061021a610ecd565b60405161022791906124a8565b60405180910390f35b34801561023c57600080fd5b50610245610ed7565b604051610252919061244b565b60405180910390f35b61027560048036038101906102709190612188565b610efd565b005b34801561028357600080fd5b5061029e60048036038101906102999190612188565b611795565b6040516102ab91906124a8565b60405180910390f35b3480156102c057600080fd5b506102db60048036038101906102d691906121b1565b6117b2565b6040516102e89190612430565b60405180910390f35b3480156102fd57600080fd5b5061031860048036038101906103139190612006565b6119ea565b005b34801561032657600080fd5b5061032f611c35565b60405161033c9190612466565b60405180910390f35b34801561035157600080fd5b5061036c600480360381019061036791906121ed565b611c6e565b005b60006002600086815260200190815260200160002054141561038f57600080fd5b60026000858152602001908152602001600020543410156040518060400160405280600481526020017f30353036000000000000000000000000000000000000000000000000000000008152509061041d576040517f08c379a00000000000000000000000000000000000000000000000000000000081526004016104149190612466565b60405180910390fd5b50600073ffffffffffffffffffffffffffffffffffffffff1661043e611f18565b73ffffffffffffffffffffffffffffffffffffffff161415801561049557503073ffffffffffffffffffffffffffffffffffffffff1661047c611f18565b73ffffffffffffffffffffffffffffffffffffffff1614155b61049e57600080fd5b34600460008282546104b09190612569565b92505081905550600160009054906101000a900473ffffffffffffffffffffffffffffffffffffffff1673ffffffffffffffffffffffffffffffffffffffff16634dfec9f686868686866040518663ffffffff1660e01b815260040161051a9594939291906123d6565b600060405180830381600087803b15801561053457600080fd5b505af1158015610548573d6000803e3d6000fd5b505050508473ffffffffffffffffffffffffffffffffffffffff167fdbc09166e717a324fd239bd32af51e47b8348709b352f3223238c4de82ebaa7685346040516105949291906124c3565b60405180910390a25050505050565b60006003600083815260200190815260200160002060009054906101000a900460ff169050919050565b60008054906101000a900473ffffffffffffffffffffffffffffffffffffffff1673ffffffffffffffffffffffffffffffffffffffff163373ffffffffffffffffffffffffffffffffffffffff161461065b576040517f08c379a000000000000000000000000000000000000000000000000000000000815260040161065290612488565b60405180910390fd5b7f2d5a82cbc34270500c60b0532ca36cd4716c295bf0351b25835351664a3125bf60008054906101000a900473ffffffffffffffffffffffffffffffffffffffff166040516106aa91906123a8565b60405180910390a1600073ffffffffffffffffffffffffffffffffffffffff16600160009054906101000a900473ffffffffffffffffffffffffffffffffffffffff1673ffffffffffffffffffffffffffffffffffffffff1614156040518060400160405280600481526020017f30353032000000000000000000000000000000000000000000000000000000008152509061077c576040517f08c379a00000000000000000000000000000000000000000000000000000000081526004016107739190612466565b60405180910390fd5b50600160009054906101000a900473ffffffffffffffffffffffffffffffffffffffff1673ffffffffffffffffffffffffffffffffffffffff1663f2fde38b60008054906101000a900473ffffffffffffffffffffffffffffffffffffffff166040518263ffffffff1660e01b81526004016107f8919061232d565b600060405180830381600087803b15801561081257600080fd5b505af1158015610826573d6000803e3d6000fd5b50505050565b60008054906101000a900473ffffffffffffffffffffffffffffffffffffffff1673ffffffffffffffffffffffffffffffffffffffff163373ffffffffffffffffffffffffffffffffffffffff16146108ba576040517f08c379a00000000000000000000000000000000000000000000000000000000081526004016108b190612488565b60405180910390fd5b7f2d5a82cbc34270500c60b0532ca36cd4716c295bf0351b25835351664a3125bf60008054906101000a900473ffffffffffffffffffffffffffffffffffffffff1660405161090991906123a8565b60405180910390a1600073ffffffffffffffffffffffffffffffffffffffff168273ffffffffffffffffffffffffffffffffffffffff161415801561097a57503073ffffffffffffffffffffffffffffffffffffffff168273ffffffffffffffffffffffffffffffffffffffff1614155b61098357600080fd5b8060045410156040518060400160405280600481526020017f303531300000000000000000000000000000000000000000000000000000000081525090610a00576040517f08c379a00000000000000000000000000000000000000000000000000000000081526004016109f79190612466565b60405180910390fd5b50600081118015610a115750478111155b6040518060400160405280600481526020017f303530360000000000000000000000000000000000000000000000000000000081525090610a88576040517f08c379a0000000000000000000000000000000000000000000000000000000008152600401610a7f9190612466565b60405180910390fd5b50610a91611f18565b73ffffffffffffffffffffffffffffffffffffffff163273ffffffffffffffffffffffffffffffffffffffff1614610ac857600080fd5b4760045414610bb357600060048190555060008054906101000a900473ffffffffffffffffffffffffffffffffffffffff1673ffffffffffffffffffffffffffffffffffffffff166108fc479081150290604051600060405180830381858888f19350505050158015610b3f573d6000803e3d6000fd5b5060008054906101000a900473ffffffffffffffffffffffffffffffffffffffff1673ffffffffffffffffffffffffffffffffffffffff167f6dfc6e5b54e9b8b518c0d73fe237bd1a47d57856827cbf13853bee71425c6a9082604051610ba691906124a8565b60405180910390a2610c62565b8060046000828254610bc5919061264a565b925050819055508173ffffffffffffffffffffffffffffffffffffffff166108fc829081150290604051600060405180830381858888f19350505050158015610c12573d6000803e3d6000fd5b508173ffffffffffffffffffffffffffffffffffffffff167f510ffb4dcab972ae9d2007a58e13f1b0881776d23cd8f5cc32f8c5be2dbf70d282604051610c5991906124a8565b60405180910390a25b5050565b6040518060400160405280600481526020017f303130320000000000000000000000000000000000000000000000000000000081525081565b60008054906101000a900473ffffffffffffffffffffffffffffffffffffffff1681565b60008054906101000a900473ffffffffffffffffffffffffffffffffffffffff1673ffffffffffffffffffffffffffffffffffffffff163373ffffffffffffffffffffffffffffffffffffffff1614610d51576040517f08c379a0000000000000000000000000000000000000000000000000000000008152600401610d4890612488565b60405180910390fd5b7f2d5a82cbc34270500c60b0532ca36cd4716c295bf0351b25835351664a3125bf60008054906101000a900473ffffffffffffffffffffffffffffffffffffffff16604051610da091906123a8565b60405180910390a1600073ffffffffffffffffffffffffffffffffffffffff168173ffffffffffffffffffffffffffffffffffffffff1614158015610e1157503073ffffffffffffffffffffffffffffffffffffffff168173ffffffffffffffffffffffffffffffffffffffff1614155b6040518060400160405280600481526020017f303530310000000000000000000000000000000000000000000000000000000081525090610e88576040517f08c379a0000000000000000000000000000000000000000000000000000000008152600401610e7f9190612466565b60405180910390fd5b5080600160006101000a81548173ffffffffffffffffffffffffffffffffffffffff021916908373ffffffffffffffffffffffffffffffffffffffff16021790555050565b6000600454905090565b600160009054906101000a900473ffffffffffffffffffffffffffffffffffffffff1681565b6003600082815260200190815260200160002060009054906101000a900460ff166040518060400160405280600481526020017f303530350000000000000000000000000000000000000000000000000000000081525090610f95576040517f08c379a0000000000000000000000000000000000000000000000000000000008152600401610f8c9190612466565b60405180910390fd5b50600073ffffffffffffffffffffffffffffffffffffffff16610fb6611f18565b73ffffffffffffffffffffffffffffffffffffffff161415801561100d57503073ffffffffffffffffffffffffffffffffffffffff16610ff4611f18565b73ffffffffffffffffffffffffffffffffffffffff1614155b61101657600080fd5b600260008281526020019081526020016000205434101561103657600080fd5b600073ffffffffffffffffffffffffffffffffffffffff16600160009054906101000a900473ffffffffffffffffffffffffffffffffffffffff1673ffffffffffffffffffffffffffffffffffffffff16636352211e836040518263ffffffff1660e01b81526004016110a991906124a8565b60206040518083038186803b1580156110c157600080fd5b505afa1580156110d5573d6000803e3d6000fd5b505050506040513d601f19601f820116820180604052508101906110f9919061202f565b73ffffffffffffffffffffffffffffffffffffffff1614156040518060400160405280600481526020017f303530340000000000000000000000000000000000000000000000000000000081525090611188576040517f08c379a000000000000000000000000000000000000000000000000000000000815260040161117f9190612466565b60405180910390fd5b506000600160009054906101000a900473ffffffffffffffffffffffffffffffffffffffff1673ffffffffffffffffffffffffffffffffffffffff16636352211e836040518263ffffffff1660e01b81526004016111e691906124a8565b60206040518083038186803b1580156111fe57600080fd5b505afa158015611212573d6000803e3d6000fd5b505050506040513d601f19601f82011682018060405250810190611236919061202f565b90503073ffffffffffffffffffffffffffffffffffffffff16600160009054906101000a900473ffffffffffffffffffffffffffffffffffffffff1673ffffffffffffffffffffffffffffffffffffffff1663081812fc846040518263ffffffff1660e01b81526004016112aa91906124a8565b60206040518083038186803b1580156112c257600080fd5b505afa1580156112d6573d6000803e3d6000fd5b505050506040513d601f19601f820116820180604052508101906112fa919061202f565b73ffffffffffffffffffffffffffffffffffffffff1614806113c55750600160009054906101000a900473ffffffffffffffffffffffffffffffffffffffff1673ffffffffffffffffffffffffffffffffffffffff1663e985e9c582306040518363ffffffff1660e01b8152600401611374929190612348565b60206040518083038186803b15801561138c57600080fd5b505afa1580156113a0573d6000803e3d6000fd5b505050506040513d601f19601f820116820180604052508101906113c4919061215f565b5b6040518060400160405280600481526020017f30353033000000000000000000000000000000000000000000000000000000008152509061143c576040517f08c379a00000000000000000000000000000000000000000000000000000000081526004016114339190612466565b60405180910390fd5b5060006003600084815260200190815260200160002060006101000a81548160ff021916908315150217905550600160009054906101000a900473ffffffffffffffffffffffffffffffffffffffff1673ffffffffffffffffffffffffffffffffffffffff166342842e0e826114b0611f18565b856040518463ffffffff1660e01b81526004016114cf93929190612371565b600060405180830381600087803b1580156114e957600080fd5b505af11580156114fd573d6000803e3d6000fd5b50505050600060086103e83461151391906125bf565b61151d91906125f0565b905080600460008282546115319190612569565b9250508190555060008134611546919061264a565b9050600080600160009054906101000a900473ffffffffffffffffffffffffffffffffffffffff1673ffffffffffffffffffffffffffffffffffffffff16632a55205a87856040518363ffffffff1660e01b81526004016115a89291906124c3565b604080518083038186803b1580156115bf57600080fd5b505afa1580156115d3573d6000803e3d6000fd5b505050506040513d601f19601f820116820180604052508101906115f79190612094565b9150915060008184611609919061264a565b90508573ffffffffffffffffffffffffffffffffffffffff166108fc829081150290604051600060405180830381858888f19350505050158015611651573d6000803e3d6000fd5b508273ffffffffffffffffffffffffffffffffffffffff166108fc839081150290604051600060405180830381858888f19350505050158015611698573d6000803e3d6000fd5b508573ffffffffffffffffffffffffffffffffffffffff167f510ffb4dcab972ae9d2007a58e13f1b0881776d23cd8f5cc32f8c5be2dbf70d2826040516116df91906124a8565b60405180910390a28273ffffffffffffffffffffffffffffffffffffffff167fbc86de696edc3350c664d50abf25f24e7e1251f1469ad925b25fe36927270d438360405161172d91906124a8565b60405180910390a261173d611f18565b73ffffffffffffffffffffffffffffffffffffffff167fdbc09166e717a324fd239bd32af51e47b8348709b352f3223238c4de82ebaa7688346040516117849291906124c3565b60405180910390a250505050505050565b600060026000838152602001908152602001600020549050919050565b6000600160009054906101000a900473ffffffffffffffffffffffffffffffffffffffff1673ffffffffffffffffffffffffffffffffffffffff16636352211e846040518263ffffffff1660e01b815260040161180f91906124a8565b60206040518083038186803b15801561182757600080fd5b505afa92505050801561185857506040513d601f19601f82011682018060405250810190611855919061202f565b60015b61186557600090506119e4565b61186d611f18565b73ffffffffffffffffffffffffffffffffffffffff168173ffffffffffffffffffffffffffffffffffffffff16146040518060400160405280600481526020017f303530390000000000000000000000000000000000000000000000000000000081525090611912576040517f08c379a00000000000000000000000000000000000000000000000000000000081526004016119099190612466565b60405180910390fd5b50506003600084815260200190815260200160002060009054906101000a900460ff16151582151514156040518060400160405280600481526020017f3035303800000000000000000000000000000000000000000000000000000000815250906119b3576040517f08c379a00000000000000000000000000000000000000000000000000000000081526004016119aa9190612466565b60405180910390fd5b50816003600085815260200190815260200160002060006101000a81548160ff021916908315150217905550600190505b92915050565b60008054906101000a900473ffffffffffffffffffffffffffffffffffffffff1673ffffffffffffffffffffffffffffffffffffffff163373ffffffffffffffffffffffffffffffffffffffff1614611a78576040517f08c379a0000000000000000000000000000000000000000000000000000000008152600401611a6f90612488565b60405180910390fd5b7f2d5a82cbc34270500c60b0532ca36cd4716c295bf0351b25835351664a3125bf60008054906101000a900473ffffffffffffffffffffffffffffffffffffffff16604051611ac791906123a8565b60405180910390a1600073ffffffffffffffffffffffffffffffffffffffff168173ffffffffffffffffffffffffffffffffffffffff1614156040518060400160405280600481526020017f303130320000000000000000000000000000000000000000000000000000000081525090611b77576040517f08c379a0000000000000000000000000000000000000000000000000000000008152600401611b6e9190612466565b60405180910390fd5b508073ffffffffffffffffffffffffffffffffffffffff1660008054906101000a900473ffffffffffffffffffffffffffffffffffffffff1673ffffffffffffffffffffffffffffffffffffffff167f8be0079c531659141344cd1fd0a4f28419497f9722a3daafe3b4186f6b6457e060405160405180910390a3806000806101000a81548173ffffffffffffffffffffffffffffffffffffffff021916908373ffffffffffffffffffffffffffffffffffffffff16021790555050565b6040518060400160405280600481526020017f303130310000000000000000000000000000000000000000000000000000000081525081565b600082116040518060400160405280600481526020017f303530370000000000000000000000000000000000000000000000000000000081525090611ce9576040517f08c379a0000000000000000000000000000000000000000000000000000000008152600401611ce09190612466565b60405180910390fd5b5060026000828152602001908152602001600020548214156040518060400160405280600481526020017f303530380000000000000000000000000000000000000000000000000000000081525090611d78576040517f08c379a0000000000000000000000000000000000000000000000000000000008152600401611d6f9190612466565b60405180910390fd5b50600160009054906101000a900473ffffffffffffffffffffffffffffffffffffffff1673ffffffffffffffffffffffffffffffffffffffff16636352211e826040518263ffffffff1660e01b8152600401611dd491906124a8565b60206040518083038186803b158015611dec57600080fd5b505afa925050508015611e1d57506040513d601f19601f82011682018060405250810190611e1a919061202f565b60015b611ebb57611e29611f18565b73ffffffffffffffffffffffffffffffffffffffff1660008054906101000a900473ffffffffffffffffffffffffffffffffffffffff1673ffffffffffffffffffffffffffffffffffffffff1614611eb6576040517f08c379a0000000000000000000000000000000000000000000000000000000008152600401611ead90612488565b60405180910390fd5b611efc565b611ec3611f18565b73ffffffffffffffffffffffffffffffffffffffff168173ffffffffffffffffffffffffffffffffffffffff1614611efa57600080fd5b505b8160026000838152602001908152602001600020819055505050565b600033905090565b6000611f33611f2e8461251d565b6124ec565b905082815260208101848484011115611f4b57600080fd5b611f56848285612720565b509392505050565b600081359050611f6d81612800565b92915050565b600081519050611f8281612800565b92915050565b600081359050611f9781612817565b92915050565b600081519050611fac81612817565b92915050565b600082601f830112611fc357600080fd5b8135611fd3848260208601611f20565b91505092915050565b600081359050611feb8161282e565b92915050565b6000815190506120008161282e565b92915050565b60006020828403121561201857600080fd5b600061202684828501611f5e565b91505092915050565b60006020828403121561204157600080fd5b600061204f84828501611f73565b91505092915050565b6000806040838503121561206b57600080fd5b600061207985828601611f5e565b925050602061208a85828601611fdc565b9150509250929050565b600080604083850312156120a757600080fd5b60006120b585828601611f73565b92505060206120c685828601611ff1565b9150509250929050565b600080600080600060a086880312156120e857600080fd5b60006120f688828901611f5e565b955050602061210788828901611fdc565b945050604086013567ffffffffffffffff81111561212457600080fd5b61213088828901611fb2565b935050606061214188828901611f5e565b925050608061215288828901611fdc565b9150509295509295909350565b60006020828403121561217157600080fd5b600061217f84828501611f9d565b91505092915050565b60006020828403121561219a57600080fd5b60006121a884828501611fdc565b91505092915050565b600080604083850312156121c457600080fd5b60006121d285828601611fdc565b92505060206121e385828601611f88565b9150509250929050565b6000806040838503121561220057600080fd5b600061220e85828601611fdc565b925050602061221f85828601611fdc565b9150509250929050565b612232816126c6565b82525050565b6122418161267e565b82525050565b61225081612690565b82525050565b61225f816126d8565b82525050565b60006122708261254d565b61227a8185612558565b935061228a81856020860161272f565b612293816127ef565b840191505092915050565b60006122ab600983612558565b91507f4e6f74206f776e657200000000000000000000000000000000000000000000006000830152602082019050919050565b60006122eb601c83612558565b91507f706173736564206f776e65727368697020726571756972656d656e74000000006000830152602082019050919050565b612327816126bc565b82525050565b60006020820190506123426000830184612238565b92915050565b600060408201905061235d6000830185612238565b61236a6020830184612238565b9392505050565b60006060820190506123866000830186612238565b6123936020830185612229565b6123a0604083018461231e565b949350505050565b60006040820190506123bd6000830184612238565b81810360208301526123ce816122de565b905092915050565b600060a0820190506123eb6000830188612238565b6123f8602083018761231e565b818103604083015261240a8186612265565b90506124196060830185612238565b612426608083018461231e565b9695505050505050565b60006020820190506124456000830184612247565b92915050565b60006020820190506124606000830184612256565b92915050565b600060208201905081810360008301526124808184612265565b905092915050565b600060208201905081810360008301526124a18161229e565b9050919050565b60006020820190506124bd600083018461231e565b92915050565b60006040820190506124d8600083018561231e565b6124e5602083018461231e565b9392505050565b6000604051905081810181811067ffffffffffffffff82111715612513576125126127c0565b5b8060405250919050565b600067ffffffffffffffff821115612538576125376127c0565b5b601f19601f8301169050602081019050919050565b600081519050919050565b600082825260208201905092915050565b6000612574826126bc565b915061257f836126bc565b9250827fffffffffffffffffffffffffffffffffffffffffffffffffffffffffffffffff038211156125b4576125b3612762565b5b828201905092915050565b60006125ca826126bc565b91506125d5836126bc565b9250826125e5576125e4612791565b5b828204905092915050565b60006125fb826126bc565b9150612606836126bc565b9250817fffffffffffffffffffffffffffffffffffffffffffffffffffffffffffffffff048311821515161561263f5761263e612762565b5b828202905092915050565b6000612655826126bc565b9150612660836126bc565b92508282101561267357612672612762565b5b828203905092915050565b60006126898261269c565b9050919050565b60008115159050919050565b600073ffffffffffffffffffffffffffffffffffffffff82169050919050565b6000819050919050565b60006126d1826126fc565b9050919050565b60006126e3826126ea565b9050919050565b60006126f58261269c565b9050919050565b60006127078261270e565b9050919050565b60006127198261269c565b9050919050565b82818337600083830152505050565b60005b8381101561274d578082015181840152602081019050612732565b8381111561275c576000848401525b50505050565b7f4e487b7100000000000000000000000000000000000000000000000000000000600052601160045260246000fd5b7f4e487b7100000000000000000000000000000000000000000000000000000000600052601260045260246000fd5b7f4e487b7100000000000000000000000000000000000000000000000000000000600052604160045260246000fd5b6000601f19601f8301169050919050565b6128098161267e565b811461281457600080fd5b50565b61282081612690565b811461282b57600080fd5b50565b612837816126bc565b811461284257600080fd5b5056fea2646970667358221220337dd38e8b251e0a4f3fa42d7204dde7827a72b195033a70962ae5ef74d697c264736f6c63430008000033",
  "linkReferences": {},
  "deployedLinkReferences": {}
}