{
  "_format": "hh-sol-artifact-1",
  "contractName": "NMWDMarketPlace",
  "sourceName": "contracts/NMWDMarketPlace.sol",
  "abi": [
    {
      "inputs": [],
      "stateMutability": "nonpayable",
      "type": "constructor"
    },
    {
      "anonymous": false,
      "inputs": [
        {
          "indexed": true,
          "internalType": "address",
          "name": "previousOwner",
          "type": "address"
        },
        {
          "indexed": true,
          "internalType": "address",
          "name": "newOwner",
          "type": "address"
        }
      ],
      "name": "OwnershipTransferred",
      "type": "event"
    },
    {
      "anonymous": false,
      "inputs": [
        {
          "indexed": true,
          "internalType": "address",
          "name": "payer",
          "type": "address"
        },
        {
          "indexed": false,
          "internalType": "uint256",
          "name": "tokenId",
          "type": "uint256"
        },
        {
          "indexed": false,
          "internalType": "uint256",
          "name": "amount",
          "type": "uint256"
        }
      ],
      "name": "Received",
      "type": "event"
    },
    {
      "anonymous": false,
      "inputs": [
        {
          "indexed": true,
          "internalType": "address",
          "name": "payee",
          "type": "address"
        },
        {
          "indexed": false,
          "internalType": "uint256",
          "name": "amount",
          "type": "uint256"
        }
      ],
      "name": "SecurityWithdrawal",
      "type": "event"
    },
    {
      "anonymous": false,
      "inputs": [
        {
          "indexed": true,
          "internalType": "address",
          "name": "payee",
          "type": "address"
        },
        {
          "indexed": false,
          "internalType": "uint256",
          "name": "amount",
          "type": "uint256"
        }
      ],
      "name": "Sent",
      "type": "event"
    },
    {
      "anonymous": false,
      "inputs": [
        {
          "indexed": false,
          "internalType": "address",
          "name": "deliveredTo",
          "type": "address"
        },
        {
          "indexed": false,
          "internalType": "string",
          "name": "msg",
          "type": "string"
        }
      ],
      "name": "_msg",
      "type": "event"
    },
    {
      "inputs": [],
      "name": "CANNOT_TRANSFER_TO_ZERO_ADDRESS",
      "outputs": [
        {
          "internalType": "string",
          "name": "",
          "type": "string"
        }
      ],
      "stateMutability": "view",
      "type": "function"
    },
    {
      "inputs": [],
      "name": "NMWDcontract",
      "outputs": [
        {
          "internalType": "contract NoMoreWarOnDrugs",
          "name": "",
          "type": "address"
        }
      ],
      "stateMutability": "view",
      "type": "function"
    },
    {
      "inputs": [],
      "name": "NOT_CURRENT_OWNER",
      "outputs": [
        {
          "internalType": "string",
          "name": "",
          "type": "string"
        }
      ],
      "stateMutability": "view",
      "type": "function"
    },
    {
      "inputs": [],
      "name": "getBackOwnership",
      "outputs": [],
      "stateMutability": "nonpayable",
      "type": "function"
    },
    {
      "inputs": [
        {
          "internalType": "uint256",
          "name": "_tokenId",
          "type": "uint256"
        }
      ],
      "name": "getForSale",
      "outputs": [
        {
          "internalType": "bool",
          "name": "",
          "type": "bool"
        }
      ],
      "stateMutability": "view",
      "type": "function"
    },
    {
      "inputs": [],
      "name": "getMarketPlaceBalance",
      "outputs": [
        {
          "internalType": "uint256",
          "name": "",
          "type": "uint256"
        }
      ],
      "stateMutability": "view",
      "type": "function"
    },
    {
      "inputs": [
        {
          "internalType": "uint256",
          "name": "_tokenId",
          "type": "uint256"
        }
      ],
      "name": "getPrice",
      "outputs": [
        {
          "internalType": "uint256",
          "name": "",
          "type": "uint256"
        }
      ],
      "stateMutability": "view",
      "type": "function"
    },
    {
      "inputs": [
        {
          "internalType": "address",
          "name": "_to",
          "type": "address"
        },
        {
          "internalType": "uint256",
          "name": "_tokenId",
          "type": "uint256"
        },
        {
          "internalType": "string",
          "name": "_uri",
          "type": "string"
        }
      ],
      "name": "mintThroughPurchase",
      "outputs": [],
      "stateMutability": "payable",
      "type": "function"
    },
    {
      "inputs": [],
      "name": "owner",
      "outputs": [
        {
          "internalType": "address",
          "name": "",
          "type": "address"
        }
      ],
      "stateMutability": "view",
      "type": "function"
    },
    {
      "inputs": [
        {
          "internalType": "uint256",
          "name": "_tokenId",
          "type": "uint256"
        }
      ],
      "name": "purchaseToken",
      "outputs": [],
      "stateMutability": "payable",
      "type": "function"
    },
    {
      "inputs": [
        {
          "internalType": "uint256",
          "name": "_tokenId",
          "type": "uint256"
        },
        {
          "internalType": "bool",
          "name": "_forSale",
          "type": "bool"
        }
      ],
      "name": "setForSale",
      "outputs": [
        {
          "internalType": "bool",
          "name": "",
          "type": "bool"
        }
      ],
      "stateMutability": "nonpayable",
      "type": "function"
    },
    {
      "inputs": [
        {
          "internalType": "uint256",
          "name": "_price",
          "type": "uint256"
        },
        {
          "internalType": "uint256",
          "name": "_tokenId",
          "type": "uint256"
        }
      ],
      "name": "setPrice",
      "outputs": [],
      "stateMutability": "nonpayable",
      "type": "function"
    },
    {
      "inputs": [
        {
          "internalType": "address",
          "name": "_newOwner",
          "type": "address"
        }
      ],
      "name": "transferOwnership",
      "outputs": [],
      "stateMutability": "nonpayable",
      "type": "function"
    },
    {
      "inputs": [
        {
          "internalType": "address",
          "name": "nmwdAddress",
          "type": "address"
        }
      ],
      "name": "updateNMWDcontract",
      "outputs": [],
      "stateMutability": "nonpayable",
      "type": "function"
    },
    {
      "inputs": [
        {
          "internalType": "address",
          "name": "_payee",
          "type": "address"
        },
        {
          "internalType": "uint256",
          "name": "_amount",
          "type": "uint256"
        }
      ],
      "name": "withdrawFromContract",
      "outputs": [],
      "stateMutability": "nonpayable",
      "type": "function"
    }
  ],
  "bytecode": "0x60806040523480156200001157600080fd5b50620000226200002860201b60201c565b6200018d565b336000806101000a81548173ffffffffffffffffffffffffffffffffffffffff021916908373ffffffffffffffffffffffffffffffffffffffff1602179055507f2d5a82cbc34270500c60b0532ca36cd4716c295bf0351b25835351664a3125bf60008054906101000a900473ffffffffffffffffffffffffffffffffffffffff16604051620000b9919062000116565b60405180910390a1565b620000ce8162000159565b82525050565b6000620000e360098362000148565b91507f736574206f776e657200000000000000000000000000000000000000000000006000830152602082019050919050565b60006040820190506200012d6000830184620000c3565b81810360208301526200014081620000d4565b905092915050565b600082825260208201905092915050565b600062000166826200016d565b9050919050565b600073ffffffffffffffffffffffffffffffffffffffff82169050919050565b61268e806200019d6000396000f3fe6080604052600436106100e85760003560e01c8063be4185f41161008a578063f0a6c16b11610059578063f0a6c16b146102b4578063f2fde38b146102f1578063f3fe3bc31461031a578063f7d9757714610345576100e8565b8063be4185f414610214578063c2db2c421461023f578063db228cfe1461025b578063e757223014610277576100e8565b8063860d248a116100c6578063860d248a1461016a5780638da5cb5b14610195578063b0e857ec146101c0578063b4c49d09146101e9576100e8565b80632abacf8c146100ed5780635c93bec71461012a578063837381fa14610141575b600080fd5b3480156100f957600080fd5b50610114600480360381019061010f9190611fb7565b61036e565b6040516101219190612243565b60405180910390f35b34801561013657600080fd5b5061013f610398565b005b34801561014d57600080fd5b5061016860048036038101906101639190611eeb565b6105f7565b005b34801561017657600080fd5b5061017f610a31565b60405161018c9190612279565b60405180910390f35b3480156101a157600080fd5b506101aa610a6a565b6040516101b7919061215c565b60405180910390f35b3480156101cc57600080fd5b506101e760048036038101906101e29190611e99565b610a8e565b005b3480156101f557600080fd5b506101fe610c98565b60405161020b91906122bb565b60405180910390f35b34801561022057600080fd5b50610229610ca2565b604051610236919061225e565b60405180910390f35b61025960048036038101906102549190611fb7565b610cc8565b005b61027560048036038101906102709190611f27565b61140e565b005b34801561028357600080fd5b5061029e60048036038101906102999190611fb7565b61163d565b6040516102ab91906122bb565b60405180910390f35b3480156102c057600080fd5b506102db60048036038101906102d69190611fe0565b61165a565b6040516102e89190612243565b60405180910390f35b3480156102fd57600080fd5b5061031860048036038101906103139190611e99565b611892565b005b34801561032657600080fd5b5061032f611add565b60405161033c9190612279565b60405180910390f35b34801561035157600080fd5b5061036c6004803603810190610367919061201c565b611b16565b005b60006003600083815260200190815260200160002060009054906101000a900460ff169050919050565b60008054906101000a900473ffffffffffffffffffffffffffffffffffffffff1673ffffffffffffffffffffffffffffffffffffffff163373ffffffffffffffffffffffffffffffffffffffff1614610426576040517f08c379a000000000000000000000000000000000000000000000000000000000815260040161041d9061229b565b60405180910390fd5b7f2d5a82cbc34270500c60b0532ca36cd4716c295bf0351b25835351664a3125bf60008054906101000a900473ffffffffffffffffffffffffffffffffffffffff1660405161047591906121d7565b60405180910390a1600073ffffffffffffffffffffffffffffffffffffffff16600160009054906101000a900473ffffffffffffffffffffffffffffffffffffffff1673ffffffffffffffffffffffffffffffffffffffff1614156040518060400160405280600681526020017f303034303032000000000000000000000000000000000000000000000000000081525090610547576040517f08c379a000000000000000000000000000000000000000000000000000000000815260040161053e9190612279565b60405180910390fd5b50600160009054906101000a900473ffffffffffffffffffffffffffffffffffffffff1673ffffffffffffffffffffffffffffffffffffffff1663f2fde38b60008054906101000a900473ffffffffffffffffffffffffffffffffffffffff166040518263ffffffff1660e01b81526004016105c3919061215c565b600060405180830381600087803b1580156105dd57600080fd5b505af11580156105f1573d6000803e3d6000fd5b50505050565b60008054906101000a900473ffffffffffffffffffffffffffffffffffffffff1673ffffffffffffffffffffffffffffffffffffffff163373ffffffffffffffffffffffffffffffffffffffff1614610685576040517f08c379a000000000000000000000000000000000000000000000000000000000815260040161067c9061229b565b60405180910390fd5b7f2d5a82cbc34270500c60b0532ca36cd4716c295bf0351b25835351664a3125bf60008054906101000a900473ffffffffffffffffffffffffffffffffffffffff166040516106d491906121d7565b60405180910390a1600073ffffffffffffffffffffffffffffffffffffffff168273ffffffffffffffffffffffffffffffffffffffff161415801561074557503073ffffffffffffffffffffffffffffffffffffffff168273ffffffffffffffffffffffffffffffffffffffff1614155b61074e57600080fd5b8060045410156040518060400160405280600681526020017f3030343031300000000000000000000000000000000000000000000000000000815250906107cb576040517f08c379a00000000000000000000000000000000000000000000000000000000081526004016107c29190612279565b60405180910390fd5b506000811180156107dc5750478111155b6040518060400160405280600681526020017f303034303036000000000000000000000000000000000000000000000000000081525090610853576040517f08c379a000000000000000000000000000000000000000000000000000000000815260040161084a9190612279565b60405180910390fd5b5061085c611dc0565b73ffffffffffffffffffffffffffffffffffffffff163273ffffffffffffffffffffffffffffffffffffffff161461089357600080fd5b476004541461097e57600060048190555060008054906101000a900473ffffffffffffffffffffffffffffffffffffffff1673ffffffffffffffffffffffffffffffffffffffff166108fc479081150290604051600060405180830381858888f1935050505015801561090a573d6000803e3d6000fd5b5060008054906101000a900473ffffffffffffffffffffffffffffffffffffffff1673ffffffffffffffffffffffffffffffffffffffff167f6dfc6e5b54e9b8b518c0d73fe237bd1a47d57856827cbf13853bee71425c6a908260405161097191906122bb565b60405180910390a2610a2d565b8060046000828254610990919061245d565b925050819055508173ffffffffffffffffffffffffffffffffffffffff166108fc829081150290604051600060405180830381858888f193505050501580156109dd573d6000803e3d6000fd5b508173ffffffffffffffffffffffffffffffffffffffff167f510ffb4dcab972ae9d2007a58e13f1b0881776d23cd8f5cc32f8c5be2dbf70d282604051610a2491906122bb565b60405180910390a25b5050565b6040518060400160405280600481526020017f303130320000000000000000000000000000000000000000000000000000000081525081565b60008054906101000a900473ffffffffffffffffffffffffffffffffffffffff1681565b60008054906101000a900473ffffffffffffffffffffffffffffffffffffffff1673ffffffffffffffffffffffffffffffffffffffff163373ffffffffffffffffffffffffffffffffffffffff1614610b1c576040517f08c379a0000000000000000000000000000000000000000000000000000000008152600401610b139061229b565b60405180910390fd5b7f2d5a82cbc34270500c60b0532ca36cd4716c295bf0351b25835351664a3125bf60008054906101000a900473ffffffffffffffffffffffffffffffffffffffff16604051610b6b91906121d7565b60405180910390a1600073ffffffffffffffffffffffffffffffffffffffff168173ffffffffffffffffffffffffffffffffffffffff1614158015610bdc57503073ffffffffffffffffffffffffffffffffffffffff168173ffffffffffffffffffffffffffffffffffffffff1614155b6040518060400160405280600681526020017f303034303031000000000000000000000000000000000000000000000000000081525090610c53576040517f08c379a0000000000000000000000000000000000000000000000000000000008152600401610c4a9190612279565b60405180910390fd5b5080600160006101000a81548173ffffffffffffffffffffffffffffffffffffffff021916908373ffffffffffffffffffffffffffffffffffffffff16021790555050565b6000600454905090565b600160009054906101000a900473ffffffffffffffffffffffffffffffffffffffff1681565b6003600082815260200190815260200160002060009054906101000a900460ff166040518060400160405280600681526020017f303034303035000000000000000000000000000000000000000000000000000081525090610d60576040517f08c379a0000000000000000000000000000000000000000000000000000000008152600401610d579190612279565b60405180910390fd5b50600073ffffffffffffffffffffffffffffffffffffffff16610d81611dc0565b73ffffffffffffffffffffffffffffffffffffffff1614158015610dd857503073ffffffffffffffffffffffffffffffffffffffff16610dbf611dc0565b73ffffffffffffffffffffffffffffffffffffffff1614155b610de157600080fd5b6002600082815260200190815260200160002054341015610e0157600080fd5b600073ffffffffffffffffffffffffffffffffffffffff16600160009054906101000a900473ffffffffffffffffffffffffffffffffffffffff1673ffffffffffffffffffffffffffffffffffffffff16636352211e836040518263ffffffff1660e01b8152600401610e7491906122bb565b60206040518083038186803b158015610e8c57600080fd5b505afa158015610ea0573d6000803e3d6000fd5b505050506040513d601f19601f82011682018060405250810190610ec49190611ec2565b73ffffffffffffffffffffffffffffffffffffffff1614156040518060400160405280600681526020017f303034303034000000000000000000000000000000000000000000000000000081525090610f53576040517f08c379a0000000000000000000000000000000000000000000000000000000008152600401610f4a9190612279565b60405180910390fd5b506000600160009054906101000a900473ffffffffffffffffffffffffffffffffffffffff1673ffffffffffffffffffffffffffffffffffffffff16636352211e836040518263ffffffff1660e01b8152600401610fb191906122bb565b60206040518083038186803b158015610fc957600080fd5b505afa158015610fdd573d6000803e3d6000fd5b505050506040513d601f19601f820116820180604052508101906110019190611ec2565b90503073ffffffffffffffffffffffffffffffffffffffff16600160009054906101000a900473ffffffffffffffffffffffffffffffffffffffff1673ffffffffffffffffffffffffffffffffffffffff1663081812fc846040518263ffffffff1660e01b815260040161107591906122bb565b60206040518083038186803b15801561108d57600080fd5b505afa1580156110a1573d6000803e3d6000fd5b505050506040513d601f19601f820116820180604052508101906110c59190611ec2565b73ffffffffffffffffffffffffffffffffffffffff1614806111905750600160009054906101000a900473ffffffffffffffffffffffffffffffffffffffff1673ffffffffffffffffffffffffffffffffffffffff1663e985e9c582306040518363ffffffff1660e01b815260040161113f929190612177565b60206040518083038186803b15801561115757600080fd5b505afa15801561116b573d6000803e3d6000fd5b505050506040513d601f19601f8201168201806040525081019061118f9190611f8e565b5b6040518060400160405280600681526020017f303034303033000000000000000000000000000000000000000000000000000081525090611207576040517f08c379a00000000000000000000000000000000000000000000000000000000081526004016111fe9190612279565b60405180910390fd5b5060006003600084815260200190815260200160002060006101000a81548160ff021916908315150217905550600160009054906101000a900473ffffffffffffffffffffffffffffffffffffffff1673ffffffffffffffffffffffffffffffffffffffff166342842e0e8261127b611dc0565b856040518463ffffffff1660e01b815260040161129a939291906121a0565b600060405180830381600087803b1580156112b457600080fd5b505af11580156112c8573d6000803e3d6000fd5b5050505060006103e56103e8346112df91906123d2565b6112e99190612403565b90508173ffffffffffffffffffffffffffffffffffffffff166108fc829081150290604051600060405180830381858888f19350505050158015611331573d6000803e3d6000fd5b5060036103e83461134291906123d2565b61134c9190612403565b6004600082825461135d919061237c565b925050819055508173ffffffffffffffffffffffffffffffffffffffff167f510ffb4dcab972ae9d2007a58e13f1b0881776d23cd8f5cc32f8c5be2dbf70d2826040516113aa91906122bb565b60405180910390a26113ba611dc0565b73ffffffffffffffffffffffffffffffffffffffff167f74cf3d18d0ddca79038197ad0dd2c7fa5005ef61a5d1ed190e8a8a437e2fcf1084346040516114019291906122d6565b60405180910390a2505050565b60006002600084815260200190815260200160002054141561142f57600080fd5b60026000838152602001908152602001600020543410156040518060400160405280600681526020017f3030343030360000000000000000000000000000000000000000000000000000815250906114bd576040517f08c379a00000000000000000000000000000000000000000000000000000000081526004016114b49190612279565b60405180910390fd5b50600073ffffffffffffffffffffffffffffffffffffffff166114de611dc0565b73ffffffffffffffffffffffffffffffffffffffff161415801561153557503073ffffffffffffffffffffffffffffffffffffffff1661151c611dc0565b73ffffffffffffffffffffffffffffffffffffffff1614155b61153e57600080fd5b3460046000828254611550919061237c565b92505081905550600160009054906101000a900473ffffffffffffffffffffffffffffffffffffffff1673ffffffffffffffffffffffffffffffffffffffff1663d3fc98648484846040518463ffffffff1660e01b81526004016115b693929190612205565b600060405180830381600087803b1580156115d057600080fd5b505af11580156115e4573d6000803e3d6000fd5b505050508273ffffffffffffffffffffffffffffffffffffffff167f74cf3d18d0ddca79038197ad0dd2c7fa5005ef61a5d1ed190e8a8a437e2fcf1083346040516116309291906122d6565b60405180910390a2505050565b600060026000838152602001908152602001600020549050919050565b6000600160009054906101000a900473ffffffffffffffffffffffffffffffffffffffff1673ffffffffffffffffffffffffffffffffffffffff16636352211e846040518263ffffffff1660e01b81526004016116b791906122bb565b60206040518083038186803b1580156116cf57600080fd5b505afa92505050801561170057506040513d601f19601f820116820180604052508101906116fd9190611ec2565b60015b61170d576000905061188c565b611715611dc0565b73ffffffffffffffffffffffffffffffffffffffff168173ffffffffffffffffffffffffffffffffffffffff16146040518060400160405280600681526020017f3030343030390000000000000000000000000000000000000000000000000000815250906117ba576040517f08c379a00000000000000000000000000000000000000000000000000000000081526004016117b19190612279565b60405180910390fd5b50506003600084815260200190815260200160002060009054906101000a900460ff16151582151514156040518060400160405280600681526020017f30303430303800000000000000000000000000000000000000000000000000008152509061185b576040517f08c379a00000000000000000000000000000000000000000000000000000000081526004016118529190612279565b60405180910390fd5b50816003600085815260200190815260200160002060006101000a81548160ff021916908315150217905550600190505b92915050565b60008054906101000a900473ffffffffffffffffffffffffffffffffffffffff1673ffffffffffffffffffffffffffffffffffffffff163373ffffffffffffffffffffffffffffffffffffffff1614611920576040517f08c379a00000000000000000000000000000000000000000000000000000000081526004016119179061229b565b60405180910390fd5b7f2d5a82cbc34270500c60b0532ca36cd4716c295bf0351b25835351664a3125bf60008054906101000a900473ffffffffffffffffffffffffffffffffffffffff1660405161196f91906121d7565b60405180910390a1600073ffffffffffffffffffffffffffffffffffffffff168173ffffffffffffffffffffffffffffffffffffffff1614156040518060400160405280600481526020017f303130320000000000000000000000000000000000000000000000000000000081525090611a1f576040517f08c379a0000000000000000000000000000000000000000000000000000000008152600401611a169190612279565b60405180910390fd5b508073ffffffffffffffffffffffffffffffffffffffff1660008054906101000a900473ffffffffffffffffffffffffffffffffffffffff1673ffffffffffffffffffffffffffffffffffffffff167f8be0079c531659141344cd1fd0a4f28419497f9722a3daafe3b4186f6b6457e060405160405180910390a3806000806101000a81548173ffffffffffffffffffffffffffffffffffffffff021916908373ffffffffffffffffffffffffffffffffffffffff16021790555050565b6040518060400160405280600481526020017f303130310000000000000000000000000000000000000000000000000000000081525081565b600082116040518060400160405280600681526020017f303034303037000000000000000000000000000000000000000000000000000081525090611b91576040517f08c379a0000000000000000000000000000000000000000000000000000000008152600401611b889190612279565b60405180910390fd5b5060026000828152602001908152602001600020548214156040518060400160405280600681526020017f303034303038000000000000000000000000000000000000000000000000000081525090611c20576040517f08c379a0000000000000000000000000000000000000000000000000000000008152600401611c179190612279565b60405180910390fd5b50600160009054906101000a900473ffffffffffffffffffffffffffffffffffffffff1673ffffffffffffffffffffffffffffffffffffffff16636352211e826040518263ffffffff1660e01b8152600401611c7c91906122bb565b60206040518083038186803b158015611c9457600080fd5b505afa925050508015611cc557506040513d601f19601f82011682018060405250810190611cc29190611ec2565b60015b611d6357611cd1611dc0565b73ffffffffffffffffffffffffffffffffffffffff1660008054906101000a900473ffffffffffffffffffffffffffffffffffffffff1673ffffffffffffffffffffffffffffffffffffffff1614611d5e576040517f08c379a0000000000000000000000000000000000000000000000000000000008152600401611d559061229b565b60405180910390fd5b611da4565b611d6b611dc0565b73ffffffffffffffffffffffffffffffffffffffff168173ffffffffffffffffffffffffffffffffffffffff1614611da257600080fd5b505b8160026000838152602001908152602001600020819055505050565b600033905090565b6000611ddb611dd684612330565b6122ff565b905082815260208101848484011115611df357600080fd5b611dfe848285612533565b509392505050565b600081359050611e1581612613565b92915050565b600081519050611e2a81612613565b92915050565b600081359050611e3f8161262a565b92915050565b600081519050611e548161262a565b92915050565b600082601f830112611e6b57600080fd5b8135611e7b848260208601611dc8565b91505092915050565b600081359050611e9381612641565b92915050565b600060208284031215611eab57600080fd5b6000611eb984828501611e06565b91505092915050565b600060208284031215611ed457600080fd5b6000611ee284828501611e1b565b91505092915050565b60008060408385031215611efe57600080fd5b6000611f0c85828601611e06565b9250506020611f1d85828601611e84565b9150509250929050565b600080600060608486031215611f3c57600080fd5b6000611f4a86828701611e06565b9350506020611f5b86828701611e84565b925050604084013567ffffffffffffffff811115611f7857600080fd5b611f8486828701611e5a565b9150509250925092565b600060208284031215611fa057600080fd5b6000611fae84828501611e45565b91505092915050565b600060208284031215611fc957600080fd5b6000611fd784828501611e84565b91505092915050565b60008060408385031215611ff357600080fd5b600061200185828601611e84565b925050602061201285828601611e30565b9150509250929050565b6000806040838503121561202f57600080fd5b600061203d85828601611e84565b925050602061204e85828601611e84565b9150509250929050565b612061816124d9565b82525050565b61207081612491565b82525050565b61207f816124a3565b82525050565b61208e816124eb565b82525050565b600061209f82612360565b6120a9818561236b565b93506120b9818560208601612542565b6120c281612602565b840191505092915050565b60006120da60098361236b565b91507f4e6f74206f776e657200000000000000000000000000000000000000000000006000830152602082019050919050565b600061211a601c8361236b565b91507f706173736564206f776e65727368697020726571756972656d656e74000000006000830152602082019050919050565b612156816124cf565b82525050565b60006020820190506121716000830184612067565b92915050565b600060408201905061218c6000830185612067565b6121996020830184612067565b9392505050565b60006060820190506121b56000830186612067565b6121c26020830185612058565b6121cf604083018461214d565b949350505050565b60006040820190506121ec6000830184612067565b81810360208301526121fd8161210d565b905092915050565b600060608201905061221a6000830186612067565b612227602083018561214d565b81810360408301526122398184612094565b9050949350505050565b60006020820190506122586000830184612076565b92915050565b60006020820190506122736000830184612085565b92915050565b600060208201905081810360008301526122938184612094565b905092915050565b600060208201905081810360008301526122b4816120cd565b9050919050565b60006020820190506122d0600083018461214d565b92915050565b60006040820190506122eb600083018561214d565b6122f8602083018461214d565b9392505050565b6000604051905081810181811067ffffffffffffffff82111715612326576123256125d3565b5b8060405250919050565b600067ffffffffffffffff82111561234b5761234a6125d3565b5b601f19601f8301169050602081019050919050565b600081519050919050565b600082825260208201905092915050565b6000612387826124cf565b9150612392836124cf565b9250827fffffffffffffffffffffffffffffffffffffffffffffffffffffffffffffffff038211156123c7576123c6612575565b5b828201905092915050565b60006123dd826124cf565b91506123e8836124cf565b9250826123f8576123f76125a4565b5b828204905092915050565b600061240e826124cf565b9150612419836124cf565b9250817fffffffffffffffffffffffffffffffffffffffffffffffffffffffffffffffff048311821515161561245257612451612575565b5b828202905092915050565b6000612468826124cf565b9150612473836124cf565b92508282101561248657612485612575565b5b828203905092915050565b600061249c826124af565b9050919050565b60008115159050919050565b600073ffffffffffffffffffffffffffffffffffffffff82169050919050565b6000819050919050565b60006124e48261250f565b9050919050565b60006124f6826124fd565b9050919050565b6000612508826124af565b9050919050565b600061251a82612521565b9050919050565b600061252c826124af565b9050919050565b82818337600083830152505050565b60005b83811015612560578082015181840152602081019050612545565b8381111561256f576000848401525b50505050565b7f4e487b7100000000000000000000000000000000000000000000000000000000600052601160045260246000fd5b7f4e487b7100000000000000000000000000000000000000000000000000000000600052601260045260246000fd5b7f4e487b7100000000000000000000000000000000000000000000000000000000600052604160045260246000fd5b6000601f19601f8301169050919050565b61261c81612491565b811461262757600080fd5b50565b612633816124a3565b811461263e57600080fd5b50565b61264a816124cf565b811461265557600080fd5b5056fea26469706673582212208d8c587fdd6e21d5705709ed0d26b6820a8b6b39a11ce114b194cd6ddc05e5cb64736f6c63430008000033",
  "linkReferences": {},
  "deployedLinkReferences": {}
}