{
  "_format": "hh-sol-artifact-1",
  "contractName": "SWDMarketPlace",
  "sourceName": "contracts/NMWD/SWDMarketPlace.sol",
  "abi": [
    {
      "anonymous": false,
      "inputs": [
        {
          "indexed": true,
          "internalType": "address",
          "name": "previousOwner",
          "type": "address"
        },
        {
          "indexed": true,
          "internalType": "address",
          "name": "newOwner",
          "type": "address"
        }
      ],
      "name": "OwnershipTransferred",
      "type": "event"
    },
    {
      "anonymous": false,
      "inputs": [
        {
          "indexed": true,
          "internalType": "address",
          "name": "payee",
          "type": "address"
        },
        {
          "indexed": false,
          "internalType": "uint256",
          "name": "amount",
          "type": "uint256"
        }
      ],
      "name": "RoyaltyPaid",
      "type": "event"
    },
    {
      "anonymous": false,
      "inputs": [
        {
          "indexed": true,
          "internalType": "address",
          "name": "payee",
          "type": "address"
        },
        {
          "indexed": false,
          "internalType": "uint256",
          "name": "amount",
          "type": "uint256"
        }
      ],
      "name": "SecurityWithdrawal",
      "type": "event"
    },
    {
      "anonymous": false,
      "inputs": [
        {
          "indexed": true,
          "internalType": "address",
          "name": "payee",
          "type": "address"
        },
        {
          "indexed": false,
          "internalType": "uint256",
          "name": "amount",
          "type": "uint256"
        }
      ],
      "name": "Sent",
      "type": "event"
    },
    {
      "anonymous": false,
      "inputs": [
        {
          "indexed": false,
          "internalType": "address",
          "name": "deliveredTo",
          "type": "address"
        },
        {
          "indexed": false,
          "internalType": "string",
          "name": "msg",
          "type": "string"
        }
      ],
      "name": "_msg",
      "type": "event"
    },
    {
      "inputs": [],
      "name": "CANNOT_TRANSFER_TO_ZERO_ADDRESS",
      "outputs": [
        {
          "internalType": "string",
          "name": "",
          "type": "string"
        }
      ],
      "stateMutability": "view",
      "type": "function"
    },
    {
      "inputs": [],
      "name": "NOT_CURRENT_OWNER",
      "outputs": [
        {
          "internalType": "string",
          "name": "",
          "type": "string"
        }
      ],
      "stateMutability": "view",
      "type": "function"
    },
    {
      "inputs": [],
      "name": "TokenContract",
      "outputs": [
        {
          "internalType": "contract StopTheWarOnDrugs",
          "name": "",
          "type": "address"
        }
      ],
      "stateMutability": "view",
      "type": "function"
    },
    {
      "inputs": [
        {
          "internalType": "uint256",
          "name": "_tokenId",
          "type": "uint256"
        }
      ],
      "name": "burn",
      "outputs": [],
      "stateMutability": "nonpayable",
      "type": "function"
    },
    {
      "inputs": [],
      "name": "getBackOwnership",
      "outputs": [],
      "stateMutability": "nonpayable",
      "type": "function"
    },
    {
      "inputs": [
        {
          "internalType": "uint256",
          "name": "_tokenId",
          "type": "uint256"
        }
      ],
      "name": "getForSale",
      "outputs": [
        {
          "internalType": "bool",
          "name": "",
          "type": "bool"
        }
      ],
      "stateMutability": "view",
      "type": "function"
    },
    {
      "inputs": [],
      "name": "getMarketPlaceBalance",
      "outputs": [
        {
          "internalType": "uint256",
          "name": "",
          "type": "uint256"
        }
      ],
      "stateMutability": "view",
      "type": "function"
    },
    {
      "inputs": [],
      "name": "getOwner",
      "outputs": [
        {
          "internalType": "address",
          "name": "",
          "type": "address"
        }
      ],
      "stateMutability": "view",
      "type": "function"
    },
    {
      "inputs": [
        {
          "internalType": "uint256",
          "name": "_tokenId",
          "type": "uint256"
        }
      ],
      "name": "getPrice",
      "outputs": [
        {
          "internalType": "uint256",
          "name": "",
          "type": "uint256"
        }
      ],
      "stateMutability": "view",
      "type": "function"
    },
    {
      "inputs": [],
      "name": "initialize",
      "outputs": [],
      "stateMutability": "nonpayable",
      "type": "function"
    },
    {
      "inputs": [
        {
          "internalType": "address",
          "name": "_to",
          "type": "address"
        },
        {
          "internalType": "uint256",
          "name": "_tokenId",
          "type": "uint256"
        }
      ],
      "name": "mintThroughPurchase",
      "outputs": [],
      "stateMutability": "payable",
      "type": "function"
    },
    {
      "inputs": [],
      "name": "owner",
      "outputs": [
        {
          "internalType": "address",
          "name": "",
          "type": "address"
        }
      ],
      "stateMutability": "view",
      "type": "function"
    },
    {
      "inputs": [
        {
          "internalType": "uint256",
          "name": "_tokenId",
          "type": "uint256"
        }
      ],
      "name": "purchaseToken",
      "outputs": [],
      "stateMutability": "payable",
      "type": "function"
    },
    {
      "inputs": [],
      "name": "releaseLock",
      "outputs": [],
      "stateMutability": "nonpayable",
      "type": "function"
    },
    {
      "inputs": [
        {
          "internalType": "uint256",
          "name": "_tokenId",
          "type": "uint256"
        },
        {
          "internalType": "bool",
          "name": "_forSale",
          "type": "bool"
        }
      ],
      "name": "setForSale",
      "outputs": [
        {
          "internalType": "bool",
          "name": "",
          "type": "bool"
        }
      ],
      "stateMutability": "nonpayable",
      "type": "function"
    },
    {
      "inputs": [
        {
          "internalType": "uint256",
          "name": "_price",
          "type": "uint256"
        },
        {
          "internalType": "uint256",
          "name": "_tokenId",
          "type": "uint256"
        }
      ],
      "name": "setPrice",
      "outputs": [],
      "stateMutability": "nonpayable",
      "type": "function"
    },
    {
      "inputs": [
        {
          "internalType": "uint256",
          "name": "_price",
          "type": "uint256"
        },
        {
          "internalType": "uint256",
          "name": "_tokenId",
          "type": "uint256"
        },
        {
          "internalType": "address",
          "name": "_royaltyAddress",
          "type": "address"
        }
      ],
      "name": "setPriceForMinting",
      "outputs": [],
      "stateMutability": "nonpayable",
      "type": "function"
    },
    {
      "inputs": [
        {
          "internalType": "address",
          "name": "_newOwner",
          "type": "address"
        }
      ],
      "name": "transferOwnership",
      "outputs": [],
      "stateMutability": "nonpayable",
      "type": "function"
    },
    {
      "inputs": [
        {
          "internalType": "address",
          "name": "nmwdAddress",
          "type": "address"
        }
      ],
      "name": "updateNMWDcontract",
      "outputs": [],
      "stateMutability": "nonpayable",
      "type": "function"
    },
    {
      "inputs": [
        {
          "internalType": "address",
          "name": "_payee",
          "type": "address"
        },
        {
          "internalType": "uint256",
          "name": "_amount",
          "type": "uint256"
        }
      ],
      "name": "withdrawFromContract",
      "outputs": [],
      "stateMutability": "nonpayable",
      "type": "function"
    },
    {
      "stateMutability": "payable",
      "type": "receive"
    }
  ],
  "bytecode": "0x608060405234801561001057600080fd5b506134b4806100206000396000f3fe6080604052600436106101235760003560e01c8063b4c49d09116100a0578063f0a6c16b11610064578063f0a6c16b14610391578063f2fde38b146103ce578063f3fe3bc3146103f7578063f7d9757714610422578063f9b4f4bb1461044b57610143565b8063b4c49d09146102da578063bec4dd8514610305578063c2db2c4214610321578063e75722301461033d578063eda54ad21461037a57610143565b8063860d248a116100e7578063860d248a14610205578063893d20e8146102305780638da5cb5b1461025b5780639688738b14610286578063b0e857ec146102b157610143565b80632abacf8c1461014857806342966c68146101855780635c93bec7146101ae5780638129fc1c146101c5578063837381fa146101dc57610143565b3661014357346005600082825461013a91906131e0565b92505081905550005b600080fd5b34801561015457600080fd5b5061016f600480360381019061016a9190612c38565b610474565b60405161017c919061309d565b60405180910390f35b34801561019157600080fd5b506101ac60048036038101906101a79190612c38565b61049e565b005b3480156101ba57600080fd5b506101c3610613565b005b3480156101d157600080fd5b506101da610872565b005b3480156101e857600080fd5b5061020360048036038101906101fe9190612b97565b610956565b005b34801561021157600080fd5b5061021a610d51565b60405161022791906130d3565b60405180910390f35b34801561023c57600080fd5b50610245610d8a565b6040516102529190612f81565b60405180910390f35b34801561026757600080fd5b50610270610db3565b60405161027d9190612f81565b60405180910390f35b34801561029257600080fd5b5061029b610dd7565b6040516102a891906130b8565b60405180910390f35b3480156102bd57600080fd5b506102d860048036038101906102d39190612b45565b610dfd565b005b3480156102e657600080fd5b506102ef6110d1565b6040516102fc9190613175565b60405180910390f35b61031f600480360381019061031a9190612b97565b6110db565b005b61033b60048036038101906103369190612c38565b611429565b005b34801561034957600080fd5b50610364600480360381019061035f9190612c38565b611dd1565b6040516103719190613175565b60405180910390f35b34801561038657600080fd5b5061038f611dee565b005b34801561039d57600080fd5b506103b860048036038101906103b39190612c61565b611ef0565b6040516103c5919061309d565b60405180910390f35b3480156103da57600080fd5b506103f560048036038101906103f09190612b45565b612128565b005b34801561040357600080fd5b5061040c612373565b60405161041991906130d3565b60405180910390f35b34801561042e57600080fd5b5061044960048036038101906104449190612c9d565b6123ac565b005b34801561045757600080fd5b50610472600480360381019061046d9190612cd9565b6125c2565b005b60006004600083815260200190815260200160002060009054906101000a900460ff169050919050565b60008054906101000a900473ffffffffffffffffffffffffffffffffffffffff1673ffffffffffffffffffffffffffffffffffffffff163373ffffffffffffffffffffffffffffffffffffffff161461052c576040517f08c379a000000000000000000000000000000000000000000000000000000000815260040161052390613135565b60405180910390fd5b7f2d5a82cbc34270500c60b0532ca36cd4716c295bf0351b25835351664a3125bf60008054906101000a900473ffffffffffffffffffffffffffffffffffffffff1660405161057b919061302a565b60405180910390a1600160009054906101000a900473ffffffffffffffffffffffffffffffffffffffff1673ffffffffffffffffffffffffffffffffffffffff166342966c68826040518263ffffffff1660e01b81526004016105de9190613175565b600060405180830381600087803b1580156105f857600080fd5b505af115801561060c573d6000803e3d6000fd5b5050505050565b60008054906101000a900473ffffffffffffffffffffffffffffffffffffffff1673ffffffffffffffffffffffffffffffffffffffff163373ffffffffffffffffffffffffffffffffffffffff16146106a1576040517f08c379a000000000000000000000000000000000000000000000000000000000815260040161069890613135565b60405180910390fd5b7f2d5a82cbc34270500c60b0532ca36cd4716c295bf0351b25835351664a3125bf60008054906101000a900473ffffffffffffffffffffffffffffffffffffffff166040516106f0919061302a565b60405180910390a1600073ffffffffffffffffffffffffffffffffffffffff16600160009054906101000a900473ffffffffffffffffffffffffffffffffffffffff1673ffffffffffffffffffffffffffffffffffffffff1614156040518060400160405280600481526020017f3035303200000000000000000000000000000000000000000000000000000000815250906107c2576040517f08c379a00000000000000000000000000000000000000000000000000000000081526004016107b991906130d3565b60405180910390fd5b50600160009054906101000a900473ffffffffffffffffffffffffffffffffffffffff1673ffffffffffffffffffffffffffffffffffffffff1663f2fde38b60008054906101000a900473ffffffffffffffffffffffffffffffffffffffff166040518263ffffffff1660e01b815260040161083e9190612f81565b600060405180830381600087803b15801561085857600080fd5b505af115801561086c573d6000803e3d6000fd5b50505050565b600060159054906101000a900460ff168061089a5750600060149054906101000a900460ff16155b6108d9576040517f08c379a00000000000000000000000000000000000000000000000000000000081526004016108d090613115565b60405180910390fd5b60008060159054906101000a900460ff16159050801561092a576001600060156101000a81548160ff0219169083151502179055506001600060146101000a81548160ff0219169083151502179055505b610932612a26565b80156109535760008060156101000a81548160ff0219169083151502179055505b50565b60008054906101000a900473ffffffffffffffffffffffffffffffffffffffff1673ffffffffffffffffffffffffffffffffffffffff163373ffffffffffffffffffffffffffffffffffffffff16146109e4576040517f08c379a00000000000000000000000000000000000000000000000000000000081526004016109db90613135565b60405180910390fd5b7f2d5a82cbc34270500c60b0532ca36cd4716c295bf0351b25835351664a3125bf60008054906101000a900473ffffffffffffffffffffffffffffffffffffffff16604051610a33919061302a565b60405180910390a1600073ffffffffffffffffffffffffffffffffffffffff168273ffffffffffffffffffffffffffffffffffffffff1614158015610aa457503073ffffffffffffffffffffffffffffffffffffffff168273ffffffffffffffffffffffffffffffffffffffff1614155b610aad57600080fd5b8060055410156040518060400160405280600481526020017f303531300000000000000000000000000000000000000000000000000000000081525090610b2a576040517f08c379a0000000000000000000000000000000000000000000000000000000008152600401610b2191906130d3565b60405180910390fd5b50600081118015610b3b5750478111155b6040518060400160405280600481526020017f303530360000000000000000000000000000000000000000000000000000000081525090610bb2576040517f08c379a0000000000000000000000000000000000000000000000000000000008152600401610ba991906130d3565b60405180910390fd5b504760055414610c9e57600060058190555060008054906101000a900473ffffffffffffffffffffffffffffffffffffffff1673ffffffffffffffffffffffffffffffffffffffff166108fc479081150290604051600060405180830381858888f19350505050158015610c2a573d6000803e3d6000fd5b5060008054906101000a900473ffffffffffffffffffffffffffffffffffffffff1673ffffffffffffffffffffffffffffffffffffffff167f6dfc6e5b54e9b8b518c0d73fe237bd1a47d57856827cbf13853bee71425c6a9082604051610c919190613175565b60405180910390a2610d4d565b8060056000828254610cb091906132c1565b925050819055508173ffffffffffffffffffffffffffffffffffffffff166108fc829081150290604051600060405180830381858888f19350505050158015610cfd573d6000803e3d6000fd5b508173ffffffffffffffffffffffffffffffffffffffff167f510ffb4dcab972ae9d2007a58e13f1b0881776d23cd8f5cc32f8c5be2dbf70d282604051610d449190613175565b60405180910390a25b5050565b6040518060400160405280600481526020017f303130320000000000000000000000000000000000000000000000000000000081525081565b60008060009054906101000a900473ffffffffffffffffffffffffffffffffffffffff16905090565b60008054906101000a900473ffffffffffffffffffffffffffffffffffffffff1681565b600160009054906101000a900473ffffffffffffffffffffffffffffffffffffffff1681565b60008054906101000a900473ffffffffffffffffffffffffffffffffffffffff1673ffffffffffffffffffffffffffffffffffffffff163373ffffffffffffffffffffffffffffffffffffffff1614610e8b576040517f08c379a0000000000000000000000000000000000000000000000000000000008152600401610e8290613135565b60405180910390fd5b7f2d5a82cbc34270500c60b0532ca36cd4716c295bf0351b25835351664a3125bf60008054906101000a900473ffffffffffffffffffffffffffffffffffffffff16604051610eda919061302a565b60405180910390a1600073ffffffffffffffffffffffffffffffffffffffff168173ffffffffffffffffffffffffffffffffffffffff1614158015610f4b57503073ffffffffffffffffffffffffffffffffffffffff168173ffffffffffffffffffffffffffffffffffffffff1614155b6040518060400160405280600481526020017f303530310000000000000000000000000000000000000000000000000000000081525090610fc2576040517f08c379a0000000000000000000000000000000000000000000000000000000008152600401610fb991906130d3565b60405180910390fd5b508073ffffffffffffffffffffffffffffffffffffffff16600160009054906101000a900473ffffffffffffffffffffffffffffffffffffffff1673ffffffffffffffffffffffffffffffffffffffff1614156040518060400160405280600481526020017f30353038000000000000000000000000000000000000000000000000000000008152509061108c576040517f08c379a000000000000000000000000000000000000000000000000000000000815260040161108391906130d3565b60405180910390fd5b5080600160006101000a81548173ffffffffffffffffffffffffffffffffffffffff021916908373ffffffffffffffffffffffffffffffffffffffff16021790555050565b6000600554905090565b60006002600083815260200190815260200160002054116040518060400160405280600481526020017f303531330000000000000000000000000000000000000000000000000000000081525090611169576040517f08c379a000000000000000000000000000000000000000000000000000000000815260040161116091906130d3565b60405180910390fd5b5060026000828152602001908152602001600020543410156040518060400160405280600481526020017f3035303600000000000000000000000000000000000000000000000000000000815250906111f8576040517f08c379a00000000000000000000000000000000000000000000000000000000081526004016111ef91906130d3565b60405180910390fd5b50600073ffffffffffffffffffffffffffffffffffffffff16611219612abf565b73ffffffffffffffffffffffffffffffffffffffff161415801561127057503073ffffffffffffffffffffffffffffffffffffffff16611257612abf565b73ffffffffffffffffffffffffffffffffffffffff1614155b61127957600080fd5b600660009054906101000a900460ff16156040518060400160405280600481526020017f303531340000000000000000000000000000000000000000000000000000000081525090611301576040517f08c379a00000000000000000000000000000000000000000000000000000000081526004016112f891906130d3565b60405180910390fd5b506001600660006101000a81548160ff02191690831515021790555060006003600083815260200190815260200160002060009054906101000a900473ffffffffffffffffffffffffffffffffffffffff16905060006101f49050346005600082825461136e91906131e0565b92505081905550600160009054906101000a900473ffffffffffffffffffffffffffffffffffffffff1673ffffffffffffffffffffffffffffffffffffffff16633c173a4f858585856040518563ffffffff1660e01b81526004016113d69493929190613058565b600060405180830381600087803b1580156113f057600080fd5b505af1158015611404573d6000803e3d6000fd5b505050506000600660006101000a81548160ff02191690831515021790555050505050565b6004600082815260200190815260200160002060009054906101000a900460ff166040518060400160405280600481526020017f3035303500000000000000000000000000000000000000000000000000000000815250906114c1576040517f08c379a00000000000000000000000000000000000000000000000000000000081526004016114b891906130d3565b60405180910390fd5b50600073ffffffffffffffffffffffffffffffffffffffff166114e2612abf565b73ffffffffffffffffffffffffffffffffffffffff161415801561153957503073ffffffffffffffffffffffffffffffffffffffff16611520612abf565b73ffffffffffffffffffffffffffffffffffffffff1614155b61154257600080fd5b60006002600083815260200190815260200160002054116040518060400160405280600481526020017f3035313300000000000000000000000000000000000000000000000000000000815250906115d0576040517f08c379a00000000000000000000000000000000000000000000000000000000081526004016115c791906130d3565b60405180910390fd5b5060026000828152602001908152602001600020543410156115f157600080fd5b600073ffffffffffffffffffffffffffffffffffffffff16600160009054906101000a900473ffffffffffffffffffffffffffffffffffffffff1673ffffffffffffffffffffffffffffffffffffffff16636352211e836040518263ffffffff1660e01b81526004016116649190613175565b60206040518083038186803b15801561167c57600080fd5b505afa158015611690573d6000803e3d6000fd5b505050506040513d601f19601f820116820180604052508101906116b49190612b6e565b73ffffffffffffffffffffffffffffffffffffffff1614156040518060400160405280600481526020017f303530340000000000000000000000000000000000000000000000000000000081525090611743576040517f08c379a000000000000000000000000000000000000000000000000000000000815260040161173a91906130d3565b60405180910390fd5b506000600160009054906101000a900473ffffffffffffffffffffffffffffffffffffffff1673ffffffffffffffffffffffffffffffffffffffff16636352211e836040518263ffffffff1660e01b81526004016117a19190613175565b60206040518083038186803b1580156117b957600080fd5b505afa1580156117cd573d6000803e3d6000fd5b505050506040513d601f19601f820116820180604052508101906117f19190612b6e565b90503073ffffffffffffffffffffffffffffffffffffffff16600160009054906101000a900473ffffffffffffffffffffffffffffffffffffffff1673ffffffffffffffffffffffffffffffffffffffff1663081812fc846040518263ffffffff1660e01b81526004016118659190613175565b60206040518083038186803b15801561187d57600080fd5b505afa158015611891573d6000803e3d6000fd5b505050506040513d601f19601f820116820180604052508101906118b59190612b6e565b73ffffffffffffffffffffffffffffffffffffffff1614806119805750600160009054906101000a900473ffffffffffffffffffffffffffffffffffffffff1673ffffffffffffffffffffffffffffffffffffffff1663e985e9c582306040518363ffffffff1660e01b815260040161192f929190612f9c565b60206040518083038186803b15801561194757600080fd5b505afa15801561195b573d6000803e3d6000fd5b505050506040513d601f19601f8201168201806040525081019061197f9190612c0f565b5b6040518060400160405280600481526020017f3035303300000000000000000000000000000000000000000000000000000000815250906119f7576040517f08c379a00000000000000000000000000000000000000000000000000000000081526004016119ee91906130d3565b60405180910390fd5b5060006004600084815260200190815260200160002060006101000a81548160ff021916908315150217905550600060086103e834611a369190613236565b611a409190613267565b90508060056000828254611a5491906131e0565b9250508190555060008134611a6991906132c1565b9050600080600160009054906101000a900473ffffffffffffffffffffffffffffffffffffffff1673ffffffffffffffffffffffffffffffffffffffff16632a55205a87856040518363ffffffff1660e01b8152600401611acb929190613190565b604080518083038186803b158015611ae257600080fd5b505afa158015611af6573d6000803e3d6000fd5b505050506040513d601f19601f82011682018060405250810190611b1a9190612bd3565b9150915060008184611b2c91906132c1565b905060008673ffffffffffffffffffffffffffffffffffffffff16826201d4c090604051611b5990612f6c565b600060405180830381858888f193505050503d8060008114611b97576040519150601f19603f3d011682016040523d82523d6000602084013e611b9c565b606091505b5050905080611be0576040517f08c379a0000000000000000000000000000000000000000000000000000000008152600401611bd790613155565b60405180910390fd5b60008473ffffffffffffffffffffffffffffffffffffffff16846201d4c090604051611c0b90612f6c565b600060405180830381858888f193505050503d8060008114611c49576040519150601f19603f3d011682016040523d82523d6000602084013e611c4e565b606091505b5050905080611c92576040517f08c379a0000000000000000000000000000000000000000000000000000000008152600401611c89906130f5565b60405180910390fd5b600160009054906101000a900473ffffffffffffffffffffffffffffffffffffffff1673ffffffffffffffffffffffffffffffffffffffff166342842e0e89611cd9612abf565b8c6040518463ffffffff1660e01b8152600401611cf893929190612fc5565b600060405180830381600087803b158015611d1257600080fd5b505af1158015611d26573d6000803e3d6000fd5b505050508773ffffffffffffffffffffffffffffffffffffffff167f510ffb4dcab972ae9d2007a58e13f1b0881776d23cd8f5cc32f8c5be2dbf70d284604051611d709190613175565b60405180910390a28473ffffffffffffffffffffffffffffffffffffffff167fbc86de696edc3350c664d50abf25f24e7e1251f1469ad925b25fe36927270d4385604051611dbe9190613175565b60405180910390a2505050505050505050565b600060026000838152602001908152602001600020549050919050565b60008054906101000a900473ffffffffffffffffffffffffffffffffffffffff1673ffffffffffffffffffffffffffffffffffffffff163373ffffffffffffffffffffffffffffffffffffffff1614611e7c576040517f08c379a0000000000000000000000000000000000000000000000000000000008152600401611e7390613135565b60405180910390fd5b7f2d5a82cbc34270500c60b0532ca36cd4716c295bf0351b25835351664a3125bf60008054906101000a900473ffffffffffffffffffffffffffffffffffffffff16604051611ecb919061302a565b60405180910390a16000600660006101000a81548160ff021916908315150217905550565b6000600160009054906101000a900473ffffffffffffffffffffffffffffffffffffffff1673ffffffffffffffffffffffffffffffffffffffff16636352211e846040518263ffffffff1660e01b8152600401611f4d9190613175565b60206040518083038186803b158015611f6557600080fd5b505afa925050508015611f9657506040513d601f19601f82011682018060405250810190611f939190612b6e565b60015b611fa35760009050612122565b611fab612abf565b73ffffffffffffffffffffffffffffffffffffffff168173ffffffffffffffffffffffffffffffffffffffff16146040518060400160405280600481526020017f303530390000000000000000000000000000000000000000000000000000000081525090612050576040517f08c379a000000000000000000000000000000000000000000000000000000000815260040161204791906130d3565b60405180910390fd5b50506004600084815260200190815260200160002060009054906101000a900460ff16151582151514156040518060400160405280600481526020017f3035303800000000000000000000000000000000000000000000000000000000815250906120f1576040517f08c379a00000000000000000000000000000000000000000000000000000000081526004016120e891906130d3565b60405180910390fd5b50816004600085815260200190815260200160002060006101000a81548160ff021916908315150217905550600190505b92915050565b60008054906101000a900473ffffffffffffffffffffffffffffffffffffffff1673ffffffffffffffffffffffffffffffffffffffff163373ffffffffffffffffffffffffffffffffffffffff16146121b6576040517f08c379a00000000000000000000000000000000000000000000000000000000081526004016121ad90613135565b60405180910390fd5b7f2d5a82cbc34270500c60b0532ca36cd4716c295bf0351b25835351664a3125bf60008054906101000a900473ffffffffffffffffffffffffffffffffffffffff16604051612205919061302a565b60405180910390a1600073ffffffffffffffffffffffffffffffffffffffff168173ffffffffffffffffffffffffffffffffffffffff1614156040518060400160405280600481526020017f3031303200000000000000000000000000000000000000000000000000000000815250906122b5576040517f08c379a00000000000000000000000000000000000000000000000000000000081526004016122ac91906130d3565b60405180910390fd5b508073ffffffffffffffffffffffffffffffffffffffff1660008054906101000a900473ffffffffffffffffffffffffffffffffffffffff1673ffffffffffffffffffffffffffffffffffffffff167f8be0079c531659141344cd1fd0a4f28419497f9722a3daafe3b4186f6b6457e060405160405180910390a3806000806101000a81548173ffffffffffffffffffffffffffffffffffffffff021916908373ffffffffffffffffffffffffffffffffffffffff16021790555050565b6040518060400160405280600481526020017f303130310000000000000000000000000000000000000000000000000000000081525081565b600082116040518060400160405280600481526020017f303530370000000000000000000000000000000000000000000000000000000081525090612427576040517f08c379a000000000000000000000000000000000000000000000000000000000815260040161241e91906130d3565b60405180910390fd5b5060026000828152602001908152602001600020548214156040518060400160405280600481526020017f3035303800000000000000000000000000000000000000000000000000000000815250906124b6576040517f08c379a00000000000000000000000000000000000000000000000000000000081526004016124ad91906130d3565b60405180910390fd5b506000600160009054906101000a900473ffffffffffffffffffffffffffffffffffffffff1673ffffffffffffffffffffffffffffffffffffffff16636352211e836040518263ffffffff1660e01b81526004016125149190613175565b60206040518083038186803b15801561252c57600080fd5b505afa158015612540573d6000803e3d6000fd5b505050506040513d601f19601f820116820180604052508101906125649190612b6e565b905061256e612abf565b73ffffffffffffffffffffffffffffffffffffffff168173ffffffffffffffffffffffffffffffffffffffff16146125a557600080fd5b826002600084815260200190815260200160002081905550505050565b60008054906101000a900473ffffffffffffffffffffffffffffffffffffffff1673ffffffffffffffffffffffffffffffffffffffff163373ffffffffffffffffffffffffffffffffffffffff1614612650576040517f08c379a000000000000000000000000000000000000000000000000000000000815260040161264790613135565b60405180910390fd5b7f2d5a82cbc34270500c60b0532ca36cd4716c295bf0351b25835351664a3125bf60008054906101000a900473ffffffffffffffffffffffffffffffffffffffff1660405161269f919061302a565b60405180910390a1600083116040518060400160405280600481526020017f303530370000000000000000000000000000000000000000000000000000000081525090612722576040517f08c379a000000000000000000000000000000000000000000000000000000000815260040161271991906130d3565b60405180910390fd5b5060026000838152602001908152602001600020548314156040518060400160405280600481526020017f3035303800000000000000000000000000000000000000000000000000000000815250906127b1576040517f08c379a00000000000000000000000000000000000000000000000000000000081526004016127a891906130d3565b60405180910390fd5b50600073ffffffffffffffffffffffffffffffffffffffff168173ffffffffffffffffffffffffffffffffffffffff161415801561281b57503073ffffffffffffffffffffffffffffffffffffffff168173ffffffffffffffffffffffffffffffffffffffff1614155b6040518060400160405280600481526020017f303530310000000000000000000000000000000000000000000000000000000081525090612892576040517f08c379a000000000000000000000000000000000000000000000000000000000815260040161288991906130d3565b60405180910390fd5b50600160009054906101000a900473ffffffffffffffffffffffffffffffffffffffff1673ffffffffffffffffffffffffffffffffffffffff16634f558e79836040518263ffffffff1660e01b81526004016128ee9190613175565b60206040518083038186803b15801561290657600080fd5b505afa15801561291a573d6000803e3d6000fd5b505050506040513d601f19601f8201168201806040525081019061293e9190612c0f565b156040518060400160405280600481526020017f3035313200000000000000000000000000000000000000000000000000000000815250906129b6576040517f08c379a00000000000000000000000000000000000000000000000000000000081526004016129ad91906130d3565b60405180910390fd5b50826002600084815260200190815260200160002081905550806003600084815260200190815260200160002060006101000a81548173ffffffffffffffffffffffffffffffffffffffff021916908373ffffffffffffffffffffffffffffffffffffffff160217905550505050565b336000806101000a81548173ffffffffffffffffffffffffffffffffffffffff021916908373ffffffffffffffffffffffffffffffffffffffff1602179055507f2d5a82cbc34270500c60b0532ca36cd4716c295bf0351b25835351664a3125bf60008054906101000a900473ffffffffffffffffffffffffffffffffffffffff16604051612ab59190612ffc565b60405180910390a1565b600033905090565b600081359050612ad681613439565b92915050565b600081519050612aeb81613439565b92915050565b600081359050612b0081613450565b92915050565b600081519050612b1581613450565b92915050565b600081359050612b2a81613467565b92915050565b600081519050612b3f81613467565b92915050565b600060208284031215612b5757600080fd5b6000612b6584828501612ac7565b91505092915050565b600060208284031215612b8057600080fd5b6000612b8e84828501612adc565b91505092915050565b60008060408385031215612baa57600080fd5b6000612bb885828601612ac7565b9250506020612bc985828601612b1b565b9150509250929050565b60008060408385031215612be657600080fd5b6000612bf485828601612adc565b9250506020612c0585828601612b30565b9150509250929050565b600060208284031215612c2157600080fd5b6000612c2f84828501612b06565b91505092915050565b600060208284031215612c4a57600080fd5b6000612c5884828501612b1b565b91505092915050565b60008060408385031215612c7457600080fd5b6000612c8285828601612b1b565b9250506020612c9385828601612af1565b9150509250929050565b60008060408385031215612cb057600080fd5b6000612cbe85828601612b1b565b9250506020612ccf85828601612b1b565b9150509250929050565b600080600060608486031215612cee57600080fd5b6000612cfc86828701612b1b565b9350506020612d0d86828701612b1b565b9250506040612d1e86828701612ac7565b9150509250925092565b612d318161333d565b82525050565b612d40816132f5565b82525050565b612d4f81613307565b82525050565b612d5e8161334f565b82525050565b6000612d6f826131b9565b612d7981856131cf565b9350612d89818560208601613397565b612d9281613428565b840191505092915050565b6000612daa6017836131cf565b91507f506179696e6720526f79616c74696573206661696c65640000000000000000006000830152602082019050919050565b6000612dea602e836131cf565b91507f496e697469616c697a61626c653a20636f6e747261637420697320616c72656160008301527f647920696e697469616c697a65640000000000000000000000000000000000006020830152604082019050919050565b6000612e506009836131cf565b91507f736574206f776e657200000000000000000000000000000000000000000000006000830152602082019050919050565b6000612e906009836131cf565b91507f4e6f74206f776e657200000000000000000000000000000000000000000000006000830152602082019050919050565b6000612ed06014836131cf565b91507f506179696e672073656c6c6572206661696c65640000000000000000000000006000830152602082019050919050565b6000612f106000836131c4565b9150600082019050919050565b6000612f2a601c836131cf565b91507f706173736564206f776e65727368697020726571756972656d656e74000000006000830152602082019050919050565b612f6681613333565b82525050565b6000612f7782612f03565b9150819050919050565b6000602082019050612f966000830184612d37565b92915050565b6000604082019050612fb16000830185612d37565b612fbe6020830184612d37565b9392505050565b6000606082019050612fda6000830186612d37565b612fe76020830185612d28565b612ff46040830184612f5d565b949350505050565b60006040820190506130116000830184612d37565b818103602083015261302281612e43565b905092915050565b600060408201905061303f6000830184612d37565b818103602083015261305081612f1d565b905092915050565b600060808201905061306d6000830187612d37565b61307a6020830186612f5d565b6130876040830185612d37565b6130946060830184612f5d565b95945050505050565b60006020820190506130b26000830184612d46565b92915050565b60006020820190506130cd6000830184612d55565b92915050565b600060208201905081810360008301526130ed8184612d64565b905092915050565b6000602082019050818103600083015261310e81612d9d565b9050919050565b6000602082019050818103600083015261312e81612ddd565b9050919050565b6000602082019050818103600083015261314e81612e83565b9050919050565b6000602082019050818103600083015261316e81612ec3565b9050919050565b600060208201905061318a6000830184612f5d565b92915050565b60006040820190506131a56000830185612f5d565b6131b26020830184612f5d565b9392505050565b600081519050919050565b600081905092915050565b600082825260208201905092915050565b60006131eb82613333565b91506131f683613333565b9250827fffffffffffffffffffffffffffffffffffffffffffffffffffffffffffffffff0382111561322b5761322a6133ca565b5b828201905092915050565b600061324182613333565b915061324c83613333565b92508261325c5761325b6133f9565b5b828204905092915050565b600061327282613333565b915061327d83613333565b9250817fffffffffffffffffffffffffffffffffffffffffffffffffffffffffffffffff04831182151516156132b6576132b56133ca565b5b828202905092915050565b60006132cc82613333565b91506132d783613333565b9250828210156132ea576132e96133ca565b5b828203905092915050565b600061330082613313565b9050919050565b60008115159050919050565b600073ffffffffffffffffffffffffffffffffffffffff82169050919050565b6000819050919050565b600061334882613373565b9050919050565b600061335a82613361565b9050919050565b600061336c82613313565b9050919050565b600061337e82613385565b9050919050565b600061339082613313565b9050919050565b60005b838110156133b557808201518184015260208101905061339a565b838111156133c4576000848401525b50505050565b7f4e487b7100000000000000000000000000000000000000000000000000000000600052601160045260246000fd5b7f4e487b7100000000000000000000000000000000000000000000000000000000600052601260045260246000fd5b6000601f19601f8301169050919050565b613442816132f5565b811461344d57600080fd5b50565b61345981613307565b811461346457600080fd5b50565b61347081613333565b811461347b57600080fd5b5056fea2646970667358221220eb273b11fe415aba869c813610aa2ab393c0b3f44fa960025d6dae40d456c44464736f6c63430008000033",
  "linkReferences": {},
  "deployedLinkReferences": {}
}