{
  "_format": "hh-sol-artifact-1",
  "contractName": "NoMoreWarOnDrugs",
  "sourceName": "contracts/NoMoreWarOnDrugs.sol",
  "abi": [
    {
      "inputs": [
        {
          "internalType": "string",
          "name": "_name",
          "type": "string"
        },
        {
          "internalType": "string",
          "name": "_symbol",
          "type": "string"
        }
      ],
      "stateMutability": "nonpayable",
      "type": "constructor"
    },
    {
      "anonymous": false,
      "inputs": [
        {
          "indexed": true,
          "internalType": "address",
          "name": "_owner",
          "type": "address"
        },
        {
          "indexed": true,
          "internalType": "address",
          "name": "_approved",
          "type": "address"
        },
        {
          "indexed": true,
          "internalType": "uint256",
          "name": "_tokenId",
          "type": "uint256"
        }
      ],
      "name": "Approval",
      "type": "event"
    },
    {
      "anonymous": false,
      "inputs": [
        {
          "indexed": true,
          "internalType": "address",
          "name": "_owner",
          "type": "address"
        },
        {
          "indexed": true,
          "internalType": "address",
          "name": "_operator",
          "type": "address"
        },
        {
          "indexed": false,
          "internalType": "bool",
          "name": "_approved",
          "type": "bool"
        }
      ],
      "name": "ApprovalForAll",
      "type": "event"
    },
    {
      "anonymous": false,
      "inputs": [
        {
          "indexed": true,
          "internalType": "address",
          "name": "_from",
          "type": "address"
        },
        {
          "indexed": true,
          "internalType": "address",
          "name": "_to",
          "type": "address"
        },
        {
          "indexed": true,
          "internalType": "uint256",
          "name": "_tokenId",
          "type": "uint256"
        }
      ],
      "name": "Transfer",
      "type": "event"
    },
    {
      "anonymous": false,
      "inputs": [
        {
          "indexed": false,
          "internalType": "address",
          "name": "deliveredTo",
          "type": "address"
        },
        {
          "indexed": false,
          "internalType": "string",
          "name": "msg",
          "type": "string"
        }
      ],
      "name": "_msg",
      "type": "event"
    },
    {
      "inputs": [
        {
          "internalType": "address",
          "name": "_to",
          "type": "address"
        },
        {
          "internalType": "uint256",
          "name": "_tokenId",
          "type": "uint256"
        }
      ],
      "name": "addNFToken",
      "outputs": [],
      "stateMutability": "nonpayable",
      "type": "function"
    },
    {
      "inputs": [
        {
          "internalType": "address",
          "name": "_approved",
          "type": "address"
        },
        {
          "internalType": "uint256",
          "name": "_tokenId",
          "type": "uint256"
        }
      ],
      "name": "approve",
      "outputs": [],
      "stateMutability": "nonpayable",
      "type": "function"
    },
    {
      "inputs": [
        {
          "internalType": "address",
          "name": "_owner",
          "type": "address"
        }
      ],
      "name": "balanceOf",
      "outputs": [
        {
          "internalType": "uint256",
          "name": "",
          "type": "uint256"
        }
      ],
      "stateMutability": "view",
      "type": "function"
    },
    {
      "inputs": [
        {
          "internalType": "uint256",
          "name": "_tokenId",
          "type": "uint256"
        }
      ],
      "name": "burn",
      "outputs": [],
      "stateMutability": "nonpayable",
      "type": "function"
    },
    {
      "inputs": [
        {
          "internalType": "uint256",
          "name": "_tokenId",
          "type": "uint256"
        }
      ],
      "name": "getApproved",
      "outputs": [
        {
          "internalType": "address",
          "name": "",
          "type": "address"
        }
      ],
      "stateMutability": "view",
      "type": "function"
    },
    {
      "inputs": [
        {
          "internalType": "address",
          "name": "_owner",
          "type": "address"
        }
      ],
      "name": "getOwnerNFTCount",
      "outputs": [
        {
          "internalType": "uint256",
          "name": "",
          "type": "uint256"
        }
      ],
      "stateMutability": "view",
      "type": "function"
    },
    {
      "inputs": [
        {
          "internalType": "address",
          "name": "_owner",
          "type": "address"
        },
        {
          "internalType": "address",
          "name": "_operator",
          "type": "address"
        }
      ],
      "name": "isApprovedForAll",
      "outputs": [
        {
          "internalType": "bool",
          "name": "",
          "type": "bool"
        }
      ],
      "stateMutability": "view",
      "type": "function"
    },
    {
      "inputs": [
        {
          "internalType": "address",
          "name": "_to",
          "type": "address"
        },
        {
          "internalType": "uint256",
          "name": "_tokenId",
          "type": "uint256"
        },
        {
          "internalType": "string",
          "name": "_uri",
          "type": "string"
        },
        {
          "internalType": "string",
          "name": "_alias",
          "type": "string"
        },
        {
          "internalType": "string",
          "name": "_msg",
          "type": "string"
        }
      ],
      "name": "mint",
      "outputs": [],
      "stateMutability": "nonpayable",
      "type": "function"
    },
    {
      "inputs": [],
      "name": "name",
      "outputs": [
        {
          "internalType": "string",
          "name": "_name",
          "type": "string"
        }
      ],
      "stateMutability": "view",
      "type": "function"
    },
    {
      "inputs": [],
      "name": "owner",
      "outputs": [
        {
          "internalType": "address",
          "name": "",
          "type": "address"
        }
      ],
      "stateMutability": "view",
      "type": "function"
    },
    {
      "inputs": [
        {
          "internalType": "uint256",
          "name": "_tokenId",
          "type": "uint256"
        }
      ],
      "name": "ownerOf",
      "outputs": [
        {
          "internalType": "address",
          "name": "_owner",
          "type": "address"
        }
      ],
      "stateMutability": "view",
      "type": "function"
    },
    {
      "inputs": [
        {
          "internalType": "address",
          "name": "_from",
          "type": "address"
        },
        {
          "internalType": "uint256",
          "name": "_tokenId",
          "type": "uint256"
        }
      ],
      "name": "removeNFToken",
      "outputs": [],
      "stateMutability": "nonpayable",
      "type": "function"
    },
    {
      "inputs": [
        {
          "internalType": "address",
          "name": "_from",
          "type": "address"
        },
        {
          "internalType": "address",
          "name": "_to",
          "type": "address"
        },
        {
          "internalType": "uint256",
          "name": "_tokenId",
          "type": "uint256"
        }
      ],
      "name": "safeTransferFrom",
      "outputs": [],
      "stateMutability": "nonpayable",
      "type": "function"
    },
    {
      "inputs": [
        {
          "internalType": "address",
          "name": "_from",
          "type": "address"
        },
        {
          "internalType": "address",
          "name": "_to",
          "type": "address"
        },
        {
          "internalType": "uint256",
          "name": "_tokenId",
          "type": "uint256"
        },
        {
          "internalType": "bytes",
          "name": "_data",
          "type": "bytes"
        }
      ],
      "name": "safeTransferFrom",
      "outputs": [],
      "stateMutability": "nonpayable",
      "type": "function"
    },
    {
      "inputs": [
        {
          "internalType": "address",
          "name": "_operator",
          "type": "address"
        },
        {
          "internalType": "bool",
          "name": "_approved",
          "type": "bool"
        }
      ],
      "name": "setApprovalForAll",
      "outputs": [],
      "stateMutability": "nonpayable",
      "type": "function"
    },
    {
      "inputs": [
        {
          "internalType": "bytes4",
          "name": "_interfaceID",
          "type": "bytes4"
        }
      ],
      "name": "supportsInterface",
      "outputs": [
        {
          "internalType": "bool",
          "name": "",
          "type": "bool"
        }
      ],
      "stateMutability": "view",
      "type": "function"
    },
    {
      "inputs": [],
      "name": "symbol",
      "outputs": [
        {
          "internalType": "string",
          "name": "_symbol",
          "type": "string"
        }
      ],
      "stateMutability": "view",
      "type": "function"
    },
    {
      "inputs": [
        {
          "internalType": "uint256",
          "name": "_index",
          "type": "uint256"
        }
      ],
      "name": "tokenByIndex",
      "outputs": [
        {
          "internalType": "uint256",
          "name": "",
          "type": "uint256"
        }
      ],
      "stateMutability": "view",
      "type": "function"
    },
    {
      "inputs": [
        {
          "internalType": "uint256",
          "name": "_tokenId",
          "type": "uint256"
        }
      ],
      "name": "tokenMessage",
      "outputs": [
        {
          "internalType": "string",
          "name": "",
          "type": "string"
        }
      ],
      "stateMutability": "view",
      "type": "function"
    },
    {
      "inputs": [
        {
          "internalType": "address",
          "name": "_owner",
          "type": "address"
        },
        {
          "internalType": "uint256",
          "name": "_index",
          "type": "uint256"
        }
      ],
      "name": "tokenOfOwnerByIndex",
      "outputs": [
        {
          "internalType": "uint256",
          "name": "",
          "type": "uint256"
        }
      ],
      "stateMutability": "view",
      "type": "function"
    },
    {
      "inputs": [
        {
          "internalType": "uint256",
          "name": "_tokenId",
          "type": "uint256"
        }
      ],
      "name": "tokenOwnerAlias",
      "outputs": [
        {
          "internalType": "string",
          "name": "",
          "type": "string"
        }
      ],
      "stateMutability": "view",
      "type": "function"
    },
    {
      "inputs": [
        {
          "internalType": "uint256",
          "name": "_tokenId",
          "type": "uint256"
        }
      ],
      "name": "tokenURI",
      "outputs": [
        {
          "internalType": "string",
          "name": "",
          "type": "string"
        }
      ],
      "stateMutability": "view",
      "type": "function"
    },
    {
      "inputs": [],
      "name": "totalSupply",
      "outputs": [
        {
          "internalType": "uint256",
          "name": "",
          "type": "uint256"
        }
      ],
      "stateMutability": "view",
      "type": "function"
    },
    {
      "inputs": [
        {
          "internalType": "address",
          "name": "_from",
          "type": "address"
        },
        {
          "internalType": "address",
          "name": "_to",
          "type": "address"
        },
        {
          "internalType": "uint256",
          "name": "_tokenId",
          "type": "uint256"
        }
      ],
      "name": "transferFrom",
      "outputs": [],
      "stateMutability": "nonpayable",
      "type": "function"
    }
  ],
  "bytecode": "0x60806040523480156200001157600080fd5b506040516200421838038062004218833981810160405281019062000037919062000385565b60016000806301ffc9a760e01b7bffffffffffffffffffffffffffffffffffffffffffffffffffffffff1916815260200190815260200160002060006101000a81548160ff02191690831515021790555060016000806380ac58cd60e01b7bffffffffffffffffffffffffffffffffffffffffffffffffffffffff1916815260200190815260200160002060006101000a81548160ff021916908315150217905550600160008063780e9d6360e01b7bffffffffffffffffffffffffffffffffffffffffffffffffffffffff1916815260200190815260200160002060006101000a81548160ff0219169083151502179055506001600080635b5e139f60e01b7bffffffffffffffffffffffffffffffffffffffffffffffffffffffff1916815260200190815260200160002060006101000a81548160ff0219169083151502179055506200018b620001c560201b60201c565b8160099080519060200190620001a392919062000263565b5080600a9080519060200190620001bc92919062000263565b505050620005f3565b33600c60006101000a81548173ffffffffffffffffffffffffffffffffffffffff021916908373ffffffffffffffffffffffffffffffffffffffff1602179055507f2d5a82cbc34270500c60b0532ca36cd4716c295bf0351b25835351664a3125bf600c60009054906101000a900473ffffffffffffffffffffffffffffffffffffffff166040516200025991906200044b565b60405180910390a1565b82805462000271906200055f565b90600052602060002090601f016020900481019282620002955760008555620002e1565b82601f10620002b057805160ff1916838001178555620002e1565b82800160010185558215620002e1579182015b82811115620002e0578251825591602001919060010190620002c3565b5b509050620002f09190620002f4565b5090565b5b808211156200030f576000816000905550600101620002f5565b5090565b60006200032a6200032484620004b1565b6200047d565b9050828152602081018484840111156200034357600080fd5b6200035084828562000529565b509392505050565b600082601f8301126200036a57600080fd5b81516200037c84826020860162000313565b91505092915050565b600080604083850312156200039957600080fd5b600083015167ffffffffffffffff811115620003b457600080fd5b620003c28582860162000358565b925050602083015167ffffffffffffffff811115620003e057600080fd5b620003ee8582860162000358565b9150509250929050565b6200040381620004f5565b82525050565b600062000418600983620004e4565b91507f736574206f776e657200000000000000000000000000000000000000000000006000830152602082019050919050565b6000604082019050620004626000830184620003f8565b8181036020830152620004758162000409565b905092915050565b6000604051905081810181811067ffffffffffffffff82111715620004a757620004a6620005c4565b5b8060405250919050565b600067ffffffffffffffff821115620004cf57620004ce620005c4565b5b601f19601f8301169050602081019050919050565b600082825260208201905092915050565b6000620005028262000509565b9050919050565b600073ffffffffffffffffffffffffffffffffffffffff82169050919050565b60005b83811015620005495780820151818401526020810190506200052c565b8381111562000559576000848401525b50505050565b600060028204905060018216806200057857607f821691505b602082108114156200058f576200058e62000595565b5b50919050565b7f4e487b7100000000000000000000000000000000000000000000000000000000600052602260045260246000fd5b7f4e487b7100000000000000000000000000000000000000000000000000000000600052604160045260246000fd5b613c1580620006036000396000f3fe608060405234801561001057600080fd5b50600436106101585760003560e01c80638423ce61116100c3578063b35cc1861161007c578063b35cc186146103e9578063b88d4fde14610405578063bd7f4c8d14610421578063c87b56dd14610451578063e4b7baeb14610481578063e985e9c5146104b157610158565b80638423ce61146103295780638da5cb5b146103595780638f8470761461037757806395d89b41146103935780639c01e1f5146103b1578063a22cb465146103cd57610158565b80632f745c59116101155780632f745c591461023157806342842e0e1461026157806342966c681461027d5780634f6ccce7146102995780636352211e146102c957806370a08231146102f957610158565b806301ffc9a71461015d57806306fdde031461018d578063081812fc146101ab578063095ea7b3146101db57806318160ddd146101f757806323b872dd14610215575b600080fd5b61017760048036038101906101729190613648565b6104e1565b6040516101849190613877565b60405180910390f35b610195610548565b6040516101a29190613892565b60405180910390f35b6101c560048036038101906101c0919061369a565b6105da565b6040516101d291906137e2565b60405180910390f35b6101f560048036038101906101f0919061354d565b6106f5565b005b6101ff610ad8565b60405161020c91906138d4565b60405180910390f35b61022f600480360381019061022a9190613442565b610ae5565b005b61024b6004803603810190610246919061354d565b610f37565b60405161025891906138d4565b60405180910390f35b61027b60048036038101906102769190613442565b611080565b005b6102976004803603810190610292919061369a565b6110a0565b005b6102b360048036038101906102ae919061369a565b611195565b6040516102c091906138d4565b60405180910390f35b6102e360048036038101906102de919061369a565b611263565b6040516102f091906137e2565b60405180910390f35b610313600480360381019061030e91906133dd565b611349565b60405161032091906138d4565b60405180910390f35b610343600480360381019061033e919061369a565b611403565b6040516103509190613892565b60405180910390f35b610361611586565b60405161036e91906137e2565b60405180910390f35b610391600480360381019061038c919061354d565b6115ac565b005b61039b6116a3565b6040516103a89190613892565b60405180910390f35b6103cb60048036038101906103c6919061354d565b611735565b005b6103e760048036038101906103e29190613511565b61182c565b005b61040360048036038101906103fe9190613589565b611929565b005b61041f600480360381019061041a9190613491565b611a9b565b005b61043b600480360381019061043691906133dd565b611af2565b60405161044891906138d4565b60405180910390f35b61046b6004803603810190610466919061369a565b611b04565b6040516104789190613892565b60405180910390f35b61049b6004803603810190610496919061369a565b611c87565b6040516104a89190613892565b60405180910390f35b6104cb60048036038101906104c69190613406565b611e0a565b6040516104d89190613877565b60405180910390f35b6000806000837bffffffffffffffffffffffffffffffffffffffffffffffffffffffff19167bffffffffffffffffffffffffffffffffffffffffffffffffffffffff1916815260200190815260200160002060009054906101000a900460ff169050919050565b60606009805461055790613ab3565b80601f016020809104026020016040519081016040528092919081815260200182805461058390613ab3565b80156105d05780601f106105a5576101008083540402835291602001916105d0565b820191906000526020600020905b8154815290600101906020018083116105b357829003601f168201915b5050505050905090565b600081600073ffffffffffffffffffffffffffffffffffffffff166001600083815260200190815260200160002060009054906101000a900473ffffffffffffffffffffffffffffffffffffffff1673ffffffffffffffffffffffffffffffffffffffff1614156040518060400160405280600681526020017f3030333030320000000000000000000000000000000000000000000000000000815250906106b8576040517f08c379a00000000000000000000000000000000000000000000000000000000081526004016106af9190613892565b60405180910390fd5b506002600084815260200190815260200160002060009054906101000a900473ffffffffffffffffffffffffffffffffffffffff16915050919050565b8060006001600083815260200190815260200160002060009054906101000a900473ffffffffffffffffffffffffffffffffffffffff1690503373ffffffffffffffffffffffffffffffffffffffff168173ffffffffffffffffffffffffffffffffffffffff1614806107ee5750600460008273ffffffffffffffffffffffffffffffffffffffff1673ffffffffffffffffffffffffffffffffffffffff16815260200190815260200160002060003373ffffffffffffffffffffffffffffffffffffffff1673ffffffffffffffffffffffffffffffffffffffff16815260200190815260200160002060009054906101000a900460ff165b6040518060400160405280600681526020017f303033303033000000000000000000000000000000000000000000000000000081525090610865576040517f08c379a000000000000000000000000000000000000000000000000000000000815260040161085c9190613892565b60405180910390fd5b5082600073ffffffffffffffffffffffffffffffffffffffff166001600083815260200190815260200160002060009054906101000a900473ffffffffffffffffffffffffffffffffffffffff1673ffffffffffffffffffffffffffffffffffffffff1614156040518060400160405280600681526020017f303033303032000000000000000000000000000000000000000000000000000081525090610942576040517f08c379a00000000000000000000000000000000000000000000000000000000081526004016109399190613892565b60405180910390fd5b5060006001600086815260200190815260200160002060009054906101000a900473ffffffffffffffffffffffffffffffffffffffff1690508073ffffffffffffffffffffffffffffffffffffffff168673ffffffffffffffffffffffffffffffffffffffff1614156040518060400160405280600681526020017f303033303038000000000000000000000000000000000000000000000000000081525090610a22576040517f08c379a0000000000000000000000000000000000000000000000000000000008152600401610a199190613892565b60405180910390fd5b50856002600087815260200190815260200160002060006101000a81548173ffffffffffffffffffffffffffffffffffffffff021916908373ffffffffffffffffffffffffffffffffffffffff160217905550848673ffffffffffffffffffffffffffffffffffffffff168273ffffffffffffffffffffffffffffffffffffffff167f8c5be1e5ebec7d5bd14f71427d1e84f3dd0314c0f7b2291e5b200ac8c7c3b92560405160405180910390a4505050505050565b6000600580549050905090565b8060006001600083815260200190815260200160002060009054906101000a900473ffffffffffffffffffffffffffffffffffffffff1690503373ffffffffffffffffffffffffffffffffffffffff168173ffffffffffffffffffffffffffffffffffffffff161480610bb657503373ffffffffffffffffffffffffffffffffffffffff166002600084815260200190815260200160002060009054906101000a900473ffffffffffffffffffffffffffffffffffffffff1673ffffffffffffffffffffffffffffffffffffffff16145b80610c475750600460008273ffffffffffffffffffffffffffffffffffffffff1673ffffffffffffffffffffffffffffffffffffffff16815260200190815260200160002060003373ffffffffffffffffffffffffffffffffffffffff1673ffffffffffffffffffffffffffffffffffffffff16815260200190815260200160002060009054906101000a900460ff165b6040518060400160405280600681526020017f303033303034000000000000000000000000000000000000000000000000000081525090610cbe576040517f08c379a0000000000000000000000000000000000000000000000000000000008152600401610cb59190613892565b60405180910390fd5b5082600073ffffffffffffffffffffffffffffffffffffffff166001600083815260200190815260200160002060009054906101000a900473ffffffffffffffffffffffffffffffffffffffff1673ffffffffffffffffffffffffffffffffffffffff1614156040518060400160405280600681526020017f303033303032000000000000000000000000000000000000000000000000000081525090610d9b576040517f08c379a0000000000000000000000000000000000000000000000000000000008152600401610d929190613892565b60405180910390fd5b5060006001600086815260200190815260200160002060009054906101000a900473ffffffffffffffffffffffffffffffffffffffff1690508673ffffffffffffffffffffffffffffffffffffffff168173ffffffffffffffffffffffffffffffffffffffff16146040518060400160405280600681526020017f303033303037000000000000000000000000000000000000000000000000000081525090610e7a576040517f08c379a0000000000000000000000000000000000000000000000000000000008152600401610e719190613892565b60405180910390fd5b50600073ffffffffffffffffffffffffffffffffffffffff168673ffffffffffffffffffffffffffffffffffffffff1614156040518060400160405280600681526020017f303033303031000000000000000000000000000000000000000000000000000081525090610f23576040517f08c379a0000000000000000000000000000000000000000000000000000000008152600401610f1a9190613892565b60405180910390fd5b50610f2e8686611e9e565b50505050505050565b6000600760008473ffffffffffffffffffffffffffffffffffffffff1673ffffffffffffffffffffffffffffffffffffffff1681526020019081526020016000208054905082106040518060400160405280600681526020017f303035303037000000000000000000000000000000000000000000000000000081525090610ff5576040517f08c379a0000000000000000000000000000000000000000000000000000000008152600401610fec9190613892565b60405180910390fd5b50600760008473ffffffffffffffffffffffffffffffffffffffff1673ffffffffffffffffffffffffffffffffffffffff168152602001908152602001600020828154811061106d577f4e487b7100000000000000000000000000000000000000000000000000000000600052603260045260246000fd5b9060005260206000200154905092915050565b61109b83838360405180602001604052806000815250611f53565b505050565b600c60009054906101000a900473ffffffffffffffffffffffffffffffffffffffff1673ffffffffffffffffffffffffffffffffffffffff163373ffffffffffffffffffffffffffffffffffffffff1614611130576040517f08c379a0000000000000000000000000000000000000000000000000000000008152600401611127906138b4565b60405180910390fd5b7f2d5a82cbc34270500c60b0532ca36cd4716c295bf0351b25835351664a3125bf600c60009054906101000a900473ffffffffffffffffffffffffffffffffffffffff166040516111819190613849565b60405180910390a161119281612521565b50565b600060058054905082106040518060400160405280600681526020017f303035303037000000000000000000000000000000000000000000000000000081525090611216576040517f08c379a000000000000000000000000000000000000000000000000000000000815260040161120d9190613892565b60405180910390fd5b5060058281548110611251577f4e487b7100000000000000000000000000000000000000000000000000000000600052603260045260246000fd5b90600052602060002001549050919050565b60006001600083815260200190815260200160002060009054906101000a900473ffffffffffffffffffffffffffffffffffffffff169050600073ffffffffffffffffffffffffffffffffffffffff168173ffffffffffffffffffffffffffffffffffffffff1614156040518060400160405280600681526020017f303033303032000000000000000000000000000000000000000000000000000081525090611343576040517f08c379a000000000000000000000000000000000000000000000000000000000815260040161133a9190613892565b60405180910390fd5b50919050565b60008073ffffffffffffffffffffffffffffffffffffffff168273ffffffffffffffffffffffffffffffffffffffff1614156040518060400160405280600681526020017f3030333030310000000000000000000000000000000000000000000000000000815250906113f2576040517f08c379a00000000000000000000000000000000000000000000000000000000081526004016113e99190613892565b60405180910390fd5b506113fc8261252d565b9050919050565b606081600073ffffffffffffffffffffffffffffffffffffffff166001600083815260200190815260200160002060009054906101000a900473ffffffffffffffffffffffffffffffffffffffff1673ffffffffffffffffffffffffffffffffffffffff1614156040518060400160405280600681526020017f3030333030320000000000000000000000000000000000000000000000000000815250906114e1576040517f08c379a00000000000000000000000000000000000000000000000000000000081526004016114d89190613892565b60405180910390fd5b50600d6000848152602001908152602001600020805461150090613ab3565b80601f016020809104026020016040519081016040528092919081815260200182805461152c90613ab3565b80156115795780601f1061154e57610100808354040283529160200191611579565b820191906000526020600020905b81548152906001019060200180831161155c57829003601f168201915b5050505050915050919050565b600c60009054906101000a900473ffffffffffffffffffffffffffffffffffffffff1681565b600c60009054906101000a900473ffffffffffffffffffffffffffffffffffffffff1673ffffffffffffffffffffffffffffffffffffffff163373ffffffffffffffffffffffffffffffffffffffff161461163c576040517f08c379a0000000000000000000000000000000000000000000000000000000008152600401611633906138b4565b60405180910390fd5b7f2d5a82cbc34270500c60b0532ca36cd4716c295bf0351b25835351664a3125bf600c60009054906101000a900473ffffffffffffffffffffffffffffffffffffffff1660405161168d9190613849565b60405180910390a161169f828261253f565b5050565b6060600a80546116b290613ab3565b80601f01602080910402602001604051908101604052809291908181526020018280546116de90613ab3565b801561172b5780601f106117005761010080835404028352916020019161172b565b820191906000526020600020905b81548152906001019060200180831161170e57829003601f168201915b5050505050905090565b600c60009054906101000a900473ffffffffffffffffffffffffffffffffffffffff1673ffffffffffffffffffffffffffffffffffffffff163373ffffffffffffffffffffffffffffffffffffffff16146117c5576040517f08c379a00000000000000000000000000000000000000000000000000000000081526004016117bc906138b4565b60405180910390fd5b7f2d5a82cbc34270500c60b0532ca36cd4716c295bf0351b25835351664a3125bf600c60009054906101000a900473ffffffffffffffffffffffffffffffffffffffff166040516118169190613849565b60405180910390a1611828828261254d565b5050565b80600460003373ffffffffffffffffffffffffffffffffffffffff1673ffffffffffffffffffffffffffffffffffffffff16815260200190815260200160002060008473ffffffffffffffffffffffffffffffffffffffff1673ffffffffffffffffffffffffffffffffffffffff16815260200190815260200160002060006101000a81548160ff0219169083151502179055508173ffffffffffffffffffffffffffffffffffffffff163373ffffffffffffffffffffffffffffffffffffffff167f17307eab39ab6107e8899845ad3d59bd9653f200f220920489ca2b5937696c318360405161191d9190613877565b60405180910390a35050565b600c60009054906101000a900473ffffffffffffffffffffffffffffffffffffffff1673ffffffffffffffffffffffffffffffffffffffff163373ffffffffffffffffffffffffffffffffffffffff16146119b9576040517f08c379a00000000000000000000000000000000000000000000000000000000081526004016119b0906138b4565b60405180910390fd5b7f2d5a82cbc34270500c60b0532ca36cd4716c295bf0351b25835351664a3125bf600c60009054906101000a900473ffffffffffffffffffffffffffffffffffffffff16604051611a0a9190613849565b60405180910390a1611a1c858561255b565b82600b60008681526020019081526020016000209080519060200190611a439291906131df565b5081600d60008681526020019081526020016000209080519060200190611a6b9291906131df565b5080600e60008681526020019081526020016000209080519060200190611a939291906131df565b505050505050565b611aeb85858585858080601f016020809104026020016040519081016040528093929190818152602001838380828437600081840152601f19601f82011690508083019250505050505050611f53565b5050505050565b6000611afd8261252d565b9050919050565b606081600073ffffffffffffffffffffffffffffffffffffffff166001600083815260200190815260200160002060009054906101000a900473ffffffffffffffffffffffffffffffffffffffff1673ffffffffffffffffffffffffffffffffffffffff1614156040518060400160405280600681526020017f303033303032000000000000000000000000000000000000000000000000000081525090611be2576040517f08c379a0000000000000000000000000000000000000000000000000000000008152600401611bd99190613892565b60405180910390fd5b50600b60008481526020019081526020016000208054611c0190613ab3565b80601f0160208091040260200160405190810160405280929190818152602001828054611c2d90613ab3565b8015611c7a5780601f10611c4f57610100808354040283529160200191611c7a565b820191906000526020600020905b815481529060010190602001808311611c5d57829003601f168201915b5050505050915050919050565b606081600073ffffffffffffffffffffffffffffffffffffffff166001600083815260200190815260200160002060009054906101000a900473ffffffffffffffffffffffffffffffffffffffff1673ffffffffffffffffffffffffffffffffffffffff1614156040518060400160405280600681526020017f303033303032000000000000000000000000000000000000000000000000000081525090611d65576040517f08c379a0000000000000000000000000000000000000000000000000000000008152600401611d5c9190613892565b60405180910390fd5b50600e60008481526020019081526020016000208054611d8490613ab3565b80601f0160208091040260200160405190810160405280929190818152602001828054611db090613ab3565b8015611dfd5780601f10611dd257610100808354040283529160200191611dfd565b820191906000526020600020905b815481529060010190602001808311611de057829003601f168201915b5050505050915050919050565b6000600460008473ffffffffffffffffffffffffffffffffffffffff1673ffffffffffffffffffffffffffffffffffffffff16815260200190815260200160002060008373ffffffffffffffffffffffffffffffffffffffff1673ffffffffffffffffffffffffffffffffffffffff16815260200190815260200160002060009054906101000a900460ff16905092915050565b60006001600083815260200190815260200160002060009054906101000a900473ffffffffffffffffffffffffffffffffffffffff169050611edf826125f9565b611ee9818361253f565b611ef3838361254d565b818373ffffffffffffffffffffffffffffffffffffffff168273ffffffffffffffffffffffffffffffffffffffff167fddf252ad1be2c89b69c2b068fc378daa952ba7f163c4a11628f55a4df523b3ef60405160405180910390a4505050565b8160006001600083815260200190815260200160002060009054906101000a900473ffffffffffffffffffffffffffffffffffffffff1690503373ffffffffffffffffffffffffffffffffffffffff168173ffffffffffffffffffffffffffffffffffffffff16148061202457503373ffffffffffffffffffffffffffffffffffffffff166002600084815260200190815260200160002060009054906101000a900473ffffffffffffffffffffffffffffffffffffffff1673ffffffffffffffffffffffffffffffffffffffff16145b806120b55750600460008273ffffffffffffffffffffffffffffffffffffffff1673ffffffffffffffffffffffffffffffffffffffff16815260200190815260200160002060003373ffffffffffffffffffffffffffffffffffffffff1673ffffffffffffffffffffffffffffffffffffffff16815260200190815260200160002060009054906101000a900460ff165b6040518060400160405280600681526020017f30303330303400000000000000000000000000000000000000000000000000008152509061212c576040517f08c379a00000000000000000000000000000000000000000000000000000000081526004016121239190613892565b60405180910390fd5b5083600073ffffffffffffffffffffffffffffffffffffffff166001600083815260200190815260200160002060009054906101000a900473ffffffffffffffffffffffffffffffffffffffff1673ffffffffffffffffffffffffffffffffffffffff1614156040518060400160405280600681526020017f303033303032000000000000000000000000000000000000000000000000000081525090612209576040517f08c379a00000000000000000000000000000000000000000000000000000000081526004016122009190613892565b60405180910390fd5b5060006001600087815260200190815260200160002060009054906101000a900473ffffffffffffffffffffffffffffffffffffffff1690508773ffffffffffffffffffffffffffffffffffffffff168173ffffffffffffffffffffffffffffffffffffffff16146040518060400160405280600681526020017f3030333030370000000000000000000000000000000000000000000000000000815250906122e8576040517f08c379a00000000000000000000000000000000000000000000000000000000081526004016122df9190613892565b60405180910390fd5b50600073ffffffffffffffffffffffffffffffffffffffff168773ffffffffffffffffffffffffffffffffffffffff1614156040518060400160405280600681526020017f303033303031000000000000000000000000000000000000000000000000000081525090612391576040517f08c379a00000000000000000000000000000000000000000000000000000000081526004016123889190613892565b60405180910390fd5b5061239c8787611e9e565b6123bb8773ffffffffffffffffffffffffffffffffffffffff1661269a565b156125175760008773ffffffffffffffffffffffffffffffffffffffff1663150b7a02338b8a8a6040518563ffffffff1660e01b815260040161240194939291906137fd565b602060405180830381600087803b15801561241b57600080fd5b505af115801561242f573d6000803e3d6000fd5b505050506040513d601f19601f820116820180604052508101906124539190613671565b905063150b7a0260e01b7bffffffffffffffffffffffffffffffffffffffffffffffffffffffff1916817bffffffffffffffffffffffffffffffffffffffffffffffffffffffff1916146040518060400160405280600681526020017f303033303035000000000000000000000000000000000000000000000000000081525090612514576040517f08c379a000000000000000000000000000000000000000000000000000000000815260040161250b9190613892565b60405180910390fd5b50505b5050505050505050565b61252a816126e5565b50565b600061253882612738565b9050919050565b6125498282612784565b5050565b6125578282612abd565b5050565b600160de61256991906139bc565b60ff16600580549050106040518060400160405280600581526020017f3230303031000000000000000000000000000000000000000000000000000000815250906125ea576040517f08c379a00000000000000000000000000000000000000000000000000000000081526004016125e19190613892565b60405180910390fd5b506125f58282612cba565b5050565b600073ffffffffffffffffffffffffffffffffffffffff166002600083815260200190815260200160002060009054906101000a900473ffffffffffffffffffffffffffffffffffffffff1673ffffffffffffffffffffffffffffffffffffffff1614612697576002600082815260200190815260200160002060006101000a81549073ffffffffffffffffffffffffffffffffffffffff02191690555b50565b60008060007fc5d2460186f7233c927e7db2dcc703c0e500b653ca82273b7bfad8045d85a47060001b9050833f91506000801b82141580156126dc5750808214155b92505050919050565b6126ee81612d1a565b6000600b6000838152602001908152602001600020805461270e90613ab3565b90501461273557600b600082815260200190815260200160002060006127349190613265565b5b50565b6000600760008373ffffffffffffffffffffffffffffffffffffffff1673ffffffffffffffffffffffffffffffffffffffff168152602001908152602001600020805490509050919050565b8173ffffffffffffffffffffffffffffffffffffffff166001600083815260200190815260200160002060009054906101000a900473ffffffffffffffffffffffffffffffffffffffff1673ffffffffffffffffffffffffffffffffffffffff16146040518060400160405280600681526020017f30303330303700000000000000000000000000000000000000000000000000008152509061285d576040517f08c379a00000000000000000000000000000000000000000000000000000000081526004016128549190613892565b60405180910390fd5b506001600082815260200190815260200160002060006101000a81549073ffffffffffffffffffffffffffffffffffffffff021916905560006008600083815260200190815260200160002054905060006001600760008673ffffffffffffffffffffffffffffffffffffffff1673ffffffffffffffffffffffffffffffffffffffff168152602001908152602001600020805490506128fd9190613988565b9050818114612a2c576000600760008673ffffffffffffffffffffffffffffffffffffffff1673ffffffffffffffffffffffffffffffffffffffff168152602001908152602001600020828154811061297f577f4e487b7100000000000000000000000000000000000000000000000000000000600052603260045260246000fd5b9060005260206000200154905080600760008773ffffffffffffffffffffffffffffffffffffffff1673ffffffffffffffffffffffffffffffffffffffff1681526020019081526020016000208481548110612a04577f4e487b7100000000000000000000000000000000000000000000000000000000600052603260045260246000fd5b9060005260206000200181905550826008600083815260200190815260200160002081905550505b600760008573ffffffffffffffffffffffffffffffffffffffff1673ffffffffffffffffffffffffffffffffffffffff168152602001908152602001600020805480612aa1577f4e487b7100000000000000000000000000000000000000000000000000000000600052603160045260246000fd5b6001900381819060005260206000200160009055905550505050565b600073ffffffffffffffffffffffffffffffffffffffff166001600083815260200190815260200160002060009054906101000a900473ffffffffffffffffffffffffffffffffffffffff1673ffffffffffffffffffffffffffffffffffffffff16146040518060400160405280600681526020017f303033303036000000000000000000000000000000000000000000000000000081525090612b97576040517f08c379a0000000000000000000000000000000000000000000000000000000008152600401612b8e9190613892565b60405180910390fd5b50816001600083815260200190815260200160002060006101000a81548173ffffffffffffffffffffffffffffffffffffffff021916908373ffffffffffffffffffffffffffffffffffffffff160217905550600760008373ffffffffffffffffffffffffffffffffffffffff1673ffffffffffffffffffffffffffffffffffffffff1681526020019081526020016000208190806001815401808255809150506001900390600052602060002001600090919091909150556001600760008473ffffffffffffffffffffffffffffffffffffffff1673ffffffffffffffffffffffffffffffffffffffff16815260200190815260200160002080549050612c9f9190613988565b60086000838152602001908152602001600020819055505050565b612cc48282612e68565b60058190806001815401808255809150506001900390600052602060002001600090919091909150556001600580549050612cff9190613988565b60066000838152602001908152602001600020819055505050565b612d2381613056565b60006006600083815260200190815260200160002054905060006001600580549050612d4f9190613988565b9050600060058281548110612d8d577f4e487b7100000000000000000000000000000000000000000000000000000000600052603260045260246000fd5b906000526020600020015490508060058481548110612dd5577f4e487b7100000000000000000000000000000000000000000000000000000000600052603260045260246000fd5b90600052602060002001819055506005805480612e1b577f4e487b7100000000000000000000000000000000000000000000000000000000600052603160045260246000fd5b600190038181906000526020600020016000905590558260066000838152602001908152602001600020819055506000600660008681526020019081526020016000208190555050505050565b600073ffffffffffffffffffffffffffffffffffffffff168273ffffffffffffffffffffffffffffffffffffffff1614156040518060400160405280600681526020017f303033303031000000000000000000000000000000000000000000000000000081525090612f10576040517f08c379a0000000000000000000000000000000000000000000000000000000008152600401612f079190613892565b60405180910390fd5b50600073ffffffffffffffffffffffffffffffffffffffff166001600083815260200190815260200160002060009054906101000a900473ffffffffffffffffffffffffffffffffffffffff1673ffffffffffffffffffffffffffffffffffffffff16146040518060400160405280600681526020017f303033303036000000000000000000000000000000000000000000000000000081525090612feb576040517f08c379a0000000000000000000000000000000000000000000000000000000008152600401612fe29190613892565b60405180910390fd5b50612ff6828261254d565b808273ffffffffffffffffffffffffffffffffffffffff16600073ffffffffffffffffffffffffffffffffffffffff167fddf252ad1be2c89b69c2b068fc378daa952ba7f163c4a11628f55a4df523b3ef60405160405180910390a45050565b80600073ffffffffffffffffffffffffffffffffffffffff166001600083815260200190815260200160002060009054906101000a900473ffffffffffffffffffffffffffffffffffffffff1673ffffffffffffffffffffffffffffffffffffffff1614156040518060400160405280600681526020017f303033303032000000000000000000000000000000000000000000000000000081525090613132576040517f08c379a00000000000000000000000000000000000000000000000000000000081526004016131299190613892565b60405180910390fd5b5060006001600084815260200190815260200160002060009054906101000a900473ffffffffffffffffffffffffffffffffffffffff169050613174836125f9565b61317e818461253f565b82600073ffffffffffffffffffffffffffffffffffffffff168273ffffffffffffffffffffffffffffffffffffffff167fddf252ad1be2c89b69c2b068fc378daa952ba7f163c4a11628f55a4df523b3ef60405160405180910390a4505050565b8280546131eb90613ab3565b90600052602060002090601f01602090048101928261320d5760008555613254565b82601f1061322657805160ff1916838001178555613254565b82800160010185558215613254579182015b82811115613253578251825591602001919060010190613238565b5b50905061326191906132a5565b5090565b50805461327190613ab3565b6000825580601f1061328357506132a2565b601f0160209004906000526020600020908101906132a191906132a5565b5b50565b5b808211156132be5760008160009055506001016132a6565b5090565b60006132d56132d084613920565b6138ef565b9050828152602081018484840111156132ed57600080fd5b6132f8848285613a71565b509392505050565b60008135905061330f81613b83565b92915050565b60008135905061332481613b9a565b92915050565b60008135905061333981613bb1565b92915050565b60008151905061334e81613bb1565b92915050565b60008083601f84011261336657600080fd5b8235905067ffffffffffffffff81111561337f57600080fd5b60208301915083600182028301111561339757600080fd5b9250929050565b600082601f8301126133af57600080fd5b81356133bf8482602086016132c2565b91505092915050565b6000813590506133d781613bc8565b92915050565b6000602082840312156133ef57600080fd5b60006133fd84828501613300565b91505092915050565b6000806040838503121561341957600080fd5b600061342785828601613300565b925050602061343885828601613300565b9150509250929050565b60008060006060848603121561345757600080fd5b600061346586828701613300565b935050602061347686828701613300565b9250506040613487868287016133c8565b9150509250925092565b6000806000806000608086880312156134a957600080fd5b60006134b788828901613300565b95505060206134c888828901613300565b94505060406134d9888289016133c8565b935050606086013567ffffffffffffffff8111156134f657600080fd5b61350288828901613354565b92509250509295509295909350565b6000806040838503121561352457600080fd5b600061353285828601613300565b925050602061354385828601613315565b9150509250929050565b6000806040838503121561356057600080fd5b600061356e85828601613300565b925050602061357f858286016133c8565b9150509250929050565b600080600080600060a086880312156135a157600080fd5b60006135af88828901613300565b95505060206135c0888289016133c8565b945050604086013567ffffffffffffffff8111156135dd57600080fd5b6135e98882890161339e565b935050606086013567ffffffffffffffff81111561360657600080fd5b6136128882890161339e565b925050608086013567ffffffffffffffff81111561362f57600080fd5b61363b8882890161339e565b9150509295509295909350565b60006020828403121561365a57600080fd5b60006136688482850161332a565b91505092915050565b60006020828403121561368357600080fd5b60006136918482850161333f565b91505092915050565b6000602082840312156136ac57600080fd5b60006136ba848285016133c8565b91505092915050565b6136cc816139f0565b82525050565b6136db81613a02565b82525050565b60006136ec82613950565b6136f68185613966565b9350613706818560208601613a80565b61370f81613b72565b840191505092915050565b60006137258261395b565b61372f8185613977565b935061373f818560208601613a80565b61374881613b72565b840191505092915050565b6000613760600c83613977565b91507f4e6f7420616e206f776e657200000000000000000000000000000000000000006000830152602082019050919050565b60006137a0601c83613977565b91507f706173736564206f776e65727368697020726571756972656d656e74000000006000830152602082019050919050565b6137dc81613a5a565b82525050565b60006020820190506137f760008301846136c3565b92915050565b600060808201905061381260008301876136c3565b61381f60208301866136c3565b61382c60408301856137d3565b818103606083015261383e81846136e1565b905095945050505050565b600060408201905061385e60008301846136c3565b818103602083015261386f81613793565b905092915050565b600060208201905061388c60008301846136d2565b92915050565b600060208201905081810360008301526138ac818461371a565b905092915050565b600060208201905081810360008301526138cd81613753565b9050919050565b60006020820190506138e960008301846137d3565b92915050565b6000604051905081810181811067ffffffffffffffff8211171561391657613915613b43565b5b8060405250919050565b600067ffffffffffffffff82111561393b5761393a613b43565b5b601f19601f8301169050602081019050919050565b600081519050919050565b600081519050919050565b600082825260208201905092915050565b600082825260208201905092915050565b600061399382613a5a565b915061399e83613a5a565b9250828210156139b1576139b0613ae5565b5b828203905092915050565b60006139c782613a64565b91506139d283613a64565b9250828210156139e5576139e4613ae5565b5b828203905092915050565b60006139fb82613a3a565b9050919050565b60008115159050919050565b60007fffffffff0000000000000000000000000000000000000000000000000000000082169050919050565b600073ffffffffffffffffffffffffffffffffffffffff82169050919050565b6000819050919050565b600060ff82169050919050565b82818337600083830152505050565b60005b83811015613a9e578082015181840152602081019050613a83565b83811115613aad576000848401525b50505050565b60006002820490506001821680613acb57607f821691505b60208210811415613adf57613ade613b14565b5b50919050565b7f4e487b7100000000000000000000000000000000000000000000000000000000600052601160045260246000fd5b7f4e487b7100000000000000000000000000000000000000000000000000000000600052602260045260246000fd5b7f4e487b7100000000000000000000000000000000000000000000000000000000600052604160045260246000fd5b6000601f19601f8301169050919050565b613b8c816139f0565b8114613b9757600080fd5b50565b613ba381613a02565b8114613bae57600080fd5b50565b613bba81613a0e565b8114613bc557600080fd5b50565b613bd181613a5a565b8114613bdc57600080fd5b5056fea26469706673582212204b09f2458efdf6e91f99774b4ed6cf476d7b36aa1e16019cbe3de96668d24deb64736f6c63430008000033",
  "linkReferences": {},
  "deployedLinkReferences": {}
}