{
  "_format": "hh-sol-artifact-1",
  "contractName": "StopTheWarOnDrugs",
  "sourceName": "contracts/NMWD/StopTheWarOnDrugs.sol",
  "abi": [
    {
      "inputs": [
        {
          "internalType": "string",
          "name": "_name",
          "type": "string"
        },
        {
          "internalType": "string",
          "name": "_symbol",
          "type": "string"
        }
      ],
      "stateMutability": "nonpayable",
      "type": "constructor"
    },
    {
      "anonymous": false,
      "inputs": [
        {
          "indexed": true,
          "internalType": "address",
          "name": "_owner",
          "type": "address"
        },
        {
          "indexed": true,
          "internalType": "address",
          "name": "_approved",
          "type": "address"
        },
        {
          "indexed": true,
          "internalType": "uint256",
          "name": "_tokenId",
          "type": "uint256"
        }
      ],
      "name": "Approval",
      "type": "event"
    },
    {
      "anonymous": false,
      "inputs": [
        {
          "indexed": true,
          "internalType": "address",
          "name": "_owner",
          "type": "address"
        },
        {
          "indexed": true,
          "internalType": "address",
          "name": "_operator",
          "type": "address"
        },
        {
          "indexed": false,
          "internalType": "bool",
          "name": "_approved",
          "type": "bool"
        }
      ],
      "name": "ApprovalForAll",
      "type": "event"
    },
    {
      "anonymous": false,
      "inputs": [
        {
          "indexed": true,
          "internalType": "address",
          "name": "previousOwner",
          "type": "address"
        },
        {
          "indexed": true,
          "internalType": "address",
          "name": "newOwner",
          "type": "address"
        }
      ],
      "name": "OwnershipTransferred",
      "type": "event"
    },
    {
      "anonymous": false,
      "inputs": [
        {
          "indexed": true,
          "internalType": "address",
          "name": "_from",
          "type": "address"
        },
        {
          "indexed": true,
          "internalType": "address",
          "name": "_to",
          "type": "address"
        },
        {
          "indexed": true,
          "internalType": "uint256",
          "name": "_tokenId",
          "type": "uint256"
        }
      ],
      "name": "Transfer",
      "type": "event"
    },
    {
      "anonymous": false,
      "inputs": [
        {
          "indexed": false,
          "internalType": "address",
          "name": "deliveredTo",
          "type": "address"
        },
        {
          "indexed": false,
          "internalType": "string",
          "name": "msg",
          "type": "string"
        }
      ],
      "name": "_msg",
      "type": "event"
    },
    {
      "inputs": [],
      "name": "CANNOT_TRANSFER_TO_ZERO_ADDRESS",
      "outputs": [
        {
          "internalType": "string",
          "name": "",
          "type": "string"
        }
      ],
      "stateMutability": "view",
      "type": "function"
    },
    {
      "inputs": [],
      "name": "NOT_CURRENT_OWNER",
      "outputs": [
        {
          "internalType": "string",
          "name": "",
          "type": "string"
        }
      ],
      "stateMutability": "view",
      "type": "function"
    },
    {
      "inputs": [
        {
          "internalType": "address",
          "name": "_to",
          "type": "address"
        },
        {
          "internalType": "uint256",
          "name": "_tokenId",
          "type": "uint256"
        }
      ],
      "name": "addNFToken",
      "outputs": [],
      "stateMutability": "nonpayable",
      "type": "function"
    },
    {
      "inputs": [
        {
          "internalType": "address",
          "name": "_approved",
          "type": "address"
        },
        {
          "internalType": "uint256",
          "name": "_tokenId",
          "type": "uint256"
        }
      ],
      "name": "approve",
      "outputs": [],
      "stateMutability": "nonpayable",
      "type": "function"
    },
    {
      "inputs": [
        {
          "internalType": "address",
          "name": "_owner",
          "type": "address"
        }
      ],
      "name": "balanceOf",
      "outputs": [
        {
          "internalType": "uint256",
          "name": "",
          "type": "uint256"
        }
      ],
      "stateMutability": "view",
      "type": "function"
    },
    {
      "inputs": [
        {
          "internalType": "uint256",
          "name": "_tokenId",
          "type": "uint256"
        }
      ],
      "name": "burn",
      "outputs": [],
      "stateMutability": "nonpayable",
      "type": "function"
    },
    {
      "inputs": [
        {
          "internalType": "uint256",
          "name": "_tokenId",
          "type": "uint256"
        }
      ],
      "name": "getApproved",
      "outputs": [
        {
          "internalType": "address",
          "name": "",
          "type": "address"
        }
      ],
      "stateMutability": "view",
      "type": "function"
    },
    {
      "inputs": [
        {
          "internalType": "address",
          "name": "_address",
          "type": "address"
        }
      ],
      "name": "getNFTsByAddress",
      "outputs": [
        {
          "internalType": "uint256[]",
          "name": "",
          "type": "uint256[]"
        }
      ],
      "stateMutability": "view",
      "type": "function"
    },
    {
      "inputs": [],
      "name": "getOwner",
      "outputs": [
        {
          "internalType": "address",
          "name": "",
          "type": "address"
        }
      ],
      "stateMutability": "view",
      "type": "function"
    },
    {
      "inputs": [
        {
          "internalType": "address",
          "name": "_owner",
          "type": "address"
        }
      ],
      "name": "getOwnerNFTCount",
      "outputs": [
        {
          "internalType": "uint256",
          "name": "",
          "type": "uint256"
        }
      ],
      "stateMutability": "view",
      "type": "function"
    },
    {
      "inputs": [
        {
          "internalType": "address",
          "name": "_owner",
          "type": "address"
        },
        {
          "internalType": "address",
          "name": "_operator",
          "type": "address"
        }
      ],
      "name": "isApprovedForAll",
      "outputs": [
        {
          "internalType": "bool",
          "name": "",
          "type": "bool"
        }
      ],
      "stateMutability": "view",
      "type": "function"
    },
    {
      "inputs": [
        {
          "internalType": "address",
          "name": "_to",
          "type": "address"
        },
        {
          "internalType": "uint256",
          "name": "_tokenId",
          "type": "uint256"
        },
        {
          "internalType": "address",
          "name": "royaltyRecipient",
          "type": "address"
        },
        {
          "internalType": "uint256",
          "name": "royaltyValue",
          "type": "uint256"
        }
      ],
      "name": "mint",
      "outputs": [],
      "stateMutability": "nonpayable",
      "type": "function"
    },
    {
      "inputs": [],
      "name": "name",
      "outputs": [
        {
          "internalType": "string",
          "name": "_name",
          "type": "string"
        }
      ],
      "stateMutability": "view",
      "type": "function"
    },
    {
      "inputs": [],
      "name": "owner",
      "outputs": [
        {
          "internalType": "address",
          "name": "",
          "type": "address"
        }
      ],
      "stateMutability": "view",
      "type": "function"
    },
    {
      "inputs": [
        {
          "internalType": "uint256",
          "name": "_tokenId",
          "type": "uint256"
        }
      ],
      "name": "ownerOf",
      "outputs": [
        {
          "internalType": "address",
          "name": "_owner",
          "type": "address"
        }
      ],
      "stateMutability": "view",
      "type": "function"
    },
    {
      "inputs": [
        {
          "internalType": "address",
          "name": "_from",
          "type": "address"
        },
        {
          "internalType": "uint256",
          "name": "_tokenId",
          "type": "uint256"
        }
      ],
      "name": "removeNFToken",
      "outputs": [],
      "stateMutability": "nonpayable",
      "type": "function"
    },
    {
      "inputs": [
        {
          "internalType": "uint256",
          "name": "_tokenId",
          "type": "uint256"
        },
        {
          "internalType": "uint256",
          "name": "_salePrice",
          "type": "uint256"
        }
      ],
      "name": "royaltyInfo",
      "outputs": [
        {
          "internalType": "address",
          "name": "receiver",
          "type": "address"
        },
        {
          "internalType": "uint256",
          "name": "royaltyAmount",
          "type": "uint256"
        }
      ],
      "stateMutability": "view",
      "type": "function"
    },
    {
      "inputs": [
        {
          "internalType": "address",
          "name": "_from",
          "type": "address"
        },
        {
          "internalType": "address",
          "name": "_to",
          "type": "address"
        },
        {
          "internalType": "uint256",
          "name": "_tokenId",
          "type": "uint256"
        }
      ],
      "name": "safeTransferFrom",
      "outputs": [],
      "stateMutability": "nonpayable",
      "type": "function"
    },
    {
      "inputs": [
        {
          "internalType": "address",
          "name": "_from",
          "type": "address"
        },
        {
          "internalType": "address",
          "name": "_to",
          "type": "address"
        },
        {
          "internalType": "uint256",
          "name": "_tokenId",
          "type": "uint256"
        },
        {
          "internalType": "bytes",
          "name": "_data",
          "type": "bytes"
        }
      ],
      "name": "safeTransferFrom",
      "outputs": [],
      "stateMutability": "nonpayable",
      "type": "function"
    },
    {
      "inputs": [
        {
          "internalType": "uint256",
          "name": "security_value",
          "type": "uint256"
        }
      ],
      "name": "seflDestruct",
      "outputs": [],
      "stateMutability": "nonpayable",
      "type": "function"
    },
    {
      "inputs": [
        {
          "internalType": "address",
          "name": "_operator",
          "type": "address"
        },
        {
          "internalType": "bool",
          "name": "_approved",
          "type": "bool"
        }
      ],
      "name": "setApprovalForAll",
      "outputs": [],
      "stateMutability": "nonpayable",
      "type": "function"
    },
    {
      "inputs": [
        {
          "internalType": "uint256",
          "name": "_tokenId",
          "type": "uint256"
        },
        {
          "internalType": "string",
          "name": "_msg",
          "type": "string"
        }
      ],
      "name": "setTokenMessage",
      "outputs": [],
      "stateMutability": "nonpayable",
      "type": "function"
    },
    {
      "inputs": [
        {
          "internalType": "bytes4",
          "name": "_interfaceID",
          "type": "bytes4"
        }
      ],
      "name": "supportsInterface",
      "outputs": [
        {
          "internalType": "bool",
          "name": "",
          "type": "bool"
        }
      ],
      "stateMutability": "view",
      "type": "function"
    },
    {
      "inputs": [],
      "name": "symbol",
      "outputs": [
        {
          "internalType": "string",
          "name": "_symbol",
          "type": "string"
        }
      ],
      "stateMutability": "view",
      "type": "function"
    },
    {
      "inputs": [
        {
          "internalType": "uint256",
          "name": "_index",
          "type": "uint256"
        }
      ],
      "name": "tokenByIndex",
      "outputs": [
        {
          "internalType": "uint256",
          "name": "",
          "type": "uint256"
        }
      ],
      "stateMutability": "view",
      "type": "function"
    },
    {
      "inputs": [
        {
          "internalType": "uint256",
          "name": "_tokenId",
          "type": "uint256"
        }
      ],
      "name": "tokenMessage",
      "outputs": [
        {
          "internalType": "string",
          "name": "",
          "type": "string"
        }
      ],
      "stateMutability": "view",
      "type": "function"
    },
    {
      "inputs": [
        {
          "internalType": "address",
          "name": "_owner",
          "type": "address"
        },
        {
          "internalType": "uint256",
          "name": "_index",
          "type": "uint256"
        }
      ],
      "name": "tokenOfOwnerByIndex",
      "outputs": [
        {
          "internalType": "uint256",
          "name": "",
          "type": "uint256"
        }
      ],
      "stateMutability": "view",
      "type": "function"
    },
    {
      "inputs": [
        {
          "internalType": "uint256",
          "name": "_tokenId",
          "type": "uint256"
        }
      ],
      "name": "tokenURI",
      "outputs": [
        {
          "internalType": "string",
          "name": "",
          "type": "string"
        }
      ],
      "stateMutability": "view",
      "type": "function"
    },
    {
      "inputs": [],
      "name": "totalSupply",
      "outputs": [
        {
          "internalType": "uint256",
          "name": "",
          "type": "uint256"
        }
      ],
      "stateMutability": "view",
      "type": "function"
    },
    {
      "inputs": [
        {
          "internalType": "address",
          "name": "_from",
          "type": "address"
        },
        {
          "internalType": "address",
          "name": "_to",
          "type": "address"
        },
        {
          "internalType": "uint256",
          "name": "_tokenId",
          "type": "uint256"
        }
      ],
      "name": "transferFrom",
      "outputs": [],
      "stateMutability": "nonpayable",
      "type": "function"
    },
    {
      "inputs": [
        {
          "internalType": "address",
          "name": "_newOwner",
          "type": "address"
        }
      ],
      "name": "transferOwnership",
      "outputs": [],
      "stateMutability": "nonpayable",
      "type": "function"
    },
    {
      "inputs": [
        {
          "internalType": "string",
          "name": "_msg",
          "type": "string"
        }
      ],
      "name": "validateMsg",
      "outputs": [
        {
          "internalType": "bool",
          "name": "",
          "type": "bool"
        }
      ],
      "stateMutability": "pure",
      "type": "function"
    }
  ],
  "bytecode": "0x60806040523480156200001157600080fd5b506040516200534e3803806200534e8339818101604052810190620000379190620003d6565b60016000806301ffc9a760e01b7bffffffffffffffffffffffffffffffffffffffffffffffffffffffff1916815260200190815260200160002060006101000a81548160ff02191690831515021790555060016000806380ac58cd60e01b7bffffffffffffffffffffffffffffffffffffffffffffffffffffffff1916815260200190815260200160002060006101000a81548160ff021916908315150217905550600160008063780e9d6360e01b7bffffffffffffffffffffffffffffffffffffffffffffffffffffffff1916815260200190815260200160002060006101000a81548160ff0219169083151502179055506001600080635b5e139f60e01b7bffffffffffffffffffffffffffffffffffffffffffffffffffffffff1916815260200190815260200160002060006101000a81548160ff0219169083151502179055506001600080632a55205a60e01b7bffffffffffffffffffffffffffffffffffffffffffffffffffffffff1916815260200190815260200160002060006101000a81548160ff021916908315150217905550620001dc6200021660201b60201c565b8160099080519060200190620001f4929190620002b4565b5080600a90805190602001906200020d929190620002b4565b50505062000644565b33600c60006101000a81548173ffffffffffffffffffffffffffffffffffffffff021916908373ffffffffffffffffffffffffffffffffffffffff1602179055507f2d5a82cbc34270500c60b0532ca36cd4716c295bf0351b25835351664a3125bf600c60009054906101000a900473ffffffffffffffffffffffffffffffffffffffff16604051620002aa91906200049c565b60405180910390a1565b828054620002c290620005b0565b90600052602060002090601f016020900481019282620002e6576000855562000332565b82601f106200030157805160ff191683800117855562000332565b8280016001018555821562000332579182015b828111156200033157825182559160200191906001019062000314565b5b50905062000341919062000345565b5090565b5b808211156200036057600081600090555060010162000346565b5090565b60006200037b620003758462000502565b620004ce565b9050828152602081018484840111156200039457600080fd5b620003a18482856200057a565b509392505050565b600082601f830112620003bb57600080fd5b8151620003cd84826020860162000364565b91505092915050565b60008060408385031215620003ea57600080fd5b600083015167ffffffffffffffff8111156200040557600080fd5b6200041385828601620003a9565b925050602083015167ffffffffffffffff8111156200043157600080fd5b6200043f85828601620003a9565b9150509250929050565b620004548162000546565b82525050565b60006200046960098362000535565b91507f736574206f776e657200000000000000000000000000000000000000000000006000830152602082019050919050565b6000604082019050620004b3600083018462000449565b8181036020830152620004c6816200045a565b905092915050565b6000604051905081810181811067ffffffffffffffff82111715620004f857620004f762000615565b5b8060405250919050565b600067ffffffffffffffff82111562000520576200051f62000615565b5b601f19601f8301169050602081019050919050565b600082825260208201905092915050565b600062000553826200055a565b9050919050565b600073ffffffffffffffffffffffffffffffffffffffff82169050919050565b60005b838110156200059a5780820151818401526020810190506200057d565b83811115620005aa576000848401525b50505050565b60006002820490506001821680620005c957607f821691505b60208210811415620005e057620005df620005e6565b5b50919050565b7f4e487b7100000000000000000000000000000000000000000000000000000000600052602260045260246000fd5b7f4e487b7100000000000000000000000000000000000000000000000000000000600052604160045260246000fd5b614cfa80620006546000396000f3fe608060405234801561001057600080fd5b50600436106101f05760003560e01c8063860d248a1161010f578063b88d4fde116100a2578063e4b7baeb11610071578063e4b7baeb146105ee578063e985e9c51461061e578063f2fde38b1461064e578063f3fe3bc31461066a576101f0565b8063b88d4fde14610556578063bd7f4c8d14610572578063c2af674f146105a2578063c87b56dd146105be576101f0565b80638f847076116100de5780638f847076146104e457806395d89b41146105005780639c01e1f51461051e578063a22cb4651461053a576101f0565b8063860d248a1461045a578063893d20e814610478578063894b5b3c146104965780638da5cb5b146104c6576101f0565b80632f745c59116101875780634f6ccce7116101565780634f6ccce7146103ae5780636352211e146103de57806370a082311461040e5780637ff0bf071461043e576101f0565b80632f745c591461032a5780633c173a4f1461035a57806342842e0e1461037657806342966c6814610392576101f0565b806318160ddd116101c357806318160ddd1461028f5780631dadae8e146102ad57806323b872dd146102dd5780632a55205a146102f9576101f0565b806301ffc9a7146101f557806306fdde0314610225578063081812fc14610243578063095ea7b314610273575b600080fd5b61020f600480360381019061020a919061438d565b610688565b60405161021c91906147f2565b60405180910390f35b61022d6106ef565b60405161023a919061480d565b60405180910390f35b61025d60048036038101906102589190614420565b610781565b60405161026a9190614712565b60405180910390f35b61028d600480360381019061028891906142ee565b61089c565b005b610297610c86565b6040516102a4919061486f565b60405180910390f35b6102c760048036038101906102c2919061417e565b610c93565b6040516102d491906147d0565b60405180910390f35b6102f760048036038101906102f291906141e3565b610d2a565b005b610313600480360381019061030e919061449d565b61118a565b6040516103219291906147a7565b60405180910390f35b610344600480360381019061033f91906142ee565b61123d565b604051610351919061486f565b60405180910390f35b610374600480360381019061036f919061432a565b611386565b005b610390600480360381019061038b91906141e3565b611632565b005b6103ac60048036038101906103a79190614420565b611652565b005b6103c860048036038101906103c39190614420565b61178a565b6040516103d5919061486f565b60405180910390f35b6103f860048036038101906103f39190614420565b611858565b6040516104059190614712565b60405180910390f35b6104286004803603810190610423919061417e565b61193e565b604051610435919061486f565b60405180910390f35b61045860048036038101906104539190614420565b6119f8565b005b610462611b2b565b60405161046f919061480d565b60405180910390f35b610480611b64565b60405161048d9190614712565b60405180910390f35b6104b060048036038101906104ab91906143df565b611b8e565b6040516104bd91906147f2565b60405180910390f35b6104ce611bc7565b6040516104db9190614712565b60405180910390f35b6104fe60048036038101906104f991906142ee565b611bed565b005b610508611ce4565b604051610515919061480d565b60405180910390f35b610538600480360381019061053391906142ee565b611d76565b005b610554600480360381019061054f91906142b2565b611e6d565b005b610570600480360381019061056b9190614232565b611f6a565b005b61058c6004803603810190610587919061417e565b611fc1565b604051610599919061486f565b60405180910390f35b6105bc60048036038101906105b79190614449565b611fd3565b005b6105d860048036038101906105d39190614420565b6122e6565b6040516105e5919061480d565b60405180910390f35b61060860048036038101906106039190614420565b612469565b604051610615919061480d565b60405180910390f35b610638600480360381019061063391906141a7565b6125ec565b60405161064591906147f2565b60405180910390f35b6106686004803603810190610663919061417e565b612680565b005b6106726128d2565b60405161067f919061480d565b60405180910390f35b6000806000837bffffffffffffffffffffffffffffffffffffffffffffffffffffffff19167bffffffffffffffffffffffffffffffffffffffffffffffffffffffff1916815260200190815260200160002060009054906101000a900460ff169050919050565b6060600980546106fe90614b20565b80601f016020809104026020016040519081016040528092919081815260200182805461072a90614b20565b80156107775780601f1061074c57610100808354040283529160200191610777565b820191906000526020600020905b81548152906001019060200180831161075a57829003601f168201915b5050505050905090565b600081600073ffffffffffffffffffffffffffffffffffffffff166001600083815260200190815260200160002060009054906101000a900473ffffffffffffffffffffffffffffffffffffffff1673ffffffffffffffffffffffffffffffffffffffff1614156040518060400160405280600481526020017f30333032000000000000000000000000000000000000000000000000000000008152509061085f576040517f08c379a0000000000000000000000000000000000000000000000000000000008152600401610856919061480d565b60405180910390fd5b506002600084815260200190815260200160002060009054906101000a900473ffffffffffffffffffffffffffffffffffffffff16915050919050565b8060006001600083815260200190815260200160002060009054906101000a900473ffffffffffffffffffffffffffffffffffffffff1690506108dd61290b565b73ffffffffffffffffffffffffffffffffffffffff168173ffffffffffffffffffffffffffffffffffffffff16148061099c5750600460008273ffffffffffffffffffffffffffffffffffffffff1673ffffffffffffffffffffffffffffffffffffffff16815260200190815260200160002060003373ffffffffffffffffffffffffffffffffffffffff1673ffffffffffffffffffffffffffffffffffffffff16815260200190815260200160002060009054906101000a900460ff165b6040518060400160405280600481526020017f303330330000000000000000000000000000000000000000000000000000000081525090610a13576040517f08c379a0000000000000000000000000000000000000000000000000000000008152600401610a0a919061480d565b60405180910390fd5b5082600073ffffffffffffffffffffffffffffffffffffffff166001600083815260200190815260200160002060009054906101000a900473ffffffffffffffffffffffffffffffffffffffff1673ffffffffffffffffffffffffffffffffffffffff1614156040518060400160405280600481526020017f303330320000000000000000000000000000000000000000000000000000000081525090610af0576040517f08c379a0000000000000000000000000000000000000000000000000000000008152600401610ae7919061480d565b60405180910390fd5b5060006001600086815260200190815260200160002060009054906101000a900473ffffffffffffffffffffffffffffffffffffffff1690508073ffffffffffffffffffffffffffffffffffffffff168673ffffffffffffffffffffffffffffffffffffffff1614156040518060400160405280600481526020017f303330380000000000000000000000000000000000000000000000000000000081525090610bd0576040517f08c379a0000000000000000000000000000000000000000000000000000000008152600401610bc7919061480d565b60405180910390fd5b50856002600087815260200190815260200160002060006101000a81548173ffffffffffffffffffffffffffffffffffffffff021916908373ffffffffffffffffffffffffffffffffffffffff160217905550848673ffffffffffffffffffffffffffffffffffffffff168273ffffffffffffffffffffffffffffffffffffffff167f8c5be1e5ebec7d5bd14f71427d1e84f3dd0314c0f7b2291e5b200ac8c7c3b92560405160405180910390a4505050505050565b6000600580549050905090565b6060600760008373ffffffffffffffffffffffffffffffffffffffff1673ffffffffffffffffffffffffffffffffffffffff168152602001908152602001600020805480602002602001604051908101604052809291908181526020018280548015610d1e57602002820191906000526020600020905b815481526020019060010190808311610d0a575b50505050509050919050565b8060006001600083815260200190815260200160002060009054906101000a900473ffffffffffffffffffffffffffffffffffffffff169050610d6b61290b565b73ffffffffffffffffffffffffffffffffffffffff168173ffffffffffffffffffffffffffffffffffffffff161480610e095750610da761290b565b73ffffffffffffffffffffffffffffffffffffffff166002600084815260200190815260200160002060009054906101000a900473ffffffffffffffffffffffffffffffffffffffff1673ffffffffffffffffffffffffffffffffffffffff16145b80610e9a5750600460008273ffffffffffffffffffffffffffffffffffffffff1673ffffffffffffffffffffffffffffffffffffffff16815260200190815260200160002060003373ffffffffffffffffffffffffffffffffffffffff1673ffffffffffffffffffffffffffffffffffffffff16815260200190815260200160002060009054906101000a900460ff165b6040518060400160405280600481526020017f303330340000000000000000000000000000000000000000000000000000000081525090610f11576040517f08c379a0000000000000000000000000000000000000000000000000000000008152600401610f08919061480d565b60405180910390fd5b5082600073ffffffffffffffffffffffffffffffffffffffff166001600083815260200190815260200160002060009054906101000a900473ffffffffffffffffffffffffffffffffffffffff1673ffffffffffffffffffffffffffffffffffffffff1614156040518060400160405280600481526020017f303330320000000000000000000000000000000000000000000000000000000081525090610fee576040517f08c379a0000000000000000000000000000000000000000000000000000000008152600401610fe5919061480d565b60405180910390fd5b5060006001600086815260200190815260200160002060009054906101000a900473ffffffffffffffffffffffffffffffffffffffff1690508673ffffffffffffffffffffffffffffffffffffffff168173ffffffffffffffffffffffffffffffffffffffff16146040518060400160405280600481526020017f3033303700000000000000000000000000000000000000000000000000000000815250906110cd576040517f08c379a00000000000000000000000000000000000000000000000000000000081526004016110c4919061480d565b60405180910390fd5b50600073ffffffffffffffffffffffffffffffffffffffff168673ffffffffffffffffffffffffffffffffffffffff1614156040518060400160405280600481526020017f303330310000000000000000000000000000000000000000000000000000000081525090611176576040517f08c379a000000000000000000000000000000000000000000000000000000000815260040161116d919061480d565b60405180910390fd5b506111818686612913565b50505050505050565b6000806000600d60008681526020019081526020016000206040518060400160405290816000820160009054906101000a900473ffffffffffffffffffffffffffffffffffffffff1673ffffffffffffffffffffffffffffffffffffffff1673ffffffffffffffffffffffffffffffffffffffff1681526020016001820154815250509050806000015161271082602001518661122791906149cf565b611231919061499e565b92509250509250929050565b6000600760008473ffffffffffffffffffffffffffffffffffffffff1673ffffffffffffffffffffffffffffffffffffffff1681526020019081526020016000208054905082106040518060400160405280600481526020017f3032303100000000000000000000000000000000000000000000000000000000815250906112fb576040517f08c379a00000000000000000000000000000000000000000000000000000000081526004016112f2919061480d565b60405180910390fd5b50600760008473ffffffffffffffffffffffffffffffffffffffff1673ffffffffffffffffffffffffffffffffffffffff1681526020019081526020016000208281548110611373577f4e487b7100000000000000000000000000000000000000000000000000000000600052603260045260246000fd5b9060005260206000200154905092915050565b600c60009054906101000a900473ffffffffffffffffffffffffffffffffffffffff1673ffffffffffffffffffffffffffffffffffffffff163373ffffffffffffffffffffffffffffffffffffffff1614611416576040517f08c379a000000000000000000000000000000000000000000000000000000000815260040161140d9061484f565b60405180910390fd5b7f2d5a82cbc34270500c60b0532ca36cd4716c295bf0351b25835351664a3125bf600c60009054906101000a900473ffffffffffffffffffffffffffffffffffffffff166040516114679190614779565b60405180910390a161147984846129c8565b600061148484612a5c565b905080600b600086815260200190815260200160002090805190602001906114ad929190613f80565b5060008211156114c3576114c2848484612ad6565b5b600460008673ffffffffffffffffffffffffffffffffffffffff1673ffffffffffffffffffffffffffffffffffffffff1681526020019081526020016000206000600c60009054906101000a900473ffffffffffffffffffffffffffffffffffffffff1673ffffffffffffffffffffffffffffffffffffffff1673ffffffffffffffffffffffffffffffffffffffff16815260200190815260200160002060009054906101000a900460ff1661162b576001600460008773ffffffffffffffffffffffffffffffffffffffff1673ffffffffffffffffffffffffffffffffffffffff1681526020019081526020016000206000600c60009054906101000a900473ffffffffffffffffffffffffffffffffffffffff1673ffffffffffffffffffffffffffffffffffffffff1673ffffffffffffffffffffffffffffffffffffffff16815260200190815260200160002060006101000a81548160ff0219169083151502179055505b5050505050565b61164d83838360405180602001604052806000815250612bb2565b505050565b600c60009054906101000a900473ffffffffffffffffffffffffffffffffffffffff1673ffffffffffffffffffffffffffffffffffffffff163373ffffffffffffffffffffffffffffffffffffffff16146116e2576040517f08c379a00000000000000000000000000000000000000000000000000000000081526004016116d99061484f565b60405180910390fd5b7f2d5a82cbc34270500c60b0532ca36cd4716c295bf0351b25835351664a3125bf600c60009054906101000a900473ffffffffffffffffffffffffffffffffffffffff166040516117339190614779565b60405180910390a160405180602001604052806000815250600b60008381526020019081526020016000209080519060200190611771929190613f80565b5061177e81600080612ad6565b6117878161318e565b50565b600060058054905082106040518060400160405280600481526020017f30323031000000000000000000000000000000000000000000000000000000008152509061180b576040517f08c379a0000000000000000000000000000000000000000000000000000000008152600401611802919061480d565b60405180910390fd5b5060058281548110611846577f4e487b7100000000000000000000000000000000000000000000000000000000600052603260045260246000fd5b90600052602060002001549050919050565b60006001600083815260200190815260200160002060009054906101000a900473ffffffffffffffffffffffffffffffffffffffff169050600073ffffffffffffffffffffffffffffffffffffffff168173ffffffffffffffffffffffffffffffffffffffff1614156040518060400160405280600481526020017f303330320000000000000000000000000000000000000000000000000000000081525090611938576040517f08c379a000000000000000000000000000000000000000000000000000000000815260040161192f919061480d565b60405180910390fd5b50919050565b60008073ffffffffffffffffffffffffffffffffffffffff168273ffffffffffffffffffffffffffffffffffffffff1614156040518060400160405280600481526020017f3033303100000000000000000000000000000000000000000000000000000000815250906119e7576040517f08c379a00000000000000000000000000000000000000000000000000000000081526004016119de919061480d565b60405180910390fd5b506119f18261319a565b9050919050565b600c60009054906101000a900473ffffffffffffffffffffffffffffffffffffffff1673ffffffffffffffffffffffffffffffffffffffff163373ffffffffffffffffffffffffffffffffffffffff1614611a88576040517f08c379a0000000000000000000000000000000000000000000000000000000008152600401611a7f9061484f565b60405180910390fd5b7f2d5a82cbc34270500c60b0532ca36cd4716c295bf0351b25835351664a3125bf600c60009054906101000a900473ffffffffffffffffffffffffffffffffffffffff16604051611ad99190614779565b60405180910390a16202f1458114611af057600080fd5b600c60009054906101000a900473ffffffffffffffffffffffffffffffffffffffff1673ffffffffffffffffffffffffffffffffffffffff16ff5b6040518060400160405280600481526020017f303130320000000000000000000000000000000000000000000000000000000081525081565b6000600c60009054906101000a900473ffffffffffffffffffffffffffffffffffffffff16905090565b600080829050600181511015611ba8576000915050611bc2565b60c881511115611bbc576000915050611bc2565b60019150505b919050565b600c60009054906101000a900473ffffffffffffffffffffffffffffffffffffffff1681565b600c60009054906101000a900473ffffffffffffffffffffffffffffffffffffffff1673ffffffffffffffffffffffffffffffffffffffff163373ffffffffffffffffffffffffffffffffffffffff1614611c7d576040517f08c379a0000000000000000000000000000000000000000000000000000000008152600401611c749061484f565b60405180910390fd5b7f2d5a82cbc34270500c60b0532ca36cd4716c295bf0351b25835351664a3125bf600c60009054906101000a900473ffffffffffffffffffffffffffffffffffffffff16604051611cce9190614779565b60405180910390a1611ce082826131ac565b5050565b6060600a8054611cf390614b20565b80601f0160208091040260200160405190810160405280929190818152602001828054611d1f90614b20565b8015611d6c5780601f10611d4157610100808354040283529160200191611d6c565b820191906000526020600020905b815481529060010190602001808311611d4f57829003601f168201915b5050505050905090565b600c60009054906101000a900473ffffffffffffffffffffffffffffffffffffffff1673ffffffffffffffffffffffffffffffffffffffff163373ffffffffffffffffffffffffffffffffffffffff1614611e06576040517f08c379a0000000000000000000000000000000000000000000000000000000008152600401611dfd9061484f565b60405180910390fd5b7f2d5a82cbc34270500c60b0532ca36cd4716c295bf0351b25835351664a3125bf600c60009054906101000a900473ffffffffffffffffffffffffffffffffffffffff16604051611e579190614779565b60405180910390a1611e6982826131ba565b5050565b80600460003373ffffffffffffffffffffffffffffffffffffffff1673ffffffffffffffffffffffffffffffffffffffff16815260200190815260200160002060008473ffffffffffffffffffffffffffffffffffffffff1673ffffffffffffffffffffffffffffffffffffffff16815260200190815260200160002060006101000a81548160ff0219169083151502179055508173ffffffffffffffffffffffffffffffffffffffff163373ffffffffffffffffffffffffffffffffffffffff167f17307eab39ab6107e8899845ad3d59bd9653f200f220920489ca2b5937696c3183604051611f5e91906147f2565b60405180910390a35050565b611fba85858585858080601f016020809104026020016040519081016040528093929190818152602001838380828437600081840152601f19601f82011690508083019250505050505050612bb2565b5050505050565b6000611fcc8261319a565b9050919050565b81600073ffffffffffffffffffffffffffffffffffffffff166001600083815260200190815260200160002060009054906101000a900473ffffffffffffffffffffffffffffffffffffffff1673ffffffffffffffffffffffffffffffffffffffff1614156040518060400160405280600481526020017f3033303200000000000000000000000000000000000000000000000000000000815250906120af576040517f08c379a00000000000000000000000000000000000000000000000000000000081526004016120a6919061480d565b60405180910390fd5b5060006001600085815260200190815260200160002060009054906101000a900473ffffffffffffffffffffffffffffffffffffffff1690508073ffffffffffffffffffffffffffffffffffffffff1661210761290b565b73ffffffffffffffffffffffffffffffffffffffff16146040518060400160405280600481526020017f303330370000000000000000000000000000000000000000000000000000000081525090612195576040517f08c379a000000000000000000000000000000000000000000000000000000000815260040161218c919061480d565b60405180910390fd5b506000600e600086815260200190815260200160002080546121b690614b20565b9050146040518060400160405280600481526020017f303430320000000000000000000000000000000000000000000000000000000081525090612230576040517f08c379a0000000000000000000000000000000000000000000000000000000008152600401612227919061480d565b60405180910390fd5b50600061223c84611b8e565b9050806040518060400160405280600481526020017f3034303300000000000000000000000000000000000000000000000000000000815250906122b6576040517f08c379a00000000000000000000000000000000000000000000000000000000081526004016122ad919061480d565b60405180910390fd5b5083600e600087815260200190815260200160002090805190602001906122de929190613f80565b505050505050565b606081600073ffffffffffffffffffffffffffffffffffffffff166001600083815260200190815260200160002060009054906101000a900473ffffffffffffffffffffffffffffffffffffffff1673ffffffffffffffffffffffffffffffffffffffff1614156040518060400160405280600481526020017f3033303200000000000000000000000000000000000000000000000000000000815250906123c4576040517f08c379a00000000000000000000000000000000000000000000000000000000081526004016123bb919061480d565b60405180910390fd5b50600b600084815260200190815260200160002080546123e390614b20565b80601f016020809104026020016040519081016040528092919081815260200182805461240f90614b20565b801561245c5780601f106124315761010080835404028352916020019161245c565b820191906000526020600020905b81548152906001019060200180831161243f57829003601f168201915b5050505050915050919050565b606081600073ffffffffffffffffffffffffffffffffffffffff166001600083815260200190815260200160002060009054906101000a900473ffffffffffffffffffffffffffffffffffffffff1673ffffffffffffffffffffffffffffffffffffffff1614156040518060400160405280600481526020017f303330320000000000000000000000000000000000000000000000000000000081525090612547576040517f08c379a000000000000000000000000000000000000000000000000000000000815260040161253e919061480d565b60405180910390fd5b50600e6000848152602001908152602001600020805461256690614b20565b80601f016020809104026020016040519081016040528092919081815260200182805461259290614b20565b80156125df5780601f106125b4576101008083540402835291602001916125df565b820191906000526020600020905b8154815290600101906020018083116125c257829003601f168201915b5050505050915050919050565b6000600460008473ffffffffffffffffffffffffffffffffffffffff1673ffffffffffffffffffffffffffffffffffffffff16815260200190815260200160002060008373ffffffffffffffffffffffffffffffffffffffff1673ffffffffffffffffffffffffffffffffffffffff16815260200190815260200160002060009054906101000a900460ff16905092915050565b600c60009054906101000a900473ffffffffffffffffffffffffffffffffffffffff1673ffffffffffffffffffffffffffffffffffffffff163373ffffffffffffffffffffffffffffffffffffffff1614612710576040517f08c379a00000000000000000000000000000000000000000000000000000000081526004016127079061484f565b60405180910390fd5b7f2d5a82cbc34270500c60b0532ca36cd4716c295bf0351b25835351664a3125bf600c60009054906101000a900473ffffffffffffffffffffffffffffffffffffffff166040516127619190614779565b60405180910390a1600073ffffffffffffffffffffffffffffffffffffffff168173ffffffffffffffffffffffffffffffffffffffff1614156040518060400160405280600481526020017f303130320000000000000000000000000000000000000000000000000000000081525090612811576040517f08c379a0000000000000000000000000000000000000000000000000000000008152600401612808919061480d565b60405180910390fd5b508073ffffffffffffffffffffffffffffffffffffffff16600c60009054906101000a900473ffffffffffffffffffffffffffffffffffffffff1673ffffffffffffffffffffffffffffffffffffffff167f8be0079c531659141344cd1fd0a4f28419497f9722a3daafe3b4186f6b6457e060405160405180910390a380600c60006101000a81548173ffffffffffffffffffffffffffffffffffffffff021916908373ffffffffffffffffffffffffffffffffffffffff16021790555050565b6040518060400160405280600481526020017f303130310000000000000000000000000000000000000000000000000000000081525081565b600033905090565b60006001600083815260200190815260200160002060009054906101000a900473ffffffffffffffffffffffffffffffffffffffff169050612954826131c8565b61295e81836131ac565b61296883836131ba565b818373ffffffffffffffffffffffffffffffffffffffff168273ffffffffffffffffffffffffffffffffffffffff167fddf252ad1be2c89b69c2b068fc378daa952ba7f163c4a11628f55a4df523b3ef60405160405180910390a4505050565b6103e861ffff16600580549050106040518060400160405280600481526020017f303430310000000000000000000000000000000000000000000000000000000081525090612a4d576040517f08c379a0000000000000000000000000000000000000000000000000000000008152600401612a44919061480d565b60405180910390fd5b50612a588282613269565b5050565b60606000612a69836132c9565b905060006040518060400160405280601081526020017f697066733a2f2f46303137303132323000000000000000000000000000000000815250905060008183604051602001612aba9291906146ee565b6040516020818303038152906040529050809350505050919050565b612710811115612b1b576040517f08c379a0000000000000000000000000000000000000000000000000000000008152600401612b129061482f565b60405180910390fd5b60405180604001604052808373ffffffffffffffffffffffffffffffffffffffff16815260200182815250600d600085815260200190815260200160002060008201518160000160006101000a81548173ffffffffffffffffffffffffffffffffffffffff021916908373ffffffffffffffffffffffffffffffffffffffff16021790555060208201518160010155905050505050565b8160006001600083815260200190815260200160002060009054906101000a900473ffffffffffffffffffffffffffffffffffffffff169050612bf361290b565b73ffffffffffffffffffffffffffffffffffffffff168173ffffffffffffffffffffffffffffffffffffffff161480612c915750612c2f61290b565b73ffffffffffffffffffffffffffffffffffffffff166002600084815260200190815260200160002060009054906101000a900473ffffffffffffffffffffffffffffffffffffffff1673ffffffffffffffffffffffffffffffffffffffff16145b80612d225750600460008273ffffffffffffffffffffffffffffffffffffffff1673ffffffffffffffffffffffffffffffffffffffff16815260200190815260200160002060003373ffffffffffffffffffffffffffffffffffffffff1673ffffffffffffffffffffffffffffffffffffffff16815260200190815260200160002060009054906101000a900460ff165b6040518060400160405280600481526020017f303330340000000000000000000000000000000000000000000000000000000081525090612d99576040517f08c379a0000000000000000000000000000000000000000000000000000000008152600401612d90919061480d565b60405180910390fd5b5083600073ffffffffffffffffffffffffffffffffffffffff166001600083815260200190815260200160002060009054906101000a900473ffffffffffffffffffffffffffffffffffffffff1673ffffffffffffffffffffffffffffffffffffffff1614156040518060400160405280600481526020017f303330320000000000000000000000000000000000000000000000000000000081525090612e76576040517f08c379a0000000000000000000000000000000000000000000000000000000008152600401612e6d919061480d565b60405180910390fd5b5060006001600087815260200190815260200160002060009054906101000a900473ffffffffffffffffffffffffffffffffffffffff1690508773ffffffffffffffffffffffffffffffffffffffff168173ffffffffffffffffffffffffffffffffffffffff16146040518060400160405280600481526020017f303330370000000000000000000000000000000000000000000000000000000081525090612f55576040517f08c379a0000000000000000000000000000000000000000000000000000000008152600401612f4c919061480d565b60405180910390fd5b50600073ffffffffffffffffffffffffffffffffffffffff168773ffffffffffffffffffffffffffffffffffffffff1614156040518060400160405280600481526020017f303330310000000000000000000000000000000000000000000000000000000081525090612ffe576040517f08c379a0000000000000000000000000000000000000000000000000000000008152600401612ff5919061480d565b60405180910390fd5b506130098787612913565b6130288773ffffffffffffffffffffffffffffffffffffffff1661349b565b156131845760008773ffffffffffffffffffffffffffffffffffffffff1663150b7a02338b8a8a6040518563ffffffff1660e01b815260040161306e949392919061472d565b602060405180830381600087803b15801561308857600080fd5b505af115801561309c573d6000803e3d6000fd5b505050506040513d601f19601f820116820180604052508101906130c091906143b6565b905063150b7a0260e01b7bffffffffffffffffffffffffffffffffffffffffffffffffffffffff1916817bffffffffffffffffffffffffffffffffffffffffffffffffffffffff1916146040518060400160405280600481526020017f303330350000000000000000000000000000000000000000000000000000000081525090613181576040517f08c379a0000000000000000000000000000000000000000000000000000000008152600401613178919061480d565b60405180910390fd5b50505b5050505050505050565b613197816134e6565b50565b60006131a582613539565b9050919050565b6131b68282613585565b5050565b6131c482826138be565b5050565b600073ffffffffffffffffffffffffffffffffffffffff166002600083815260200190815260200160002060009054906101000a900473ffffffffffffffffffffffffffffffffffffffff1673ffffffffffffffffffffffffffffffffffffffff1614613266576002600082815260200190815260200160002060006101000a81549073ffffffffffffffffffffffffffffffffffffffff02191690555b50565b6132738282613abb565b600581908060018154018082558091505060019003906000526020600020016000909190919091505560016005805490506132ae9190614a29565b60066000838152602001908152602001600020819055505050565b606060008214156040518060400160405280600481526020017f303430340000000000000000000000000000000000000000000000000000000081525090613347576040517f08c379a000000000000000000000000000000000000000000000000000000000815260040161333e919061480d565b60405180910390fd5b506000604067ffffffffffffffff81111561338b577f4e487b7100000000000000000000000000000000000000000000000000000000600052604160045260246000fd5b6040519080825280601f01601f1916602001820160405280156133bd5781602001600182028036833780820191505090505b50905060005b6040811015613491576000600f85169050600981116133f1578060306133e99190614967565b60f81b613402565b8060376133fe9190614967565b60f81b5b8383603f6134109190614a29565b81518110613447577f4e487b7100000000000000000000000000000000000000000000000000000000600052603260045260246000fd5b60200101907effffffffffffffffffffffffffffffffffffffffffffffffffffffffffffff1916908160001a905350600485901c945050808061348990614b52565b9150506133c3565b5080915050919050565b60008060007fc5d2460186f7233c927e7db2dcc703c0e500b653ca82273b7bfad8045d85a47060001b9050833f91506000801b82141580156134dd5750808214155b92505050919050565b6134ef81613ca9565b6000600b6000838152602001908152602001600020805461350f90614b20565b90501461353657600b600082815260200190815260200160002060006135359190614006565b5b50565b6000600760008373ffffffffffffffffffffffffffffffffffffffff1673ffffffffffffffffffffffffffffffffffffffff168152602001908152602001600020805490509050919050565b8173ffffffffffffffffffffffffffffffffffffffff166001600083815260200190815260200160002060009054906101000a900473ffffffffffffffffffffffffffffffffffffffff1673ffffffffffffffffffffffffffffffffffffffff16146040518060400160405280600481526020017f30333037000000000000000000000000000000000000000000000000000000008152509061365e576040517f08c379a0000000000000000000000000000000000000000000000000000000008152600401613655919061480d565b60405180910390fd5b506001600082815260200190815260200160002060006101000a81549073ffffffffffffffffffffffffffffffffffffffff021916905560006008600083815260200190815260200160002054905060006001600760008673ffffffffffffffffffffffffffffffffffffffff1673ffffffffffffffffffffffffffffffffffffffff168152602001908152602001600020805490506136fe9190614a29565b905081811461382d576000600760008673ffffffffffffffffffffffffffffffffffffffff1673ffffffffffffffffffffffffffffffffffffffff1681526020019081526020016000208281548110613780577f4e487b7100000000000000000000000000000000000000000000000000000000600052603260045260246000fd5b9060005260206000200154905080600760008773ffffffffffffffffffffffffffffffffffffffff1673ffffffffffffffffffffffffffffffffffffffff1681526020019081526020016000208481548110613805577f4e487b7100000000000000000000000000000000000000000000000000000000600052603260045260246000fd5b9060005260206000200181905550826008600083815260200190815260200160002081905550505b600760008573ffffffffffffffffffffffffffffffffffffffff1673ffffffffffffffffffffffffffffffffffffffff1681526020019081526020016000208054806138a2577f4e487b7100000000000000000000000000000000000000000000000000000000600052603160045260246000fd5b6001900381819060005260206000200160009055905550505050565b600073ffffffffffffffffffffffffffffffffffffffff166001600083815260200190815260200160002060009054906101000a900473ffffffffffffffffffffffffffffffffffffffff1673ffffffffffffffffffffffffffffffffffffffff16146040518060400160405280600481526020017f303330360000000000000000000000000000000000000000000000000000000081525090613998576040517f08c379a000000000000000000000000000000000000000000000000000000000815260040161398f919061480d565b60405180910390fd5b50816001600083815260200190815260200160002060006101000a81548173ffffffffffffffffffffffffffffffffffffffff021916908373ffffffffffffffffffffffffffffffffffffffff160217905550600760008373ffffffffffffffffffffffffffffffffffffffff1673ffffffffffffffffffffffffffffffffffffffff1681526020019081526020016000208190806001815401808255809150506001900390600052602060002001600090919091909150556001600760008473ffffffffffffffffffffffffffffffffffffffff1673ffffffffffffffffffffffffffffffffffffffff16815260200190815260200160002080549050613aa09190614a29565b60086000838152602001908152602001600020819055505050565b600073ffffffffffffffffffffffffffffffffffffffff168273ffffffffffffffffffffffffffffffffffffffff1614156040518060400160405280600481526020017f303330310000000000000000000000000000000000000000000000000000000081525090613b63576040517f08c379a0000000000000000000000000000000000000000000000000000000008152600401613b5a919061480d565b60405180910390fd5b50600073ffffffffffffffffffffffffffffffffffffffff166001600083815260200190815260200160002060009054906101000a900473ffffffffffffffffffffffffffffffffffffffff1673ffffffffffffffffffffffffffffffffffffffff16146040518060400160405280600481526020017f303330360000000000000000000000000000000000000000000000000000000081525090613c3e576040517f08c379a0000000000000000000000000000000000000000000000000000000008152600401613c35919061480d565b60405180910390fd5b50613c4982826131ba565b808273ffffffffffffffffffffffffffffffffffffffff16600073ffffffffffffffffffffffffffffffffffffffff167fddf252ad1be2c89b69c2b068fc378daa952ba7f163c4a11628f55a4df523b3ef60405160405180910390a45050565b613cb281613df7565b60006006600083815260200190815260200160002054905060006001600580549050613cde9190614a29565b9050600060058281548110613d1c577f4e487b7100000000000000000000000000000000000000000000000000000000600052603260045260246000fd5b906000526020600020015490508060058481548110613d64577f4e487b7100000000000000000000000000000000000000000000000000000000600052603260045260246000fd5b90600052602060002001819055506005805480613daa577f4e487b7100000000000000000000000000000000000000000000000000000000600052603160045260246000fd5b600190038181906000526020600020016000905590558260066000838152602001908152602001600020819055506000600660008681526020019081526020016000208190555050505050565b80600073ffffffffffffffffffffffffffffffffffffffff166001600083815260200190815260200160002060009054906101000a900473ffffffffffffffffffffffffffffffffffffffff1673ffffffffffffffffffffffffffffffffffffffff1614156040518060400160405280600481526020017f303330320000000000000000000000000000000000000000000000000000000081525090613ed3576040517f08c379a0000000000000000000000000000000000000000000000000000000008152600401613eca919061480d565b60405180910390fd5b5060006001600084815260200190815260200160002060009054906101000a900473ffffffffffffffffffffffffffffffffffffffff169050613f15836131c8565b613f1f81846131ac565b82600073ffffffffffffffffffffffffffffffffffffffff168273ffffffffffffffffffffffffffffffffffffffff167fddf252ad1be2c89b69c2b068fc378daa952ba7f163c4a11628f55a4df523b3ef60405160405180910390a4505050565b828054613f8c90614b20565b90600052602060002090601f016020900481019282613fae5760008555613ff5565b82601f10613fc757805160ff1916838001178555613ff5565b82800160010185558215613ff5579182015b82811115613ff4578251825591602001919060010190613fd9565b5b5090506140029190614046565b5090565b50805461401290614b20565b6000825580601f106140245750614043565b601f0160209004906000526020600020908101906140429190614046565b5b50565b5b8082111561405f576000816000905550600101614047565b5090565b6000614076614071846148bb565b61488a565b90508281526020810184848401111561408e57600080fd5b614099848285614ade565b509392505050565b6000813590506140b081614c68565b92915050565b6000813590506140c581614c7f565b92915050565b6000813590506140da81614c96565b92915050565b6000815190506140ef81614c96565b92915050565b60008083601f84011261410757600080fd5b8235905067ffffffffffffffff81111561412057600080fd5b60208301915083600182028301111561413857600080fd5b9250929050565b600082601f83011261415057600080fd5b8135614160848260208601614063565b91505092915050565b60008135905061417881614cad565b92915050565b60006020828403121561419057600080fd5b600061419e848285016140a1565b91505092915050565b600080604083850312156141ba57600080fd5b60006141c8858286016140a1565b92505060206141d9858286016140a1565b9150509250929050565b6000806000606084860312156141f857600080fd5b6000614206868287016140a1565b9350506020614217868287016140a1565b925050604061422886828701614169565b9150509250925092565b60008060008060006080868803121561424a57600080fd5b6000614258888289016140a1565b9550506020614269888289016140a1565b945050604061427a88828901614169565b935050606086013567ffffffffffffffff81111561429757600080fd5b6142a3888289016140f5565b92509250509295509295909350565b600080604083850312156142c557600080fd5b60006142d3858286016140a1565b92505060206142e4858286016140b6565b9150509250929050565b6000806040838503121561430157600080fd5b600061430f858286016140a1565b925050602061432085828601614169565b9150509250929050565b6000806000806080858703121561434057600080fd5b600061434e878288016140a1565b945050602061435f87828801614169565b9350506040614370878288016140a1565b925050606061438187828801614169565b91505092959194509250565b60006020828403121561439f57600080fd5b60006143ad848285016140cb565b91505092915050565b6000602082840312156143c857600080fd5b60006143d6848285016140e0565b91505092915050565b6000602082840312156143f157600080fd5b600082013567ffffffffffffffff81111561440b57600080fd5b6144178482850161413f565b91505092915050565b60006020828403121561443257600080fd5b600061444084828501614169565b91505092915050565b6000806040838503121561445c57600080fd5b600061446a85828601614169565b925050602083013567ffffffffffffffff81111561448757600080fd5b6144938582860161413f565b9150509250929050565b600080604083850312156144b057600080fd5b60006144be85828601614169565b92505060206144cf85828601614169565b9150509250929050565b60006144e583836146d0565b60208301905092915050565b6144fa81614a5d565b82525050565b600061450b826148fb565b6145158185614929565b9350614520836148eb565b8060005b8381101561455157815161453888826144d9565b97506145438361491c565b925050600181019050614524565b5085935050505092915050565b61456781614a6f565b82525050565b600061457882614906565b614582818561493a565b9350614592818560208601614aed565b61459b81614c57565b840191505092915050565b60006145b182614911565b6145bb818561494b565b93506145cb818560208601614aed565b6145d481614c57565b840191505092915050565b60006145ea82614911565b6145f4818561495c565b9350614604818560208601614aed565b80840191505092915050565b600061461d601a8361494b565b91507f45524332393831526f79616c746965733a20546f6f20686967680000000000006000830152602082019050919050565b600061465d60098361494b565b91507f4e6f74206f776e657200000000000000000000000000000000000000000000006000830152602082019050919050565b600061469d601c8361494b565b91507f706173736564206f776e65727368697020726571756972656d656e74000000006000830152602082019050919050565b6146d981614ac7565b82525050565b6146e881614ac7565b82525050565b60006146fa82856145df565b915061470682846145df565b91508190509392505050565b600060208201905061472760008301846144f1565b92915050565b600060808201905061474260008301876144f1565b61474f60208301866144f1565b61475c60408301856146df565b818103606083015261476e818461456d565b905095945050505050565b600060408201905061478e60008301846144f1565b818103602083015261479f81614690565b905092915050565b60006040820190506147bc60008301856144f1565b6147c960208301846146df565b9392505050565b600060208201905081810360008301526147ea8184614500565b905092915050565b6000602082019050614807600083018461455e565b92915050565b6000602082019050818103600083015261482781846145a6565b905092915050565b6000602082019050818103600083015261484881614610565b9050919050565b6000602082019050818103600083015261486881614650565b9050919050565b600060208201905061488460008301846146df565b92915050565b6000604051905081810181811067ffffffffffffffff821117156148b1576148b0614c28565b5b8060405250919050565b600067ffffffffffffffff8211156148d6576148d5614c28565b5b601f19601f8301169050602081019050919050565b6000819050602082019050919050565b600081519050919050565b600081519050919050565b600081519050919050565b6000602082019050919050565b600082825260208201905092915050565b600082825260208201905092915050565b600082825260208201905092915050565b600081905092915050565b600061497282614ad1565b915061497d83614ad1565b92508260ff0382111561499357614992614b9b565b5b828201905092915050565b60006149a982614ac7565b91506149b483614ac7565b9250826149c4576149c3614bca565b5b828204905092915050565b60006149da82614ac7565b91506149e583614ac7565b9250817fffffffffffffffffffffffffffffffffffffffffffffffffffffffffffffffff0483118215151615614a1e57614a1d614b9b565b5b828202905092915050565b6000614a3482614ac7565b9150614a3f83614ac7565b925082821015614a5257614a51614b9b565b5b828203905092915050565b6000614a6882614aa7565b9050919050565b60008115159050919050565b60007fffffffff0000000000000000000000000000000000000000000000000000000082169050919050565b600073ffffffffffffffffffffffffffffffffffffffff82169050919050565b6000819050919050565b600060ff82169050919050565b82818337600083830152505050565b60005b83811015614b0b578082015181840152602081019050614af0565b83811115614b1a576000848401525b50505050565b60006002820490506001821680614b3857607f821691505b60208210811415614b4c57614b4b614bf9565b5b50919050565b6000614b5d82614ac7565b91507fffffffffffffffffffffffffffffffffffffffffffffffffffffffffffffffff821415614b9057614b8f614b9b565b5b600182019050919050565b7f4e487b7100000000000000000000000000000000000000000000000000000000600052601160045260246000fd5b7f4e487b7100000000000000000000000000000000000000000000000000000000600052601260045260246000fd5b7f4e487b7100000000000000000000000000000000000000000000000000000000600052602260045260246000fd5b7f4e487b7100000000000000000000000000000000000000000000000000000000600052604160045260246000fd5b6000601f19601f8301169050919050565b614c7181614a5d565b8114614c7c57600080fd5b50565b614c8881614a6f565b8114614c9357600080fd5b50565b614c9f81614a7b565b8114614caa57600080fd5b50565b614cb681614ac7565b8114614cc157600080fd5b5056fea264697066735822122060f0f38051ea57c3beab8ec8416e930999a6981a36a90fed39171468c3d56e5864736f6c63430008000033",
  "linkReferences": {},
  "deployedLinkReferences": {}
}