{
  "_format": "hh-sol-artifact-1",
  "contractName": "NoMoreWarOnDrugs",
  "sourceName": "contracts/NoMoreWarOnDrugs.sol",
  "abi": [
    {
      "inputs": [
        {
          "internalType": "string",
          "name": "_name",
          "type": "string"
        },
        {
          "internalType": "string",
          "name": "_symbol",
          "type": "string"
        }
      ],
      "stateMutability": "nonpayable",
      "type": "constructor"
    },
    {
      "anonymous": false,
      "inputs": [
        {
          "indexed": true,
          "internalType": "address",
          "name": "_owner",
          "type": "address"
        },
        {
          "indexed": true,
          "internalType": "address",
          "name": "_approved",
          "type": "address"
        },
        {
          "indexed": true,
          "internalType": "uint256",
          "name": "_tokenId",
          "type": "uint256"
        }
      ],
      "name": "Approval",
      "type": "event"
    },
    {
      "anonymous": false,
      "inputs": [
        {
          "indexed": true,
          "internalType": "address",
          "name": "_owner",
          "type": "address"
        },
        {
          "indexed": true,
          "internalType": "address",
          "name": "_operator",
          "type": "address"
        },
        {
          "indexed": false,
          "internalType": "bool",
          "name": "_approved",
          "type": "bool"
        }
      ],
      "name": "ApprovalForAll",
      "type": "event"
    },
    {
      "anonymous": false,
      "inputs": [
        {
          "indexed": true,
          "internalType": "address",
          "name": "previousOwner",
          "type": "address"
        },
        {
          "indexed": true,
          "internalType": "address",
          "name": "newOwner",
          "type": "address"
        }
      ],
      "name": "OwnershipTransferred",
      "type": "event"
    },
    {
      "anonymous": false,
      "inputs": [
        {
          "indexed": true,
          "internalType": "address",
          "name": "_from",
          "type": "address"
        },
        {
          "indexed": true,
          "internalType": "address",
          "name": "_to",
          "type": "address"
        },
        {
          "indexed": true,
          "internalType": "uint256",
          "name": "_tokenId",
          "type": "uint256"
        }
      ],
      "name": "Transfer",
      "type": "event"
    },
    {
      "anonymous": false,
      "inputs": [
        {
          "indexed": false,
          "internalType": "address",
          "name": "deliveredTo",
          "type": "address"
        },
        {
          "indexed": false,
          "internalType": "string",
          "name": "msg",
          "type": "string"
        }
      ],
      "name": "_msg",
      "type": "event"
    },
    {
      "inputs": [],
      "name": "CANNOT_TRANSFER_TO_ZERO_ADDRESS",
      "outputs": [
        {
          "internalType": "string",
          "name": "",
          "type": "string"
        }
      ],
      "stateMutability": "view",
      "type": "function"
    },
    {
      "inputs": [],
      "name": "NOT_CURRENT_OWNER",
      "outputs": [
        {
          "internalType": "string",
          "name": "",
          "type": "string"
        }
      ],
      "stateMutability": "view",
      "type": "function"
    },
    {
      "inputs": [
        {
          "internalType": "address",
          "name": "_to",
          "type": "address"
        },
        {
          "internalType": "uint256",
          "name": "_tokenId",
          "type": "uint256"
        }
      ],
      "name": "addNFToken",
      "outputs": [],
      "stateMutability": "nonpayable",
      "type": "function"
    },
    {
      "inputs": [
        {
          "internalType": "address",
          "name": "_approved",
          "type": "address"
        },
        {
          "internalType": "uint256",
          "name": "_tokenId",
          "type": "uint256"
        }
      ],
      "name": "approve",
      "outputs": [],
      "stateMutability": "nonpayable",
      "type": "function"
    },
    {
      "inputs": [
        {
          "internalType": "address",
          "name": "_owner",
          "type": "address"
        }
      ],
      "name": "balanceOf",
      "outputs": [
        {
          "internalType": "uint256",
          "name": "",
          "type": "uint256"
        }
      ],
      "stateMutability": "view",
      "type": "function"
    },
    {
      "inputs": [
        {
          "internalType": "uint256",
          "name": "_tokenId",
          "type": "uint256"
        }
      ],
      "name": "burn",
      "outputs": [],
      "stateMutability": "nonpayable",
      "type": "function"
    },
    {
      "inputs": [
        {
          "internalType": "uint256",
          "name": "_tokenId",
          "type": "uint256"
        }
      ],
      "name": "getApproved",
      "outputs": [
        {
          "internalType": "address",
          "name": "",
          "type": "address"
        }
      ],
      "stateMutability": "view",
      "type": "function"
    },
    {
      "inputs": [
        {
          "internalType": "address",
          "name": "_address",
          "type": "address"
        }
      ],
      "name": "getNFTsByAddress",
      "outputs": [
        {
          "internalType": "uint256[]",
          "name": "",
          "type": "uint256[]"
        }
      ],
      "stateMutability": "view",
      "type": "function"
    },
    {
      "inputs": [
        {
          "internalType": "address",
          "name": "_owner",
          "type": "address"
        }
      ],
      "name": "getOwnerNFTCount",
      "outputs": [
        {
          "internalType": "uint256",
          "name": "",
          "type": "uint256"
        }
      ],
      "stateMutability": "view",
      "type": "function"
    },
    {
      "inputs": [
        {
          "internalType": "address",
          "name": "_owner",
          "type": "address"
        },
        {
          "internalType": "address",
          "name": "_operator",
          "type": "address"
        }
      ],
      "name": "isApprovedForAll",
      "outputs": [
        {
          "internalType": "bool",
          "name": "",
          "type": "bool"
        }
      ],
      "stateMutability": "view",
      "type": "function"
    },
    {
      "inputs": [
        {
          "internalType": "address",
          "name": "_to",
          "type": "address"
        },
        {
          "internalType": "uint256",
          "name": "_tokenId",
          "type": "uint256"
        },
        {
          "internalType": "string",
          "name": "_uri",
          "type": "string"
        }
      ],
      "name": "mint",
      "outputs": [],
      "stateMutability": "nonpayable",
      "type": "function"
    },
    {
      "inputs": [],
      "name": "name",
      "outputs": [
        {
          "internalType": "string",
          "name": "_name",
          "type": "string"
        }
      ],
      "stateMutability": "view",
      "type": "function"
    },
    {
      "inputs": [],
      "name": "owner",
      "outputs": [
        {
          "internalType": "address",
          "name": "",
          "type": "address"
        }
      ],
      "stateMutability": "view",
      "type": "function"
    },
    {
      "inputs": [
        {
          "internalType": "uint256",
          "name": "_tokenId",
          "type": "uint256"
        }
      ],
      "name": "ownerOf",
      "outputs": [
        {
          "internalType": "address",
          "name": "_owner",
          "type": "address"
        }
      ],
      "stateMutability": "view",
      "type": "function"
    },
    {
      "inputs": [
        {
          "internalType": "address",
          "name": "_from",
          "type": "address"
        },
        {
          "internalType": "uint256",
          "name": "_tokenId",
          "type": "uint256"
        }
      ],
      "name": "removeNFToken",
      "outputs": [],
      "stateMutability": "nonpayable",
      "type": "function"
    },
    {
      "inputs": [
        {
          "internalType": "address",
          "name": "_from",
          "type": "address"
        },
        {
          "internalType": "address",
          "name": "_to",
          "type": "address"
        },
        {
          "internalType": "uint256",
          "name": "_tokenId",
          "type": "uint256"
        }
      ],
      "name": "safeTransferFrom",
      "outputs": [],
      "stateMutability": "nonpayable",
      "type": "function"
    },
    {
      "inputs": [
        {
          "internalType": "address",
          "name": "_from",
          "type": "address"
        },
        {
          "internalType": "address",
          "name": "_to",
          "type": "address"
        },
        {
          "internalType": "uint256",
          "name": "_tokenId",
          "type": "uint256"
        },
        {
          "internalType": "bytes",
          "name": "_data",
          "type": "bytes"
        }
      ],
      "name": "safeTransferFrom",
      "outputs": [],
      "stateMutability": "nonpayable",
      "type": "function"
    },
    {
      "inputs": [
        {
          "internalType": "address",
          "name": "_operator",
          "type": "address"
        },
        {
          "internalType": "bool",
          "name": "_approved",
          "type": "bool"
        }
      ],
      "name": "setApprovalForAll",
      "outputs": [],
      "stateMutability": "nonpayable",
      "type": "function"
    },
    {
      "inputs": [
        {
          "internalType": "uint256",
          "name": "_tokenId",
          "type": "uint256"
        },
        {
          "internalType": "string",
          "name": "_msg",
          "type": "string"
        }
      ],
      "name": "setTokenMessage",
      "outputs": [],
      "stateMutability": "nonpayable",
      "type": "function"
    },
    {
      "inputs": [
        {
          "internalType": "bytes4",
          "name": "_interfaceID",
          "type": "bytes4"
        }
      ],
      "name": "supportsInterface",
      "outputs": [
        {
          "internalType": "bool",
          "name": "",
          "type": "bool"
        }
      ],
      "stateMutability": "view",
      "type": "function"
    },
    {
      "inputs": [],
      "name": "symbol",
      "outputs": [
        {
          "internalType": "string",
          "name": "_symbol",
          "type": "string"
        }
      ],
      "stateMutability": "view",
      "type": "function"
    },
    {
      "inputs": [
        {
          "internalType": "uint256",
          "name": "_index",
          "type": "uint256"
        }
      ],
      "name": "tokenByIndex",
      "outputs": [
        {
          "internalType": "uint256",
          "name": "",
          "type": "uint256"
        }
      ],
      "stateMutability": "view",
      "type": "function"
    },
    {
      "inputs": [
        {
          "internalType": "uint256",
          "name": "_tokenId",
          "type": "uint256"
        }
      ],
      "name": "tokenMessage",
      "outputs": [
        {
          "internalType": "string",
          "name": "",
          "type": "string"
        }
      ],
      "stateMutability": "view",
      "type": "function"
    },
    {
      "inputs": [
        {
          "internalType": "address",
          "name": "_owner",
          "type": "address"
        },
        {
          "internalType": "uint256",
          "name": "_index",
          "type": "uint256"
        }
      ],
      "name": "tokenOfOwnerByIndex",
      "outputs": [
        {
          "internalType": "uint256",
          "name": "",
          "type": "uint256"
        }
      ],
      "stateMutability": "view",
      "type": "function"
    },
    {
      "inputs": [
        {
          "internalType": "uint256",
          "name": "_tokenId",
          "type": "uint256"
        }
      ],
      "name": "tokenURI",
      "outputs": [
        {
          "internalType": "string",
          "name": "",
          "type": "string"
        }
      ],
      "stateMutability": "view",
      "type": "function"
    },
    {
      "inputs": [],
      "name": "totalSupply",
      "outputs": [
        {
          "internalType": "uint256",
          "name": "",
          "type": "uint256"
        }
      ],
      "stateMutability": "view",
      "type": "function"
    },
    {
      "inputs": [
        {
          "internalType": "address",
          "name": "_from",
          "type": "address"
        },
        {
          "internalType": "address",
          "name": "_to",
          "type": "address"
        },
        {
          "internalType": "uint256",
          "name": "_tokenId",
          "type": "uint256"
        }
      ],
      "name": "transferFrom",
      "outputs": [],
      "stateMutability": "nonpayable",
      "type": "function"
    },
    {
      "inputs": [
        {
          "internalType": "address",
          "name": "_newOwner",
          "type": "address"
        }
      ],
      "name": "transferOwnership",
      "outputs": [],
      "stateMutability": "nonpayable",
      "type": "function"
    },
    {
      "inputs": [
        {
          "internalType": "string",
          "name": "_msg",
          "type": "string"
        }
      ],
      "name": "validateMsg",
      "outputs": [
        {
          "internalType": "bool",
          "name": "",
          "type": "bool"
        }
      ],
      "stateMutability": "pure",
      "type": "function"
    }
  ],
  "bytecode": "0x60806040523480156200001157600080fd5b506040516200497638038062004976833981810160405281019062000037919062000385565b60016000806301ffc9a760e01b7bffffffffffffffffffffffffffffffffffffffffffffffffffffffff1916815260200190815260200160002060006101000a81548160ff02191690831515021790555060016000806380ac58cd60e01b7bffffffffffffffffffffffffffffffffffffffffffffffffffffffff1916815260200190815260200160002060006101000a81548160ff021916908315150217905550600160008063780e9d6360e01b7bffffffffffffffffffffffffffffffffffffffffffffffffffffffff1916815260200190815260200160002060006101000a81548160ff0219169083151502179055506001600080635b5e139f60e01b7bffffffffffffffffffffffffffffffffffffffffffffffffffffffff1916815260200190815260200160002060006101000a81548160ff0219169083151502179055506200018b620001c560201b60201c565b8160099080519060200190620001a392919062000263565b5080600a9080519060200190620001bc92919062000263565b505050620005f3565b33600c60006101000a81548173ffffffffffffffffffffffffffffffffffffffff021916908373ffffffffffffffffffffffffffffffffffffffff1602179055507f2d5a82cbc34270500c60b0532ca36cd4716c295bf0351b25835351664a3125bf600c60009054906101000a900473ffffffffffffffffffffffffffffffffffffffff166040516200025991906200044b565b60405180910390a1565b82805462000271906200055f565b90600052602060002090601f016020900481019282620002955760008555620002e1565b82601f10620002b057805160ff1916838001178555620002e1565b82800160010185558215620002e1579182015b82811115620002e0578251825591602001919060010190620002c3565b5b509050620002f09190620002f4565b5090565b5b808211156200030f576000816000905550600101620002f5565b5090565b60006200032a6200032484620004b1565b6200047d565b9050828152602081018484840111156200034357600080fd5b6200035084828562000529565b509392505050565b600082601f8301126200036a57600080fd5b81516200037c84826020860162000313565b91505092915050565b600080604083850312156200039957600080fd5b600083015167ffffffffffffffff811115620003b457600080fd5b620003c28582860162000358565b925050602083015167ffffffffffffffff811115620003e057600080fd5b620003ee8582860162000358565b9150509250929050565b6200040381620004f5565b82525050565b600062000418600983620004e4565b91507f736574206f776e657200000000000000000000000000000000000000000000006000830152602082019050919050565b6000604082019050620004626000830184620003f8565b8181036020830152620004758162000409565b905092915050565b6000604051905081810181811067ffffffffffffffff82111715620004a757620004a6620005c4565b5b8060405250919050565b600067ffffffffffffffff821115620004cf57620004ce620005c4565b5b601f19601f8301169050602081019050919050565b600082825260208201905092915050565b6000620005028262000509565b9050919050565b600073ffffffffffffffffffffffffffffffffffffffff82169050919050565b60005b83811015620005495780820151818401526020810190506200052c565b8381111562000559576000848401525b50505050565b600060028204905060018216806200057857607f821691505b602082108114156200058f576200058e62000595565b5b50919050565b7f4e487b7100000000000000000000000000000000000000000000000000000000600052602260045260246000fd5b7f4e487b7100000000000000000000000000000000000000000000000000000000600052604160045260246000fd5b61437380620006036000396000f3fe608060405234801561001057600080fd5b50600436106101cf5760003560e01c8063894b5b3c11610104578063bd7f4c8d116100a2578063e4b7baeb11610071578063e4b7baeb14610562578063e985e9c514610592578063f2fde38b146105c2578063f3fe3bc3146105de576101cf565b8063bd7f4c8d146104ca578063c2af674f146104fa578063c87b56dd14610516578063d3fc986414610546576101cf565b806395d89b41116100de57806395d89b41146104585780639c01e1f514610476578063a22cb46514610492578063b88d4fde146104ae576101cf565b8063894b5b3c146103ee5780638da5cb5b1461041e5780638f8470761461043c576101cf565b80632f745c59116101715780634f6ccce71161014b5780634f6ccce7146103405780636352211e1461037057806370a08231146103a0578063860d248a146103d0576101cf565b80632f745c59146102d857806342842e0e1461030857806342966c6814610324576101cf565b8063095ea7b3116101ad578063095ea7b31461025257806318160ddd1461026e5780631dadae8e1461028c57806323b872dd146102bc576101cf565b806301ffc9a7146101d457806306fdde0314610204578063081812fc14610222575b600080fd5b6101ee60048036038101906101e99190613c72565b6105fc565b6040516101fb9190613fdd565b60405180910390f35b61020c610663565b6040516102199190613ff8565b60405180910390f35b61023c60048036038101906102379190613d05565b6106f5565b6040516102499190613f26565b60405180910390f35b61026c60048036038101906102679190613bcf565b610810565b005b610276610bfa565b604051610283919061403a565b60405180910390f35b6102a660048036038101906102a19190613a5f565b610c07565b6040516102b39190613fbb565b60405180910390f35b6102d660048036038101906102d19190613ac4565b610c9e565b005b6102f260048036038101906102ed9190613bcf565b6110fe565b6040516102ff919061403a565b60405180910390f35b610322600480360381019061031d9190613ac4565b611247565b005b61033e60048036038101906103399190613d05565b611267565b005b61035a60048036038101906103559190613d05565b61135c565b604051610367919061403a565b60405180910390f35b61038a60048036038101906103859190613d05565b61142a565b6040516103979190613f26565b60405180910390f35b6103ba60048036038101906103b59190613a5f565b611510565b6040516103c7919061403a565b60405180910390f35b6103d86115ca565b6040516103e59190613ff8565b60405180910390f35b61040860048036038101906104039190613cc4565b611603565b6040516104159190613fdd565b60405180910390f35b61042661163c565b6040516104339190613f26565b60405180910390f35b61045660048036038101906104519190613bcf565b611662565b005b610460611759565b60405161046d9190613ff8565b60405180910390f35b610490600480360381019061048b9190613bcf565b6117eb565b005b6104ac60048036038101906104a79190613b93565b6118e2565b005b6104c860048036038101906104c39190613b13565b6119df565b005b6104e460048036038101906104df9190613a5f565b611a36565b6040516104f1919061403a565b60405180910390f35b610514600480360381019061050f9190613d2e565b611a48565b005b610530600480360381019061052b9190613d05565b611d5b565b60405161053d9190613ff8565b60405180910390f35b610560600480360381019061055b9190613c0b565b611ede565b005b61057c60048036038101906105779190613d05565b612072565b6040516105899190613ff8565b60405180910390f35b6105ac60048036038101906105a79190613a88565b6121f5565b6040516105b99190613fdd565b60405180910390f35b6105dc60048036038101906105d79190613a5f565b612289565b005b6105e66124db565b6040516105f39190613ff8565b60405180910390f35b6000806000837bffffffffffffffffffffffffffffffffffffffffffffffffffffffff19167bffffffffffffffffffffffffffffffffffffffffffffffffffffffff1916815260200190815260200160002060009054906101000a900460ff169050919050565b60606009805461067290614211565b80601f016020809104026020016040519081016040528092919081815260200182805461069e90614211565b80156106eb5780601f106106c0576101008083540402835291602001916106eb565b820191906000526020600020905b8154815290600101906020018083116106ce57829003601f168201915b5050505050905090565b600081600073ffffffffffffffffffffffffffffffffffffffff166001600083815260200190815260200160002060009054906101000a900473ffffffffffffffffffffffffffffffffffffffff1673ffffffffffffffffffffffffffffffffffffffff1614156040518060400160405280600481526020017f3033303200000000000000000000000000000000000000000000000000000000815250906107d3576040517f08c379a00000000000000000000000000000000000000000000000000000000081526004016107ca9190613ff8565b60405180910390fd5b506002600084815260200190815260200160002060009054906101000a900473ffffffffffffffffffffffffffffffffffffffff16915050919050565b8060006001600083815260200190815260200160002060009054906101000a900473ffffffffffffffffffffffffffffffffffffffff169050610851612514565b73ffffffffffffffffffffffffffffffffffffffff168173ffffffffffffffffffffffffffffffffffffffff1614806109105750600460008273ffffffffffffffffffffffffffffffffffffffff1673ffffffffffffffffffffffffffffffffffffffff16815260200190815260200160002060003373ffffffffffffffffffffffffffffffffffffffff1673ffffffffffffffffffffffffffffffffffffffff16815260200190815260200160002060009054906101000a900460ff165b6040518060400160405280600481526020017f303330330000000000000000000000000000000000000000000000000000000081525090610987576040517f08c379a000000000000000000000000000000000000000000000000000000000815260040161097e9190613ff8565b60405180910390fd5b5082600073ffffffffffffffffffffffffffffffffffffffff166001600083815260200190815260200160002060009054906101000a900473ffffffffffffffffffffffffffffffffffffffff1673ffffffffffffffffffffffffffffffffffffffff1614156040518060400160405280600481526020017f303330320000000000000000000000000000000000000000000000000000000081525090610a64576040517f08c379a0000000000000000000000000000000000000000000000000000000008152600401610a5b9190613ff8565b60405180910390fd5b5060006001600086815260200190815260200160002060009054906101000a900473ffffffffffffffffffffffffffffffffffffffff1690508073ffffffffffffffffffffffffffffffffffffffff168673ffffffffffffffffffffffffffffffffffffffff1614156040518060400160405280600481526020017f303330380000000000000000000000000000000000000000000000000000000081525090610b44576040517f08c379a0000000000000000000000000000000000000000000000000000000008152600401610b3b9190613ff8565b60405180910390fd5b50856002600087815260200190815260200160002060006101000a81548173ffffffffffffffffffffffffffffffffffffffff021916908373ffffffffffffffffffffffffffffffffffffffff160217905550848673ffffffffffffffffffffffffffffffffffffffff168273ffffffffffffffffffffffffffffffffffffffff167f8c5be1e5ebec7d5bd14f71427d1e84f3dd0314c0f7b2291e5b200ac8c7c3b92560405160405180910390a4505050505050565b6000600580549050905090565b6060600760008373ffffffffffffffffffffffffffffffffffffffff1673ffffffffffffffffffffffffffffffffffffffff168152602001908152602001600020805480602002602001604051908101604052809291908181526020018280548015610c9257602002820191906000526020600020905b815481526020019060010190808311610c7e575b50505050509050919050565b8060006001600083815260200190815260200160002060009054906101000a900473ffffffffffffffffffffffffffffffffffffffff169050610cdf612514565b73ffffffffffffffffffffffffffffffffffffffff168173ffffffffffffffffffffffffffffffffffffffff161480610d7d5750610d1b612514565b73ffffffffffffffffffffffffffffffffffffffff166002600084815260200190815260200160002060009054906101000a900473ffffffffffffffffffffffffffffffffffffffff1673ffffffffffffffffffffffffffffffffffffffff16145b80610e0e5750600460008273ffffffffffffffffffffffffffffffffffffffff1673ffffffffffffffffffffffffffffffffffffffff16815260200190815260200160002060003373ffffffffffffffffffffffffffffffffffffffff1673ffffffffffffffffffffffffffffffffffffffff16815260200190815260200160002060009054906101000a900460ff165b6040518060400160405280600481526020017f303330340000000000000000000000000000000000000000000000000000000081525090610e85576040517f08c379a0000000000000000000000000000000000000000000000000000000008152600401610e7c9190613ff8565b60405180910390fd5b5082600073ffffffffffffffffffffffffffffffffffffffff166001600083815260200190815260200160002060009054906101000a900473ffffffffffffffffffffffffffffffffffffffff1673ffffffffffffffffffffffffffffffffffffffff1614156040518060400160405280600481526020017f303330320000000000000000000000000000000000000000000000000000000081525090610f62576040517f08c379a0000000000000000000000000000000000000000000000000000000008152600401610f599190613ff8565b60405180910390fd5b5060006001600086815260200190815260200160002060009054906101000a900473ffffffffffffffffffffffffffffffffffffffff1690508673ffffffffffffffffffffffffffffffffffffffff168173ffffffffffffffffffffffffffffffffffffffff16146040518060400160405280600481526020017f303330370000000000000000000000000000000000000000000000000000000081525090611041576040517f08c379a00000000000000000000000000000000000000000000000000000000081526004016110389190613ff8565b60405180910390fd5b50600073ffffffffffffffffffffffffffffffffffffffff168673ffffffffffffffffffffffffffffffffffffffff1614156040518060400160405280600481526020017f3033303100000000000000000000000000000000000000000000000000000000815250906110ea576040517f08c379a00000000000000000000000000000000000000000000000000000000081526004016110e19190613ff8565b60405180910390fd5b506110f5868661251c565b50505050505050565b6000600760008473ffffffffffffffffffffffffffffffffffffffff1673ffffffffffffffffffffffffffffffffffffffff1681526020019081526020016000208054905082106040518060400160405280600481526020017f3032303100000000000000000000000000000000000000000000000000000000815250906111bc576040517f08c379a00000000000000000000000000000000000000000000000000000000081526004016111b39190613ff8565b60405180910390fd5b50600760008473ffffffffffffffffffffffffffffffffffffffff1673ffffffffffffffffffffffffffffffffffffffff1681526020019081526020016000208281548110611234577f4e487b7100000000000000000000000000000000000000000000000000000000600052603260045260246000fd5b9060005260206000200154905092915050565b611262838383604051806020016040528060008152506125d1565b505050565b600c60009054906101000a900473ffffffffffffffffffffffffffffffffffffffff1673ffffffffffffffffffffffffffffffffffffffff163373ffffffffffffffffffffffffffffffffffffffff16146112f7576040517f08c379a00000000000000000000000000000000000000000000000000000000081526004016112ee9061401a565b60405180910390fd5b7f2d5a82cbc34270500c60b0532ca36cd4716c295bf0351b25835351664a3125bf600c60009054906101000a900473ffffffffffffffffffffffffffffffffffffffff166040516113489190613f8d565b60405180910390a161135981612bad565b50565b600060058054905082106040518060400160405280600481526020017f3032303100000000000000000000000000000000000000000000000000000000815250906113dd576040517f08c379a00000000000000000000000000000000000000000000000000000000081526004016113d49190613ff8565b60405180910390fd5b5060058281548110611418577f4e487b7100000000000000000000000000000000000000000000000000000000600052603260045260246000fd5b90600052602060002001549050919050565b60006001600083815260200190815260200160002060009054906101000a900473ffffffffffffffffffffffffffffffffffffffff169050600073ffffffffffffffffffffffffffffffffffffffff168173ffffffffffffffffffffffffffffffffffffffff1614156040518060400160405280600481526020017f30333032000000000000000000000000000000000000000000000000000000008152509061150a576040517f08c379a00000000000000000000000000000000000000000000000000000000081526004016115019190613ff8565b60405180910390fd5b50919050565b60008073ffffffffffffffffffffffffffffffffffffffff168273ffffffffffffffffffffffffffffffffffffffff1614156040518060400160405280600481526020017f3033303100000000000000000000000000000000000000000000000000000000815250906115b9576040517f08c379a00000000000000000000000000000000000000000000000000000000081526004016115b09190613ff8565b60405180910390fd5b506115c382612bb9565b9050919050565b6040518060400160405280600481526020017f303130320000000000000000000000000000000000000000000000000000000081525081565b60008082905060018151101561161d576000915050611637565b60c881511115611631576000915050611637565b60019150505b919050565b600c60009054906101000a900473ffffffffffffffffffffffffffffffffffffffff1681565b600c60009054906101000a900473ffffffffffffffffffffffffffffffffffffffff1673ffffffffffffffffffffffffffffffffffffffff163373ffffffffffffffffffffffffffffffffffffffff16146116f2576040517f08c379a00000000000000000000000000000000000000000000000000000000081526004016116e99061401a565b60405180910390fd5b7f2d5a82cbc34270500c60b0532ca36cd4716c295bf0351b25835351664a3125bf600c60009054906101000a900473ffffffffffffffffffffffffffffffffffffffff166040516117439190613f8d565b60405180910390a16117558282612bcb565b5050565b6060600a805461176890614211565b80601f016020809104026020016040519081016040528092919081815260200182805461179490614211565b80156117e15780601f106117b6576101008083540402835291602001916117e1565b820191906000526020600020905b8154815290600101906020018083116117c457829003601f168201915b5050505050905090565b600c60009054906101000a900473ffffffffffffffffffffffffffffffffffffffff1673ffffffffffffffffffffffffffffffffffffffff163373ffffffffffffffffffffffffffffffffffffffff161461187b576040517f08c379a00000000000000000000000000000000000000000000000000000000081526004016118729061401a565b60405180910390fd5b7f2d5a82cbc34270500c60b0532ca36cd4716c295bf0351b25835351664a3125bf600c60009054906101000a900473ffffffffffffffffffffffffffffffffffffffff166040516118cc9190613f8d565b60405180910390a16118de8282612bd9565b5050565b80600460003373ffffffffffffffffffffffffffffffffffffffff1673ffffffffffffffffffffffffffffffffffffffff16815260200190815260200160002060008473ffffffffffffffffffffffffffffffffffffffff1673ffffffffffffffffffffffffffffffffffffffff16815260200190815260200160002060006101000a81548160ff0219169083151502179055508173ffffffffffffffffffffffffffffffffffffffff163373ffffffffffffffffffffffffffffffffffffffff167f17307eab39ab6107e8899845ad3d59bd9653f200f220920489ca2b5937696c31836040516119d39190613fdd565b60405180910390a35050565b611a2f85858585858080601f016020809104026020016040519081016040528093929190818152602001838380828437600081840152601f19601f820116905080830192505050505050506125d1565b5050505050565b6000611a4182612bb9565b9050919050565b81600073ffffffffffffffffffffffffffffffffffffffff166001600083815260200190815260200160002060009054906101000a900473ffffffffffffffffffffffffffffffffffffffff1673ffffffffffffffffffffffffffffffffffffffff1614156040518060400160405280600481526020017f303330320000000000000000000000000000000000000000000000000000000081525090611b24576040517f08c379a0000000000000000000000000000000000000000000000000000000008152600401611b1b9190613ff8565b60405180910390fd5b5060006001600085815260200190815260200160002060009054906101000a900473ffffffffffffffffffffffffffffffffffffffff1690508073ffffffffffffffffffffffffffffffffffffffff16611b7c612514565b73ffffffffffffffffffffffffffffffffffffffff16146040518060400160405280600481526020017f303330370000000000000000000000000000000000000000000000000000000081525090611c0a576040517f08c379a0000000000000000000000000000000000000000000000000000000008152600401611c019190613ff8565b60405180910390fd5b506000600d60008681526020019081526020016000208054611c2b90614211565b9050146040518060400160405280600481526020017f303430320000000000000000000000000000000000000000000000000000000081525090611ca5576040517f08c379a0000000000000000000000000000000000000000000000000000000008152600401611c9c9190613ff8565b60405180910390fd5b506000611cb184611603565b9050806040518060400160405280600481526020017f303430330000000000000000000000000000000000000000000000000000000081525090611d2b576040517f08c379a0000000000000000000000000000000000000000000000000000000008152600401611d229190613ff8565b60405180910390fd5b5083600d60008781526020019081526020016000209080519060200190611d53929190613861565b505050505050565b606081600073ffffffffffffffffffffffffffffffffffffffff166001600083815260200190815260200160002060009054906101000a900473ffffffffffffffffffffffffffffffffffffffff1673ffffffffffffffffffffffffffffffffffffffff1614156040518060400160405280600481526020017f303330320000000000000000000000000000000000000000000000000000000081525090611e39576040517f08c379a0000000000000000000000000000000000000000000000000000000008152600401611e309190613ff8565b60405180910390fd5b50600b60008481526020019081526020016000208054611e5890614211565b80601f0160208091040260200160405190810160405280929190818152602001828054611e8490614211565b8015611ed15780601f10611ea657610100808354040283529160200191611ed1565b820191906000526020600020905b815481529060010190602001808311611eb457829003601f168201915b5050505050915050919050565b600c60009054906101000a900473ffffffffffffffffffffffffffffffffffffffff1673ffffffffffffffffffffffffffffffffffffffff163373ffffffffffffffffffffffffffffffffffffffff1614611f6e576040517f08c379a0000000000000000000000000000000000000000000000000000000008152600401611f659061401a565b60405180910390fd5b7f2d5a82cbc34270500c60b0532ca36cd4716c295bf0351b25835351664a3125bf600c60009054906101000a900473ffffffffffffffffffffffffffffffffffffffff16604051611fbf9190613f8d565b60405180910390a1611fd18383612be7565b80600b60008481526020019081526020016000209080519060200190611ff8929190613861565b50600c60009054906101000a900473ffffffffffffffffffffffffffffffffffffffff166002600084815260200190815260200160002060006101000a81548173ffffffffffffffffffffffffffffffffffffffff021916908373ffffffffffffffffffffffffffffffffffffffff160217905550505050565b606081600073ffffffffffffffffffffffffffffffffffffffff166001600083815260200190815260200160002060009054906101000a900473ffffffffffffffffffffffffffffffffffffffff1673ffffffffffffffffffffffffffffffffffffffff1614156040518060400160405280600481526020017f303330320000000000000000000000000000000000000000000000000000000081525090612150576040517f08c379a00000000000000000000000000000000000000000000000000000000081526004016121479190613ff8565b60405180910390fd5b50600d6000848152602001908152602001600020805461216f90614211565b80601f016020809104026020016040519081016040528092919081815260200182805461219b90614211565b80156121e85780601f106121bd576101008083540402835291602001916121e8565b820191906000526020600020905b8154815290600101906020018083116121cb57829003601f168201915b5050505050915050919050565b6000600460008473ffffffffffffffffffffffffffffffffffffffff1673ffffffffffffffffffffffffffffffffffffffff16815260200190815260200160002060008373ffffffffffffffffffffffffffffffffffffffff1673ffffffffffffffffffffffffffffffffffffffff16815260200190815260200160002060009054906101000a900460ff16905092915050565b600c60009054906101000a900473ffffffffffffffffffffffffffffffffffffffff1673ffffffffffffffffffffffffffffffffffffffff163373ffffffffffffffffffffffffffffffffffffffff1614612319576040517f08c379a00000000000000000000000000000000000000000000000000000000081526004016123109061401a565b60405180910390fd5b7f2d5a82cbc34270500c60b0532ca36cd4716c295bf0351b25835351664a3125bf600c60009054906101000a900473ffffffffffffffffffffffffffffffffffffffff1660405161236a9190613f8d565b60405180910390a1600073ffffffffffffffffffffffffffffffffffffffff168173ffffffffffffffffffffffffffffffffffffffff1614156040518060400160405280600481526020017f30313032000000000000000000000000000000000000000000000000000000008152509061241a576040517f08c379a00000000000000000000000000000000000000000000000000000000081526004016124119190613ff8565b60405180910390fd5b508073ffffffffffffffffffffffffffffffffffffffff16600c60009054906101000a900473ffffffffffffffffffffffffffffffffffffffff1673ffffffffffffffffffffffffffffffffffffffff167f8be0079c531659141344cd1fd0a4f28419497f9722a3daafe3b4186f6b6457e060405160405180910390a380600c60006101000a81548173ffffffffffffffffffffffffffffffffffffffff021916908373ffffffffffffffffffffffffffffffffffffffff16021790555050565b6040518060400160405280600481526020017f303130310000000000000000000000000000000000000000000000000000000081525081565b600033905090565b60006001600083815260200190815260200160002060009054906101000a900473ffffffffffffffffffffffffffffffffffffffff16905061255d82612c7b565b6125678183612bcb565b6125718383612bd9565b818373ffffffffffffffffffffffffffffffffffffffff168273ffffffffffffffffffffffffffffffffffffffff167fddf252ad1be2c89b69c2b068fc378daa952ba7f163c4a11628f55a4df523b3ef60405160405180910390a4505050565b8160006001600083815260200190815260200160002060009054906101000a900473ffffffffffffffffffffffffffffffffffffffff169050612612612514565b73ffffffffffffffffffffffffffffffffffffffff168173ffffffffffffffffffffffffffffffffffffffff1614806126b0575061264e612514565b73ffffffffffffffffffffffffffffffffffffffff166002600084815260200190815260200160002060009054906101000a900473ffffffffffffffffffffffffffffffffffffffff1673ffffffffffffffffffffffffffffffffffffffff16145b806127415750600460008273ffffffffffffffffffffffffffffffffffffffff1673ffffffffffffffffffffffffffffffffffffffff16815260200190815260200160002060003373ffffffffffffffffffffffffffffffffffffffff1673ffffffffffffffffffffffffffffffffffffffff16815260200190815260200160002060009054906101000a900460ff165b6040518060400160405280600481526020017f3033303400000000000000000000000000000000000000000000000000000000815250906127b8576040517f08c379a00000000000000000000000000000000000000000000000000000000081526004016127af9190613ff8565b60405180910390fd5b5083600073ffffffffffffffffffffffffffffffffffffffff166001600083815260200190815260200160002060009054906101000a900473ffffffffffffffffffffffffffffffffffffffff1673ffffffffffffffffffffffffffffffffffffffff1614156040518060400160405280600481526020017f303330320000000000000000000000000000000000000000000000000000000081525090612895576040517f08c379a000000000000000000000000000000000000000000000000000000000815260040161288c9190613ff8565b60405180910390fd5b5060006001600087815260200190815260200160002060009054906101000a900473ffffffffffffffffffffffffffffffffffffffff1690508773ffffffffffffffffffffffffffffffffffffffff168173ffffffffffffffffffffffffffffffffffffffff16146040518060400160405280600481526020017f303330370000000000000000000000000000000000000000000000000000000081525090612974576040517f08c379a000000000000000000000000000000000000000000000000000000000815260040161296b9190613ff8565b60405180910390fd5b50600073ffffffffffffffffffffffffffffffffffffffff168773ffffffffffffffffffffffffffffffffffffffff1614156040518060400160405280600481526020017f303330310000000000000000000000000000000000000000000000000000000081525090612a1d576040517f08c379a0000000000000000000000000000000000000000000000000000000008152600401612a149190613ff8565b60405180910390fd5b50612a28878761251c565b612a478773ffffffffffffffffffffffffffffffffffffffff16612d1c565b15612ba35760008773ffffffffffffffffffffffffffffffffffffffff1663150b7a02338b8a8a6040518563ffffffff1660e01b8152600401612a8d9493929190613f41565b602060405180830381600087803b158015612aa757600080fd5b505af1158015612abb573d6000803e3d6000fd5b505050506040513d601f19601f82011682018060405250810190612adf9190613c9b565b905063150b7a0260e01b7bffffffffffffffffffffffffffffffffffffffffffffffffffffffff1916817bffffffffffffffffffffffffffffffffffffffffffffffffffffffff1916146040518060400160405280600481526020017f303330350000000000000000000000000000000000000000000000000000000081525090612ba0576040517f08c379a0000000000000000000000000000000000000000000000000000000008152600401612b979190613ff8565b60405180910390fd5b50505b5050505050505050565b612bb681612d67565b50565b6000612bc482612dba565b9050919050565b612bd58282612e06565b5050565b612be3828261313f565b5050565b6103e861ffff16600580549050106040518060400160405280600481526020017f303430310000000000000000000000000000000000000000000000000000000081525090612c6c576040517f08c379a0000000000000000000000000000000000000000000000000000000008152600401612c639190613ff8565b60405180910390fd5b50612c77828261333c565b5050565b600073ffffffffffffffffffffffffffffffffffffffff166002600083815260200190815260200160002060009054906101000a900473ffffffffffffffffffffffffffffffffffffffff1673ffffffffffffffffffffffffffffffffffffffff1614612d19576002600082815260200190815260200160002060006101000a81549073ffffffffffffffffffffffffffffffffffffffff02191690555b50565b60008060007fc5d2460186f7233c927e7db2dcc703c0e500b653ca82273b7bfad8045d85a47060001b9050833f91506000801b8214158015612d5e5750808214155b92505050919050565b612d708161339c565b6000600b60008381526020019081526020016000208054612d9090614211565b905014612db757600b60008281526020019081526020016000206000612db691906138e7565b5b50565b6000600760008373ffffffffffffffffffffffffffffffffffffffff1673ffffffffffffffffffffffffffffffffffffffff168152602001908152602001600020805490509050919050565b8173ffffffffffffffffffffffffffffffffffffffff166001600083815260200190815260200160002060009054906101000a900473ffffffffffffffffffffffffffffffffffffffff1673ffffffffffffffffffffffffffffffffffffffff16146040518060400160405280600481526020017f303330370000000000000000000000000000000000000000000000000000000081525090612edf576040517f08c379a0000000000000000000000000000000000000000000000000000000008152600401612ed69190613ff8565b60405180910390fd5b506001600082815260200190815260200160002060006101000a81549073ffffffffffffffffffffffffffffffffffffffff021916905560006008600083815260200190815260200160002054905060006001600760008673ffffffffffffffffffffffffffffffffffffffff1673ffffffffffffffffffffffffffffffffffffffff16815260200190815260200160002080549050612f7f9190614127565b90508181146130ae576000600760008673ffffffffffffffffffffffffffffffffffffffff1673ffffffffffffffffffffffffffffffffffffffff1681526020019081526020016000208281548110613001577f4e487b7100000000000000000000000000000000000000000000000000000000600052603260045260246000fd5b9060005260206000200154905080600760008773ffffffffffffffffffffffffffffffffffffffff1673ffffffffffffffffffffffffffffffffffffffff1681526020019081526020016000208481548110613086577f4e487b7100000000000000000000000000000000000000000000000000000000600052603260045260246000fd5b9060005260206000200181905550826008600083815260200190815260200160002081905550505b600760008573ffffffffffffffffffffffffffffffffffffffff1673ffffffffffffffffffffffffffffffffffffffff168152602001908152602001600020805480613123577f4e487b7100000000000000000000000000000000000000000000000000000000600052603160045260246000fd5b6001900381819060005260206000200160009055905550505050565b600073ffffffffffffffffffffffffffffffffffffffff166001600083815260200190815260200160002060009054906101000a900473ffffffffffffffffffffffffffffffffffffffff1673ffffffffffffffffffffffffffffffffffffffff16146040518060400160405280600481526020017f303330360000000000000000000000000000000000000000000000000000000081525090613219576040517f08c379a00000000000000000000000000000000000000000000000000000000081526004016132109190613ff8565b60405180910390fd5b50816001600083815260200190815260200160002060006101000a81548173ffffffffffffffffffffffffffffffffffffffff021916908373ffffffffffffffffffffffffffffffffffffffff160217905550600760008373ffffffffffffffffffffffffffffffffffffffff1673ffffffffffffffffffffffffffffffffffffffff1681526020019081526020016000208190806001815401808255809150506001900390600052602060002001600090919091909150556001600760008473ffffffffffffffffffffffffffffffffffffffff1673ffffffffffffffffffffffffffffffffffffffff168152602001908152602001600020805490506133219190614127565b60086000838152602001908152602001600020819055505050565b61334682826134ea565b600581908060018154018082558091505060019003906000526020600020016000909190919091505560016005805490506133819190614127565b60066000838152602001908152602001600020819055505050565b6133a5816136d8565b600060066000838152602001908152602001600020549050600060016005805490506133d19190614127565b905060006005828154811061340f577f4e487b7100000000000000000000000000000000000000000000000000000000600052603260045260246000fd5b906000526020600020015490508060058481548110613457577f4e487b7100000000000000000000000000000000000000000000000000000000600052603260045260246000fd5b9060005260206000200181905550600580548061349d577f4e487b7100000000000000000000000000000000000000000000000000000000600052603160045260246000fd5b600190038181906000526020600020016000905590558260066000838152602001908152602001600020819055506000600660008681526020019081526020016000208190555050505050565b600073ffffffffffffffffffffffffffffffffffffffff168273ffffffffffffffffffffffffffffffffffffffff1614156040518060400160405280600481526020017f303330310000000000000000000000000000000000000000000000000000000081525090613592576040517f08c379a00000000000000000000000000000000000000000000000000000000081526004016135899190613ff8565b60405180910390fd5b50600073ffffffffffffffffffffffffffffffffffffffff166001600083815260200190815260200160002060009054906101000a900473ffffffffffffffffffffffffffffffffffffffff1673ffffffffffffffffffffffffffffffffffffffff16146040518060400160405280600481526020017f30333036000000000000000000000000000000000000000000000000000000008152509061366d576040517f08c379a00000000000000000000000000000000000000000000000000000000081526004016136649190613ff8565b60405180910390fd5b506136788282612bd9565b808273ffffffffffffffffffffffffffffffffffffffff16600073ffffffffffffffffffffffffffffffffffffffff167fddf252ad1be2c89b69c2b068fc378daa952ba7f163c4a11628f55a4df523b3ef60405160405180910390a45050565b80600073ffffffffffffffffffffffffffffffffffffffff166001600083815260200190815260200160002060009054906101000a900473ffffffffffffffffffffffffffffffffffffffff1673ffffffffffffffffffffffffffffffffffffffff1614156040518060400160405280600481526020017f3033303200000000000000000000000000000000000000000000000000000000815250906137b4576040517f08c379a00000000000000000000000000000000000000000000000000000000081526004016137ab9190613ff8565b60405180910390fd5b5060006001600084815260200190815260200160002060009054906101000a900473ffffffffffffffffffffffffffffffffffffffff1690506137f683612c7b565b6138008184612bcb565b82600073ffffffffffffffffffffffffffffffffffffffff168273ffffffffffffffffffffffffffffffffffffffff167fddf252ad1be2c89b69c2b068fc378daa952ba7f163c4a11628f55a4df523b3ef60405160405180910390a4505050565b82805461386d90614211565b90600052602060002090601f01602090048101928261388f57600085556138d6565b82601f106138a857805160ff19168380011785556138d6565b828001600101855582156138d6579182015b828111156138d55782518255916020019190600101906138ba565b5b5090506138e39190613927565b5090565b5080546138f390614211565b6000825580601f106139055750613924565b601f0160209004906000526020600020908101906139239190613927565b5b50565b5b80821115613940576000816000905550600101613928565b5090565b600061395761395284614086565b614055565b90508281526020810184848401111561396f57600080fd5b61397a8482856141cf565b509392505050565b600081359050613991816142e1565b92915050565b6000813590506139a6816142f8565b92915050565b6000813590506139bb8161430f565b92915050565b6000815190506139d08161430f565b92915050565b60008083601f8401126139e857600080fd5b8235905067ffffffffffffffff811115613a0157600080fd5b602083019150836001820283011115613a1957600080fd5b9250929050565b600082601f830112613a3157600080fd5b8135613a41848260208601613944565b91505092915050565b600081359050613a5981614326565b92915050565b600060208284031215613a7157600080fd5b6000613a7f84828501613982565b91505092915050565b60008060408385031215613a9b57600080fd5b6000613aa985828601613982565b9250506020613aba85828601613982565b9150509250929050565b600080600060608486031215613ad957600080fd5b6000613ae786828701613982565b9350506020613af886828701613982565b9250506040613b0986828701613a4a565b9150509250925092565b600080600080600060808688031215613b2b57600080fd5b6000613b3988828901613982565b9550506020613b4a88828901613982565b9450506040613b5b88828901613a4a565b935050606086013567ffffffffffffffff811115613b7857600080fd5b613b84888289016139d6565b92509250509295509295909350565b60008060408385031215613ba657600080fd5b6000613bb485828601613982565b9250506020613bc585828601613997565b9150509250929050565b60008060408385031215613be257600080fd5b6000613bf085828601613982565b9250506020613c0185828601613a4a565b9150509250929050565b600080600060608486031215613c2057600080fd5b6000613c2e86828701613982565b9350506020613c3f86828701613a4a565b925050604084013567ffffffffffffffff811115613c5c57600080fd5b613c6886828701613a20565b9150509250925092565b600060208284031215613c8457600080fd5b6000613c92848285016139ac565b91505092915050565b600060208284031215613cad57600080fd5b6000613cbb848285016139c1565b91505092915050565b600060208284031215613cd657600080fd5b600082013567ffffffffffffffff811115613cf057600080fd5b613cfc84828501613a20565b91505092915050565b600060208284031215613d1757600080fd5b6000613d2584828501613a4a565b91505092915050565b60008060408385031215613d4157600080fd5b6000613d4f85828601613a4a565b925050602083013567ffffffffffffffff811115613d6c57600080fd5b613d7885828601613a20565b9150509250929050565b6000613d8e8383613f08565b60208301905092915050565b613da38161415b565b82525050565b6000613db4826140c6565b613dbe81856140f4565b9350613dc9836140b6565b8060005b83811015613dfa578151613de18882613d82565b9750613dec836140e7565b925050600181019050613dcd565b5085935050505092915050565b613e108161416d565b82525050565b6000613e21826140d1565b613e2b8185614105565b9350613e3b8185602086016141de565b613e44816142d0565b840191505092915050565b6000613e5a826140dc565b613e648185614116565b9350613e748185602086016141de565b613e7d816142d0565b840191505092915050565b6000613e95600983614116565b91507f4e6f74206f776e657200000000000000000000000000000000000000000000006000830152602082019050919050565b6000613ed5601c83614116565b91507f706173736564206f776e65727368697020726571756972656d656e74000000006000830152602082019050919050565b613f11816141c5565b82525050565b613f20816141c5565b82525050565b6000602082019050613f3b6000830184613d9a565b92915050565b6000608082019050613f566000830187613d9a565b613f636020830186613d9a565b613f706040830185613f17565b8181036060830152613f828184613e16565b905095945050505050565b6000604082019050613fa26000830184613d9a565b8181036020830152613fb381613ec8565b905092915050565b60006020820190508181036000830152613fd58184613da9565b905092915050565b6000602082019050613ff26000830184613e07565b92915050565b600060208201905081810360008301526140128184613e4f565b905092915050565b6000602082019050818103600083015261403381613e88565b9050919050565b600060208201905061404f6000830184613f17565b92915050565b6000604051905081810181811067ffffffffffffffff8211171561407c5761407b6142a1565b5b8060405250919050565b600067ffffffffffffffff8211156140a1576140a06142a1565b5b601f19601f8301169050602081019050919050565b6000819050602082019050919050565b600081519050919050565b600081519050919050565b600081519050919050565b6000602082019050919050565b600082825260208201905092915050565b600082825260208201905092915050565b600082825260208201905092915050565b6000614132826141c5565b915061413d836141c5565b9250828210156141505761414f614243565b5b828203905092915050565b6000614166826141a5565b9050919050565b60008115159050919050565b60007fffffffff0000000000000000000000000000000000000000000000000000000082169050919050565b600073ffffffffffffffffffffffffffffffffffffffff82169050919050565b6000819050919050565b82818337600083830152505050565b60005b838110156141fc5780820151818401526020810190506141e1565b8381111561420b576000848401525b50505050565b6000600282049050600182168061422957607f821691505b6020821081141561423d5761423c614272565b5b50919050565b7f4e487b7100000000000000000000000000000000000000000000000000000000600052601160045260246000fd5b7f4e487b7100000000000000000000000000000000000000000000000000000000600052602260045260246000fd5b7f4e487b7100000000000000000000000000000000000000000000000000000000600052604160045260246000fd5b6000601f19601f8301169050919050565b6142ea8161415b565b81146142f557600080fd5b50565b6143018161416d565b811461430c57600080fd5b50565b61431881614179565b811461432357600080fd5b50565b61432f816141c5565b811461433a57600080fd5b5056fea2646970667358221220278f2291b033e1d5e9e8c18fbc54df4ec5e1feb90fb9ada50cc1d3c3fff6315d64736f6c63430008000033",
  "linkReferences": {},
  "deployedLinkReferences": {}
}