{
  "_format": "hh-sol-artifact-1",
  "contractName": "NoMoreWarOnDrugs",
  "sourceName": "contracts/NoMoreWarOnDrugs.sol",
  "abi": [
    {
      "inputs": [
        {
          "internalType": "string",
          "name": "_name",
          "type": "string"
        },
        {
          "internalType": "string",
          "name": "_symbol",
          "type": "string"
        }
      ],
      "stateMutability": "nonpayable",
      "type": "constructor"
    },
    {
      "anonymous": false,
      "inputs": [
        {
          "indexed": true,
          "internalType": "address",
          "name": "_owner",
          "type": "address"
        },
        {
          "indexed": true,
          "internalType": "address",
          "name": "_approved",
          "type": "address"
        },
        {
          "indexed": true,
          "internalType": "uint256",
          "name": "_tokenId",
          "type": "uint256"
        }
      ],
      "name": "Approval",
      "type": "event"
    },
    {
      "anonymous": false,
      "inputs": [
        {
          "indexed": true,
          "internalType": "address",
          "name": "_owner",
          "type": "address"
        },
        {
          "indexed": true,
          "internalType": "address",
          "name": "_operator",
          "type": "address"
        },
        {
          "indexed": false,
          "internalType": "bool",
          "name": "_approved",
          "type": "bool"
        }
      ],
      "name": "ApprovalForAll",
      "type": "event"
    },
    {
      "anonymous": false,
      "inputs": [
        {
          "indexed": true,
          "internalType": "address",
          "name": "previousOwner",
          "type": "address"
        },
        {
          "indexed": true,
          "internalType": "address",
          "name": "newOwner",
          "type": "address"
        }
      ],
      "name": "OwnershipTransferred",
      "type": "event"
    },
    {
      "anonymous": false,
      "inputs": [
        {
          "indexed": true,
          "internalType": "address",
          "name": "_from",
          "type": "address"
        },
        {
          "indexed": true,
          "internalType": "address",
          "name": "_to",
          "type": "address"
        },
        {
          "indexed": true,
          "internalType": "uint256",
          "name": "_tokenId",
          "type": "uint256"
        }
      ],
      "name": "Transfer",
      "type": "event"
    },
    {
      "anonymous": false,
      "inputs": [
        {
          "indexed": false,
          "internalType": "address",
          "name": "deliveredTo",
          "type": "address"
        },
        {
          "indexed": false,
          "internalType": "string",
          "name": "msg",
          "type": "string"
        }
      ],
      "name": "_msg",
      "type": "event"
    },
    {
      "inputs": [],
      "name": "CANNOT_TRANSFER_TO_ZERO_ADDRESS",
      "outputs": [
        {
          "internalType": "string",
          "name": "",
          "type": "string"
        }
      ],
      "stateMutability": "view",
      "type": "function"
    },
    {
      "inputs": [],
      "name": "NOT_CURRENT_OWNER",
      "outputs": [
        {
          "internalType": "string",
          "name": "",
          "type": "string"
        }
      ],
      "stateMutability": "view",
      "type": "function"
    },
    {
      "inputs": [
        {
          "internalType": "address",
          "name": "_to",
          "type": "address"
        },
        {
          "internalType": "uint256",
          "name": "_tokenId",
          "type": "uint256"
        }
      ],
      "name": "addNFToken",
      "outputs": [],
      "stateMutability": "nonpayable",
      "type": "function"
    },
    {
      "inputs": [
        {
          "internalType": "address",
          "name": "_approved",
          "type": "address"
        },
        {
          "internalType": "uint256",
          "name": "_tokenId",
          "type": "uint256"
        }
      ],
      "name": "approve",
      "outputs": [],
      "stateMutability": "nonpayable",
      "type": "function"
    },
    {
      "inputs": [
        {
          "internalType": "address",
          "name": "_owner",
          "type": "address"
        }
      ],
      "name": "balanceOf",
      "outputs": [
        {
          "internalType": "uint256",
          "name": "",
          "type": "uint256"
        }
      ],
      "stateMutability": "view",
      "type": "function"
    },
    {
      "inputs": [
        {
          "internalType": "uint256",
          "name": "_tokenId",
          "type": "uint256"
        }
      ],
      "name": "burn",
      "outputs": [],
      "stateMutability": "nonpayable",
      "type": "function"
    },
    {
      "inputs": [
        {
          "internalType": "uint256",
          "name": "_tokenId",
          "type": "uint256"
        }
      ],
      "name": "getApproved",
      "outputs": [
        {
          "internalType": "address",
          "name": "",
          "type": "address"
        }
      ],
      "stateMutability": "view",
      "type": "function"
    },
    {
      "inputs": [
        {
          "internalType": "address",
          "name": "_address",
          "type": "address"
        }
      ],
      "name": "getNFTsByAddress",
      "outputs": [
        {
          "internalType": "uint256[]",
          "name": "",
          "type": "uint256[]"
        }
      ],
      "stateMutability": "view",
      "type": "function"
    },
    {
      "inputs": [
        {
          "internalType": "address",
          "name": "_owner",
          "type": "address"
        }
      ],
      "name": "getOwnerNFTCount",
      "outputs": [
        {
          "internalType": "uint256",
          "name": "",
          "type": "uint256"
        }
      ],
      "stateMutability": "view",
      "type": "function"
    },
    {
      "inputs": [
        {
          "internalType": "address",
          "name": "_owner",
          "type": "address"
        },
        {
          "internalType": "address",
          "name": "_operator",
          "type": "address"
        }
      ],
      "name": "isApprovedForAll",
      "outputs": [
        {
          "internalType": "bool",
          "name": "",
          "type": "bool"
        }
      ],
      "stateMutability": "view",
      "type": "function"
    },
    {
      "inputs": [
        {
          "internalType": "address",
          "name": "_to",
          "type": "address"
        },
        {
          "internalType": "uint256",
          "name": "_tokenId",
          "type": "uint256"
        },
        {
          "internalType": "string",
          "name": "_uri",
          "type": "string"
        }
      ],
      "name": "mint",
      "outputs": [],
      "stateMutability": "nonpayable",
      "type": "function"
    },
    {
      "inputs": [],
      "name": "name",
      "outputs": [
        {
          "internalType": "string",
          "name": "_name",
          "type": "string"
        }
      ],
      "stateMutability": "view",
      "type": "function"
    },
    {
      "inputs": [],
      "name": "owner",
      "outputs": [
        {
          "internalType": "address",
          "name": "",
          "type": "address"
        }
      ],
      "stateMutability": "view",
      "type": "function"
    },
    {
      "inputs": [
        {
          "internalType": "uint256",
          "name": "_tokenId",
          "type": "uint256"
        }
      ],
      "name": "ownerOf",
      "outputs": [
        {
          "internalType": "address",
          "name": "_owner",
          "type": "address"
        }
      ],
      "stateMutability": "view",
      "type": "function"
    },
    {
      "inputs": [
        {
          "internalType": "address",
          "name": "_from",
          "type": "address"
        },
        {
          "internalType": "uint256",
          "name": "_tokenId",
          "type": "uint256"
        }
      ],
      "name": "removeNFToken",
      "outputs": [],
      "stateMutability": "nonpayable",
      "type": "function"
    },
    {
      "inputs": [
        {
          "internalType": "address",
          "name": "_from",
          "type": "address"
        },
        {
          "internalType": "address",
          "name": "_to",
          "type": "address"
        },
        {
          "internalType": "uint256",
          "name": "_tokenId",
          "type": "uint256"
        }
      ],
      "name": "safeTransferFrom",
      "outputs": [],
      "stateMutability": "nonpayable",
      "type": "function"
    },
    {
      "inputs": [
        {
          "internalType": "address",
          "name": "_from",
          "type": "address"
        },
        {
          "internalType": "address",
          "name": "_to",
          "type": "address"
        },
        {
          "internalType": "uint256",
          "name": "_tokenId",
          "type": "uint256"
        },
        {
          "internalType": "bytes",
          "name": "_data",
          "type": "bytes"
        }
      ],
      "name": "safeTransferFrom",
      "outputs": [],
      "stateMutability": "nonpayable",
      "type": "function"
    },
    {
      "inputs": [
        {
          "internalType": "address",
          "name": "_operator",
          "type": "address"
        },
        {
          "internalType": "bool",
          "name": "_approved",
          "type": "bool"
        }
      ],
      "name": "setApprovalForAll",
      "outputs": [],
      "stateMutability": "nonpayable",
      "type": "function"
    },
    {
      "inputs": [
        {
          "internalType": "uint256",
          "name": "_tokenId",
          "type": "uint256"
        },
        {
          "internalType": "string",
          "name": "_msg",
          "type": "string"
        }
      ],
      "name": "setTokenMessage",
      "outputs": [],
      "stateMutability": "nonpayable",
      "type": "function"
    },
    {
      "inputs": [
        {
          "internalType": "bytes4",
          "name": "_interfaceID",
          "type": "bytes4"
        }
      ],
      "name": "supportsInterface",
      "outputs": [
        {
          "internalType": "bool",
          "name": "",
          "type": "bool"
        }
      ],
      "stateMutability": "view",
      "type": "function"
    },
    {
      "inputs": [],
      "name": "symbol",
      "outputs": [
        {
          "internalType": "string",
          "name": "_symbol",
          "type": "string"
        }
      ],
      "stateMutability": "view",
      "type": "function"
    },
    {
      "inputs": [
        {
          "internalType": "uint256",
          "name": "_index",
          "type": "uint256"
        }
      ],
      "name": "tokenByIndex",
      "outputs": [
        {
          "internalType": "uint256",
          "name": "",
          "type": "uint256"
        }
      ],
      "stateMutability": "view",
      "type": "function"
    },
    {
      "inputs": [
        {
          "internalType": "uint256",
          "name": "_tokenId",
          "type": "uint256"
        }
      ],
      "name": "tokenMessage",
      "outputs": [
        {
          "internalType": "string",
          "name": "",
          "type": "string"
        }
      ],
      "stateMutability": "view",
      "type": "function"
    },
    {
      "inputs": [
        {
          "internalType": "uint256",
          "name": "_tokenId",
          "type": "uint256"
        }
      ],
      "name": "tokenMsgSet",
      "outputs": [
        {
          "internalType": "bool",
          "name": "",
          "type": "bool"
        }
      ],
      "stateMutability": "view",
      "type": "function"
    },
    {
      "inputs": [
        {
          "internalType": "address",
          "name": "_owner",
          "type": "address"
        },
        {
          "internalType": "uint256",
          "name": "_index",
          "type": "uint256"
        }
      ],
      "name": "tokenOfOwnerByIndex",
      "outputs": [
        {
          "internalType": "uint256",
          "name": "",
          "type": "uint256"
        }
      ],
      "stateMutability": "view",
      "type": "function"
    },
    {
      "inputs": [
        {
          "internalType": "uint256",
          "name": "_tokenId",
          "type": "uint256"
        }
      ],
      "name": "tokenURI",
      "outputs": [
        {
          "internalType": "string",
          "name": "",
          "type": "string"
        }
      ],
      "stateMutability": "view",
      "type": "function"
    },
    {
      "inputs": [],
      "name": "totalSupply",
      "outputs": [
        {
          "internalType": "uint256",
          "name": "",
          "type": "uint256"
        }
      ],
      "stateMutability": "view",
      "type": "function"
    },
    {
      "inputs": [
        {
          "internalType": "address",
          "name": "_from",
          "type": "address"
        },
        {
          "internalType": "address",
          "name": "_to",
          "type": "address"
        },
        {
          "internalType": "uint256",
          "name": "_tokenId",
          "type": "uint256"
        }
      ],
      "name": "transferFrom",
      "outputs": [],
      "stateMutability": "nonpayable",
      "type": "function"
    },
    {
      "inputs": [
        {
          "internalType": "address",
          "name": "_newOwner",
          "type": "address"
        }
      ],
      "name": "transferOwnership",
      "outputs": [],
      "stateMutability": "nonpayable",
      "type": "function"
    }
  ],
  "bytecode": "0x60806040523480156200001157600080fd5b5060405162004ae738038062004ae7833981810160405281019062000037919062000385565b60016000806301ffc9a760e01b7bffffffffffffffffffffffffffffffffffffffffffffffffffffffff1916815260200190815260200160002060006101000a81548160ff02191690831515021790555060016000806380ac58cd60e01b7bffffffffffffffffffffffffffffffffffffffffffffffffffffffff1916815260200190815260200160002060006101000a81548160ff021916908315150217905550600160008063780e9d6360e01b7bffffffffffffffffffffffffffffffffffffffffffffffffffffffff1916815260200190815260200160002060006101000a81548160ff0219169083151502179055506001600080635b5e139f60e01b7bffffffffffffffffffffffffffffffffffffffffffffffffffffffff1916815260200190815260200160002060006101000a81548160ff0219169083151502179055506200018b620001c560201b60201c565b8160099080519060200190620001a392919062000263565b5080600a9080519060200190620001bc92919062000263565b505050620005f3565b33600c60006101000a81548173ffffffffffffffffffffffffffffffffffffffff021916908373ffffffffffffffffffffffffffffffffffffffff1602179055507f2d5a82cbc34270500c60b0532ca36cd4716c295bf0351b25835351664a3125bf600c60009054906101000a900473ffffffffffffffffffffffffffffffffffffffff166040516200025991906200044b565b60405180910390a1565b82805462000271906200055f565b90600052602060002090601f016020900481019282620002955760008555620002e1565b82601f10620002b057805160ff1916838001178555620002e1565b82800160010185558215620002e1579182015b82811115620002e0578251825591602001919060010190620002c3565b5b509050620002f09190620002f4565b5090565b5b808211156200030f576000816000905550600101620002f5565b5090565b60006200032a6200032484620004b1565b6200047d565b9050828152602081018484840111156200034357600080fd5b6200035084828562000529565b509392505050565b600082601f8301126200036a57600080fd5b81516200037c84826020860162000313565b91505092915050565b600080604083850312156200039957600080fd5b600083015167ffffffffffffffff811115620003b457600080fd5b620003c28582860162000358565b925050602083015167ffffffffffffffff811115620003e057600080fd5b620003ee8582860162000358565b9150509250929050565b6200040381620004f5565b82525050565b600062000418600983620004e4565b91507f736574206f776e657200000000000000000000000000000000000000000000006000830152602082019050919050565b6000604082019050620004626000830184620003f8565b8181036020830152620004758162000409565b905092915050565b6000604051905081810181811067ffffffffffffffff82111715620004a757620004a6620005c4565b5b8060405250919050565b600067ffffffffffffffff821115620004cf57620004ce620005c4565b5b601f19601f8301169050602081019050919050565b600082825260208201905092915050565b6000620005028262000509565b9050919050565b600073ffffffffffffffffffffffffffffffffffffffff82169050919050565b60005b83811015620005495780820151818401526020810190506200052c565b8381111562000559576000848401525b50505050565b600060028204905060018216806200057857607f821691505b602082108114156200058f576200058e62000595565b5b50919050565b7f4e487b7100000000000000000000000000000000000000000000000000000000600052602260045260246000fd5b7f4e487b7100000000000000000000000000000000000000000000000000000000600052604160045260246000fd5b6144e480620006036000396000f3fe608060405234801561001057600080fd5b50600436106101cf5760003560e01c80638da5cb5b11610104578063c2af674f116100a2578063e4b7baeb11610071578063e4b7baeb14610562578063e985e9c514610592578063f2fde38b146105c2578063f3fe3bc3146105de576101cf565b8063c2af674f146104ca578063c87b56dd146104e6578063d0f4f82a14610516578063d3fc986414610546576101cf565b80639c01e1f5116100de5780639c01e1f514610446578063a22cb46514610462578063b88d4fde1461047e578063bd7f4c8d1461049a576101cf565b80638da5cb5b146103ee5780638f8470761461040c57806395d89b4114610428576101cf565b80632f745c59116101715780634f6ccce71161014b5780634f6ccce7146103405780636352211e1461037057806370a08231146103a0578063860d248a146103d0576101cf565b80632f745c59146102d857806342842e0e1461030857806342966c6814610324576101cf565b8063095ea7b3116101ad578063095ea7b31461025257806318160ddd1461026e5780631dadae8e1461028c57806323b872dd146102bc576101cf565b806301ffc9a7146101d457806306fdde0314610204578063081812fc14610222575b600080fd5b6101ee60048036038101906101e99190613de3565b6105fc565b6040516101fb919061410d565b60405180910390f35b61020c610663565b6040516102199190614128565b60405180910390f35b61023c60048036038101906102379190613e35565b6106f5565b6040516102499190614056565b60405180910390f35b61026c60048036038101906102679190613d40565b610810565b005b610276610bfa565b604051610283919061416a565b60405180910390f35b6102a660048036038101906102a19190613bd0565b610c07565b6040516102b391906140eb565b60405180910390f35b6102d660048036038101906102d19190613c35565b610c9e565b005b6102f260048036038101906102ed9190613d40565b6110fe565b6040516102ff919061416a565b60405180910390f35b610322600480360381019061031d9190613c35565b611247565b005b61033e60048036038101906103399190613e35565b611267565b005b61035a60048036038101906103559190613e35565b61135c565b604051610367919061416a565b60405180910390f35b61038a60048036038101906103859190613e35565b61142a565b6040516103979190614056565b60405180910390f35b6103ba60048036038101906103b59190613bd0565b611510565b6040516103c7919061416a565b60405180910390f35b6103d86115ca565b6040516103e59190614128565b60405180910390f35b6103f6611603565b6040516104039190614056565b60405180910390f35b61042660048036038101906104219190613d40565b611629565b005b610430611720565b60405161043d9190614128565b60405180910390f35b610460600480360381019061045b9190613d40565b6117b2565b005b61047c60048036038101906104779190613d04565b6118a9565b005b61049860048036038101906104939190613c84565b6119a6565b005b6104b460048036038101906104af9190613bd0565b6119fd565b6040516104c1919061416a565b60405180910390f35b6104e460048036038101906104df9190613e5e565b611a0f565b005b61050060048036038101906104fb9190613e35565b611cc6565b60405161050d9190614128565b60405180910390f35b610530600480360381019061052b9190613e35565b611e49565b60405161053d919061410d565b60405180910390f35b610560600480360381019061055b9190613d7c565b611f51565b005b61057c60048036038101906105779190613e35565b6121d9565b6040516105899190614128565b60405180910390f35b6105ac60048036038101906105a79190613bf9565b61235c565b6040516105b9919061410d565b60405180910390f35b6105dc60048036038101906105d79190613bd0565b6123f0565b005b6105e6612642565b6040516105f39190614128565b60405180910390f35b6000806000837bffffffffffffffffffffffffffffffffffffffffffffffffffffffff19167bffffffffffffffffffffffffffffffffffffffffffffffffffffffff1916815260200190815260200160002060009054906101000a900460ff169050919050565b60606009805461067290614382565b80601f016020809104026020016040519081016040528092919081815260200182805461069e90614382565b80156106eb5780601f106106c0576101008083540402835291602001916106eb565b820191906000526020600020905b8154815290600101906020018083116106ce57829003601f168201915b5050505050905090565b600081600073ffffffffffffffffffffffffffffffffffffffff166001600083815260200190815260200160002060009054906101000a900473ffffffffffffffffffffffffffffffffffffffff1673ffffffffffffffffffffffffffffffffffffffff1614156040518060400160405280600681526020017f3030333030320000000000000000000000000000000000000000000000000000815250906107d3576040517f08c379a00000000000000000000000000000000000000000000000000000000081526004016107ca9190614128565b60405180910390fd5b506002600084815260200190815260200160002060009054906101000a900473ffffffffffffffffffffffffffffffffffffffff16915050919050565b8060006001600083815260200190815260200160002060009054906101000a900473ffffffffffffffffffffffffffffffffffffffff16905061085161267b565b73ffffffffffffffffffffffffffffffffffffffff168173ffffffffffffffffffffffffffffffffffffffff1614806109105750600460008273ffffffffffffffffffffffffffffffffffffffff1673ffffffffffffffffffffffffffffffffffffffff16815260200190815260200160002060003373ffffffffffffffffffffffffffffffffffffffff1673ffffffffffffffffffffffffffffffffffffffff16815260200190815260200160002060009054906101000a900460ff165b6040518060400160405280600681526020017f303033303033000000000000000000000000000000000000000000000000000081525090610987576040517f08c379a000000000000000000000000000000000000000000000000000000000815260040161097e9190614128565b60405180910390fd5b5082600073ffffffffffffffffffffffffffffffffffffffff166001600083815260200190815260200160002060009054906101000a900473ffffffffffffffffffffffffffffffffffffffff1673ffffffffffffffffffffffffffffffffffffffff1614156040518060400160405280600681526020017f303033303032000000000000000000000000000000000000000000000000000081525090610a64576040517f08c379a0000000000000000000000000000000000000000000000000000000008152600401610a5b9190614128565b60405180910390fd5b5060006001600086815260200190815260200160002060009054906101000a900473ffffffffffffffffffffffffffffffffffffffff1690508073ffffffffffffffffffffffffffffffffffffffff168673ffffffffffffffffffffffffffffffffffffffff1614156040518060400160405280600681526020017f303033303038000000000000000000000000000000000000000000000000000081525090610b44576040517f08c379a0000000000000000000000000000000000000000000000000000000008152600401610b3b9190614128565b60405180910390fd5b50856002600087815260200190815260200160002060006101000a81548173ffffffffffffffffffffffffffffffffffffffff021916908373ffffffffffffffffffffffffffffffffffffffff160217905550848673ffffffffffffffffffffffffffffffffffffffff168273ffffffffffffffffffffffffffffffffffffffff167f8c5be1e5ebec7d5bd14f71427d1e84f3dd0314c0f7b2291e5b200ac8c7c3b92560405160405180910390a4505050505050565b6000600580549050905090565b6060600760008373ffffffffffffffffffffffffffffffffffffffff1673ffffffffffffffffffffffffffffffffffffffff168152602001908152602001600020805480602002602001604051908101604052809291908181526020018280548015610c9257602002820191906000526020600020905b815481526020019060010190808311610c7e575b50505050509050919050565b8060006001600083815260200190815260200160002060009054906101000a900473ffffffffffffffffffffffffffffffffffffffff169050610cdf61267b565b73ffffffffffffffffffffffffffffffffffffffff168173ffffffffffffffffffffffffffffffffffffffff161480610d7d5750610d1b61267b565b73ffffffffffffffffffffffffffffffffffffffff166002600084815260200190815260200160002060009054906101000a900473ffffffffffffffffffffffffffffffffffffffff1673ffffffffffffffffffffffffffffffffffffffff16145b80610e0e5750600460008273ffffffffffffffffffffffffffffffffffffffff1673ffffffffffffffffffffffffffffffffffffffff16815260200190815260200160002060003373ffffffffffffffffffffffffffffffffffffffff1673ffffffffffffffffffffffffffffffffffffffff16815260200190815260200160002060009054906101000a900460ff165b6040518060400160405280600681526020017f303033303034000000000000000000000000000000000000000000000000000081525090610e85576040517f08c379a0000000000000000000000000000000000000000000000000000000008152600401610e7c9190614128565b60405180910390fd5b5082600073ffffffffffffffffffffffffffffffffffffffff166001600083815260200190815260200160002060009054906101000a900473ffffffffffffffffffffffffffffffffffffffff1673ffffffffffffffffffffffffffffffffffffffff1614156040518060400160405280600681526020017f303033303032000000000000000000000000000000000000000000000000000081525090610f62576040517f08c379a0000000000000000000000000000000000000000000000000000000008152600401610f599190614128565b60405180910390fd5b5060006001600086815260200190815260200160002060009054906101000a900473ffffffffffffffffffffffffffffffffffffffff1690508673ffffffffffffffffffffffffffffffffffffffff168173ffffffffffffffffffffffffffffffffffffffff16146040518060400160405280600681526020017f303033303037000000000000000000000000000000000000000000000000000081525090611041576040517f08c379a00000000000000000000000000000000000000000000000000000000081526004016110389190614128565b60405180910390fd5b50600073ffffffffffffffffffffffffffffffffffffffff168673ffffffffffffffffffffffffffffffffffffffff1614156040518060400160405280600681526020017f3030333030310000000000000000000000000000000000000000000000000000815250906110ea576040517f08c379a00000000000000000000000000000000000000000000000000000000081526004016110e19190614128565b60405180910390fd5b506110f58686612683565b50505050505050565b6000600760008473ffffffffffffffffffffffffffffffffffffffff1673ffffffffffffffffffffffffffffffffffffffff1681526020019081526020016000208054905082106040518060400160405280600681526020017f3030353030370000000000000000000000000000000000000000000000000000815250906111bc576040517f08c379a00000000000000000000000000000000000000000000000000000000081526004016111b39190614128565b60405180910390fd5b50600760008473ffffffffffffffffffffffffffffffffffffffff1673ffffffffffffffffffffffffffffffffffffffff1681526020019081526020016000208281548110611234577f4e487b7100000000000000000000000000000000000000000000000000000000600052603260045260246000fd5b9060005260206000200154905092915050565b61126283838360405180602001604052806000815250612738565b505050565b600c60009054906101000a900473ffffffffffffffffffffffffffffffffffffffff1673ffffffffffffffffffffffffffffffffffffffff163373ffffffffffffffffffffffffffffffffffffffff16146112f7576040517f08c379a00000000000000000000000000000000000000000000000000000000081526004016112ee9061414a565b60405180910390fd5b7f2d5a82cbc34270500c60b0532ca36cd4716c295bf0351b25835351664a3125bf600c60009054906101000a900473ffffffffffffffffffffffffffffffffffffffff1660405161134891906140bd565b60405180910390a161135981612d14565b50565b600060058054905082106040518060400160405280600681526020017f3030353030370000000000000000000000000000000000000000000000000000815250906113dd576040517f08c379a00000000000000000000000000000000000000000000000000000000081526004016113d49190614128565b60405180910390fd5b5060058281548110611418577f4e487b7100000000000000000000000000000000000000000000000000000000600052603260045260246000fd5b90600052602060002001549050919050565b60006001600083815260200190815260200160002060009054906101000a900473ffffffffffffffffffffffffffffffffffffffff169050600073ffffffffffffffffffffffffffffffffffffffff168173ffffffffffffffffffffffffffffffffffffffff1614156040518060400160405280600681526020017f30303330303200000000000000000000000000000000000000000000000000008152509061150a576040517f08c379a00000000000000000000000000000000000000000000000000000000081526004016115019190614128565b60405180910390fd5b50919050565b60008073ffffffffffffffffffffffffffffffffffffffff168273ffffffffffffffffffffffffffffffffffffffff1614156040518060400160405280600681526020017f3030333030310000000000000000000000000000000000000000000000000000815250906115b9576040517f08c379a00000000000000000000000000000000000000000000000000000000081526004016115b09190614128565b60405180910390fd5b506115c382612d20565b9050919050565b6040518060400160405280600681526020017f303138303032000000000000000000000000000000000000000000000000000081525081565b600c60009054906101000a900473ffffffffffffffffffffffffffffffffffffffff1681565b600c60009054906101000a900473ffffffffffffffffffffffffffffffffffffffff1673ffffffffffffffffffffffffffffffffffffffff163373ffffffffffffffffffffffffffffffffffffffff16146116b9576040517f08c379a00000000000000000000000000000000000000000000000000000000081526004016116b09061414a565b60405180910390fd5b7f2d5a82cbc34270500c60b0532ca36cd4716c295bf0351b25835351664a3125bf600c60009054906101000a900473ffffffffffffffffffffffffffffffffffffffff1660405161170a91906140bd565b60405180910390a161171c8282612d32565b5050565b6060600a805461172f90614382565b80601f016020809104026020016040519081016040528092919081815260200182805461175b90614382565b80156117a85780601f1061177d576101008083540402835291602001916117a8565b820191906000526020600020905b81548152906001019060200180831161178b57829003601f168201915b5050505050905090565b600c60009054906101000a900473ffffffffffffffffffffffffffffffffffffffff1673ffffffffffffffffffffffffffffffffffffffff163373ffffffffffffffffffffffffffffffffffffffff1614611842576040517f08c379a00000000000000000000000000000000000000000000000000000000081526004016118399061414a565b60405180910390fd5b7f2d5a82cbc34270500c60b0532ca36cd4716c295bf0351b25835351664a3125bf600c60009054906101000a900473ffffffffffffffffffffffffffffffffffffffff1660405161189391906140bd565b60405180910390a16118a58282612d40565b5050565b80600460003373ffffffffffffffffffffffffffffffffffffffff1673ffffffffffffffffffffffffffffffffffffffff16815260200190815260200160002060008473ffffffffffffffffffffffffffffffffffffffff1673ffffffffffffffffffffffffffffffffffffffff16815260200190815260200160002060006101000a81548160ff0219169083151502179055508173ffffffffffffffffffffffffffffffffffffffff163373ffffffffffffffffffffffffffffffffffffffff167f17307eab39ab6107e8899845ad3d59bd9653f200f220920489ca2b5937696c318360405161199a919061410d565b60405180910390a35050565b6119f685858585858080601f016020809104026020016040519081016040528093929190818152602001838380828437600081840152601f19601f82011690508083019250505050505050612738565b5050505050565b6000611a0882612d20565b9050919050565b81600073ffffffffffffffffffffffffffffffffffffffff166001600083815260200190815260200160002060009054906101000a900473ffffffffffffffffffffffffffffffffffffffff1673ffffffffffffffffffffffffffffffffffffffff1614156040518060400160405280600681526020017f303033303032000000000000000000000000000000000000000000000000000081525090611aeb576040517f08c379a0000000000000000000000000000000000000000000000000000000008152600401611ae29190614128565b60405180910390fd5b5060006001600085815260200190815260200160002060009054906101000a900473ffffffffffffffffffffffffffffffffffffffff1690508073ffffffffffffffffffffffffffffffffffffffff16611b4361267b565b73ffffffffffffffffffffffffffffffffffffffff16146040518060400160405280600681526020017f303033303037000000000000000000000000000000000000000000000000000081525090611bd1576040517f08c379a0000000000000000000000000000000000000000000000000000000008152600401611bc89190614128565b60405180910390fd5b50600d600085815260200190815260200160002060009054906101000a900460ff16156040518060400160405280600581526020017f323030303200000000000000000000000000000000000000000000000000000081525090611c6b576040517f08c379a0000000000000000000000000000000000000000000000000000000008152600401611c629190614128565b60405180910390fd5b5082600e60008681526020019081526020016000209080519060200190611c939291906139d2565b506001600d600086815260200190815260200160002060006101000a81548160ff02191690831515021790555050505050565b606081600073ffffffffffffffffffffffffffffffffffffffff166001600083815260200190815260200160002060009054906101000a900473ffffffffffffffffffffffffffffffffffffffff1673ffffffffffffffffffffffffffffffffffffffff1614156040518060400160405280600681526020017f303033303032000000000000000000000000000000000000000000000000000081525090611da4576040517f08c379a0000000000000000000000000000000000000000000000000000000008152600401611d9b9190614128565b60405180910390fd5b50600b60008481526020019081526020016000208054611dc390614382565b80601f0160208091040260200160405190810160405280929190818152602001828054611def90614382565b8015611e3c5780601f10611e1157610100808354040283529160200191611e3c565b820191906000526020600020905b815481529060010190602001808311611e1f57829003601f168201915b5050505050915050919050565b600081600073ffffffffffffffffffffffffffffffffffffffff166001600083815260200190815260200160002060009054906101000a900473ffffffffffffffffffffffffffffffffffffffff1673ffffffffffffffffffffffffffffffffffffffff1614156040518060400160405280600681526020017f303033303032000000000000000000000000000000000000000000000000000081525090611f27576040517f08c379a0000000000000000000000000000000000000000000000000000000008152600401611f1e9190614128565b60405180910390fd5b50600d600084815260200190815260200160002060009054906101000a900460ff16915050919050565b600c60009054906101000a900473ffffffffffffffffffffffffffffffffffffffff1673ffffffffffffffffffffffffffffffffffffffff163373ffffffffffffffffffffffffffffffffffffffff1614611fe1576040517f08c379a0000000000000000000000000000000000000000000000000000000008152600401611fd89061414a565b60405180910390fd5b7f2d5a82cbc34270500c60b0532ca36cd4716c295bf0351b25835351664a3125bf600c60009054906101000a900473ffffffffffffffffffffffffffffffffffffffff1660405161203291906140bd565b60405180910390a16120448383612d4e565b80600b6000848152602001908152602001600020908051906020019061206b9291906139d2565b50600460008473ffffffffffffffffffffffffffffffffffffffff1673ffffffffffffffffffffffffffffffffffffffff1681526020019081526020016000206000600c60009054906101000a900473ffffffffffffffffffffffffffffffffffffffff1673ffffffffffffffffffffffffffffffffffffffff1673ffffffffffffffffffffffffffffffffffffffff16815260200190815260200160002060009054906101000a900460ff166121d4576001600460008573ffffffffffffffffffffffffffffffffffffffff1673ffffffffffffffffffffffffffffffffffffffff1681526020019081526020016000206000600c60009054906101000a900473ffffffffffffffffffffffffffffffffffffffff1673ffffffffffffffffffffffffffffffffffffffff1673ffffffffffffffffffffffffffffffffffffffff16815260200190815260200160002060006101000a81548160ff0219169083151502179055505b505050565b606081600073ffffffffffffffffffffffffffffffffffffffff166001600083815260200190815260200160002060009054906101000a900473ffffffffffffffffffffffffffffffffffffffff1673ffffffffffffffffffffffffffffffffffffffff1614156040518060400160405280600681526020017f3030333030320000000000000000000000000000000000000000000000000000815250906122b7576040517f08c379a00000000000000000000000000000000000000000000000000000000081526004016122ae9190614128565b60405180910390fd5b50600e600084815260200190815260200160002080546122d690614382565b80601f016020809104026020016040519081016040528092919081815260200182805461230290614382565b801561234f5780601f106123245761010080835404028352916020019161234f565b820191906000526020600020905b81548152906001019060200180831161233257829003601f168201915b5050505050915050919050565b6000600460008473ffffffffffffffffffffffffffffffffffffffff1673ffffffffffffffffffffffffffffffffffffffff16815260200190815260200160002060008373ffffffffffffffffffffffffffffffffffffffff1673ffffffffffffffffffffffffffffffffffffffff16815260200190815260200160002060009054906101000a900460ff16905092915050565b600c60009054906101000a900473ffffffffffffffffffffffffffffffffffffffff1673ffffffffffffffffffffffffffffffffffffffff163373ffffffffffffffffffffffffffffffffffffffff1614612480576040517f08c379a00000000000000000000000000000000000000000000000000000000081526004016124779061414a565b60405180910390fd5b7f2d5a82cbc34270500c60b0532ca36cd4716c295bf0351b25835351664a3125bf600c60009054906101000a900473ffffffffffffffffffffffffffffffffffffffff166040516124d191906140bd565b60405180910390a1600073ffffffffffffffffffffffffffffffffffffffff168173ffffffffffffffffffffffffffffffffffffffff1614156040518060400160405280600681526020017f303138303032000000000000000000000000000000000000000000000000000081525090612581576040517f08c379a00000000000000000000000000000000000000000000000000000000081526004016125789190614128565b60405180910390fd5b508073ffffffffffffffffffffffffffffffffffffffff16600c60009054906101000a900473ffffffffffffffffffffffffffffffffffffffff1673ffffffffffffffffffffffffffffffffffffffff167f8be0079c531659141344cd1fd0a4f28419497f9722a3daafe3b4186f6b6457e060405160405180910390a380600c60006101000a81548173ffffffffffffffffffffffffffffffffffffffff021916908373ffffffffffffffffffffffffffffffffffffffff16021790555050565b6040518060400160405280600681526020017f303138303031000000000000000000000000000000000000000000000000000081525081565b600033905090565b60006001600083815260200190815260200160002060009054906101000a900473ffffffffffffffffffffffffffffffffffffffff1690506126c482612dec565b6126ce8183612d32565b6126d88383612d40565b818373ffffffffffffffffffffffffffffffffffffffff168273ffffffffffffffffffffffffffffffffffffffff167fddf252ad1be2c89b69c2b068fc378daa952ba7f163c4a11628f55a4df523b3ef60405160405180910390a4505050565b8160006001600083815260200190815260200160002060009054906101000a900473ffffffffffffffffffffffffffffffffffffffff16905061277961267b565b73ffffffffffffffffffffffffffffffffffffffff168173ffffffffffffffffffffffffffffffffffffffff16148061281757506127b561267b565b73ffffffffffffffffffffffffffffffffffffffff166002600084815260200190815260200160002060009054906101000a900473ffffffffffffffffffffffffffffffffffffffff1673ffffffffffffffffffffffffffffffffffffffff16145b806128a85750600460008273ffffffffffffffffffffffffffffffffffffffff1673ffffffffffffffffffffffffffffffffffffffff16815260200190815260200160002060003373ffffffffffffffffffffffffffffffffffffffff1673ffffffffffffffffffffffffffffffffffffffff16815260200190815260200160002060009054906101000a900460ff165b6040518060400160405280600681526020017f30303330303400000000000000000000000000000000000000000000000000008152509061291f576040517f08c379a00000000000000000000000000000000000000000000000000000000081526004016129169190614128565b60405180910390fd5b5083600073ffffffffffffffffffffffffffffffffffffffff166001600083815260200190815260200160002060009054906101000a900473ffffffffffffffffffffffffffffffffffffffff1673ffffffffffffffffffffffffffffffffffffffff1614156040518060400160405280600681526020017f3030333030320000000000000000000000000000000000000000000000000000815250906129fc576040517f08c379a00000000000000000000000000000000000000000000000000000000081526004016129f39190614128565b60405180910390fd5b5060006001600087815260200190815260200160002060009054906101000a900473ffffffffffffffffffffffffffffffffffffffff1690508773ffffffffffffffffffffffffffffffffffffffff168173ffffffffffffffffffffffffffffffffffffffff16146040518060400160405280600681526020017f303033303037000000000000000000000000000000000000000000000000000081525090612adb576040517f08c379a0000000000000000000000000000000000000000000000000000000008152600401612ad29190614128565b60405180910390fd5b50600073ffffffffffffffffffffffffffffffffffffffff168773ffffffffffffffffffffffffffffffffffffffff1614156040518060400160405280600681526020017f303033303031000000000000000000000000000000000000000000000000000081525090612b84576040517f08c379a0000000000000000000000000000000000000000000000000000000008152600401612b7b9190614128565b60405180910390fd5b50612b8f8787612683565b612bae8773ffffffffffffffffffffffffffffffffffffffff16612e8d565b15612d0a5760008773ffffffffffffffffffffffffffffffffffffffff1663150b7a02338b8a8a6040518563ffffffff1660e01b8152600401612bf49493929190614071565b602060405180830381600087803b158015612c0e57600080fd5b505af1158015612c22573d6000803e3d6000fd5b505050506040513d601f19601f82011682018060405250810190612c469190613e0c565b905063150b7a0260e01b7bffffffffffffffffffffffffffffffffffffffffffffffffffffffff1916817bffffffffffffffffffffffffffffffffffffffffffffffffffffffff1916146040518060400160405280600681526020017f303033303035000000000000000000000000000000000000000000000000000081525090612d07576040517f08c379a0000000000000000000000000000000000000000000000000000000008152600401612cfe9190614128565b60405180910390fd5b50505b5050505050505050565b612d1d81612ed8565b50565b6000612d2b82612f2b565b9050919050565b612d3c8282612f77565b5050565b612d4a82826132b0565b5050565b600160de612d5c919061428b565b60ff16600580549050106040518060400160405280600581526020017f323030303100000000000000000000000000000000000000000000000000000081525090612ddd576040517f08c379a0000000000000000000000000000000000000000000000000000000008152600401612dd49190614128565b60405180910390fd5b50612de882826134ad565b5050565b600073ffffffffffffffffffffffffffffffffffffffff166002600083815260200190815260200160002060009054906101000a900473ffffffffffffffffffffffffffffffffffffffff1673ffffffffffffffffffffffffffffffffffffffff1614612e8a576002600082815260200190815260200160002060006101000a81549073ffffffffffffffffffffffffffffffffffffffff02191690555b50565b60008060007fc5d2460186f7233c927e7db2dcc703c0e500b653ca82273b7bfad8045d85a47060001b9050833f91506000801b8214158015612ecf5750808214155b92505050919050565b612ee18161350d565b6000600b60008381526020019081526020016000208054612f0190614382565b905014612f2857600b60008281526020019081526020016000206000612f279190613a58565b5b50565b6000600760008373ffffffffffffffffffffffffffffffffffffffff1673ffffffffffffffffffffffffffffffffffffffff168152602001908152602001600020805490509050919050565b8173ffffffffffffffffffffffffffffffffffffffff166001600083815260200190815260200160002060009054906101000a900473ffffffffffffffffffffffffffffffffffffffff1673ffffffffffffffffffffffffffffffffffffffff16146040518060400160405280600681526020017f303033303037000000000000000000000000000000000000000000000000000081525090613050576040517f08c379a00000000000000000000000000000000000000000000000000000000081526004016130479190614128565b60405180910390fd5b506001600082815260200190815260200160002060006101000a81549073ffffffffffffffffffffffffffffffffffffffff021916905560006008600083815260200190815260200160002054905060006001600760008673ffffffffffffffffffffffffffffffffffffffff1673ffffffffffffffffffffffffffffffffffffffff168152602001908152602001600020805490506130f09190614257565b905081811461321f576000600760008673ffffffffffffffffffffffffffffffffffffffff1673ffffffffffffffffffffffffffffffffffffffff1681526020019081526020016000208281548110613172577f4e487b7100000000000000000000000000000000000000000000000000000000600052603260045260246000fd5b9060005260206000200154905080600760008773ffffffffffffffffffffffffffffffffffffffff1673ffffffffffffffffffffffffffffffffffffffff16815260200190815260200160002084815481106131f7577f4e487b7100000000000000000000000000000000000000000000000000000000600052603260045260246000fd5b9060005260206000200181905550826008600083815260200190815260200160002081905550505b600760008573ffffffffffffffffffffffffffffffffffffffff1673ffffffffffffffffffffffffffffffffffffffff168152602001908152602001600020805480613294577f4e487b7100000000000000000000000000000000000000000000000000000000600052603160045260246000fd5b6001900381819060005260206000200160009055905550505050565b600073ffffffffffffffffffffffffffffffffffffffff166001600083815260200190815260200160002060009054906101000a900473ffffffffffffffffffffffffffffffffffffffff1673ffffffffffffffffffffffffffffffffffffffff16146040518060400160405280600681526020017f30303330303600000000000000000000000000000000000000000000000000008152509061338a576040517f08c379a00000000000000000000000000000000000000000000000000000000081526004016133819190614128565b60405180910390fd5b50816001600083815260200190815260200160002060006101000a81548173ffffffffffffffffffffffffffffffffffffffff021916908373ffffffffffffffffffffffffffffffffffffffff160217905550600760008373ffffffffffffffffffffffffffffffffffffffff1673ffffffffffffffffffffffffffffffffffffffff1681526020019081526020016000208190806001815401808255809150506001900390600052602060002001600090919091909150556001600760008473ffffffffffffffffffffffffffffffffffffffff1673ffffffffffffffffffffffffffffffffffffffff168152602001908152602001600020805490506134929190614257565b60086000838152602001908152602001600020819055505050565b6134b7828261365b565b600581908060018154018082558091505060019003906000526020600020016000909190919091505560016005805490506134f29190614257565b60066000838152602001908152602001600020819055505050565b61351681613849565b600060066000838152602001908152602001600020549050600060016005805490506135429190614257565b9050600060058281548110613580577f4e487b7100000000000000000000000000000000000000000000000000000000600052603260045260246000fd5b9060005260206000200154905080600584815481106135c8577f4e487b7100000000000000000000000000000000000000000000000000000000600052603260045260246000fd5b9060005260206000200181905550600580548061360e577f4e487b7100000000000000000000000000000000000000000000000000000000600052603160045260246000fd5b600190038181906000526020600020016000905590558260066000838152602001908152602001600020819055506000600660008681526020019081526020016000208190555050505050565b600073ffffffffffffffffffffffffffffffffffffffff168273ffffffffffffffffffffffffffffffffffffffff1614156040518060400160405280600681526020017f303033303031000000000000000000000000000000000000000000000000000081525090613703576040517f08c379a00000000000000000000000000000000000000000000000000000000081526004016136fa9190614128565b60405180910390fd5b50600073ffffffffffffffffffffffffffffffffffffffff166001600083815260200190815260200160002060009054906101000a900473ffffffffffffffffffffffffffffffffffffffff1673ffffffffffffffffffffffffffffffffffffffff16146040518060400160405280600681526020017f3030333030360000000000000000000000000000000000000000000000000000815250906137de576040517f08c379a00000000000000000000000000000000000000000000000000000000081526004016137d59190614128565b60405180910390fd5b506137e98282612d40565b808273ffffffffffffffffffffffffffffffffffffffff16600073ffffffffffffffffffffffffffffffffffffffff167fddf252ad1be2c89b69c2b068fc378daa952ba7f163c4a11628f55a4df523b3ef60405160405180910390a45050565b80600073ffffffffffffffffffffffffffffffffffffffff166001600083815260200190815260200160002060009054906101000a900473ffffffffffffffffffffffffffffffffffffffff1673ffffffffffffffffffffffffffffffffffffffff1614156040518060400160405280600681526020017f303033303032000000000000000000000000000000000000000000000000000081525090613925576040517f08c379a000000000000000000000000000000000000000000000000000000000815260040161391c9190614128565b60405180910390fd5b5060006001600084815260200190815260200160002060009054906101000a900473ffffffffffffffffffffffffffffffffffffffff16905061396783612dec565b6139718184612d32565b82600073ffffffffffffffffffffffffffffffffffffffff168273ffffffffffffffffffffffffffffffffffffffff167fddf252ad1be2c89b69c2b068fc378daa952ba7f163c4a11628f55a4df523b3ef60405160405180910390a4505050565b8280546139de90614382565b90600052602060002090601f016020900481019282613a005760008555613a47565b82601f10613a1957805160ff1916838001178555613a47565b82800160010185558215613a47579182015b82811115613a46578251825591602001919060010190613a2b565b5b509050613a549190613a98565b5090565b508054613a6490614382565b6000825580601f10613a765750613a95565b601f016020900490600052602060002090810190613a949190613a98565b5b50565b5b80821115613ab1576000816000905550600101613a99565b5090565b6000613ac8613ac3846141b6565b614185565b905082815260208101848484011115613ae057600080fd5b613aeb848285614340565b509392505050565b600081359050613b0281614452565b92915050565b600081359050613b1781614469565b92915050565b600081359050613b2c81614480565b92915050565b600081519050613b4181614480565b92915050565b60008083601f840112613b5957600080fd5b8235905067ffffffffffffffff811115613b7257600080fd5b602083019150836001820283011115613b8a57600080fd5b9250929050565b600082601f830112613ba257600080fd5b8135613bb2848260208601613ab5565b91505092915050565b600081359050613bca81614497565b92915050565b600060208284031215613be257600080fd5b6000613bf084828501613af3565b91505092915050565b60008060408385031215613c0c57600080fd5b6000613c1a85828601613af3565b9250506020613c2b85828601613af3565b9150509250929050565b600080600060608486031215613c4a57600080fd5b6000613c5886828701613af3565b9350506020613c6986828701613af3565b9250506040613c7a86828701613bbb565b9150509250925092565b600080600080600060808688031215613c9c57600080fd5b6000613caa88828901613af3565b9550506020613cbb88828901613af3565b9450506040613ccc88828901613bbb565b935050606086013567ffffffffffffffff811115613ce957600080fd5b613cf588828901613b47565b92509250509295509295909350565b60008060408385031215613d1757600080fd5b6000613d2585828601613af3565b9250506020613d3685828601613b08565b9150509250929050565b60008060408385031215613d5357600080fd5b6000613d6185828601613af3565b9250506020613d7285828601613bbb565b9150509250929050565b600080600060608486031215613d9157600080fd5b6000613d9f86828701613af3565b9350506020613db086828701613bbb565b925050604084013567ffffffffffffffff811115613dcd57600080fd5b613dd986828701613b91565b9150509250925092565b600060208284031215613df557600080fd5b6000613e0384828501613b1d565b91505092915050565b600060208284031215613e1e57600080fd5b6000613e2c84828501613b32565b91505092915050565b600060208284031215613e4757600080fd5b6000613e5584828501613bbb565b91505092915050565b60008060408385031215613e7157600080fd5b6000613e7f85828601613bbb565b925050602083013567ffffffffffffffff811115613e9c57600080fd5b613ea885828601613b91565b9150509250929050565b6000613ebe8383614038565b60208301905092915050565b613ed3816142bf565b82525050565b6000613ee4826141f6565b613eee8185614224565b9350613ef9836141e6565b8060005b83811015613f2a578151613f118882613eb2565b9750613f1c83614217565b925050600181019050613efd565b5085935050505092915050565b613f40816142d1565b82525050565b6000613f5182614201565b613f5b8185614235565b9350613f6b81856020860161434f565b613f7481614441565b840191505092915050565b6000613f8a8261420c565b613f948185614246565b9350613fa481856020860161434f565b613fad81614441565b840191505092915050565b6000613fc5600983614246565b91507f4e6f74206f776e657200000000000000000000000000000000000000000000006000830152602082019050919050565b6000614005601c83614246565b91507f706173736564206f776e65727368697020726571756972656d656e74000000006000830152602082019050919050565b61404181614329565b82525050565b61405081614329565b82525050565b600060208201905061406b6000830184613eca565b92915050565b60006080820190506140866000830187613eca565b6140936020830186613eca565b6140a06040830185614047565b81810360608301526140b28184613f46565b905095945050505050565b60006040820190506140d26000830184613eca565b81810360208301526140e381613ff8565b905092915050565b600060208201905081810360008301526141058184613ed9565b905092915050565b60006020820190506141226000830184613f37565b92915050565b600060208201905081810360008301526141428184613f7f565b905092915050565b6000602082019050818103600083015261416381613fb8565b9050919050565b600060208201905061417f6000830184614047565b92915050565b6000604051905081810181811067ffffffffffffffff821117156141ac576141ab614412565b5b8060405250919050565b600067ffffffffffffffff8211156141d1576141d0614412565b5b601f19601f8301169050602081019050919050565b6000819050602082019050919050565b600081519050919050565b600081519050919050565b600081519050919050565b6000602082019050919050565b600082825260208201905092915050565b600082825260208201905092915050565b600082825260208201905092915050565b600061426282614329565b915061426d83614329565b9250828210156142805761427f6143b4565b5b828203905092915050565b600061429682614333565b91506142a183614333565b9250828210156142b4576142b36143b4565b5b828203905092915050565b60006142ca82614309565b9050919050565b60008115159050919050565b60007fffffffff0000000000000000000000000000000000000000000000000000000082169050919050565b600073ffffffffffffffffffffffffffffffffffffffff82169050919050565b6000819050919050565b600060ff82169050919050565b82818337600083830152505050565b60005b8381101561436d578082015181840152602081019050614352565b8381111561437c576000848401525b50505050565b6000600282049050600182168061439a57607f821691505b602082108114156143ae576143ad6143e3565b5b50919050565b7f4e487b7100000000000000000000000000000000000000000000000000000000600052601160045260246000fd5b7f4e487b7100000000000000000000000000000000000000000000000000000000600052602260045260246000fd5b7f4e487b7100000000000000000000000000000000000000000000000000000000600052604160045260246000fd5b6000601f19601f8301169050919050565b61445b816142bf565b811461446657600080fd5b50565b614472816142d1565b811461447d57600080fd5b50565b614489816142dd565b811461449457600080fd5b50565b6144a081614329565b81146144ab57600080fd5b5056fea264697066735822122011808548d561d2828e7637b619c960e8b0d2b76bf445c5c209ad42c642b304ac64736f6c63430008000033",
  "linkReferences": {},
  "deployedLinkReferences": {}
}