{
  "_format": "hh-sol-artifact-1",
  "contractName": "SWDMarketPlace",
  "sourceName": "contracts/NMWD/SWDMarketPlace.sol",
  "abi": [
    {
      "anonymous": false,
      "inputs": [
        {
          "indexed": true,
          "internalType": "address",
          "name": "payer",
          "type": "address"
        },
        {
          "indexed": false,
          "internalType": "uint256",
          "name": "tokenId",
          "type": "uint256"
        },
        {
          "indexed": false,
          "internalType": "uint256",
          "name": "amount",
          "type": "uint256"
        }
      ],
      "name": "NFTSent",
      "type": "event"
    },
    {
      "anonymous": false,
      "inputs": [
        {
          "indexed": true,
          "internalType": "address",
          "name": "previousOwner",
          "type": "address"
        },
        {
          "indexed": true,
          "internalType": "address",
          "name": "newOwner",
          "type": "address"
        }
      ],
      "name": "OwnershipTransferred",
      "type": "event"
    },
    {
      "anonymous": false,
      "inputs": [
        {
          "indexed": true,
          "internalType": "address",
          "name": "payee",
          "type": "address"
        },
        {
          "indexed": false,
          "internalType": "uint256",
          "name": "amount",
          "type": "uint256"
        }
      ],
      "name": "RoyaltyPaid",
      "type": "event"
    },
    {
      "anonymous": false,
      "inputs": [
        {
          "indexed": true,
          "internalType": "address",
          "name": "payee",
          "type": "address"
        },
        {
          "indexed": false,
          "internalType": "uint256",
          "name": "amount",
          "type": "uint256"
        }
      ],
      "name": "SecurityWithdrawal",
      "type": "event"
    },
    {
      "anonymous": false,
      "inputs": [
        {
          "indexed": true,
          "internalType": "address",
          "name": "payee",
          "type": "address"
        },
        {
          "indexed": false,
          "internalType": "uint256",
          "name": "amount",
          "type": "uint256"
        }
      ],
      "name": "Sent",
      "type": "event"
    },
    {
      "anonymous": false,
      "inputs": [
        {
          "indexed": false,
          "internalType": "address",
          "name": "deliveredTo",
          "type": "address"
        },
        {
          "indexed": false,
          "internalType": "string",
          "name": "msg",
          "type": "string"
        }
      ],
      "name": "_msg",
      "type": "event"
    },
    {
      "inputs": [],
      "name": "CANNOT_TRANSFER_TO_ZERO_ADDRESS",
      "outputs": [
        {
          "internalType": "string",
          "name": "",
          "type": "string"
        }
      ],
      "stateMutability": "view",
      "type": "function"
    },
    {
      "inputs": [],
      "name": "NOT_CURRENT_OWNER",
      "outputs": [
        {
          "internalType": "string",
          "name": "",
          "type": "string"
        }
      ],
      "stateMutability": "view",
      "type": "function"
    },
    {
      "inputs": [],
      "name": "TokenContract",
      "outputs": [
        {
          "internalType": "contract StopTheWarOnDrugs",
          "name": "",
          "type": "address"
        }
      ],
      "stateMutability": "view",
      "type": "function"
    },
    {
      "inputs": [
        {
          "internalType": "uint256",
          "name": "_tokenId",
          "type": "uint256"
        }
      ],
      "name": "burn",
      "outputs": [],
      "stateMutability": "nonpayable",
      "type": "function"
    },
    {
      "inputs": [],
      "name": "getBackOwnership",
      "outputs": [],
      "stateMutability": "nonpayable",
      "type": "function"
    },
    {
      "inputs": [
        {
          "internalType": "uint256",
          "name": "_tokenId",
          "type": "uint256"
        }
      ],
      "name": "getForSale",
      "outputs": [
        {
          "internalType": "bool",
          "name": "",
          "type": "bool"
        }
      ],
      "stateMutability": "view",
      "type": "function"
    },
    {
      "inputs": [],
      "name": "getMarketPlaceBalance",
      "outputs": [
        {
          "internalType": "uint256",
          "name": "",
          "type": "uint256"
        }
      ],
      "stateMutability": "view",
      "type": "function"
    },
    {
      "inputs": [],
      "name": "getOwner",
      "outputs": [
        {
          "internalType": "address",
          "name": "",
          "type": "address"
        }
      ],
      "stateMutability": "view",
      "type": "function"
    },
    {
      "inputs": [
        {
          "internalType": "uint256",
          "name": "_tokenId",
          "type": "uint256"
        }
      ],
      "name": "getPrice",
      "outputs": [
        {
          "internalType": "uint256",
          "name": "",
          "type": "uint256"
        }
      ],
      "stateMutability": "view",
      "type": "function"
    },
    {
      "inputs": [],
      "name": "initialize",
      "outputs": [],
      "stateMutability": "nonpayable",
      "type": "function"
    },
    {
      "inputs": [
        {
          "internalType": "address",
          "name": "_to",
          "type": "address"
        },
        {
          "internalType": "uint256",
          "name": "_tokenId",
          "type": "uint256"
        }
      ],
      "name": "mintThroughPurchase",
      "outputs": [],
      "stateMutability": "payable",
      "type": "function"
    },
    {
      "inputs": [],
      "name": "owner",
      "outputs": [
        {
          "internalType": "address",
          "name": "",
          "type": "address"
        }
      ],
      "stateMutability": "view",
      "type": "function"
    },
    {
      "inputs": [
        {
          "internalType": "uint256",
          "name": "_tokenId",
          "type": "uint256"
        }
      ],
      "name": "purchaseToken",
      "outputs": [],
      "stateMutability": "payable",
      "type": "function"
    },
    {
      "inputs": [
        {
          "internalType": "uint256",
          "name": "_tokenId",
          "type": "uint256"
        },
        {
          "internalType": "bool",
          "name": "_forSale",
          "type": "bool"
        }
      ],
      "name": "setForSale",
      "outputs": [
        {
          "internalType": "bool",
          "name": "",
          "type": "bool"
        }
      ],
      "stateMutability": "nonpayable",
      "type": "function"
    },
    {
      "inputs": [
        {
          "internalType": "uint256",
          "name": "_price",
          "type": "uint256"
        },
        {
          "internalType": "uint256",
          "name": "_tokenId",
          "type": "uint256"
        }
      ],
      "name": "setPrice",
      "outputs": [],
      "stateMutability": "nonpayable",
      "type": "function"
    },
    {
      "inputs": [
        {
          "internalType": "uint256",
          "name": "_price",
          "type": "uint256"
        },
        {
          "internalType": "uint256",
          "name": "_tokenId",
          "type": "uint256"
        },
        {
          "internalType": "address",
          "name": "_royaltyAddress",
          "type": "address"
        }
      ],
      "name": "setPriceForMinting",
      "outputs": [],
      "stateMutability": "nonpayable",
      "type": "function"
    },
    {
      "inputs": [
        {
          "internalType": "address",
          "name": "_newOwner",
          "type": "address"
        }
      ],
      "name": "transferOwnership",
      "outputs": [],
      "stateMutability": "nonpayable",
      "type": "function"
    },
    {
      "inputs": [
        {
          "internalType": "address",
          "name": "nmwdAddress",
          "type": "address"
        }
      ],
      "name": "updateNMWDcontract",
      "outputs": [],
      "stateMutability": "nonpayable",
      "type": "function"
    },
    {
      "inputs": [
        {
          "internalType": "address",
          "name": "_payee",
          "type": "address"
        },
        {
          "internalType": "uint256",
          "name": "_amount",
          "type": "uint256"
        }
      ],
      "name": "withdrawFromContract",
      "outputs": [],
      "stateMutability": "nonpayable",
      "type": "function"
    }
  ],
  "bytecode": "0x608060405234801561001057600080fd5b50613354806100206000396000f3fe6080604052600436106101145760003560e01c8063b0e857ec116100a0578063f0a6c16b11610064578063f0a6c16b1461034b578063f2fde38b14610388578063f3fe3bc3146103b1578063f7d97577146103dc578063f9b4f4bb1461040557610114565b8063b0e857ec14610282578063b4c49d09146102ab578063bec4dd85146102d6578063c2db2c42146102f2578063e75722301461030e57610114565b8063837381fa116100e7578063837381fa146101ad578063860d248a146101d6578063893d20e8146102015780638da5cb5b1461022c5780639688738b1461025757610114565b80632abacf8c1461011957806342966c68146101565780635c93bec71461017f5780638129fc1c14610196575b600080fd5b34801561012557600080fd5b50610140600480360381019061013b9190612ad8565b61042e565b60405161014d9190612f3d565b60405180910390f35b34801561016257600080fd5b5061017d60048036038101906101789190612ad8565b610458565b005b34801561018b57600080fd5b506101946105cd565b005b3480156101a257600080fd5b506101ab61082c565b005b3480156101b957600080fd5b506101d460048036038101906101cf9190612a37565b610910565b005b3480156101e257600080fd5b506101eb610d0b565b6040516101f89190612f73565b60405180910390f35b34801561020d57600080fd5b50610216610d44565b6040516102239190612e21565b60405180910390f35b34801561023857600080fd5b50610241610d6d565b60405161024e9190612e21565b60405180910390f35b34801561026357600080fd5b5061026c610d91565b6040516102799190612f58565b60405180910390f35b34801561028e57600080fd5b506102a960048036038101906102a491906129e5565b610db7565b005b3480156102b757600080fd5b506102c061108b565b6040516102cd9190613015565b60405180910390f35b6102f060048036038101906102eb9190612a37565b611095565b005b61030c60048036038101906103079190612ad8565b611374565b005b34801561031a57600080fd5b5061033560048036038101906103309190612ad8565b611d73565b6040516103429190613015565b60405180910390f35b34801561035757600080fd5b50610372600480360381019061036d9190612b01565b611d90565b60405161037f9190612f3d565b60405180910390f35b34801561039457600080fd5b506103af60048036038101906103aa91906129e5565b611fc8565b005b3480156103bd57600080fd5b506103c6612213565b6040516103d39190612f73565b60405180910390f35b3480156103e857600080fd5b5061040360048036038101906103fe9190612b3d565b61224c565b005b34801561041157600080fd5b5061042c60048036038101906104279190612b79565b612462565b005b60006004600083815260200190815260200160002060009054906101000a900460ff169050919050565b60008054906101000a900473ffffffffffffffffffffffffffffffffffffffff1673ffffffffffffffffffffffffffffffffffffffff163373ffffffffffffffffffffffffffffffffffffffff16146104e6576040517f08c379a00000000000000000000000000000000000000000000000000000000081526004016104dd90612fd5565b60405180910390fd5b7f2d5a82cbc34270500c60b0532ca36cd4716c295bf0351b25835351664a3125bf60008054906101000a900473ffffffffffffffffffffffffffffffffffffffff166040516105359190612eca565b60405180910390a1600160009054906101000a900473ffffffffffffffffffffffffffffffffffffffff1673ffffffffffffffffffffffffffffffffffffffff166342966c68826040518263ffffffff1660e01b81526004016105989190613015565b600060405180830381600087803b1580156105b257600080fd5b505af11580156105c6573d6000803e3d6000fd5b5050505050565b60008054906101000a900473ffffffffffffffffffffffffffffffffffffffff1673ffffffffffffffffffffffffffffffffffffffff163373ffffffffffffffffffffffffffffffffffffffff161461065b576040517f08c379a000000000000000000000000000000000000000000000000000000000815260040161065290612fd5565b60405180910390fd5b7f2d5a82cbc34270500c60b0532ca36cd4716c295bf0351b25835351664a3125bf60008054906101000a900473ffffffffffffffffffffffffffffffffffffffff166040516106aa9190612eca565b60405180910390a1600073ffffffffffffffffffffffffffffffffffffffff16600160009054906101000a900473ffffffffffffffffffffffffffffffffffffffff1673ffffffffffffffffffffffffffffffffffffffff1614156040518060400160405280600481526020017f30353032000000000000000000000000000000000000000000000000000000008152509061077c576040517f08c379a00000000000000000000000000000000000000000000000000000000081526004016107739190612f73565b60405180910390fd5b50600160009054906101000a900473ffffffffffffffffffffffffffffffffffffffff1673ffffffffffffffffffffffffffffffffffffffff1663f2fde38b60008054906101000a900473ffffffffffffffffffffffffffffffffffffffff166040518263ffffffff1660e01b81526004016107f89190612e21565b600060405180830381600087803b15801561081257600080fd5b505af1158015610826573d6000803e3d6000fd5b50505050565b600060159054906101000a900460ff16806108545750600060149054906101000a900460ff16155b610893576040517f08c379a000000000000000000000000000000000000000000000000000000000815260040161088a90612fb5565b60405180910390fd5b60008060159054906101000a900460ff1615905080156108e4576001600060156101000a81548160ff0219169083151502179055506001600060146101000a81548160ff0219169083151502179055505b6108ec6128c6565b801561090d5760008060156101000a81548160ff0219169083151502179055505b50565b60008054906101000a900473ffffffffffffffffffffffffffffffffffffffff1673ffffffffffffffffffffffffffffffffffffffff163373ffffffffffffffffffffffffffffffffffffffff161461099e576040517f08c379a000000000000000000000000000000000000000000000000000000000815260040161099590612fd5565b60405180910390fd5b7f2d5a82cbc34270500c60b0532ca36cd4716c295bf0351b25835351664a3125bf60008054906101000a900473ffffffffffffffffffffffffffffffffffffffff166040516109ed9190612eca565b60405180910390a1600073ffffffffffffffffffffffffffffffffffffffff168273ffffffffffffffffffffffffffffffffffffffff1614158015610a5e57503073ffffffffffffffffffffffffffffffffffffffff168273ffffffffffffffffffffffffffffffffffffffff1614155b610a6757600080fd5b8060055410156040518060400160405280600481526020017f303531300000000000000000000000000000000000000000000000000000000081525090610ae4576040517f08c379a0000000000000000000000000000000000000000000000000000000008152600401610adb9190612f73565b60405180910390fd5b50600081118015610af55750478111155b6040518060400160405280600481526020017f303530360000000000000000000000000000000000000000000000000000000081525090610b6c576040517f08c379a0000000000000000000000000000000000000000000000000000000008152600401610b639190612f73565b60405180910390fd5b504760055414610c5857600060058190555060008054906101000a900473ffffffffffffffffffffffffffffffffffffffff1673ffffffffffffffffffffffffffffffffffffffff166108fc479081150290604051600060405180830381858888f19350505050158015610be4573d6000803e3d6000fd5b5060008054906101000a900473ffffffffffffffffffffffffffffffffffffffff1673ffffffffffffffffffffffffffffffffffffffff167f6dfc6e5b54e9b8b518c0d73fe237bd1a47d57856827cbf13853bee71425c6a9082604051610c4b9190613015565b60405180910390a2610d07565b8060056000828254610c6a9190613161565b925050819055508173ffffffffffffffffffffffffffffffffffffffff166108fc829081150290604051600060405180830381858888f19350505050158015610cb7573d6000803e3d6000fd5b508173ffffffffffffffffffffffffffffffffffffffff167f510ffb4dcab972ae9d2007a58e13f1b0881776d23cd8f5cc32f8c5be2dbf70d282604051610cfe9190613015565b60405180910390a25b5050565b6040518060400160405280600481526020017f303130320000000000000000000000000000000000000000000000000000000081525081565b60008060009054906101000a900473ffffffffffffffffffffffffffffffffffffffff16905090565b60008054906101000a900473ffffffffffffffffffffffffffffffffffffffff1681565b600160009054906101000a900473ffffffffffffffffffffffffffffffffffffffff1681565b60008054906101000a900473ffffffffffffffffffffffffffffffffffffffff1673ffffffffffffffffffffffffffffffffffffffff163373ffffffffffffffffffffffffffffffffffffffff1614610e45576040517f08c379a0000000000000000000000000000000000000000000000000000000008152600401610e3c90612fd5565b60405180910390fd5b7f2d5a82cbc34270500c60b0532ca36cd4716c295bf0351b25835351664a3125bf60008054906101000a900473ffffffffffffffffffffffffffffffffffffffff16604051610e949190612eca565b60405180910390a1600073ffffffffffffffffffffffffffffffffffffffff168173ffffffffffffffffffffffffffffffffffffffff1614158015610f0557503073ffffffffffffffffffffffffffffffffffffffff168173ffffffffffffffffffffffffffffffffffffffff1614155b6040518060400160405280600481526020017f303530310000000000000000000000000000000000000000000000000000000081525090610f7c576040517f08c379a0000000000000000000000000000000000000000000000000000000008152600401610f739190612f73565b60405180910390fd5b508073ffffffffffffffffffffffffffffffffffffffff16600160009054906101000a900473ffffffffffffffffffffffffffffffffffffffff1673ffffffffffffffffffffffffffffffffffffffff1614156040518060400160405280600481526020017f303530380000000000000000000000000000000000000000000000000000000081525090611046576040517f08c379a000000000000000000000000000000000000000000000000000000000815260040161103d9190612f73565b60405180910390fd5b5080600160006101000a81548173ffffffffffffffffffffffffffffffffffffffff021916908373ffffffffffffffffffffffffffffffffffffffff16021790555050565b6000600554905090565b60006002600083815260200190815260200160002054116040518060400160405280600481526020017f303531330000000000000000000000000000000000000000000000000000000081525090611123576040517f08c379a000000000000000000000000000000000000000000000000000000000815260040161111a9190612f73565b60405180910390fd5b5060026000828152602001908152602001600020543410156040518060400160405280600481526020017f3035303600000000000000000000000000000000000000000000000000000000815250906111b2576040517f08c379a00000000000000000000000000000000000000000000000000000000081526004016111a99190612f73565b60405180910390fd5b50600073ffffffffffffffffffffffffffffffffffffffff166111d361295f565b73ffffffffffffffffffffffffffffffffffffffff161415801561122a57503073ffffffffffffffffffffffffffffffffffffffff1661121161295f565b73ffffffffffffffffffffffffffffffffffffffff1614155b61123357600080fd5b60006003600083815260200190815260200160002060009054906101000a900473ffffffffffffffffffffffffffffffffffffffff16905060006101f4905034600560008282546112849190613080565b92505081905550600160009054906101000a900473ffffffffffffffffffffffffffffffffffffffff1673ffffffffffffffffffffffffffffffffffffffff16633c173a4f858585856040518563ffffffff1660e01b81526004016112ec9493929190612ef8565b600060405180830381600087803b15801561130657600080fd5b505af115801561131a573d6000803e3d6000fd5b505050508373ffffffffffffffffffffffffffffffffffffffff167fdbc09166e717a324fd239bd32af51e47b8348709b352f3223238c4de82ebaa768434604051611366929190613030565b60405180910390a250505050565b6004600082815260200190815260200160002060009054906101000a900460ff166040518060400160405280600481526020017f30353035000000000000000000000000000000000000000000000000000000008152509061140c576040517f08c379a00000000000000000000000000000000000000000000000000000000081526004016114039190612f73565b60405180910390fd5b50600073ffffffffffffffffffffffffffffffffffffffff1661142d61295f565b73ffffffffffffffffffffffffffffffffffffffff161415801561148457503073ffffffffffffffffffffffffffffffffffffffff1661146b61295f565b73ffffffffffffffffffffffffffffffffffffffff1614155b61148d57600080fd5b60006002600083815260200190815260200160002054116040518060400160405280600481526020017f30353133000000000000000000000000000000000000000000000000000000008152509061151b576040517f08c379a00000000000000000000000000000000000000000000000000000000081526004016115129190612f73565b60405180910390fd5b50600260008281526020019081526020016000205434101561153c57600080fd5b600073ffffffffffffffffffffffffffffffffffffffff16600160009054906101000a900473ffffffffffffffffffffffffffffffffffffffff1673ffffffffffffffffffffffffffffffffffffffff16636352211e836040518263ffffffff1660e01b81526004016115af9190613015565b60206040518083038186803b1580156115c757600080fd5b505afa1580156115db573d6000803e3d6000fd5b505050506040513d601f19601f820116820180604052508101906115ff9190612a0e565b73ffffffffffffffffffffffffffffffffffffffff1614156040518060400160405280600481526020017f30353034000000000000000000000000000000000000000000000000000000008152509061168e576040517f08c379a00000000000000000000000000000000000000000000000000000000081526004016116859190612f73565b60405180910390fd5b506000600160009054906101000a900473ffffffffffffffffffffffffffffffffffffffff1673ffffffffffffffffffffffffffffffffffffffff16636352211e836040518263ffffffff1660e01b81526004016116ec9190613015565b60206040518083038186803b15801561170457600080fd5b505afa158015611718573d6000803e3d6000fd5b505050506040513d601f19601f8201168201806040525081019061173c9190612a0e565b90503073ffffffffffffffffffffffffffffffffffffffff16600160009054906101000a900473ffffffffffffffffffffffffffffffffffffffff1673ffffffffffffffffffffffffffffffffffffffff1663081812fc846040518263ffffffff1660e01b81526004016117b09190613015565b60206040518083038186803b1580156117c857600080fd5b505afa1580156117dc573d6000803e3d6000fd5b505050506040513d601f19601f820116820180604052508101906118009190612a0e565b73ffffffffffffffffffffffffffffffffffffffff1614806118cb5750600160009054906101000a900473ffffffffffffffffffffffffffffffffffffffff1673ffffffffffffffffffffffffffffffffffffffff1663e985e9c582306040518363ffffffff1660e01b815260040161187a929190612e3c565b60206040518083038186803b15801561189257600080fd5b505afa1580156118a6573d6000803e3d6000fd5b505050506040513d601f19601f820116820180604052508101906118ca9190612aaf565b5b6040518060400160405280600481526020017f303530330000000000000000000000000000000000000000000000000000000081525090611942576040517f08c379a00000000000000000000000000000000000000000000000000000000081526004016119399190612f73565b60405180910390fd5b5060006004600084815260200190815260200160002060006101000a81548160ff021916908315150217905550600060086103e83461198191906130d6565b61198b9190613107565b9050806005600082825461199f9190613080565b92505081905550600081346119b49190613161565b9050600080600160009054906101000a900473ffffffffffffffffffffffffffffffffffffffff1673ffffffffffffffffffffffffffffffffffffffff16632a55205a87856040518363ffffffff1660e01b8152600401611a16929190613030565b604080518083038186803b158015611a2d57600080fd5b505afa158015611a41573d6000803e3d6000fd5b505050506040513d601f19601f82011682018060405250810190611a659190612a73565b9150915060008184611a779190613161565b905060008673ffffffffffffffffffffffffffffffffffffffff16826201d4c090604051611aa490612e0c565b600060405180830381858888f193505050503d8060008114611ae2576040519150601f19603f3d011682016040523d82523d6000602084013e611ae7565b606091505b5050905080611b2b576040517f08c379a0000000000000000000000000000000000000000000000000000000008152600401611b2290612ff5565b60405180910390fd5b60008473ffffffffffffffffffffffffffffffffffffffff16846201d4c090604051611b5690612e0c565b600060405180830381858888f193505050503d8060008114611b94576040519150601f19603f3d011682016040523d82523d6000602084013e611b99565b606091505b5050905080611bdd576040517f08c379a0000000000000000000000000000000000000000000000000000000008152600401611bd490612f95565b60405180910390fd5b600160009054906101000a900473ffffffffffffffffffffffffffffffffffffffff1673ffffffffffffffffffffffffffffffffffffffff166342842e0e89611c2461295f565b8c6040518463ffffffff1660e01b8152600401611c4393929190612e65565b600060405180830381600087803b158015611c5d57600080fd5b505af1158015611c71573d6000803e3d6000fd5b505050508773ffffffffffffffffffffffffffffffffffffffff167f510ffb4dcab972ae9d2007a58e13f1b0881776d23cd8f5cc32f8c5be2dbf70d284604051611cbb9190613015565b60405180910390a28473ffffffffffffffffffffffffffffffffffffffff167fbc86de696edc3350c664d50abf25f24e7e1251f1469ad925b25fe36927270d4385604051611d099190613015565b60405180910390a2611d1961295f565b73ffffffffffffffffffffffffffffffffffffffff167fdbc09166e717a324fd239bd32af51e47b8348709b352f3223238c4de82ebaa768a34604051611d60929190613030565b60405180910390a2505050505050505050565b600060026000838152602001908152602001600020549050919050565b6000600160009054906101000a900473ffffffffffffffffffffffffffffffffffffffff1673ffffffffffffffffffffffffffffffffffffffff16636352211e846040518263ffffffff1660e01b8152600401611ded9190613015565b60206040518083038186803b158015611e0557600080fd5b505afa925050508015611e3657506040513d601f19601f82011682018060405250810190611e339190612a0e565b60015b611e435760009050611fc2565b611e4b61295f565b73ffffffffffffffffffffffffffffffffffffffff168173ffffffffffffffffffffffffffffffffffffffff16146040518060400160405280600481526020017f303530390000000000000000000000000000000000000000000000000000000081525090611ef0576040517f08c379a0000000000000000000000000000000000000000000000000000000008152600401611ee79190612f73565b60405180910390fd5b50506004600084815260200190815260200160002060009054906101000a900460ff16151582151514156040518060400160405280600481526020017f303530380000000000000000000000000000000000000000000000000000000081525090611f91576040517f08c379a0000000000000000000000000000000000000000000000000000000008152600401611f889190612f73565b60405180910390fd5b50816004600085815260200190815260200160002060006101000a81548160ff021916908315150217905550600190505b92915050565b60008054906101000a900473ffffffffffffffffffffffffffffffffffffffff1673ffffffffffffffffffffffffffffffffffffffff163373ffffffffffffffffffffffffffffffffffffffff1614612056576040517f08c379a000000000000000000000000000000000000000000000000000000000815260040161204d90612fd5565b60405180910390fd5b7f2d5a82cbc34270500c60b0532ca36cd4716c295bf0351b25835351664a3125bf60008054906101000a900473ffffffffffffffffffffffffffffffffffffffff166040516120a59190612eca565b60405180910390a1600073ffffffffffffffffffffffffffffffffffffffff168173ffffffffffffffffffffffffffffffffffffffff1614156040518060400160405280600481526020017f303130320000000000000000000000000000000000000000000000000000000081525090612155576040517f08c379a000000000000000000000000000000000000000000000000000000000815260040161214c9190612f73565b60405180910390fd5b508073ffffffffffffffffffffffffffffffffffffffff1660008054906101000a900473ffffffffffffffffffffffffffffffffffffffff1673ffffffffffffffffffffffffffffffffffffffff167f8be0079c531659141344cd1fd0a4f28419497f9722a3daafe3b4186f6b6457e060405160405180910390a3806000806101000a81548173ffffffffffffffffffffffffffffffffffffffff021916908373ffffffffffffffffffffffffffffffffffffffff16021790555050565b6040518060400160405280600481526020017f303130310000000000000000000000000000000000000000000000000000000081525081565b600082116040518060400160405280600481526020017f3035303700000000000000000000000000000000000000000000000000000000815250906122c7576040517f08c379a00000000000000000000000000000000000000000000000000000000081526004016122be9190612f73565b60405180910390fd5b5060026000828152602001908152602001600020548214156040518060400160405280600481526020017f303530380000000000000000000000000000000000000000000000000000000081525090612356576040517f08c379a000000000000000000000000000000000000000000000000000000000815260040161234d9190612f73565b60405180910390fd5b506000600160009054906101000a900473ffffffffffffffffffffffffffffffffffffffff1673ffffffffffffffffffffffffffffffffffffffff16636352211e836040518263ffffffff1660e01b81526004016123b49190613015565b60206040518083038186803b1580156123cc57600080fd5b505afa1580156123e0573d6000803e3d6000fd5b505050506040513d601f19601f820116820180604052508101906124049190612a0e565b905061240e61295f565b73ffffffffffffffffffffffffffffffffffffffff168173ffffffffffffffffffffffffffffffffffffffff161461244557600080fd5b826002600084815260200190815260200160002081905550505050565b60008054906101000a900473ffffffffffffffffffffffffffffffffffffffff1673ffffffffffffffffffffffffffffffffffffffff163373ffffffffffffffffffffffffffffffffffffffff16146124f0576040517f08c379a00000000000000000000000000000000000000000000000000000000081526004016124e790612fd5565b60405180910390fd5b7f2d5a82cbc34270500c60b0532ca36cd4716c295bf0351b25835351664a3125bf60008054906101000a900473ffffffffffffffffffffffffffffffffffffffff1660405161253f9190612eca565b60405180910390a1600083116040518060400160405280600481526020017f3035303700000000000000000000000000000000000000000000000000000000815250906125c2576040517f08c379a00000000000000000000000000000000000000000000000000000000081526004016125b99190612f73565b60405180910390fd5b5060026000838152602001908152602001600020548314156040518060400160405280600481526020017f303530380000000000000000000000000000000000000000000000000000000081525090612651576040517f08c379a00000000000000000000000000000000000000000000000000000000081526004016126489190612f73565b60405180910390fd5b50600073ffffffffffffffffffffffffffffffffffffffff168173ffffffffffffffffffffffffffffffffffffffff16141580156126bb57503073ffffffffffffffffffffffffffffffffffffffff168173ffffffffffffffffffffffffffffffffffffffff1614155b6040518060400160405280600481526020017f303530310000000000000000000000000000000000000000000000000000000081525090612732576040517f08c379a00000000000000000000000000000000000000000000000000000000081526004016127299190612f73565b60405180910390fd5b50600160009054906101000a900473ffffffffffffffffffffffffffffffffffffffff1673ffffffffffffffffffffffffffffffffffffffff16634f558e79836040518263ffffffff1660e01b815260040161278e9190613015565b60206040518083038186803b1580156127a657600080fd5b505afa1580156127ba573d6000803e3d6000fd5b505050506040513d601f19601f820116820180604052508101906127de9190612aaf565b156040518060400160405280600481526020017f303531320000000000000000000000000000000000000000000000000000000081525090612856576040517f08c379a000000000000000000000000000000000000000000000000000000000815260040161284d9190612f73565b60405180910390fd5b50826002600084815260200190815260200160002081905550806003600084815260200190815260200160002060006101000a81548173ffffffffffffffffffffffffffffffffffffffff021916908373ffffffffffffffffffffffffffffffffffffffff160217905550505050565b336000806101000a81548173ffffffffffffffffffffffffffffffffffffffff021916908373ffffffffffffffffffffffffffffffffffffffff1602179055507f2d5a82cbc34270500c60b0532ca36cd4716c295bf0351b25835351664a3125bf60008054906101000a900473ffffffffffffffffffffffffffffffffffffffff166040516129559190612e9c565b60405180910390a1565b600033905090565b600081359050612976816132d9565b92915050565b60008151905061298b816132d9565b92915050565b6000813590506129a0816132f0565b92915050565b6000815190506129b5816132f0565b92915050565b6000813590506129ca81613307565b92915050565b6000815190506129df81613307565b92915050565b6000602082840312156129f757600080fd5b6000612a0584828501612967565b91505092915050565b600060208284031215612a2057600080fd5b6000612a2e8482850161297c565b91505092915050565b60008060408385031215612a4a57600080fd5b6000612a5885828601612967565b9250506020612a69858286016129bb565b9150509250929050565b60008060408385031215612a8657600080fd5b6000612a948582860161297c565b9250506020612aa5858286016129d0565b9150509250929050565b600060208284031215612ac157600080fd5b6000612acf848285016129a6565b91505092915050565b600060208284031215612aea57600080fd5b6000612af8848285016129bb565b91505092915050565b60008060408385031215612b1457600080fd5b6000612b22858286016129bb565b9250506020612b3385828601612991565b9150509250929050565b60008060408385031215612b5057600080fd5b6000612b5e858286016129bb565b9250506020612b6f858286016129bb565b9150509250929050565b600080600060608486031215612b8e57600080fd5b6000612b9c868287016129bb565b9350506020612bad868287016129bb565b9250506040612bbe86828701612967565b9150509250925092565b612bd1816131dd565b82525050565b612be081613195565b82525050565b612bef816131a7565b82525050565b612bfe816131ef565b82525050565b6000612c0f82613059565b612c19818561306f565b9350612c29818560208601613237565b612c32816132c8565b840191505092915050565b6000612c4a60178361306f565b91507f506179696e6720526f79616c74696573206661696c65640000000000000000006000830152602082019050919050565b6000612c8a602e8361306f565b91507f496e697469616c697a61626c653a20636f6e747261637420697320616c72656160008301527f647920696e697469616c697a65640000000000000000000000000000000000006020830152604082019050919050565b6000612cf060098361306f565b91507f736574206f776e657200000000000000000000000000000000000000000000006000830152602082019050919050565b6000612d3060098361306f565b91507f4e6f74206f776e657200000000000000000000000000000000000000000000006000830152602082019050919050565b6000612d7060148361306f565b91507f506179696e672073656c6c6572206661696c65640000000000000000000000006000830152602082019050919050565b6000612db0600083613064565b9150600082019050919050565b6000612dca601c8361306f565b91507f706173736564206f776e65727368697020726571756972656d656e74000000006000830152602082019050919050565b612e06816131d3565b82525050565b6000612e1782612da3565b9150819050919050565b6000602082019050612e366000830184612bd7565b92915050565b6000604082019050612e516000830185612bd7565b612e5e6020830184612bd7565b9392505050565b6000606082019050612e7a6000830186612bd7565b612e876020830185612bc8565b612e946040830184612dfd565b949350505050565b6000604082019050612eb16000830184612bd7565b8181036020830152612ec281612ce3565b905092915050565b6000604082019050612edf6000830184612bd7565b8181036020830152612ef081612dbd565b905092915050565b6000608082019050612f0d6000830187612bd7565b612f1a6020830186612dfd565b612f276040830185612bd7565b612f346060830184612dfd565b95945050505050565b6000602082019050612f526000830184612be6565b92915050565b6000602082019050612f6d6000830184612bf5565b92915050565b60006020820190508181036000830152612f8d8184612c04565b905092915050565b60006020820190508181036000830152612fae81612c3d565b9050919050565b60006020820190508181036000830152612fce81612c7d565b9050919050565b60006020820190508181036000830152612fee81612d23565b9050919050565b6000602082019050818103600083015261300e81612d63565b9050919050565b600060208201905061302a6000830184612dfd565b92915050565b60006040820190506130456000830185612dfd565b6130526020830184612dfd565b9392505050565b600081519050919050565b600081905092915050565b600082825260208201905092915050565b600061308b826131d3565b9150613096836131d3565b9250827fffffffffffffffffffffffffffffffffffffffffffffffffffffffffffffffff038211156130cb576130ca61326a565b5b828201905092915050565b60006130e1826131d3565b91506130ec836131d3565b9250826130fc576130fb613299565b5b828204905092915050565b6000613112826131d3565b915061311d836131d3565b9250817fffffffffffffffffffffffffffffffffffffffffffffffffffffffffffffffff04831182151516156131565761315561326a565b5b828202905092915050565b600061316c826131d3565b9150613177836131d3565b92508282101561318a5761318961326a565b5b828203905092915050565b60006131a0826131b3565b9050919050565b60008115159050919050565b600073ffffffffffffffffffffffffffffffffffffffff82169050919050565b6000819050919050565b60006131e882613213565b9050919050565b60006131fa82613201565b9050919050565b600061320c826131b3565b9050919050565b600061321e82613225565b9050919050565b6000613230826131b3565b9050919050565b60005b8381101561325557808201518184015260208101905061323a565b83811115613264576000848401525b50505050565b7f4e487b7100000000000000000000000000000000000000000000000000000000600052601160045260246000fd5b7f4e487b7100000000000000000000000000000000000000000000000000000000600052601260045260246000fd5b6000601f19601f8301169050919050565b6132e281613195565b81146132ed57600080fd5b50565b6132f9816131a7565b811461330457600080fd5b50565b613310816131d3565b811461331b57600080fd5b5056fea2646970667358221220c4aed6baa5741ffba8b2ea3b2692f924cc6442320f6e3d90d9656df8b3ac749964736f6c63430008000033",
  "linkReferences": {},
  "deployedLinkReferences": {}
}