{
  "_format": "hh-sol-artifact-1",
  "contractName": "NMWDMarketPlace",
  "sourceName": "contracts/NMWDMarketPlace.sol",
  "abi": [
    {
      "inputs": [],
      "stateMutability": "nonpayable",
      "type": "constructor"
    },
    {
      "anonymous": false,
      "inputs": [
        {
          "indexed": true,
          "internalType": "address",
          "name": "previousOwner",
          "type": "address"
        },
        {
          "indexed": true,
          "internalType": "address",
          "name": "newOwner",
          "type": "address"
        }
      ],
      "name": "OwnershipTransferred",
      "type": "event"
    },
    {
      "anonymous": false,
      "inputs": [
        {
          "indexed": true,
          "internalType": "address",
          "name": "payer",
          "type": "address"
        },
        {
          "indexed": false,
          "internalType": "uint256",
          "name": "tokenId",
          "type": "uint256"
        },
        {
          "indexed": false,
          "internalType": "uint256",
          "name": "amount",
          "type": "uint256"
        }
      ],
      "name": "Received",
      "type": "event"
    },
    {
      "anonymous": false,
      "inputs": [
        {
          "indexed": true,
          "internalType": "address",
          "name": "payee",
          "type": "address"
        },
        {
          "indexed": false,
          "internalType": "uint256",
          "name": "amount",
          "type": "uint256"
        }
      ],
      "name": "SecurityWithdrawal",
      "type": "event"
    },
    {
      "anonymous": false,
      "inputs": [
        {
          "indexed": true,
          "internalType": "address",
          "name": "payee",
          "type": "address"
        },
        {
          "indexed": false,
          "internalType": "uint256",
          "name": "amount",
          "type": "uint256"
        }
      ],
      "name": "Sent",
      "type": "event"
    },
    {
      "anonymous": false,
      "inputs": [
        {
          "indexed": false,
          "internalType": "address",
          "name": "deliveredTo",
          "type": "address"
        },
        {
          "indexed": false,
          "internalType": "string",
          "name": "msg",
          "type": "string"
        }
      ],
      "name": "_msg",
      "type": "event"
    },
    {
      "inputs": [],
      "name": "CANNOT_TRANSFER_TO_ZERO_ADDRESS",
      "outputs": [
        {
          "internalType": "string",
          "name": "",
          "type": "string"
        }
      ],
      "stateMutability": "view",
      "type": "function"
    },
    {
      "inputs": [],
      "name": "NMWDcontract",
      "outputs": [
        {
          "internalType": "contract NoMoreWarOnDrugs",
          "name": "",
          "type": "address"
        }
      ],
      "stateMutability": "view",
      "type": "function"
    },
    {
      "inputs": [],
      "name": "NOT_CURRENT_OWNER",
      "outputs": [
        {
          "internalType": "string",
          "name": "",
          "type": "string"
        }
      ],
      "stateMutability": "view",
      "type": "function"
    },
    {
      "inputs": [],
      "name": "getBackOwnership",
      "outputs": [],
      "stateMutability": "nonpayable",
      "type": "function"
    },
    {
      "inputs": [
        {
          "internalType": "uint256",
          "name": "_tokenId",
          "type": "uint256"
        }
      ],
      "name": "getForSale",
      "outputs": [
        {
          "internalType": "bool",
          "name": "",
          "type": "bool"
        }
      ],
      "stateMutability": "view",
      "type": "function"
    },
    {
      "inputs": [],
      "name": "getMarketPlaceBalance",
      "outputs": [
        {
          "internalType": "uint256",
          "name": "",
          "type": "uint256"
        }
      ],
      "stateMutability": "view",
      "type": "function"
    },
    {
      "inputs": [
        {
          "internalType": "uint256",
          "name": "_tokenId",
          "type": "uint256"
        }
      ],
      "name": "getPrice",
      "outputs": [
        {
          "internalType": "uint256",
          "name": "",
          "type": "uint256"
        }
      ],
      "stateMutability": "view",
      "type": "function"
    },
    {
      "inputs": [
        {
          "internalType": "address",
          "name": "_to",
          "type": "address"
        },
        {
          "internalType": "uint256",
          "name": "_tokenId",
          "type": "uint256"
        },
        {
          "internalType": "string",
          "name": "_uri",
          "type": "string"
        }
      ],
      "name": "mintThroughPurchase",
      "outputs": [],
      "stateMutability": "payable",
      "type": "function"
    },
    {
      "inputs": [],
      "name": "owner",
      "outputs": [
        {
          "internalType": "address",
          "name": "",
          "type": "address"
        }
      ],
      "stateMutability": "view",
      "type": "function"
    },
    {
      "inputs": [
        {
          "internalType": "uint256",
          "name": "_tokenId",
          "type": "uint256"
        }
      ],
      "name": "purchaseToken",
      "outputs": [],
      "stateMutability": "payable",
      "type": "function"
    },
    {
      "inputs": [
        {
          "internalType": "uint256",
          "name": "_tokenId",
          "type": "uint256"
        },
        {
          "internalType": "bool",
          "name": "_forSale",
          "type": "bool"
        }
      ],
      "name": "setForSale",
      "outputs": [
        {
          "internalType": "bool",
          "name": "",
          "type": "bool"
        }
      ],
      "stateMutability": "nonpayable",
      "type": "function"
    },
    {
      "inputs": [
        {
          "internalType": "uint256",
          "name": "_price",
          "type": "uint256"
        },
        {
          "internalType": "uint256",
          "name": "_tokenId",
          "type": "uint256"
        }
      ],
      "name": "setPrice",
      "outputs": [],
      "stateMutability": "nonpayable",
      "type": "function"
    },
    {
      "inputs": [
        {
          "internalType": "address",
          "name": "_newOwner",
          "type": "address"
        }
      ],
      "name": "transferOwnership",
      "outputs": [],
      "stateMutability": "nonpayable",
      "type": "function"
    },
    {
      "inputs": [
        {
          "internalType": "address",
          "name": "nmwdAddress",
          "type": "address"
        }
      ],
      "name": "updateNMWDcontract",
      "outputs": [],
      "stateMutability": "nonpayable",
      "type": "function"
    },
    {
      "inputs": [
        {
          "internalType": "address",
          "name": "_payee",
          "type": "address"
        },
        {
          "internalType": "uint256",
          "name": "_amount",
          "type": "uint256"
        }
      ],
      "name": "withdrawFromContract",
      "outputs": [],
      "stateMutability": "nonpayable",
      "type": "function"
    }
  ],
  "bytecode": "0x60806040523480156200001157600080fd5b50620000226200002860201b60201c565b6200018d565b336000806101000a81548173ffffffffffffffffffffffffffffffffffffffff021916908373ffffffffffffffffffffffffffffffffffffffff1602179055507f2d5a82cbc34270500c60b0532ca36cd4716c295bf0351b25835351664a3125bf60008054906101000a900473ffffffffffffffffffffffffffffffffffffffff16604051620000b9919062000116565b60405180910390a1565b620000ce8162000159565b82525050565b6000620000e360098362000148565b91507f736574206f776e657200000000000000000000000000000000000000000000006000830152602082019050919050565b60006040820190506200012d6000830184620000c3565b81810360208301526200014081620000d4565b905092915050565b600082825260208201905092915050565b600062000166826200016d565b9050919050565b600073ffffffffffffffffffffffffffffffffffffffff82169050919050565b6127dc806200019d6000396000f3fe6080604052600436106100e85760003560e01c8063be4185f41161008a578063f0a6c16b11610059578063f0a6c16b146102b4578063f2fde38b146102f1578063f3fe3bc31461031a578063f7d9757714610345576100e8565b8063be4185f414610214578063c2db2c421461023f578063db228cfe1461025b578063e757223014610277576100e8565b8063860d248a116100c6578063860d248a1461016a5780638da5cb5b14610195578063b0e857ec146101c0578063b4c49d09146101e9576100e8565b80632abacf8c146100ed5780635c93bec71461012a578063837381fa14610141575b600080fd5b3480156100f957600080fd5b50610114600480360381019061010f91906120d5565b61036e565b6040516101219190612361565b60405180910390f35b34801561013657600080fd5b5061013f610398565b005b34801561014d57600080fd5b5061016860048036038101906101639190612009565b6105f7565b005b34801561017657600080fd5b5061017f610a29565b60405161018c9190612397565b60405180910390f35b3480156101a157600080fd5b506101aa610a62565b6040516101b7919061227a565b60405180910390f35b3480156101cc57600080fd5b506101e760048036038101906101e29190611fb7565b610a86565b005b3480156101f557600080fd5b506101fe610cf1565b60405161020b9190612409565b60405180910390f35b34801561022057600080fd5b50610229610cfb565b604051610236919061237c565b60405180910390f35b610259600480360381019061025491906120d5565b610d21565b005b61027560048036038101906102709190612045565b611467565b005b34801561028357600080fd5b5061029e600480360381019061029991906120d5565b611696565b6040516102ab9190612409565b60405180910390f35b3480156102c057600080fd5b506102db60048036038101906102d691906120fe565b6116b3565b6040516102e89190612361565b60405180910390f35b3480156102fd57600080fd5b5061031860048036038101906103139190611fb7565b6118eb565b005b34801561032657600080fd5b5061032f611b36565b60405161033c9190612397565b60405180910390f35b34801561035157600080fd5b5061036c6004803603810190610367919061213a565b611b6f565b005b60006003600083815260200190815260200160002060009054906101000a900460ff169050919050565b60008054906101000a900473ffffffffffffffffffffffffffffffffffffffff1673ffffffffffffffffffffffffffffffffffffffff163373ffffffffffffffffffffffffffffffffffffffff1614610426576040517f08c379a000000000000000000000000000000000000000000000000000000000815260040161041d906123e9565b60405180910390fd5b7f2d5a82cbc34270500c60b0532ca36cd4716c295bf0351b25835351664a3125bf60008054906101000a900473ffffffffffffffffffffffffffffffffffffffff1660405161047591906122f5565b60405180910390a1600073ffffffffffffffffffffffffffffffffffffffff16600160009054906101000a900473ffffffffffffffffffffffffffffffffffffffff1673ffffffffffffffffffffffffffffffffffffffff1614156040518060400160405280600681526020017f303034303032000000000000000000000000000000000000000000000000000081525090610547576040517f08c379a000000000000000000000000000000000000000000000000000000000815260040161053e9190612397565b60405180910390fd5b50600160009054906101000a900473ffffffffffffffffffffffffffffffffffffffff1673ffffffffffffffffffffffffffffffffffffffff1663f2fde38b60008054906101000a900473ffffffffffffffffffffffffffffffffffffffff166040518263ffffffff1660e01b81526004016105c3919061227a565b600060405180830381600087803b1580156105dd57600080fd5b505af11580156105f1573d6000803e3d6000fd5b50505050565b60008054906101000a900473ffffffffffffffffffffffffffffffffffffffff1673ffffffffffffffffffffffffffffffffffffffff163373ffffffffffffffffffffffffffffffffffffffff1614610685576040517f08c379a000000000000000000000000000000000000000000000000000000000815260040161067c906123e9565b60405180910390fd5b7f2d5a82cbc34270500c60b0532ca36cd4716c295bf0351b25835351664a3125bf60008054906101000a900473ffffffffffffffffffffffffffffffffffffffff166040516106d491906122f5565b60405180910390a1600073ffffffffffffffffffffffffffffffffffffffff168273ffffffffffffffffffffffffffffffffffffffff161415801561074557503073ffffffffffffffffffffffffffffffffffffffff168273ffffffffffffffffffffffffffffffffffffffff1614155b61074e57600080fd5b8060045410156040518060400160405280600681526020017f3030343031300000000000000000000000000000000000000000000000000000815250906107cb576040517f08c379a00000000000000000000000000000000000000000000000000000000081526004016107c29190612397565b60405180910390fd5b506000811180156107dc5750478111155b6040518060400160405280600681526020017f303034303036000000000000000000000000000000000000000000000000000081525090610853576040517f08c379a000000000000000000000000000000000000000000000000000000000815260040161084a9190612397565b60405180910390fd5b5061085c611e19565b73ffffffffffffffffffffffffffffffffffffffff163273ffffffffffffffffffffffffffffffffffffffff161461089357600080fd5b47600454146109765760008054906101000a900473ffffffffffffffffffffffffffffffffffffffff1673ffffffffffffffffffffffffffffffffffffffff166108fc479081150290604051600060405180830381858888f19350505050158015610902573d6000803e3d6000fd5b5060008054906101000a900473ffffffffffffffffffffffffffffffffffffffff1673ffffffffffffffffffffffffffffffffffffffff167f6dfc6e5b54e9b8b518c0d73fe237bd1a47d57856827cbf13853bee71425c6a90826040516109699190612409565b60405180910390a2610a25565b806004600082825461098891906125ab565b925050819055508173ffffffffffffffffffffffffffffffffffffffff166108fc829081150290604051600060405180830381858888f193505050501580156109d5573d6000803e3d6000fd5b508173ffffffffffffffffffffffffffffffffffffffff167f510ffb4dcab972ae9d2007a58e13f1b0881776d23cd8f5cc32f8c5be2dbf70d282604051610a1c9190612409565b60405180910390a25b5050565b6040518060400160405280600681526020017f303138303032000000000000000000000000000000000000000000000000000081525081565b60008054906101000a900473ffffffffffffffffffffffffffffffffffffffff1681565b60008054906101000a900473ffffffffffffffffffffffffffffffffffffffff1673ffffffffffffffffffffffffffffffffffffffff163373ffffffffffffffffffffffffffffffffffffffff1614610b14576040517f08c379a0000000000000000000000000000000000000000000000000000000008152600401610b0b906123e9565b60405180910390fd5b7f2d5a82cbc34270500c60b0532ca36cd4716c295bf0351b25835351664a3125bf60008054906101000a900473ffffffffffffffffffffffffffffffffffffffff16604051610b6391906122f5565b60405180910390a1600073ffffffffffffffffffffffffffffffffffffffff168173ffffffffffffffffffffffffffffffffffffffff1614158015610bd457503073ffffffffffffffffffffffffffffffffffffffff168173ffffffffffffffffffffffffffffffffffffffff1614155b6040518060400160405280600681526020017f303034303031000000000000000000000000000000000000000000000000000081525090610c4b576040517f08c379a0000000000000000000000000000000000000000000000000000000008152600401610c429190612397565b60405180910390fd5b5080600160006101000a81548173ffffffffffffffffffffffffffffffffffffffff021916908373ffffffffffffffffffffffffffffffffffffffff160217905550610cee6040518060400160405280601781526020017f61646472657373284e4d5744636f6e7472616374293a20000000000000000000815250600160009054906101000a900473ffffffffffffffffffffffffffffffffffffffff16611e21565b50565b6000600454905090565b600160009054906101000a900473ffffffffffffffffffffffffffffffffffffffff1681565b6003600082815260200190815260200160002060009054906101000a900460ff166040518060400160405280600681526020017f303034303035000000000000000000000000000000000000000000000000000081525090610db9576040517f08c379a0000000000000000000000000000000000000000000000000000000008152600401610db09190612397565b60405180910390fd5b50600073ffffffffffffffffffffffffffffffffffffffff16610dda611e19565b73ffffffffffffffffffffffffffffffffffffffff1614158015610e3157503073ffffffffffffffffffffffffffffffffffffffff16610e18611e19565b73ffffffffffffffffffffffffffffffffffffffff1614155b610e3a57600080fd5b6002600082815260200190815260200160002054341015610e5a57600080fd5b600073ffffffffffffffffffffffffffffffffffffffff16600160009054906101000a900473ffffffffffffffffffffffffffffffffffffffff1673ffffffffffffffffffffffffffffffffffffffff16636352211e836040518263ffffffff1660e01b8152600401610ecd9190612409565b60206040518083038186803b158015610ee557600080fd5b505afa158015610ef9573d6000803e3d6000fd5b505050506040513d601f19601f82011682018060405250810190610f1d9190611fe0565b73ffffffffffffffffffffffffffffffffffffffff1614156040518060400160405280600681526020017f303034303034000000000000000000000000000000000000000000000000000081525090610fac576040517f08c379a0000000000000000000000000000000000000000000000000000000008152600401610fa39190612397565b60405180910390fd5b506000600160009054906101000a900473ffffffffffffffffffffffffffffffffffffffff1673ffffffffffffffffffffffffffffffffffffffff16636352211e836040518263ffffffff1660e01b815260040161100a9190612409565b60206040518083038186803b15801561102257600080fd5b505afa158015611036573d6000803e3d6000fd5b505050506040513d601f19601f8201168201806040525081019061105a9190611fe0565b90503073ffffffffffffffffffffffffffffffffffffffff16600160009054906101000a900473ffffffffffffffffffffffffffffffffffffffff1673ffffffffffffffffffffffffffffffffffffffff1663081812fc846040518263ffffffff1660e01b81526004016110ce9190612409565b60206040518083038186803b1580156110e657600080fd5b505afa1580156110fa573d6000803e3d6000fd5b505050506040513d601f19601f8201168201806040525081019061111e9190611fe0565b73ffffffffffffffffffffffffffffffffffffffff1614806111e95750600160009054906101000a900473ffffffffffffffffffffffffffffffffffffffff1673ffffffffffffffffffffffffffffffffffffffff1663e985e9c582306040518363ffffffff1660e01b8152600401611198929190612295565b60206040518083038186803b1580156111b057600080fd5b505afa1580156111c4573d6000803e3d6000fd5b505050506040513d601f19601f820116820180604052508101906111e891906120ac565b5b6040518060400160405280600681526020017f303034303033000000000000000000000000000000000000000000000000000081525090611260576040517f08c379a00000000000000000000000000000000000000000000000000000000081526004016112579190612397565b60405180910390fd5b5060006003600084815260200190815260200160002060006101000a81548160ff021916908315150217905550600160009054906101000a900473ffffffffffffffffffffffffffffffffffffffff1673ffffffffffffffffffffffffffffffffffffffff166342842e0e826112d4611e19565b856040518463ffffffff1660e01b81526004016112f3939291906122be565b600060405180830381600087803b15801561130d57600080fd5b505af1158015611321573d6000803e3d6000fd5b5050505060006103e56103e8346113389190612520565b6113429190612551565b90508173ffffffffffffffffffffffffffffffffffffffff166108fc829081150290604051600060405180830381858888f1935050505015801561138a573d6000803e3d6000fd5b5060036103e83461139b9190612520565b6113a59190612551565b600460008282546113b691906124ca565b925050819055508173ffffffffffffffffffffffffffffffffffffffff167f510ffb4dcab972ae9d2007a58e13f1b0881776d23cd8f5cc32f8c5be2dbf70d2826040516114039190612409565b60405180910390a2611413611e19565b73ffffffffffffffffffffffffffffffffffffffff167f74cf3d18d0ddca79038197ad0dd2c7fa5005ef61a5d1ed190e8a8a437e2fcf10843460405161145a929190612424565b60405180910390a2505050565b60006002600084815260200190815260200160002054141561148857600080fd5b60026000838152602001908152602001600020543410156040518060400160405280600681526020017f303034303036000000000000000000000000000000000000000000000000000081525090611516576040517f08c379a000000000000000000000000000000000000000000000000000000000815260040161150d9190612397565b60405180910390fd5b50600073ffffffffffffffffffffffffffffffffffffffff16611537611e19565b73ffffffffffffffffffffffffffffffffffffffff161415801561158e57503073ffffffffffffffffffffffffffffffffffffffff16611575611e19565b73ffffffffffffffffffffffffffffffffffffffff1614155b61159757600080fd5b34600460008282546115a991906124ca565b92505081905550600160009054906101000a900473ffffffffffffffffffffffffffffffffffffffff1673ffffffffffffffffffffffffffffffffffffffff1663d3fc98648484846040518463ffffffff1660e01b815260040161160f93929190612323565b600060405180830381600087803b15801561162957600080fd5b505af115801561163d573d6000803e3d6000fd5b505050508273ffffffffffffffffffffffffffffffffffffffff167f74cf3d18d0ddca79038197ad0dd2c7fa5005ef61a5d1ed190e8a8a437e2fcf108334604051611689929190612424565b60405180910390a2505050565b600060026000838152602001908152602001600020549050919050565b6000600160009054906101000a900473ffffffffffffffffffffffffffffffffffffffff1673ffffffffffffffffffffffffffffffffffffffff16636352211e846040518263ffffffff1660e01b81526004016117109190612409565b60206040518083038186803b15801561172857600080fd5b505afa92505050801561175957506040513d601f19601f820116820180604052508101906117569190611fe0565b60015b61176657600090506118e5565b61176e611e19565b73ffffffffffffffffffffffffffffffffffffffff168173ffffffffffffffffffffffffffffffffffffffff16146040518060400160405280600681526020017f303034303039000000000000000000000000000000000000000000000000000081525090611813576040517f08c379a000000000000000000000000000000000000000000000000000000000815260040161180a9190612397565b60405180910390fd5b50506003600084815260200190815260200160002060009054906101000a900460ff16151582151514156040518060400160405280600681526020017f3030343030380000000000000000000000000000000000000000000000000000815250906118b4576040517f08c379a00000000000000000000000000000000000000000000000000000000081526004016118ab9190612397565b60405180910390fd5b50816003600085815260200190815260200160002060006101000a81548160ff021916908315150217905550600190505b92915050565b60008054906101000a900473ffffffffffffffffffffffffffffffffffffffff1673ffffffffffffffffffffffffffffffffffffffff163373ffffffffffffffffffffffffffffffffffffffff1614611979576040517f08c379a0000000000000000000000000000000000000000000000000000000008152600401611970906123e9565b60405180910390fd5b7f2d5a82cbc34270500c60b0532ca36cd4716c295bf0351b25835351664a3125bf60008054906101000a900473ffffffffffffffffffffffffffffffffffffffff166040516119c891906122f5565b60405180910390a1600073ffffffffffffffffffffffffffffffffffffffff168173ffffffffffffffffffffffffffffffffffffffff1614156040518060400160405280600681526020017f303138303032000000000000000000000000000000000000000000000000000081525090611a78576040517f08c379a0000000000000000000000000000000000000000000000000000000008152600401611a6f9190612397565b60405180910390fd5b508073ffffffffffffffffffffffffffffffffffffffff1660008054906101000a900473ffffffffffffffffffffffffffffffffffffffff1673ffffffffffffffffffffffffffffffffffffffff167f8be0079c531659141344cd1fd0a4f28419497f9722a3daafe3b4186f6b6457e060405160405180910390a3806000806101000a81548173ffffffffffffffffffffffffffffffffffffffff021916908373ffffffffffffffffffffffffffffffffffffffff16021790555050565b6040518060400160405280600681526020017f303138303031000000000000000000000000000000000000000000000000000081525081565b600082116040518060400160405280600681526020017f303034303037000000000000000000000000000000000000000000000000000081525090611bea576040517f08c379a0000000000000000000000000000000000000000000000000000000008152600401611be19190612397565b60405180910390fd5b5060026000828152602001908152602001600020548214156040518060400160405280600681526020017f303034303038000000000000000000000000000000000000000000000000000081525090611c79576040517f08c379a0000000000000000000000000000000000000000000000000000000008152600401611c709190612397565b60405180910390fd5b50600160009054906101000a900473ffffffffffffffffffffffffffffffffffffffff1673ffffffffffffffffffffffffffffffffffffffff16636352211e826040518263ffffffff1660e01b8152600401611cd59190612409565b60206040518083038186803b158015611ced57600080fd5b505afa925050508015611d1e57506040513d601f19601f82011682018060405250810190611d1b9190611fe0565b60015b611dbc57611d2a611e19565b73ffffffffffffffffffffffffffffffffffffffff1660008054906101000a900473ffffffffffffffffffffffffffffffffffffffff1673ffffffffffffffffffffffffffffffffffffffff1614611db7576040517f08c379a0000000000000000000000000000000000000000000000000000000008152600401611dae906123e9565b60405180910390fd5b611dfd565b611dc4611e19565b73ffffffffffffffffffffffffffffffffffffffff168173ffffffffffffffffffffffffffffffffffffffff1614611dfb57600080fd5b505b8160026000838152602001908152602001600020819055505050565b600033905090565b611eb98282604051602401611e379291906123b9565b6040516020818303038152906040527f319af333000000000000000000000000000000000000000000000000000000007bffffffffffffffffffffffffffffffffffffffffffffffffffffffff19166020820180517bffffffffffffffffffffffffffffffffffffffffffffffffffffffff8381831617835250505050611ebd565b5050565b60008151905060006a636f6e736f6c652e6c6f679050602083016000808483855afa5050505050565b6000611ef9611ef48461247e565b61244d565b905082815260208101848484011115611f1157600080fd5b611f1c848285612681565b509392505050565b600081359050611f3381612761565b92915050565b600081519050611f4881612761565b92915050565b600081359050611f5d81612778565b92915050565b600081519050611f7281612778565b92915050565b600082601f830112611f8957600080fd5b8135611f99848260208601611ee6565b91505092915050565b600081359050611fb18161278f565b92915050565b600060208284031215611fc957600080fd5b6000611fd784828501611f24565b91505092915050565b600060208284031215611ff257600080fd5b600061200084828501611f39565b91505092915050565b6000806040838503121561201c57600080fd5b600061202a85828601611f24565b925050602061203b85828601611fa2565b9150509250929050565b60008060006060848603121561205a57600080fd5b600061206886828701611f24565b935050602061207986828701611fa2565b925050604084013567ffffffffffffffff81111561209657600080fd5b6120a286828701611f78565b9150509250925092565b6000602082840312156120be57600080fd5b60006120cc84828501611f63565b91505092915050565b6000602082840312156120e757600080fd5b60006120f584828501611fa2565b91505092915050565b6000806040838503121561211157600080fd5b600061211f85828601611fa2565b925050602061213085828601611f4e565b9150509250929050565b6000806040838503121561214d57600080fd5b600061215b85828601611fa2565b925050602061216c85828601611fa2565b9150509250929050565b61217f81612627565b82525050565b61218e816125df565b82525050565b61219d816125f1565b82525050565b6121ac81612639565b82525050565b60006121bd826124ae565b6121c781856124b9565b93506121d7818560208601612690565b6121e081612750565b840191505092915050565b60006121f86009836124b9565b91507f4e6f74206f776e657200000000000000000000000000000000000000000000006000830152602082019050919050565b6000612238601c836124b9565b91507f706173736564206f776e65727368697020726571756972656d656e74000000006000830152602082019050919050565b6122748161261d565b82525050565b600060208201905061228f6000830184612185565b92915050565b60006040820190506122aa6000830185612185565b6122b76020830184612185565b9392505050565b60006060820190506122d36000830186612185565b6122e06020830185612176565b6122ed604083018461226b565b949350505050565b600060408201905061230a6000830184612185565b818103602083015261231b8161222b565b905092915050565b60006060820190506123386000830186612185565b612345602083018561226b565b818103604083015261235781846121b2565b9050949350505050565b60006020820190506123766000830184612194565b92915050565b600060208201905061239160008301846121a3565b92915050565b600060208201905081810360008301526123b181846121b2565b905092915050565b600060408201905081810360008301526123d381856121b2565b90506123e26020830184612185565b9392505050565b60006020820190508181036000830152612402816121eb565b9050919050565b600060208201905061241e600083018461226b565b92915050565b6000604082019050612439600083018561226b565b612446602083018461226b565b9392505050565b6000604051905081810181811067ffffffffffffffff8211171561247457612473612721565b5b8060405250919050565b600067ffffffffffffffff82111561249957612498612721565b5b601f19601f8301169050602081019050919050565b600081519050919050565b600082825260208201905092915050565b60006124d58261261d565b91506124e08361261d565b9250827fffffffffffffffffffffffffffffffffffffffffffffffffffffffffffffffff03821115612515576125146126c3565b5b828201905092915050565b600061252b8261261d565b91506125368361261d565b925082612546576125456126f2565b5b828204905092915050565b600061255c8261261d565b91506125678361261d565b9250817fffffffffffffffffffffffffffffffffffffffffffffffffffffffffffffffff04831182151516156125a05761259f6126c3565b5b828202905092915050565b60006125b68261261d565b91506125c18361261d565b9250828210156125d4576125d36126c3565b5b828203905092915050565b60006125ea826125fd565b9050919050565b60008115159050919050565b600073ffffffffffffffffffffffffffffffffffffffff82169050919050565b6000819050919050565b60006126328261265d565b9050919050565b60006126448261264b565b9050919050565b6000612656826125fd565b9050919050565b60006126688261266f565b9050919050565b600061267a826125fd565b9050919050565b82818337600083830152505050565b60005b838110156126ae578082015181840152602081019050612693565b838111156126bd576000848401525b50505050565b7f4e487b7100000000000000000000000000000000000000000000000000000000600052601160045260246000fd5b7f4e487b7100000000000000000000000000000000000000000000000000000000600052601260045260246000fd5b7f4e487b7100000000000000000000000000000000000000000000000000000000600052604160045260246000fd5b6000601f19601f8301169050919050565b61276a816125df565b811461277557600080fd5b50565b612781816125f1565b811461278c57600080fd5b50565b6127988161261d565b81146127a357600080fd5b5056fea2646970667358221220e7f22ec89cf9da4aff1377a38577dec49c2bdc0ebb708bd90ad3732e949fe22f64736f6c63430008000033",
  "linkReferences": {},
  "deployedLinkReferences": {}
}