{
  "_format": "hh-sol-artifact-1",
  "contractName": "NMWDMarketPlace",
  "sourceName": "contracts/NMWD/NMWDMarketPlace.sol",
  "abi": [
    {
      "anonymous": false,
      "inputs": [
        {
          "indexed": true,
          "internalType": "address",
          "name": "payer",
          "type": "address"
        },
        {
          "indexed": false,
          "internalType": "uint256",
          "name": "tokenId",
          "type": "uint256"
        },
        {
          "indexed": false,
          "internalType": "uint256",
          "name": "amount",
          "type": "uint256"
        }
      ],
      "name": "NFTSent",
      "type": "event"
    },
    {
      "anonymous": false,
      "inputs": [
        {
          "indexed": true,
          "internalType": "address",
          "name": "previousOwner",
          "type": "address"
        },
        {
          "indexed": true,
          "internalType": "address",
          "name": "newOwner",
          "type": "address"
        }
      ],
      "name": "OwnershipTransferred",
      "type": "event"
    },
    {
      "anonymous": false,
      "inputs": [
        {
          "indexed": true,
          "internalType": "address",
          "name": "payee",
          "type": "address"
        },
        {
          "indexed": false,
          "internalType": "uint256",
          "name": "amount",
          "type": "uint256"
        }
      ],
      "name": "RoyaltyPaid",
      "type": "event"
    },
    {
      "anonymous": false,
      "inputs": [
        {
          "indexed": true,
          "internalType": "address",
          "name": "payee",
          "type": "address"
        },
        {
          "indexed": false,
          "internalType": "uint256",
          "name": "amount",
          "type": "uint256"
        }
      ],
      "name": "SecurityWithdrawal",
      "type": "event"
    },
    {
      "anonymous": false,
      "inputs": [
        {
          "indexed": true,
          "internalType": "address",
          "name": "payee",
          "type": "address"
        },
        {
          "indexed": false,
          "internalType": "uint256",
          "name": "amount",
          "type": "uint256"
        }
      ],
      "name": "Sent",
      "type": "event"
    },
    {
      "anonymous": false,
      "inputs": [
        {
          "indexed": false,
          "internalType": "address",
          "name": "deliveredTo",
          "type": "address"
        },
        {
          "indexed": false,
          "internalType": "string",
          "name": "msg",
          "type": "string"
        }
      ],
      "name": "_msg",
      "type": "event"
    },
    {
      "inputs": [],
      "name": "CANNOT_TRANSFER_TO_ZERO_ADDRESS",
      "outputs": [
        {
          "internalType": "string",
          "name": "",
          "type": "string"
        }
      ],
      "stateMutability": "view",
      "type": "function"
    },
    {
      "inputs": [],
      "name": "NOT_CURRENT_OWNER",
      "outputs": [
        {
          "internalType": "string",
          "name": "",
          "type": "string"
        }
      ],
      "stateMutability": "view",
      "type": "function"
    },
    {
      "inputs": [],
      "name": "TokenContract",
      "outputs": [
        {
          "internalType": "contract StopTheWarOnDrugs",
          "name": "",
          "type": "address"
        }
      ],
      "stateMutability": "view",
      "type": "function"
    },
    {
      "inputs": [
        {
          "internalType": "uint256",
          "name": "_tokenId",
          "type": "uint256"
        }
      ],
      "name": "burn",
      "outputs": [],
      "stateMutability": "nonpayable",
      "type": "function"
    },
    {
      "inputs": [],
      "name": "getBackOwnership",
      "outputs": [],
      "stateMutability": "nonpayable",
      "type": "function"
    },
    {
      "inputs": [
        {
          "internalType": "uint256",
          "name": "_tokenId",
          "type": "uint256"
        }
      ],
      "name": "getForSale",
      "outputs": [
        {
          "internalType": "bool",
          "name": "",
          "type": "bool"
        }
      ],
      "stateMutability": "view",
      "type": "function"
    },
    {
      "inputs": [],
      "name": "getMarketPlaceBalance",
      "outputs": [
        {
          "internalType": "uint256",
          "name": "",
          "type": "uint256"
        }
      ],
      "stateMutability": "view",
      "type": "function"
    },
    {
      "inputs": [],
      "name": "getOwner",
      "outputs": [
        {
          "internalType": "address",
          "name": "",
          "type": "address"
        }
      ],
      "stateMutability": "view",
      "type": "function"
    },
    {
      "inputs": [
        {
          "internalType": "uint256",
          "name": "_tokenId",
          "type": "uint256"
        }
      ],
      "name": "getPrice",
      "outputs": [
        {
          "internalType": "uint256",
          "name": "",
          "type": "uint256"
        }
      ],
      "stateMutability": "view",
      "type": "function"
    },
    {
      "inputs": [],
      "name": "initialize",
      "outputs": [],
      "stateMutability": "nonpayable",
      "type": "function"
    },
    {
      "inputs": [
        {
          "internalType": "address",
          "name": "_to",
          "type": "address"
        },
        {
          "internalType": "uint256",
          "name": "_tokenId",
          "type": "uint256"
        },
        {
          "internalType": "address",
          "name": "royaltyRecipient",
          "type": "address"
        },
        {
          "internalType": "uint256",
          "name": "royaltyValue",
          "type": "uint256"
        }
      ],
      "name": "mintThroughPurchase",
      "outputs": [],
      "stateMutability": "payable",
      "type": "function"
    },
    {
      "inputs": [],
      "name": "owner",
      "outputs": [
        {
          "internalType": "address",
          "name": "",
          "type": "address"
        }
      ],
      "stateMutability": "view",
      "type": "function"
    },
    {
      "inputs": [
        {
          "internalType": "uint256",
          "name": "_tokenId",
          "type": "uint256"
        }
      ],
      "name": "purchaseToken",
      "outputs": [],
      "stateMutability": "payable",
      "type": "function"
    },
    {
      "inputs": [
        {
          "internalType": "uint256",
          "name": "_tokenId",
          "type": "uint256"
        },
        {
          "internalType": "bool",
          "name": "_forSale",
          "type": "bool"
        }
      ],
      "name": "setForSale",
      "outputs": [
        {
          "internalType": "bool",
          "name": "",
          "type": "bool"
        }
      ],
      "stateMutability": "nonpayable",
      "type": "function"
    },
    {
      "inputs": [
        {
          "internalType": "uint256",
          "name": "_price",
          "type": "uint256"
        },
        {
          "internalType": "uint256",
          "name": "_tokenId",
          "type": "uint256"
        }
      ],
      "name": "setPrice",
      "outputs": [],
      "stateMutability": "nonpayable",
      "type": "function"
    },
    {
      "inputs": [
        {
          "internalType": "address",
          "name": "_newOwner",
          "type": "address"
        }
      ],
      "name": "transferOwnership",
      "outputs": [],
      "stateMutability": "nonpayable",
      "type": "function"
    },
    {
      "inputs": [
        {
          "internalType": "address",
          "name": "nmwdAddress",
          "type": "address"
        }
      ],
      "name": "updateNMWDcontract",
      "outputs": [],
      "stateMutability": "nonpayable",
      "type": "function"
    },
    {
      "inputs": [
        {
          "internalType": "address",
          "name": "_payee",
          "type": "address"
        },
        {
          "internalType": "uint256",
          "name": "_amount",
          "type": "uint256"
        }
      ],
      "name": "withdrawFromContract",
      "outputs": [],
      "stateMutability": "nonpayable",
      "type": "function"
    }
  ],
  "bytecode": "0x608060405234801561001057600080fd5b50612d7b806100206000396000f3fe6080604052600436106101095760003560e01c80639688738b11610095578063e757223011610064578063e757223014610303578063f0a6c16b14610340578063f2fde38b1461037d578063f3fe3bc3146103a6578063f7d97577146103d157610109565b80639688738b14610268578063b0e857ec14610293578063b4c49d09146102bc578063c2db2c42146102e757610109565b80638129fc1c116100dc5780638129fc1c146101a7578063837381fa146101be578063860d248a146101e7578063893d20e8146102125780638da5cb5b1461023d57610109565b80632abacf8c1461010e57806342966c681461014b5780635c93bec7146101745780637194176a1461018b575b600080fd5b34801561011a57600080fd5b50610135600480360381019061013091906125ae565b6103fa565b6040516101429190612984565b60405180910390f35b34801561015757600080fd5b50610172600480360381019061016d91906125ae565b610424565b005b34801561018057600080fd5b50610189610599565b005b6101a560048036038101906101a09190612522565b6107f8565b005b3480156101b357600080fd5b506101bc610a29565b005b3480156101ca57600080fd5b506101e560048036038101906101e091906124aa565b610b0d565b005b3480156101f357600080fd5b506101fc610f08565b60405161020991906129ba565b60405180910390f35b34801561021e57600080fd5b50610227610f41565b6040516102349190612868565b60405180910390f35b34801561024957600080fd5b50610252610f6a565b60405161025f9190612868565b60405180910390f35b34801561027457600080fd5b5061027d610f8e565b60405161028a919061299f565b60405180910390f35b34801561029f57600080fd5b506102ba60048036038101906102b59190612458565b610fb4565b005b3480156102c857600080fd5b506102d1611288565b6040516102de9190612a3c565b60405180910390f35b61030160048036038101906102fc91906125ae565b611292565b005b34801561030f57600080fd5b5061032a600480360381019061032591906125ae565b611bb6565b6040516103379190612a3c565b60405180910390f35b34801561034c57600080fd5b50610367600480360381019061036291906125d7565b611bd3565b6040516103749190612984565b60405180910390f35b34801561038957600080fd5b506103a4600480360381019061039f9190612458565b611e0b565b005b3480156103b257600080fd5b506103bb612056565b6040516103c891906129ba565b60405180910390f35b3480156103dd57600080fd5b506103f860048036038101906103f39190612613565b61208f565b005b60006003600083815260200190815260200160002060009054906101000a900460ff169050919050565b60008054906101000a900473ffffffffffffffffffffffffffffffffffffffff1673ffffffffffffffffffffffffffffffffffffffff163373ffffffffffffffffffffffffffffffffffffffff16146104b2576040517f08c379a00000000000000000000000000000000000000000000000000000000081526004016104a990612a1c565b60405180910390fd5b7f2d5a82cbc34270500c60b0532ca36cd4716c295bf0351b25835351664a3125bf60008054906101000a900473ffffffffffffffffffffffffffffffffffffffff166040516105019190612911565b60405180910390a1600160009054906101000a900473ffffffffffffffffffffffffffffffffffffffff1673ffffffffffffffffffffffffffffffffffffffff166342966c68826040518263ffffffff1660e01b81526004016105649190612a3c565b600060405180830381600087803b15801561057e57600080fd5b505af1158015610592573d6000803e3d6000fd5b5050505050565b60008054906101000a900473ffffffffffffffffffffffffffffffffffffffff1673ffffffffffffffffffffffffffffffffffffffff163373ffffffffffffffffffffffffffffffffffffffff1614610627576040517f08c379a000000000000000000000000000000000000000000000000000000000815260040161061e90612a1c565b60405180910390fd5b7f2d5a82cbc34270500c60b0532ca36cd4716c295bf0351b25835351664a3125bf60008054906101000a900473ffffffffffffffffffffffffffffffffffffffff166040516106769190612911565b60405180910390a1600073ffffffffffffffffffffffffffffffffffffffff16600160009054906101000a900473ffffffffffffffffffffffffffffffffffffffff1673ffffffffffffffffffffffffffffffffffffffff1614156040518060400160405280600481526020017f303530320000000000000000000000000000000000000000000000000000000081525090610748576040517f08c379a000000000000000000000000000000000000000000000000000000000815260040161073f91906129ba565b60405180910390fd5b50600160009054906101000a900473ffffffffffffffffffffffffffffffffffffffff1673ffffffffffffffffffffffffffffffffffffffff1663f2fde38b60008054906101000a900473ffffffffffffffffffffffffffffffffffffffff166040518263ffffffff1660e01b81526004016107c49190612868565b600060405180830381600087803b1580156107de57600080fd5b505af11580156107f2573d6000803e3d6000fd5b50505050565b600060026000858152602001908152602001600020541161081857600080fd5b60026000848152602001908152602001600020543410156040518060400160405280600481526020017f3035303600000000000000000000000000000000000000000000000000000000815250906108a6576040517f08c379a000000000000000000000000000000000000000000000000000000000815260040161089d91906129ba565b60405180910390fd5b50600073ffffffffffffffffffffffffffffffffffffffff166108c7612339565b73ffffffffffffffffffffffffffffffffffffffff161415801561091e57503073ffffffffffffffffffffffffffffffffffffffff16610905612339565b73ffffffffffffffffffffffffffffffffffffffff1614155b61092757600080fd5b34600460008282546109399190612aa7565b92505081905550600160009054906101000a900473ffffffffffffffffffffffffffffffffffffffff1673ffffffffffffffffffffffffffffffffffffffff16633c173a4f858585856040518563ffffffff1660e01b81526004016109a1949392919061293f565b600060405180830381600087803b1580156109bb57600080fd5b505af11580156109cf573d6000803e3d6000fd5b505050508373ffffffffffffffffffffffffffffffffffffffff167fdbc09166e717a324fd239bd32af51e47b8348709b352f3223238c4de82ebaa768434604051610a1b929190612a57565b60405180910390a250505050565b600060159054906101000a900460ff1680610a515750600060149054906101000a900460ff16155b610a90576040517f08c379a0000000000000000000000000000000000000000000000000000000008152600401610a87906129fc565b60405180910390fd5b60008060159054906101000a900460ff161590508015610ae1576001600060156101000a81548160ff0219169083151502179055506001600060146101000a81548160ff0219169083151502179055505b610ae9612341565b8015610b0a5760008060156101000a81548160ff0219169083151502179055505b50565b60008054906101000a900473ffffffffffffffffffffffffffffffffffffffff1673ffffffffffffffffffffffffffffffffffffffff163373ffffffffffffffffffffffffffffffffffffffff1614610b9b576040517f08c379a0000000000000000000000000000000000000000000000000000000008152600401610b9290612a1c565b60405180910390fd5b7f2d5a82cbc34270500c60b0532ca36cd4716c295bf0351b25835351664a3125bf60008054906101000a900473ffffffffffffffffffffffffffffffffffffffff16604051610bea9190612911565b60405180910390a1600073ffffffffffffffffffffffffffffffffffffffff168273ffffffffffffffffffffffffffffffffffffffff1614158015610c5b57503073ffffffffffffffffffffffffffffffffffffffff168273ffffffffffffffffffffffffffffffffffffffff1614155b610c6457600080fd5b8060045410156040518060400160405280600481526020017f303531300000000000000000000000000000000000000000000000000000000081525090610ce1576040517f08c379a0000000000000000000000000000000000000000000000000000000008152600401610cd891906129ba565b60405180910390fd5b50600081118015610cf25750478111155b6040518060400160405280600481526020017f303530360000000000000000000000000000000000000000000000000000000081525090610d69576040517f08c379a0000000000000000000000000000000000000000000000000000000008152600401610d6091906129ba565b60405180910390fd5b504760045414610e5557600060048190555060008054906101000a900473ffffffffffffffffffffffffffffffffffffffff1673ffffffffffffffffffffffffffffffffffffffff166108fc479081150290604051600060405180830381858888f19350505050158015610de1573d6000803e3d6000fd5b5060008054906101000a900473ffffffffffffffffffffffffffffffffffffffff1673ffffffffffffffffffffffffffffffffffffffff167f6dfc6e5b54e9b8b518c0d73fe237bd1a47d57856827cbf13853bee71425c6a9082604051610e489190612a3c565b60405180910390a2610f04565b8060046000828254610e679190612b88565b925050819055508173ffffffffffffffffffffffffffffffffffffffff166108fc829081150290604051600060405180830381858888f19350505050158015610eb4573d6000803e3d6000fd5b508173ffffffffffffffffffffffffffffffffffffffff167f510ffb4dcab972ae9d2007a58e13f1b0881776d23cd8f5cc32f8c5be2dbf70d282604051610efb9190612a3c565b60405180910390a25b5050565b6040518060400160405280600481526020017f303130320000000000000000000000000000000000000000000000000000000081525081565b60008060009054906101000a900473ffffffffffffffffffffffffffffffffffffffff16905090565b60008054906101000a900473ffffffffffffffffffffffffffffffffffffffff1681565b600160009054906101000a900473ffffffffffffffffffffffffffffffffffffffff1681565b60008054906101000a900473ffffffffffffffffffffffffffffffffffffffff1673ffffffffffffffffffffffffffffffffffffffff163373ffffffffffffffffffffffffffffffffffffffff1614611042576040517f08c379a000000000000000000000000000000000000000000000000000000000815260040161103990612a1c565b60405180910390fd5b7f2d5a82cbc34270500c60b0532ca36cd4716c295bf0351b25835351664a3125bf60008054906101000a900473ffffffffffffffffffffffffffffffffffffffff166040516110919190612911565b60405180910390a1600073ffffffffffffffffffffffffffffffffffffffff168173ffffffffffffffffffffffffffffffffffffffff161415801561110257503073ffffffffffffffffffffffffffffffffffffffff168173ffffffffffffffffffffffffffffffffffffffff1614155b6040518060400160405280600481526020017f303530310000000000000000000000000000000000000000000000000000000081525090611179576040517f08c379a000000000000000000000000000000000000000000000000000000000815260040161117091906129ba565b60405180910390fd5b508073ffffffffffffffffffffffffffffffffffffffff16600160009054906101000a900473ffffffffffffffffffffffffffffffffffffffff1673ffffffffffffffffffffffffffffffffffffffff1614156040518060400160405280600481526020017f303530380000000000000000000000000000000000000000000000000000000081525090611243576040517f08c379a000000000000000000000000000000000000000000000000000000000815260040161123a91906129ba565b60405180910390fd5b5080600160006101000a81548173ffffffffffffffffffffffffffffffffffffffff021916908373ffffffffffffffffffffffffffffffffffffffff16021790555050565b6000600454905090565b6003600082815260200190815260200160002060009054906101000a900460ff166040518060400160405280600481526020017f30353035000000000000000000000000000000000000000000000000000000008152509061132a576040517f08c379a000000000000000000000000000000000000000000000000000000000815260040161132191906129ba565b60405180910390fd5b50600073ffffffffffffffffffffffffffffffffffffffff1661134b612339565b73ffffffffffffffffffffffffffffffffffffffff16141580156113a257503073ffffffffffffffffffffffffffffffffffffffff16611389612339565b73ffffffffffffffffffffffffffffffffffffffff1614155b6113ab57600080fd5b60006002600083815260200190815260200160002054116113cb57600080fd5b60026000828152602001908152602001600020543410156113eb57600080fd5b600073ffffffffffffffffffffffffffffffffffffffff16600160009054906101000a900473ffffffffffffffffffffffffffffffffffffffff1673ffffffffffffffffffffffffffffffffffffffff16636352211e836040518263ffffffff1660e01b815260040161145e9190612a3c565b60206040518083038186803b15801561147657600080fd5b505afa15801561148a573d6000803e3d6000fd5b505050506040513d601f19601f820116820180604052508101906114ae9190612481565b73ffffffffffffffffffffffffffffffffffffffff1614156040518060400160405280600481526020017f30353034000000000000000000000000000000000000000000000000000000008152509061153d576040517f08c379a000000000000000000000000000000000000000000000000000000000815260040161153491906129ba565b60405180910390fd5b506000600160009054906101000a900473ffffffffffffffffffffffffffffffffffffffff1673ffffffffffffffffffffffffffffffffffffffff16636352211e836040518263ffffffff1660e01b815260040161159b9190612a3c565b60206040518083038186803b1580156115b357600080fd5b505afa1580156115c7573d6000803e3d6000fd5b505050506040513d601f19601f820116820180604052508101906115eb9190612481565b90503073ffffffffffffffffffffffffffffffffffffffff16600160009054906101000a900473ffffffffffffffffffffffffffffffffffffffff1673ffffffffffffffffffffffffffffffffffffffff1663081812fc846040518263ffffffff1660e01b815260040161165f9190612a3c565b60206040518083038186803b15801561167757600080fd5b505afa15801561168b573d6000803e3d6000fd5b505050506040513d601f19601f820116820180604052508101906116af9190612481565b73ffffffffffffffffffffffffffffffffffffffff16148061177a5750600160009054906101000a900473ffffffffffffffffffffffffffffffffffffffff1673ffffffffffffffffffffffffffffffffffffffff1663e985e9c582306040518363ffffffff1660e01b8152600401611729929190612883565b60206040518083038186803b15801561174157600080fd5b505afa158015611755573d6000803e3d6000fd5b505050506040513d601f19601f820116820180604052508101906117799190612585565b5b6040518060400160405280600481526020017f3035303300000000000000000000000000000000000000000000000000000000815250906117f1576040517f08c379a00000000000000000000000000000000000000000000000000000000081526004016117e891906129ba565b60405180910390fd5b5060006003600084815260200190815260200160002060006101000a81548160ff021916908315150217905550600160009054906101000a900473ffffffffffffffffffffffffffffffffffffffff1673ffffffffffffffffffffffffffffffffffffffff166342842e0e82611865612339565b856040518463ffffffff1660e01b8152600401611884939291906128ac565b600060405180830381600087803b15801561189e57600080fd5b505af11580156118b2573d6000803e3d6000fd5b50505050600060086103e8346118c89190612afd565b6118d29190612b2e565b905080600460008282546118e69190612aa7565b92505081905550600081346118fb9190612b88565b9050600080600160009054906101000a900473ffffffffffffffffffffffffffffffffffffffff1673ffffffffffffffffffffffffffffffffffffffff16632a55205a87856040518363ffffffff1660e01b815260040161195d929190612a57565b604080518083038186803b15801561197457600080fd5b505afa158015611988573d6000803e3d6000fd5b505050506040513d601f19601f820116820180604052508101906119ac91906124e6565b91509150600081846119be9190612b88565b90508573ffffffffffffffffffffffffffffffffffffffff166108fc829081150290604051600060405180830381858888f19350505050158015611a06573d6000803e3d6000fd5b5060008373ffffffffffffffffffffffffffffffffffffffff1683620186a090604051611a3290612853565b600060405180830381858888f193505050503d8060008114611a70576040519150601f19603f3d011682016040523d82523d6000602084013e611a75565b606091505b5050905080611ab9576040517f08c379a0000000000000000000000000000000000000000000000000000000008152600401611ab0906129dc565b60405180910390fd5b8673ffffffffffffffffffffffffffffffffffffffff167f510ffb4dcab972ae9d2007a58e13f1b0881776d23cd8f5cc32f8c5be2dbf70d283604051611aff9190612a3c565b60405180910390a28373ffffffffffffffffffffffffffffffffffffffff167fbc86de696edc3350c664d50abf25f24e7e1251f1469ad925b25fe36927270d4384604051611b4d9190612a3c565b60405180910390a2611b5d612339565b73ffffffffffffffffffffffffffffffffffffffff167fdbc09166e717a324fd239bd32af51e47b8348709b352f3223238c4de82ebaa768934604051611ba4929190612a57565b60405180910390a25050505050505050565b600060026000838152602001908152602001600020549050919050565b6000600160009054906101000a900473ffffffffffffffffffffffffffffffffffffffff1673ffffffffffffffffffffffffffffffffffffffff16636352211e846040518263ffffffff1660e01b8152600401611c309190612a3c565b60206040518083038186803b158015611c4857600080fd5b505afa925050508015611c7957506040513d601f19601f82011682018060405250810190611c769190612481565b60015b611c865760009050611e05565b611c8e612339565b73ffffffffffffffffffffffffffffffffffffffff168173ffffffffffffffffffffffffffffffffffffffff16146040518060400160405280600481526020017f303530390000000000000000000000000000000000000000000000000000000081525090611d33576040517f08c379a0000000000000000000000000000000000000000000000000000000008152600401611d2a91906129ba565b60405180910390fd5b50506003600084815260200190815260200160002060009054906101000a900460ff16151582151514156040518060400160405280600481526020017f303530380000000000000000000000000000000000000000000000000000000081525090611dd4576040517f08c379a0000000000000000000000000000000000000000000000000000000008152600401611dcb91906129ba565b60405180910390fd5b50816003600085815260200190815260200160002060006101000a81548160ff021916908315150217905550600190505b92915050565b60008054906101000a900473ffffffffffffffffffffffffffffffffffffffff1673ffffffffffffffffffffffffffffffffffffffff163373ffffffffffffffffffffffffffffffffffffffff1614611e99576040517f08c379a0000000000000000000000000000000000000000000000000000000008152600401611e9090612a1c565b60405180910390fd5b7f2d5a82cbc34270500c60b0532ca36cd4716c295bf0351b25835351664a3125bf60008054906101000a900473ffffffffffffffffffffffffffffffffffffffff16604051611ee89190612911565b60405180910390a1600073ffffffffffffffffffffffffffffffffffffffff168173ffffffffffffffffffffffffffffffffffffffff1614156040518060400160405280600481526020017f303130320000000000000000000000000000000000000000000000000000000081525090611f98576040517f08c379a0000000000000000000000000000000000000000000000000000000008152600401611f8f91906129ba565b60405180910390fd5b508073ffffffffffffffffffffffffffffffffffffffff1660008054906101000a900473ffffffffffffffffffffffffffffffffffffffff1673ffffffffffffffffffffffffffffffffffffffff167f8be0079c531659141344cd1fd0a4f28419497f9722a3daafe3b4186f6b6457e060405160405180910390a3806000806101000a81548173ffffffffffffffffffffffffffffffffffffffff021916908373ffffffffffffffffffffffffffffffffffffffff16021790555050565b6040518060400160405280600481526020017f303130310000000000000000000000000000000000000000000000000000000081525081565b600082116040518060400160405280600481526020017f30353037000000000000000000000000000000000000000000000000000000008152509061210a576040517f08c379a000000000000000000000000000000000000000000000000000000000815260040161210191906129ba565b60405180910390fd5b5060026000828152602001908152602001600020548214156040518060400160405280600481526020017f303530380000000000000000000000000000000000000000000000000000000081525090612199576040517f08c379a000000000000000000000000000000000000000000000000000000000815260040161219091906129ba565b60405180910390fd5b50600160009054906101000a900473ffffffffffffffffffffffffffffffffffffffff1673ffffffffffffffffffffffffffffffffffffffff16636352211e826040518263ffffffff1660e01b81526004016121f59190612a3c565b60206040518083038186803b15801561220d57600080fd5b505afa92505050801561223e57506040513d601f19601f8201168201806040525081019061223b9190612481565b60015b6122dc5761224a612339565b73ffffffffffffffffffffffffffffffffffffffff1660008054906101000a900473ffffffffffffffffffffffffffffffffffffffff1673ffffffffffffffffffffffffffffffffffffffff16146122d7576040517f08c379a00000000000000000000000000000000000000000000000000000000081526004016122ce90612a1c565b60405180910390fd5b61231d565b6122e4612339565b73ffffffffffffffffffffffffffffffffffffffff168173ffffffffffffffffffffffffffffffffffffffff161461231b57600080fd5b505b8160026000838152602001908152602001600020819055505050565b600033905090565b336000806101000a81548173ffffffffffffffffffffffffffffffffffffffff021916908373ffffffffffffffffffffffffffffffffffffffff1602179055507f2d5a82cbc34270500c60b0532ca36cd4716c295bf0351b25835351664a3125bf60008054906101000a900473ffffffffffffffffffffffffffffffffffffffff166040516123d091906128e3565b60405180910390a1565b6000813590506123e981612d00565b92915050565b6000815190506123fe81612d00565b92915050565b60008135905061241381612d17565b92915050565b60008151905061242881612d17565b92915050565b60008135905061243d81612d2e565b92915050565b60008151905061245281612d2e565b92915050565b60006020828403121561246a57600080fd5b6000612478848285016123da565b91505092915050565b60006020828403121561249357600080fd5b60006124a1848285016123ef565b91505092915050565b600080604083850312156124bd57600080fd5b60006124cb858286016123da565b92505060206124dc8582860161242e565b9150509250929050565b600080604083850312156124f957600080fd5b6000612507858286016123ef565b925050602061251885828601612443565b9150509250929050565b6000806000806080858703121561253857600080fd5b6000612546878288016123da565b94505060206125578782880161242e565b9350506040612568878288016123da565b92505060606125798782880161242e565b91505092959194509250565b60006020828403121561259757600080fd5b60006125a584828501612419565b91505092915050565b6000602082840312156125c057600080fd5b60006125ce8482850161242e565b91505092915050565b600080604083850312156125ea57600080fd5b60006125f88582860161242e565b925050602061260985828601612404565b9150509250929050565b6000806040838503121561262657600080fd5b60006126348582860161242e565b92505060206126458582860161242e565b9150509250929050565b61265881612c04565b82525050565b61266781612bbc565b82525050565b61267681612bce565b82525050565b61268581612c16565b82525050565b600061269682612a80565b6126a08185612a96565b93506126b0818560208601612c5e565b6126b981612cef565b840191505092915050565b60006126d1601783612a96565b91507f506179696e6720526f79616c74696573206661696c65640000000000000000006000830152602082019050919050565b6000612711602e83612a96565b91507f496e697469616c697a61626c653a20636f6e747261637420697320616c72656160008301527f647920696e697469616c697a65640000000000000000000000000000000000006020830152604082019050919050565b6000612777600983612a96565b91507f736574206f776e657200000000000000000000000000000000000000000000006000830152602082019050919050565b60006127b7600983612a96565b91507f4e6f74206f776e657200000000000000000000000000000000000000000000006000830152602082019050919050565b60006127f7600083612a8b565b9150600082019050919050565b6000612811601c83612a96565b91507f706173736564206f776e65727368697020726571756972656d656e74000000006000830152602082019050919050565b61284d81612bfa565b82525050565b600061285e826127ea565b9150819050919050565b600060208201905061287d600083018461265e565b92915050565b6000604082019050612898600083018561265e565b6128a5602083018461265e565b9392505050565b60006060820190506128c1600083018661265e565b6128ce602083018561264f565b6128db6040830184612844565b949350505050565b60006040820190506128f8600083018461265e565b81810360208301526129098161276a565b905092915050565b6000604082019050612926600083018461265e565b818103602083015261293781612804565b905092915050565b6000608082019050612954600083018761265e565b6129616020830186612844565b61296e604083018561265e565b61297b6060830184612844565b95945050505050565b6000602082019050612999600083018461266d565b92915050565b60006020820190506129b4600083018461267c565b92915050565b600060208201905081810360008301526129d4818461268b565b905092915050565b600060208201905081810360008301526129f5816126c4565b9050919050565b60006020820190508181036000830152612a1581612704565b9050919050565b60006020820190508181036000830152612a35816127aa565b9050919050565b6000602082019050612a516000830184612844565b92915050565b6000604082019050612a6c6000830185612844565b612a796020830184612844565b9392505050565b600081519050919050565b600081905092915050565b600082825260208201905092915050565b6000612ab282612bfa565b9150612abd83612bfa565b9250827fffffffffffffffffffffffffffffffffffffffffffffffffffffffffffffffff03821115612af257612af1612c91565b5b828201905092915050565b6000612b0882612bfa565b9150612b1383612bfa565b925082612b2357612b22612cc0565b5b828204905092915050565b6000612b3982612bfa565b9150612b4483612bfa565b9250817fffffffffffffffffffffffffffffffffffffffffffffffffffffffffffffffff0483118215151615612b7d57612b7c612c91565b5b828202905092915050565b6000612b9382612bfa565b9150612b9e83612bfa565b925082821015612bb157612bb0612c91565b5b828203905092915050565b6000612bc782612bda565b9050919050565b60008115159050919050565b600073ffffffffffffffffffffffffffffffffffffffff82169050919050565b6000819050919050565b6000612c0f82612c3a565b9050919050565b6000612c2182612c28565b9050919050565b6000612c3382612bda565b9050919050565b6000612c4582612c4c565b9050919050565b6000612c5782612bda565b9050919050565b60005b83811015612c7c578082015181840152602081019050612c61565b83811115612c8b576000848401525b50505050565b7f4e487b7100000000000000000000000000000000000000000000000000000000600052601160045260246000fd5b7f4e487b7100000000000000000000000000000000000000000000000000000000600052601260045260246000fd5b6000601f19601f8301169050919050565b612d0981612bbc565b8114612d1457600080fd5b50565b612d2081612bce565b8114612d2b57600080fd5b50565b612d3781612bfa565b8114612d4257600080fd5b5056fea2646970667358221220367ef7d1efabe5c838832ddd1600b97bc943fb2f217acade82b30c0d374f7a3b64736f6c63430008000033",
  "linkReferences": {},
  "deployedLinkReferences": {}
}