{
  "_format": "hh-sol-artifact-1",
  "contractName": "NoMoreWarOnDrugs",
  "sourceName": "contracts/NoMoreWarOnDrugs.sol",
  "abi": [
    {
      "inputs": [
        {
          "internalType": "string",
          "name": "_name",
          "type": "string"
        },
        {
          "internalType": "string",
          "name": "_symbol",
          "type": "string"
        }
      ],
      "stateMutability": "nonpayable",
      "type": "constructor"
    },
    {
      "anonymous": false,
      "inputs": [
        {
          "indexed": true,
          "internalType": "address",
          "name": "_owner",
          "type": "address"
        },
        {
          "indexed": true,
          "internalType": "address",
          "name": "_approved",
          "type": "address"
        },
        {
          "indexed": true,
          "internalType": "uint256",
          "name": "_tokenId",
          "type": "uint256"
        }
      ],
      "name": "Approval",
      "type": "event"
    },
    {
      "anonymous": false,
      "inputs": [
        {
          "indexed": true,
          "internalType": "address",
          "name": "_owner",
          "type": "address"
        },
        {
          "indexed": true,
          "internalType": "address",
          "name": "_operator",
          "type": "address"
        },
        {
          "indexed": false,
          "internalType": "bool",
          "name": "_approved",
          "type": "bool"
        }
      ],
      "name": "ApprovalForAll",
      "type": "event"
    },
    {
      "anonymous": false,
      "inputs": [
        {
          "indexed": true,
          "internalType": "address",
          "name": "previousOwner",
          "type": "address"
        },
        {
          "indexed": true,
          "internalType": "address",
          "name": "newOwner",
          "type": "address"
        }
      ],
      "name": "OwnershipTransferred",
      "type": "event"
    },
    {
      "anonymous": false,
      "inputs": [
        {
          "indexed": true,
          "internalType": "address",
          "name": "_from",
          "type": "address"
        },
        {
          "indexed": true,
          "internalType": "address",
          "name": "_to",
          "type": "address"
        },
        {
          "indexed": true,
          "internalType": "uint256",
          "name": "_tokenId",
          "type": "uint256"
        }
      ],
      "name": "Transfer",
      "type": "event"
    },
    {
      "anonymous": false,
      "inputs": [
        {
          "indexed": false,
          "internalType": "address",
          "name": "deliveredTo",
          "type": "address"
        },
        {
          "indexed": false,
          "internalType": "string",
          "name": "msg",
          "type": "string"
        }
      ],
      "name": "_msg",
      "type": "event"
    },
    {
      "inputs": [],
      "name": "CANNOT_TRANSFER_TO_ZERO_ADDRESS",
      "outputs": [
        {
          "internalType": "string",
          "name": "",
          "type": "string"
        }
      ],
      "stateMutability": "view",
      "type": "function"
    },
    {
      "inputs": [],
      "name": "NOT_CURRENT_OWNER",
      "outputs": [
        {
          "internalType": "string",
          "name": "",
          "type": "string"
        }
      ],
      "stateMutability": "view",
      "type": "function"
    },
    {
      "inputs": [
        {
          "internalType": "address",
          "name": "_to",
          "type": "address"
        },
        {
          "internalType": "uint256",
          "name": "_tokenId",
          "type": "uint256"
        }
      ],
      "name": "addNFToken",
      "outputs": [],
      "stateMutability": "nonpayable",
      "type": "function"
    },
    {
      "inputs": [
        {
          "internalType": "address",
          "name": "_approved",
          "type": "address"
        },
        {
          "internalType": "uint256",
          "name": "_tokenId",
          "type": "uint256"
        }
      ],
      "name": "approve",
      "outputs": [],
      "stateMutability": "nonpayable",
      "type": "function"
    },
    {
      "inputs": [
        {
          "internalType": "address",
          "name": "_owner",
          "type": "address"
        }
      ],
      "name": "balanceOf",
      "outputs": [
        {
          "internalType": "uint256",
          "name": "",
          "type": "uint256"
        }
      ],
      "stateMutability": "view",
      "type": "function"
    },
    {
      "inputs": [
        {
          "internalType": "uint256",
          "name": "_tokenId",
          "type": "uint256"
        }
      ],
      "name": "burn",
      "outputs": [],
      "stateMutability": "nonpayable",
      "type": "function"
    },
    {
      "inputs": [
        {
          "internalType": "uint256",
          "name": "_tokenId",
          "type": "uint256"
        }
      ],
      "name": "getApproved",
      "outputs": [
        {
          "internalType": "address",
          "name": "",
          "type": "address"
        }
      ],
      "stateMutability": "view",
      "type": "function"
    },
    {
      "inputs": [
        {
          "internalType": "address",
          "name": "_owner",
          "type": "address"
        }
      ],
      "name": "getOwnerNFTCount",
      "outputs": [
        {
          "internalType": "uint256",
          "name": "",
          "type": "uint256"
        }
      ],
      "stateMutability": "view",
      "type": "function"
    },
    {
      "inputs": [
        {
          "internalType": "address",
          "name": "_owner",
          "type": "address"
        },
        {
          "internalType": "address",
          "name": "_operator",
          "type": "address"
        }
      ],
      "name": "isApprovedForAll",
      "outputs": [
        {
          "internalType": "bool",
          "name": "",
          "type": "bool"
        }
      ],
      "stateMutability": "view",
      "type": "function"
    },
    {
      "inputs": [
        {
          "internalType": "address",
          "name": "_to",
          "type": "address"
        },
        {
          "internalType": "uint256",
          "name": "_tokenId",
          "type": "uint256"
        },
        {
          "internalType": "string",
          "name": "_uri",
          "type": "string"
        }
      ],
      "name": "mint",
      "outputs": [],
      "stateMutability": "nonpayable",
      "type": "function"
    },
    {
      "inputs": [],
      "name": "name",
      "outputs": [
        {
          "internalType": "string",
          "name": "_name",
          "type": "string"
        }
      ],
      "stateMutability": "view",
      "type": "function"
    },
    {
      "inputs": [],
      "name": "owner",
      "outputs": [
        {
          "internalType": "address",
          "name": "",
          "type": "address"
        }
      ],
      "stateMutability": "view",
      "type": "function"
    },
    {
      "inputs": [
        {
          "internalType": "uint256",
          "name": "_tokenId",
          "type": "uint256"
        }
      ],
      "name": "ownerOf",
      "outputs": [
        {
          "internalType": "address",
          "name": "_owner",
          "type": "address"
        }
      ],
      "stateMutability": "view",
      "type": "function"
    },
    {
      "inputs": [
        {
          "internalType": "address",
          "name": "_from",
          "type": "address"
        },
        {
          "internalType": "uint256",
          "name": "_tokenId",
          "type": "uint256"
        }
      ],
      "name": "removeNFToken",
      "outputs": [],
      "stateMutability": "nonpayable",
      "type": "function"
    },
    {
      "inputs": [
        {
          "internalType": "address",
          "name": "_from",
          "type": "address"
        },
        {
          "internalType": "address",
          "name": "_to",
          "type": "address"
        },
        {
          "internalType": "uint256",
          "name": "_tokenId",
          "type": "uint256"
        }
      ],
      "name": "safeTransferFrom",
      "outputs": [],
      "stateMutability": "nonpayable",
      "type": "function"
    },
    {
      "inputs": [
        {
          "internalType": "address",
          "name": "_from",
          "type": "address"
        },
        {
          "internalType": "address",
          "name": "_to",
          "type": "address"
        },
        {
          "internalType": "uint256",
          "name": "_tokenId",
          "type": "uint256"
        },
        {
          "internalType": "bytes",
          "name": "_data",
          "type": "bytes"
        }
      ],
      "name": "safeTransferFrom",
      "outputs": [],
      "stateMutability": "nonpayable",
      "type": "function"
    },
    {
      "inputs": [
        {
          "internalType": "address",
          "name": "_operator",
          "type": "address"
        },
        {
          "internalType": "bool",
          "name": "_approved",
          "type": "bool"
        }
      ],
      "name": "setApprovalForAll",
      "outputs": [],
      "stateMutability": "nonpayable",
      "type": "function"
    },
    {
      "inputs": [
        {
          "internalType": "uint256",
          "name": "_tokenId",
          "type": "uint256"
        },
        {
          "internalType": "string",
          "name": "_msg",
          "type": "string"
        }
      ],
      "name": "setTokenMessage",
      "outputs": [],
      "stateMutability": "nonpayable",
      "type": "function"
    },
    {
      "inputs": [
        {
          "internalType": "bytes4",
          "name": "_interfaceID",
          "type": "bytes4"
        }
      ],
      "name": "supportsInterface",
      "outputs": [
        {
          "internalType": "bool",
          "name": "",
          "type": "bool"
        }
      ],
      "stateMutability": "view",
      "type": "function"
    },
    {
      "inputs": [],
      "name": "symbol",
      "outputs": [
        {
          "internalType": "string",
          "name": "_symbol",
          "type": "string"
        }
      ],
      "stateMutability": "view",
      "type": "function"
    },
    {
      "inputs": [
        {
          "internalType": "uint256",
          "name": "_index",
          "type": "uint256"
        }
      ],
      "name": "tokenByIndex",
      "outputs": [
        {
          "internalType": "uint256",
          "name": "",
          "type": "uint256"
        }
      ],
      "stateMutability": "view",
      "type": "function"
    },
    {
      "inputs": [
        {
          "internalType": "uint256",
          "name": "_tokenId",
          "type": "uint256"
        }
      ],
      "name": "tokenMessage",
      "outputs": [
        {
          "internalType": "string",
          "name": "",
          "type": "string"
        }
      ],
      "stateMutability": "view",
      "type": "function"
    },
    {
      "inputs": [
        {
          "internalType": "uint256",
          "name": "_tokenId",
          "type": "uint256"
        }
      ],
      "name": "tokenMsgSet",
      "outputs": [
        {
          "internalType": "bool",
          "name": "",
          "type": "bool"
        }
      ],
      "stateMutability": "view",
      "type": "function"
    },
    {
      "inputs": [
        {
          "internalType": "address",
          "name": "_owner",
          "type": "address"
        },
        {
          "internalType": "uint256",
          "name": "_index",
          "type": "uint256"
        }
      ],
      "name": "tokenOfOwnerByIndex",
      "outputs": [
        {
          "internalType": "uint256",
          "name": "",
          "type": "uint256"
        }
      ],
      "stateMutability": "view",
      "type": "function"
    },
    {
      "inputs": [
        {
          "internalType": "uint256",
          "name": "_tokenId",
          "type": "uint256"
        }
      ],
      "name": "tokenURI",
      "outputs": [
        {
          "internalType": "string",
          "name": "",
          "type": "string"
        }
      ],
      "stateMutability": "view",
      "type": "function"
    },
    {
      "inputs": [],
      "name": "totalSupply",
      "outputs": [
        {
          "internalType": "uint256",
          "name": "",
          "type": "uint256"
        }
      ],
      "stateMutability": "view",
      "type": "function"
    },
    {
      "inputs": [
        {
          "internalType": "address",
          "name": "_from",
          "type": "address"
        },
        {
          "internalType": "address",
          "name": "_to",
          "type": "address"
        },
        {
          "internalType": "uint256",
          "name": "_tokenId",
          "type": "uint256"
        }
      ],
      "name": "transferFrom",
      "outputs": [],
      "stateMutability": "nonpayable",
      "type": "function"
    },
    {
      "inputs": [
        {
          "internalType": "address",
          "name": "_newOwner",
          "type": "address"
        }
      ],
      "name": "transferOwnership",
      "outputs": [],
      "stateMutability": "nonpayable",
      "type": "function"
    }
  ],
  "bytecode": "0x60806040523480156200001157600080fd5b506040516200493538038062004935833981810160405281019062000037919062000385565b60016000806301ffc9a760e01b7bffffffffffffffffffffffffffffffffffffffffffffffffffffffff1916815260200190815260200160002060006101000a81548160ff02191690831515021790555060016000806380ac58cd60e01b7bffffffffffffffffffffffffffffffffffffffffffffffffffffffff1916815260200190815260200160002060006101000a81548160ff021916908315150217905550600160008063780e9d6360e01b7bffffffffffffffffffffffffffffffffffffffffffffffffffffffff1916815260200190815260200160002060006101000a81548160ff0219169083151502179055506001600080635b5e139f60e01b7bffffffffffffffffffffffffffffffffffffffffffffffffffffffff1916815260200190815260200160002060006101000a81548160ff0219169083151502179055506200018b620001c560201b60201c565b8160099080519060200190620001a392919062000263565b5080600a9080519060200190620001bc92919062000263565b505050620005f3565b33600c60006101000a81548173ffffffffffffffffffffffffffffffffffffffff021916908373ffffffffffffffffffffffffffffffffffffffff1602179055507f2d5a82cbc34270500c60b0532ca36cd4716c295bf0351b25835351664a3125bf600c60009054906101000a900473ffffffffffffffffffffffffffffffffffffffff166040516200025991906200044b565b60405180910390a1565b82805462000271906200055f565b90600052602060002090601f016020900481019282620002955760008555620002e1565b82601f10620002b057805160ff1916838001178555620002e1565b82800160010185558215620002e1579182015b82811115620002e0578251825591602001919060010190620002c3565b5b509050620002f09190620002f4565b5090565b5b808211156200030f576000816000905550600101620002f5565b5090565b60006200032a6200032484620004b1565b6200047d565b9050828152602081018484840111156200034357600080fd5b6200035084828562000529565b509392505050565b600082601f8301126200036a57600080fd5b81516200037c84826020860162000313565b91505092915050565b600080604083850312156200039957600080fd5b600083015167ffffffffffffffff811115620003b457600080fd5b620003c28582860162000358565b925050602083015167ffffffffffffffff811115620003e057600080fd5b620003ee8582860162000358565b9150509250929050565b6200040381620004f5565b82525050565b600062000418600983620004e4565b91507f736574206f776e657200000000000000000000000000000000000000000000006000830152602082019050919050565b6000604082019050620004626000830184620003f8565b8181036020830152620004758162000409565b905092915050565b6000604051905081810181811067ffffffffffffffff82111715620004a757620004a6620005c4565b5b8060405250919050565b600067ffffffffffffffff821115620004cf57620004ce620005c4565b5b601f19601f8301169050602081019050919050565b600082825260208201905092915050565b6000620005028262000509565b9050919050565b600073ffffffffffffffffffffffffffffffffffffffff82169050919050565b60005b83811015620005495780820151818401526020810190506200052c565b8381111562000559576000848401525b50505050565b600060028204905060018216806200057857607f821691505b602082108114156200058f576200058e62000595565b5b50919050565b7f4e487b7100000000000000000000000000000000000000000000000000000000600052602260045260246000fd5b7f4e487b7100000000000000000000000000000000000000000000000000000000600052604160045260246000fd5b61433280620006036000396000f3fe608060405234801561001057600080fd5b50600436106101c45760003560e01c80638f847076116100f9578063c87b56dd11610097578063e4b7baeb11610071578063e4b7baeb14610527578063e985e9c514610557578063f2fde38b14610587578063f3fe3bc3146105a3576101c4565b8063c87b56dd146104ab578063d0f4f82a146104db578063d3fc98641461050b576101c4565b8063a22cb465116100d3578063a22cb46514610427578063b88d4fde14610443578063bd7f4c8d1461045f578063c2af674f1461048f576101c4565b80638f847076146103d157806395d89b41146103ed5780639c01e1f51461040b576101c4565b806342842e0e116101665780636352211e116101405780636352211e1461033557806370a0823114610365578063860d248a146103955780638da5cb5b146103b3576101c4565b806342842e0e146102cd57806342966c68146102e95780634f6ccce714610305576101c4565b8063095ea7b3116101a2578063095ea7b31461024757806318160ddd1461026357806323b872dd146102815780632f745c591461029d576101c4565b806301ffc9a7146101c957806306fdde03146101f9578063081812fc14610217575b600080fd5b6101e360048036038101906101de9190613d11565b6105c1565b6040516101f09190613f94565b60405180910390f35b610201610628565b60405161020e9190613faf565b60405180910390f35b610231600480360381019061022c9190613d63565b6106ba565b60405161023e9190613eff565b60405180910390f35b610261600480360381019061025c9190613c6e565b6107d5565b005b61026b610bbf565b6040516102789190613ff1565b60405180910390f35b61029b60048036038101906102969190613b63565b610bcc565b005b6102b760048036038101906102b29190613c6e565b61102c565b6040516102c49190613ff1565b60405180910390f35b6102e760048036038101906102e29190613b63565b611175565b005b61030360048036038101906102fe9190613d63565b611195565b005b61031f600480360381019061031a9190613d63565b61128a565b60405161032c9190613ff1565b60405180910390f35b61034f600480360381019061034a9190613d63565b611358565b60405161035c9190613eff565b60405180910390f35b61037f600480360381019061037a9190613afe565b61143e565b60405161038c9190613ff1565b60405180910390f35b61039d6114f8565b6040516103aa9190613faf565b60405180910390f35b6103bb611531565b6040516103c89190613eff565b60405180910390f35b6103eb60048036038101906103e69190613c6e565b611557565b005b6103f561164e565b6040516104029190613faf565b60405180910390f35b61042560048036038101906104209190613c6e565b6116e0565b005b610441600480360381019061043c9190613c32565b6117d7565b005b61045d60048036038101906104589190613bb2565b6118d4565b005b61047960048036038101906104749190613afe565b61192b565b6040516104869190613ff1565b60405180910390f35b6104a960048036038101906104a49190613d8c565b61193d565b005b6104c560048036038101906104c09190613d63565b611bf4565b6040516104d29190613faf565b60405180910390f35b6104f560048036038101906104f09190613d63565b611d77565b6040516105029190613f94565b60405180910390f35b61052560048036038101906105209190613caa565b611e7f565b005b610541600480360381019061053c9190613d63565b612107565b60405161054e9190613faf565b60405180910390f35b610571600480360381019061056c9190613b27565b61228a565b60405161057e9190613f94565b60405180910390f35b6105a1600480360381019061059c9190613afe565b61231e565b005b6105ab612570565b6040516105b89190613faf565b60405180910390f35b6000806000837bffffffffffffffffffffffffffffffffffffffffffffffffffffffff19167bffffffffffffffffffffffffffffffffffffffffffffffffffffffff1916815260200190815260200160002060009054906101000a900460ff169050919050565b606060098054610637906141d0565b80601f0160208091040260200160405190810160405280929190818152602001828054610663906141d0565b80156106b05780601f10610685576101008083540402835291602001916106b0565b820191906000526020600020905b81548152906001019060200180831161069357829003601f168201915b5050505050905090565b600081600073ffffffffffffffffffffffffffffffffffffffff166001600083815260200190815260200160002060009054906101000a900473ffffffffffffffffffffffffffffffffffffffff1673ffffffffffffffffffffffffffffffffffffffff1614156040518060400160405280600681526020017f303033303032000000000000000000000000000000000000000000000000000081525090610798576040517f08c379a000000000000000000000000000000000000000000000000000000000815260040161078f9190613faf565b60405180910390fd5b506002600084815260200190815260200160002060009054906101000a900473ffffffffffffffffffffffffffffffffffffffff16915050919050565b8060006001600083815260200190815260200160002060009054906101000a900473ffffffffffffffffffffffffffffffffffffffff1690506108166125a9565b73ffffffffffffffffffffffffffffffffffffffff168173ffffffffffffffffffffffffffffffffffffffff1614806108d55750600460008273ffffffffffffffffffffffffffffffffffffffff1673ffffffffffffffffffffffffffffffffffffffff16815260200190815260200160002060003373ffffffffffffffffffffffffffffffffffffffff1673ffffffffffffffffffffffffffffffffffffffff16815260200190815260200160002060009054906101000a900460ff165b6040518060400160405280600681526020017f30303330303300000000000000000000000000000000000000000000000000008152509061094c576040517f08c379a00000000000000000000000000000000000000000000000000000000081526004016109439190613faf565b60405180910390fd5b5082600073ffffffffffffffffffffffffffffffffffffffff166001600083815260200190815260200160002060009054906101000a900473ffffffffffffffffffffffffffffffffffffffff1673ffffffffffffffffffffffffffffffffffffffff1614156040518060400160405280600681526020017f303033303032000000000000000000000000000000000000000000000000000081525090610a29576040517f08c379a0000000000000000000000000000000000000000000000000000000008152600401610a209190613faf565b60405180910390fd5b5060006001600086815260200190815260200160002060009054906101000a900473ffffffffffffffffffffffffffffffffffffffff1690508073ffffffffffffffffffffffffffffffffffffffff168673ffffffffffffffffffffffffffffffffffffffff1614156040518060400160405280600681526020017f303033303038000000000000000000000000000000000000000000000000000081525090610b09576040517f08c379a0000000000000000000000000000000000000000000000000000000008152600401610b009190613faf565b60405180910390fd5b50856002600087815260200190815260200160002060006101000a81548173ffffffffffffffffffffffffffffffffffffffff021916908373ffffffffffffffffffffffffffffffffffffffff160217905550848673ffffffffffffffffffffffffffffffffffffffff168273ffffffffffffffffffffffffffffffffffffffff167f8c5be1e5ebec7d5bd14f71427d1e84f3dd0314c0f7b2291e5b200ac8c7c3b92560405160405180910390a4505050505050565b6000600580549050905090565b8060006001600083815260200190815260200160002060009054906101000a900473ffffffffffffffffffffffffffffffffffffffff169050610c0d6125a9565b73ffffffffffffffffffffffffffffffffffffffff168173ffffffffffffffffffffffffffffffffffffffff161480610cab5750610c496125a9565b73ffffffffffffffffffffffffffffffffffffffff166002600084815260200190815260200160002060009054906101000a900473ffffffffffffffffffffffffffffffffffffffff1673ffffffffffffffffffffffffffffffffffffffff16145b80610d3c5750600460008273ffffffffffffffffffffffffffffffffffffffff1673ffffffffffffffffffffffffffffffffffffffff16815260200190815260200160002060003373ffffffffffffffffffffffffffffffffffffffff1673ffffffffffffffffffffffffffffffffffffffff16815260200190815260200160002060009054906101000a900460ff165b6040518060400160405280600681526020017f303033303034000000000000000000000000000000000000000000000000000081525090610db3576040517f08c379a0000000000000000000000000000000000000000000000000000000008152600401610daa9190613faf565b60405180910390fd5b5082600073ffffffffffffffffffffffffffffffffffffffff166001600083815260200190815260200160002060009054906101000a900473ffffffffffffffffffffffffffffffffffffffff1673ffffffffffffffffffffffffffffffffffffffff1614156040518060400160405280600681526020017f303033303032000000000000000000000000000000000000000000000000000081525090610e90576040517f08c379a0000000000000000000000000000000000000000000000000000000008152600401610e879190613faf565b60405180910390fd5b5060006001600086815260200190815260200160002060009054906101000a900473ffffffffffffffffffffffffffffffffffffffff1690508673ffffffffffffffffffffffffffffffffffffffff168173ffffffffffffffffffffffffffffffffffffffff16146040518060400160405280600681526020017f303033303037000000000000000000000000000000000000000000000000000081525090610f6f576040517f08c379a0000000000000000000000000000000000000000000000000000000008152600401610f669190613faf565b60405180910390fd5b50600073ffffffffffffffffffffffffffffffffffffffff168673ffffffffffffffffffffffffffffffffffffffff1614156040518060400160405280600681526020017f303033303031000000000000000000000000000000000000000000000000000081525090611018576040517f08c379a000000000000000000000000000000000000000000000000000000000815260040161100f9190613faf565b60405180910390fd5b5061102386866125b1565b50505050505050565b6000600760008473ffffffffffffffffffffffffffffffffffffffff1673ffffffffffffffffffffffffffffffffffffffff1681526020019081526020016000208054905082106040518060400160405280600681526020017f3030353030370000000000000000000000000000000000000000000000000000815250906110ea576040517f08c379a00000000000000000000000000000000000000000000000000000000081526004016110e19190613faf565b60405180910390fd5b50600760008473ffffffffffffffffffffffffffffffffffffffff1673ffffffffffffffffffffffffffffffffffffffff1681526020019081526020016000208281548110611162577f4e487b7100000000000000000000000000000000000000000000000000000000600052603260045260246000fd5b9060005260206000200154905092915050565b61119083838360405180602001604052806000815250612666565b505050565b600c60009054906101000a900473ffffffffffffffffffffffffffffffffffffffff1673ffffffffffffffffffffffffffffffffffffffff163373ffffffffffffffffffffffffffffffffffffffff1614611225576040517f08c379a000000000000000000000000000000000000000000000000000000000815260040161121c90613fd1565b60405180910390fd5b7f2d5a82cbc34270500c60b0532ca36cd4716c295bf0351b25835351664a3125bf600c60009054906101000a900473ffffffffffffffffffffffffffffffffffffffff166040516112769190613f66565b60405180910390a161128781612c42565b50565b600060058054905082106040518060400160405280600681526020017f30303530303700000000000000000000000000000000000000000000000000008152509061130b576040517f08c379a00000000000000000000000000000000000000000000000000000000081526004016113029190613faf565b60405180910390fd5b5060058281548110611346577f4e487b7100000000000000000000000000000000000000000000000000000000600052603260045260246000fd5b90600052602060002001549050919050565b60006001600083815260200190815260200160002060009054906101000a900473ffffffffffffffffffffffffffffffffffffffff169050600073ffffffffffffffffffffffffffffffffffffffff168173ffffffffffffffffffffffffffffffffffffffff1614156040518060400160405280600681526020017f303033303032000000000000000000000000000000000000000000000000000081525090611438576040517f08c379a000000000000000000000000000000000000000000000000000000000815260040161142f9190613faf565b60405180910390fd5b50919050565b60008073ffffffffffffffffffffffffffffffffffffffff168273ffffffffffffffffffffffffffffffffffffffff1614156040518060400160405280600681526020017f3030333030310000000000000000000000000000000000000000000000000000815250906114e7576040517f08c379a00000000000000000000000000000000000000000000000000000000081526004016114de9190613faf565b60405180910390fd5b506114f182612c4e565b9050919050565b6040518060400160405280600681526020017f303138303032000000000000000000000000000000000000000000000000000081525081565b600c60009054906101000a900473ffffffffffffffffffffffffffffffffffffffff1681565b600c60009054906101000a900473ffffffffffffffffffffffffffffffffffffffff1673ffffffffffffffffffffffffffffffffffffffff163373ffffffffffffffffffffffffffffffffffffffff16146115e7576040517f08c379a00000000000000000000000000000000000000000000000000000000081526004016115de90613fd1565b60405180910390fd5b7f2d5a82cbc34270500c60b0532ca36cd4716c295bf0351b25835351664a3125bf600c60009054906101000a900473ffffffffffffffffffffffffffffffffffffffff166040516116389190613f66565b60405180910390a161164a8282612c60565b5050565b6060600a805461165d906141d0565b80601f0160208091040260200160405190810160405280929190818152602001828054611689906141d0565b80156116d65780601f106116ab576101008083540402835291602001916116d6565b820191906000526020600020905b8154815290600101906020018083116116b957829003601f168201915b5050505050905090565b600c60009054906101000a900473ffffffffffffffffffffffffffffffffffffffff1673ffffffffffffffffffffffffffffffffffffffff163373ffffffffffffffffffffffffffffffffffffffff1614611770576040517f08c379a000000000000000000000000000000000000000000000000000000000815260040161176790613fd1565b60405180910390fd5b7f2d5a82cbc34270500c60b0532ca36cd4716c295bf0351b25835351664a3125bf600c60009054906101000a900473ffffffffffffffffffffffffffffffffffffffff166040516117c19190613f66565b60405180910390a16117d38282612c6e565b5050565b80600460003373ffffffffffffffffffffffffffffffffffffffff1673ffffffffffffffffffffffffffffffffffffffff16815260200190815260200160002060008473ffffffffffffffffffffffffffffffffffffffff1673ffffffffffffffffffffffffffffffffffffffff16815260200190815260200160002060006101000a81548160ff0219169083151502179055508173ffffffffffffffffffffffffffffffffffffffff163373ffffffffffffffffffffffffffffffffffffffff167f17307eab39ab6107e8899845ad3d59bd9653f200f220920489ca2b5937696c31836040516118c89190613f94565b60405180910390a35050565b61192485858585858080601f016020809104026020016040519081016040528093929190818152602001838380828437600081840152601f19601f82011690508083019250505050505050612666565b5050505050565b600061193682612c4e565b9050919050565b81600073ffffffffffffffffffffffffffffffffffffffff166001600083815260200190815260200160002060009054906101000a900473ffffffffffffffffffffffffffffffffffffffff1673ffffffffffffffffffffffffffffffffffffffff1614156040518060400160405280600681526020017f303033303032000000000000000000000000000000000000000000000000000081525090611a19576040517f08c379a0000000000000000000000000000000000000000000000000000000008152600401611a109190613faf565b60405180910390fd5b5060006001600085815260200190815260200160002060009054906101000a900473ffffffffffffffffffffffffffffffffffffffff1690508073ffffffffffffffffffffffffffffffffffffffff16611a716125a9565b73ffffffffffffffffffffffffffffffffffffffff16146040518060400160405280600681526020017f303033303037000000000000000000000000000000000000000000000000000081525090611aff576040517f08c379a0000000000000000000000000000000000000000000000000000000008152600401611af69190613faf565b60405180910390fd5b50600d600085815260200190815260200160002060009054906101000a900460ff16156040518060400160405280600581526020017f323030303200000000000000000000000000000000000000000000000000000081525090611b99576040517f08c379a0000000000000000000000000000000000000000000000000000000008152600401611b909190613faf565b60405180910390fd5b5082600e60008681526020019081526020016000209080519060200190611bc1929190613900565b506001600d600086815260200190815260200160002060006101000a81548160ff02191690831515021790555050505050565b606081600073ffffffffffffffffffffffffffffffffffffffff166001600083815260200190815260200160002060009054906101000a900473ffffffffffffffffffffffffffffffffffffffff1673ffffffffffffffffffffffffffffffffffffffff1614156040518060400160405280600681526020017f303033303032000000000000000000000000000000000000000000000000000081525090611cd2576040517f08c379a0000000000000000000000000000000000000000000000000000000008152600401611cc99190613faf565b60405180910390fd5b50600b60008481526020019081526020016000208054611cf1906141d0565b80601f0160208091040260200160405190810160405280929190818152602001828054611d1d906141d0565b8015611d6a5780601f10611d3f57610100808354040283529160200191611d6a565b820191906000526020600020905b815481529060010190602001808311611d4d57829003601f168201915b5050505050915050919050565b600081600073ffffffffffffffffffffffffffffffffffffffff166001600083815260200190815260200160002060009054906101000a900473ffffffffffffffffffffffffffffffffffffffff1673ffffffffffffffffffffffffffffffffffffffff1614156040518060400160405280600681526020017f303033303032000000000000000000000000000000000000000000000000000081525090611e55576040517f08c379a0000000000000000000000000000000000000000000000000000000008152600401611e4c9190613faf565b60405180910390fd5b50600d600084815260200190815260200160002060009054906101000a900460ff16915050919050565b600c60009054906101000a900473ffffffffffffffffffffffffffffffffffffffff1673ffffffffffffffffffffffffffffffffffffffff163373ffffffffffffffffffffffffffffffffffffffff1614611f0f576040517f08c379a0000000000000000000000000000000000000000000000000000000008152600401611f0690613fd1565b60405180910390fd5b7f2d5a82cbc34270500c60b0532ca36cd4716c295bf0351b25835351664a3125bf600c60009054906101000a900473ffffffffffffffffffffffffffffffffffffffff16604051611f609190613f66565b60405180910390a1611f728383612c7c565b80600b60008481526020019081526020016000209080519060200190611f99929190613900565b50600460008473ffffffffffffffffffffffffffffffffffffffff1673ffffffffffffffffffffffffffffffffffffffff1681526020019081526020016000206000600c60009054906101000a900473ffffffffffffffffffffffffffffffffffffffff1673ffffffffffffffffffffffffffffffffffffffff1673ffffffffffffffffffffffffffffffffffffffff16815260200190815260200160002060009054906101000a900460ff16612102576001600460008573ffffffffffffffffffffffffffffffffffffffff1673ffffffffffffffffffffffffffffffffffffffff1681526020019081526020016000206000600c60009054906101000a900473ffffffffffffffffffffffffffffffffffffffff1673ffffffffffffffffffffffffffffffffffffffff1673ffffffffffffffffffffffffffffffffffffffff16815260200190815260200160002060006101000a81548160ff0219169083151502179055505b505050565b606081600073ffffffffffffffffffffffffffffffffffffffff166001600083815260200190815260200160002060009054906101000a900473ffffffffffffffffffffffffffffffffffffffff1673ffffffffffffffffffffffffffffffffffffffff1614156040518060400160405280600681526020017f3030333030320000000000000000000000000000000000000000000000000000815250906121e5576040517f08c379a00000000000000000000000000000000000000000000000000000000081526004016121dc9190613faf565b60405180910390fd5b50600e60008481526020019081526020016000208054612204906141d0565b80601f0160208091040260200160405190810160405280929190818152602001828054612230906141d0565b801561227d5780601f106122525761010080835404028352916020019161227d565b820191906000526020600020905b81548152906001019060200180831161226057829003601f168201915b5050505050915050919050565b6000600460008473ffffffffffffffffffffffffffffffffffffffff1673ffffffffffffffffffffffffffffffffffffffff16815260200190815260200160002060008373ffffffffffffffffffffffffffffffffffffffff1673ffffffffffffffffffffffffffffffffffffffff16815260200190815260200160002060009054906101000a900460ff16905092915050565b600c60009054906101000a900473ffffffffffffffffffffffffffffffffffffffff1673ffffffffffffffffffffffffffffffffffffffff163373ffffffffffffffffffffffffffffffffffffffff16146123ae576040517f08c379a00000000000000000000000000000000000000000000000000000000081526004016123a590613fd1565b60405180910390fd5b7f2d5a82cbc34270500c60b0532ca36cd4716c295bf0351b25835351664a3125bf600c60009054906101000a900473ffffffffffffffffffffffffffffffffffffffff166040516123ff9190613f66565b60405180910390a1600073ffffffffffffffffffffffffffffffffffffffff168173ffffffffffffffffffffffffffffffffffffffff1614156040518060400160405280600681526020017f3031383030320000000000000000000000000000000000000000000000000000815250906124af576040517f08c379a00000000000000000000000000000000000000000000000000000000081526004016124a69190613faf565b60405180910390fd5b508073ffffffffffffffffffffffffffffffffffffffff16600c60009054906101000a900473ffffffffffffffffffffffffffffffffffffffff1673ffffffffffffffffffffffffffffffffffffffff167f8be0079c531659141344cd1fd0a4f28419497f9722a3daafe3b4186f6b6457e060405160405180910390a380600c60006101000a81548173ffffffffffffffffffffffffffffffffffffffff021916908373ffffffffffffffffffffffffffffffffffffffff16021790555050565b6040518060400160405280600681526020017f303138303031000000000000000000000000000000000000000000000000000081525081565b600033905090565b60006001600083815260200190815260200160002060009054906101000a900473ffffffffffffffffffffffffffffffffffffffff1690506125f282612d1a565b6125fc8183612c60565b6126068383612c6e565b818373ffffffffffffffffffffffffffffffffffffffff168273ffffffffffffffffffffffffffffffffffffffff167fddf252ad1be2c89b69c2b068fc378daa952ba7f163c4a11628f55a4df523b3ef60405160405180910390a4505050565b8160006001600083815260200190815260200160002060009054906101000a900473ffffffffffffffffffffffffffffffffffffffff1690506126a76125a9565b73ffffffffffffffffffffffffffffffffffffffff168173ffffffffffffffffffffffffffffffffffffffff16148061274557506126e36125a9565b73ffffffffffffffffffffffffffffffffffffffff166002600084815260200190815260200160002060009054906101000a900473ffffffffffffffffffffffffffffffffffffffff1673ffffffffffffffffffffffffffffffffffffffff16145b806127d65750600460008273ffffffffffffffffffffffffffffffffffffffff1673ffffffffffffffffffffffffffffffffffffffff16815260200190815260200160002060003373ffffffffffffffffffffffffffffffffffffffff1673ffffffffffffffffffffffffffffffffffffffff16815260200190815260200160002060009054906101000a900460ff165b6040518060400160405280600681526020017f30303330303400000000000000000000000000000000000000000000000000008152509061284d576040517f08c379a00000000000000000000000000000000000000000000000000000000081526004016128449190613faf565b60405180910390fd5b5083600073ffffffffffffffffffffffffffffffffffffffff166001600083815260200190815260200160002060009054906101000a900473ffffffffffffffffffffffffffffffffffffffff1673ffffffffffffffffffffffffffffffffffffffff1614156040518060400160405280600681526020017f30303330303200000000000000000000000000000000000000000000000000008152509061292a576040517f08c379a00000000000000000000000000000000000000000000000000000000081526004016129219190613faf565b60405180910390fd5b5060006001600087815260200190815260200160002060009054906101000a900473ffffffffffffffffffffffffffffffffffffffff1690508773ffffffffffffffffffffffffffffffffffffffff168173ffffffffffffffffffffffffffffffffffffffff16146040518060400160405280600681526020017f303033303037000000000000000000000000000000000000000000000000000081525090612a09576040517f08c379a0000000000000000000000000000000000000000000000000000000008152600401612a009190613faf565b60405180910390fd5b50600073ffffffffffffffffffffffffffffffffffffffff168773ffffffffffffffffffffffffffffffffffffffff1614156040518060400160405280600681526020017f303033303031000000000000000000000000000000000000000000000000000081525090612ab2576040517f08c379a0000000000000000000000000000000000000000000000000000000008152600401612aa99190613faf565b60405180910390fd5b50612abd87876125b1565b612adc8773ffffffffffffffffffffffffffffffffffffffff16612dbb565b15612c385760008773ffffffffffffffffffffffffffffffffffffffff1663150b7a02338b8a8a6040518563ffffffff1660e01b8152600401612b229493929190613f1a565b602060405180830381600087803b158015612b3c57600080fd5b505af1158015612b50573d6000803e3d6000fd5b505050506040513d601f19601f82011682018060405250810190612b749190613d3a565b905063150b7a0260e01b7bffffffffffffffffffffffffffffffffffffffffffffffffffffffff1916817bffffffffffffffffffffffffffffffffffffffffffffffffffffffff1916146040518060400160405280600681526020017f303033303035000000000000000000000000000000000000000000000000000081525090612c35576040517f08c379a0000000000000000000000000000000000000000000000000000000008152600401612c2c9190613faf565b60405180910390fd5b50505b5050505050505050565b612c4b81612e06565b50565b6000612c5982612e59565b9050919050565b612c6a8282612ea5565b5050565b612c7882826131de565b5050565b600160de612c8a91906140d9565b60ff16600580549050106040518060400160405280600581526020017f323030303100000000000000000000000000000000000000000000000000000081525090612d0b576040517f08c379a0000000000000000000000000000000000000000000000000000000008152600401612d029190613faf565b60405180910390fd5b50612d1682826133db565b5050565b600073ffffffffffffffffffffffffffffffffffffffff166002600083815260200190815260200160002060009054906101000a900473ffffffffffffffffffffffffffffffffffffffff1673ffffffffffffffffffffffffffffffffffffffff1614612db8576002600082815260200190815260200160002060006101000a81549073ffffffffffffffffffffffffffffffffffffffff02191690555b50565b60008060007fc5d2460186f7233c927e7db2dcc703c0e500b653ca82273b7bfad8045d85a47060001b9050833f91506000801b8214158015612dfd5750808214155b92505050919050565b612e0f8161343b565b6000600b60008381526020019081526020016000208054612e2f906141d0565b905014612e5657600b60008281526020019081526020016000206000612e559190613986565b5b50565b6000600760008373ffffffffffffffffffffffffffffffffffffffff1673ffffffffffffffffffffffffffffffffffffffff168152602001908152602001600020805490509050919050565b8173ffffffffffffffffffffffffffffffffffffffff166001600083815260200190815260200160002060009054906101000a900473ffffffffffffffffffffffffffffffffffffffff1673ffffffffffffffffffffffffffffffffffffffff16146040518060400160405280600681526020017f303033303037000000000000000000000000000000000000000000000000000081525090612f7e576040517f08c379a0000000000000000000000000000000000000000000000000000000008152600401612f759190613faf565b60405180910390fd5b506001600082815260200190815260200160002060006101000a81549073ffffffffffffffffffffffffffffffffffffffff021916905560006008600083815260200190815260200160002054905060006001600760008673ffffffffffffffffffffffffffffffffffffffff1673ffffffffffffffffffffffffffffffffffffffff1681526020019081526020016000208054905061301e91906140a5565b905081811461314d576000600760008673ffffffffffffffffffffffffffffffffffffffff1673ffffffffffffffffffffffffffffffffffffffff16815260200190815260200160002082815481106130a0577f4e487b7100000000000000000000000000000000000000000000000000000000600052603260045260246000fd5b9060005260206000200154905080600760008773ffffffffffffffffffffffffffffffffffffffff1673ffffffffffffffffffffffffffffffffffffffff1681526020019081526020016000208481548110613125577f4e487b7100000000000000000000000000000000000000000000000000000000600052603260045260246000fd5b9060005260206000200181905550826008600083815260200190815260200160002081905550505b600760008573ffffffffffffffffffffffffffffffffffffffff1673ffffffffffffffffffffffffffffffffffffffff1681526020019081526020016000208054806131c2577f4e487b7100000000000000000000000000000000000000000000000000000000600052603160045260246000fd5b6001900381819060005260206000200160009055905550505050565b600073ffffffffffffffffffffffffffffffffffffffff166001600083815260200190815260200160002060009054906101000a900473ffffffffffffffffffffffffffffffffffffffff1673ffffffffffffffffffffffffffffffffffffffff16146040518060400160405280600681526020017f3030333030360000000000000000000000000000000000000000000000000000815250906132b8576040517f08c379a00000000000000000000000000000000000000000000000000000000081526004016132af9190613faf565b60405180910390fd5b50816001600083815260200190815260200160002060006101000a81548173ffffffffffffffffffffffffffffffffffffffff021916908373ffffffffffffffffffffffffffffffffffffffff160217905550600760008373ffffffffffffffffffffffffffffffffffffffff1673ffffffffffffffffffffffffffffffffffffffff1681526020019081526020016000208190806001815401808255809150506001900390600052602060002001600090919091909150556001600760008473ffffffffffffffffffffffffffffffffffffffff1673ffffffffffffffffffffffffffffffffffffffff168152602001908152602001600020805490506133c091906140a5565b60086000838152602001908152602001600020819055505050565b6133e58282613589565b6005819080600181540180825580915050600190039060005260206000200160009091909190915055600160058054905061342091906140a5565b60066000838152602001908152602001600020819055505050565b61344481613777565b6000600660008381526020019081526020016000205490506000600160058054905061347091906140a5565b90506000600582815481106134ae577f4e487b7100000000000000000000000000000000000000000000000000000000600052603260045260246000fd5b9060005260206000200154905080600584815481106134f6577f4e487b7100000000000000000000000000000000000000000000000000000000600052603260045260246000fd5b9060005260206000200181905550600580548061353c577f4e487b7100000000000000000000000000000000000000000000000000000000600052603160045260246000fd5b600190038181906000526020600020016000905590558260066000838152602001908152602001600020819055506000600660008681526020019081526020016000208190555050505050565b600073ffffffffffffffffffffffffffffffffffffffff168273ffffffffffffffffffffffffffffffffffffffff1614156040518060400160405280600681526020017f303033303031000000000000000000000000000000000000000000000000000081525090613631576040517f08c379a00000000000000000000000000000000000000000000000000000000081526004016136289190613faf565b60405180910390fd5b50600073ffffffffffffffffffffffffffffffffffffffff166001600083815260200190815260200160002060009054906101000a900473ffffffffffffffffffffffffffffffffffffffff1673ffffffffffffffffffffffffffffffffffffffff16146040518060400160405280600681526020017f30303330303600000000000000000000000000000000000000000000000000008152509061370c576040517f08c379a00000000000000000000000000000000000000000000000000000000081526004016137039190613faf565b60405180910390fd5b506137178282612c6e565b808273ffffffffffffffffffffffffffffffffffffffff16600073ffffffffffffffffffffffffffffffffffffffff167fddf252ad1be2c89b69c2b068fc378daa952ba7f163c4a11628f55a4df523b3ef60405160405180910390a45050565b80600073ffffffffffffffffffffffffffffffffffffffff166001600083815260200190815260200160002060009054906101000a900473ffffffffffffffffffffffffffffffffffffffff1673ffffffffffffffffffffffffffffffffffffffff1614156040518060400160405280600681526020017f303033303032000000000000000000000000000000000000000000000000000081525090613853576040517f08c379a000000000000000000000000000000000000000000000000000000000815260040161384a9190613faf565b60405180910390fd5b5060006001600084815260200190815260200160002060009054906101000a900473ffffffffffffffffffffffffffffffffffffffff16905061389583612d1a565b61389f8184612c60565b82600073ffffffffffffffffffffffffffffffffffffffff168273ffffffffffffffffffffffffffffffffffffffff167fddf252ad1be2c89b69c2b068fc378daa952ba7f163c4a11628f55a4df523b3ef60405160405180910390a4505050565b82805461390c906141d0565b90600052602060002090601f01602090048101928261392e5760008555613975565b82601f1061394757805160ff1916838001178555613975565b82800160010185558215613975579182015b82811115613974578251825591602001919060010190613959565b5b50905061398291906139c6565b5090565b508054613992906141d0565b6000825580601f106139a457506139c3565b601f0160209004906000526020600020908101906139c291906139c6565b5b50565b5b808211156139df5760008160009055506001016139c7565b5090565b60006139f66139f18461403d565b61400c565b905082815260208101848484011115613a0e57600080fd5b613a1984828561418e565b509392505050565b600081359050613a30816142a0565b92915050565b600081359050613a45816142b7565b92915050565b600081359050613a5a816142ce565b92915050565b600081519050613a6f816142ce565b92915050565b60008083601f840112613a8757600080fd5b8235905067ffffffffffffffff811115613aa057600080fd5b602083019150836001820283011115613ab857600080fd5b9250929050565b600082601f830112613ad057600080fd5b8135613ae08482602086016139e3565b91505092915050565b600081359050613af8816142e5565b92915050565b600060208284031215613b1057600080fd5b6000613b1e84828501613a21565b91505092915050565b60008060408385031215613b3a57600080fd5b6000613b4885828601613a21565b9250506020613b5985828601613a21565b9150509250929050565b600080600060608486031215613b7857600080fd5b6000613b8686828701613a21565b9350506020613b9786828701613a21565b9250506040613ba886828701613ae9565b9150509250925092565b600080600080600060808688031215613bca57600080fd5b6000613bd888828901613a21565b9550506020613be988828901613a21565b9450506040613bfa88828901613ae9565b935050606086013567ffffffffffffffff811115613c1757600080fd5b613c2388828901613a75565b92509250509295509295909350565b60008060408385031215613c4557600080fd5b6000613c5385828601613a21565b9250506020613c6485828601613a36565b9150509250929050565b60008060408385031215613c8157600080fd5b6000613c8f85828601613a21565b9250506020613ca085828601613ae9565b9150509250929050565b600080600060608486031215613cbf57600080fd5b6000613ccd86828701613a21565b9350506020613cde86828701613ae9565b925050604084013567ffffffffffffffff811115613cfb57600080fd5b613d0786828701613abf565b9150509250925092565b600060208284031215613d2357600080fd5b6000613d3184828501613a4b565b91505092915050565b600060208284031215613d4c57600080fd5b6000613d5a84828501613a60565b91505092915050565b600060208284031215613d7557600080fd5b6000613d8384828501613ae9565b91505092915050565b60008060408385031215613d9f57600080fd5b6000613dad85828601613ae9565b925050602083013567ffffffffffffffff811115613dca57600080fd5b613dd685828601613abf565b9150509250929050565b613de98161410d565b82525050565b613df88161411f565b82525050565b6000613e098261406d565b613e138185614083565b9350613e2381856020860161419d565b613e2c8161428f565b840191505092915050565b6000613e4282614078565b613e4c8185614094565b9350613e5c81856020860161419d565b613e658161428f565b840191505092915050565b6000613e7d600983614094565b91507f4e6f74206f776e657200000000000000000000000000000000000000000000006000830152602082019050919050565b6000613ebd601c83614094565b91507f706173736564206f776e65727368697020726571756972656d656e74000000006000830152602082019050919050565b613ef981614177565b82525050565b6000602082019050613f146000830184613de0565b92915050565b6000608082019050613f2f6000830187613de0565b613f3c6020830186613de0565b613f496040830185613ef0565b8181036060830152613f5b8184613dfe565b905095945050505050565b6000604082019050613f7b6000830184613de0565b8181036020830152613f8c81613eb0565b905092915050565b6000602082019050613fa96000830184613def565b92915050565b60006020820190508181036000830152613fc98184613e37565b905092915050565b60006020820190508181036000830152613fea81613e70565b9050919050565b60006020820190506140066000830184613ef0565b92915050565b6000604051905081810181811067ffffffffffffffff8211171561403357614032614260565b5b8060405250919050565b600067ffffffffffffffff82111561405857614057614260565b5b601f19601f8301169050602081019050919050565b600081519050919050565b600081519050919050565b600082825260208201905092915050565b600082825260208201905092915050565b60006140b082614177565b91506140bb83614177565b9250828210156140ce576140cd614202565b5b828203905092915050565b60006140e482614181565b91506140ef83614181565b92508282101561410257614101614202565b5b828203905092915050565b600061411882614157565b9050919050565b60008115159050919050565b60007fffffffff0000000000000000000000000000000000000000000000000000000082169050919050565b600073ffffffffffffffffffffffffffffffffffffffff82169050919050565b6000819050919050565b600060ff82169050919050565b82818337600083830152505050565b60005b838110156141bb5780820151818401526020810190506141a0565b838111156141ca576000848401525b50505050565b600060028204905060018216806141e857607f821691505b602082108114156141fc576141fb614231565b5b50919050565b7f4e487b7100000000000000000000000000000000000000000000000000000000600052601160045260246000fd5b7f4e487b7100000000000000000000000000000000000000000000000000000000600052602260045260246000fd5b7f4e487b7100000000000000000000000000000000000000000000000000000000600052604160045260246000fd5b6000601f19601f8301169050919050565b6142a98161410d565b81146142b457600080fd5b50565b6142c08161411f565b81146142cb57600080fd5b50565b6142d78161412b565b81146142e257600080fd5b50565b6142ee81614177565b81146142f957600080fd5b5056fea2646970667358221220599a3ee38f92c9a0314dbe15868c6c1274f37962b0f84d63a6e6a7383e23ae9e64736f6c63430008000033",
  "linkReferences": {},
  "deployedLinkReferences": {}
}