{
  "_format": "hh-sol-artifact-1",
  "contractName": "NMWDMarketPlace",
  "sourceName": "contracts/NMWDMarketPlace.sol",
  "abi": [
    {
      "inputs": [],
      "stateMutability": "nonpayable",
      "type": "constructor"
    },
    {
      "anonymous": false,
      "inputs": [
        {
          "indexed": true,
          "internalType": "address",
          "name": "previousOwner",
          "type": "address"
        },
        {
          "indexed": true,
          "internalType": "address",
          "name": "newOwner",
          "type": "address"
        }
      ],
      "name": "OwnershipTransferred",
      "type": "event"
    },
    {
      "anonymous": false,
      "inputs": [
        {
          "indexed": true,
          "internalType": "address",
          "name": "payer",
          "type": "address"
        },
        {
          "indexed": false,
          "internalType": "uint256",
          "name": "tokenId",
          "type": "uint256"
        },
        {
          "indexed": false,
          "internalType": "uint256",
          "name": "amount",
          "type": "uint256"
        },
        {
          "indexed": false,
          "internalType": "uint256",
          "name": "balance",
          "type": "uint256"
        }
      ],
      "name": "Received",
      "type": "event"
    },
    {
      "anonymous": false,
      "inputs": [
        {
          "indexed": true,
          "internalType": "address",
          "name": "payee",
          "type": "address"
        },
        {
          "indexed": false,
          "internalType": "uint256",
          "name": "amount",
          "type": "uint256"
        },
        {
          "indexed": false,
          "internalType": "uint256",
          "name": "balance",
          "type": "uint256"
        }
      ],
      "name": "Sent",
      "type": "event"
    },
    {
      "anonymous": false,
      "inputs": [
        {
          "indexed": false,
          "internalType": "address",
          "name": "deliveredTo",
          "type": "address"
        },
        {
          "indexed": false,
          "internalType": "string",
          "name": "msg",
          "type": "string"
        }
      ],
      "name": "_msg",
      "type": "event"
    },
    {
      "inputs": [],
      "name": "CANNOT_TRANSFER_TO_ZERO_ADDRESS",
      "outputs": [
        {
          "internalType": "string",
          "name": "",
          "type": "string"
        }
      ],
      "stateMutability": "view",
      "type": "function"
    },
    {
      "inputs": [],
      "name": "NMWDcontract",
      "outputs": [
        {
          "internalType": "contract NoMoreWarOnDrugs",
          "name": "",
          "type": "address"
        }
      ],
      "stateMutability": "view",
      "type": "function"
    },
    {
      "inputs": [],
      "name": "NOT_CURRENT_OWNER",
      "outputs": [
        {
          "internalType": "string",
          "name": "",
          "type": "string"
        }
      ],
      "stateMutability": "view",
      "type": "function"
    },
    {
      "inputs": [],
      "name": "approveAllNMWD",
      "outputs": [],
      "stateMutability": "nonpayable",
      "type": "function"
    },
    {
      "inputs": [
        {
          "internalType": "uint256",
          "name": "_tokenId",
          "type": "uint256"
        }
      ],
      "name": "approveNMWD",
      "outputs": [],
      "stateMutability": "nonpayable",
      "type": "function"
    },
    {
      "inputs": [
        {
          "internalType": "address",
          "name": "",
          "type": "address"
        }
      ],
      "name": "ethBalance",
      "outputs": [
        {
          "internalType": "uint256",
          "name": "",
          "type": "uint256"
        }
      ],
      "stateMutability": "view",
      "type": "function"
    },
    {
      "inputs": [
        {
          "internalType": "address",
          "name": "_to",
          "type": "address"
        },
        {
          "internalType": "uint256",
          "name": "_tokenId",
          "type": "uint256"
        },
        {
          "internalType": "string",
          "name": "_uri",
          "type": "string"
        }
      ],
      "name": "mintThroughPurchase",
      "outputs": [],
      "stateMutability": "payable",
      "type": "function"
    },
    {
      "inputs": [],
      "name": "owner",
      "outputs": [
        {
          "internalType": "address",
          "name": "",
          "type": "address"
        }
      ],
      "stateMutability": "view",
      "type": "function"
    },
    {
      "inputs": [
        {
          "internalType": "uint256",
          "name": "",
          "type": "uint256"
        }
      ],
      "name": "price",
      "outputs": [
        {
          "internalType": "uint256",
          "name": "",
          "type": "uint256"
        }
      ],
      "stateMutability": "view",
      "type": "function"
    },
    {
      "inputs": [
        {
          "internalType": "uint256",
          "name": "_tokenId",
          "type": "uint256"
        }
      ],
      "name": "purchaseToken",
      "outputs": [],
      "stateMutability": "payable",
      "type": "function"
    },
    {
      "inputs": [],
      "name": "removeApprovalForAllNMWD",
      "outputs": [],
      "stateMutability": "nonpayable",
      "type": "function"
    },
    {
      "inputs": [
        {
          "internalType": "uint256",
          "name": "_price",
          "type": "uint256"
        },
        {
          "internalType": "uint256",
          "name": "_tokenId",
          "type": "uint256"
        }
      ],
      "name": "setPrice",
      "outputs": [],
      "stateMutability": "nonpayable",
      "type": "function"
    },
    {
      "inputs": [
        {
          "internalType": "address",
          "name": "_newOwner",
          "type": "address"
        }
      ],
      "name": "transferOwnership",
      "outputs": [],
      "stateMutability": "nonpayable",
      "type": "function"
    },
    {
      "inputs": [
        {
          "internalType": "address",
          "name": "nmwdAddress",
          "type": "address"
        }
      ],
      "name": "updateNMWDcontract",
      "outputs": [],
      "stateMutability": "nonpayable",
      "type": "function"
    },
    {
      "inputs": [
        {
          "internalType": "address",
          "name": "_payee",
          "type": "address"
        },
        {
          "internalType": "uint256",
          "name": "_amount",
          "type": "uint256"
        }
      ],
      "name": "withdrawFromContract",
      "outputs": [],
      "stateMutability": "nonpayable",
      "type": "function"
    },
    {
      "inputs": [
        {
          "internalType": "uint256",
          "name": "_amount",
          "type": "uint256"
        }
      ],
      "name": "withdrawUserFunds",
      "outputs": [],
      "stateMutability": "nonpayable",
      "type": "function"
    }
  ],
  "bytecode": "0x60806040523480156200001157600080fd5b50620000226200002860201b60201c565b6200018d565b336000806101000a81548173ffffffffffffffffffffffffffffffffffffffff021916908373ffffffffffffffffffffffffffffffffffffffff1602179055507f2d5a82cbc34270500c60b0532ca36cd4716c295bf0351b25835351664a3125bf60008054906101000a900473ffffffffffffffffffffffffffffffffffffffff16604051620000b9919062000116565b60405180910390a1565b620000ce8162000159565b82525050565b6000620000e360098362000148565b91507f736574206f776e657200000000000000000000000000000000000000000000006000830152602082019050919050565b60006040820190506200012d6000830184620000c3565b81810360208301526200014081620000d4565b905092915050565b600082825260208201905092915050565b600062000166826200016d565b9050919050565b600073ffffffffffffffffffffffffffffffffffffffff82169050919050565b612925806200019d6000396000f3fe6080604052600436106100f35760003560e01c8063c2db2c421161008a578063ecdf156111610059578063ecdf1561146102d4578063f2fde38b146102fd578063f3fe3bc314610326578063f7d9757714610351576100f3565b8063c2db2c4214610236578063d149039114610252578063d8f3790f1461027b578063db228cfe146102b8576100f3565b8063860d248a116100c6578063860d248a1461018c5780638da5cb5b146101b7578063b0e857ec146101e2578063be4185f41461020b576100f3565b806317d9c044146100f857806326a49e371461010f5780637c6ce77e1461014c578063837381fa14610163575b600080fd5b34801561010457600080fd5b5061010d61037a565b005b34801561011b57600080fd5b50610136600480360381019061013191906120de565b6104d7565b604051610143919061248e565b60405180910390f35b34801561015857600080fd5b506101616104ef565b005b34801561016f57600080fd5b5061018a60048036038101906101859190612012565b61064c565b005b34801561019857600080fd5b506101a1610857565b6040516101ae91906123cc565b60405180910390f35b3480156101c357600080fd5b506101cc610890565b6040516101d99190612278565b60405180910390f35b3480156101ee57600080fd5b5061020960048036038101906102049190611fc0565b6108b4565b005b34801561021757600080fd5b50610220610bbf565b60405161022d91906123b1565b60405180910390f35b610250600480360381019061024b91906120de565b610be5565b005b34801561025e57600080fd5b50610279600480360381019061027491906120de565b6112c6565b005b34801561028757600080fd5b506102a2600480360381019061029d9190611fc0565b611462565b6040516102af919061248e565b60405180910390f35b6102d260048036038101906102cd919061204e565b61147a565b005b3480156102e057600080fd5b506102fb60048036038101906102f691906120de565b6116d3565b005b34801561030957600080fd5b50610324600480360381019061031f9190611fc0565b61185a565b005b34801561033257600080fd5b5061033b611aa5565b60405161034891906123cc565b60405180910390f35b34801561035d57600080fd5b5061037860048036038101906103739190612107565b611ade565b005b600073ffffffffffffffffffffffffffffffffffffffff16600160009054906101000a900473ffffffffffffffffffffffffffffffffffffffff1673ffffffffffffffffffffffffffffffffffffffff1614156040518060400160405280600681526020017f303033303032000000000000000000000000000000000000000000000000000081525090610444576040517f08c379a000000000000000000000000000000000000000000000000000000000815260040161043b91906123cc565b60405180910390fd5b50600160009054906101000a900473ffffffffffffffffffffffffffffffffffffffff1673ffffffffffffffffffffffffffffffffffffffff1663a22cb4653060016040518363ffffffff1660e01b81526004016104a39291906122f3565b600060405180830381600087803b1580156104bd57600080fd5b505af11580156104d1573d6000803e3d6000fd5b50505050565b60026020528060005260406000206000915090505481565b600073ffffffffffffffffffffffffffffffffffffffff16600160009054906101000a900473ffffffffffffffffffffffffffffffffffffffff1673ffffffffffffffffffffffffffffffffffffffff1614156040518060400160405280600681526020017f3030333030320000000000000000000000000000000000000000000000000000815250906105b9576040517f08c379a00000000000000000000000000000000000000000000000000000000081526004016105b091906123cc565b60405180910390fd5b50600160009054906101000a900473ffffffffffffffffffffffffffffffffffffffff1673ffffffffffffffffffffffffffffffffffffffff1663a22cb4653060006040518363ffffffff1660e01b81526004016106189291906122f3565b600060405180830381600087803b15801561063257600080fd5b505af1158015610646573d6000803e3d6000fd5b50505050565b60008054906101000a900473ffffffffffffffffffffffffffffffffffffffff1673ffffffffffffffffffffffffffffffffffffffff163373ffffffffffffffffffffffffffffffffffffffff16146106da576040517f08c379a00000000000000000000000000000000000000000000000000000000081526004016106d19061244e565b60405180910390fd5b7f2d5a82cbc34270500c60b0532ca36cd4716c295bf0351b25835351664a3125bf60008054906101000a900473ffffffffffffffffffffffffffffffffffffffff16604051610729919061231c565b60405180910390a1600073ffffffffffffffffffffffffffffffffffffffff168273ffffffffffffffffffffffffffffffffffffffff161415801561079a57503073ffffffffffffffffffffffffffffffffffffffff168273ffffffffffffffffffffffffffffffffffffffff1614155b6107a357600080fd5b6000811180156107b35750478111155b6107bc57600080fd5b8173ffffffffffffffffffffffffffffffffffffffff166108fc829081150290604051600060405180830381858888f19350505050158015610802573d6000803e3d6000fd5b508173ffffffffffffffffffffffffffffffffffffffff167f6356739d963da01dc3533acba7203430fcc14f2175d48a8dd0973d7db49c785e824760405161084b9291906124a9565b60405180910390a25050565b6040518060400160405280600681526020017f303138303032000000000000000000000000000000000000000000000000000081525081565b60008054906101000a900473ffffffffffffffffffffffffffffffffffffffff1681565b60008054906101000a900473ffffffffffffffffffffffffffffffffffffffff1673ffffffffffffffffffffffffffffffffffffffff163373ffffffffffffffffffffffffffffffffffffffff1614610942576040517f08c379a00000000000000000000000000000000000000000000000000000000081526004016109399061244e565b60405180910390fd5b7f2d5a82cbc34270500c60b0532ca36cd4716c295bf0351b25835351664a3125bf60008054906101000a900473ffffffffffffffffffffffffffffffffffffffff16604051610991919061231c565b60405180910390a16109d86040518060400160405280600b81526020017f6d73672e73656e6465722000000000000000000000000000000000000000000081525033611da3565b610a396040518060400160405280601781526020017f61646472657373284e4d5744636f6e7472616374293a20000000000000000000815250600160009054906101000a900473ffffffffffffffffffffffffffffffffffffffff16611da3565b600073ffffffffffffffffffffffffffffffffffffffff168173ffffffffffffffffffffffffffffffffffffffff1614158015610aa257503073ffffffffffffffffffffffffffffffffffffffff168173ffffffffffffffffffffffffffffffffffffffff1614155b6040518060400160405280600681526020017f303033303031000000000000000000000000000000000000000000000000000081525090610b19576040517f08c379a0000000000000000000000000000000000000000000000000000000008152600401610b1091906123cc565b60405180910390fd5b5080600160006101000a81548173ffffffffffffffffffffffffffffffffffffffff021916908373ffffffffffffffffffffffffffffffffffffffff160217905550610bbc6040518060400160405280601781526020017f61646472657373284e4d5744636f6e7472616374293a20000000000000000000815250600160009054906101000a900473ffffffffffffffffffffffffffffffffffffffff16611da3565b50565b600160009054906101000a900473ffffffffffffffffffffffffffffffffffffffff1681565b600073ffffffffffffffffffffffffffffffffffffffff163373ffffffffffffffffffffffffffffffffffffffff1614158015610c4e57503073ffffffffffffffffffffffffffffffffffffffff163373ffffffffffffffffffffffffffffffffffffffff1614155b610c5757600080fd5b6002600082815260200190815260200160002054341015610c7757600080fd5b600073ffffffffffffffffffffffffffffffffffffffff16600160009054906101000a900473ffffffffffffffffffffffffffffffffffffffff1673ffffffffffffffffffffffffffffffffffffffff16636352211e836040518263ffffffff1660e01b8152600401610cea919061248e565b60206040518083038186803b158015610d0257600080fd5b505afa158015610d16573d6000803e3d6000fd5b505050506040513d601f19601f82011682018060405250810190610d3a9190611fe9565b73ffffffffffffffffffffffffffffffffffffffff1614156040518060400160405280600681526020017f303033303032000000000000000000000000000000000000000000000000000081525090610dc9576040517f08c379a0000000000000000000000000000000000000000000000000000000008152600401610dc091906123cc565b60405180910390fd5b506000600160009054906101000a900473ffffffffffffffffffffffffffffffffffffffff1673ffffffffffffffffffffffffffffffffffffffff16636352211e836040518263ffffffff1660e01b8152600401610e27919061248e565b60206040518083038186803b158015610e3f57600080fd5b505afa158015610e53573d6000803e3d6000fd5b505050506040513d601f19601f82011682018060405250810190610e779190611fe9565b90503073ffffffffffffffffffffffffffffffffffffffff16600160009054906101000a900473ffffffffffffffffffffffffffffffffffffffff1673ffffffffffffffffffffffffffffffffffffffff1663081812fc846040518263ffffffff1660e01b8152600401610eeb919061248e565b60206040518083038186803b158015610f0357600080fd5b505afa158015610f17573d6000803e3d6000fd5b505050506040513d601f19601f82011682018060405250810190610f3b9190611fe9565b73ffffffffffffffffffffffffffffffffffffffff1614806110065750600160009054906101000a900473ffffffffffffffffffffffffffffffffffffffff1673ffffffffffffffffffffffffffffffffffffffff1663e985e9c582306040518363ffffffff1660e01b8152600401610fb5929190612293565b60206040518083038186803b158015610fcd57600080fd5b505afa158015610fe1573d6000803e3d6000fd5b505050506040513d601f19601f8201168201806040525081019061100591906120b5565b5b6040518060400160405280600681526020017f30303330303300000000000000000000000000000000000000000000000000008152509061107d576040517f08c379a000000000000000000000000000000000000000000000000000000000815260040161107491906123cc565b60405180910390fd5b50600160009054906101000a900473ffffffffffffffffffffffffffffffffffffffff1673ffffffffffffffffffffffffffffffffffffffff166342842e0e8233856040518463ffffffff1660e01b81526004016110dd939291906122bc565b600060405180830381600087803b1580156110f757600080fd5b505af115801561110b573d6000803e3d6000fd5b5050505061118d6040518060400160405280601981526020017f65746842616c616e63655b746f6b656e53656c6c65725d3a2000000000000000815250600460008473ffffffffffffffffffffffffffffffffffffffff1673ffffffffffffffffffffffffffffffffffffffff16815260200190815260200160002054611e3f565b6111ce6040518060400160405280601181526020017f636f6e747261637442616c616e63653a20000000000000000000000000000000815250600354611e3f565b6103e66103e8346111df91906125dc565b6111e9919061260d565b600460008373ffffffffffffffffffffffffffffffffffffffff1673ffffffffffffffffffffffffffffffffffffffff16815260200190815260200160002060008282546112379190612586565b9250508190555060026103e83461124e91906125dc565b611258919061260d565b600360008282546112699190612586565b925050819055503373ffffffffffffffffffffffffffffffffffffffff167f02d08db2db312fc60b41a046c46a7772a6c2dcdca0c32a9d3423c6dcbde693e98334476040516112ba939291906124d2565b60405180910390a25050565b6113056040518060400160405280600c81526020017f6d73672e73656e6465723a20000000000000000000000000000000000000000081525033611da3565b600073ffffffffffffffffffffffffffffffffffffffff16600160009054906101000a900473ffffffffffffffffffffffffffffffffffffffff1673ffffffffffffffffffffffffffffffffffffffff1614156040518060400160405280600681526020017f3030333030320000000000000000000000000000000000000000000000000000815250906113cf576040517f08c379a00000000000000000000000000000000000000000000000000000000081526004016113c691906123cc565b60405180910390fd5b50600160009054906101000a900473ffffffffffffffffffffffffffffffffffffffff1673ffffffffffffffffffffffffffffffffffffffff1663095ea7b330836040518363ffffffff1660e01b815260040161142d92919061234a565b600060405180830381600087803b15801561144757600080fd5b505af115801561145b573d6000803e3d6000fd5b5050505050565b60046020528060005260406000206000915090505481565b6114cc6040518060400160405280601081526020017f70726963655b5f746f6b656e49645d20000000000000000000000000000000008152506002600085815260200190815260200160002054611e3f565b60026000838152602001908152602001600020543414611521576040517f08c379a00000000000000000000000000000000000000000000000000000000081526004016115189061246e565b60405180910390fd5b600073ffffffffffffffffffffffffffffffffffffffff163373ffffffffffffffffffffffffffffffffffffffff161415801561158a57503073ffffffffffffffffffffffffffffffffffffffff163373ffffffffffffffffffffffffffffffffffffffff1614155b61159357600080fd5b34600360008282546115a59190612586565b92505081905550600160009054906101000a900473ffffffffffffffffffffffffffffffffffffffff1673ffffffffffffffffffffffffffffffffffffffff1663d3fc98648484846040518463ffffffff1660e01b815260040161160b93929190612373565b600060405180830381600087803b15801561162557600080fd5b505af1158015611639573d6000803e3d6000fd5b5050505061167c6040518060400160405280600a81526020017f6d73672e76616c7565200000000000000000000000000000000000000000000081525034611e3f565b8273ffffffffffffffffffffffffffffffffffffffff167f02d08db2db312fc60b41a046c46a7772a6c2dcdca0c32a9d3423c6dcbde693e98334476040516116c6939291906124d2565b60405180910390a2505050565b6000811180156117225750600460003373ffffffffffffffffffffffffffffffffffffffff1673ffffffffffffffffffffffffffffffffffffffff168152602001908152602001600020548111155b61172b57600080fd5b3373ffffffffffffffffffffffffffffffffffffffff166108fc829081150290604051600060405180830381858888f19350505050158015611771573d6000803e3d6000fd5b503373ffffffffffffffffffffffffffffffffffffffff167f6356739d963da01dc3533acba7203430fcc14f2175d48a8dd0973d7db49c785e82600460003373ffffffffffffffffffffffffffffffffffffffff1673ffffffffffffffffffffffffffffffffffffffff168152602001908152602001600020546040516117f99291906124a9565b60405180910390a280600460003373ffffffffffffffffffffffffffffffffffffffff1673ffffffffffffffffffffffffffffffffffffffff16815260200190815260200160002060008282546118509190612667565b9250508190555050565b60008054906101000a900473ffffffffffffffffffffffffffffffffffffffff1673ffffffffffffffffffffffffffffffffffffffff163373ffffffffffffffffffffffffffffffffffffffff16146118e8576040517f08c379a00000000000000000000000000000000000000000000000000000000081526004016118df9061244e565b60405180910390fd5b7f2d5a82cbc34270500c60b0532ca36cd4716c295bf0351b25835351664a3125bf60008054906101000a900473ffffffffffffffffffffffffffffffffffffffff16604051611937919061231c565b60405180910390a1600073ffffffffffffffffffffffffffffffffffffffff168173ffffffffffffffffffffffffffffffffffffffff1614156040518060400160405280600681526020017f3031383030320000000000000000000000000000000000000000000000000000815250906119e7576040517f08c379a00000000000000000000000000000000000000000000000000000000081526004016119de91906123cc565b60405180910390fd5b508073ffffffffffffffffffffffffffffffffffffffff1660008054906101000a900473ffffffffffffffffffffffffffffffffffffffff1673ffffffffffffffffffffffffffffffffffffffff167f8be0079c531659141344cd1fd0a4f28419497f9722a3daafe3b4186f6b6457e060405160405180910390a3806000806101000a81548173ffffffffffffffffffffffffffffffffffffffff021916908373ffffffffffffffffffffffffffffffffffffffff16021790555050565b6040518060400160405280600681526020017f303138303031000000000000000000000000000000000000000000000000000081525081565b6509184e72a0008211611af057600080fd5b611b516040518060400160405280601781526020017f61646472657373284e4d5744636f6e7472616374293a20000000000000000000815250600160009054906101000a900473ffffffffffffffffffffffffffffffffffffffff16611da3565b611bb06040518060400160405280600781526020017f6f776e65723a200000000000000000000000000000000000000000000000000081525060008054906101000a900473ffffffffffffffffffffffffffffffffffffffff16611da3565b611bef6040518060400160405280600c81526020017f6d73672e73656e6465723a20000000000000000000000000000000000000000081525033611da3565b600160009054906101000a900473ffffffffffffffffffffffffffffffffffffffff1673ffffffffffffffffffffffffffffffffffffffff16636352211e826040518263ffffffff1660e01b8152600401611c4a919061248e565b60206040518083038186803b158015611c6257600080fd5b505afa925050508015611c9357506040513d601f19601f82011682018060405250810190611c909190611fe9565b60015b611d4d57611c9f6127f4565b80611caa5750611d3e565b3373ffffffffffffffffffffffffffffffffffffffff1660008054906101000a900473ffffffffffffffffffffffffffffffffffffffff1673ffffffffffffffffffffffffffffffffffffffff1614611d38576040517f08c379a0000000000000000000000000000000000000000000000000000000008152600401611d2f9061244e565b60405180910390fd5b50611d48565b3d6000803e3d6000fd5b611d87565b3373ffffffffffffffffffffffffffffffffffffffff168173ffffffffffffffffffffffffffffffffffffffff1614611d8557600080fd5b505b8160026000838152602001908152602001600020819055505050565b611e3b8282604051602401611db99291906123ee565b6040516020818303038152906040527f319af333000000000000000000000000000000000000000000000000000000007bffffffffffffffffffffffffffffffffffffffffffffffffffffffff19166020820180517bffffffffffffffffffffffffffffffffffffffffffffffffffffffff8381831617835250505050611edb565b5050565b611ed78282604051602401611e5592919061241e565b6040516020818303038152906040527f9710a9d0000000000000000000000000000000000000000000000000000000007bffffffffffffffffffffffffffffffffffffffffffffffffffffffff19166020820180517bffffffffffffffffffffffffffffffffffffffffffffffffffffffff8381831617835250505050611edb565b5050565b60008151905060006a636f6e736f6c652e6c6f679050602083016000808483855afa5050505050565b6000611f17611f128461253a565b612509565b905082815260208101848484011115611f2f57600080fd5b611f3a848285612707565b509392505050565b600081359050611f51816128aa565b92915050565b600081519050611f66816128aa565b92915050565b600081519050611f7b816128c1565b92915050565b600082601f830112611f9257600080fd5b8135611fa2848260208601611f04565b91505092915050565b600081359050611fba816128d8565b92915050565b600060208284031215611fd257600080fd5b6000611fe084828501611f42565b91505092915050565b600060208284031215611ffb57600080fd5b600061200984828501611f57565b91505092915050565b6000806040838503121561202557600080fd5b600061203385828601611f42565b925050602061204485828601611fab565b9150509250929050565b60008060006060848603121561206357600080fd5b600061207186828701611f42565b935050602061208286828701611fab565b925050604084013567ffffffffffffffff81111561209f57600080fd5b6120ab86828701611f81565b9150509250925092565b6000602082840312156120c757600080fd5b60006120d584828501611f6c565b91505092915050565b6000602082840312156120f057600080fd5b60006120fe84828501611fab565b91505092915050565b6000806040838503121561211a57600080fd5b600061212885828601611fab565b925050602061213985828601611fab565b9150509250929050565b61214c8161269b565b82525050565b61215b816126ad565b82525050565b61216a816126e3565b82525050565b600061217b8261256a565b6121858185612575565b9350612195818560208601612716565b61219e816127d6565b840191505092915050565b60006121b6600983612575565b91507f4e6f74206f776e657200000000000000000000000000000000000000000000006000830152602082019050919050565b60006121f6601c83612575565b91507f706173736564206f776e65727368697020726571756972656d656e74000000006000830152602082019050919050565b6000612236601083612575565b91507f4e6f7420656e6f756768204568746572000000000000000000000000000000006000830152602082019050919050565b612272816126d9565b82525050565b600060208201905061228d6000830184612143565b92915050565b60006040820190506122a86000830185612143565b6122b56020830184612143565b9392505050565b60006060820190506122d16000830186612143565b6122de6020830185612143565b6122eb6040830184612269565b949350505050565b60006040820190506123086000830185612143565b6123156020830184612152565b9392505050565b60006040820190506123316000830184612143565b8181036020830152612342816121e9565b905092915050565b600060408201905061235f6000830185612143565b61236c6020830184612269565b9392505050565b60006060820190506123886000830186612143565b6123956020830185612269565b81810360408301526123a78184612170565b9050949350505050565b60006020820190506123c66000830184612161565b92915050565b600060208201905081810360008301526123e68184612170565b905092915050565b600060408201905081810360008301526124088185612170565b90506124176020830184612143565b9392505050565b600060408201905081810360008301526124388185612170565b90506124476020830184612269565b9392505050565b60006020820190508181036000830152612467816121a9565b9050919050565b6000602082019050818103600083015261248781612229565b9050919050565b60006020820190506124a36000830184612269565b92915050565b60006040820190506124be6000830185612269565b6124cb6020830184612269565b9392505050565b60006060820190506124e76000830186612269565b6124f46020830185612269565b6125016040830184612269565b949350505050565b6000604051905081810181811067ffffffffffffffff821117156125305761252f6127a7565b5b8060405250919050565b600067ffffffffffffffff821115612555576125546127a7565b5b601f19601f8301169050602081019050919050565b600081519050919050565b600082825260208201905092915050565b6000612591826126d9565b915061259c836126d9565b9250827fffffffffffffffffffffffffffffffffffffffffffffffffffffffffffffffff038211156125d1576125d0612749565b5b828201905092915050565b60006125e7826126d9565b91506125f2836126d9565b92508261260257612601612778565b5b828204905092915050565b6000612618826126d9565b9150612623836126d9565b9250817fffffffffffffffffffffffffffffffffffffffffffffffffffffffffffffffff048311821515161561265c5761265b612749565b5b828202905092915050565b6000612672826126d9565b915061267d836126d9565b9250828210156126905761268f612749565b5b828203905092915050565b60006126a6826126b9565b9050919050565b60008115159050919050565b600073ffffffffffffffffffffffffffffffffffffffff82169050919050565b6000819050919050565b60006126ee826126f5565b9050919050565b6000612700826126b9565b9050919050565b82818337600083830152505050565b60005b83811015612734578082015181840152602081019050612719565b83811115612743576000848401525b50505050565b7f4e487b7100000000000000000000000000000000000000000000000000000000600052601160045260246000fd5b7f4e487b7100000000000000000000000000000000000000000000000000000000600052601260045260246000fd5b7f4e487b7100000000000000000000000000000000000000000000000000000000600052604160045260246000fd5b6000601f19601f8301169050919050565b60008160e01c9050919050565b600060443d1015612804576128a7565b60046000803e6128156000516127e7565b6308c379a0811461282657506128a7565b60405160043d036004823e80513d602482011167ffffffffffffffff82111715612852575050506128a7565b808201805167ffffffffffffffff8111156128715750505050506128a7565b8060208301013d850181111561288c575050505050506128a7565b612895826127d6565b60208401016040528296505050505050505b90565b6128b38161269b565b81146128be57600080fd5b50565b6128ca816126ad565b81146128d557600080fd5b50565b6128e1816126d9565b81146128ec57600080fd5b5056fea264697066735822122079bdbe2179a5d6383d435ca671d71f3305345d620f769dc1ff9f07416baaa2f064736f6c63430008000033",
  "linkReferences": {},
  "deployedLinkReferences": {}
}