{
  "_format": "hh-sol-artifact-1",
  "contractName": "NMWDMarketPlace",
  "sourceName": "contracts/NMWD/NMWDMarketPlace.sol",
  "abi": [
    {
      "anonymous": false,
      "inputs": [
        {
          "indexed": true,
          "internalType": "address",
          "name": "payer",
          "type": "address"
        },
        {
          "indexed": false,
          "internalType": "uint256",
          "name": "tokenId",
          "type": "uint256"
        },
        {
          "indexed": false,
          "internalType": "uint256",
          "name": "amount",
          "type": "uint256"
        }
      ],
      "name": "NFTSent",
      "type": "event"
    },
    {
      "anonymous": false,
      "inputs": [
        {
          "indexed": true,
          "internalType": "address",
          "name": "previousOwner",
          "type": "address"
        },
        {
          "indexed": true,
          "internalType": "address",
          "name": "newOwner",
          "type": "address"
        }
      ],
      "name": "OwnershipTransferred",
      "type": "event"
    },
    {
      "anonymous": false,
      "inputs": [
        {
          "indexed": true,
          "internalType": "address",
          "name": "payee",
          "type": "address"
        },
        {
          "indexed": false,
          "internalType": "uint256",
          "name": "amount",
          "type": "uint256"
        }
      ],
      "name": "RoyaltyPaid",
      "type": "event"
    },
    {
      "anonymous": false,
      "inputs": [
        {
          "indexed": true,
          "internalType": "address",
          "name": "payee",
          "type": "address"
        },
        {
          "indexed": false,
          "internalType": "uint256",
          "name": "amount",
          "type": "uint256"
        }
      ],
      "name": "SecurityWithdrawal",
      "type": "event"
    },
    {
      "anonymous": false,
      "inputs": [
        {
          "indexed": true,
          "internalType": "address",
          "name": "payee",
          "type": "address"
        },
        {
          "indexed": false,
          "internalType": "uint256",
          "name": "amount",
          "type": "uint256"
        }
      ],
      "name": "Sent",
      "type": "event"
    },
    {
      "anonymous": false,
      "inputs": [
        {
          "indexed": false,
          "internalType": "address",
          "name": "deliveredTo",
          "type": "address"
        },
        {
          "indexed": false,
          "internalType": "string",
          "name": "msg",
          "type": "string"
        }
      ],
      "name": "_msg",
      "type": "event"
    },
    {
      "inputs": [],
      "name": "CANNOT_TRANSFER_TO_ZERO_ADDRESS",
      "outputs": [
        {
          "internalType": "string",
          "name": "",
          "type": "string"
        }
      ],
      "stateMutability": "view",
      "type": "function"
    },
    {
      "inputs": [],
      "name": "NOT_CURRENT_OWNER",
      "outputs": [
        {
          "internalType": "string",
          "name": "",
          "type": "string"
        }
      ],
      "stateMutability": "view",
      "type": "function"
    },
    {
      "inputs": [],
      "name": "TokenContract",
      "outputs": [
        {
          "internalType": "contract StopTheWarOnDrugs",
          "name": "",
          "type": "address"
        }
      ],
      "stateMutability": "view",
      "type": "function"
    },
    {
      "inputs": [],
      "name": "getBackOwnership",
      "outputs": [],
      "stateMutability": "nonpayable",
      "type": "function"
    },
    {
      "inputs": [
        {
          "internalType": "uint256",
          "name": "_tokenId",
          "type": "uint256"
        }
      ],
      "name": "getForSale",
      "outputs": [
        {
          "internalType": "bool",
          "name": "",
          "type": "bool"
        }
      ],
      "stateMutability": "view",
      "type": "function"
    },
    {
      "inputs": [],
      "name": "getMarketPlaceBalance",
      "outputs": [
        {
          "internalType": "uint256",
          "name": "",
          "type": "uint256"
        }
      ],
      "stateMutability": "view",
      "type": "function"
    },
    {
      "inputs": [
        {
          "internalType": "uint256",
          "name": "_tokenId",
          "type": "uint256"
        }
      ],
      "name": "getPrice",
      "outputs": [
        {
          "internalType": "uint256",
          "name": "",
          "type": "uint256"
        }
      ],
      "stateMutability": "view",
      "type": "function"
    },
    {
      "inputs": [],
      "name": "initialize",
      "outputs": [],
      "stateMutability": "nonpayable",
      "type": "function"
    },
    {
      "inputs": [
        {
          "internalType": "address",
          "name": "_to",
          "type": "address"
        },
        {
          "internalType": "uint256",
          "name": "_tokenId",
          "type": "uint256"
        },
        {
          "internalType": "address",
          "name": "royaltyRecipient",
          "type": "address"
        },
        {
          "internalType": "uint256",
          "name": "royaltyValue",
          "type": "uint256"
        }
      ],
      "name": "mintThroughPurchase",
      "outputs": [],
      "stateMutability": "payable",
      "type": "function"
    },
    {
      "inputs": [],
      "name": "owner",
      "outputs": [
        {
          "internalType": "address",
          "name": "",
          "type": "address"
        }
      ],
      "stateMutability": "view",
      "type": "function"
    },
    {
      "inputs": [
        {
          "internalType": "uint256",
          "name": "_tokenId",
          "type": "uint256"
        }
      ],
      "name": "purchaseToken",
      "outputs": [],
      "stateMutability": "payable",
      "type": "function"
    },
    {
      "inputs": [
        {
          "internalType": "uint256",
          "name": "_tokenId",
          "type": "uint256"
        },
        {
          "internalType": "bool",
          "name": "_forSale",
          "type": "bool"
        }
      ],
      "name": "setForSale",
      "outputs": [
        {
          "internalType": "bool",
          "name": "",
          "type": "bool"
        }
      ],
      "stateMutability": "nonpayable",
      "type": "function"
    },
    {
      "inputs": [
        {
          "internalType": "uint256",
          "name": "_price",
          "type": "uint256"
        },
        {
          "internalType": "uint256",
          "name": "_tokenId",
          "type": "uint256"
        }
      ],
      "name": "setPrice",
      "outputs": [],
      "stateMutability": "nonpayable",
      "type": "function"
    },
    {
      "inputs": [
        {
          "internalType": "address",
          "name": "_newOwner",
          "type": "address"
        }
      ],
      "name": "transferOwnership",
      "outputs": [],
      "stateMutability": "nonpayable",
      "type": "function"
    },
    {
      "inputs": [
        {
          "internalType": "address",
          "name": "nmwdAddress",
          "type": "address"
        }
      ],
      "name": "updateNMWDcontract",
      "outputs": [],
      "stateMutability": "nonpayable",
      "type": "function"
    },
    {
      "inputs": [
        {
          "internalType": "address",
          "name": "_payee",
          "type": "address"
        },
        {
          "internalType": "uint256",
          "name": "_amount",
          "type": "uint256"
        }
      ],
      "name": "withdrawFromContract",
      "outputs": [],
      "stateMutability": "nonpayable",
      "type": "function"
    }
  ],
  "bytecode": "0x608060405234801561001057600080fd5b50612b73806100206000396000f3fe6080604052600436106100f35760003560e01c8063b0e857ec1161008a578063f0a6c16b11610059578063f0a6c16b146102d6578063f2fde38b14610313578063f3fe3bc31461033c578063f7d9757714610367576100f3565b8063b0e857ec14610229578063b4c49d0914610252578063c2db2c421461027d578063e757223014610299576100f3565b8063837381fa116100c6578063837381fa1461017f578063860d248a146101a85780638da5cb5b146101d35780639688738b146101fe576100f3565b80632abacf8c146100f85780635c93bec7146101355780637194176a1461014c5780638129fc1c14610168575b600080fd5b34801561010457600080fd5b5061011f600480360381019061011a91906123a6565b610390565b60405161012c919061277c565b60405180910390f35b34801561014157600080fd5b5061014a6103ba565b005b6101666004803603810190610161919061231a565b610619565b005b34801561017457600080fd5b5061017d61084a565b005b34801561018b57600080fd5b506101a660048036038101906101a191906122a2565b61092e565b005b3480156101b457600080fd5b506101bd610d29565b6040516101ca91906127b2565b60405180910390f35b3480156101df57600080fd5b506101e8610d62565b6040516101f59190612660565b60405180910390f35b34801561020a57600080fd5b50610213610d86565b6040516102209190612797565b60405180910390f35b34801561023557600080fd5b50610250600480360381019061024b9190612250565b610dac565b005b34801561025e57600080fd5b50610267611080565b6040516102749190612834565b60405180910390f35b610297600480360381019061029291906123a6565b61108a565b005b3480156102a557600080fd5b506102c060048036038101906102bb91906123a6565b6119ae565b6040516102cd9190612834565b60405180910390f35b3480156102e257600080fd5b506102fd60048036038101906102f891906123cf565b6119cb565b60405161030a919061277c565b60405180910390f35b34801561031f57600080fd5b5061033a60048036038101906103359190612250565b611c03565b005b34801561034857600080fd5b50610351611e4e565b60405161035e91906127b2565b60405180910390f35b34801561037357600080fd5b5061038e6004803603810190610389919061240b565b611e87565b005b60006003600083815260200190815260200160002060009054906101000a900460ff169050919050565b60008054906101000a900473ffffffffffffffffffffffffffffffffffffffff1673ffffffffffffffffffffffffffffffffffffffff163373ffffffffffffffffffffffffffffffffffffffff1614610448576040517f08c379a000000000000000000000000000000000000000000000000000000000815260040161043f90612814565b60405180910390fd5b7f2d5a82cbc34270500c60b0532ca36cd4716c295bf0351b25835351664a3125bf60008054906101000a900473ffffffffffffffffffffffffffffffffffffffff166040516104979190612709565b60405180910390a1600073ffffffffffffffffffffffffffffffffffffffff16600160009054906101000a900473ffffffffffffffffffffffffffffffffffffffff1673ffffffffffffffffffffffffffffffffffffffff1614156040518060400160405280600481526020017f303530320000000000000000000000000000000000000000000000000000000081525090610569576040517f08c379a000000000000000000000000000000000000000000000000000000000815260040161056091906127b2565b60405180910390fd5b50600160009054906101000a900473ffffffffffffffffffffffffffffffffffffffff1673ffffffffffffffffffffffffffffffffffffffff1663f2fde38b60008054906101000a900473ffffffffffffffffffffffffffffffffffffffff166040518263ffffffff1660e01b81526004016105e59190612660565b600060405180830381600087803b1580156105ff57600080fd5b505af1158015610613573d6000803e3d6000fd5b50505050565b600060026000858152602001908152602001600020541161063957600080fd5b60026000848152602001908152602001600020543410156040518060400160405280600481526020017f3035303600000000000000000000000000000000000000000000000000000000815250906106c7576040517f08c379a00000000000000000000000000000000000000000000000000000000081526004016106be91906127b2565b60405180910390fd5b50600073ffffffffffffffffffffffffffffffffffffffff166106e8612131565b73ffffffffffffffffffffffffffffffffffffffff161415801561073f57503073ffffffffffffffffffffffffffffffffffffffff16610726612131565b73ffffffffffffffffffffffffffffffffffffffff1614155b61074857600080fd5b346004600082825461075a919061289f565b92505081905550600160009054906101000a900473ffffffffffffffffffffffffffffffffffffffff1673ffffffffffffffffffffffffffffffffffffffff16633c173a4f858585856040518563ffffffff1660e01b81526004016107c29493929190612737565b600060405180830381600087803b1580156107dc57600080fd5b505af11580156107f0573d6000803e3d6000fd5b505050508373ffffffffffffffffffffffffffffffffffffffff167fdbc09166e717a324fd239bd32af51e47b8348709b352f3223238c4de82ebaa76843460405161083c92919061284f565b60405180910390a250505050565b600060159054906101000a900460ff16806108725750600060149054906101000a900460ff16155b6108b1576040517f08c379a00000000000000000000000000000000000000000000000000000000081526004016108a8906127f4565b60405180910390fd5b60008060159054906101000a900460ff161590508015610902576001600060156101000a81548160ff0219169083151502179055506001600060146101000a81548160ff0219169083151502179055505b61090a612139565b801561092b5760008060156101000a81548160ff0219169083151502179055505b50565b60008054906101000a900473ffffffffffffffffffffffffffffffffffffffff1673ffffffffffffffffffffffffffffffffffffffff163373ffffffffffffffffffffffffffffffffffffffff16146109bc576040517f08c379a00000000000000000000000000000000000000000000000000000000081526004016109b390612814565b60405180910390fd5b7f2d5a82cbc34270500c60b0532ca36cd4716c295bf0351b25835351664a3125bf60008054906101000a900473ffffffffffffffffffffffffffffffffffffffff16604051610a0b9190612709565b60405180910390a1600073ffffffffffffffffffffffffffffffffffffffff168273ffffffffffffffffffffffffffffffffffffffff1614158015610a7c57503073ffffffffffffffffffffffffffffffffffffffff168273ffffffffffffffffffffffffffffffffffffffff1614155b610a8557600080fd5b8060045410156040518060400160405280600481526020017f303531300000000000000000000000000000000000000000000000000000000081525090610b02576040517f08c379a0000000000000000000000000000000000000000000000000000000008152600401610af991906127b2565b60405180910390fd5b50600081118015610b135750478111155b6040518060400160405280600481526020017f303530360000000000000000000000000000000000000000000000000000000081525090610b8a576040517f08c379a0000000000000000000000000000000000000000000000000000000008152600401610b8191906127b2565b60405180910390fd5b504760045414610c7657600060048190555060008054906101000a900473ffffffffffffffffffffffffffffffffffffffff1673ffffffffffffffffffffffffffffffffffffffff166108fc479081150290604051600060405180830381858888f19350505050158015610c02573d6000803e3d6000fd5b5060008054906101000a900473ffffffffffffffffffffffffffffffffffffffff1673ffffffffffffffffffffffffffffffffffffffff167f6dfc6e5b54e9b8b518c0d73fe237bd1a47d57856827cbf13853bee71425c6a9082604051610c699190612834565b60405180910390a2610d25565b8060046000828254610c889190612980565b925050819055508173ffffffffffffffffffffffffffffffffffffffff166108fc829081150290604051600060405180830381858888f19350505050158015610cd5573d6000803e3d6000fd5b508173ffffffffffffffffffffffffffffffffffffffff167f510ffb4dcab972ae9d2007a58e13f1b0881776d23cd8f5cc32f8c5be2dbf70d282604051610d1c9190612834565b60405180910390a25b5050565b6040518060400160405280600481526020017f303130320000000000000000000000000000000000000000000000000000000081525081565b60008054906101000a900473ffffffffffffffffffffffffffffffffffffffff1681565b600160009054906101000a900473ffffffffffffffffffffffffffffffffffffffff1681565b60008054906101000a900473ffffffffffffffffffffffffffffffffffffffff1673ffffffffffffffffffffffffffffffffffffffff163373ffffffffffffffffffffffffffffffffffffffff1614610e3a576040517f08c379a0000000000000000000000000000000000000000000000000000000008152600401610e3190612814565b60405180910390fd5b7f2d5a82cbc34270500c60b0532ca36cd4716c295bf0351b25835351664a3125bf60008054906101000a900473ffffffffffffffffffffffffffffffffffffffff16604051610e899190612709565b60405180910390a1600073ffffffffffffffffffffffffffffffffffffffff168173ffffffffffffffffffffffffffffffffffffffff1614158015610efa57503073ffffffffffffffffffffffffffffffffffffffff168173ffffffffffffffffffffffffffffffffffffffff1614155b6040518060400160405280600481526020017f303530310000000000000000000000000000000000000000000000000000000081525090610f71576040517f08c379a0000000000000000000000000000000000000000000000000000000008152600401610f6891906127b2565b60405180910390fd5b508073ffffffffffffffffffffffffffffffffffffffff16600160009054906101000a900473ffffffffffffffffffffffffffffffffffffffff1673ffffffffffffffffffffffffffffffffffffffff1614156040518060400160405280600481526020017f30353038000000000000000000000000000000000000000000000000000000008152509061103b576040517f08c379a000000000000000000000000000000000000000000000000000000000815260040161103291906127b2565b60405180910390fd5b5080600160006101000a81548173ffffffffffffffffffffffffffffffffffffffff021916908373ffffffffffffffffffffffffffffffffffffffff16021790555050565b6000600454905090565b6003600082815260200190815260200160002060009054906101000a900460ff166040518060400160405280600481526020017f303530350000000000000000000000000000000000000000000000000000000081525090611122576040517f08c379a000000000000000000000000000000000000000000000000000000000815260040161111991906127b2565b60405180910390fd5b50600073ffffffffffffffffffffffffffffffffffffffff16611143612131565b73ffffffffffffffffffffffffffffffffffffffff161415801561119a57503073ffffffffffffffffffffffffffffffffffffffff16611181612131565b73ffffffffffffffffffffffffffffffffffffffff1614155b6111a357600080fd5b60006002600083815260200190815260200160002054116111c357600080fd5b60026000828152602001908152602001600020543410156111e357600080fd5b600073ffffffffffffffffffffffffffffffffffffffff16600160009054906101000a900473ffffffffffffffffffffffffffffffffffffffff1673ffffffffffffffffffffffffffffffffffffffff16636352211e836040518263ffffffff1660e01b81526004016112569190612834565b60206040518083038186803b15801561126e57600080fd5b505afa158015611282573d6000803e3d6000fd5b505050506040513d601f19601f820116820180604052508101906112a69190612279565b73ffffffffffffffffffffffffffffffffffffffff1614156040518060400160405280600481526020017f303530340000000000000000000000000000000000000000000000000000000081525090611335576040517f08c379a000000000000000000000000000000000000000000000000000000000815260040161132c91906127b2565b60405180910390fd5b506000600160009054906101000a900473ffffffffffffffffffffffffffffffffffffffff1673ffffffffffffffffffffffffffffffffffffffff16636352211e836040518263ffffffff1660e01b81526004016113939190612834565b60206040518083038186803b1580156113ab57600080fd5b505afa1580156113bf573d6000803e3d6000fd5b505050506040513d601f19601f820116820180604052508101906113e39190612279565b90503073ffffffffffffffffffffffffffffffffffffffff16600160009054906101000a900473ffffffffffffffffffffffffffffffffffffffff1673ffffffffffffffffffffffffffffffffffffffff1663081812fc846040518263ffffffff1660e01b81526004016114579190612834565b60206040518083038186803b15801561146f57600080fd5b505afa158015611483573d6000803e3d6000fd5b505050506040513d601f19601f820116820180604052508101906114a79190612279565b73ffffffffffffffffffffffffffffffffffffffff1614806115725750600160009054906101000a900473ffffffffffffffffffffffffffffffffffffffff1673ffffffffffffffffffffffffffffffffffffffff1663e985e9c582306040518363ffffffff1660e01b815260040161152192919061267b565b60206040518083038186803b15801561153957600080fd5b505afa15801561154d573d6000803e3d6000fd5b505050506040513d601f19601f82011682018060405250810190611571919061237d565b5b6040518060400160405280600481526020017f3035303300000000000000000000000000000000000000000000000000000000815250906115e9576040517f08c379a00000000000000000000000000000000000000000000000000000000081526004016115e091906127b2565b60405180910390fd5b5060006003600084815260200190815260200160002060006101000a81548160ff021916908315150217905550600160009054906101000a900473ffffffffffffffffffffffffffffffffffffffff1673ffffffffffffffffffffffffffffffffffffffff166342842e0e8261165d612131565b856040518463ffffffff1660e01b815260040161167c939291906126a4565b600060405180830381600087803b15801561169657600080fd5b505af11580156116aa573d6000803e3d6000fd5b50505050600060086103e8346116c091906128f5565b6116ca9190612926565b905080600460008282546116de919061289f565b92505081905550600081346116f39190612980565b9050600080600160009054906101000a900473ffffffffffffffffffffffffffffffffffffffff1673ffffffffffffffffffffffffffffffffffffffff16632a55205a87856040518363ffffffff1660e01b815260040161175592919061284f565b604080518083038186803b15801561176c57600080fd5b505afa158015611780573d6000803e3d6000fd5b505050506040513d601f19601f820116820180604052508101906117a491906122de565b91509150600081846117b69190612980565b90508573ffffffffffffffffffffffffffffffffffffffff166108fc829081150290604051600060405180830381858888f193505050501580156117fe573d6000803e3d6000fd5b5060008373ffffffffffffffffffffffffffffffffffffffff1683620186a09060405161182a9061264b565b600060405180830381858888f193505050503d8060008114611868576040519150601f19603f3d011682016040523d82523d6000602084013e61186d565b606091505b50509050806118b1576040517f08c379a00000000000000000000000000000000000000000000000000000000081526004016118a8906127d4565b60405180910390fd5b8673ffffffffffffffffffffffffffffffffffffffff167f510ffb4dcab972ae9d2007a58e13f1b0881776d23cd8f5cc32f8c5be2dbf70d2836040516118f79190612834565b60405180910390a28373ffffffffffffffffffffffffffffffffffffffff167fbc86de696edc3350c664d50abf25f24e7e1251f1469ad925b25fe36927270d43846040516119459190612834565b60405180910390a2611955612131565b73ffffffffffffffffffffffffffffffffffffffff167fdbc09166e717a324fd239bd32af51e47b8348709b352f3223238c4de82ebaa76893460405161199c92919061284f565b60405180910390a25050505050505050565b600060026000838152602001908152602001600020549050919050565b6000600160009054906101000a900473ffffffffffffffffffffffffffffffffffffffff1673ffffffffffffffffffffffffffffffffffffffff16636352211e846040518263ffffffff1660e01b8152600401611a289190612834565b60206040518083038186803b158015611a4057600080fd5b505afa925050508015611a7157506040513d601f19601f82011682018060405250810190611a6e9190612279565b60015b611a7e5760009050611bfd565b611a86612131565b73ffffffffffffffffffffffffffffffffffffffff168173ffffffffffffffffffffffffffffffffffffffff16146040518060400160405280600481526020017f303530390000000000000000000000000000000000000000000000000000000081525090611b2b576040517f08c379a0000000000000000000000000000000000000000000000000000000008152600401611b2291906127b2565b60405180910390fd5b50506003600084815260200190815260200160002060009054906101000a900460ff16151582151514156040518060400160405280600481526020017f303530380000000000000000000000000000000000000000000000000000000081525090611bcc576040517f08c379a0000000000000000000000000000000000000000000000000000000008152600401611bc391906127b2565b60405180910390fd5b50816003600085815260200190815260200160002060006101000a81548160ff021916908315150217905550600190505b92915050565b60008054906101000a900473ffffffffffffffffffffffffffffffffffffffff1673ffffffffffffffffffffffffffffffffffffffff163373ffffffffffffffffffffffffffffffffffffffff1614611c91576040517f08c379a0000000000000000000000000000000000000000000000000000000008152600401611c8890612814565b60405180910390fd5b7f2d5a82cbc34270500c60b0532ca36cd4716c295bf0351b25835351664a3125bf60008054906101000a900473ffffffffffffffffffffffffffffffffffffffff16604051611ce09190612709565b60405180910390a1600073ffffffffffffffffffffffffffffffffffffffff168173ffffffffffffffffffffffffffffffffffffffff1614156040518060400160405280600481526020017f303130320000000000000000000000000000000000000000000000000000000081525090611d90576040517f08c379a0000000000000000000000000000000000000000000000000000000008152600401611d8791906127b2565b60405180910390fd5b508073ffffffffffffffffffffffffffffffffffffffff1660008054906101000a900473ffffffffffffffffffffffffffffffffffffffff1673ffffffffffffffffffffffffffffffffffffffff167f8be0079c531659141344cd1fd0a4f28419497f9722a3daafe3b4186f6b6457e060405160405180910390a3806000806101000a81548173ffffffffffffffffffffffffffffffffffffffff021916908373ffffffffffffffffffffffffffffffffffffffff16021790555050565b6040518060400160405280600481526020017f303130310000000000000000000000000000000000000000000000000000000081525081565b600082116040518060400160405280600481526020017f303530370000000000000000000000000000000000000000000000000000000081525090611f02576040517f08c379a0000000000000000000000000000000000000000000000000000000008152600401611ef991906127b2565b60405180910390fd5b5060026000828152602001908152602001600020548214156040518060400160405280600481526020017f303530380000000000000000000000000000000000000000000000000000000081525090611f91576040517f08c379a0000000000000000000000000000000000000000000000000000000008152600401611f8891906127b2565b60405180910390fd5b50600160009054906101000a900473ffffffffffffffffffffffffffffffffffffffff1673ffffffffffffffffffffffffffffffffffffffff16636352211e826040518263ffffffff1660e01b8152600401611fed9190612834565b60206040518083038186803b15801561200557600080fd5b505afa92505050801561203657506040513d601f19601f820116820180604052508101906120339190612279565b60015b6120d457612042612131565b73ffffffffffffffffffffffffffffffffffffffff1660008054906101000a900473ffffffffffffffffffffffffffffffffffffffff1673ffffffffffffffffffffffffffffffffffffffff16146120cf576040517f08c379a00000000000000000000000000000000000000000000000000000000081526004016120c690612814565b60405180910390fd5b612115565b6120dc612131565b73ffffffffffffffffffffffffffffffffffffffff168173ffffffffffffffffffffffffffffffffffffffff161461211357600080fd5b505b8160026000838152602001908152602001600020819055505050565b600033905090565b336000806101000a81548173ffffffffffffffffffffffffffffffffffffffff021916908373ffffffffffffffffffffffffffffffffffffffff1602179055507f2d5a82cbc34270500c60b0532ca36cd4716c295bf0351b25835351664a3125bf60008054906101000a900473ffffffffffffffffffffffffffffffffffffffff166040516121c891906126db565b60405180910390a1565b6000813590506121e181612af8565b92915050565b6000815190506121f681612af8565b92915050565b60008135905061220b81612b0f565b92915050565b60008151905061222081612b0f565b92915050565b60008135905061223581612b26565b92915050565b60008151905061224a81612b26565b92915050565b60006020828403121561226257600080fd5b6000612270848285016121d2565b91505092915050565b60006020828403121561228b57600080fd5b6000612299848285016121e7565b91505092915050565b600080604083850312156122b557600080fd5b60006122c3858286016121d2565b92505060206122d485828601612226565b9150509250929050565b600080604083850312156122f157600080fd5b60006122ff858286016121e7565b92505060206123108582860161223b565b9150509250929050565b6000806000806080858703121561233057600080fd5b600061233e878288016121d2565b945050602061234f87828801612226565b9350506040612360878288016121d2565b925050606061237187828801612226565b91505092959194509250565b60006020828403121561238f57600080fd5b600061239d84828501612211565b91505092915050565b6000602082840312156123b857600080fd5b60006123c684828501612226565b91505092915050565b600080604083850312156123e257600080fd5b60006123f085828601612226565b9250506020612401858286016121fc565b9150509250929050565b6000806040838503121561241e57600080fd5b600061242c85828601612226565b925050602061243d85828601612226565b9150509250929050565b612450816129fc565b82525050565b61245f816129b4565b82525050565b61246e816129c6565b82525050565b61247d81612a0e565b82525050565b600061248e82612878565b612498818561288e565b93506124a8818560208601612a56565b6124b181612ae7565b840191505092915050565b60006124c960178361288e565b91507f506179696e6720526f79616c74696573206661696c65640000000000000000006000830152602082019050919050565b6000612509602e8361288e565b91507f496e697469616c697a61626c653a20636f6e747261637420697320616c72656160008301527f647920696e697469616c697a65640000000000000000000000000000000000006020830152604082019050919050565b600061256f60098361288e565b91507f736574206f776e657200000000000000000000000000000000000000000000006000830152602082019050919050565b60006125af60098361288e565b91507f4e6f74206f776e657200000000000000000000000000000000000000000000006000830152602082019050919050565b60006125ef600083612883565b9150600082019050919050565b6000612609601c8361288e565b91507f706173736564206f776e65727368697020726571756972656d656e74000000006000830152602082019050919050565b612645816129f2565b82525050565b6000612656826125e2565b9150819050919050565b60006020820190506126756000830184612456565b92915050565b60006040820190506126906000830185612456565b61269d6020830184612456565b9392505050565b60006060820190506126b96000830186612456565b6126c66020830185612447565b6126d3604083018461263c565b949350505050565b60006040820190506126f06000830184612456565b818103602083015261270181612562565b905092915050565b600060408201905061271e6000830184612456565b818103602083015261272f816125fc565b905092915050565b600060808201905061274c6000830187612456565b612759602083018661263c565b6127666040830185612456565b612773606083018461263c565b95945050505050565b60006020820190506127916000830184612465565b92915050565b60006020820190506127ac6000830184612474565b92915050565b600060208201905081810360008301526127cc8184612483565b905092915050565b600060208201905081810360008301526127ed816124bc565b9050919050565b6000602082019050818103600083015261280d816124fc565b9050919050565b6000602082019050818103600083015261282d816125a2565b9050919050565b6000602082019050612849600083018461263c565b92915050565b6000604082019050612864600083018561263c565b612871602083018461263c565b9392505050565b600081519050919050565b600081905092915050565b600082825260208201905092915050565b60006128aa826129f2565b91506128b5836129f2565b9250827fffffffffffffffffffffffffffffffffffffffffffffffffffffffffffffffff038211156128ea576128e9612a89565b5b828201905092915050565b6000612900826129f2565b915061290b836129f2565b92508261291b5761291a612ab8565b5b828204905092915050565b6000612931826129f2565b915061293c836129f2565b9250817fffffffffffffffffffffffffffffffffffffffffffffffffffffffffffffffff048311821515161561297557612974612a89565b5b828202905092915050565b600061298b826129f2565b9150612996836129f2565b9250828210156129a9576129a8612a89565b5b828203905092915050565b60006129bf826129d2565b9050919050565b60008115159050919050565b600073ffffffffffffffffffffffffffffffffffffffff82169050919050565b6000819050919050565b6000612a0782612a32565b9050919050565b6000612a1982612a20565b9050919050565b6000612a2b826129d2565b9050919050565b6000612a3d82612a44565b9050919050565b6000612a4f826129d2565b9050919050565b60005b83811015612a74578082015181840152602081019050612a59565b83811115612a83576000848401525b50505050565b7f4e487b7100000000000000000000000000000000000000000000000000000000600052601160045260246000fd5b7f4e487b7100000000000000000000000000000000000000000000000000000000600052601260045260246000fd5b6000601f19601f8301169050919050565b612b01816129b4565b8114612b0c57600080fd5b50565b612b18816129c6565b8114612b2357600080fd5b50565b612b2f816129f2565b8114612b3a57600080fd5b5056fea26469706673582212201e4a0f7d34fb0c5e4feab87cfe6f2cc9e25947177a9b0cd74aa5de22a7adfd4064736f6c63430008000033",
  "linkReferences": {},
  "deployedLinkReferences": {}
}