{
  "_format": "hh-sol-artifact-1",
  "contractName": "NoMoreWarOnDrugs",
  "sourceName": "contracts/NoMoreWarOnDrugs.sol",
  "abi": [
    {
      "inputs": [
        {
          "internalType": "string",
          "name": "_name",
          "type": "string"
        },
        {
          "internalType": "string",
          "name": "_symbol",
          "type": "string"
        }
      ],
      "stateMutability": "nonpayable",
      "type": "constructor"
    },
    {
      "anonymous": false,
      "inputs": [
        {
          "indexed": true,
          "internalType": "address",
          "name": "_owner",
          "type": "address"
        },
        {
          "indexed": true,
          "internalType": "address",
          "name": "_approved",
          "type": "address"
        },
        {
          "indexed": true,
          "internalType": "uint256",
          "name": "_tokenId",
          "type": "uint256"
        }
      ],
      "name": "Approval",
      "type": "event"
    },
    {
      "anonymous": false,
      "inputs": [
        {
          "indexed": true,
          "internalType": "address",
          "name": "_owner",
          "type": "address"
        },
        {
          "indexed": true,
          "internalType": "address",
          "name": "_operator",
          "type": "address"
        },
        {
          "indexed": false,
          "internalType": "bool",
          "name": "_approved",
          "type": "bool"
        }
      ],
      "name": "ApprovalForAll",
      "type": "event"
    },
    {
      "anonymous": false,
      "inputs": [
        {
          "indexed": true,
          "internalType": "address",
          "name": "_from",
          "type": "address"
        },
        {
          "indexed": true,
          "internalType": "address",
          "name": "_to",
          "type": "address"
        },
        {
          "indexed": true,
          "internalType": "uint256",
          "name": "_tokenId",
          "type": "uint256"
        }
      ],
      "name": "Transfer",
      "type": "event"
    },
    {
      "anonymous": false,
      "inputs": [
        {
          "indexed": false,
          "internalType": "address",
          "name": "deliveredTo",
          "type": "address"
        },
        {
          "indexed": false,
          "internalType": "string",
          "name": "msg",
          "type": "string"
        }
      ],
      "name": "_msg",
      "type": "event"
    },
    {
      "inputs": [
        {
          "internalType": "address",
          "name": "_to",
          "type": "address"
        },
        {
          "internalType": "uint256",
          "name": "_tokenId",
          "type": "uint256"
        }
      ],
      "name": "addNFToken",
      "outputs": [],
      "stateMutability": "nonpayable",
      "type": "function"
    },
    {
      "inputs": [
        {
          "internalType": "address",
          "name": "_approved",
          "type": "address"
        },
        {
          "internalType": "uint256",
          "name": "_tokenId",
          "type": "uint256"
        }
      ],
      "name": "approve",
      "outputs": [],
      "stateMutability": "nonpayable",
      "type": "function"
    },
    {
      "inputs": [
        {
          "internalType": "address",
          "name": "_owner",
          "type": "address"
        }
      ],
      "name": "balanceOf",
      "outputs": [
        {
          "internalType": "uint256",
          "name": "",
          "type": "uint256"
        }
      ],
      "stateMutability": "view",
      "type": "function"
    },
    {
      "inputs": [
        {
          "internalType": "uint256",
          "name": "_tokenId",
          "type": "uint256"
        }
      ],
      "name": "burn",
      "outputs": [],
      "stateMutability": "nonpayable",
      "type": "function"
    },
    {
      "inputs": [
        {
          "internalType": "uint256",
          "name": "_tokenId",
          "type": "uint256"
        }
      ],
      "name": "getApproved",
      "outputs": [
        {
          "internalType": "address",
          "name": "",
          "type": "address"
        }
      ],
      "stateMutability": "view",
      "type": "function"
    },
    {
      "inputs": [
        {
          "internalType": "address",
          "name": "_owner",
          "type": "address"
        }
      ],
      "name": "getOwnerNFTCount",
      "outputs": [
        {
          "internalType": "uint256",
          "name": "",
          "type": "uint256"
        }
      ],
      "stateMutability": "view",
      "type": "function"
    },
    {
      "inputs": [
        {
          "internalType": "address",
          "name": "_owner",
          "type": "address"
        },
        {
          "internalType": "address",
          "name": "_operator",
          "type": "address"
        }
      ],
      "name": "isApprovedForAll",
      "outputs": [
        {
          "internalType": "bool",
          "name": "",
          "type": "bool"
        }
      ],
      "stateMutability": "view",
      "type": "function"
    },
    {
      "inputs": [
        {
          "internalType": "address",
          "name": "_to",
          "type": "address"
        },
        {
          "internalType": "uint256",
          "name": "_tokenId",
          "type": "uint256"
        },
        {
          "internalType": "string",
          "name": "_uri",
          "type": "string"
        },
        {
          "internalType": "string",
          "name": "_alias",
          "type": "string"
        },
        {
          "internalType": "string",
          "name": "_msg",
          "type": "string"
        }
      ],
      "name": "mint",
      "outputs": [],
      "stateMutability": "nonpayable",
      "type": "function"
    },
    {
      "inputs": [],
      "name": "name",
      "outputs": [
        {
          "internalType": "string",
          "name": "_name",
          "type": "string"
        }
      ],
      "stateMutability": "view",
      "type": "function"
    },
    {
      "inputs": [],
      "name": "owner",
      "outputs": [
        {
          "internalType": "address",
          "name": "",
          "type": "address"
        }
      ],
      "stateMutability": "view",
      "type": "function"
    },
    {
      "inputs": [
        {
          "internalType": "uint256",
          "name": "_tokenId",
          "type": "uint256"
        }
      ],
      "name": "ownerOf",
      "outputs": [
        {
          "internalType": "address",
          "name": "_owner",
          "type": "address"
        }
      ],
      "stateMutability": "view",
      "type": "function"
    },
    {
      "inputs": [
        {
          "internalType": "address",
          "name": "_from",
          "type": "address"
        },
        {
          "internalType": "uint256",
          "name": "_tokenId",
          "type": "uint256"
        }
      ],
      "name": "removeNFToken",
      "outputs": [],
      "stateMutability": "nonpayable",
      "type": "function"
    },
    {
      "inputs": [
        {
          "internalType": "address",
          "name": "_from",
          "type": "address"
        },
        {
          "internalType": "address",
          "name": "_to",
          "type": "address"
        },
        {
          "internalType": "uint256",
          "name": "_tokenId",
          "type": "uint256"
        }
      ],
      "name": "safeTransferFrom",
      "outputs": [],
      "stateMutability": "nonpayable",
      "type": "function"
    },
    {
      "inputs": [
        {
          "internalType": "address",
          "name": "_from",
          "type": "address"
        },
        {
          "internalType": "address",
          "name": "_to",
          "type": "address"
        },
        {
          "internalType": "uint256",
          "name": "_tokenId",
          "type": "uint256"
        },
        {
          "internalType": "bytes",
          "name": "_data",
          "type": "bytes"
        }
      ],
      "name": "safeTransferFrom",
      "outputs": [],
      "stateMutability": "nonpayable",
      "type": "function"
    },
    {
      "inputs": [
        {
          "internalType": "address",
          "name": "_operator",
          "type": "address"
        },
        {
          "internalType": "bool",
          "name": "_approved",
          "type": "bool"
        }
      ],
      "name": "setApprovalForAll",
      "outputs": [],
      "stateMutability": "nonpayable",
      "type": "function"
    },
    {
      "inputs": [
        {
          "internalType": "bytes4",
          "name": "_interfaceID",
          "type": "bytes4"
        }
      ],
      "name": "supportsInterface",
      "outputs": [
        {
          "internalType": "bool",
          "name": "",
          "type": "bool"
        }
      ],
      "stateMutability": "view",
      "type": "function"
    },
    {
      "inputs": [],
      "name": "symbol",
      "outputs": [
        {
          "internalType": "string",
          "name": "_symbol",
          "type": "string"
        }
      ],
      "stateMutability": "view",
      "type": "function"
    },
    {
      "inputs": [
        {
          "internalType": "uint256",
          "name": "_index",
          "type": "uint256"
        }
      ],
      "name": "tokenByIndex",
      "outputs": [
        {
          "internalType": "uint256",
          "name": "",
          "type": "uint256"
        }
      ],
      "stateMutability": "view",
      "type": "function"
    },
    {
      "inputs": [
        {
          "internalType": "uint256",
          "name": "_tokenId",
          "type": "uint256"
        }
      ],
      "name": "tokenMessage",
      "outputs": [
        {
          "internalType": "string",
          "name": "",
          "type": "string"
        }
      ],
      "stateMutability": "view",
      "type": "function"
    },
    {
      "inputs": [
        {
          "internalType": "address",
          "name": "_owner",
          "type": "address"
        },
        {
          "internalType": "uint256",
          "name": "_index",
          "type": "uint256"
        }
      ],
      "name": "tokenOfOwnerByIndex",
      "outputs": [
        {
          "internalType": "uint256",
          "name": "",
          "type": "uint256"
        }
      ],
      "stateMutability": "view",
      "type": "function"
    },
    {
      "inputs": [
        {
          "internalType": "uint256",
          "name": "_tokenId",
          "type": "uint256"
        }
      ],
      "name": "tokenOwnerAlias",
      "outputs": [
        {
          "internalType": "string",
          "name": "",
          "type": "string"
        }
      ],
      "stateMutability": "view",
      "type": "function"
    },
    {
      "inputs": [
        {
          "internalType": "uint256",
          "name": "_tokenId",
          "type": "uint256"
        }
      ],
      "name": "tokenURI",
      "outputs": [
        {
          "internalType": "string",
          "name": "",
          "type": "string"
        }
      ],
      "stateMutability": "view",
      "type": "function"
    },
    {
      "inputs": [],
      "name": "totalSupply",
      "outputs": [
        {
          "internalType": "uint256",
          "name": "",
          "type": "uint256"
        }
      ],
      "stateMutability": "view",
      "type": "function"
    },
    {
      "inputs": [
        {
          "internalType": "address",
          "name": "_from",
          "type": "address"
        },
        {
          "internalType": "address",
          "name": "_to",
          "type": "address"
        },
        {
          "internalType": "uint256",
          "name": "_tokenId",
          "type": "uint256"
        }
      ],
      "name": "transferFrom",
      "outputs": [],
      "stateMutability": "nonpayable",
      "type": "function"
    }
  ],
  "bytecode": "0x60806040523480156200001157600080fd5b506040516200424338038062004243833981810160405281019062000037919062000385565b60016000806301ffc9a760e01b7bffffffffffffffffffffffffffffffffffffffffffffffffffffffff1916815260200190815260200160002060006101000a81548160ff02191690831515021790555060016000806380ac58cd60e01b7bffffffffffffffffffffffffffffffffffffffffffffffffffffffff1916815260200190815260200160002060006101000a81548160ff021916908315150217905550600160008063780e9d6360e01b7bffffffffffffffffffffffffffffffffffffffffffffffffffffffff1916815260200190815260200160002060006101000a81548160ff0219169083151502179055506001600080635b5e139f60e01b7bffffffffffffffffffffffffffffffffffffffffffffffffffffffff1916815260200190815260200160002060006101000a81548160ff0219169083151502179055506200018b620001c560201b60201c565b8160099080519060200190620001a392919062000263565b5080600a9080519060200190620001bc92919062000263565b505050620005f3565b33600c60006101000a81548173ffffffffffffffffffffffffffffffffffffffff021916908373ffffffffffffffffffffffffffffffffffffffff1602179055507f2d5a82cbc34270500c60b0532ca36cd4716c295bf0351b25835351664a3125bf600c60009054906101000a900473ffffffffffffffffffffffffffffffffffffffff166040516200025991906200044b565b60405180910390a1565b82805462000271906200055f565b90600052602060002090601f016020900481019282620002955760008555620002e1565b82601f10620002b057805160ff1916838001178555620002e1565b82800160010185558215620002e1579182015b82811115620002e0578251825591602001919060010190620002c3565b5b509050620002f09190620002f4565b5090565b5b808211156200030f576000816000905550600101620002f5565b5090565b60006200032a6200032484620004b1565b6200047d565b9050828152602081018484840111156200034357600080fd5b6200035084828562000529565b509392505050565b600082601f8301126200036a57600080fd5b81516200037c84826020860162000313565b91505092915050565b600080604083850312156200039957600080fd5b600083015167ffffffffffffffff811115620003b457600080fd5b620003c28582860162000358565b925050602083015167ffffffffffffffff811115620003e057600080fd5b620003ee8582860162000358565b9150509250929050565b6200040381620004f5565b82525050565b600062000418600983620004e4565b91507f736574206f776e657200000000000000000000000000000000000000000000006000830152602082019050919050565b6000604082019050620004626000830184620003f8565b8181036020830152620004758162000409565b905092915050565b6000604051905081810181811067ffffffffffffffff82111715620004a757620004a6620005c4565b5b8060405250919050565b600067ffffffffffffffff821115620004cf57620004ce620005c4565b5b601f19601f8301169050602081019050919050565b600082825260208201905092915050565b6000620005028262000509565b9050919050565b600073ffffffffffffffffffffffffffffffffffffffff82169050919050565b60005b83811015620005495780820151818401526020810190506200052c565b8381111562000559576000848401525b50505050565b600060028204905060018216806200057857607f821691505b602082108114156200058f576200058e62000595565b5b50919050565b7f4e487b7100000000000000000000000000000000000000000000000000000000600052602260045260246000fd5b7f4e487b7100000000000000000000000000000000000000000000000000000000600052604160045260246000fd5b613c4080620006036000396000f3fe608060405234801561001057600080fd5b50600436106101585760003560e01c80638423ce61116100c3578063b35cc1861161007c578063b35cc186146103e9578063b88d4fde14610405578063bd7f4c8d14610421578063c87b56dd14610451578063e4b7baeb14610481578063e985e9c5146104b157610158565b80638423ce61146103295780638da5cb5b146103595780638f8470761461037757806395d89b41146103935780639c01e1f5146103b1578063a22cb465146103cd57610158565b80632f745c59116101155780632f745c591461023157806342842e0e1461026157806342966c681461027d5780634f6ccce7146102995780636352211e146102c957806370a08231146102f957610158565b806301ffc9a71461015d57806306fdde031461018d578063081812fc146101ab578063095ea7b3146101db57806318160ddd146101f757806323b872dd14610215575b600080fd5b61017760048036038101906101729190613673565b6104e1565b60405161018491906138a2565b60405180910390f35b610195610548565b6040516101a291906138bd565b60405180910390f35b6101c560048036038101906101c091906136c5565b6105da565b6040516101d2919061380d565b60405180910390f35b6101f560048036038101906101f09190613578565b6106f5565b005b6101ff610adf565b60405161020c91906138ff565b60405180910390f35b61022f600480360381019061022a919061346d565b610aec565b005b61024b60048036038101906102469190613578565b610f4c565b60405161025891906138ff565b60405180910390f35b61027b6004803603810190610276919061346d565b611095565b005b610297600480360381019061029291906136c5565b6110b5565b005b6102b360048036038101906102ae91906136c5565b6111aa565b6040516102c091906138ff565b60405180910390f35b6102e360048036038101906102de91906136c5565b611278565b6040516102f0919061380d565b60405180910390f35b610313600480360381019061030e9190613408565b61135e565b60405161032091906138ff565b60405180910390f35b610343600480360381019061033e91906136c5565b611418565b60405161035091906138bd565b60405180910390f35b61036161159b565b60405161036e919061380d565b60405180910390f35b610391600480360381019061038c9190613578565b6115c1565b005b61039b6116b8565b6040516103a891906138bd565b60405180910390f35b6103cb60048036038101906103c69190613578565b61174a565b005b6103e760048036038101906103e2919061353c565b611841565b005b61040360048036038101906103fe91906135b4565b61193e565b005b61041f600480360381019061041a91906134bc565b611ab0565b005b61043b60048036038101906104369190613408565b611b07565b60405161044891906138ff565b60405180910390f35b61046b600480360381019061046691906136c5565b611b19565b60405161047891906138bd565b60405180910390f35b61049b600480360381019061049691906136c5565b611c9c565b6040516104a891906138bd565b60405180910390f35b6104cb60048036038101906104c69190613431565b611e1f565b6040516104d891906138a2565b60405180910390f35b6000806000837bffffffffffffffffffffffffffffffffffffffffffffffffffffffff19167bffffffffffffffffffffffffffffffffffffffffffffffffffffffff1916815260200190815260200160002060009054906101000a900460ff169050919050565b60606009805461055790613ade565b80601f016020809104026020016040519081016040528092919081815260200182805461058390613ade565b80156105d05780601f106105a5576101008083540402835291602001916105d0565b820191906000526020600020905b8154815290600101906020018083116105b357829003601f168201915b5050505050905090565b600081600073ffffffffffffffffffffffffffffffffffffffff166001600083815260200190815260200160002060009054906101000a900473ffffffffffffffffffffffffffffffffffffffff1673ffffffffffffffffffffffffffffffffffffffff1614156040518060400160405280600681526020017f3030333030320000000000000000000000000000000000000000000000000000815250906106b8576040517f08c379a00000000000000000000000000000000000000000000000000000000081526004016106af91906138bd565b60405180910390fd5b506002600084815260200190815260200160002060009054906101000a900473ffffffffffffffffffffffffffffffffffffffff16915050919050565b8060006001600083815260200190815260200160002060009054906101000a900473ffffffffffffffffffffffffffffffffffffffff169050610736611eb3565b73ffffffffffffffffffffffffffffffffffffffff168173ffffffffffffffffffffffffffffffffffffffff1614806107f55750600460008273ffffffffffffffffffffffffffffffffffffffff1673ffffffffffffffffffffffffffffffffffffffff16815260200190815260200160002060003373ffffffffffffffffffffffffffffffffffffffff1673ffffffffffffffffffffffffffffffffffffffff16815260200190815260200160002060009054906101000a900460ff165b6040518060400160405280600681526020017f30303330303300000000000000000000000000000000000000000000000000008152509061086c576040517f08c379a000000000000000000000000000000000000000000000000000000000815260040161086391906138bd565b60405180910390fd5b5082600073ffffffffffffffffffffffffffffffffffffffff166001600083815260200190815260200160002060009054906101000a900473ffffffffffffffffffffffffffffffffffffffff1673ffffffffffffffffffffffffffffffffffffffff1614156040518060400160405280600681526020017f303033303032000000000000000000000000000000000000000000000000000081525090610949576040517f08c379a000000000000000000000000000000000000000000000000000000000815260040161094091906138bd565b60405180910390fd5b5060006001600086815260200190815260200160002060009054906101000a900473ffffffffffffffffffffffffffffffffffffffff1690508073ffffffffffffffffffffffffffffffffffffffff168673ffffffffffffffffffffffffffffffffffffffff1614156040518060400160405280600681526020017f303033303038000000000000000000000000000000000000000000000000000081525090610a29576040517f08c379a0000000000000000000000000000000000000000000000000000000008152600401610a2091906138bd565b60405180910390fd5b50856002600087815260200190815260200160002060006101000a81548173ffffffffffffffffffffffffffffffffffffffff021916908373ffffffffffffffffffffffffffffffffffffffff160217905550848673ffffffffffffffffffffffffffffffffffffffff168273ffffffffffffffffffffffffffffffffffffffff167f8c5be1e5ebec7d5bd14f71427d1e84f3dd0314c0f7b2291e5b200ac8c7c3b92560405160405180910390a4505050505050565b6000600580549050905090565b8060006001600083815260200190815260200160002060009054906101000a900473ffffffffffffffffffffffffffffffffffffffff169050610b2d611eb3565b73ffffffffffffffffffffffffffffffffffffffff168173ffffffffffffffffffffffffffffffffffffffff161480610bcb5750610b69611eb3565b73ffffffffffffffffffffffffffffffffffffffff166002600084815260200190815260200160002060009054906101000a900473ffffffffffffffffffffffffffffffffffffffff1673ffffffffffffffffffffffffffffffffffffffff16145b80610c5c5750600460008273ffffffffffffffffffffffffffffffffffffffff1673ffffffffffffffffffffffffffffffffffffffff16815260200190815260200160002060003373ffffffffffffffffffffffffffffffffffffffff1673ffffffffffffffffffffffffffffffffffffffff16815260200190815260200160002060009054906101000a900460ff165b6040518060400160405280600681526020017f303033303034000000000000000000000000000000000000000000000000000081525090610cd3576040517f08c379a0000000000000000000000000000000000000000000000000000000008152600401610cca91906138bd565b60405180910390fd5b5082600073ffffffffffffffffffffffffffffffffffffffff166001600083815260200190815260200160002060009054906101000a900473ffffffffffffffffffffffffffffffffffffffff1673ffffffffffffffffffffffffffffffffffffffff1614156040518060400160405280600681526020017f303033303032000000000000000000000000000000000000000000000000000081525090610db0576040517f08c379a0000000000000000000000000000000000000000000000000000000008152600401610da791906138bd565b60405180910390fd5b5060006001600086815260200190815260200160002060009054906101000a900473ffffffffffffffffffffffffffffffffffffffff1690508673ffffffffffffffffffffffffffffffffffffffff168173ffffffffffffffffffffffffffffffffffffffff16146040518060400160405280600681526020017f303033303037000000000000000000000000000000000000000000000000000081525090610e8f576040517f08c379a0000000000000000000000000000000000000000000000000000000008152600401610e8691906138bd565b60405180910390fd5b50600073ffffffffffffffffffffffffffffffffffffffff168673ffffffffffffffffffffffffffffffffffffffff1614156040518060400160405280600681526020017f303033303031000000000000000000000000000000000000000000000000000081525090610f38576040517f08c379a0000000000000000000000000000000000000000000000000000000008152600401610f2f91906138bd565b60405180910390fd5b50610f438686611ebb565b50505050505050565b6000600760008473ffffffffffffffffffffffffffffffffffffffff1673ffffffffffffffffffffffffffffffffffffffff1681526020019081526020016000208054905082106040518060400160405280600681526020017f30303530303700000000000000000000000000000000000000000000000000008152509061100a576040517f08c379a000000000000000000000000000000000000000000000000000000000815260040161100191906138bd565b60405180910390fd5b50600760008473ffffffffffffffffffffffffffffffffffffffff1673ffffffffffffffffffffffffffffffffffffffff1681526020019081526020016000208281548110611082577f4e487b7100000000000000000000000000000000000000000000000000000000600052603260045260246000fd5b9060005260206000200154905092915050565b6110b083838360405180602001604052806000815250611f70565b505050565b600c60009054906101000a900473ffffffffffffffffffffffffffffffffffffffff1673ffffffffffffffffffffffffffffffffffffffff163373ffffffffffffffffffffffffffffffffffffffff1614611145576040517f08c379a000000000000000000000000000000000000000000000000000000000815260040161113c906138df565b60405180910390fd5b7f2d5a82cbc34270500c60b0532ca36cd4716c295bf0351b25835351664a3125bf600c60009054906101000a900473ffffffffffffffffffffffffffffffffffffffff166040516111969190613874565b60405180910390a16111a78161254c565b50565b600060058054905082106040518060400160405280600681526020017f30303530303700000000000000000000000000000000000000000000000000008152509061122b576040517f08c379a000000000000000000000000000000000000000000000000000000000815260040161122291906138bd565b60405180910390fd5b5060058281548110611266577f4e487b7100000000000000000000000000000000000000000000000000000000600052603260045260246000fd5b90600052602060002001549050919050565b60006001600083815260200190815260200160002060009054906101000a900473ffffffffffffffffffffffffffffffffffffffff169050600073ffffffffffffffffffffffffffffffffffffffff168173ffffffffffffffffffffffffffffffffffffffff1614156040518060400160405280600681526020017f303033303032000000000000000000000000000000000000000000000000000081525090611358576040517f08c379a000000000000000000000000000000000000000000000000000000000815260040161134f91906138bd565b60405180910390fd5b50919050565b60008073ffffffffffffffffffffffffffffffffffffffff168273ffffffffffffffffffffffffffffffffffffffff1614156040518060400160405280600681526020017f303033303031000000000000000000000000000000000000000000000000000081525090611407576040517f08c379a00000000000000000000000000000000000000000000000000000000081526004016113fe91906138bd565b60405180910390fd5b5061141182612558565b9050919050565b606081600073ffffffffffffffffffffffffffffffffffffffff166001600083815260200190815260200160002060009054906101000a900473ffffffffffffffffffffffffffffffffffffffff1673ffffffffffffffffffffffffffffffffffffffff1614156040518060400160405280600681526020017f3030333030320000000000000000000000000000000000000000000000000000815250906114f6576040517f08c379a00000000000000000000000000000000000000000000000000000000081526004016114ed91906138bd565b60405180910390fd5b50600d6000848152602001908152602001600020805461151590613ade565b80601f016020809104026020016040519081016040528092919081815260200182805461154190613ade565b801561158e5780601f106115635761010080835404028352916020019161158e565b820191906000526020600020905b81548152906001019060200180831161157157829003601f168201915b5050505050915050919050565b600c60009054906101000a900473ffffffffffffffffffffffffffffffffffffffff1681565b600c60009054906101000a900473ffffffffffffffffffffffffffffffffffffffff1673ffffffffffffffffffffffffffffffffffffffff163373ffffffffffffffffffffffffffffffffffffffff1614611651576040517f08c379a0000000000000000000000000000000000000000000000000000000008152600401611648906138df565b60405180910390fd5b7f2d5a82cbc34270500c60b0532ca36cd4716c295bf0351b25835351664a3125bf600c60009054906101000a900473ffffffffffffffffffffffffffffffffffffffff166040516116a29190613874565b60405180910390a16116b4828261256a565b5050565b6060600a80546116c790613ade565b80601f01602080910402602001604051908101604052809291908181526020018280546116f390613ade565b80156117405780601f1061171557610100808354040283529160200191611740565b820191906000526020600020905b81548152906001019060200180831161172357829003601f168201915b5050505050905090565b600c60009054906101000a900473ffffffffffffffffffffffffffffffffffffffff1673ffffffffffffffffffffffffffffffffffffffff163373ffffffffffffffffffffffffffffffffffffffff16146117da576040517f08c379a00000000000000000000000000000000000000000000000000000000081526004016117d1906138df565b60405180910390fd5b7f2d5a82cbc34270500c60b0532ca36cd4716c295bf0351b25835351664a3125bf600c60009054906101000a900473ffffffffffffffffffffffffffffffffffffffff1660405161182b9190613874565b60405180910390a161183d8282612578565b5050565b80600460003373ffffffffffffffffffffffffffffffffffffffff1673ffffffffffffffffffffffffffffffffffffffff16815260200190815260200160002060008473ffffffffffffffffffffffffffffffffffffffff1673ffffffffffffffffffffffffffffffffffffffff16815260200190815260200160002060006101000a81548160ff0219169083151502179055508173ffffffffffffffffffffffffffffffffffffffff163373ffffffffffffffffffffffffffffffffffffffff167f17307eab39ab6107e8899845ad3d59bd9653f200f220920489ca2b5937696c318360405161193291906138a2565b60405180910390a35050565b600c60009054906101000a900473ffffffffffffffffffffffffffffffffffffffff1673ffffffffffffffffffffffffffffffffffffffff163373ffffffffffffffffffffffffffffffffffffffff16146119ce576040517f08c379a00000000000000000000000000000000000000000000000000000000081526004016119c5906138df565b60405180910390fd5b7f2d5a82cbc34270500c60b0532ca36cd4716c295bf0351b25835351664a3125bf600c60009054906101000a900473ffffffffffffffffffffffffffffffffffffffff16604051611a1f9190613874565b60405180910390a1611a318585612586565b82600b60008681526020019081526020016000209080519060200190611a5892919061320a565b5081600d60008681526020019081526020016000209080519060200190611a8092919061320a565b5080600e60008681526020019081526020016000209080519060200190611aa892919061320a565b505050505050565b611b0085858585858080601f016020809104026020016040519081016040528093929190818152602001838380828437600081840152601f19601f82011690508083019250505050505050611f70565b5050505050565b6000611b1282612558565b9050919050565b606081600073ffffffffffffffffffffffffffffffffffffffff166001600083815260200190815260200160002060009054906101000a900473ffffffffffffffffffffffffffffffffffffffff1673ffffffffffffffffffffffffffffffffffffffff1614156040518060400160405280600681526020017f303033303032000000000000000000000000000000000000000000000000000081525090611bf7576040517f08c379a0000000000000000000000000000000000000000000000000000000008152600401611bee91906138bd565b60405180910390fd5b50600b60008481526020019081526020016000208054611c1690613ade565b80601f0160208091040260200160405190810160405280929190818152602001828054611c4290613ade565b8015611c8f5780601f10611c6457610100808354040283529160200191611c8f565b820191906000526020600020905b815481529060010190602001808311611c7257829003601f168201915b5050505050915050919050565b606081600073ffffffffffffffffffffffffffffffffffffffff166001600083815260200190815260200160002060009054906101000a900473ffffffffffffffffffffffffffffffffffffffff1673ffffffffffffffffffffffffffffffffffffffff1614156040518060400160405280600681526020017f303033303032000000000000000000000000000000000000000000000000000081525090611d7a576040517f08c379a0000000000000000000000000000000000000000000000000000000008152600401611d7191906138bd565b60405180910390fd5b50600e60008481526020019081526020016000208054611d9990613ade565b80601f0160208091040260200160405190810160405280929190818152602001828054611dc590613ade565b8015611e125780601f10611de757610100808354040283529160200191611e12565b820191906000526020600020905b815481529060010190602001808311611df557829003601f168201915b5050505050915050919050565b6000600460008473ffffffffffffffffffffffffffffffffffffffff1673ffffffffffffffffffffffffffffffffffffffff16815260200190815260200160002060008373ffffffffffffffffffffffffffffffffffffffff1673ffffffffffffffffffffffffffffffffffffffff16815260200190815260200160002060009054906101000a900460ff16905092915050565b600033905090565b60006001600083815260200190815260200160002060009054906101000a900473ffffffffffffffffffffffffffffffffffffffff169050611efc82612624565b611f06818361256a565b611f108383612578565b818373ffffffffffffffffffffffffffffffffffffffff168273ffffffffffffffffffffffffffffffffffffffff167fddf252ad1be2c89b69c2b068fc378daa952ba7f163c4a11628f55a4df523b3ef60405160405180910390a4505050565b8160006001600083815260200190815260200160002060009054906101000a900473ffffffffffffffffffffffffffffffffffffffff169050611fb1611eb3565b73ffffffffffffffffffffffffffffffffffffffff168173ffffffffffffffffffffffffffffffffffffffff16148061204f5750611fed611eb3565b73ffffffffffffffffffffffffffffffffffffffff166002600084815260200190815260200160002060009054906101000a900473ffffffffffffffffffffffffffffffffffffffff1673ffffffffffffffffffffffffffffffffffffffff16145b806120e05750600460008273ffffffffffffffffffffffffffffffffffffffff1673ffffffffffffffffffffffffffffffffffffffff16815260200190815260200160002060003373ffffffffffffffffffffffffffffffffffffffff1673ffffffffffffffffffffffffffffffffffffffff16815260200190815260200160002060009054906101000a900460ff165b6040518060400160405280600681526020017f303033303034000000000000000000000000000000000000000000000000000081525090612157576040517f08c379a000000000000000000000000000000000000000000000000000000000815260040161214e91906138bd565b60405180910390fd5b5083600073ffffffffffffffffffffffffffffffffffffffff166001600083815260200190815260200160002060009054906101000a900473ffffffffffffffffffffffffffffffffffffffff1673ffffffffffffffffffffffffffffffffffffffff1614156040518060400160405280600681526020017f303033303032000000000000000000000000000000000000000000000000000081525090612234576040517f08c379a000000000000000000000000000000000000000000000000000000000815260040161222b91906138bd565b60405180910390fd5b5060006001600087815260200190815260200160002060009054906101000a900473ffffffffffffffffffffffffffffffffffffffff1690508773ffffffffffffffffffffffffffffffffffffffff168173ffffffffffffffffffffffffffffffffffffffff16146040518060400160405280600681526020017f303033303037000000000000000000000000000000000000000000000000000081525090612313576040517f08c379a000000000000000000000000000000000000000000000000000000000815260040161230a91906138bd565b60405180910390fd5b50600073ffffffffffffffffffffffffffffffffffffffff168773ffffffffffffffffffffffffffffffffffffffff1614156040518060400160405280600681526020017f3030333030310000000000000000000000000000000000000000000000000000815250906123bc576040517f08c379a00000000000000000000000000000000000000000000000000000000081526004016123b391906138bd565b60405180910390fd5b506123c78787611ebb565b6123e68773ffffffffffffffffffffffffffffffffffffffff166126c5565b156125425760008773ffffffffffffffffffffffffffffffffffffffff1663150b7a02338b8a8a6040518563ffffffff1660e01b815260040161242c9493929190613828565b602060405180830381600087803b15801561244657600080fd5b505af115801561245a573d6000803e3d6000fd5b505050506040513d601f19601f8201168201806040525081019061247e919061369c565b905063150b7a0260e01b7bffffffffffffffffffffffffffffffffffffffffffffffffffffffff1916817bffffffffffffffffffffffffffffffffffffffffffffffffffffffff1916146040518060400160405280600681526020017f30303330303500000000000000000000000000000000000000000000000000008152509061253f576040517f08c379a000000000000000000000000000000000000000000000000000000000815260040161253691906138bd565b60405180910390fd5b50505b5050505050505050565b61255581612710565b50565b600061256382612763565b9050919050565b61257482826127af565b5050565b6125828282612ae8565b5050565b600160de61259491906139e7565b60ff16600580549050106040518060400160405280600581526020017f323030303100000000000000000000000000000000000000000000000000000081525090612615576040517f08c379a000000000000000000000000000000000000000000000000000000000815260040161260c91906138bd565b60405180910390fd5b506126208282612ce5565b5050565b600073ffffffffffffffffffffffffffffffffffffffff166002600083815260200190815260200160002060009054906101000a900473ffffffffffffffffffffffffffffffffffffffff1673ffffffffffffffffffffffffffffffffffffffff16146126c2576002600082815260200190815260200160002060006101000a81549073ffffffffffffffffffffffffffffffffffffffff02191690555b50565b60008060007fc5d2460186f7233c927e7db2dcc703c0e500b653ca82273b7bfad8045d85a47060001b9050833f91506000801b82141580156127075750808214155b92505050919050565b61271981612d45565b6000600b6000838152602001908152602001600020805461273990613ade565b90501461276057600b6000828152602001908152602001600020600061275f9190613290565b5b50565b6000600760008373ffffffffffffffffffffffffffffffffffffffff1673ffffffffffffffffffffffffffffffffffffffff168152602001908152602001600020805490509050919050565b8173ffffffffffffffffffffffffffffffffffffffff166001600083815260200190815260200160002060009054906101000a900473ffffffffffffffffffffffffffffffffffffffff1673ffffffffffffffffffffffffffffffffffffffff16146040518060400160405280600681526020017f303033303037000000000000000000000000000000000000000000000000000081525090612888576040517f08c379a000000000000000000000000000000000000000000000000000000000815260040161287f91906138bd565b60405180910390fd5b506001600082815260200190815260200160002060006101000a81549073ffffffffffffffffffffffffffffffffffffffff021916905560006008600083815260200190815260200160002054905060006001600760008673ffffffffffffffffffffffffffffffffffffffff1673ffffffffffffffffffffffffffffffffffffffff1681526020019081526020016000208054905061292891906139b3565b9050818114612a57576000600760008673ffffffffffffffffffffffffffffffffffffffff1673ffffffffffffffffffffffffffffffffffffffff16815260200190815260200160002082815481106129aa577f4e487b7100000000000000000000000000000000000000000000000000000000600052603260045260246000fd5b9060005260206000200154905080600760008773ffffffffffffffffffffffffffffffffffffffff1673ffffffffffffffffffffffffffffffffffffffff1681526020019081526020016000208481548110612a2f577f4e487b7100000000000000000000000000000000000000000000000000000000600052603260045260246000fd5b9060005260206000200181905550826008600083815260200190815260200160002081905550505b600760008573ffffffffffffffffffffffffffffffffffffffff1673ffffffffffffffffffffffffffffffffffffffff168152602001908152602001600020805480612acc577f4e487b7100000000000000000000000000000000000000000000000000000000600052603160045260246000fd5b6001900381819060005260206000200160009055905550505050565b600073ffffffffffffffffffffffffffffffffffffffff166001600083815260200190815260200160002060009054906101000a900473ffffffffffffffffffffffffffffffffffffffff1673ffffffffffffffffffffffffffffffffffffffff16146040518060400160405280600681526020017f303033303036000000000000000000000000000000000000000000000000000081525090612bc2576040517f08c379a0000000000000000000000000000000000000000000000000000000008152600401612bb991906138bd565b60405180910390fd5b50816001600083815260200190815260200160002060006101000a81548173ffffffffffffffffffffffffffffffffffffffff021916908373ffffffffffffffffffffffffffffffffffffffff160217905550600760008373ffffffffffffffffffffffffffffffffffffffff1673ffffffffffffffffffffffffffffffffffffffff1681526020019081526020016000208190806001815401808255809150506001900390600052602060002001600090919091909150556001600760008473ffffffffffffffffffffffffffffffffffffffff1673ffffffffffffffffffffffffffffffffffffffff16815260200190815260200160002080549050612cca91906139b3565b60086000838152602001908152602001600020819055505050565b612cef8282612e93565b60058190806001815401808255809150506001900390600052602060002001600090919091909150556001600580549050612d2a91906139b3565b60066000838152602001908152602001600020819055505050565b612d4e81613081565b60006006600083815260200190815260200160002054905060006001600580549050612d7a91906139b3565b9050600060058281548110612db8577f4e487b7100000000000000000000000000000000000000000000000000000000600052603260045260246000fd5b906000526020600020015490508060058481548110612e00577f4e487b7100000000000000000000000000000000000000000000000000000000600052603260045260246000fd5b90600052602060002001819055506005805480612e46577f4e487b7100000000000000000000000000000000000000000000000000000000600052603160045260246000fd5b600190038181906000526020600020016000905590558260066000838152602001908152602001600020819055506000600660008681526020019081526020016000208190555050505050565b600073ffffffffffffffffffffffffffffffffffffffff168273ffffffffffffffffffffffffffffffffffffffff1614156040518060400160405280600681526020017f303033303031000000000000000000000000000000000000000000000000000081525090612f3b576040517f08c379a0000000000000000000000000000000000000000000000000000000008152600401612f3291906138bd565b60405180910390fd5b50600073ffffffffffffffffffffffffffffffffffffffff166001600083815260200190815260200160002060009054906101000a900473ffffffffffffffffffffffffffffffffffffffff1673ffffffffffffffffffffffffffffffffffffffff16146040518060400160405280600681526020017f303033303036000000000000000000000000000000000000000000000000000081525090613016576040517f08c379a000000000000000000000000000000000000000000000000000000000815260040161300d91906138bd565b60405180910390fd5b506130218282612578565b808273ffffffffffffffffffffffffffffffffffffffff16600073ffffffffffffffffffffffffffffffffffffffff167fddf252ad1be2c89b69c2b068fc378daa952ba7f163c4a11628f55a4df523b3ef60405160405180910390a45050565b80600073ffffffffffffffffffffffffffffffffffffffff166001600083815260200190815260200160002060009054906101000a900473ffffffffffffffffffffffffffffffffffffffff1673ffffffffffffffffffffffffffffffffffffffff1614156040518060400160405280600681526020017f30303330303200000000000000000000000000000000000000000000000000008152509061315d576040517f08c379a000000000000000000000000000000000000000000000000000000000815260040161315491906138bd565b60405180910390fd5b5060006001600084815260200190815260200160002060009054906101000a900473ffffffffffffffffffffffffffffffffffffffff16905061319f83612624565b6131a9818461256a565b82600073ffffffffffffffffffffffffffffffffffffffff168273ffffffffffffffffffffffffffffffffffffffff167fddf252ad1be2c89b69c2b068fc378daa952ba7f163c4a11628f55a4df523b3ef60405160405180910390a4505050565b82805461321690613ade565b90600052602060002090601f016020900481019282613238576000855561327f565b82601f1061325157805160ff191683800117855561327f565b8280016001018555821561327f579182015b8281111561327e578251825591602001919060010190613263565b5b50905061328c91906132d0565b5090565b50805461329c90613ade565b6000825580601f106132ae57506132cd565b601f0160209004906000526020600020908101906132cc91906132d0565b5b50565b5b808211156132e95760008160009055506001016132d1565b5090565b60006133006132fb8461394b565b61391a565b90508281526020810184848401111561331857600080fd5b613323848285613a9c565b509392505050565b60008135905061333a81613bae565b92915050565b60008135905061334f81613bc5565b92915050565b60008135905061336481613bdc565b92915050565b60008151905061337981613bdc565b92915050565b60008083601f84011261339157600080fd5b8235905067ffffffffffffffff8111156133aa57600080fd5b6020830191508360018202830111156133c257600080fd5b9250929050565b600082601f8301126133da57600080fd5b81356133ea8482602086016132ed565b91505092915050565b60008135905061340281613bf3565b92915050565b60006020828403121561341a57600080fd5b60006134288482850161332b565b91505092915050565b6000806040838503121561344457600080fd5b60006134528582860161332b565b92505060206134638582860161332b565b9150509250929050565b60008060006060848603121561348257600080fd5b60006134908682870161332b565b93505060206134a18682870161332b565b92505060406134b2868287016133f3565b9150509250925092565b6000806000806000608086880312156134d457600080fd5b60006134e28882890161332b565b95505060206134f38882890161332b565b9450506040613504888289016133f3565b935050606086013567ffffffffffffffff81111561352157600080fd5b61352d8882890161337f565b92509250509295509295909350565b6000806040838503121561354f57600080fd5b600061355d8582860161332b565b925050602061356e85828601613340565b9150509250929050565b6000806040838503121561358b57600080fd5b60006135998582860161332b565b92505060206135aa858286016133f3565b9150509250929050565b600080600080600060a086880312156135cc57600080fd5b60006135da8882890161332b565b95505060206135eb888289016133f3565b945050604086013567ffffffffffffffff81111561360857600080fd5b613614888289016133c9565b935050606086013567ffffffffffffffff81111561363157600080fd5b61363d888289016133c9565b925050608086013567ffffffffffffffff81111561365a57600080fd5b613666888289016133c9565b9150509295509295909350565b60006020828403121561368557600080fd5b600061369384828501613355565b91505092915050565b6000602082840312156136ae57600080fd5b60006136bc8482850161336a565b91505092915050565b6000602082840312156136d757600080fd5b60006136e5848285016133f3565b91505092915050565b6136f781613a1b565b82525050565b61370681613a2d565b82525050565b60006137178261397b565b6137218185613991565b9350613731818560208601613aab565b61373a81613b9d565b840191505092915050565b600061375082613986565b61375a81856139a2565b935061376a818560208601613aab565b61377381613b9d565b840191505092915050565b600061378b600c836139a2565b91507f4e6f7420616e206f776e657200000000000000000000000000000000000000006000830152602082019050919050565b60006137cb601c836139a2565b91507f706173736564206f776e65727368697020726571756972656d656e74000000006000830152602082019050919050565b61380781613a85565b82525050565b600060208201905061382260008301846136ee565b92915050565b600060808201905061383d60008301876136ee565b61384a60208301866136ee565b61385760408301856137fe565b8181036060830152613869818461370c565b905095945050505050565b600060408201905061388960008301846136ee565b818103602083015261389a816137be565b905092915050565b60006020820190506138b760008301846136fd565b92915050565b600060208201905081810360008301526138d78184613745565b905092915050565b600060208201905081810360008301526138f88161377e565b9050919050565b600060208201905061391460008301846137fe565b92915050565b6000604051905081810181811067ffffffffffffffff8211171561394157613940613b6e565b5b8060405250919050565b600067ffffffffffffffff82111561396657613965613b6e565b5b601f19601f8301169050602081019050919050565b600081519050919050565b600081519050919050565b600082825260208201905092915050565b600082825260208201905092915050565b60006139be82613a85565b91506139c983613a85565b9250828210156139dc576139db613b10565b5b828203905092915050565b60006139f282613a8f565b91506139fd83613a8f565b925082821015613a1057613a0f613b10565b5b828203905092915050565b6000613a2682613a65565b9050919050565b60008115159050919050565b60007fffffffff0000000000000000000000000000000000000000000000000000000082169050919050565b600073ffffffffffffffffffffffffffffffffffffffff82169050919050565b6000819050919050565b600060ff82169050919050565b82818337600083830152505050565b60005b83811015613ac9578082015181840152602081019050613aae565b83811115613ad8576000848401525b50505050565b60006002820490506001821680613af657607f821691505b60208210811415613b0a57613b09613b3f565b5b50919050565b7f4e487b7100000000000000000000000000000000000000000000000000000000600052601160045260246000fd5b7f4e487b7100000000000000000000000000000000000000000000000000000000600052602260045260246000fd5b7f4e487b7100000000000000000000000000000000000000000000000000000000600052604160045260246000fd5b6000601f19601f8301169050919050565b613bb781613a1b565b8114613bc257600080fd5b50565b613bce81613a2d565b8114613bd957600080fd5b50565b613be581613a39565b8114613bf057600080fd5b50565b613bfc81613a85565b8114613c0757600080fd5b5056fea2646970667358221220b407377ea788da31b0cbe2c14b19299b6c2ce437cccaa31aa6a91929e9f7abc364736f6c63430008000033",
  "linkReferences": {},
  "deployedLinkReferences": {}
}