{
  "_format": "hh-sol-artifact-1",
  "contractName": "SWDMarketPlace",
  "sourceName": "contracts/NMWD/SWDMarketPlace.sol",
  "abi": [
    {
      "anonymous": false,
      "inputs": [
        {
          "indexed": true,
          "internalType": "address",
          "name": "payer",
          "type": "address"
        },
        {
          "indexed": false,
          "internalType": "uint256",
          "name": "tokenId",
          "type": "uint256"
        },
        {
          "indexed": false,
          "internalType": "uint256",
          "name": "amount",
          "type": "uint256"
        }
      ],
      "name": "NFTSent",
      "type": "event"
    },
    {
      "anonymous": false,
      "inputs": [
        {
          "indexed": true,
          "internalType": "address",
          "name": "previousOwner",
          "type": "address"
        },
        {
          "indexed": true,
          "internalType": "address",
          "name": "newOwner",
          "type": "address"
        }
      ],
      "name": "OwnershipTransferred",
      "type": "event"
    },
    {
      "anonymous": false,
      "inputs": [
        {
          "indexed": true,
          "internalType": "address",
          "name": "payee",
          "type": "address"
        },
        {
          "indexed": false,
          "internalType": "uint256",
          "name": "amount",
          "type": "uint256"
        }
      ],
      "name": "RoyaltyPaid",
      "type": "event"
    },
    {
      "anonymous": false,
      "inputs": [
        {
          "indexed": true,
          "internalType": "address",
          "name": "payee",
          "type": "address"
        },
        {
          "indexed": false,
          "internalType": "uint256",
          "name": "amount",
          "type": "uint256"
        }
      ],
      "name": "SecurityWithdrawal",
      "type": "event"
    },
    {
      "anonymous": false,
      "inputs": [
        {
          "indexed": true,
          "internalType": "address",
          "name": "payee",
          "type": "address"
        },
        {
          "indexed": false,
          "internalType": "uint256",
          "name": "amount",
          "type": "uint256"
        }
      ],
      "name": "Sent",
      "type": "event"
    },
    {
      "anonymous": false,
      "inputs": [
        {
          "indexed": false,
          "internalType": "address",
          "name": "deliveredTo",
          "type": "address"
        },
        {
          "indexed": false,
          "internalType": "string",
          "name": "msg",
          "type": "string"
        }
      ],
      "name": "_msg",
      "type": "event"
    },
    {
      "inputs": [],
      "name": "CANNOT_TRANSFER_TO_ZERO_ADDRESS",
      "outputs": [
        {
          "internalType": "string",
          "name": "",
          "type": "string"
        }
      ],
      "stateMutability": "view",
      "type": "function"
    },
    {
      "inputs": [],
      "name": "NOT_CURRENT_OWNER",
      "outputs": [
        {
          "internalType": "string",
          "name": "",
          "type": "string"
        }
      ],
      "stateMutability": "view",
      "type": "function"
    },
    {
      "inputs": [],
      "name": "TokenContract",
      "outputs": [
        {
          "internalType": "contract StopTheWarOnDrugs",
          "name": "",
          "type": "address"
        }
      ],
      "stateMutability": "view",
      "type": "function"
    },
    {
      "inputs": [
        {
          "internalType": "uint256",
          "name": "_tokenId",
          "type": "uint256"
        }
      ],
      "name": "burn",
      "outputs": [],
      "stateMutability": "nonpayable",
      "type": "function"
    },
    {
      "inputs": [],
      "name": "getBackOwnership",
      "outputs": [],
      "stateMutability": "nonpayable",
      "type": "function"
    },
    {
      "inputs": [
        {
          "internalType": "uint256",
          "name": "_tokenId",
          "type": "uint256"
        }
      ],
      "name": "getForSale",
      "outputs": [
        {
          "internalType": "bool",
          "name": "",
          "type": "bool"
        }
      ],
      "stateMutability": "view",
      "type": "function"
    },
    {
      "inputs": [],
      "name": "getMarketPlaceBalance",
      "outputs": [
        {
          "internalType": "uint256",
          "name": "",
          "type": "uint256"
        }
      ],
      "stateMutability": "view",
      "type": "function"
    },
    {
      "inputs": [],
      "name": "getOwner",
      "outputs": [
        {
          "internalType": "address",
          "name": "",
          "type": "address"
        }
      ],
      "stateMutability": "view",
      "type": "function"
    },
    {
      "inputs": [
        {
          "internalType": "uint256",
          "name": "_tokenId",
          "type": "uint256"
        }
      ],
      "name": "getPrice",
      "outputs": [
        {
          "internalType": "uint256",
          "name": "",
          "type": "uint256"
        }
      ],
      "stateMutability": "view",
      "type": "function"
    },
    {
      "inputs": [],
      "name": "initialize",
      "outputs": [],
      "stateMutability": "nonpayable",
      "type": "function"
    },
    {
      "inputs": [
        {
          "internalType": "address",
          "name": "_to",
          "type": "address"
        },
        {
          "internalType": "uint256",
          "name": "_tokenId",
          "type": "uint256"
        }
      ],
      "name": "mintThroughPurchase",
      "outputs": [],
      "stateMutability": "payable",
      "type": "function"
    },
    {
      "inputs": [],
      "name": "owner",
      "outputs": [
        {
          "internalType": "address",
          "name": "",
          "type": "address"
        }
      ],
      "stateMutability": "view",
      "type": "function"
    },
    {
      "inputs": [
        {
          "internalType": "uint256",
          "name": "_tokenId",
          "type": "uint256"
        }
      ],
      "name": "purchaseToken",
      "outputs": [],
      "stateMutability": "payable",
      "type": "function"
    },
    {
      "inputs": [],
      "name": "releaseLock",
      "outputs": [],
      "stateMutability": "nonpayable",
      "type": "function"
    },
    {
      "inputs": [
        {
          "internalType": "uint256",
          "name": "_tokenId",
          "type": "uint256"
        },
        {
          "internalType": "bool",
          "name": "_forSale",
          "type": "bool"
        }
      ],
      "name": "setForSale",
      "outputs": [
        {
          "internalType": "bool",
          "name": "",
          "type": "bool"
        }
      ],
      "stateMutability": "nonpayable",
      "type": "function"
    },
    {
      "inputs": [
        {
          "internalType": "uint256",
          "name": "_price",
          "type": "uint256"
        },
        {
          "internalType": "uint256",
          "name": "_tokenId",
          "type": "uint256"
        }
      ],
      "name": "setPrice",
      "outputs": [],
      "stateMutability": "nonpayable",
      "type": "function"
    },
    {
      "inputs": [
        {
          "internalType": "uint256",
          "name": "_price",
          "type": "uint256"
        },
        {
          "internalType": "uint256",
          "name": "_tokenId",
          "type": "uint256"
        },
        {
          "internalType": "address",
          "name": "_royaltyAddress",
          "type": "address"
        }
      ],
      "name": "setPriceForMinting",
      "outputs": [],
      "stateMutability": "nonpayable",
      "type": "function"
    },
    {
      "inputs": [
        {
          "internalType": "address",
          "name": "_newOwner",
          "type": "address"
        }
      ],
      "name": "transferOwnership",
      "outputs": [],
      "stateMutability": "nonpayable",
      "type": "function"
    },
    {
      "inputs": [
        {
          "internalType": "address",
          "name": "nmwdAddress",
          "type": "address"
        }
      ],
      "name": "updateNMWDcontract",
      "outputs": [],
      "stateMutability": "nonpayable",
      "type": "function"
    },
    {
      "inputs": [
        {
          "internalType": "address",
          "name": "_payee",
          "type": "address"
        },
        {
          "internalType": "uint256",
          "name": "_amount",
          "type": "uint256"
        }
      ],
      "name": "withdrawFromContract",
      "outputs": [],
      "stateMutability": "nonpayable",
      "type": "function"
    },
    {
      "stateMutability": "payable",
      "type": "receive"
    }
  ],
  "bytecode": "0x608060405234801561001057600080fd5b5061361a806100206000396000f3fe6080604052600436106101235760003560e01c8063b4c49d09116100a0578063f0a6c16b11610064578063f0a6c16b14610391578063f2fde38b146103ce578063f3fe3bc3146103f7578063f7d9757714610422578063f9b4f4bb1461044b57610143565b8063b4c49d09146102da578063bec4dd8514610305578063c2db2c4214610321578063e75722301461033d578063eda54ad21461037a57610143565b8063860d248a116100e7578063860d248a14610205578063893d20e8146102305780638da5cb5b1461025b5780639688738b14610286578063b0e857ec146102b157610143565b80632abacf8c1461014857806342966c68146101855780635c93bec7146101ae5780638129fc1c146101c5578063837381fa146101dc57610143565b3661014357346005600082825461013a9190613346565b92505081905550005b600080fd5b34801561015457600080fd5b5061016f600480360381019061016a9190612d9e565b610474565b60405161017c9190613203565b60405180910390f35b34801561019157600080fd5b506101ac60048036038101906101a79190612d9e565b61049e565b005b3480156101ba57600080fd5b506101c3610613565b005b3480156101d157600080fd5b506101da610872565b005b3480156101e857600080fd5b5061020360048036038101906101fe9190612cfd565b610956565b005b34801561021157600080fd5b5061021a610d51565b6040516102279190613239565b60405180910390f35b34801561023c57600080fd5b50610245610d8a565b60405161025291906130e7565b60405180910390f35b34801561026757600080fd5b50610270610db3565b60405161027d91906130e7565b60405180910390f35b34801561029257600080fd5b5061029b610dd7565b6040516102a8919061321e565b60405180910390f35b3480156102bd57600080fd5b506102d860048036038101906102d39190612cab565b610dfd565b005b3480156102e657600080fd5b506102ef6110d1565b6040516102fc91906132db565b60405180910390f35b61031f600480360381019061031a9190612cfd565b6110db565b005b61033b60048036038101906103369190612d9e565b611479565b005b34801561034957600080fd5b50610364600480360381019061035f9190612d9e565b611f37565b60405161037191906132db565b60405180910390f35b34801561038657600080fd5b5061038f611f54565b005b34801561039d57600080fd5b506103b860048036038101906103b39190612dc7565b612056565b6040516103c59190613203565b60405180910390f35b3480156103da57600080fd5b506103f560048036038101906103f09190612cab565b61228e565b005b34801561040357600080fd5b5061040c6124d9565b6040516104199190613239565b60405180910390f35b34801561042e57600080fd5b5061044960048036038101906104449190612e03565b612512565b005b34801561045757600080fd5b50610472600480360381019061046d9190612e3f565b612728565b005b60006004600083815260200190815260200160002060009054906101000a900460ff169050919050565b60008054906101000a900473ffffffffffffffffffffffffffffffffffffffff1673ffffffffffffffffffffffffffffffffffffffff163373ffffffffffffffffffffffffffffffffffffffff161461052c576040517f08c379a00000000000000000000000000000000000000000000000000000000081526004016105239061329b565b60405180910390fd5b7f2d5a82cbc34270500c60b0532ca36cd4716c295bf0351b25835351664a3125bf60008054906101000a900473ffffffffffffffffffffffffffffffffffffffff1660405161057b9190613190565b60405180910390a1600160009054906101000a900473ffffffffffffffffffffffffffffffffffffffff1673ffffffffffffffffffffffffffffffffffffffff166342966c68826040518263ffffffff1660e01b81526004016105de91906132db565b600060405180830381600087803b1580156105f857600080fd5b505af115801561060c573d6000803e3d6000fd5b5050505050565b60008054906101000a900473ffffffffffffffffffffffffffffffffffffffff1673ffffffffffffffffffffffffffffffffffffffff163373ffffffffffffffffffffffffffffffffffffffff16146106a1576040517f08c379a00000000000000000000000000000000000000000000000000000000081526004016106989061329b565b60405180910390fd5b7f2d5a82cbc34270500c60b0532ca36cd4716c295bf0351b25835351664a3125bf60008054906101000a900473ffffffffffffffffffffffffffffffffffffffff166040516106f09190613190565b60405180910390a1600073ffffffffffffffffffffffffffffffffffffffff16600160009054906101000a900473ffffffffffffffffffffffffffffffffffffffff1673ffffffffffffffffffffffffffffffffffffffff1614156040518060400160405280600481526020017f3035303200000000000000000000000000000000000000000000000000000000815250906107c2576040517f08c379a00000000000000000000000000000000000000000000000000000000081526004016107b99190613239565b60405180910390fd5b50600160009054906101000a900473ffffffffffffffffffffffffffffffffffffffff1673ffffffffffffffffffffffffffffffffffffffff1663f2fde38b60008054906101000a900473ffffffffffffffffffffffffffffffffffffffff166040518263ffffffff1660e01b815260040161083e91906130e7565b600060405180830381600087803b15801561085857600080fd5b505af115801561086c573d6000803e3d6000fd5b50505050565b600060159054906101000a900460ff168061089a5750600060149054906101000a900460ff16155b6108d9576040517f08c379a00000000000000000000000000000000000000000000000000000000081526004016108d09061327b565b60405180910390fd5b60008060159054906101000a900460ff16159050801561092a576001600060156101000a81548160ff0219169083151502179055506001600060146101000a81548160ff0219169083151502179055505b610932612b8c565b80156109535760008060156101000a81548160ff0219169083151502179055505b50565b60008054906101000a900473ffffffffffffffffffffffffffffffffffffffff1673ffffffffffffffffffffffffffffffffffffffff163373ffffffffffffffffffffffffffffffffffffffff16146109e4576040517f08c379a00000000000000000000000000000000000000000000000000000000081526004016109db9061329b565b60405180910390fd5b7f2d5a82cbc34270500c60b0532ca36cd4716c295bf0351b25835351664a3125bf60008054906101000a900473ffffffffffffffffffffffffffffffffffffffff16604051610a339190613190565b60405180910390a1600073ffffffffffffffffffffffffffffffffffffffff168273ffffffffffffffffffffffffffffffffffffffff1614158015610aa457503073ffffffffffffffffffffffffffffffffffffffff168273ffffffffffffffffffffffffffffffffffffffff1614155b610aad57600080fd5b8060055410156040518060400160405280600481526020017f303531300000000000000000000000000000000000000000000000000000000081525090610b2a576040517f08c379a0000000000000000000000000000000000000000000000000000000008152600401610b219190613239565b60405180910390fd5b50600081118015610b3b5750478111155b6040518060400160405280600481526020017f303530360000000000000000000000000000000000000000000000000000000081525090610bb2576040517f08c379a0000000000000000000000000000000000000000000000000000000008152600401610ba99190613239565b60405180910390fd5b504760055414610c9e57600060058190555060008054906101000a900473ffffffffffffffffffffffffffffffffffffffff1673ffffffffffffffffffffffffffffffffffffffff166108fc479081150290604051600060405180830381858888f19350505050158015610c2a573d6000803e3d6000fd5b5060008054906101000a900473ffffffffffffffffffffffffffffffffffffffff1673ffffffffffffffffffffffffffffffffffffffff167f6dfc6e5b54e9b8b518c0d73fe237bd1a47d57856827cbf13853bee71425c6a9082604051610c9191906132db565b60405180910390a2610d4d565b8060056000828254610cb09190613427565b925050819055508173ffffffffffffffffffffffffffffffffffffffff166108fc829081150290604051600060405180830381858888f19350505050158015610cfd573d6000803e3d6000fd5b508173ffffffffffffffffffffffffffffffffffffffff167f510ffb4dcab972ae9d2007a58e13f1b0881776d23cd8f5cc32f8c5be2dbf70d282604051610d4491906132db565b60405180910390a25b5050565b6040518060400160405280600481526020017f303130320000000000000000000000000000000000000000000000000000000081525081565b60008060009054906101000a900473ffffffffffffffffffffffffffffffffffffffff16905090565b60008054906101000a900473ffffffffffffffffffffffffffffffffffffffff1681565b600160009054906101000a900473ffffffffffffffffffffffffffffffffffffffff1681565b60008054906101000a900473ffffffffffffffffffffffffffffffffffffffff1673ffffffffffffffffffffffffffffffffffffffff163373ffffffffffffffffffffffffffffffffffffffff1614610e8b576040517f08c379a0000000000000000000000000000000000000000000000000000000008152600401610e829061329b565b60405180910390fd5b7f2d5a82cbc34270500c60b0532ca36cd4716c295bf0351b25835351664a3125bf60008054906101000a900473ffffffffffffffffffffffffffffffffffffffff16604051610eda9190613190565b60405180910390a1600073ffffffffffffffffffffffffffffffffffffffff168173ffffffffffffffffffffffffffffffffffffffff1614158015610f4b57503073ffffffffffffffffffffffffffffffffffffffff168173ffffffffffffffffffffffffffffffffffffffff1614155b6040518060400160405280600481526020017f303530310000000000000000000000000000000000000000000000000000000081525090610fc2576040517f08c379a0000000000000000000000000000000000000000000000000000000008152600401610fb99190613239565b60405180910390fd5b508073ffffffffffffffffffffffffffffffffffffffff16600160009054906101000a900473ffffffffffffffffffffffffffffffffffffffff1673ffffffffffffffffffffffffffffffffffffffff1614156040518060400160405280600481526020017f30353038000000000000000000000000000000000000000000000000000000008152509061108c576040517f08c379a00000000000000000000000000000000000000000000000000000000081526004016110839190613239565b60405180910390fd5b5080600160006101000a81548173ffffffffffffffffffffffffffffffffffffffff021916908373ffffffffffffffffffffffffffffffffffffffff16021790555050565b6000600554905090565b60006002600083815260200190815260200160002054116040518060400160405280600481526020017f303531330000000000000000000000000000000000000000000000000000000081525090611169576040517f08c379a00000000000000000000000000000000000000000000000000000000081526004016111609190613239565b60405180910390fd5b5060026000828152602001908152602001600020543410156040518060400160405280600481526020017f3035303600000000000000000000000000000000000000000000000000000000815250906111f8576040517f08c379a00000000000000000000000000000000000000000000000000000000081526004016111ef9190613239565b60405180910390fd5b50600073ffffffffffffffffffffffffffffffffffffffff16611219612c25565b73ffffffffffffffffffffffffffffffffffffffff161415801561127057503073ffffffffffffffffffffffffffffffffffffffff16611257612c25565b73ffffffffffffffffffffffffffffffffffffffff1614155b61127957600080fd5b600660009054906101000a900460ff16156040518060400160405280600481526020017f303531340000000000000000000000000000000000000000000000000000000081525090611301576040517f08c379a00000000000000000000000000000000000000000000000000000000081526004016112f89190613239565b60405180910390fd5b506001600660006101000a81548160ff02191690831515021790555060006003600083815260200190815260200160002060009054906101000a900473ffffffffffffffffffffffffffffffffffffffff16905060006101f49050346005600082825461136e9190613346565b92505081905550600160009054906101000a900473ffffffffffffffffffffffffffffffffffffffff1673ffffffffffffffffffffffffffffffffffffffff16633c173a4f858585856040518563ffffffff1660e01b81526004016113d694939291906131be565b600060405180830381600087803b1580156113f057600080fd5b505af1158015611404573d6000803e3d6000fd5b505050508373ffffffffffffffffffffffffffffffffffffffff167fdbc09166e717a324fd239bd32af51e47b8348709b352f3223238c4de82ebaa7684346040516114509291906132f6565b60405180910390a26000600660006101000a81548160ff02191690831515021790555050505050565b6004600082815260200190815260200160002060009054906101000a900460ff166040518060400160405280600481526020017f303530350000000000000000000000000000000000000000000000000000000081525090611511576040517f08c379a00000000000000000000000000000000000000000000000000000000081526004016115089190613239565b60405180910390fd5b50600073ffffffffffffffffffffffffffffffffffffffff16611532612c25565b73ffffffffffffffffffffffffffffffffffffffff161415801561158957503073ffffffffffffffffffffffffffffffffffffffff16611570612c25565b73ffffffffffffffffffffffffffffffffffffffff1614155b61159257600080fd5b60006002600083815260200190815260200160002054116040518060400160405280600481526020017f303531330000000000000000000000000000000000000000000000000000000081525090611620576040517f08c379a00000000000000000000000000000000000000000000000000000000081526004016116179190613239565b60405180910390fd5b50600260008281526020019081526020016000205434101561164157600080fd5b600073ffffffffffffffffffffffffffffffffffffffff16600160009054906101000a900473ffffffffffffffffffffffffffffffffffffffff1673ffffffffffffffffffffffffffffffffffffffff16636352211e836040518263ffffffff1660e01b81526004016116b491906132db565b60206040518083038186803b1580156116cc57600080fd5b505afa1580156116e0573d6000803e3d6000fd5b505050506040513d601f19601f820116820180604052508101906117049190612cd4565b73ffffffffffffffffffffffffffffffffffffffff1614156040518060400160405280600481526020017f303530340000000000000000000000000000000000000000000000000000000081525090611793576040517f08c379a000000000000000000000000000000000000000000000000000000000815260040161178a9190613239565b60405180910390fd5b506000600160009054906101000a900473ffffffffffffffffffffffffffffffffffffffff1673ffffffffffffffffffffffffffffffffffffffff16636352211e836040518263ffffffff1660e01b81526004016117f191906132db565b60206040518083038186803b15801561180957600080fd5b505afa15801561181d573d6000803e3d6000fd5b505050506040513d601f19601f820116820180604052508101906118419190612cd4565b90503073ffffffffffffffffffffffffffffffffffffffff16600160009054906101000a900473ffffffffffffffffffffffffffffffffffffffff1673ffffffffffffffffffffffffffffffffffffffff1663081812fc846040518263ffffffff1660e01b81526004016118b591906132db565b60206040518083038186803b1580156118cd57600080fd5b505afa1580156118e1573d6000803e3d6000fd5b505050506040513d601f19601f820116820180604052508101906119059190612cd4565b73ffffffffffffffffffffffffffffffffffffffff1614806119d05750600160009054906101000a900473ffffffffffffffffffffffffffffffffffffffff1673ffffffffffffffffffffffffffffffffffffffff1663e985e9c582306040518363ffffffff1660e01b815260040161197f929190613102565b60206040518083038186803b15801561199757600080fd5b505afa1580156119ab573d6000803e3d6000fd5b505050506040513d601f19601f820116820180604052508101906119cf9190612d75565b5b6040518060400160405280600481526020017f303530330000000000000000000000000000000000000000000000000000000081525090611a47576040517f08c379a0000000000000000000000000000000000000000000000000000000008152600401611a3e9190613239565b60405180910390fd5b50600660009054906101000a900460ff16156040518060400160405280600481526020017f303531340000000000000000000000000000000000000000000000000000000081525090611ad0576040517f08c379a0000000000000000000000000000000000000000000000000000000008152600401611ac79190613239565b60405180910390fd5b506001600660006101000a81548160ff02191690831515021790555060006004600084815260200190815260200160002060006101000a81548160ff021916908315150217905550600060086103e834611b2a919061339c565b611b3491906133cd565b90508060056000828254611b489190613346565b9250508190555060008134611b5d9190613427565b9050600080600160009054906101000a900473ffffffffffffffffffffffffffffffffffffffff1673ffffffffffffffffffffffffffffffffffffffff16632a55205a87856040518363ffffffff1660e01b8152600401611bbf9291906132f6565b604080518083038186803b158015611bd657600080fd5b505afa158015611bea573d6000803e3d6000fd5b505050506040513d601f19601f82011682018060405250810190611c0e9190612d39565b9150915060008184611c209190613427565b905060008673ffffffffffffffffffffffffffffffffffffffff16826201d4c090604051611c4d906130d2565b600060405180830381858888f193505050503d8060008114611c8b576040519150601f19603f3d011682016040523d82523d6000602084013e611c90565b606091505b5050905080611cd4576040517f08c379a0000000000000000000000000000000000000000000000000000000008152600401611ccb906132bb565b60405180910390fd5b60008473ffffffffffffffffffffffffffffffffffffffff16846201d4c090604051611cff906130d2565b600060405180830381858888f193505050503d8060008114611d3d576040519150601f19603f3d011682016040523d82523d6000602084013e611d42565b606091505b5050905080611d86576040517f08c379a0000000000000000000000000000000000000000000000000000000008152600401611d7d9061325b565b60405180910390fd5b600160009054906101000a900473ffffffffffffffffffffffffffffffffffffffff1673ffffffffffffffffffffffffffffffffffffffff166342842e0e89611dcd612c25565b8c6040518463ffffffff1660e01b8152600401611dec9392919061312b565b600060405180830381600087803b158015611e0657600080fd5b505af1158015611e1a573d6000803e3d6000fd5b505050508773ffffffffffffffffffffffffffffffffffffffff167f510ffb4dcab972ae9d2007a58e13f1b0881776d23cd8f5cc32f8c5be2dbf70d284604051611e6491906132db565b60405180910390a28473ffffffffffffffffffffffffffffffffffffffff167fbc86de696edc3350c664d50abf25f24e7e1251f1469ad925b25fe36927270d4385604051611eb291906132db565b60405180910390a2611ec2612c25565b73ffffffffffffffffffffffffffffffffffffffff167fdbc09166e717a324fd239bd32af51e47b8348709b352f3223238c4de82ebaa768a34604051611f099291906132f6565b60405180910390a26000600660006101000a81548160ff021916908315150217905550505050505050505050565b600060026000838152602001908152602001600020549050919050565b60008054906101000a900473ffffffffffffffffffffffffffffffffffffffff1673ffffffffffffffffffffffffffffffffffffffff163373ffffffffffffffffffffffffffffffffffffffff1614611fe2576040517f08c379a0000000000000000000000000000000000000000000000000000000008152600401611fd99061329b565b60405180910390fd5b7f2d5a82cbc34270500c60b0532ca36cd4716c295bf0351b25835351664a3125bf60008054906101000a900473ffffffffffffffffffffffffffffffffffffffff166040516120319190613190565b60405180910390a16000600660006101000a81548160ff021916908315150217905550565b6000600160009054906101000a900473ffffffffffffffffffffffffffffffffffffffff1673ffffffffffffffffffffffffffffffffffffffff16636352211e846040518263ffffffff1660e01b81526004016120b391906132db565b60206040518083038186803b1580156120cb57600080fd5b505afa9250505080156120fc57506040513d601f19601f820116820180604052508101906120f99190612cd4565b60015b6121095760009050612288565b612111612c25565b73ffffffffffffffffffffffffffffffffffffffff168173ffffffffffffffffffffffffffffffffffffffff16146040518060400160405280600481526020017f3035303900000000000000000000000000000000000000000000000000000000815250906121b6576040517f08c379a00000000000000000000000000000000000000000000000000000000081526004016121ad9190613239565b60405180910390fd5b50506004600084815260200190815260200160002060009054906101000a900460ff16151582151514156040518060400160405280600481526020017f303530380000000000000000000000000000000000000000000000000000000081525090612257576040517f08c379a000000000000000000000000000000000000000000000000000000000815260040161224e9190613239565b60405180910390fd5b50816004600085815260200190815260200160002060006101000a81548160ff021916908315150217905550600190505b92915050565b60008054906101000a900473ffffffffffffffffffffffffffffffffffffffff1673ffffffffffffffffffffffffffffffffffffffff163373ffffffffffffffffffffffffffffffffffffffff161461231c576040517f08c379a00000000000000000000000000000000000000000000000000000000081526004016123139061329b565b60405180910390fd5b7f2d5a82cbc34270500c60b0532ca36cd4716c295bf0351b25835351664a3125bf60008054906101000a900473ffffffffffffffffffffffffffffffffffffffff1660405161236b9190613190565b60405180910390a1600073ffffffffffffffffffffffffffffffffffffffff168173ffffffffffffffffffffffffffffffffffffffff1614156040518060400160405280600481526020017f30313032000000000000000000000000000000000000000000000000000000008152509061241b576040517f08c379a00000000000000000000000000000000000000000000000000000000081526004016124129190613239565b60405180910390fd5b508073ffffffffffffffffffffffffffffffffffffffff1660008054906101000a900473ffffffffffffffffffffffffffffffffffffffff1673ffffffffffffffffffffffffffffffffffffffff167f8be0079c531659141344cd1fd0a4f28419497f9722a3daafe3b4186f6b6457e060405160405180910390a3806000806101000a81548173ffffffffffffffffffffffffffffffffffffffff021916908373ffffffffffffffffffffffffffffffffffffffff16021790555050565b6040518060400160405280600481526020017f303130310000000000000000000000000000000000000000000000000000000081525081565b600082116040518060400160405280600481526020017f30353037000000000000000000000000000000000000000000000000000000008152509061258d576040517f08c379a00000000000000000000000000000000000000000000000000000000081526004016125849190613239565b60405180910390fd5b5060026000828152602001908152602001600020548214156040518060400160405280600481526020017f30353038000000000000000000000000000000000000000000000000000000008152509061261c576040517f08c379a00000000000000000000000000000000000000000000000000000000081526004016126139190613239565b60405180910390fd5b506000600160009054906101000a900473ffffffffffffffffffffffffffffffffffffffff1673ffffffffffffffffffffffffffffffffffffffff16636352211e836040518263ffffffff1660e01b815260040161267a91906132db565b60206040518083038186803b15801561269257600080fd5b505afa1580156126a6573d6000803e3d6000fd5b505050506040513d601f19601f820116820180604052508101906126ca9190612cd4565b90506126d4612c25565b73ffffffffffffffffffffffffffffffffffffffff168173ffffffffffffffffffffffffffffffffffffffff161461270b57600080fd5b826002600084815260200190815260200160002081905550505050565b60008054906101000a900473ffffffffffffffffffffffffffffffffffffffff1673ffffffffffffffffffffffffffffffffffffffff163373ffffffffffffffffffffffffffffffffffffffff16146127b6576040517f08c379a00000000000000000000000000000000000000000000000000000000081526004016127ad9061329b565b60405180910390fd5b7f2d5a82cbc34270500c60b0532ca36cd4716c295bf0351b25835351664a3125bf60008054906101000a900473ffffffffffffffffffffffffffffffffffffffff166040516128059190613190565b60405180910390a1600083116040518060400160405280600481526020017f303530370000000000000000000000000000000000000000000000000000000081525090612888576040517f08c379a000000000000000000000000000000000000000000000000000000000815260040161287f9190613239565b60405180910390fd5b5060026000838152602001908152602001600020548314156040518060400160405280600481526020017f303530380000000000000000000000000000000000000000000000000000000081525090612917576040517f08c379a000000000000000000000000000000000000000000000000000000000815260040161290e9190613239565b60405180910390fd5b50600073ffffffffffffffffffffffffffffffffffffffff168173ffffffffffffffffffffffffffffffffffffffff161415801561298157503073ffffffffffffffffffffffffffffffffffffffff168173ffffffffffffffffffffffffffffffffffffffff1614155b6040518060400160405280600481526020017f3035303100000000000000000000000000000000000000000000000000000000815250906129f8576040517f08c379a00000000000000000000000000000000000000000000000000000000081526004016129ef9190613239565b60405180910390fd5b50600160009054906101000a900473ffffffffffffffffffffffffffffffffffffffff1673ffffffffffffffffffffffffffffffffffffffff16634f558e79836040518263ffffffff1660e01b8152600401612a5491906132db565b60206040518083038186803b158015612a6c57600080fd5b505afa158015612a80573d6000803e3d6000fd5b505050506040513d601f19601f82011682018060405250810190612aa49190612d75565b156040518060400160405280600481526020017f303531320000000000000000000000000000000000000000000000000000000081525090612b1c576040517f08c379a0000000000000000000000000000000000000000000000000000000008152600401612b139190613239565b60405180910390fd5b50826002600084815260200190815260200160002081905550806003600084815260200190815260200160002060006101000a81548173ffffffffffffffffffffffffffffffffffffffff021916908373ffffffffffffffffffffffffffffffffffffffff160217905550505050565b336000806101000a81548173ffffffffffffffffffffffffffffffffffffffff021916908373ffffffffffffffffffffffffffffffffffffffff1602179055507f2d5a82cbc34270500c60b0532ca36cd4716c295bf0351b25835351664a3125bf60008054906101000a900473ffffffffffffffffffffffffffffffffffffffff16604051612c1b9190613162565b60405180910390a1565b600033905090565b600081359050612c3c8161359f565b92915050565b600081519050612c518161359f565b92915050565b600081359050612c66816135b6565b92915050565b600081519050612c7b816135b6565b92915050565b600081359050612c90816135cd565b92915050565b600081519050612ca5816135cd565b92915050565b600060208284031215612cbd57600080fd5b6000612ccb84828501612c2d565b91505092915050565b600060208284031215612ce657600080fd5b6000612cf484828501612c42565b91505092915050565b60008060408385031215612d1057600080fd5b6000612d1e85828601612c2d565b9250506020612d2f85828601612c81565b9150509250929050565b60008060408385031215612d4c57600080fd5b6000612d5a85828601612c42565b9250506020612d6b85828601612c96565b9150509250929050565b600060208284031215612d8757600080fd5b6000612d9584828501612c6c565b91505092915050565b600060208284031215612db057600080fd5b6000612dbe84828501612c81565b91505092915050565b60008060408385031215612dda57600080fd5b6000612de885828601612c81565b9250506020612df985828601612c57565b9150509250929050565b60008060408385031215612e1657600080fd5b6000612e2485828601612c81565b9250506020612e3585828601612c81565b9150509250929050565b600080600060608486031215612e5457600080fd5b6000612e6286828701612c81565b9350506020612e7386828701612c81565b9250506040612e8486828701612c2d565b9150509250925092565b612e97816134a3565b82525050565b612ea68161345b565b82525050565b612eb58161346d565b82525050565b612ec4816134b5565b82525050565b6000612ed58261331f565b612edf8185613335565b9350612eef8185602086016134fd565b612ef88161358e565b840191505092915050565b6000612f10601783613335565b91507f506179696e6720526f79616c74696573206661696c65640000000000000000006000830152602082019050919050565b6000612f50602e83613335565b91507f496e697469616c697a61626c653a20636f6e747261637420697320616c72656160008301527f647920696e697469616c697a65640000000000000000000000000000000000006020830152604082019050919050565b6000612fb6600983613335565b91507f736574206f776e657200000000000000000000000000000000000000000000006000830152602082019050919050565b6000612ff6600983613335565b91507f4e6f74206f776e657200000000000000000000000000000000000000000000006000830152602082019050919050565b6000613036601483613335565b91507f506179696e672073656c6c6572206661696c65640000000000000000000000006000830152602082019050919050565b600061307660008361332a565b9150600082019050919050565b6000613090601c83613335565b91507f706173736564206f776e65727368697020726571756972656d656e74000000006000830152602082019050919050565b6130cc81613499565b82525050565b60006130dd82613069565b9150819050919050565b60006020820190506130fc6000830184612e9d565b92915050565b60006040820190506131176000830185612e9d565b6131246020830184612e9d565b9392505050565b60006060820190506131406000830186612e9d565b61314d6020830185612e8e565b61315a60408301846130c3565b949350505050565b60006040820190506131776000830184612e9d565b818103602083015261318881612fa9565b905092915050565b60006040820190506131a56000830184612e9d565b81810360208301526131b681613083565b905092915050565b60006080820190506131d36000830187612e9d565b6131e060208301866130c3565b6131ed6040830185612e9d565b6131fa60608301846130c3565b95945050505050565b60006020820190506132186000830184612eac565b92915050565b60006020820190506132336000830184612ebb565b92915050565b600060208201905081810360008301526132538184612eca565b905092915050565b6000602082019050818103600083015261327481612f03565b9050919050565b6000602082019050818103600083015261329481612f43565b9050919050565b600060208201905081810360008301526132b481612fe9565b9050919050565b600060208201905081810360008301526132d481613029565b9050919050565b60006020820190506132f060008301846130c3565b92915050565b600060408201905061330b60008301856130c3565b61331860208301846130c3565b9392505050565b600081519050919050565b600081905092915050565b600082825260208201905092915050565b600061335182613499565b915061335c83613499565b9250827fffffffffffffffffffffffffffffffffffffffffffffffffffffffffffffffff0382111561339157613390613530565b5b828201905092915050565b60006133a782613499565b91506133b283613499565b9250826133c2576133c161355f565b5b828204905092915050565b60006133d882613499565b91506133e383613499565b9250817fffffffffffffffffffffffffffffffffffffffffffffffffffffffffffffffff048311821515161561341c5761341b613530565b5b828202905092915050565b600061343282613499565b915061343d83613499565b9250828210156134505761344f613530565b5b828203905092915050565b600061346682613479565b9050919050565b60008115159050919050565b600073ffffffffffffffffffffffffffffffffffffffff82169050919050565b6000819050919050565b60006134ae826134d9565b9050919050565b60006134c0826134c7565b9050919050565b60006134d282613479565b9050919050565b60006134e4826134eb565b9050919050565b60006134f682613479565b9050919050565b60005b8381101561351b578082015181840152602081019050613500565b8381111561352a576000848401525b50505050565b7f4e487b7100000000000000000000000000000000000000000000000000000000600052601160045260246000fd5b7f4e487b7100000000000000000000000000000000000000000000000000000000600052601260045260246000fd5b6000601f19601f8301169050919050565b6135a88161345b565b81146135b357600080fd5b50565b6135bf8161346d565b81146135ca57600080fd5b50565b6135d681613499565b81146135e157600080fd5b5056fea2646970667358221220e14c897a30fb67e092532de4da8cf5d1b99a487f1ca104910e6e7104bd41836e64736f6c63430008000033",
  "linkReferences": {},
  "deployedLinkReferences": {}
}