{
  "_format": "hh-sol-artifact-1",
  "contractName": "SWDMarketPlace",
  "sourceName": "contracts/NMWD/SWDMarketPlace.sol",
  "abi": [
    {
      "anonymous": false,
      "inputs": [
        {
          "indexed": true,
          "internalType": "address",
          "name": "payer",
          "type": "address"
        },
        {
          "indexed": false,
          "internalType": "uint256",
          "name": "tokenId",
          "type": "uint256"
        },
        {
          "indexed": false,
          "internalType": "uint256",
          "name": "amount",
          "type": "uint256"
        }
      ],
      "name": "NFTSent",
      "type": "event"
    },
    {
      "anonymous": false,
      "inputs": [
        {
          "indexed": true,
          "internalType": "address",
          "name": "previousOwner",
          "type": "address"
        },
        {
          "indexed": true,
          "internalType": "address",
          "name": "newOwner",
          "type": "address"
        }
      ],
      "name": "OwnershipTransferred",
      "type": "event"
    },
    {
      "anonymous": false,
      "inputs": [
        {
          "indexed": true,
          "internalType": "address",
          "name": "payee",
          "type": "address"
        },
        {
          "indexed": false,
          "internalType": "uint256",
          "name": "amount",
          "type": "uint256"
        }
      ],
      "name": "RoyaltyPaid",
      "type": "event"
    },
    {
      "anonymous": false,
      "inputs": [
        {
          "indexed": true,
          "internalType": "address",
          "name": "payee",
          "type": "address"
        },
        {
          "indexed": false,
          "internalType": "uint256",
          "name": "amount",
          "type": "uint256"
        }
      ],
      "name": "SecurityWithdrawal",
      "type": "event"
    },
    {
      "anonymous": false,
      "inputs": [
        {
          "indexed": true,
          "internalType": "address",
          "name": "payee",
          "type": "address"
        },
        {
          "indexed": false,
          "internalType": "uint256",
          "name": "amount",
          "type": "uint256"
        }
      ],
      "name": "Sent",
      "type": "event"
    },
    {
      "anonymous": false,
      "inputs": [
        {
          "indexed": false,
          "internalType": "address",
          "name": "deliveredTo",
          "type": "address"
        },
        {
          "indexed": false,
          "internalType": "string",
          "name": "msg",
          "type": "string"
        }
      ],
      "name": "_msg",
      "type": "event"
    },
    {
      "inputs": [],
      "name": "CANNOT_TRANSFER_TO_ZERO_ADDRESS",
      "outputs": [
        {
          "internalType": "string",
          "name": "",
          "type": "string"
        }
      ],
      "stateMutability": "view",
      "type": "function"
    },
    {
      "inputs": [],
      "name": "NOT_CURRENT_OWNER",
      "outputs": [
        {
          "internalType": "string",
          "name": "",
          "type": "string"
        }
      ],
      "stateMutability": "view",
      "type": "function"
    },
    {
      "inputs": [],
      "name": "TokenContract",
      "outputs": [
        {
          "internalType": "contract StopTheWarOnDrugs",
          "name": "",
          "type": "address"
        }
      ],
      "stateMutability": "view",
      "type": "function"
    },
    {
      "inputs": [
        {
          "internalType": "uint256",
          "name": "_tokenId",
          "type": "uint256"
        }
      ],
      "name": "burn",
      "outputs": [],
      "stateMutability": "nonpayable",
      "type": "function"
    },
    {
      "inputs": [],
      "name": "getBackOwnership",
      "outputs": [],
      "stateMutability": "nonpayable",
      "type": "function"
    },
    {
      "inputs": [
        {
          "internalType": "uint256",
          "name": "_tokenId",
          "type": "uint256"
        }
      ],
      "name": "getForSale",
      "outputs": [
        {
          "internalType": "bool",
          "name": "",
          "type": "bool"
        }
      ],
      "stateMutability": "view",
      "type": "function"
    },
    {
      "inputs": [],
      "name": "getMarketPlaceBalance",
      "outputs": [
        {
          "internalType": "uint256",
          "name": "",
          "type": "uint256"
        }
      ],
      "stateMutability": "view",
      "type": "function"
    },
    {
      "inputs": [],
      "name": "getOwner",
      "outputs": [
        {
          "internalType": "address",
          "name": "",
          "type": "address"
        }
      ],
      "stateMutability": "view",
      "type": "function"
    },
    {
      "inputs": [
        {
          "internalType": "uint256",
          "name": "_tokenId",
          "type": "uint256"
        }
      ],
      "name": "getPrice",
      "outputs": [
        {
          "internalType": "uint256",
          "name": "",
          "type": "uint256"
        }
      ],
      "stateMutability": "view",
      "type": "function"
    },
    {
      "inputs": [],
      "name": "initialize",
      "outputs": [],
      "stateMutability": "nonpayable",
      "type": "function"
    },
    {
      "inputs": [
        {
          "internalType": "address",
          "name": "_to",
          "type": "address"
        },
        {
          "internalType": "uint256",
          "name": "_tokenId",
          "type": "uint256"
        }
      ],
      "name": "mintThroughPurchase",
      "outputs": [],
      "stateMutability": "payable",
      "type": "function"
    },
    {
      "inputs": [],
      "name": "owner",
      "outputs": [
        {
          "internalType": "address",
          "name": "",
          "type": "address"
        }
      ],
      "stateMutability": "view",
      "type": "function"
    },
    {
      "inputs": [
        {
          "internalType": "uint256",
          "name": "_tokenId",
          "type": "uint256"
        }
      ],
      "name": "purchaseToken",
      "outputs": [],
      "stateMutability": "payable",
      "type": "function"
    },
    {
      "inputs": [
        {
          "internalType": "uint256",
          "name": "_tokenId",
          "type": "uint256"
        },
        {
          "internalType": "bool",
          "name": "_forSale",
          "type": "bool"
        }
      ],
      "name": "setForSale",
      "outputs": [
        {
          "internalType": "bool",
          "name": "",
          "type": "bool"
        }
      ],
      "stateMutability": "nonpayable",
      "type": "function"
    },
    {
      "inputs": [
        {
          "internalType": "uint256",
          "name": "_price",
          "type": "uint256"
        },
        {
          "internalType": "uint256",
          "name": "_tokenId",
          "type": "uint256"
        }
      ],
      "name": "setPrice",
      "outputs": [],
      "stateMutability": "nonpayable",
      "type": "function"
    },
    {
      "inputs": [
        {
          "internalType": "uint256",
          "name": "_price",
          "type": "uint256"
        },
        {
          "internalType": "uint256",
          "name": "_tokenId",
          "type": "uint256"
        },
        {
          "internalType": "address",
          "name": "_royaltyAddress",
          "type": "address"
        }
      ],
      "name": "setPriceForMinting",
      "outputs": [],
      "stateMutability": "nonpayable",
      "type": "function"
    },
    {
      "inputs": [
        {
          "internalType": "address",
          "name": "_newOwner",
          "type": "address"
        }
      ],
      "name": "transferOwnership",
      "outputs": [],
      "stateMutability": "nonpayable",
      "type": "function"
    },
    {
      "inputs": [
        {
          "internalType": "address",
          "name": "nmwdAddress",
          "type": "address"
        }
      ],
      "name": "updateNMWDcontract",
      "outputs": [],
      "stateMutability": "nonpayable",
      "type": "function"
    },
    {
      "inputs": [
        {
          "internalType": "address",
          "name": "_payee",
          "type": "address"
        },
        {
          "internalType": "uint256",
          "name": "_amount",
          "type": "uint256"
        }
      ],
      "name": "withdrawFromContract",
      "outputs": [],
      "stateMutability": "nonpayable",
      "type": "function"
    }
  ],
  "bytecode": "0x608060405234801561001057600080fd5b50613288806100206000396000f3fe6080604052600436106101145760003560e01c8063b0e857ec116100a0578063f0a6c16b11610064578063f0a6c16b1461034b578063f2fde38b14610388578063f3fe3bc3146103b1578063f7d97577146103dc578063f9b4f4bb1461040557610114565b8063b0e857ec14610282578063b4c49d09146102ab578063bec4dd85146102d6578063c2db2c42146102f2578063e75722301461030e57610114565b8063837381fa116100e7578063837381fa146101ad578063860d248a146101d6578063893d20e8146102015780638da5cb5b1461022c5780639688738b1461025757610114565b80632abacf8c1461011957806342966c68146101565780635c93bec71461017f5780638129fc1c14610196575b600080fd5b34801561012557600080fd5b50610140600480360381019061013b9190612a6c565b61042e565b60405161014d9190612e91565b60405180910390f35b34801561016257600080fd5b5061017d60048036038101906101789190612a6c565b610458565b005b34801561018b57600080fd5b506101946105cd565b005b3480156101a257600080fd5b506101ab61082c565b005b3480156101b957600080fd5b506101d460048036038101906101cf91906129cb565b610910565b005b3480156101e257600080fd5b506101eb610d0b565b6040516101f89190612ec7565b60405180910390f35b34801561020d57600080fd5b50610216610d44565b6040516102239190612d75565b60405180910390f35b34801561023857600080fd5b50610241610d6d565b60405161024e9190612d75565b60405180910390f35b34801561026357600080fd5b5061026c610d91565b6040516102799190612eac565b60405180910390f35b34801561028e57600080fd5b506102a960048036038101906102a49190612979565b610db7565b005b3480156102b757600080fd5b506102c061108b565b6040516102cd9190612f49565b60405180910390f35b6102f060048036038101906102eb91906129cb565b611095565b005b61030c60048036038101906103079190612a6c565b611374565b005b34801561031a57600080fd5b5061033560048036038101906103309190612a6c565b611d07565b6040516103429190612f49565b60405180910390f35b34801561035757600080fd5b50610372600480360381019061036d9190612a95565b611d24565b60405161037f9190612e91565b60405180910390f35b34801561039457600080fd5b506103af60048036038101906103aa9190612979565b611f5c565b005b3480156103bd57600080fd5b506103c66121a7565b6040516103d39190612ec7565b60405180910390f35b3480156103e857600080fd5b5061040360048036038101906103fe9190612ad1565b6121e0565b005b34801561041157600080fd5b5061042c60048036038101906104279190612b0d565b6123f6565b005b60006004600083815260200190815260200160002060009054906101000a900460ff169050919050565b60008054906101000a900473ffffffffffffffffffffffffffffffffffffffff1673ffffffffffffffffffffffffffffffffffffffff163373ffffffffffffffffffffffffffffffffffffffff16146104e6576040517f08c379a00000000000000000000000000000000000000000000000000000000081526004016104dd90612f29565b60405180910390fd5b7f2d5a82cbc34270500c60b0532ca36cd4716c295bf0351b25835351664a3125bf60008054906101000a900473ffffffffffffffffffffffffffffffffffffffff166040516105359190612e1e565b60405180910390a1600160009054906101000a900473ffffffffffffffffffffffffffffffffffffffff1673ffffffffffffffffffffffffffffffffffffffff166342966c68826040518263ffffffff1660e01b81526004016105989190612f49565b600060405180830381600087803b1580156105b257600080fd5b505af11580156105c6573d6000803e3d6000fd5b5050505050565b60008054906101000a900473ffffffffffffffffffffffffffffffffffffffff1673ffffffffffffffffffffffffffffffffffffffff163373ffffffffffffffffffffffffffffffffffffffff161461065b576040517f08c379a000000000000000000000000000000000000000000000000000000000815260040161065290612f29565b60405180910390fd5b7f2d5a82cbc34270500c60b0532ca36cd4716c295bf0351b25835351664a3125bf60008054906101000a900473ffffffffffffffffffffffffffffffffffffffff166040516106aa9190612e1e565b60405180910390a1600073ffffffffffffffffffffffffffffffffffffffff16600160009054906101000a900473ffffffffffffffffffffffffffffffffffffffff1673ffffffffffffffffffffffffffffffffffffffff1614156040518060400160405280600481526020017f30353032000000000000000000000000000000000000000000000000000000008152509061077c576040517f08c379a00000000000000000000000000000000000000000000000000000000081526004016107739190612ec7565b60405180910390fd5b50600160009054906101000a900473ffffffffffffffffffffffffffffffffffffffff1673ffffffffffffffffffffffffffffffffffffffff1663f2fde38b60008054906101000a900473ffffffffffffffffffffffffffffffffffffffff166040518263ffffffff1660e01b81526004016107f89190612d75565b600060405180830381600087803b15801561081257600080fd5b505af1158015610826573d6000803e3d6000fd5b50505050565b600060159054906101000a900460ff16806108545750600060149054906101000a900460ff16155b610893576040517f08c379a000000000000000000000000000000000000000000000000000000000815260040161088a90612f09565b60405180910390fd5b60008060159054906101000a900460ff1615905080156108e4576001600060156101000a81548160ff0219169083151502179055506001600060146101000a81548160ff0219169083151502179055505b6108ec61285a565b801561090d5760008060156101000a81548160ff0219169083151502179055505b50565b60008054906101000a900473ffffffffffffffffffffffffffffffffffffffff1673ffffffffffffffffffffffffffffffffffffffff163373ffffffffffffffffffffffffffffffffffffffff161461099e576040517f08c379a000000000000000000000000000000000000000000000000000000000815260040161099590612f29565b60405180910390fd5b7f2d5a82cbc34270500c60b0532ca36cd4716c295bf0351b25835351664a3125bf60008054906101000a900473ffffffffffffffffffffffffffffffffffffffff166040516109ed9190612e1e565b60405180910390a1600073ffffffffffffffffffffffffffffffffffffffff168273ffffffffffffffffffffffffffffffffffffffff1614158015610a5e57503073ffffffffffffffffffffffffffffffffffffffff168273ffffffffffffffffffffffffffffffffffffffff1614155b610a6757600080fd5b8060055410156040518060400160405280600481526020017f303531300000000000000000000000000000000000000000000000000000000081525090610ae4576040517f08c379a0000000000000000000000000000000000000000000000000000000008152600401610adb9190612ec7565b60405180910390fd5b50600081118015610af55750478111155b6040518060400160405280600481526020017f303530360000000000000000000000000000000000000000000000000000000081525090610b6c576040517f08c379a0000000000000000000000000000000000000000000000000000000008152600401610b639190612ec7565b60405180910390fd5b504760055414610c5857600060058190555060008054906101000a900473ffffffffffffffffffffffffffffffffffffffff1673ffffffffffffffffffffffffffffffffffffffff166108fc479081150290604051600060405180830381858888f19350505050158015610be4573d6000803e3d6000fd5b5060008054906101000a900473ffffffffffffffffffffffffffffffffffffffff1673ffffffffffffffffffffffffffffffffffffffff167f6dfc6e5b54e9b8b518c0d73fe237bd1a47d57856827cbf13853bee71425c6a9082604051610c4b9190612f49565b60405180910390a2610d07565b8060056000828254610c6a9190613095565b925050819055508173ffffffffffffffffffffffffffffffffffffffff166108fc829081150290604051600060405180830381858888f19350505050158015610cb7573d6000803e3d6000fd5b508173ffffffffffffffffffffffffffffffffffffffff167f510ffb4dcab972ae9d2007a58e13f1b0881776d23cd8f5cc32f8c5be2dbf70d282604051610cfe9190612f49565b60405180910390a25b5050565b6040518060400160405280600481526020017f303130320000000000000000000000000000000000000000000000000000000081525081565b60008060009054906101000a900473ffffffffffffffffffffffffffffffffffffffff16905090565b60008054906101000a900473ffffffffffffffffffffffffffffffffffffffff1681565b600160009054906101000a900473ffffffffffffffffffffffffffffffffffffffff1681565b60008054906101000a900473ffffffffffffffffffffffffffffffffffffffff1673ffffffffffffffffffffffffffffffffffffffff163373ffffffffffffffffffffffffffffffffffffffff1614610e45576040517f08c379a0000000000000000000000000000000000000000000000000000000008152600401610e3c90612f29565b60405180910390fd5b7f2d5a82cbc34270500c60b0532ca36cd4716c295bf0351b25835351664a3125bf60008054906101000a900473ffffffffffffffffffffffffffffffffffffffff16604051610e949190612e1e565b60405180910390a1600073ffffffffffffffffffffffffffffffffffffffff168173ffffffffffffffffffffffffffffffffffffffff1614158015610f0557503073ffffffffffffffffffffffffffffffffffffffff168173ffffffffffffffffffffffffffffffffffffffff1614155b6040518060400160405280600481526020017f303530310000000000000000000000000000000000000000000000000000000081525090610f7c576040517f08c379a0000000000000000000000000000000000000000000000000000000008152600401610f739190612ec7565b60405180910390fd5b508073ffffffffffffffffffffffffffffffffffffffff16600160009054906101000a900473ffffffffffffffffffffffffffffffffffffffff1673ffffffffffffffffffffffffffffffffffffffff1614156040518060400160405280600481526020017f303530380000000000000000000000000000000000000000000000000000000081525090611046576040517f08c379a000000000000000000000000000000000000000000000000000000000815260040161103d9190612ec7565b60405180910390fd5b5080600160006101000a81548173ffffffffffffffffffffffffffffffffffffffff021916908373ffffffffffffffffffffffffffffffffffffffff16021790555050565b6000600554905090565b60006002600083815260200190815260200160002054116040518060400160405280600481526020017f303531330000000000000000000000000000000000000000000000000000000081525090611123576040517f08c379a000000000000000000000000000000000000000000000000000000000815260040161111a9190612ec7565b60405180910390fd5b5060026000828152602001908152602001600020543410156040518060400160405280600481526020017f3035303600000000000000000000000000000000000000000000000000000000815250906111b2576040517f08c379a00000000000000000000000000000000000000000000000000000000081526004016111a99190612ec7565b60405180910390fd5b50600073ffffffffffffffffffffffffffffffffffffffff166111d36128f3565b73ffffffffffffffffffffffffffffffffffffffff161415801561122a57503073ffffffffffffffffffffffffffffffffffffffff166112116128f3565b73ffffffffffffffffffffffffffffffffffffffff1614155b61123357600080fd5b60006003600083815260200190815260200160002060009054906101000a900473ffffffffffffffffffffffffffffffffffffffff16905060006101f4905034600560008282546112849190612fb4565b92505081905550600160009054906101000a900473ffffffffffffffffffffffffffffffffffffffff1673ffffffffffffffffffffffffffffffffffffffff16633c173a4f858585856040518563ffffffff1660e01b81526004016112ec9493929190612e4c565b600060405180830381600087803b15801561130657600080fd5b505af115801561131a573d6000803e3d6000fd5b505050508373ffffffffffffffffffffffffffffffffffffffff167fdbc09166e717a324fd239bd32af51e47b8348709b352f3223238c4de82ebaa768434604051611366929190612f64565b60405180910390a250505050565b6004600082815260200190815260200160002060009054906101000a900460ff166040518060400160405280600481526020017f30353035000000000000000000000000000000000000000000000000000000008152509061140c576040517f08c379a00000000000000000000000000000000000000000000000000000000081526004016114039190612ec7565b60405180910390fd5b50600073ffffffffffffffffffffffffffffffffffffffff1661142d6128f3565b73ffffffffffffffffffffffffffffffffffffffff161415801561148457503073ffffffffffffffffffffffffffffffffffffffff1661146b6128f3565b73ffffffffffffffffffffffffffffffffffffffff1614155b61148d57600080fd5b60006002600083815260200190815260200160002054116040518060400160405280600481526020017f30353133000000000000000000000000000000000000000000000000000000008152509061151b576040517f08c379a00000000000000000000000000000000000000000000000000000000081526004016115129190612ec7565b60405180910390fd5b50600260008281526020019081526020016000205434101561153c57600080fd5b600073ffffffffffffffffffffffffffffffffffffffff16600160009054906101000a900473ffffffffffffffffffffffffffffffffffffffff1673ffffffffffffffffffffffffffffffffffffffff16636352211e836040518263ffffffff1660e01b81526004016115af9190612f49565b60206040518083038186803b1580156115c757600080fd5b505afa1580156115db573d6000803e3d6000fd5b505050506040513d601f19601f820116820180604052508101906115ff91906129a2565b73ffffffffffffffffffffffffffffffffffffffff1614156040518060400160405280600481526020017f30353034000000000000000000000000000000000000000000000000000000008152509061168e576040517f08c379a00000000000000000000000000000000000000000000000000000000081526004016116859190612ec7565b60405180910390fd5b506000600160009054906101000a900473ffffffffffffffffffffffffffffffffffffffff1673ffffffffffffffffffffffffffffffffffffffff16636352211e836040518263ffffffff1660e01b81526004016116ec9190612f49565b60206040518083038186803b15801561170457600080fd5b505afa158015611718573d6000803e3d6000fd5b505050506040513d601f19601f8201168201806040525081019061173c91906129a2565b90503073ffffffffffffffffffffffffffffffffffffffff16600160009054906101000a900473ffffffffffffffffffffffffffffffffffffffff1673ffffffffffffffffffffffffffffffffffffffff1663081812fc846040518263ffffffff1660e01b81526004016117b09190612f49565b60206040518083038186803b1580156117c857600080fd5b505afa1580156117dc573d6000803e3d6000fd5b505050506040513d601f19601f8201168201806040525081019061180091906129a2565b73ffffffffffffffffffffffffffffffffffffffff1614806118cb5750600160009054906101000a900473ffffffffffffffffffffffffffffffffffffffff1673ffffffffffffffffffffffffffffffffffffffff1663e985e9c582306040518363ffffffff1660e01b815260040161187a929190612d90565b60206040518083038186803b15801561189257600080fd5b505afa1580156118a6573d6000803e3d6000fd5b505050506040513d601f19601f820116820180604052508101906118ca9190612a43565b5b6040518060400160405280600481526020017f303530330000000000000000000000000000000000000000000000000000000081525090611942576040517f08c379a00000000000000000000000000000000000000000000000000000000081526004016119399190612ec7565b60405180910390fd5b5060006004600084815260200190815260200160002060006101000a81548160ff021916908315150217905550600060086103e834611981919061300a565b61198b919061303b565b9050806005600082825461199f9190612fb4565b92505081905550600081346119b49190613095565b9050600080600160009054906101000a900473ffffffffffffffffffffffffffffffffffffffff1673ffffffffffffffffffffffffffffffffffffffff16632a55205a87856040518363ffffffff1660e01b8152600401611a16929190612f64565b604080518083038186803b158015611a2d57600080fd5b505afa158015611a41573d6000803e3d6000fd5b505050506040513d601f19601f82011682018060405250810190611a659190612a07565b9150915060008184611a779190613095565b90508573ffffffffffffffffffffffffffffffffffffffff166108fc829081150290604051600060405180830381858888f19350505050158015611abf573d6000803e3d6000fd5b5060008373ffffffffffffffffffffffffffffffffffffffff16836201d4c090604051611aeb90612d60565b600060405180830381858888f193505050503d8060008114611b29576040519150601f19603f3d011682016040523d82523d6000602084013e611b2e565b606091505b5050905080611b72576040517f08c379a0000000000000000000000000000000000000000000000000000000008152600401611b6990612ee9565b60405180910390fd5b600160009054906101000a900473ffffffffffffffffffffffffffffffffffffffff1673ffffffffffffffffffffffffffffffffffffffff166342842e0e88611bb96128f3565b8b6040518463ffffffff1660e01b8152600401611bd893929190612db9565b600060405180830381600087803b158015611bf257600080fd5b505af1158015611c06573d6000803e3d6000fd5b505050508673ffffffffffffffffffffffffffffffffffffffff167f510ffb4dcab972ae9d2007a58e13f1b0881776d23cd8f5cc32f8c5be2dbf70d283604051611c509190612f49565b60405180910390a28373ffffffffffffffffffffffffffffffffffffffff167fbc86de696edc3350c664d50abf25f24e7e1251f1469ad925b25fe36927270d4384604051611c9e9190612f49565b60405180910390a2611cae6128f3565b73ffffffffffffffffffffffffffffffffffffffff167fdbc09166e717a324fd239bd32af51e47b8348709b352f3223238c4de82ebaa768934604051611cf5929190612f64565b60405180910390a25050505050505050565b600060026000838152602001908152602001600020549050919050565b6000600160009054906101000a900473ffffffffffffffffffffffffffffffffffffffff1673ffffffffffffffffffffffffffffffffffffffff16636352211e846040518263ffffffff1660e01b8152600401611d819190612f49565b60206040518083038186803b158015611d9957600080fd5b505afa925050508015611dca57506040513d601f19601f82011682018060405250810190611dc791906129a2565b60015b611dd75760009050611f56565b611ddf6128f3565b73ffffffffffffffffffffffffffffffffffffffff168173ffffffffffffffffffffffffffffffffffffffff16146040518060400160405280600481526020017f303530390000000000000000000000000000000000000000000000000000000081525090611e84576040517f08c379a0000000000000000000000000000000000000000000000000000000008152600401611e7b9190612ec7565b60405180910390fd5b50506004600084815260200190815260200160002060009054906101000a900460ff16151582151514156040518060400160405280600481526020017f303530380000000000000000000000000000000000000000000000000000000081525090611f25576040517f08c379a0000000000000000000000000000000000000000000000000000000008152600401611f1c9190612ec7565b60405180910390fd5b50816004600085815260200190815260200160002060006101000a81548160ff021916908315150217905550600190505b92915050565b60008054906101000a900473ffffffffffffffffffffffffffffffffffffffff1673ffffffffffffffffffffffffffffffffffffffff163373ffffffffffffffffffffffffffffffffffffffff1614611fea576040517f08c379a0000000000000000000000000000000000000000000000000000000008152600401611fe190612f29565b60405180910390fd5b7f2d5a82cbc34270500c60b0532ca36cd4716c295bf0351b25835351664a3125bf60008054906101000a900473ffffffffffffffffffffffffffffffffffffffff166040516120399190612e1e565b60405180910390a1600073ffffffffffffffffffffffffffffffffffffffff168173ffffffffffffffffffffffffffffffffffffffff1614156040518060400160405280600481526020017f3031303200000000000000000000000000000000000000000000000000000000815250906120e9576040517f08c379a00000000000000000000000000000000000000000000000000000000081526004016120e09190612ec7565b60405180910390fd5b508073ffffffffffffffffffffffffffffffffffffffff1660008054906101000a900473ffffffffffffffffffffffffffffffffffffffff1673ffffffffffffffffffffffffffffffffffffffff167f8be0079c531659141344cd1fd0a4f28419497f9722a3daafe3b4186f6b6457e060405160405180910390a3806000806101000a81548173ffffffffffffffffffffffffffffffffffffffff021916908373ffffffffffffffffffffffffffffffffffffffff16021790555050565b6040518060400160405280600481526020017f303130310000000000000000000000000000000000000000000000000000000081525081565b600082116040518060400160405280600481526020017f30353037000000000000000000000000000000000000000000000000000000008152509061225b576040517f08c379a00000000000000000000000000000000000000000000000000000000081526004016122529190612ec7565b60405180910390fd5b5060026000828152602001908152602001600020548214156040518060400160405280600481526020017f3035303800000000000000000000000000000000000000000000000000000000815250906122ea576040517f08c379a00000000000000000000000000000000000000000000000000000000081526004016122e19190612ec7565b60405180910390fd5b506000600160009054906101000a900473ffffffffffffffffffffffffffffffffffffffff1673ffffffffffffffffffffffffffffffffffffffff16636352211e836040518263ffffffff1660e01b81526004016123489190612f49565b60206040518083038186803b15801561236057600080fd5b505afa158015612374573d6000803e3d6000fd5b505050506040513d601f19601f8201168201806040525081019061239891906129a2565b90506123a26128f3565b73ffffffffffffffffffffffffffffffffffffffff168173ffffffffffffffffffffffffffffffffffffffff16146123d957600080fd5b826002600084815260200190815260200160002081905550505050565b60008054906101000a900473ffffffffffffffffffffffffffffffffffffffff1673ffffffffffffffffffffffffffffffffffffffff163373ffffffffffffffffffffffffffffffffffffffff1614612484576040517f08c379a000000000000000000000000000000000000000000000000000000000815260040161247b90612f29565b60405180910390fd5b7f2d5a82cbc34270500c60b0532ca36cd4716c295bf0351b25835351664a3125bf60008054906101000a900473ffffffffffffffffffffffffffffffffffffffff166040516124d39190612e1e565b60405180910390a1600083116040518060400160405280600481526020017f303530370000000000000000000000000000000000000000000000000000000081525090612556576040517f08c379a000000000000000000000000000000000000000000000000000000000815260040161254d9190612ec7565b60405180910390fd5b5060026000838152602001908152602001600020548314156040518060400160405280600481526020017f3035303800000000000000000000000000000000000000000000000000000000815250906125e5576040517f08c379a00000000000000000000000000000000000000000000000000000000081526004016125dc9190612ec7565b60405180910390fd5b50600073ffffffffffffffffffffffffffffffffffffffff168173ffffffffffffffffffffffffffffffffffffffff161415801561264f57503073ffffffffffffffffffffffffffffffffffffffff168173ffffffffffffffffffffffffffffffffffffffff1614155b6040518060400160405280600481526020017f3035303100000000000000000000000000000000000000000000000000000000815250906126c6576040517f08c379a00000000000000000000000000000000000000000000000000000000081526004016126bd9190612ec7565b60405180910390fd5b50600160009054906101000a900473ffffffffffffffffffffffffffffffffffffffff1673ffffffffffffffffffffffffffffffffffffffff16634f558e79836040518263ffffffff1660e01b81526004016127229190612f49565b60206040518083038186803b15801561273a57600080fd5b505afa15801561274e573d6000803e3d6000fd5b505050506040513d601f19601f820116820180604052508101906127729190612a43565b156040518060400160405280600481526020017f3035313200000000000000000000000000000000000000000000000000000000815250906127ea576040517f08c379a00000000000000000000000000000000000000000000000000000000081526004016127e19190612ec7565b60405180910390fd5b50826002600084815260200190815260200160002081905550806003600084815260200190815260200160002060006101000a81548173ffffffffffffffffffffffffffffffffffffffff021916908373ffffffffffffffffffffffffffffffffffffffff160217905550505050565b336000806101000a81548173ffffffffffffffffffffffffffffffffffffffff021916908373ffffffffffffffffffffffffffffffffffffffff1602179055507f2d5a82cbc34270500c60b0532ca36cd4716c295bf0351b25835351664a3125bf60008054906101000a900473ffffffffffffffffffffffffffffffffffffffff166040516128e99190612df0565b60405180910390a1565b600033905090565b60008135905061290a8161320d565b92915050565b60008151905061291f8161320d565b92915050565b60008135905061293481613224565b92915050565b60008151905061294981613224565b92915050565b60008135905061295e8161323b565b92915050565b6000815190506129738161323b565b92915050565b60006020828403121561298b57600080fd5b6000612999848285016128fb565b91505092915050565b6000602082840312156129b457600080fd5b60006129c284828501612910565b91505092915050565b600080604083850312156129de57600080fd5b60006129ec858286016128fb565b92505060206129fd8582860161294f565b9150509250929050565b60008060408385031215612a1a57600080fd5b6000612a2885828601612910565b9250506020612a3985828601612964565b9150509250929050565b600060208284031215612a5557600080fd5b6000612a638482850161293a565b91505092915050565b600060208284031215612a7e57600080fd5b6000612a8c8482850161294f565b91505092915050565b60008060408385031215612aa857600080fd5b6000612ab68582860161294f565b9250506020612ac785828601612925565b9150509250929050565b60008060408385031215612ae457600080fd5b6000612af28582860161294f565b9250506020612b038582860161294f565b9150509250929050565b600080600060608486031215612b2257600080fd5b6000612b308682870161294f565b9350506020612b418682870161294f565b9250506040612b52868287016128fb565b9150509250925092565b612b6581613111565b82525050565b612b74816130c9565b82525050565b612b83816130db565b82525050565b612b9281613123565b82525050565b6000612ba382612f8d565b612bad8185612fa3565b9350612bbd81856020860161316b565b612bc6816131fc565b840191505092915050565b6000612bde601783612fa3565b91507f506179696e6720526f79616c74696573206661696c65640000000000000000006000830152602082019050919050565b6000612c1e602e83612fa3565b91507f496e697469616c697a61626c653a20636f6e747261637420697320616c72656160008301527f647920696e697469616c697a65640000000000000000000000000000000000006020830152604082019050919050565b6000612c84600983612fa3565b91507f736574206f776e657200000000000000000000000000000000000000000000006000830152602082019050919050565b6000612cc4600983612fa3565b91507f4e6f74206f776e657200000000000000000000000000000000000000000000006000830152602082019050919050565b6000612d04600083612f98565b9150600082019050919050565b6000612d1e601c83612fa3565b91507f706173736564206f776e65727368697020726571756972656d656e74000000006000830152602082019050919050565b612d5a81613107565b82525050565b6000612d6b82612cf7565b9150819050919050565b6000602082019050612d8a6000830184612b6b565b92915050565b6000604082019050612da56000830185612b6b565b612db26020830184612b6b565b9392505050565b6000606082019050612dce6000830186612b6b565b612ddb6020830185612b5c565b612de86040830184612d51565b949350505050565b6000604082019050612e056000830184612b6b565b8181036020830152612e1681612c77565b905092915050565b6000604082019050612e336000830184612b6b565b8181036020830152612e4481612d11565b905092915050565b6000608082019050612e616000830187612b6b565b612e6e6020830186612d51565b612e7b6040830185612b6b565b612e886060830184612d51565b95945050505050565b6000602082019050612ea66000830184612b7a565b92915050565b6000602082019050612ec16000830184612b89565b92915050565b60006020820190508181036000830152612ee18184612b98565b905092915050565b60006020820190508181036000830152612f0281612bd1565b9050919050565b60006020820190508181036000830152612f2281612c11565b9050919050565b60006020820190508181036000830152612f4281612cb7565b9050919050565b6000602082019050612f5e6000830184612d51565b92915050565b6000604082019050612f796000830185612d51565b612f866020830184612d51565b9392505050565b600081519050919050565b600081905092915050565b600082825260208201905092915050565b6000612fbf82613107565b9150612fca83613107565b9250827fffffffffffffffffffffffffffffffffffffffffffffffffffffffffffffffff03821115612fff57612ffe61319e565b5b828201905092915050565b600061301582613107565b915061302083613107565b9250826130305761302f6131cd565b5b828204905092915050565b600061304682613107565b915061305183613107565b9250817fffffffffffffffffffffffffffffffffffffffffffffffffffffffffffffffff048311821515161561308a5761308961319e565b5b828202905092915050565b60006130a082613107565b91506130ab83613107565b9250828210156130be576130bd61319e565b5b828203905092915050565b60006130d4826130e7565b9050919050565b60008115159050919050565b600073ffffffffffffffffffffffffffffffffffffffff82169050919050565b6000819050919050565b600061311c82613147565b9050919050565b600061312e82613135565b9050919050565b6000613140826130e7565b9050919050565b600061315282613159565b9050919050565b6000613164826130e7565b9050919050565b60005b8381101561318957808201518184015260208101905061316e565b83811115613198576000848401525b50505050565b7f4e487b7100000000000000000000000000000000000000000000000000000000600052601160045260246000fd5b7f4e487b7100000000000000000000000000000000000000000000000000000000600052601260045260246000fd5b6000601f19601f8301169050919050565b613216816130c9565b811461322157600080fd5b50565b61322d816130db565b811461323857600080fd5b50565b61324481613107565b811461324f57600080fd5b5056fea2646970667358221220fb4e9948717863364d34e896f86c4be0e4db56f8bccda9df43f6b79c288d217964736f6c63430008000033",
  "linkReferences": {},
  "deployedLinkReferences": {}
}