{
  "_format": "hh-sol-artifact-1",
  "contractName": "NMWDMarketPlace",
  "sourceName": "contracts/NMWD/NMWDMarketPlace.sol",
  "abi": [
    {
      "inputs": [],
      "stateMutability": "nonpayable",
      "type": "constructor"
    },
    {
      "anonymous": false,
      "inputs": [
        {
          "indexed": true,
          "internalType": "address",
          "name": "payer",
          "type": "address"
        },
        {
          "indexed": false,
          "internalType": "uint256",
          "name": "tokenId",
          "type": "uint256"
        },
        {
          "indexed": false,
          "internalType": "uint256",
          "name": "amount",
          "type": "uint256"
        }
      ],
      "name": "NFTSent",
      "type": "event"
    },
    {
      "anonymous": false,
      "inputs": [
        {
          "indexed": true,
          "internalType": "address",
          "name": "previousOwner",
          "type": "address"
        },
        {
          "indexed": true,
          "internalType": "address",
          "name": "newOwner",
          "type": "address"
        }
      ],
      "name": "OwnershipTransferred",
      "type": "event"
    },
    {
      "anonymous": false,
      "inputs": [
        {
          "indexed": true,
          "internalType": "address",
          "name": "payee",
          "type": "address"
        },
        {
          "indexed": false,
          "internalType": "uint256",
          "name": "amount",
          "type": "uint256"
        }
      ],
      "name": "RoyaltyPaid",
      "type": "event"
    },
    {
      "anonymous": false,
      "inputs": [
        {
          "indexed": true,
          "internalType": "address",
          "name": "payee",
          "type": "address"
        },
        {
          "indexed": false,
          "internalType": "uint256",
          "name": "amount",
          "type": "uint256"
        }
      ],
      "name": "SecurityWithdrawal",
      "type": "event"
    },
    {
      "anonymous": false,
      "inputs": [
        {
          "indexed": true,
          "internalType": "address",
          "name": "payee",
          "type": "address"
        },
        {
          "indexed": false,
          "internalType": "uint256",
          "name": "amount",
          "type": "uint256"
        }
      ],
      "name": "Sent",
      "type": "event"
    },
    {
      "anonymous": false,
      "inputs": [
        {
          "indexed": false,
          "internalType": "address",
          "name": "deliveredTo",
          "type": "address"
        },
        {
          "indexed": false,
          "internalType": "string",
          "name": "msg",
          "type": "string"
        }
      ],
      "name": "_msg",
      "type": "event"
    },
    {
      "inputs": [],
      "name": "CANNOT_TRANSFER_TO_ZERO_ADDRESS",
      "outputs": [
        {
          "internalType": "string",
          "name": "",
          "type": "string"
        }
      ],
      "stateMutability": "view",
      "type": "function"
    },
    {
      "inputs": [],
      "name": "NMWDcontract",
      "outputs": [
        {
          "internalType": "contract NoMoreWarOnDrugs",
          "name": "",
          "type": "address"
        }
      ],
      "stateMutability": "view",
      "type": "function"
    },
    {
      "inputs": [],
      "name": "NOT_CURRENT_OWNER",
      "outputs": [
        {
          "internalType": "string",
          "name": "",
          "type": "string"
        }
      ],
      "stateMutability": "view",
      "type": "function"
    },
    {
      "inputs": [],
      "name": "getBackOwnership",
      "outputs": [],
      "stateMutability": "nonpayable",
      "type": "function"
    },
    {
      "inputs": [
        {
          "internalType": "uint256",
          "name": "_tokenId",
          "type": "uint256"
        }
      ],
      "name": "getForSale",
      "outputs": [
        {
          "internalType": "bool",
          "name": "",
          "type": "bool"
        }
      ],
      "stateMutability": "view",
      "type": "function"
    },
    {
      "inputs": [],
      "name": "getMarketPlaceBalance",
      "outputs": [
        {
          "internalType": "uint256",
          "name": "",
          "type": "uint256"
        }
      ],
      "stateMutability": "view",
      "type": "function"
    },
    {
      "inputs": [
        {
          "internalType": "uint256",
          "name": "_tokenId",
          "type": "uint256"
        }
      ],
      "name": "getPrice",
      "outputs": [
        {
          "internalType": "uint256",
          "name": "",
          "type": "uint256"
        }
      ],
      "stateMutability": "view",
      "type": "function"
    },
    {
      "inputs": [
        {
          "internalType": "address",
          "name": "_to",
          "type": "address"
        },
        {
          "internalType": "uint256",
          "name": "_tokenId",
          "type": "uint256"
        },
        {
          "internalType": "address",
          "name": "royaltyRecipient",
          "type": "address"
        },
        {
          "internalType": "uint256",
          "name": "royaltyValue",
          "type": "uint256"
        }
      ],
      "name": "mintThroughPurchase",
      "outputs": [],
      "stateMutability": "payable",
      "type": "function"
    },
    {
      "inputs": [],
      "name": "owner",
      "outputs": [
        {
          "internalType": "address",
          "name": "",
          "type": "address"
        }
      ],
      "stateMutability": "view",
      "type": "function"
    },
    {
      "inputs": [
        {
          "internalType": "uint256",
          "name": "_tokenId",
          "type": "uint256"
        }
      ],
      "name": "purchaseToken",
      "outputs": [],
      "stateMutability": "payable",
      "type": "function"
    },
    {
      "inputs": [
        {
          "internalType": "uint256",
          "name": "_tokenId",
          "type": "uint256"
        },
        {
          "internalType": "bool",
          "name": "_forSale",
          "type": "bool"
        }
      ],
      "name": "setForSale",
      "outputs": [
        {
          "internalType": "bool",
          "name": "",
          "type": "bool"
        }
      ],
      "stateMutability": "nonpayable",
      "type": "function"
    },
    {
      "inputs": [
        {
          "internalType": "uint256",
          "name": "_price",
          "type": "uint256"
        },
        {
          "internalType": "uint256",
          "name": "_tokenId",
          "type": "uint256"
        }
      ],
      "name": "setPrice",
      "outputs": [],
      "stateMutability": "nonpayable",
      "type": "function"
    },
    {
      "inputs": [
        {
          "internalType": "address",
          "name": "_newOwner",
          "type": "address"
        }
      ],
      "name": "transferOwnership",
      "outputs": [],
      "stateMutability": "nonpayable",
      "type": "function"
    },
    {
      "inputs": [
        {
          "internalType": "address",
          "name": "nmwdAddress",
          "type": "address"
        }
      ],
      "name": "updateNMWDcontract",
      "outputs": [],
      "stateMutability": "nonpayable",
      "type": "function"
    },
    {
      "inputs": [
        {
          "internalType": "address",
          "name": "_payee",
          "type": "address"
        },
        {
          "internalType": "uint256",
          "name": "_amount",
          "type": "uint256"
        }
      ],
      "name": "withdrawFromContract",
      "outputs": [],
      "stateMutability": "nonpayable",
      "type": "function"
    }
  ],
  "bytecode": "0x60806040523480156200001157600080fd5b50620000226200002860201b60201c565b6200018d565b336000806101000a81548173ffffffffffffffffffffffffffffffffffffffff021916908373ffffffffffffffffffffffffffffffffffffffff1602179055507f2d5a82cbc34270500c60b0532ca36cd4716c295bf0351b25835351664a3125bf60008054906101000a900473ffffffffffffffffffffffffffffffffffffffff16604051620000b9919062000116565b60405180910390a1565b620000ce8162000159565b82525050565b6000620000e360098362000148565b91507f736574206f776e657200000000000000000000000000000000000000000000006000830152602082019050919050565b60006040820190506200012d6000830184620000c3565b81810360208301526200014081620000d4565b905092915050565b600082825260208201905092915050565b600062000166826200016d565b9050919050565b600073ffffffffffffffffffffffffffffffffffffffff82169050919050565b612855806200019d6000396000f3fe6080604052600436106100e85760003560e01c8063b4c49d091161008a578063f0a6c16b11610059578063f0a6c16b146102b4578063f2fde38b146102f1578063f3fe3bc31461031a578063f7d9757714610345576100e8565b8063b4c49d0914610205578063be4185f414610230578063c2db2c421461025b578063e757223014610277576100e8565b8063837381fa116100c6578063837381fa1461015d578063860d248a146101865780638da5cb5b146101b1578063b0e857ec146101dc576100e8565b80632abacf8c146100ed5780635c93bec71461012a5780637194176a14610141575b600080fd5b3480156100f957600080fd5b50610114600480360381019061010f919061217c565b61036e565b604051610121919061247e565b60405180910390f35b34801561013657600080fd5b5061013f610398565b005b61015b600480360381019061015691906120f0565b6105f7565b005b34801561016957600080fd5b50610184600480360381019061017f9190612078565b610828565b005b34801561019257600080fd5b5061019b610c62565b6040516101a891906124b4565b60405180910390f35b3480156101bd57600080fd5b506101c6610c9b565b6040516101d39190612390565b60405180910390f35b3480156101e857600080fd5b5061020360048036038101906101fe9190612026565b610cbf565b005b34801561021157600080fd5b5061021a610ec9565b6040516102279190612516565b60405180910390f35b34801561023c57600080fd5b50610245610ed3565b6040516102529190612499565b60405180910390f35b6102756004803603810190610270919061217c565b610ef9565b005b34801561028357600080fd5b5061029e6004803603810190610299919061217c565b61181d565b6040516102ab9190612516565b60405180910390f35b3480156102c057600080fd5b506102db60048036038101906102d691906121a5565b61183a565b6040516102e8919061247e565b60405180910390f35b3480156102fd57600080fd5b5061031860048036038101906103139190612026565b611a72565b005b34801561032657600080fd5b5061032f611cbd565b60405161033c91906124b4565b60405180910390f35b34801561035157600080fd5b5061036c600480360381019061036791906121e1565b611cf6565b005b60006003600083815260200190815260200160002060009054906101000a900460ff169050919050565b60008054906101000a900473ffffffffffffffffffffffffffffffffffffffff1673ffffffffffffffffffffffffffffffffffffffff163373ffffffffffffffffffffffffffffffffffffffff1614610426576040517f08c379a000000000000000000000000000000000000000000000000000000000815260040161041d906124f6565b60405180910390fd5b7f2d5a82cbc34270500c60b0532ca36cd4716c295bf0351b25835351664a3125bf60008054906101000a900473ffffffffffffffffffffffffffffffffffffffff16604051610475919061240b565b60405180910390a1600073ffffffffffffffffffffffffffffffffffffffff16600160009054906101000a900473ffffffffffffffffffffffffffffffffffffffff1673ffffffffffffffffffffffffffffffffffffffff1614156040518060400160405280600481526020017f303530320000000000000000000000000000000000000000000000000000000081525090610547576040517f08c379a000000000000000000000000000000000000000000000000000000000815260040161053e91906124b4565b60405180910390fd5b50600160009054906101000a900473ffffffffffffffffffffffffffffffffffffffff1673ffffffffffffffffffffffffffffffffffffffff1663f2fde38b60008054906101000a900473ffffffffffffffffffffffffffffffffffffffff166040518263ffffffff1660e01b81526004016105c39190612390565b600060405180830381600087803b1580156105dd57600080fd5b505af11580156105f1573d6000803e3d6000fd5b50505050565b600060026000858152602001908152602001600020541161061757600080fd5b60026000848152602001908152602001600020543410156040518060400160405280600481526020017f3035303600000000000000000000000000000000000000000000000000000000815250906106a5576040517f08c379a000000000000000000000000000000000000000000000000000000000815260040161069c91906124b4565b60405180910390fd5b50600073ffffffffffffffffffffffffffffffffffffffff166106c6611fa0565b73ffffffffffffffffffffffffffffffffffffffff161415801561071d57503073ffffffffffffffffffffffffffffffffffffffff16610704611fa0565b73ffffffffffffffffffffffffffffffffffffffff1614155b61072657600080fd5b34600460008282546107389190612581565b92505081905550600160009054906101000a900473ffffffffffffffffffffffffffffffffffffffff1673ffffffffffffffffffffffffffffffffffffffff16633c173a4f858585856040518563ffffffff1660e01b81526004016107a09493929190612439565b600060405180830381600087803b1580156107ba57600080fd5b505af11580156107ce573d6000803e3d6000fd5b505050508373ffffffffffffffffffffffffffffffffffffffff167fdbc09166e717a324fd239bd32af51e47b8348709b352f3223238c4de82ebaa76843460405161081a929190612531565b60405180910390a250505050565b60008054906101000a900473ffffffffffffffffffffffffffffffffffffffff1673ffffffffffffffffffffffffffffffffffffffff163373ffffffffffffffffffffffffffffffffffffffff16146108b6576040517f08c379a00000000000000000000000000000000000000000000000000000000081526004016108ad906124f6565b60405180910390fd5b7f2d5a82cbc34270500c60b0532ca36cd4716c295bf0351b25835351664a3125bf60008054906101000a900473ffffffffffffffffffffffffffffffffffffffff16604051610905919061240b565b60405180910390a1600073ffffffffffffffffffffffffffffffffffffffff168273ffffffffffffffffffffffffffffffffffffffff161415801561097657503073ffffffffffffffffffffffffffffffffffffffff168273ffffffffffffffffffffffffffffffffffffffff1614155b61097f57600080fd5b8060045410156040518060400160405280600481526020017f3035313000000000000000000000000000000000000000000000000000000000815250906109fc576040517f08c379a00000000000000000000000000000000000000000000000000000000081526004016109f391906124b4565b60405180910390fd5b50600081118015610a0d5750478111155b6040518060400160405280600481526020017f303530360000000000000000000000000000000000000000000000000000000081525090610a84576040517f08c379a0000000000000000000000000000000000000000000000000000000008152600401610a7b91906124b4565b60405180910390fd5b50610a8d611fa0565b73ffffffffffffffffffffffffffffffffffffffff163273ffffffffffffffffffffffffffffffffffffffff1614610ac457600080fd5b4760045414610baf57600060048190555060008054906101000a900473ffffffffffffffffffffffffffffffffffffffff1673ffffffffffffffffffffffffffffffffffffffff166108fc479081150290604051600060405180830381858888f19350505050158015610b3b573d6000803e3d6000fd5b5060008054906101000a900473ffffffffffffffffffffffffffffffffffffffff1673ffffffffffffffffffffffffffffffffffffffff167f6dfc6e5b54e9b8b518c0d73fe237bd1a47d57856827cbf13853bee71425c6a9082604051610ba29190612516565b60405180910390a2610c5e565b8060046000828254610bc19190612662565b925050819055508173ffffffffffffffffffffffffffffffffffffffff166108fc829081150290604051600060405180830381858888f19350505050158015610c0e573d6000803e3d6000fd5b508173ffffffffffffffffffffffffffffffffffffffff167f510ffb4dcab972ae9d2007a58e13f1b0881776d23cd8f5cc32f8c5be2dbf70d282604051610c559190612516565b60405180910390a25b5050565b6040518060400160405280600481526020017f303130320000000000000000000000000000000000000000000000000000000081525081565b60008054906101000a900473ffffffffffffffffffffffffffffffffffffffff1681565b60008054906101000a900473ffffffffffffffffffffffffffffffffffffffff1673ffffffffffffffffffffffffffffffffffffffff163373ffffffffffffffffffffffffffffffffffffffff1614610d4d576040517f08c379a0000000000000000000000000000000000000000000000000000000008152600401610d44906124f6565b60405180910390fd5b7f2d5a82cbc34270500c60b0532ca36cd4716c295bf0351b25835351664a3125bf60008054906101000a900473ffffffffffffffffffffffffffffffffffffffff16604051610d9c919061240b565b60405180910390a1600073ffffffffffffffffffffffffffffffffffffffff168173ffffffffffffffffffffffffffffffffffffffff1614158015610e0d57503073ffffffffffffffffffffffffffffffffffffffff168173ffffffffffffffffffffffffffffffffffffffff1614155b6040518060400160405280600481526020017f303530310000000000000000000000000000000000000000000000000000000081525090610e84576040517f08c379a0000000000000000000000000000000000000000000000000000000008152600401610e7b91906124b4565b60405180910390fd5b5080600160006101000a81548173ffffffffffffffffffffffffffffffffffffffff021916908373ffffffffffffffffffffffffffffffffffffffff16021790555050565b6000600454905090565b600160009054906101000a900473ffffffffffffffffffffffffffffffffffffffff1681565b6003600082815260200190815260200160002060009054906101000a900460ff166040518060400160405280600481526020017f303530350000000000000000000000000000000000000000000000000000000081525090610f91576040517f08c379a0000000000000000000000000000000000000000000000000000000008152600401610f8891906124b4565b60405180910390fd5b50600073ffffffffffffffffffffffffffffffffffffffff16610fb2611fa0565b73ffffffffffffffffffffffffffffffffffffffff161415801561100957503073ffffffffffffffffffffffffffffffffffffffff16610ff0611fa0565b73ffffffffffffffffffffffffffffffffffffffff1614155b61101257600080fd5b600060026000838152602001908152602001600020541161103257600080fd5b600260008281526020019081526020016000205434101561105257600080fd5b600073ffffffffffffffffffffffffffffffffffffffff16600160009054906101000a900473ffffffffffffffffffffffffffffffffffffffff1673ffffffffffffffffffffffffffffffffffffffff16636352211e836040518263ffffffff1660e01b81526004016110c59190612516565b60206040518083038186803b1580156110dd57600080fd5b505afa1580156110f1573d6000803e3d6000fd5b505050506040513d601f19601f82011682018060405250810190611115919061204f565b73ffffffffffffffffffffffffffffffffffffffff1614156040518060400160405280600481526020017f3035303400000000000000000000000000000000000000000000000000000000815250906111a4576040517f08c379a000000000000000000000000000000000000000000000000000000000815260040161119b91906124b4565b60405180910390fd5b506000600160009054906101000a900473ffffffffffffffffffffffffffffffffffffffff1673ffffffffffffffffffffffffffffffffffffffff16636352211e836040518263ffffffff1660e01b81526004016112029190612516565b60206040518083038186803b15801561121a57600080fd5b505afa15801561122e573d6000803e3d6000fd5b505050506040513d601f19601f82011682018060405250810190611252919061204f565b90503073ffffffffffffffffffffffffffffffffffffffff16600160009054906101000a900473ffffffffffffffffffffffffffffffffffffffff1673ffffffffffffffffffffffffffffffffffffffff1663081812fc846040518263ffffffff1660e01b81526004016112c69190612516565b60206040518083038186803b1580156112de57600080fd5b505afa1580156112f2573d6000803e3d6000fd5b505050506040513d601f19601f82011682018060405250810190611316919061204f565b73ffffffffffffffffffffffffffffffffffffffff1614806113e15750600160009054906101000a900473ffffffffffffffffffffffffffffffffffffffff1673ffffffffffffffffffffffffffffffffffffffff1663e985e9c582306040518363ffffffff1660e01b81526004016113909291906123ab565b60206040518083038186803b1580156113a857600080fd5b505afa1580156113bc573d6000803e3d6000fd5b505050506040513d601f19601f820116820180604052508101906113e09190612153565b5b6040518060400160405280600481526020017f303530330000000000000000000000000000000000000000000000000000000081525090611458576040517f08c379a000000000000000000000000000000000000000000000000000000000815260040161144f91906124b4565b60405180910390fd5b5060006003600084815260200190815260200160002060006101000a81548160ff021916908315150217905550600160009054906101000a900473ffffffffffffffffffffffffffffffffffffffff1673ffffffffffffffffffffffffffffffffffffffff166342842e0e826114cc611fa0565b856040518463ffffffff1660e01b81526004016114eb939291906123d4565b600060405180830381600087803b15801561150557600080fd5b505af1158015611519573d6000803e3d6000fd5b50505050600060086103e83461152f91906125d7565b6115399190612608565b9050806004600082825461154d9190612581565b92505081905550600081346115629190612662565b9050600080600160009054906101000a900473ffffffffffffffffffffffffffffffffffffffff1673ffffffffffffffffffffffffffffffffffffffff16632a55205a87856040518363ffffffff1660e01b81526004016115c4929190612531565b604080518083038186803b1580156115db57600080fd5b505afa1580156115ef573d6000803e3d6000fd5b505050506040513d601f19601f8201168201806040525081019061161391906120b4565b91509150600081846116259190612662565b90508573ffffffffffffffffffffffffffffffffffffffff166108fc829081150290604051600060405180830381858888f1935050505015801561166d573d6000803e3d6000fd5b5060008373ffffffffffffffffffffffffffffffffffffffff1683620186a0906040516116999061237b565b600060405180830381858888f193505050503d80600081146116d7576040519150601f19603f3d011682016040523d82523d6000602084013e6116dc565b606091505b5050905080611720576040517f08c379a0000000000000000000000000000000000000000000000000000000008152600401611717906124d6565b60405180910390fd5b8673ffffffffffffffffffffffffffffffffffffffff167f510ffb4dcab972ae9d2007a58e13f1b0881776d23cd8f5cc32f8c5be2dbf70d2836040516117669190612516565b60405180910390a28373ffffffffffffffffffffffffffffffffffffffff167fbc86de696edc3350c664d50abf25f24e7e1251f1469ad925b25fe36927270d43846040516117b49190612516565b60405180910390a26117c4611fa0565b73ffffffffffffffffffffffffffffffffffffffff167fdbc09166e717a324fd239bd32af51e47b8348709b352f3223238c4de82ebaa76893460405161180b929190612531565b60405180910390a25050505050505050565b600060026000838152602001908152602001600020549050919050565b6000600160009054906101000a900473ffffffffffffffffffffffffffffffffffffffff1673ffffffffffffffffffffffffffffffffffffffff16636352211e846040518263ffffffff1660e01b81526004016118979190612516565b60206040518083038186803b1580156118af57600080fd5b505afa9250505080156118e057506040513d601f19601f820116820180604052508101906118dd919061204f565b60015b6118ed5760009050611a6c565b6118f5611fa0565b73ffffffffffffffffffffffffffffffffffffffff168173ffffffffffffffffffffffffffffffffffffffff16146040518060400160405280600481526020017f30353039000000000000000000000000000000000000000000000000000000008152509061199a576040517f08c379a000000000000000000000000000000000000000000000000000000000815260040161199191906124b4565b60405180910390fd5b50506003600084815260200190815260200160002060009054906101000a900460ff16151582151514156040518060400160405280600481526020017f303530380000000000000000000000000000000000000000000000000000000081525090611a3b576040517f08c379a0000000000000000000000000000000000000000000000000000000008152600401611a3291906124b4565b60405180910390fd5b50816003600085815260200190815260200160002060006101000a81548160ff021916908315150217905550600190505b92915050565b60008054906101000a900473ffffffffffffffffffffffffffffffffffffffff1673ffffffffffffffffffffffffffffffffffffffff163373ffffffffffffffffffffffffffffffffffffffff1614611b00576040517f08c379a0000000000000000000000000000000000000000000000000000000008152600401611af7906124f6565b60405180910390fd5b7f2d5a82cbc34270500c60b0532ca36cd4716c295bf0351b25835351664a3125bf60008054906101000a900473ffffffffffffffffffffffffffffffffffffffff16604051611b4f919061240b565b60405180910390a1600073ffffffffffffffffffffffffffffffffffffffff168173ffffffffffffffffffffffffffffffffffffffff1614156040518060400160405280600481526020017f303130320000000000000000000000000000000000000000000000000000000081525090611bff576040517f08c379a0000000000000000000000000000000000000000000000000000000008152600401611bf691906124b4565b60405180910390fd5b508073ffffffffffffffffffffffffffffffffffffffff1660008054906101000a900473ffffffffffffffffffffffffffffffffffffffff1673ffffffffffffffffffffffffffffffffffffffff167f8be0079c531659141344cd1fd0a4f28419497f9722a3daafe3b4186f6b6457e060405160405180910390a3806000806101000a81548173ffffffffffffffffffffffffffffffffffffffff021916908373ffffffffffffffffffffffffffffffffffffffff16021790555050565b6040518060400160405280600481526020017f303130310000000000000000000000000000000000000000000000000000000081525081565b600082116040518060400160405280600481526020017f303530370000000000000000000000000000000000000000000000000000000081525090611d71576040517f08c379a0000000000000000000000000000000000000000000000000000000008152600401611d6891906124b4565b60405180910390fd5b5060026000828152602001908152602001600020548214156040518060400160405280600481526020017f303530380000000000000000000000000000000000000000000000000000000081525090611e00576040517f08c379a0000000000000000000000000000000000000000000000000000000008152600401611df791906124b4565b60405180910390fd5b50600160009054906101000a900473ffffffffffffffffffffffffffffffffffffffff1673ffffffffffffffffffffffffffffffffffffffff16636352211e826040518263ffffffff1660e01b8152600401611e5c9190612516565b60206040518083038186803b158015611e7457600080fd5b505afa925050508015611ea557506040513d601f19601f82011682018060405250810190611ea2919061204f565b60015b611f4357611eb1611fa0565b73ffffffffffffffffffffffffffffffffffffffff1660008054906101000a900473ffffffffffffffffffffffffffffffffffffffff1673ffffffffffffffffffffffffffffffffffffffff1614611f3e576040517f08c379a0000000000000000000000000000000000000000000000000000000008152600401611f35906124f6565b60405180910390fd5b611f84565b611f4b611fa0565b73ffffffffffffffffffffffffffffffffffffffff168173ffffffffffffffffffffffffffffffffffffffff1614611f8257600080fd5b505b8160026000838152602001908152602001600020819055505050565b600033905090565b600081359050611fb7816127da565b92915050565b600081519050611fcc816127da565b92915050565b600081359050611fe1816127f1565b92915050565b600081519050611ff6816127f1565b92915050565b60008135905061200b81612808565b92915050565b60008151905061202081612808565b92915050565b60006020828403121561203857600080fd5b600061204684828501611fa8565b91505092915050565b60006020828403121561206157600080fd5b600061206f84828501611fbd565b91505092915050565b6000806040838503121561208b57600080fd5b600061209985828601611fa8565b92505060206120aa85828601611ffc565b9150509250929050565b600080604083850312156120c757600080fd5b60006120d585828601611fbd565b92505060206120e685828601612011565b9150509250929050565b6000806000806080858703121561210657600080fd5b600061211487828801611fa8565b945050602061212587828801611ffc565b935050604061213687828801611fa8565b925050606061214787828801611ffc565b91505092959194509250565b60006020828403121561216557600080fd5b600061217384828501611fe7565b91505092915050565b60006020828403121561218e57600080fd5b600061219c84828501611ffc565b91505092915050565b600080604083850312156121b857600080fd5b60006121c685828601611ffc565b92505060206121d785828601611fd2565b9150509250929050565b600080604083850312156121f457600080fd5b600061220285828601611ffc565b925050602061221385828601611ffc565b9150509250929050565b612226816126de565b82525050565b61223581612696565b82525050565b612244816126a8565b82525050565b612253816126f0565b82525050565b60006122648261255a565b61226e8185612570565b935061227e818560208601612738565b612287816127c9565b840191505092915050565b600061229f601783612570565b91507f506179696e6720526f79616c74696573206661696c65640000000000000000006000830152602082019050919050565b60006122df600983612570565b91507f4e6f74206f776e657200000000000000000000000000000000000000000000006000830152602082019050919050565b600061231f600083612565565b9150600082019050919050565b6000612339601c83612570565b91507f706173736564206f776e65727368697020726571756972656d656e74000000006000830152602082019050919050565b612375816126d4565b82525050565b600061238682612312565b9150819050919050565b60006020820190506123a5600083018461222c565b92915050565b60006040820190506123c0600083018561222c565b6123cd602083018461222c565b9392505050565b60006060820190506123e9600083018661222c565b6123f6602083018561221d565b612403604083018461236c565b949350505050565b6000604082019050612420600083018461222c565b81810360208301526124318161232c565b905092915050565b600060808201905061244e600083018761222c565b61245b602083018661236c565b612468604083018561222c565b612475606083018461236c565b95945050505050565b6000602082019050612493600083018461223b565b92915050565b60006020820190506124ae600083018461224a565b92915050565b600060208201905081810360008301526124ce8184612259565b905092915050565b600060208201905081810360008301526124ef81612292565b9050919050565b6000602082019050818103600083015261250f816122d2565b9050919050565b600060208201905061252b600083018461236c565b92915050565b6000604082019050612546600083018561236c565b612553602083018461236c565b9392505050565b600081519050919050565b600081905092915050565b600082825260208201905092915050565b600061258c826126d4565b9150612597836126d4565b9250827fffffffffffffffffffffffffffffffffffffffffffffffffffffffffffffffff038211156125cc576125cb61276b565b5b828201905092915050565b60006125e2826126d4565b91506125ed836126d4565b9250826125fd576125fc61279a565b5b828204905092915050565b6000612613826126d4565b915061261e836126d4565b9250817fffffffffffffffffffffffffffffffffffffffffffffffffffffffffffffffff04831182151516156126575761265661276b565b5b828202905092915050565b600061266d826126d4565b9150612678836126d4565b92508282101561268b5761268a61276b565b5b828203905092915050565b60006126a1826126b4565b9050919050565b60008115159050919050565b600073ffffffffffffffffffffffffffffffffffffffff82169050919050565b6000819050919050565b60006126e982612714565b9050919050565b60006126fb82612702565b9050919050565b600061270d826126b4565b9050919050565b600061271f82612726565b9050919050565b6000612731826126b4565b9050919050565b60005b8381101561275657808201518184015260208101905061273b565b83811115612765576000848401525b50505050565b7f4e487b7100000000000000000000000000000000000000000000000000000000600052601160045260246000fd5b7f4e487b7100000000000000000000000000000000000000000000000000000000600052601260045260246000fd5b6000601f19601f8301169050919050565b6127e381612696565b81146127ee57600080fd5b50565b6127fa816126a8565b811461280557600080fd5b50565b612811816126d4565b811461281c57600080fd5b5056fea2646970667358221220d803deb2e44292d1ceb42d62ef0353eeb600b42217564f4df76fc082a8b6abf664736f6c63430008000033",
  "linkReferences": {},
  "deployedLinkReferences": {}
}