{
  "_format": "hh-sol-artifact-1",
  "contractName": "NoMoreWarOnDrugs",
  "sourceName": "contracts/NoMoreWarOnDrugs.sol",
  "abi": [
    {
      "inputs": [
        {
          "internalType": "string",
          "name": "_name",
          "type": "string"
        },
        {
          "internalType": "string",
          "name": "_symbol",
          "type": "string"
        }
      ],
      "stateMutability": "nonpayable",
      "type": "constructor"
    },
    {
      "anonymous": false,
      "inputs": [
        {
          "indexed": true,
          "internalType": "address",
          "name": "_owner",
          "type": "address"
        },
        {
          "indexed": true,
          "internalType": "address",
          "name": "_approved",
          "type": "address"
        },
        {
          "indexed": true,
          "internalType": "uint256",
          "name": "_tokenId",
          "type": "uint256"
        }
      ],
      "name": "Approval",
      "type": "event"
    },
    {
      "anonymous": false,
      "inputs": [
        {
          "indexed": true,
          "internalType": "address",
          "name": "_owner",
          "type": "address"
        },
        {
          "indexed": true,
          "internalType": "address",
          "name": "_operator",
          "type": "address"
        },
        {
          "indexed": false,
          "internalType": "bool",
          "name": "_approved",
          "type": "bool"
        }
      ],
      "name": "ApprovalForAll",
      "type": "event"
    },
    {
      "anonymous": false,
      "inputs": [
        {
          "indexed": true,
          "internalType": "address",
          "name": "_from",
          "type": "address"
        },
        {
          "indexed": true,
          "internalType": "address",
          "name": "_to",
          "type": "address"
        },
        {
          "indexed": true,
          "internalType": "uint256",
          "name": "_tokenId",
          "type": "uint256"
        }
      ],
      "name": "Transfer",
      "type": "event"
    },
    {
      "anonymous": false,
      "inputs": [
        {
          "indexed": false,
          "internalType": "address",
          "name": "deliveredTo",
          "type": "address"
        },
        {
          "indexed": false,
          "internalType": "string",
          "name": "msg",
          "type": "string"
        }
      ],
      "name": "_msg",
      "type": "event"
    },
    {
      "inputs": [
        {
          "internalType": "address",
          "name": "_to",
          "type": "address"
        },
        {
          "internalType": "uint256",
          "name": "_tokenId",
          "type": "uint256"
        }
      ],
      "name": "addNFToken",
      "outputs": [],
      "stateMutability": "nonpayable",
      "type": "function"
    },
    {
      "inputs": [
        {
          "internalType": "address",
          "name": "_approved",
          "type": "address"
        },
        {
          "internalType": "uint256",
          "name": "_tokenId",
          "type": "uint256"
        }
      ],
      "name": "approve",
      "outputs": [],
      "stateMutability": "nonpayable",
      "type": "function"
    },
    {
      "inputs": [
        {
          "internalType": "address",
          "name": "_owner",
          "type": "address"
        }
      ],
      "name": "balanceOf",
      "outputs": [
        {
          "internalType": "uint256",
          "name": "",
          "type": "uint256"
        }
      ],
      "stateMutability": "view",
      "type": "function"
    },
    {
      "inputs": [
        {
          "internalType": "uint256",
          "name": "_tokenId",
          "type": "uint256"
        }
      ],
      "name": "burn",
      "outputs": [],
      "stateMutability": "nonpayable",
      "type": "function"
    },
    {
      "inputs": [
        {
          "internalType": "uint256",
          "name": "_tokenId",
          "type": "uint256"
        }
      ],
      "name": "getApproved",
      "outputs": [
        {
          "internalType": "address",
          "name": "",
          "type": "address"
        }
      ],
      "stateMutability": "view",
      "type": "function"
    },
    {
      "inputs": [
        {
          "internalType": "address",
          "name": "_owner",
          "type": "address"
        }
      ],
      "name": "getOwnerNFTCount",
      "outputs": [
        {
          "internalType": "uint256",
          "name": "",
          "type": "uint256"
        }
      ],
      "stateMutability": "view",
      "type": "function"
    },
    {
      "inputs": [
        {
          "internalType": "address",
          "name": "_owner",
          "type": "address"
        },
        {
          "internalType": "address",
          "name": "_operator",
          "type": "address"
        }
      ],
      "name": "isApprovedForAll",
      "outputs": [
        {
          "internalType": "bool",
          "name": "",
          "type": "bool"
        }
      ],
      "stateMutability": "view",
      "type": "function"
    },
    {
      "inputs": [
        {
          "internalType": "address",
          "name": "_to",
          "type": "address"
        },
        {
          "internalType": "uint256",
          "name": "_tokenId",
          "type": "uint256"
        },
        {
          "internalType": "string",
          "name": "_uri",
          "type": "string"
        }
      ],
      "name": "mint",
      "outputs": [],
      "stateMutability": "nonpayable",
      "type": "function"
    },
    {
      "inputs": [],
      "name": "name",
      "outputs": [
        {
          "internalType": "string",
          "name": "_name",
          "type": "string"
        }
      ],
      "stateMutability": "view",
      "type": "function"
    },
    {
      "inputs": [],
      "name": "owner",
      "outputs": [
        {
          "internalType": "address",
          "name": "",
          "type": "address"
        }
      ],
      "stateMutability": "view",
      "type": "function"
    },
    {
      "inputs": [
        {
          "internalType": "uint256",
          "name": "_tokenId",
          "type": "uint256"
        }
      ],
      "name": "ownerOf",
      "outputs": [
        {
          "internalType": "address",
          "name": "_owner",
          "type": "address"
        }
      ],
      "stateMutability": "view",
      "type": "function"
    },
    {
      "inputs": [
        {
          "internalType": "address",
          "name": "_from",
          "type": "address"
        },
        {
          "internalType": "uint256",
          "name": "_tokenId",
          "type": "uint256"
        }
      ],
      "name": "removeNFToken",
      "outputs": [],
      "stateMutability": "nonpayable",
      "type": "function"
    },
    {
      "inputs": [
        {
          "internalType": "address",
          "name": "_from",
          "type": "address"
        },
        {
          "internalType": "address",
          "name": "_to",
          "type": "address"
        },
        {
          "internalType": "uint256",
          "name": "_tokenId",
          "type": "uint256"
        }
      ],
      "name": "safeTransferFrom",
      "outputs": [],
      "stateMutability": "nonpayable",
      "type": "function"
    },
    {
      "inputs": [
        {
          "internalType": "address",
          "name": "_from",
          "type": "address"
        },
        {
          "internalType": "address",
          "name": "_to",
          "type": "address"
        },
        {
          "internalType": "uint256",
          "name": "_tokenId",
          "type": "uint256"
        },
        {
          "internalType": "bytes",
          "name": "_data",
          "type": "bytes"
        }
      ],
      "name": "safeTransferFrom",
      "outputs": [],
      "stateMutability": "nonpayable",
      "type": "function"
    },
    {
      "inputs": [
        {
          "internalType": "address",
          "name": "_operator",
          "type": "address"
        },
        {
          "internalType": "bool",
          "name": "_approved",
          "type": "bool"
        }
      ],
      "name": "setApprovalForAll",
      "outputs": [],
      "stateMutability": "nonpayable",
      "type": "function"
    },
    {
      "inputs": [
        {
          "internalType": "uint256",
          "name": "_tokenId",
          "type": "uint256"
        },
        {
          "internalType": "string",
          "name": "_msg",
          "type": "string"
        }
      ],
      "name": "setTokenMessage",
      "outputs": [],
      "stateMutability": "nonpayable",
      "type": "function"
    },
    {
      "inputs": [
        {
          "internalType": "bytes4",
          "name": "_interfaceID",
          "type": "bytes4"
        }
      ],
      "name": "supportsInterface",
      "outputs": [
        {
          "internalType": "bool",
          "name": "",
          "type": "bool"
        }
      ],
      "stateMutability": "view",
      "type": "function"
    },
    {
      "inputs": [],
      "name": "symbol",
      "outputs": [
        {
          "internalType": "string",
          "name": "_symbol",
          "type": "string"
        }
      ],
      "stateMutability": "view",
      "type": "function"
    },
    {
      "inputs": [
        {
          "internalType": "uint256",
          "name": "_index",
          "type": "uint256"
        }
      ],
      "name": "tokenByIndex",
      "outputs": [
        {
          "internalType": "uint256",
          "name": "",
          "type": "uint256"
        }
      ],
      "stateMutability": "view",
      "type": "function"
    },
    {
      "inputs": [
        {
          "internalType": "uint256",
          "name": "_tokenId",
          "type": "uint256"
        }
      ],
      "name": "tokenMessage",
      "outputs": [
        {
          "internalType": "string",
          "name": "",
          "type": "string"
        }
      ],
      "stateMutability": "view",
      "type": "function"
    },
    {
      "inputs": [
        {
          "internalType": "uint256",
          "name": "_tokenId",
          "type": "uint256"
        }
      ],
      "name": "tokenMsgSet",
      "outputs": [
        {
          "internalType": "bool",
          "name": "",
          "type": "bool"
        }
      ],
      "stateMutability": "view",
      "type": "function"
    },
    {
      "inputs": [
        {
          "internalType": "address",
          "name": "_owner",
          "type": "address"
        },
        {
          "internalType": "uint256",
          "name": "_index",
          "type": "uint256"
        }
      ],
      "name": "tokenOfOwnerByIndex",
      "outputs": [
        {
          "internalType": "uint256",
          "name": "",
          "type": "uint256"
        }
      ],
      "stateMutability": "view",
      "type": "function"
    },
    {
      "inputs": [
        {
          "internalType": "uint256",
          "name": "_tokenId",
          "type": "uint256"
        }
      ],
      "name": "tokenURI",
      "outputs": [
        {
          "internalType": "string",
          "name": "",
          "type": "string"
        }
      ],
      "stateMutability": "view",
      "type": "function"
    },
    {
      "inputs": [],
      "name": "totalSupply",
      "outputs": [
        {
          "internalType": "uint256",
          "name": "",
          "type": "uint256"
        }
      ],
      "stateMutability": "view",
      "type": "function"
    },
    {
      "inputs": [
        {
          "internalType": "address",
          "name": "_from",
          "type": "address"
        },
        {
          "internalType": "address",
          "name": "_to",
          "type": "address"
        },
        {
          "internalType": "uint256",
          "name": "_tokenId",
          "type": "uint256"
        }
      ],
      "name": "transferFrom",
      "outputs": [],
      "stateMutability": "nonpayable",
      "type": "function"
    }
  ],
  "bytecode": "0x60806040523480156200001157600080fd5b506040516200446038038062004460833981810160405281019062000037919062000385565b60016000806301ffc9a760e01b7bffffffffffffffffffffffffffffffffffffffffffffffffffffffff1916815260200190815260200160002060006101000a81548160ff02191690831515021790555060016000806380ac58cd60e01b7bffffffffffffffffffffffffffffffffffffffffffffffffffffffff1916815260200190815260200160002060006101000a81548160ff021916908315150217905550600160008063780e9d6360e01b7bffffffffffffffffffffffffffffffffffffffffffffffffffffffff1916815260200190815260200160002060006101000a81548160ff0219169083151502179055506001600080635b5e139f60e01b7bffffffffffffffffffffffffffffffffffffffffffffffffffffffff1916815260200190815260200160002060006101000a81548160ff0219169083151502179055506200018b620001c560201b60201c565b8160099080519060200190620001a392919062000263565b5080600a9080519060200190620001bc92919062000263565b505050620005f3565b33600c60006101000a81548173ffffffffffffffffffffffffffffffffffffffff021916908373ffffffffffffffffffffffffffffffffffffffff1602179055507f2d5a82cbc34270500c60b0532ca36cd4716c295bf0351b25835351664a3125bf600c60009054906101000a900473ffffffffffffffffffffffffffffffffffffffff166040516200025991906200044b565b60405180910390a1565b82805462000271906200055f565b90600052602060002090601f016020900481019282620002955760008555620002e1565b82601f10620002b057805160ff1916838001178555620002e1565b82800160010185558215620002e1579182015b82811115620002e0578251825591602001919060010190620002c3565b5b509050620002f09190620002f4565b5090565b5b808211156200030f576000816000905550600101620002f5565b5090565b60006200032a6200032484620004b1565b6200047d565b9050828152602081018484840111156200034357600080fd5b6200035084828562000529565b509392505050565b600082601f8301126200036a57600080fd5b81516200037c84826020860162000313565b91505092915050565b600080604083850312156200039957600080fd5b600083015167ffffffffffffffff811115620003b457600080fd5b620003c28582860162000358565b925050602083015167ffffffffffffffff811115620003e057600080fd5b620003ee8582860162000358565b9150509250929050565b6200040381620004f5565b82525050565b600062000418600983620004e4565b91507f736574206f776e657200000000000000000000000000000000000000000000006000830152602082019050919050565b6000604082019050620004626000830184620003f8565b8181036020830152620004758162000409565b905092915050565b6000604051905081810181811067ffffffffffffffff82111715620004a757620004a6620005c4565b5b8060405250919050565b600067ffffffffffffffff821115620004cf57620004ce620005c4565b5b601f19601f8301169050602081019050919050565b600082825260208201905092915050565b6000620005028262000509565b9050919050565b600073ffffffffffffffffffffffffffffffffffffffff82169050919050565b60005b83811015620005495780820151818401526020810190506200052c565b8381111562000559576000848401525b50505050565b600060028204905060018216806200057857607f821691505b602082108114156200058f576200058e62000595565b5b50919050565b7f4e487b7100000000000000000000000000000000000000000000000000000000600052602260045260246000fd5b7f4e487b7100000000000000000000000000000000000000000000000000000000600052604160045260246000fd5b613e5d80620006036000396000f3fe608060405234801561001057600080fd5b50600436106101735760003560e01c80638da5cb5b116100de578063bd7f4c8d11610097578063d0f4f82a11610071578063d0f4f82a1461046c578063d3fc98641461049c578063e4b7baeb146104b8578063e985e9c5146104e857610173565b8063bd7f4c8d146103f0578063c2af674f14610420578063c87b56dd1461043c57610173565b80638da5cb5b146103445780638f8470761461036257806395d89b411461037e5780639c01e1f51461039c578063a22cb465146103b8578063b88d4fde146103d457610173565b80632f745c59116101305780632f745c591461024c57806342842e0e1461027c57806342966c68146102985780634f6ccce7146102b45780636352211e146102e457806370a082311461031457610173565b806301ffc9a71461017857806306fdde03146101a8578063081812fc146101c6578063095ea7b3146101f657806318160ddd1461021257806323b872dd14610230575b600080fd5b610192600480360381019061018d919061383c565b610518565b60405161019f9190613abf565b60405180910390f35b6101b061057f565b6040516101bd9190613ada565b60405180910390f35b6101e060048036038101906101db919061388e565b610611565b6040516101ed9190613a2a565b60405180910390f35b610210600480360381019061020b9190613799565b61072c565b005b61021a610b16565b6040516102279190613b1c565b60405180910390f35b61024a6004803603810190610245919061368e565b610b23565b005b61026660048036038101906102619190613799565b610f83565b6040516102739190613b1c565b60405180910390f35b6102966004803603810190610291919061368e565b6110cc565b005b6102b260048036038101906102ad919061388e565b6110ec565b005b6102ce60048036038101906102c9919061388e565b6111e1565b6040516102db9190613b1c565b60405180910390f35b6102fe60048036038101906102f9919061388e565b6112af565b60405161030b9190613a2a565b60405180910390f35b61032e60048036038101906103299190613629565b611395565b60405161033b9190613b1c565b60405180910390f35b61034c61144f565b6040516103599190613a2a565b60405180910390f35b61037c60048036038101906103779190613799565b611475565b005b61038661156c565b6040516103939190613ada565b60405180910390f35b6103b660048036038101906103b19190613799565b6115fe565b005b6103d260048036038101906103cd919061375d565b6116f5565b005b6103ee60048036038101906103e991906136dd565b6117f2565b005b61040a60048036038101906104059190613629565b611849565b6040516104179190613b1c565b60405180910390f35b61043a600480360381019061043591906138b7565b61185b565b005b6104566004803603810190610451919061388e565b611b12565b6040516104639190613ada565b60405180910390f35b6104866004803603810190610481919061388e565b611c95565b6040516104939190613abf565b60405180910390f35b6104b660048036038101906104b191906137d5565b611d9d565b005b6104d260048036038101906104cd919061388e565b611ebd565b6040516104df9190613ada565b60405180910390f35b61050260048036038101906104fd9190613652565b612040565b60405161050f9190613abf565b60405180910390f35b6000806000837bffffffffffffffffffffffffffffffffffffffffffffffffffffffff19167bffffffffffffffffffffffffffffffffffffffffffffffffffffffff1916815260200190815260200160002060009054906101000a900460ff169050919050565b60606009805461058e90613cfb565b80601f01602080910402602001604051908101604052809291908181526020018280546105ba90613cfb565b80156106075780601f106105dc57610100808354040283529160200191610607565b820191906000526020600020905b8154815290600101906020018083116105ea57829003601f168201915b5050505050905090565b600081600073ffffffffffffffffffffffffffffffffffffffff166001600083815260200190815260200160002060009054906101000a900473ffffffffffffffffffffffffffffffffffffffff1673ffffffffffffffffffffffffffffffffffffffff1614156040518060400160405280600681526020017f3030333030320000000000000000000000000000000000000000000000000000815250906106ef576040517f08c379a00000000000000000000000000000000000000000000000000000000081526004016106e69190613ada565b60405180910390fd5b506002600084815260200190815260200160002060009054906101000a900473ffffffffffffffffffffffffffffffffffffffff16915050919050565b8060006001600083815260200190815260200160002060009054906101000a900473ffffffffffffffffffffffffffffffffffffffff16905061076d6120d4565b73ffffffffffffffffffffffffffffffffffffffff168173ffffffffffffffffffffffffffffffffffffffff16148061082c5750600460008273ffffffffffffffffffffffffffffffffffffffff1673ffffffffffffffffffffffffffffffffffffffff16815260200190815260200160002060003373ffffffffffffffffffffffffffffffffffffffff1673ffffffffffffffffffffffffffffffffffffffff16815260200190815260200160002060009054906101000a900460ff165b6040518060400160405280600681526020017f3030333030330000000000000000000000000000000000000000000000000000815250906108a3576040517f08c379a000000000000000000000000000000000000000000000000000000000815260040161089a9190613ada565b60405180910390fd5b5082600073ffffffffffffffffffffffffffffffffffffffff166001600083815260200190815260200160002060009054906101000a900473ffffffffffffffffffffffffffffffffffffffff1673ffffffffffffffffffffffffffffffffffffffff1614156040518060400160405280600681526020017f303033303032000000000000000000000000000000000000000000000000000081525090610980576040517f08c379a00000000000000000000000000000000000000000000000000000000081526004016109779190613ada565b60405180910390fd5b5060006001600086815260200190815260200160002060009054906101000a900473ffffffffffffffffffffffffffffffffffffffff1690508073ffffffffffffffffffffffffffffffffffffffff168673ffffffffffffffffffffffffffffffffffffffff1614156040518060400160405280600681526020017f303033303038000000000000000000000000000000000000000000000000000081525090610a60576040517f08c379a0000000000000000000000000000000000000000000000000000000008152600401610a579190613ada565b60405180910390fd5b50856002600087815260200190815260200160002060006101000a81548173ffffffffffffffffffffffffffffffffffffffff021916908373ffffffffffffffffffffffffffffffffffffffff160217905550848673ffffffffffffffffffffffffffffffffffffffff168273ffffffffffffffffffffffffffffffffffffffff167f8c5be1e5ebec7d5bd14f71427d1e84f3dd0314c0f7b2291e5b200ac8c7c3b92560405160405180910390a4505050505050565b6000600580549050905090565b8060006001600083815260200190815260200160002060009054906101000a900473ffffffffffffffffffffffffffffffffffffffff169050610b646120d4565b73ffffffffffffffffffffffffffffffffffffffff168173ffffffffffffffffffffffffffffffffffffffff161480610c025750610ba06120d4565b73ffffffffffffffffffffffffffffffffffffffff166002600084815260200190815260200160002060009054906101000a900473ffffffffffffffffffffffffffffffffffffffff1673ffffffffffffffffffffffffffffffffffffffff16145b80610c935750600460008273ffffffffffffffffffffffffffffffffffffffff1673ffffffffffffffffffffffffffffffffffffffff16815260200190815260200160002060003373ffffffffffffffffffffffffffffffffffffffff1673ffffffffffffffffffffffffffffffffffffffff16815260200190815260200160002060009054906101000a900460ff165b6040518060400160405280600681526020017f303033303034000000000000000000000000000000000000000000000000000081525090610d0a576040517f08c379a0000000000000000000000000000000000000000000000000000000008152600401610d019190613ada565b60405180910390fd5b5082600073ffffffffffffffffffffffffffffffffffffffff166001600083815260200190815260200160002060009054906101000a900473ffffffffffffffffffffffffffffffffffffffff1673ffffffffffffffffffffffffffffffffffffffff1614156040518060400160405280600681526020017f303033303032000000000000000000000000000000000000000000000000000081525090610de7576040517f08c379a0000000000000000000000000000000000000000000000000000000008152600401610dde9190613ada565b60405180910390fd5b5060006001600086815260200190815260200160002060009054906101000a900473ffffffffffffffffffffffffffffffffffffffff1690508673ffffffffffffffffffffffffffffffffffffffff168173ffffffffffffffffffffffffffffffffffffffff16146040518060400160405280600681526020017f303033303037000000000000000000000000000000000000000000000000000081525090610ec6576040517f08c379a0000000000000000000000000000000000000000000000000000000008152600401610ebd9190613ada565b60405180910390fd5b50600073ffffffffffffffffffffffffffffffffffffffff168673ffffffffffffffffffffffffffffffffffffffff1614156040518060400160405280600681526020017f303033303031000000000000000000000000000000000000000000000000000081525090610f6f576040517f08c379a0000000000000000000000000000000000000000000000000000000008152600401610f669190613ada565b60405180910390fd5b50610f7a86866120dc565b50505050505050565b6000600760008473ffffffffffffffffffffffffffffffffffffffff1673ffffffffffffffffffffffffffffffffffffffff1681526020019081526020016000208054905082106040518060400160405280600681526020017f303035303037000000000000000000000000000000000000000000000000000081525090611041576040517f08c379a00000000000000000000000000000000000000000000000000000000081526004016110389190613ada565b60405180910390fd5b50600760008473ffffffffffffffffffffffffffffffffffffffff1673ffffffffffffffffffffffffffffffffffffffff16815260200190815260200160002082815481106110b9577f4e487b7100000000000000000000000000000000000000000000000000000000600052603260045260246000fd5b9060005260206000200154905092915050565b6110e783838360405180602001604052806000815250612191565b505050565b600c60009054906101000a900473ffffffffffffffffffffffffffffffffffffffff1673ffffffffffffffffffffffffffffffffffffffff163373ffffffffffffffffffffffffffffffffffffffff161461117c576040517f08c379a000000000000000000000000000000000000000000000000000000000815260040161117390613afc565b60405180910390fd5b7f2d5a82cbc34270500c60b0532ca36cd4716c295bf0351b25835351664a3125bf600c60009054906101000a900473ffffffffffffffffffffffffffffffffffffffff166040516111cd9190613a91565b60405180910390a16111de8161276d565b50565b600060058054905082106040518060400160405280600681526020017f303035303037000000000000000000000000000000000000000000000000000081525090611262576040517f08c379a00000000000000000000000000000000000000000000000000000000081526004016112599190613ada565b60405180910390fd5b506005828154811061129d577f4e487b7100000000000000000000000000000000000000000000000000000000600052603260045260246000fd5b90600052602060002001549050919050565b60006001600083815260200190815260200160002060009054906101000a900473ffffffffffffffffffffffffffffffffffffffff169050600073ffffffffffffffffffffffffffffffffffffffff168173ffffffffffffffffffffffffffffffffffffffff1614156040518060400160405280600681526020017f30303330303200000000000000000000000000000000000000000000000000008152509061138f576040517f08c379a00000000000000000000000000000000000000000000000000000000081526004016113869190613ada565b60405180910390fd5b50919050565b60008073ffffffffffffffffffffffffffffffffffffffff168273ffffffffffffffffffffffffffffffffffffffff1614156040518060400160405280600681526020017f30303330303100000000000000000000000000000000000000000000000000008152509061143e576040517f08c379a00000000000000000000000000000000000000000000000000000000081526004016114359190613ada565b60405180910390fd5b5061144882612779565b9050919050565b600c60009054906101000a900473ffffffffffffffffffffffffffffffffffffffff1681565b600c60009054906101000a900473ffffffffffffffffffffffffffffffffffffffff1673ffffffffffffffffffffffffffffffffffffffff163373ffffffffffffffffffffffffffffffffffffffff1614611505576040517f08c379a00000000000000000000000000000000000000000000000000000000081526004016114fc90613afc565b60405180910390fd5b7f2d5a82cbc34270500c60b0532ca36cd4716c295bf0351b25835351664a3125bf600c60009054906101000a900473ffffffffffffffffffffffffffffffffffffffff166040516115569190613a91565b60405180910390a1611568828261278b565b5050565b6060600a805461157b90613cfb565b80601f01602080910402602001604051908101604052809291908181526020018280546115a790613cfb565b80156115f45780601f106115c9576101008083540402835291602001916115f4565b820191906000526020600020905b8154815290600101906020018083116115d757829003601f168201915b5050505050905090565b600c60009054906101000a900473ffffffffffffffffffffffffffffffffffffffff1673ffffffffffffffffffffffffffffffffffffffff163373ffffffffffffffffffffffffffffffffffffffff161461168e576040517f08c379a000000000000000000000000000000000000000000000000000000000815260040161168590613afc565b60405180910390fd5b7f2d5a82cbc34270500c60b0532ca36cd4716c295bf0351b25835351664a3125bf600c60009054906101000a900473ffffffffffffffffffffffffffffffffffffffff166040516116df9190613a91565b60405180910390a16116f18282612799565b5050565b80600460003373ffffffffffffffffffffffffffffffffffffffff1673ffffffffffffffffffffffffffffffffffffffff16815260200190815260200160002060008473ffffffffffffffffffffffffffffffffffffffff1673ffffffffffffffffffffffffffffffffffffffff16815260200190815260200160002060006101000a81548160ff0219169083151502179055508173ffffffffffffffffffffffffffffffffffffffff163373ffffffffffffffffffffffffffffffffffffffff167f17307eab39ab6107e8899845ad3d59bd9653f200f220920489ca2b5937696c31836040516117e69190613abf565b60405180910390a35050565b61184285858585858080601f016020809104026020016040519081016040528093929190818152602001838380828437600081840152601f19601f82011690508083019250505050505050612191565b5050505050565b600061185482612779565b9050919050565b81600073ffffffffffffffffffffffffffffffffffffffff166001600083815260200190815260200160002060009054906101000a900473ffffffffffffffffffffffffffffffffffffffff1673ffffffffffffffffffffffffffffffffffffffff1614156040518060400160405280600681526020017f303033303032000000000000000000000000000000000000000000000000000081525090611937576040517f08c379a000000000000000000000000000000000000000000000000000000000815260040161192e9190613ada565b60405180910390fd5b5060006001600085815260200190815260200160002060009054906101000a900473ffffffffffffffffffffffffffffffffffffffff1690508073ffffffffffffffffffffffffffffffffffffffff1661198f6120d4565b73ffffffffffffffffffffffffffffffffffffffff16146040518060400160405280600681526020017f303033303037000000000000000000000000000000000000000000000000000081525090611a1d576040517f08c379a0000000000000000000000000000000000000000000000000000000008152600401611a149190613ada565b60405180910390fd5b50600d600085815260200190815260200160002060009054906101000a900460ff16156040518060400160405280600581526020017f323030303200000000000000000000000000000000000000000000000000000081525090611ab7576040517f08c379a0000000000000000000000000000000000000000000000000000000008152600401611aae9190613ada565b60405180910390fd5b5082600e60008681526020019081526020016000209080519060200190611adf92919061342b565b506001600d600086815260200190815260200160002060006101000a81548160ff02191690831515021790555050505050565b606081600073ffffffffffffffffffffffffffffffffffffffff166001600083815260200190815260200160002060009054906101000a900473ffffffffffffffffffffffffffffffffffffffff1673ffffffffffffffffffffffffffffffffffffffff1614156040518060400160405280600681526020017f303033303032000000000000000000000000000000000000000000000000000081525090611bf0576040517f08c379a0000000000000000000000000000000000000000000000000000000008152600401611be79190613ada565b60405180910390fd5b50600b60008481526020019081526020016000208054611c0f90613cfb565b80601f0160208091040260200160405190810160405280929190818152602001828054611c3b90613cfb565b8015611c885780601f10611c5d57610100808354040283529160200191611c88565b820191906000526020600020905b815481529060010190602001808311611c6b57829003601f168201915b5050505050915050919050565b600081600073ffffffffffffffffffffffffffffffffffffffff166001600083815260200190815260200160002060009054906101000a900473ffffffffffffffffffffffffffffffffffffffff1673ffffffffffffffffffffffffffffffffffffffff1614156040518060400160405280600681526020017f303033303032000000000000000000000000000000000000000000000000000081525090611d73576040517f08c379a0000000000000000000000000000000000000000000000000000000008152600401611d6a9190613ada565b60405180910390fd5b50600d600084815260200190815260200160002060009054906101000a900460ff16915050919050565b600c60009054906101000a900473ffffffffffffffffffffffffffffffffffffffff1673ffffffffffffffffffffffffffffffffffffffff163373ffffffffffffffffffffffffffffffffffffffff1614611e2d576040517f08c379a0000000000000000000000000000000000000000000000000000000008152600401611e2490613afc565b60405180910390fd5b7f2d5a82cbc34270500c60b0532ca36cd4716c295bf0351b25835351664a3125bf600c60009054906101000a900473ffffffffffffffffffffffffffffffffffffffff16604051611e7e9190613a91565b60405180910390a1611e9083836127a7565b80600b60008481526020019081526020016000209080519060200190611eb792919061342b565b50505050565b606081600073ffffffffffffffffffffffffffffffffffffffff166001600083815260200190815260200160002060009054906101000a900473ffffffffffffffffffffffffffffffffffffffff1673ffffffffffffffffffffffffffffffffffffffff1614156040518060400160405280600681526020017f303033303032000000000000000000000000000000000000000000000000000081525090611f9b576040517f08c379a0000000000000000000000000000000000000000000000000000000008152600401611f929190613ada565b60405180910390fd5b50600e60008481526020019081526020016000208054611fba90613cfb565b80601f0160208091040260200160405190810160405280929190818152602001828054611fe690613cfb565b80156120335780601f1061200857610100808354040283529160200191612033565b820191906000526020600020905b81548152906001019060200180831161201657829003601f168201915b5050505050915050919050565b6000600460008473ffffffffffffffffffffffffffffffffffffffff1673ffffffffffffffffffffffffffffffffffffffff16815260200190815260200160002060008373ffffffffffffffffffffffffffffffffffffffff1673ffffffffffffffffffffffffffffffffffffffff16815260200190815260200160002060009054906101000a900460ff16905092915050565b600033905090565b60006001600083815260200190815260200160002060009054906101000a900473ffffffffffffffffffffffffffffffffffffffff16905061211d82612845565b612127818361278b565b6121318383612799565b818373ffffffffffffffffffffffffffffffffffffffff168273ffffffffffffffffffffffffffffffffffffffff167fddf252ad1be2c89b69c2b068fc378daa952ba7f163c4a11628f55a4df523b3ef60405160405180910390a4505050565b8160006001600083815260200190815260200160002060009054906101000a900473ffffffffffffffffffffffffffffffffffffffff1690506121d26120d4565b73ffffffffffffffffffffffffffffffffffffffff168173ffffffffffffffffffffffffffffffffffffffff161480612270575061220e6120d4565b73ffffffffffffffffffffffffffffffffffffffff166002600084815260200190815260200160002060009054906101000a900473ffffffffffffffffffffffffffffffffffffffff1673ffffffffffffffffffffffffffffffffffffffff16145b806123015750600460008273ffffffffffffffffffffffffffffffffffffffff1673ffffffffffffffffffffffffffffffffffffffff16815260200190815260200160002060003373ffffffffffffffffffffffffffffffffffffffff1673ffffffffffffffffffffffffffffffffffffffff16815260200190815260200160002060009054906101000a900460ff165b6040518060400160405280600681526020017f303033303034000000000000000000000000000000000000000000000000000081525090612378576040517f08c379a000000000000000000000000000000000000000000000000000000000815260040161236f9190613ada565b60405180910390fd5b5083600073ffffffffffffffffffffffffffffffffffffffff166001600083815260200190815260200160002060009054906101000a900473ffffffffffffffffffffffffffffffffffffffff1673ffffffffffffffffffffffffffffffffffffffff1614156040518060400160405280600681526020017f303033303032000000000000000000000000000000000000000000000000000081525090612455576040517f08c379a000000000000000000000000000000000000000000000000000000000815260040161244c9190613ada565b60405180910390fd5b5060006001600087815260200190815260200160002060009054906101000a900473ffffffffffffffffffffffffffffffffffffffff1690508773ffffffffffffffffffffffffffffffffffffffff168173ffffffffffffffffffffffffffffffffffffffff16146040518060400160405280600681526020017f303033303037000000000000000000000000000000000000000000000000000081525090612534576040517f08c379a000000000000000000000000000000000000000000000000000000000815260040161252b9190613ada565b60405180910390fd5b50600073ffffffffffffffffffffffffffffffffffffffff168773ffffffffffffffffffffffffffffffffffffffff1614156040518060400160405280600681526020017f3030333030310000000000000000000000000000000000000000000000000000815250906125dd576040517f08c379a00000000000000000000000000000000000000000000000000000000081526004016125d49190613ada565b60405180910390fd5b506125e887876120dc565b6126078773ffffffffffffffffffffffffffffffffffffffff166128e6565b156127635760008773ffffffffffffffffffffffffffffffffffffffff1663150b7a02338b8a8a6040518563ffffffff1660e01b815260040161264d9493929190613a45565b602060405180830381600087803b15801561266757600080fd5b505af115801561267b573d6000803e3d6000fd5b505050506040513d601f19601f8201168201806040525081019061269f9190613865565b905063150b7a0260e01b7bffffffffffffffffffffffffffffffffffffffffffffffffffffffff1916817bffffffffffffffffffffffffffffffffffffffffffffffffffffffff1916146040518060400160405280600681526020017f303033303035000000000000000000000000000000000000000000000000000081525090612760576040517f08c379a00000000000000000000000000000000000000000000000000000000081526004016127579190613ada565b60405180910390fd5b50505b5050505050505050565b61277681612931565b50565b600061278482612984565b9050919050565b61279582826129d0565b5050565b6127a38282612d09565b5050565b600160de6127b59190613c04565b60ff16600580549050106040518060400160405280600581526020017f323030303100000000000000000000000000000000000000000000000000000081525090612836576040517f08c379a000000000000000000000000000000000000000000000000000000000815260040161282d9190613ada565b60405180910390fd5b506128418282612f06565b5050565b600073ffffffffffffffffffffffffffffffffffffffff166002600083815260200190815260200160002060009054906101000a900473ffffffffffffffffffffffffffffffffffffffff1673ffffffffffffffffffffffffffffffffffffffff16146128e3576002600082815260200190815260200160002060006101000a81549073ffffffffffffffffffffffffffffffffffffffff02191690555b50565b60008060007fc5d2460186f7233c927e7db2dcc703c0e500b653ca82273b7bfad8045d85a47060001b9050833f91506000801b82141580156129285750808214155b92505050919050565b61293a81612f66565b6000600b6000838152602001908152602001600020805461295a90613cfb565b90501461298157600b6000828152602001908152602001600020600061298091906134b1565b5b50565b6000600760008373ffffffffffffffffffffffffffffffffffffffff1673ffffffffffffffffffffffffffffffffffffffff168152602001908152602001600020805490509050919050565b8173ffffffffffffffffffffffffffffffffffffffff166001600083815260200190815260200160002060009054906101000a900473ffffffffffffffffffffffffffffffffffffffff1673ffffffffffffffffffffffffffffffffffffffff16146040518060400160405280600681526020017f303033303037000000000000000000000000000000000000000000000000000081525090612aa9576040517f08c379a0000000000000000000000000000000000000000000000000000000008152600401612aa09190613ada565b60405180910390fd5b506001600082815260200190815260200160002060006101000a81549073ffffffffffffffffffffffffffffffffffffffff021916905560006008600083815260200190815260200160002054905060006001600760008673ffffffffffffffffffffffffffffffffffffffff1673ffffffffffffffffffffffffffffffffffffffff16815260200190815260200160002080549050612b499190613bd0565b9050818114612c78576000600760008673ffffffffffffffffffffffffffffffffffffffff1673ffffffffffffffffffffffffffffffffffffffff1681526020019081526020016000208281548110612bcb577f4e487b7100000000000000000000000000000000000000000000000000000000600052603260045260246000fd5b9060005260206000200154905080600760008773ffffffffffffffffffffffffffffffffffffffff1673ffffffffffffffffffffffffffffffffffffffff1681526020019081526020016000208481548110612c50577f4e487b7100000000000000000000000000000000000000000000000000000000600052603260045260246000fd5b9060005260206000200181905550826008600083815260200190815260200160002081905550505b600760008573ffffffffffffffffffffffffffffffffffffffff1673ffffffffffffffffffffffffffffffffffffffff168152602001908152602001600020805480612ced577f4e487b7100000000000000000000000000000000000000000000000000000000600052603160045260246000fd5b6001900381819060005260206000200160009055905550505050565b600073ffffffffffffffffffffffffffffffffffffffff166001600083815260200190815260200160002060009054906101000a900473ffffffffffffffffffffffffffffffffffffffff1673ffffffffffffffffffffffffffffffffffffffff16146040518060400160405280600681526020017f303033303036000000000000000000000000000000000000000000000000000081525090612de3576040517f08c379a0000000000000000000000000000000000000000000000000000000008152600401612dda9190613ada565b60405180910390fd5b50816001600083815260200190815260200160002060006101000a81548173ffffffffffffffffffffffffffffffffffffffff021916908373ffffffffffffffffffffffffffffffffffffffff160217905550600760008373ffffffffffffffffffffffffffffffffffffffff1673ffffffffffffffffffffffffffffffffffffffff1681526020019081526020016000208190806001815401808255809150506001900390600052602060002001600090919091909150556001600760008473ffffffffffffffffffffffffffffffffffffffff1673ffffffffffffffffffffffffffffffffffffffff16815260200190815260200160002080549050612eeb9190613bd0565b60086000838152602001908152602001600020819055505050565b612f1082826130b4565b60058190806001815401808255809150506001900390600052602060002001600090919091909150556001600580549050612f4b9190613bd0565b60066000838152602001908152602001600020819055505050565b612f6f816132a2565b60006006600083815260200190815260200160002054905060006001600580549050612f9b9190613bd0565b9050600060058281548110612fd9577f4e487b7100000000000000000000000000000000000000000000000000000000600052603260045260246000fd5b906000526020600020015490508060058481548110613021577f4e487b7100000000000000000000000000000000000000000000000000000000600052603260045260246000fd5b90600052602060002001819055506005805480613067577f4e487b7100000000000000000000000000000000000000000000000000000000600052603160045260246000fd5b600190038181906000526020600020016000905590558260066000838152602001908152602001600020819055506000600660008681526020019081526020016000208190555050505050565b600073ffffffffffffffffffffffffffffffffffffffff168273ffffffffffffffffffffffffffffffffffffffff1614156040518060400160405280600681526020017f30303330303100000000000000000000000000000000000000000000000000008152509061315c576040517f08c379a00000000000000000000000000000000000000000000000000000000081526004016131539190613ada565b60405180910390fd5b50600073ffffffffffffffffffffffffffffffffffffffff166001600083815260200190815260200160002060009054906101000a900473ffffffffffffffffffffffffffffffffffffffff1673ffffffffffffffffffffffffffffffffffffffff16146040518060400160405280600681526020017f303033303036000000000000000000000000000000000000000000000000000081525090613237576040517f08c379a000000000000000000000000000000000000000000000000000000000815260040161322e9190613ada565b60405180910390fd5b506132428282612799565b808273ffffffffffffffffffffffffffffffffffffffff16600073ffffffffffffffffffffffffffffffffffffffff167fddf252ad1be2c89b69c2b068fc378daa952ba7f163c4a11628f55a4df523b3ef60405160405180910390a45050565b80600073ffffffffffffffffffffffffffffffffffffffff166001600083815260200190815260200160002060009054906101000a900473ffffffffffffffffffffffffffffffffffffffff1673ffffffffffffffffffffffffffffffffffffffff1614156040518060400160405280600681526020017f30303330303200000000000000000000000000000000000000000000000000008152509061337e576040517f08c379a00000000000000000000000000000000000000000000000000000000081526004016133759190613ada565b60405180910390fd5b5060006001600084815260200190815260200160002060009054906101000a900473ffffffffffffffffffffffffffffffffffffffff1690506133c083612845565b6133ca818461278b565b82600073ffffffffffffffffffffffffffffffffffffffff168273ffffffffffffffffffffffffffffffffffffffff167fddf252ad1be2c89b69c2b068fc378daa952ba7f163c4a11628f55a4df523b3ef60405160405180910390a4505050565b82805461343790613cfb565b90600052602060002090601f01602090048101928261345957600085556134a0565b82601f1061347257805160ff19168380011785556134a0565b828001600101855582156134a0579182015b8281111561349f578251825591602001919060010190613484565b5b5090506134ad91906134f1565b5090565b5080546134bd90613cfb565b6000825580601f106134cf57506134ee565b601f0160209004906000526020600020908101906134ed91906134f1565b5b50565b5b8082111561350a5760008160009055506001016134f2565b5090565b600061352161351c84613b68565b613b37565b90508281526020810184848401111561353957600080fd5b613544848285613cb9565b509392505050565b60008135905061355b81613dcb565b92915050565b60008135905061357081613de2565b92915050565b60008135905061358581613df9565b92915050565b60008151905061359a81613df9565b92915050565b60008083601f8401126135b257600080fd5b8235905067ffffffffffffffff8111156135cb57600080fd5b6020830191508360018202830111156135e357600080fd5b9250929050565b600082601f8301126135fb57600080fd5b813561360b84826020860161350e565b91505092915050565b60008135905061362381613e10565b92915050565b60006020828403121561363b57600080fd5b60006136498482850161354c565b91505092915050565b6000806040838503121561366557600080fd5b60006136738582860161354c565b92505060206136848582860161354c565b9150509250929050565b6000806000606084860312156136a357600080fd5b60006136b18682870161354c565b93505060206136c28682870161354c565b92505060406136d386828701613614565b9150509250925092565b6000806000806000608086880312156136f557600080fd5b60006137038882890161354c565b95505060206137148882890161354c565b945050604061372588828901613614565b935050606086013567ffffffffffffffff81111561374257600080fd5b61374e888289016135a0565b92509250509295509295909350565b6000806040838503121561377057600080fd5b600061377e8582860161354c565b925050602061378f85828601613561565b9150509250929050565b600080604083850312156137ac57600080fd5b60006137ba8582860161354c565b92505060206137cb85828601613614565b9150509250929050565b6000806000606084860312156137ea57600080fd5b60006137f88682870161354c565b935050602061380986828701613614565b925050604084013567ffffffffffffffff81111561382657600080fd5b613832868287016135ea565b9150509250925092565b60006020828403121561384e57600080fd5b600061385c84828501613576565b91505092915050565b60006020828403121561387757600080fd5b60006138858482850161358b565b91505092915050565b6000602082840312156138a057600080fd5b60006138ae84828501613614565b91505092915050565b600080604083850312156138ca57600080fd5b60006138d885828601613614565b925050602083013567ffffffffffffffff8111156138f557600080fd5b613901858286016135ea565b9150509250929050565b61391481613c38565b82525050565b61392381613c4a565b82525050565b600061393482613b98565b61393e8185613bae565b935061394e818560208601613cc8565b61395781613dba565b840191505092915050565b600061396d82613ba3565b6139778185613bbf565b9350613987818560208601613cc8565b61399081613dba565b840191505092915050565b60006139a8600c83613bbf565b91507f4e6f7420616e206f776e657200000000000000000000000000000000000000006000830152602082019050919050565b60006139e8601c83613bbf565b91507f706173736564206f776e65727368697020726571756972656d656e74000000006000830152602082019050919050565b613a2481613ca2565b82525050565b6000602082019050613a3f600083018461390b565b92915050565b6000608082019050613a5a600083018761390b565b613a67602083018661390b565b613a746040830185613a1b565b8181036060830152613a868184613929565b905095945050505050565b6000604082019050613aa6600083018461390b565b8181036020830152613ab7816139db565b905092915050565b6000602082019050613ad4600083018461391a565b92915050565b60006020820190508181036000830152613af48184613962565b905092915050565b60006020820190508181036000830152613b158161399b565b9050919050565b6000602082019050613b316000830184613a1b565b92915050565b6000604051905081810181811067ffffffffffffffff82111715613b5e57613b5d613d8b565b5b8060405250919050565b600067ffffffffffffffff821115613b8357613b82613d8b565b5b601f19601f8301169050602081019050919050565b600081519050919050565b600081519050919050565b600082825260208201905092915050565b600082825260208201905092915050565b6000613bdb82613ca2565b9150613be683613ca2565b925082821015613bf957613bf8613d2d565b5b828203905092915050565b6000613c0f82613cac565b9150613c1a83613cac565b925082821015613c2d57613c2c613d2d565b5b828203905092915050565b6000613c4382613c82565b9050919050565b60008115159050919050565b60007fffffffff0000000000000000000000000000000000000000000000000000000082169050919050565b600073ffffffffffffffffffffffffffffffffffffffff82169050919050565b6000819050919050565b600060ff82169050919050565b82818337600083830152505050565b60005b83811015613ce6578082015181840152602081019050613ccb565b83811115613cf5576000848401525b50505050565b60006002820490506001821680613d1357607f821691505b60208210811415613d2757613d26613d5c565b5b50919050565b7f4e487b7100000000000000000000000000000000000000000000000000000000600052601160045260246000fd5b7f4e487b7100000000000000000000000000000000000000000000000000000000600052602260045260246000fd5b7f4e487b7100000000000000000000000000000000000000000000000000000000600052604160045260246000fd5b6000601f19601f8301169050919050565b613dd481613c38565b8114613ddf57600080fd5b50565b613deb81613c4a565b8114613df657600080fd5b50565b613e0281613c56565b8114613e0d57600080fd5b50565b613e1981613ca2565b8114613e2457600080fd5b5056fea2646970667358221220dda9c820a847ef3c2c577d899db7cd5985d63720902718ba72fbd768aeb70c2b64736f6c63430008000033",
  "linkReferences": {},
  "deployedLinkReferences": {}
}