{
  "_format": "hh-sol-artifact-1",
  "contractName": "StopTheWarOnDrugs",
  "sourceName": "contracts/NMWD/StopTheWarOnDrugs.sol",
  "abi": [
    {
      "inputs": [
        {
          "internalType": "string",
          "name": "_name",
          "type": "string"
        },
        {
          "internalType": "string",
          "name": "_symbol",
          "type": "string"
        }
      ],
      "stateMutability": "nonpayable",
      "type": "constructor"
    },
    {
      "anonymous": false,
      "inputs": [
        {
          "indexed": true,
          "internalType": "address",
          "name": "_owner",
          "type": "address"
        },
        {
          "indexed": true,
          "internalType": "address",
          "name": "_approved",
          "type": "address"
        },
        {
          "indexed": true,
          "internalType": "uint256",
          "name": "_tokenId",
          "type": "uint256"
        }
      ],
      "name": "Approval",
      "type": "event"
    },
    {
      "anonymous": false,
      "inputs": [
        {
          "indexed": true,
          "internalType": "address",
          "name": "_owner",
          "type": "address"
        },
        {
          "indexed": true,
          "internalType": "address",
          "name": "_operator",
          "type": "address"
        },
        {
          "indexed": false,
          "internalType": "bool",
          "name": "_approved",
          "type": "bool"
        }
      ],
      "name": "ApprovalForAll",
      "type": "event"
    },
    {
      "anonymous": false,
      "inputs": [
        {
          "indexed": true,
          "internalType": "address",
          "name": "previousOwner",
          "type": "address"
        },
        {
          "indexed": true,
          "internalType": "address",
          "name": "newOwner",
          "type": "address"
        }
      ],
      "name": "OwnershipTransferred",
      "type": "event"
    },
    {
      "anonymous": false,
      "inputs": [
        {
          "indexed": true,
          "internalType": "address",
          "name": "_from",
          "type": "address"
        },
        {
          "indexed": true,
          "internalType": "address",
          "name": "_to",
          "type": "address"
        },
        {
          "indexed": true,
          "internalType": "uint256",
          "name": "_tokenId",
          "type": "uint256"
        }
      ],
      "name": "Transfer",
      "type": "event"
    },
    {
      "anonymous": false,
      "inputs": [
        {
          "indexed": false,
          "internalType": "address",
          "name": "deliveredTo",
          "type": "address"
        },
        {
          "indexed": false,
          "internalType": "string",
          "name": "msg",
          "type": "string"
        }
      ],
      "name": "_msg",
      "type": "event"
    },
    {
      "inputs": [],
      "name": "CANNOT_TRANSFER_TO_ZERO_ADDRESS",
      "outputs": [
        {
          "internalType": "string",
          "name": "",
          "type": "string"
        }
      ],
      "stateMutability": "view",
      "type": "function"
    },
    {
      "inputs": [],
      "name": "NOT_CURRENT_OWNER",
      "outputs": [
        {
          "internalType": "string",
          "name": "",
          "type": "string"
        }
      ],
      "stateMutability": "view",
      "type": "function"
    },
    {
      "inputs": [
        {
          "internalType": "address",
          "name": "_to",
          "type": "address"
        },
        {
          "internalType": "uint256",
          "name": "_tokenId",
          "type": "uint256"
        }
      ],
      "name": "addNFToken",
      "outputs": [],
      "stateMutability": "nonpayable",
      "type": "function"
    },
    {
      "inputs": [
        {
          "internalType": "address",
          "name": "_approved",
          "type": "address"
        },
        {
          "internalType": "uint256",
          "name": "_tokenId",
          "type": "uint256"
        }
      ],
      "name": "approve",
      "outputs": [],
      "stateMutability": "nonpayable",
      "type": "function"
    },
    {
      "inputs": [
        {
          "internalType": "address",
          "name": "_owner",
          "type": "address"
        }
      ],
      "name": "balanceOf",
      "outputs": [
        {
          "internalType": "uint256",
          "name": "",
          "type": "uint256"
        }
      ],
      "stateMutability": "view",
      "type": "function"
    },
    {
      "inputs": [
        {
          "internalType": "uint256",
          "name": "_tokenId",
          "type": "uint256"
        }
      ],
      "name": "burn",
      "outputs": [],
      "stateMutability": "nonpayable",
      "type": "function"
    },
    {
      "inputs": [
        {
          "internalType": "uint256",
          "name": "_tokenId",
          "type": "uint256"
        }
      ],
      "name": "exists",
      "outputs": [
        {
          "internalType": "bool",
          "name": "",
          "type": "bool"
        }
      ],
      "stateMutability": "view",
      "type": "function"
    },
    {
      "inputs": [
        {
          "internalType": "uint256",
          "name": "_tokenId",
          "type": "uint256"
        }
      ],
      "name": "getApproved",
      "outputs": [
        {
          "internalType": "address",
          "name": "",
          "type": "address"
        }
      ],
      "stateMutability": "view",
      "type": "function"
    },
    {
      "inputs": [
        {
          "internalType": "address",
          "name": "_address",
          "type": "address"
        }
      ],
      "name": "getNFTsByAddress",
      "outputs": [
        {
          "internalType": "uint256[]",
          "name": "",
          "type": "uint256[]"
        }
      ],
      "stateMutability": "view",
      "type": "function"
    },
    {
      "inputs": [],
      "name": "getOwner",
      "outputs": [
        {
          "internalType": "address",
          "name": "",
          "type": "address"
        }
      ],
      "stateMutability": "view",
      "type": "function"
    },
    {
      "inputs": [
        {
          "internalType": "address",
          "name": "_owner",
          "type": "address"
        }
      ],
      "name": "getOwnerNFTCount",
      "outputs": [
        {
          "internalType": "uint256",
          "name": "",
          "type": "uint256"
        }
      ],
      "stateMutability": "view",
      "type": "function"
    },
    {
      "inputs": [
        {
          "internalType": "address",
          "name": "_owner",
          "type": "address"
        },
        {
          "internalType": "address",
          "name": "_operator",
          "type": "address"
        }
      ],
      "name": "isApprovedForAll",
      "outputs": [
        {
          "internalType": "bool",
          "name": "",
          "type": "bool"
        }
      ],
      "stateMutability": "view",
      "type": "function"
    },
    {
      "inputs": [
        {
          "internalType": "address",
          "name": "_to",
          "type": "address"
        },
        {
          "internalType": "uint256",
          "name": "_tokenId",
          "type": "uint256"
        },
        {
          "internalType": "address",
          "name": "royaltyRecipient",
          "type": "address"
        },
        {
          "internalType": "uint256",
          "name": "royaltyValue",
          "type": "uint256"
        }
      ],
      "name": "mint",
      "outputs": [],
      "stateMutability": "nonpayable",
      "type": "function"
    },
    {
      "inputs": [],
      "name": "name",
      "outputs": [
        {
          "internalType": "string",
          "name": "_name",
          "type": "string"
        }
      ],
      "stateMutability": "view",
      "type": "function"
    },
    {
      "inputs": [],
      "name": "owner",
      "outputs": [
        {
          "internalType": "address",
          "name": "",
          "type": "address"
        }
      ],
      "stateMutability": "view",
      "type": "function"
    },
    {
      "inputs": [
        {
          "internalType": "uint256",
          "name": "_tokenId",
          "type": "uint256"
        }
      ],
      "name": "ownerOf",
      "outputs": [
        {
          "internalType": "address",
          "name": "_owner",
          "type": "address"
        }
      ],
      "stateMutability": "view",
      "type": "function"
    },
    {
      "inputs": [
        {
          "internalType": "address",
          "name": "_from",
          "type": "address"
        },
        {
          "internalType": "uint256",
          "name": "_tokenId",
          "type": "uint256"
        }
      ],
      "name": "removeNFToken",
      "outputs": [],
      "stateMutability": "nonpayable",
      "type": "function"
    },
    {
      "inputs": [
        {
          "internalType": "uint256",
          "name": "_tokenId",
          "type": "uint256"
        },
        {
          "internalType": "uint256",
          "name": "_salePrice",
          "type": "uint256"
        }
      ],
      "name": "royaltyInfo",
      "outputs": [
        {
          "internalType": "address",
          "name": "receiver",
          "type": "address"
        },
        {
          "internalType": "uint256",
          "name": "royaltyAmount",
          "type": "uint256"
        }
      ],
      "stateMutability": "view",
      "type": "function"
    },
    {
      "inputs": [
        {
          "internalType": "address",
          "name": "_from",
          "type": "address"
        },
        {
          "internalType": "address",
          "name": "_to",
          "type": "address"
        },
        {
          "internalType": "uint256",
          "name": "_tokenId",
          "type": "uint256"
        }
      ],
      "name": "safeTransferFrom",
      "outputs": [],
      "stateMutability": "nonpayable",
      "type": "function"
    },
    {
      "inputs": [
        {
          "internalType": "address",
          "name": "_from",
          "type": "address"
        },
        {
          "internalType": "address",
          "name": "_to",
          "type": "address"
        },
        {
          "internalType": "uint256",
          "name": "_tokenId",
          "type": "uint256"
        },
        {
          "internalType": "bytes",
          "name": "_data",
          "type": "bytes"
        }
      ],
      "name": "safeTransferFrom",
      "outputs": [],
      "stateMutability": "nonpayable",
      "type": "function"
    },
    {
      "inputs": [
        {
          "internalType": "uint256",
          "name": "security_value",
          "type": "uint256"
        }
      ],
      "name": "seflDestruct",
      "outputs": [],
      "stateMutability": "nonpayable",
      "type": "function"
    },
    {
      "inputs": [
        {
          "internalType": "address",
          "name": "_operator",
          "type": "address"
        },
        {
          "internalType": "bool",
          "name": "_approved",
          "type": "bool"
        }
      ],
      "name": "setApprovalForAll",
      "outputs": [],
      "stateMutability": "nonpayable",
      "type": "function"
    },
    {
      "inputs": [
        {
          "internalType": "uint256",
          "name": "_tokenId",
          "type": "uint256"
        },
        {
          "internalType": "string",
          "name": "_msg",
          "type": "string"
        }
      ],
      "name": "setTokenMessage",
      "outputs": [],
      "stateMutability": "nonpayable",
      "type": "function"
    },
    {
      "inputs": [
        {
          "internalType": "bytes4",
          "name": "_interfaceID",
          "type": "bytes4"
        }
      ],
      "name": "supportsInterface",
      "outputs": [
        {
          "internalType": "bool",
          "name": "",
          "type": "bool"
        }
      ],
      "stateMutability": "view",
      "type": "function"
    },
    {
      "inputs": [],
      "name": "symbol",
      "outputs": [
        {
          "internalType": "string",
          "name": "_symbol",
          "type": "string"
        }
      ],
      "stateMutability": "view",
      "type": "function"
    },
    {
      "inputs": [
        {
          "internalType": "uint256",
          "name": "_index",
          "type": "uint256"
        }
      ],
      "name": "tokenByIndex",
      "outputs": [
        {
          "internalType": "uint256",
          "name": "",
          "type": "uint256"
        }
      ],
      "stateMutability": "view",
      "type": "function"
    },
    {
      "inputs": [
        {
          "internalType": "uint256",
          "name": "_tokenId",
          "type": "uint256"
        }
      ],
      "name": "tokenMessage",
      "outputs": [
        {
          "internalType": "string",
          "name": "",
          "type": "string"
        }
      ],
      "stateMutability": "view",
      "type": "function"
    },
    {
      "inputs": [
        {
          "internalType": "address",
          "name": "_owner",
          "type": "address"
        },
        {
          "internalType": "uint256",
          "name": "_index",
          "type": "uint256"
        }
      ],
      "name": "tokenOfOwnerByIndex",
      "outputs": [
        {
          "internalType": "uint256",
          "name": "",
          "type": "uint256"
        }
      ],
      "stateMutability": "view",
      "type": "function"
    },
    {
      "inputs": [
        {
          "internalType": "uint256",
          "name": "_tokenId",
          "type": "uint256"
        }
      ],
      "name": "tokenURI",
      "outputs": [
        {
          "internalType": "string",
          "name": "",
          "type": "string"
        }
      ],
      "stateMutability": "view",
      "type": "function"
    },
    {
      "inputs": [],
      "name": "totalSupply",
      "outputs": [
        {
          "internalType": "uint256",
          "name": "",
          "type": "uint256"
        }
      ],
      "stateMutability": "view",
      "type": "function"
    },
    {
      "inputs": [
        {
          "internalType": "address",
          "name": "_from",
          "type": "address"
        },
        {
          "internalType": "address",
          "name": "_to",
          "type": "address"
        },
        {
          "internalType": "uint256",
          "name": "_tokenId",
          "type": "uint256"
        }
      ],
      "name": "transferFrom",
      "outputs": [],
      "stateMutability": "nonpayable",
      "type": "function"
    },
    {
      "inputs": [
        {
          "internalType": "address",
          "name": "_newOwner",
          "type": "address"
        }
      ],
      "name": "transferOwnership",
      "outputs": [],
      "stateMutability": "nonpayable",
      "type": "function"
    },
    {
      "inputs": [
        {
          "internalType": "string",
          "name": "_msg",
          "type": "string"
        }
      ],
      "name": "validateMsg",
      "outputs": [
        {
          "internalType": "bool",
          "name": "",
          "type": "bool"
        }
      ],
      "stateMutability": "pure",
      "type": "function"
    }
  ],
  "bytecode": "0x60806040523480156200001157600080fd5b5060405162005405380380620054058339818101604052810190620000379190620003d6565b60016000806301ffc9a760e01b7bffffffffffffffffffffffffffffffffffffffffffffffffffffffff1916815260200190815260200160002060006101000a81548160ff02191690831515021790555060016000806380ac58cd60e01b7bffffffffffffffffffffffffffffffffffffffffffffffffffffffff1916815260200190815260200160002060006101000a81548160ff021916908315150217905550600160008063780e9d6360e01b7bffffffffffffffffffffffffffffffffffffffffffffffffffffffff1916815260200190815260200160002060006101000a81548160ff0219169083151502179055506001600080635b5e139f60e01b7bffffffffffffffffffffffffffffffffffffffffffffffffffffffff1916815260200190815260200160002060006101000a81548160ff0219169083151502179055506001600080632a55205a60e01b7bffffffffffffffffffffffffffffffffffffffffffffffffffffffff1916815260200190815260200160002060006101000a81548160ff021916908315150217905550620001dc6200021660201b60201c565b8160099080519060200190620001f4929190620002b4565b5080600a90805190602001906200020d929190620002b4565b50505062000644565b33600c60006101000a81548173ffffffffffffffffffffffffffffffffffffffff021916908373ffffffffffffffffffffffffffffffffffffffff1602179055507f2d5a82cbc34270500c60b0532ca36cd4716c295bf0351b25835351664a3125bf600c60009054906101000a900473ffffffffffffffffffffffffffffffffffffffff16604051620002aa91906200049c565b60405180910390a1565b828054620002c290620005b0565b90600052602060002090601f016020900481019282620002e6576000855562000332565b82601f106200030157805160ff191683800117855562000332565b8280016001018555821562000332579182015b828111156200033157825182559160200191906001019062000314565b5b50905062000341919062000345565b5090565b5b808211156200036057600081600090555060010162000346565b5090565b60006200037b620003758462000502565b620004ce565b9050828152602081018484840111156200039457600080fd5b620003a18482856200057a565b509392505050565b600082601f830112620003bb57600080fd5b8151620003cd84826020860162000364565b91505092915050565b60008060408385031215620003ea57600080fd5b600083015167ffffffffffffffff8111156200040557600080fd5b6200041385828601620003a9565b925050602083015167ffffffffffffffff8111156200043157600080fd5b6200043f85828601620003a9565b9150509250929050565b620004548162000546565b82525050565b60006200046960098362000535565b91507f736574206f776e657200000000000000000000000000000000000000000000006000830152602082019050919050565b6000604082019050620004b3600083018462000449565b8181036020830152620004c6816200045a565b905092915050565b6000604051905081810181811067ffffffffffffffff82111715620004f857620004f762000615565b5b8060405250919050565b600067ffffffffffffffff82111562000520576200051f62000615565b5b601f19601f8301169050602081019050919050565b600082825260208201905092915050565b600062000553826200055a565b9050919050565b600073ffffffffffffffffffffffffffffffffffffffff82169050919050565b60005b838110156200059a5780820151818401526020810190506200057d565b83811115620005aa576000848401525b50505050565b60006002820490506001821680620005c957607f821691505b60208210811415620005e057620005df620005e6565b5b50919050565b7f4e487b7100000000000000000000000000000000000000000000000000000000600052602260045260246000fd5b7f4e487b7100000000000000000000000000000000000000000000000000000000600052604160045260246000fd5b614db180620006546000396000f3fe608060405234801561001057600080fd5b50600436106101fb5760003560e01c80637ff0bf071161011a578063a22cb465116100ad578063c87b56dd1161007c578063c87b56dd146105f9578063e4b7baeb14610629578063e985e9c514610659578063f2fde38b14610689578063f3fe3bc3146106a5576101fb565b8063a22cb46514610575578063b88d4fde14610591578063bd7f4c8d146105ad578063c2af674f146105dd576101fb565b80638da5cb5b116100e95780638da5cb5b146105015780638f8470761461051f57806395d89b411461053b5780639c01e1f514610559576101fb565b80637ff0bf0714610479578063860d248a14610495578063893d20e8146104b3578063894b5b3c146104d1576101fb565b80632f745c59116101925780634f558e79116101615780634f558e79146103b95780634f6ccce7146103e95780636352211e1461041957806370a0823114610449576101fb565b80632f745c59146103355780633c173a4f1461036557806342842e0e1461038157806342966c681461039d576101fb565b806318160ddd116101ce57806318160ddd1461029a5780631dadae8e146102b857806323b872dd146102e85780632a55205a14610304576101fb565b806301ffc9a71461020057806306fdde0314610230578063081812fc1461024e578063095ea7b31461027e575b600080fd5b61021a60048036038101906102159190614444565b6106c3565b60405161022791906148a9565b60405180910390f35b61023861072a565b60405161024591906148c4565b60405180910390f35b610268600480360381019061026391906144d7565b6107bc565b60405161027591906147c9565b60405180910390f35b610298600480360381019061029391906143a5565b6108d7565b005b6102a2610cc1565b6040516102af9190614926565b60405180910390f35b6102d260048036038101906102cd9190614235565b610cce565b6040516102df9190614887565b60405180910390f35b61030260048036038101906102fd919061429a565b610d65565b005b61031e60048036038101906103199190614554565b6111c5565b60405161032c92919061485e565b60405180910390f35b61034f600480360381019061034a91906143a5565b611278565b60405161035c9190614926565b60405180910390f35b61037f600480360381019061037a91906143e1565b6113c1565b005b61039b6004803603810190610396919061429a565b61166d565b005b6103b760048036038101906103b291906144d7565b61168d565b005b6103d360048036038101906103ce91906144d7565b6117c5565b6040516103e091906148a9565b60405180910390f35b61040360048036038101906103fe91906144d7565b611841565b6040516104109190614926565b60405180910390f35b610433600480360381019061042e91906144d7565b61190f565b60405161044091906147c9565b60405180910390f35b610463600480360381019061045e9190614235565b6119f5565b6040516104709190614926565b60405180910390f35b610493600480360381019061048e91906144d7565b611aaf565b005b61049d611be2565b6040516104aa91906148c4565b60405180910390f35b6104bb611c1b565b6040516104c891906147c9565b60405180910390f35b6104eb60048036038101906104e69190614496565b611c45565b6040516104f891906148a9565b60405180910390f35b610509611c7e565b60405161051691906147c9565b60405180910390f35b610539600480360381019061053491906143a5565b611ca4565b005b610543611d9b565b60405161055091906148c4565b60405180910390f35b610573600480360381019061056e91906143a5565b611e2d565b005b61058f600480360381019061058a9190614369565b611f24565b005b6105ab60048036038101906105a691906142e9565b612021565b005b6105c760048036038101906105c29190614235565b612078565b6040516105d49190614926565b60405180910390f35b6105f760048036038101906105f29190614500565b61208a565b005b610613600480360381019061060e91906144d7565b61239d565b60405161062091906148c4565b60405180910390f35b610643600480360381019061063e91906144d7565b612520565b60405161065091906148c4565b60405180910390f35b610673600480360381019061066e919061425e565b6126a3565b60405161068091906148a9565b60405180910390f35b6106a3600480360381019061069e9190614235565b612737565b005b6106ad612989565b6040516106ba91906148c4565b60405180910390f35b6000806000837bffffffffffffffffffffffffffffffffffffffffffffffffffffffff19167bffffffffffffffffffffffffffffffffffffffffffffffffffffffff1916815260200190815260200160002060009054906101000a900460ff169050919050565b60606009805461073990614bd7565b80601f016020809104026020016040519081016040528092919081815260200182805461076590614bd7565b80156107b25780601f10610787576101008083540402835291602001916107b2565b820191906000526020600020905b81548152906001019060200180831161079557829003601f168201915b5050505050905090565b600081600073ffffffffffffffffffffffffffffffffffffffff166001600083815260200190815260200160002060009054906101000a900473ffffffffffffffffffffffffffffffffffffffff1673ffffffffffffffffffffffffffffffffffffffff1614156040518060400160405280600481526020017f30333032000000000000000000000000000000000000000000000000000000008152509061089a576040517f08c379a000000000000000000000000000000000000000000000000000000000815260040161089191906148c4565b60405180910390fd5b506002600084815260200190815260200160002060009054906101000a900473ffffffffffffffffffffffffffffffffffffffff16915050919050565b8060006001600083815260200190815260200160002060009054906101000a900473ffffffffffffffffffffffffffffffffffffffff1690506109186129c2565b73ffffffffffffffffffffffffffffffffffffffff168173ffffffffffffffffffffffffffffffffffffffff1614806109d75750600460008273ffffffffffffffffffffffffffffffffffffffff1673ffffffffffffffffffffffffffffffffffffffff16815260200190815260200160002060003373ffffffffffffffffffffffffffffffffffffffff1673ffffffffffffffffffffffffffffffffffffffff16815260200190815260200160002060009054906101000a900460ff165b6040518060400160405280600481526020017f303330330000000000000000000000000000000000000000000000000000000081525090610a4e576040517f08c379a0000000000000000000000000000000000000000000000000000000008152600401610a4591906148c4565b60405180910390fd5b5082600073ffffffffffffffffffffffffffffffffffffffff166001600083815260200190815260200160002060009054906101000a900473ffffffffffffffffffffffffffffffffffffffff1673ffffffffffffffffffffffffffffffffffffffff1614156040518060400160405280600481526020017f303330320000000000000000000000000000000000000000000000000000000081525090610b2b576040517f08c379a0000000000000000000000000000000000000000000000000000000008152600401610b2291906148c4565b60405180910390fd5b5060006001600086815260200190815260200160002060009054906101000a900473ffffffffffffffffffffffffffffffffffffffff1690508073ffffffffffffffffffffffffffffffffffffffff168673ffffffffffffffffffffffffffffffffffffffff1614156040518060400160405280600481526020017f303330380000000000000000000000000000000000000000000000000000000081525090610c0b576040517f08c379a0000000000000000000000000000000000000000000000000000000008152600401610c0291906148c4565b60405180910390fd5b50856002600087815260200190815260200160002060006101000a81548173ffffffffffffffffffffffffffffffffffffffff021916908373ffffffffffffffffffffffffffffffffffffffff160217905550848673ffffffffffffffffffffffffffffffffffffffff168273ffffffffffffffffffffffffffffffffffffffff167f8c5be1e5ebec7d5bd14f71427d1e84f3dd0314c0f7b2291e5b200ac8c7c3b92560405160405180910390a4505050505050565b6000600580549050905090565b6060600760008373ffffffffffffffffffffffffffffffffffffffff1673ffffffffffffffffffffffffffffffffffffffff168152602001908152602001600020805480602002602001604051908101604052809291908181526020018280548015610d5957602002820191906000526020600020905b815481526020019060010190808311610d45575b50505050509050919050565b8060006001600083815260200190815260200160002060009054906101000a900473ffffffffffffffffffffffffffffffffffffffff169050610da66129c2565b73ffffffffffffffffffffffffffffffffffffffff168173ffffffffffffffffffffffffffffffffffffffff161480610e445750610de26129c2565b73ffffffffffffffffffffffffffffffffffffffff166002600084815260200190815260200160002060009054906101000a900473ffffffffffffffffffffffffffffffffffffffff1673ffffffffffffffffffffffffffffffffffffffff16145b80610ed55750600460008273ffffffffffffffffffffffffffffffffffffffff1673ffffffffffffffffffffffffffffffffffffffff16815260200190815260200160002060003373ffffffffffffffffffffffffffffffffffffffff1673ffffffffffffffffffffffffffffffffffffffff16815260200190815260200160002060009054906101000a900460ff165b6040518060400160405280600481526020017f303330340000000000000000000000000000000000000000000000000000000081525090610f4c576040517f08c379a0000000000000000000000000000000000000000000000000000000008152600401610f4391906148c4565b60405180910390fd5b5082600073ffffffffffffffffffffffffffffffffffffffff166001600083815260200190815260200160002060009054906101000a900473ffffffffffffffffffffffffffffffffffffffff1673ffffffffffffffffffffffffffffffffffffffff1614156040518060400160405280600481526020017f303330320000000000000000000000000000000000000000000000000000000081525090611029576040517f08c379a000000000000000000000000000000000000000000000000000000000815260040161102091906148c4565b60405180910390fd5b5060006001600086815260200190815260200160002060009054906101000a900473ffffffffffffffffffffffffffffffffffffffff1690508673ffffffffffffffffffffffffffffffffffffffff168173ffffffffffffffffffffffffffffffffffffffff16146040518060400160405280600481526020017f303330370000000000000000000000000000000000000000000000000000000081525090611108576040517f08c379a00000000000000000000000000000000000000000000000000000000081526004016110ff91906148c4565b60405180910390fd5b50600073ffffffffffffffffffffffffffffffffffffffff168673ffffffffffffffffffffffffffffffffffffffff1614156040518060400160405280600481526020017f3033303100000000000000000000000000000000000000000000000000000000815250906111b1576040517f08c379a00000000000000000000000000000000000000000000000000000000081526004016111a891906148c4565b60405180910390fd5b506111bc86866129ca565b50505050505050565b6000806000600d60008681526020019081526020016000206040518060400160405290816000820160009054906101000a900473ffffffffffffffffffffffffffffffffffffffff1673ffffffffffffffffffffffffffffffffffffffff1673ffffffffffffffffffffffffffffffffffffffff168152602001600182015481525050905080600001516127108260200151866112629190614a86565b61126c9190614a55565b92509250509250929050565b6000600760008473ffffffffffffffffffffffffffffffffffffffff1673ffffffffffffffffffffffffffffffffffffffff1681526020019081526020016000208054905082106040518060400160405280600481526020017f303230310000000000000000000000000000000000000000000000000000000081525090611336576040517f08c379a000000000000000000000000000000000000000000000000000000000815260040161132d91906148c4565b60405180910390fd5b50600760008473ffffffffffffffffffffffffffffffffffffffff1673ffffffffffffffffffffffffffffffffffffffff16815260200190815260200160002082815481106113ae577f4e487b7100000000000000000000000000000000000000000000000000000000600052603260045260246000fd5b9060005260206000200154905092915050565b600c60009054906101000a900473ffffffffffffffffffffffffffffffffffffffff1673ffffffffffffffffffffffffffffffffffffffff163373ffffffffffffffffffffffffffffffffffffffff1614611451576040517f08c379a000000000000000000000000000000000000000000000000000000000815260040161144890614906565b60405180910390fd5b7f2d5a82cbc34270500c60b0532ca36cd4716c295bf0351b25835351664a3125bf600c60009054906101000a900473ffffffffffffffffffffffffffffffffffffffff166040516114a29190614830565b60405180910390a16114b48484612a7f565b60006114bf84612b13565b905080600b600086815260200190815260200160002090805190602001906114e8929190614037565b5060008211156114fe576114fd848484612b8d565b5b600460008673ffffffffffffffffffffffffffffffffffffffff1673ffffffffffffffffffffffffffffffffffffffff1681526020019081526020016000206000600c60009054906101000a900473ffffffffffffffffffffffffffffffffffffffff1673ffffffffffffffffffffffffffffffffffffffff1673ffffffffffffffffffffffffffffffffffffffff16815260200190815260200160002060009054906101000a900460ff16611666576001600460008773ffffffffffffffffffffffffffffffffffffffff1673ffffffffffffffffffffffffffffffffffffffff1681526020019081526020016000206000600c60009054906101000a900473ffffffffffffffffffffffffffffffffffffffff1673ffffffffffffffffffffffffffffffffffffffff1673ffffffffffffffffffffffffffffffffffffffff16815260200190815260200160002060006101000a81548160ff0219169083151502179055505b5050505050565b61168883838360405180602001604052806000815250612c69565b505050565b600c60009054906101000a900473ffffffffffffffffffffffffffffffffffffffff1673ffffffffffffffffffffffffffffffffffffffff163373ffffffffffffffffffffffffffffffffffffffff161461171d576040517f08c379a000000000000000000000000000000000000000000000000000000000815260040161171490614906565b60405180910390fd5b7f2d5a82cbc34270500c60b0532ca36cd4716c295bf0351b25835351664a3125bf600c60009054906101000a900473ffffffffffffffffffffffffffffffffffffffff1660405161176e9190614830565b60405180910390a160405180602001604052806000815250600b600083815260200190815260200160002090805190602001906117ac929190614037565b506117b981600080612b8d565b6117c281613245565b50565b60008073ffffffffffffffffffffffffffffffffffffffff166001600084815260200190815260200160002060009054906101000a900473ffffffffffffffffffffffffffffffffffffffff1673ffffffffffffffffffffffffffffffffffffffff161415611837576000905061183c565b600190505b919050565b600060058054905082106040518060400160405280600481526020017f3032303100000000000000000000000000000000000000000000000000000000815250906118c2576040517f08c379a00000000000000000000000000000000000000000000000000000000081526004016118b991906148c4565b60405180910390fd5b50600582815481106118fd577f4e487b7100000000000000000000000000000000000000000000000000000000600052603260045260246000fd5b90600052602060002001549050919050565b60006001600083815260200190815260200160002060009054906101000a900473ffffffffffffffffffffffffffffffffffffffff169050600073ffffffffffffffffffffffffffffffffffffffff168173ffffffffffffffffffffffffffffffffffffffff1614156040518060400160405280600481526020017f3033303200000000000000000000000000000000000000000000000000000000815250906119ef576040517f08c379a00000000000000000000000000000000000000000000000000000000081526004016119e691906148c4565b60405180910390fd5b50919050565b60008073ffffffffffffffffffffffffffffffffffffffff168273ffffffffffffffffffffffffffffffffffffffff1614156040518060400160405280600481526020017f303330310000000000000000000000000000000000000000000000000000000081525090611a9e576040517f08c379a0000000000000000000000000000000000000000000000000000000008152600401611a9591906148c4565b60405180910390fd5b50611aa882613251565b9050919050565b600c60009054906101000a900473ffffffffffffffffffffffffffffffffffffffff1673ffffffffffffffffffffffffffffffffffffffff163373ffffffffffffffffffffffffffffffffffffffff1614611b3f576040517f08c379a0000000000000000000000000000000000000000000000000000000008152600401611b3690614906565b60405180910390fd5b7f2d5a82cbc34270500c60b0532ca36cd4716c295bf0351b25835351664a3125bf600c60009054906101000a900473ffffffffffffffffffffffffffffffffffffffff16604051611b909190614830565b60405180910390a16202f1458114611ba757600080fd5b600c60009054906101000a900473ffffffffffffffffffffffffffffffffffffffff1673ffffffffffffffffffffffffffffffffffffffff16ff5b6040518060400160405280600481526020017f303130320000000000000000000000000000000000000000000000000000000081525081565b6000600c60009054906101000a900473ffffffffffffffffffffffffffffffffffffffff16905090565b600080829050600181511015611c5f576000915050611c79565b60c881511115611c73576000915050611c79565b60019150505b919050565b600c60009054906101000a900473ffffffffffffffffffffffffffffffffffffffff1681565b600c60009054906101000a900473ffffffffffffffffffffffffffffffffffffffff1673ffffffffffffffffffffffffffffffffffffffff163373ffffffffffffffffffffffffffffffffffffffff1614611d34576040517f08c379a0000000000000000000000000000000000000000000000000000000008152600401611d2b90614906565b60405180910390fd5b7f2d5a82cbc34270500c60b0532ca36cd4716c295bf0351b25835351664a3125bf600c60009054906101000a900473ffffffffffffffffffffffffffffffffffffffff16604051611d859190614830565b60405180910390a1611d978282613263565b5050565b6060600a8054611daa90614bd7565b80601f0160208091040260200160405190810160405280929190818152602001828054611dd690614bd7565b8015611e235780601f10611df857610100808354040283529160200191611e23565b820191906000526020600020905b815481529060010190602001808311611e0657829003601f168201915b5050505050905090565b600c60009054906101000a900473ffffffffffffffffffffffffffffffffffffffff1673ffffffffffffffffffffffffffffffffffffffff163373ffffffffffffffffffffffffffffffffffffffff1614611ebd576040517f08c379a0000000000000000000000000000000000000000000000000000000008152600401611eb490614906565b60405180910390fd5b7f2d5a82cbc34270500c60b0532ca36cd4716c295bf0351b25835351664a3125bf600c60009054906101000a900473ffffffffffffffffffffffffffffffffffffffff16604051611f0e9190614830565b60405180910390a1611f208282613271565b5050565b80600460003373ffffffffffffffffffffffffffffffffffffffff1673ffffffffffffffffffffffffffffffffffffffff16815260200190815260200160002060008473ffffffffffffffffffffffffffffffffffffffff1673ffffffffffffffffffffffffffffffffffffffff16815260200190815260200160002060006101000a81548160ff0219169083151502179055508173ffffffffffffffffffffffffffffffffffffffff163373ffffffffffffffffffffffffffffffffffffffff167f17307eab39ab6107e8899845ad3d59bd9653f200f220920489ca2b5937696c318360405161201591906148a9565b60405180910390a35050565b61207185858585858080601f016020809104026020016040519081016040528093929190818152602001838380828437600081840152601f19601f82011690508083019250505050505050612c69565b5050505050565b600061208382613251565b9050919050565b81600073ffffffffffffffffffffffffffffffffffffffff166001600083815260200190815260200160002060009054906101000a900473ffffffffffffffffffffffffffffffffffffffff1673ffffffffffffffffffffffffffffffffffffffff1614156040518060400160405280600481526020017f303330320000000000000000000000000000000000000000000000000000000081525090612166576040517f08c379a000000000000000000000000000000000000000000000000000000000815260040161215d91906148c4565b60405180910390fd5b5060006001600085815260200190815260200160002060009054906101000a900473ffffffffffffffffffffffffffffffffffffffff1690508073ffffffffffffffffffffffffffffffffffffffff166121be6129c2565b73ffffffffffffffffffffffffffffffffffffffff16146040518060400160405280600481526020017f30333037000000000000000000000000000000000000000000000000000000008152509061224c576040517f08c379a000000000000000000000000000000000000000000000000000000000815260040161224391906148c4565b60405180910390fd5b506000600e6000868152602001908152602001600020805461226d90614bd7565b9050146040518060400160405280600481526020017f3034303200000000000000000000000000000000000000000000000000000000815250906122e7576040517f08c379a00000000000000000000000000000000000000000000000000000000081526004016122de91906148c4565b60405180910390fd5b5060006122f384611c45565b9050806040518060400160405280600481526020017f30343033000000000000000000000000000000000000000000000000000000008152509061236d576040517f08c379a000000000000000000000000000000000000000000000000000000000815260040161236491906148c4565b60405180910390fd5b5083600e60008781526020019081526020016000209080519060200190612395929190614037565b505050505050565b606081600073ffffffffffffffffffffffffffffffffffffffff166001600083815260200190815260200160002060009054906101000a900473ffffffffffffffffffffffffffffffffffffffff1673ffffffffffffffffffffffffffffffffffffffff1614156040518060400160405280600481526020017f30333032000000000000000000000000000000000000000000000000000000008152509061247b576040517f08c379a000000000000000000000000000000000000000000000000000000000815260040161247291906148c4565b60405180910390fd5b50600b6000848152602001908152602001600020805461249a90614bd7565b80601f01602080910402602001604051908101604052809291908181526020018280546124c690614bd7565b80156125135780601f106124e857610100808354040283529160200191612513565b820191906000526020600020905b8154815290600101906020018083116124f657829003601f168201915b5050505050915050919050565b606081600073ffffffffffffffffffffffffffffffffffffffff166001600083815260200190815260200160002060009054906101000a900473ffffffffffffffffffffffffffffffffffffffff1673ffffffffffffffffffffffffffffffffffffffff1614156040518060400160405280600481526020017f3033303200000000000000000000000000000000000000000000000000000000815250906125fe576040517f08c379a00000000000000000000000000000000000000000000000000000000081526004016125f591906148c4565b60405180910390fd5b50600e6000848152602001908152602001600020805461261d90614bd7565b80601f016020809104026020016040519081016040528092919081815260200182805461264990614bd7565b80156126965780601f1061266b57610100808354040283529160200191612696565b820191906000526020600020905b81548152906001019060200180831161267957829003601f168201915b5050505050915050919050565b6000600460008473ffffffffffffffffffffffffffffffffffffffff1673ffffffffffffffffffffffffffffffffffffffff16815260200190815260200160002060008373ffffffffffffffffffffffffffffffffffffffff1673ffffffffffffffffffffffffffffffffffffffff16815260200190815260200160002060009054906101000a900460ff16905092915050565b600c60009054906101000a900473ffffffffffffffffffffffffffffffffffffffff1673ffffffffffffffffffffffffffffffffffffffff163373ffffffffffffffffffffffffffffffffffffffff16146127c7576040517f08c379a00000000000000000000000000000000000000000000000000000000081526004016127be90614906565b60405180910390fd5b7f2d5a82cbc34270500c60b0532ca36cd4716c295bf0351b25835351664a3125bf600c60009054906101000a900473ffffffffffffffffffffffffffffffffffffffff166040516128189190614830565b60405180910390a1600073ffffffffffffffffffffffffffffffffffffffff168173ffffffffffffffffffffffffffffffffffffffff1614156040518060400160405280600481526020017f3031303200000000000000000000000000000000000000000000000000000000815250906128c8576040517f08c379a00000000000000000000000000000000000000000000000000000000081526004016128bf91906148c4565b60405180910390fd5b508073ffffffffffffffffffffffffffffffffffffffff16600c60009054906101000a900473ffffffffffffffffffffffffffffffffffffffff1673ffffffffffffffffffffffffffffffffffffffff167f8be0079c531659141344cd1fd0a4f28419497f9722a3daafe3b4186f6b6457e060405160405180910390a380600c60006101000a81548173ffffffffffffffffffffffffffffffffffffffff021916908373ffffffffffffffffffffffffffffffffffffffff16021790555050565b6040518060400160405280600481526020017f303130310000000000000000000000000000000000000000000000000000000081525081565b600033905090565b60006001600083815260200190815260200160002060009054906101000a900473ffffffffffffffffffffffffffffffffffffffff169050612a0b8261327f565b612a158183613263565b612a1f8383613271565b818373ffffffffffffffffffffffffffffffffffffffff168273ffffffffffffffffffffffffffffffffffffffff167fddf252ad1be2c89b69c2b068fc378daa952ba7f163c4a11628f55a4df523b3ef60405160405180910390a4505050565b6103e861ffff16600580549050106040518060400160405280600481526020017f303430310000000000000000000000000000000000000000000000000000000081525090612b04576040517f08c379a0000000000000000000000000000000000000000000000000000000008152600401612afb91906148c4565b60405180910390fd5b50612b0f8282613320565b5050565b60606000612b2083613380565b905060006040518060400160405280601081526020017f697066733a2f2f46303137303132323000000000000000000000000000000000815250905060008183604051602001612b719291906147a5565b6040516020818303038152906040529050809350505050919050565b612710811115612bd2576040517f08c379a0000000000000000000000000000000000000000000000000000000008152600401612bc9906148e6565b60405180910390fd5b60405180604001604052808373ffffffffffffffffffffffffffffffffffffffff16815260200182815250600d600085815260200190815260200160002060008201518160000160006101000a81548173ffffffffffffffffffffffffffffffffffffffff021916908373ffffffffffffffffffffffffffffffffffffffff16021790555060208201518160010155905050505050565b8160006001600083815260200190815260200160002060009054906101000a900473ffffffffffffffffffffffffffffffffffffffff169050612caa6129c2565b73ffffffffffffffffffffffffffffffffffffffff168173ffffffffffffffffffffffffffffffffffffffff161480612d485750612ce66129c2565b73ffffffffffffffffffffffffffffffffffffffff166002600084815260200190815260200160002060009054906101000a900473ffffffffffffffffffffffffffffffffffffffff1673ffffffffffffffffffffffffffffffffffffffff16145b80612dd95750600460008273ffffffffffffffffffffffffffffffffffffffff1673ffffffffffffffffffffffffffffffffffffffff16815260200190815260200160002060003373ffffffffffffffffffffffffffffffffffffffff1673ffffffffffffffffffffffffffffffffffffffff16815260200190815260200160002060009054906101000a900460ff165b6040518060400160405280600481526020017f303330340000000000000000000000000000000000000000000000000000000081525090612e50576040517f08c379a0000000000000000000000000000000000000000000000000000000008152600401612e4791906148c4565b60405180910390fd5b5083600073ffffffffffffffffffffffffffffffffffffffff166001600083815260200190815260200160002060009054906101000a900473ffffffffffffffffffffffffffffffffffffffff1673ffffffffffffffffffffffffffffffffffffffff1614156040518060400160405280600481526020017f303330320000000000000000000000000000000000000000000000000000000081525090612f2d576040517f08c379a0000000000000000000000000000000000000000000000000000000008152600401612f2491906148c4565b60405180910390fd5b5060006001600087815260200190815260200160002060009054906101000a900473ffffffffffffffffffffffffffffffffffffffff1690508773ffffffffffffffffffffffffffffffffffffffff168173ffffffffffffffffffffffffffffffffffffffff16146040518060400160405280600481526020017f30333037000000000000000000000000000000000000000000000000000000008152509061300c576040517f08c379a000000000000000000000000000000000000000000000000000000000815260040161300391906148c4565b60405180910390fd5b50600073ffffffffffffffffffffffffffffffffffffffff168773ffffffffffffffffffffffffffffffffffffffff1614156040518060400160405280600481526020017f3033303100000000000000000000000000000000000000000000000000000000815250906130b5576040517f08c379a00000000000000000000000000000000000000000000000000000000081526004016130ac91906148c4565b60405180910390fd5b506130c087876129ca565b6130df8773ffffffffffffffffffffffffffffffffffffffff16613552565b1561323b5760008773ffffffffffffffffffffffffffffffffffffffff1663150b7a02338b8a8a6040518563ffffffff1660e01b815260040161312594939291906147e4565b602060405180830381600087803b15801561313f57600080fd5b505af1158015613153573d6000803e3d6000fd5b505050506040513d601f19601f82011682018060405250810190613177919061446d565b905063150b7a0260e01b7bffffffffffffffffffffffffffffffffffffffffffffffffffffffff1916817bffffffffffffffffffffffffffffffffffffffffffffffffffffffff1916146040518060400160405280600481526020017f303330350000000000000000000000000000000000000000000000000000000081525090613238576040517f08c379a000000000000000000000000000000000000000000000000000000000815260040161322f91906148c4565b60405180910390fd5b50505b5050505050505050565b61324e8161359d565b50565b600061325c826135f0565b9050919050565b61326d828261363c565b5050565b61327b8282613975565b5050565b600073ffffffffffffffffffffffffffffffffffffffff166002600083815260200190815260200160002060009054906101000a900473ffffffffffffffffffffffffffffffffffffffff1673ffffffffffffffffffffffffffffffffffffffff161461331d576002600082815260200190815260200160002060006101000a81549073ffffffffffffffffffffffffffffffffffffffff02191690555b50565b61332a8282613b72565b600581908060018154018082558091505060019003906000526020600020016000909190919091505560016005805490506133659190614ae0565b60066000838152602001908152602001600020819055505050565b606060008214156040518060400160405280600481526020017f3034303400000000000000000000000000000000000000000000000000000000815250906133fe576040517f08c379a00000000000000000000000000000000000000000000000000000000081526004016133f591906148c4565b60405180910390fd5b506000604067ffffffffffffffff811115613442577f4e487b7100000000000000000000000000000000000000000000000000000000600052604160045260246000fd5b6040519080825280601f01601f1916602001820160405280156134745781602001600182028036833780820191505090505b50905060005b6040811015613548576000600f85169050600981116134a8578060306134a09190614a1e565b60f81b6134b9565b8060376134b59190614a1e565b60f81b5b8383603f6134c79190614ae0565b815181106134fe577f4e487b7100000000000000000000000000000000000000000000000000000000600052603260045260246000fd5b60200101907effffffffffffffffffffffffffffffffffffffffffffffffffffffffffffff1916908160001a905350600485901c945050808061354090614c09565b91505061347a565b5080915050919050565b60008060007fc5d2460186f7233c927e7db2dcc703c0e500b653ca82273b7bfad8045d85a47060001b9050833f91506000801b82141580156135945750808214155b92505050919050565b6135a681613d60565b6000600b600083815260200190815260200160002080546135c690614bd7565b9050146135ed57600b600082815260200190815260200160002060006135ec91906140bd565b5b50565b6000600760008373ffffffffffffffffffffffffffffffffffffffff1673ffffffffffffffffffffffffffffffffffffffff168152602001908152602001600020805490509050919050565b8173ffffffffffffffffffffffffffffffffffffffff166001600083815260200190815260200160002060009054906101000a900473ffffffffffffffffffffffffffffffffffffffff1673ffffffffffffffffffffffffffffffffffffffff16146040518060400160405280600481526020017f303330370000000000000000000000000000000000000000000000000000000081525090613715576040517f08c379a000000000000000000000000000000000000000000000000000000000815260040161370c91906148c4565b60405180910390fd5b506001600082815260200190815260200160002060006101000a81549073ffffffffffffffffffffffffffffffffffffffff021916905560006008600083815260200190815260200160002054905060006001600760008673ffffffffffffffffffffffffffffffffffffffff1673ffffffffffffffffffffffffffffffffffffffff168152602001908152602001600020805490506137b59190614ae0565b90508181146138e4576000600760008673ffffffffffffffffffffffffffffffffffffffff1673ffffffffffffffffffffffffffffffffffffffff1681526020019081526020016000208281548110613837577f4e487b7100000000000000000000000000000000000000000000000000000000600052603260045260246000fd5b9060005260206000200154905080600760008773ffffffffffffffffffffffffffffffffffffffff1673ffffffffffffffffffffffffffffffffffffffff16815260200190815260200160002084815481106138bc577f4e487b7100000000000000000000000000000000000000000000000000000000600052603260045260246000fd5b9060005260206000200181905550826008600083815260200190815260200160002081905550505b600760008573ffffffffffffffffffffffffffffffffffffffff1673ffffffffffffffffffffffffffffffffffffffff168152602001908152602001600020805480613959577f4e487b7100000000000000000000000000000000000000000000000000000000600052603160045260246000fd5b6001900381819060005260206000200160009055905550505050565b600073ffffffffffffffffffffffffffffffffffffffff166001600083815260200190815260200160002060009054906101000a900473ffffffffffffffffffffffffffffffffffffffff1673ffffffffffffffffffffffffffffffffffffffff16146040518060400160405280600481526020017f303330360000000000000000000000000000000000000000000000000000000081525090613a4f576040517f08c379a0000000000000000000000000000000000000000000000000000000008152600401613a4691906148c4565b60405180910390fd5b50816001600083815260200190815260200160002060006101000a81548173ffffffffffffffffffffffffffffffffffffffff021916908373ffffffffffffffffffffffffffffffffffffffff160217905550600760008373ffffffffffffffffffffffffffffffffffffffff1673ffffffffffffffffffffffffffffffffffffffff1681526020019081526020016000208190806001815401808255809150506001900390600052602060002001600090919091909150556001600760008473ffffffffffffffffffffffffffffffffffffffff1673ffffffffffffffffffffffffffffffffffffffff16815260200190815260200160002080549050613b579190614ae0565b60086000838152602001908152602001600020819055505050565b600073ffffffffffffffffffffffffffffffffffffffff168273ffffffffffffffffffffffffffffffffffffffff1614156040518060400160405280600481526020017f303330310000000000000000000000000000000000000000000000000000000081525090613c1a576040517f08c379a0000000000000000000000000000000000000000000000000000000008152600401613c1191906148c4565b60405180910390fd5b50600073ffffffffffffffffffffffffffffffffffffffff166001600083815260200190815260200160002060009054906101000a900473ffffffffffffffffffffffffffffffffffffffff1673ffffffffffffffffffffffffffffffffffffffff16146040518060400160405280600481526020017f303330360000000000000000000000000000000000000000000000000000000081525090613cf5576040517f08c379a0000000000000000000000000000000000000000000000000000000008152600401613cec91906148c4565b60405180910390fd5b50613d008282613271565b808273ffffffffffffffffffffffffffffffffffffffff16600073ffffffffffffffffffffffffffffffffffffffff167fddf252ad1be2c89b69c2b068fc378daa952ba7f163c4a11628f55a4df523b3ef60405160405180910390a45050565b613d6981613eae565b60006006600083815260200190815260200160002054905060006001600580549050613d959190614ae0565b9050600060058281548110613dd3577f4e487b7100000000000000000000000000000000000000000000000000000000600052603260045260246000fd5b906000526020600020015490508060058481548110613e1b577f4e487b7100000000000000000000000000000000000000000000000000000000600052603260045260246000fd5b90600052602060002001819055506005805480613e61577f4e487b7100000000000000000000000000000000000000000000000000000000600052603160045260246000fd5b600190038181906000526020600020016000905590558260066000838152602001908152602001600020819055506000600660008681526020019081526020016000208190555050505050565b80600073ffffffffffffffffffffffffffffffffffffffff166001600083815260200190815260200160002060009054906101000a900473ffffffffffffffffffffffffffffffffffffffff1673ffffffffffffffffffffffffffffffffffffffff1614156040518060400160405280600481526020017f303330320000000000000000000000000000000000000000000000000000000081525090613f8a576040517f08c379a0000000000000000000000000000000000000000000000000000000008152600401613f8191906148c4565b60405180910390fd5b5060006001600084815260200190815260200160002060009054906101000a900473ffffffffffffffffffffffffffffffffffffffff169050613fcc8361327f565b613fd68184613263565b82600073ffffffffffffffffffffffffffffffffffffffff168273ffffffffffffffffffffffffffffffffffffffff167fddf252ad1be2c89b69c2b068fc378daa952ba7f163c4a11628f55a4df523b3ef60405160405180910390a4505050565b82805461404390614bd7565b90600052602060002090601f01602090048101928261406557600085556140ac565b82601f1061407e57805160ff19168380011785556140ac565b828001600101855582156140ac579182015b828111156140ab578251825591602001919060010190614090565b5b5090506140b991906140fd565b5090565b5080546140c990614bd7565b6000825580601f106140db57506140fa565b601f0160209004906000526020600020908101906140f991906140fd565b5b50565b5b808211156141165760008160009055506001016140fe565b5090565b600061412d61412884614972565b614941565b90508281526020810184848401111561414557600080fd5b614150848285614b95565b509392505050565b60008135905061416781614d1f565b92915050565b60008135905061417c81614d36565b92915050565b60008135905061419181614d4d565b92915050565b6000815190506141a681614d4d565b92915050565b60008083601f8401126141be57600080fd5b8235905067ffffffffffffffff8111156141d757600080fd5b6020830191508360018202830111156141ef57600080fd5b9250929050565b600082601f83011261420757600080fd5b813561421784826020860161411a565b91505092915050565b60008135905061422f81614d64565b92915050565b60006020828403121561424757600080fd5b600061425584828501614158565b91505092915050565b6000806040838503121561427157600080fd5b600061427f85828601614158565b925050602061429085828601614158565b9150509250929050565b6000806000606084860312156142af57600080fd5b60006142bd86828701614158565b93505060206142ce86828701614158565b92505060406142df86828701614220565b9150509250925092565b60008060008060006080868803121561430157600080fd5b600061430f88828901614158565b955050602061432088828901614158565b945050604061433188828901614220565b935050606086013567ffffffffffffffff81111561434e57600080fd5b61435a888289016141ac565b92509250509295509295909350565b6000806040838503121561437c57600080fd5b600061438a85828601614158565b925050602061439b8582860161416d565b9150509250929050565b600080604083850312156143b857600080fd5b60006143c685828601614158565b92505060206143d785828601614220565b9150509250929050565b600080600080608085870312156143f757600080fd5b600061440587828801614158565b945050602061441687828801614220565b935050604061442787828801614158565b925050606061443887828801614220565b91505092959194509250565b60006020828403121561445657600080fd5b600061446484828501614182565b91505092915050565b60006020828403121561447f57600080fd5b600061448d84828501614197565b91505092915050565b6000602082840312156144a857600080fd5b600082013567ffffffffffffffff8111156144c257600080fd5b6144ce848285016141f6565b91505092915050565b6000602082840312156144e957600080fd5b60006144f784828501614220565b91505092915050565b6000806040838503121561451357600080fd5b600061452185828601614220565b925050602083013567ffffffffffffffff81111561453e57600080fd5b61454a858286016141f6565b9150509250929050565b6000806040838503121561456757600080fd5b600061457585828601614220565b925050602061458685828601614220565b9150509250929050565b600061459c8383614787565b60208301905092915050565b6145b181614b14565b82525050565b60006145c2826149b2565b6145cc81856149e0565b93506145d7836149a2565b8060005b838110156146085781516145ef8882614590565b97506145fa836149d3565b9250506001810190506145db565b5085935050505092915050565b61461e81614b26565b82525050565b600061462f826149bd565b61463981856149f1565b9350614649818560208601614ba4565b61465281614d0e565b840191505092915050565b6000614668826149c8565b6146728185614a02565b9350614682818560208601614ba4565b61468b81614d0e565b840191505092915050565b60006146a1826149c8565b6146ab8185614a13565b93506146bb818560208601614ba4565b80840191505092915050565b60006146d4601a83614a02565b91507f45524332393831526f79616c746965733a20546f6f20686967680000000000006000830152602082019050919050565b6000614714600983614a02565b91507f4e6f74206f776e657200000000000000000000000000000000000000000000006000830152602082019050919050565b6000614754601c83614a02565b91507f706173736564206f776e65727368697020726571756972656d656e74000000006000830152602082019050919050565b61479081614b7e565b82525050565b61479f81614b7e565b82525050565b60006147b18285614696565b91506147bd8284614696565b91508190509392505050565b60006020820190506147de60008301846145a8565b92915050565b60006080820190506147f960008301876145a8565b61480660208301866145a8565b6148136040830185614796565b81810360608301526148258184614624565b905095945050505050565b600060408201905061484560008301846145a8565b818103602083015261485681614747565b905092915050565b600060408201905061487360008301856145a8565b6148806020830184614796565b9392505050565b600060208201905081810360008301526148a181846145b7565b905092915050565b60006020820190506148be6000830184614615565b92915050565b600060208201905081810360008301526148de818461465d565b905092915050565b600060208201905081810360008301526148ff816146c7565b9050919050565b6000602082019050818103600083015261491f81614707565b9050919050565b600060208201905061493b6000830184614796565b92915050565b6000604051905081810181811067ffffffffffffffff8211171561496857614967614cdf565b5b8060405250919050565b600067ffffffffffffffff82111561498d5761498c614cdf565b5b601f19601f8301169050602081019050919050565b6000819050602082019050919050565b600081519050919050565b600081519050919050565b600081519050919050565b6000602082019050919050565b600082825260208201905092915050565b600082825260208201905092915050565b600082825260208201905092915050565b600081905092915050565b6000614a2982614b88565b9150614a3483614b88565b92508260ff03821115614a4a57614a49614c52565b5b828201905092915050565b6000614a6082614b7e565b9150614a6b83614b7e565b925082614a7b57614a7a614c81565b5b828204905092915050565b6000614a9182614b7e565b9150614a9c83614b7e565b9250817fffffffffffffffffffffffffffffffffffffffffffffffffffffffffffffffff0483118215151615614ad557614ad4614c52565b5b828202905092915050565b6000614aeb82614b7e565b9150614af683614b7e565b925082821015614b0957614b08614c52565b5b828203905092915050565b6000614b1f82614b5e565b9050919050565b60008115159050919050565b60007fffffffff0000000000000000000000000000000000000000000000000000000082169050919050565b600073ffffffffffffffffffffffffffffffffffffffff82169050919050565b6000819050919050565b600060ff82169050919050565b82818337600083830152505050565b60005b83811015614bc2578082015181840152602081019050614ba7565b83811115614bd1576000848401525b50505050565b60006002820490506001821680614bef57607f821691505b60208210811415614c0357614c02614cb0565b5b50919050565b6000614c1482614b7e565b91507fffffffffffffffffffffffffffffffffffffffffffffffffffffffffffffffff821415614c4757614c46614c52565b5b600182019050919050565b7f4e487b7100000000000000000000000000000000000000000000000000000000600052601160045260246000fd5b7f4e487b7100000000000000000000000000000000000000000000000000000000600052601260045260246000fd5b7f4e487b7100000000000000000000000000000000000000000000000000000000600052602260045260246000fd5b7f4e487b7100000000000000000000000000000000000000000000000000000000600052604160045260246000fd5b6000601f19601f8301169050919050565b614d2881614b14565b8114614d3357600080fd5b50565b614d3f81614b26565b8114614d4a57600080fd5b50565b614d5681614b32565b8114614d6157600080fd5b50565b614d6d81614b7e565b8114614d7857600080fd5b5056fea2646970667358221220430cbc8971d26ce598baa005a79c1e756680d50248f31ac4dae6496def5a003464736f6c63430008000033",
  "linkReferences": {},
  "deployedLinkReferences": {}
}