{
  "_format": "hh-sol-artifact-1",
  "contractName": "StopTheWarOnDrugs",
  "sourceName": "contracts/NMWD/StopTheWarOnDrugs.sol",
  "abi": [
    {
      "inputs": [
        {
          "internalType": "string",
          "name": "_name",
          "type": "string"
        },
        {
          "internalType": "string",
          "name": "_symbol",
          "type": "string"
        }
      ],
      "stateMutability": "nonpayable",
      "type": "constructor"
    },
    {
      "anonymous": false,
      "inputs": [
        {
          "indexed": true,
          "internalType": "address",
          "name": "_owner",
          "type": "address"
        },
        {
          "indexed": true,
          "internalType": "address",
          "name": "_approved",
          "type": "address"
        },
        {
          "indexed": true,
          "internalType": "uint256",
          "name": "_tokenId",
          "type": "uint256"
        }
      ],
      "name": "Approval",
      "type": "event"
    },
    {
      "anonymous": false,
      "inputs": [
        {
          "indexed": true,
          "internalType": "address",
          "name": "_owner",
          "type": "address"
        },
        {
          "indexed": true,
          "internalType": "address",
          "name": "_operator",
          "type": "address"
        },
        {
          "indexed": false,
          "internalType": "bool",
          "name": "_approved",
          "type": "bool"
        }
      ],
      "name": "ApprovalForAll",
      "type": "event"
    },
    {
      "anonymous": false,
      "inputs": [
        {
          "indexed": true,
          "internalType": "address",
          "name": "previousOwner",
          "type": "address"
        },
        {
          "indexed": true,
          "internalType": "address",
          "name": "newOwner",
          "type": "address"
        }
      ],
      "name": "OwnershipTransferred",
      "type": "event"
    },
    {
      "anonymous": false,
      "inputs": [
        {
          "indexed": true,
          "internalType": "address",
          "name": "_from",
          "type": "address"
        },
        {
          "indexed": true,
          "internalType": "address",
          "name": "_to",
          "type": "address"
        },
        {
          "indexed": true,
          "internalType": "uint256",
          "name": "_tokenId",
          "type": "uint256"
        }
      ],
      "name": "Transfer",
      "type": "event"
    },
    {
      "anonymous": false,
      "inputs": [
        {
          "indexed": false,
          "internalType": "address",
          "name": "deliveredTo",
          "type": "address"
        },
        {
          "indexed": false,
          "internalType": "string",
          "name": "msg",
          "type": "string"
        }
      ],
      "name": "_msg",
      "type": "event"
    },
    {
      "inputs": [],
      "name": "CANNOT_TRANSFER_TO_ZERO_ADDRESS",
      "outputs": [
        {
          "internalType": "string",
          "name": "",
          "type": "string"
        }
      ],
      "stateMutability": "view",
      "type": "function"
    },
    {
      "inputs": [],
      "name": "NOT_CURRENT_OWNER",
      "outputs": [
        {
          "internalType": "string",
          "name": "",
          "type": "string"
        }
      ],
      "stateMutability": "view",
      "type": "function"
    },
    {
      "inputs": [
        {
          "internalType": "address",
          "name": "_approved",
          "type": "address"
        },
        {
          "internalType": "uint256",
          "name": "_tokenId",
          "type": "uint256"
        }
      ],
      "name": "approve",
      "outputs": [],
      "stateMutability": "nonpayable",
      "type": "function"
    },
    {
      "inputs": [
        {
          "internalType": "address",
          "name": "_owner",
          "type": "address"
        }
      ],
      "name": "balanceOf",
      "outputs": [
        {
          "internalType": "uint256",
          "name": "",
          "type": "uint256"
        }
      ],
      "stateMutability": "view",
      "type": "function"
    },
    {
      "inputs": [
        {
          "internalType": "uint256",
          "name": "_tokenId",
          "type": "uint256"
        }
      ],
      "name": "burn",
      "outputs": [],
      "stateMutability": "nonpayable",
      "type": "function"
    },
    {
      "inputs": [
        {
          "internalType": "uint256",
          "name": "_tokenId",
          "type": "uint256"
        }
      ],
      "name": "exists",
      "outputs": [
        {
          "internalType": "bool",
          "name": "",
          "type": "bool"
        }
      ],
      "stateMutability": "view",
      "type": "function"
    },
    {
      "inputs": [
        {
          "internalType": "uint256",
          "name": "_tokenId",
          "type": "uint256"
        }
      ],
      "name": "getApproved",
      "outputs": [
        {
          "internalType": "address",
          "name": "",
          "type": "address"
        }
      ],
      "stateMutability": "view",
      "type": "function"
    },
    {
      "inputs": [
        {
          "internalType": "address",
          "name": "_address",
          "type": "address"
        }
      ],
      "name": "getNFTsByAddress",
      "outputs": [
        {
          "internalType": "uint256[]",
          "name": "",
          "type": "uint256[]"
        }
      ],
      "stateMutability": "view",
      "type": "function"
    },
    {
      "inputs": [],
      "name": "getOwner",
      "outputs": [
        {
          "internalType": "address",
          "name": "",
          "type": "address"
        }
      ],
      "stateMutability": "view",
      "type": "function"
    },
    {
      "inputs": [
        {
          "internalType": "address",
          "name": "_owner",
          "type": "address"
        }
      ],
      "name": "getOwnerNFTCount",
      "outputs": [
        {
          "internalType": "uint256",
          "name": "",
          "type": "uint256"
        }
      ],
      "stateMutability": "view",
      "type": "function"
    },
    {
      "inputs": [
        {
          "internalType": "address",
          "name": "_owner",
          "type": "address"
        },
        {
          "internalType": "address",
          "name": "_operator",
          "type": "address"
        }
      ],
      "name": "isApprovedForAll",
      "outputs": [
        {
          "internalType": "bool",
          "name": "",
          "type": "bool"
        }
      ],
      "stateMutability": "view",
      "type": "function"
    },
    {
      "inputs": [
        {
          "internalType": "address",
          "name": "_to",
          "type": "address"
        },
        {
          "internalType": "uint256",
          "name": "_tokenId",
          "type": "uint256"
        },
        {
          "internalType": "address",
          "name": "royaltyRecipient",
          "type": "address"
        },
        {
          "internalType": "uint256",
          "name": "royaltyValue",
          "type": "uint256"
        }
      ],
      "name": "mint",
      "outputs": [],
      "stateMutability": "nonpayable",
      "type": "function"
    },
    {
      "inputs": [],
      "name": "name",
      "outputs": [
        {
          "internalType": "string",
          "name": "_name",
          "type": "string"
        }
      ],
      "stateMutability": "view",
      "type": "function"
    },
    {
      "inputs": [],
      "name": "owner",
      "outputs": [
        {
          "internalType": "address",
          "name": "",
          "type": "address"
        }
      ],
      "stateMutability": "view",
      "type": "function"
    },
    {
      "inputs": [
        {
          "internalType": "uint256",
          "name": "_tokenId",
          "type": "uint256"
        }
      ],
      "name": "ownerOf",
      "outputs": [
        {
          "internalType": "address",
          "name": "_owner",
          "type": "address"
        }
      ],
      "stateMutability": "view",
      "type": "function"
    },
    {
      "inputs": [
        {
          "internalType": "uint256",
          "name": "_tokenId",
          "type": "uint256"
        },
        {
          "internalType": "uint256",
          "name": "_salePrice",
          "type": "uint256"
        }
      ],
      "name": "royaltyInfo",
      "outputs": [
        {
          "internalType": "address",
          "name": "receiver",
          "type": "address"
        },
        {
          "internalType": "uint256",
          "name": "royaltyAmount",
          "type": "uint256"
        }
      ],
      "stateMutability": "view",
      "type": "function"
    },
    {
      "inputs": [
        {
          "internalType": "address",
          "name": "_from",
          "type": "address"
        },
        {
          "internalType": "address",
          "name": "_to",
          "type": "address"
        },
        {
          "internalType": "uint256",
          "name": "_tokenId",
          "type": "uint256"
        }
      ],
      "name": "safeTransferFrom",
      "outputs": [],
      "stateMutability": "nonpayable",
      "type": "function"
    },
    {
      "inputs": [
        {
          "internalType": "address",
          "name": "_from",
          "type": "address"
        },
        {
          "internalType": "address",
          "name": "_to",
          "type": "address"
        },
        {
          "internalType": "uint256",
          "name": "_tokenId",
          "type": "uint256"
        },
        {
          "internalType": "bytes",
          "name": "_data",
          "type": "bytes"
        }
      ],
      "name": "safeTransferFrom",
      "outputs": [],
      "stateMutability": "nonpayable",
      "type": "function"
    },
    {
      "inputs": [
        {
          "internalType": "uint256",
          "name": "security_value",
          "type": "uint256"
        }
      ],
      "name": "seflDestruct",
      "outputs": [],
      "stateMutability": "nonpayable",
      "type": "function"
    },
    {
      "inputs": [
        {
          "internalType": "address",
          "name": "_operator",
          "type": "address"
        },
        {
          "internalType": "bool",
          "name": "_approved",
          "type": "bool"
        }
      ],
      "name": "setApprovalForAll",
      "outputs": [],
      "stateMutability": "nonpayable",
      "type": "function"
    },
    {
      "inputs": [
        {
          "internalType": "uint256",
          "name": "_tokenId",
          "type": "uint256"
        },
        {
          "internalType": "string",
          "name": "_msg",
          "type": "string"
        }
      ],
      "name": "setTokenMessage",
      "outputs": [],
      "stateMutability": "nonpayable",
      "type": "function"
    },
    {
      "inputs": [
        {
          "internalType": "bytes4",
          "name": "_interfaceID",
          "type": "bytes4"
        }
      ],
      "name": "supportsInterface",
      "outputs": [
        {
          "internalType": "bool",
          "name": "",
          "type": "bool"
        }
      ],
      "stateMutability": "view",
      "type": "function"
    },
    {
      "inputs": [],
      "name": "symbol",
      "outputs": [
        {
          "internalType": "string",
          "name": "_symbol",
          "type": "string"
        }
      ],
      "stateMutability": "view",
      "type": "function"
    },
    {
      "inputs": [
        {
          "internalType": "uint256",
          "name": "_index",
          "type": "uint256"
        }
      ],
      "name": "tokenByIndex",
      "outputs": [
        {
          "internalType": "uint256",
          "name": "",
          "type": "uint256"
        }
      ],
      "stateMutability": "view",
      "type": "function"
    },
    {
      "inputs": [
        {
          "internalType": "uint256",
          "name": "_tokenId",
          "type": "uint256"
        }
      ],
      "name": "tokenMessage",
      "outputs": [
        {
          "internalType": "string",
          "name": "",
          "type": "string"
        }
      ],
      "stateMutability": "view",
      "type": "function"
    },
    {
      "inputs": [
        {
          "internalType": "address",
          "name": "_owner",
          "type": "address"
        },
        {
          "internalType": "uint256",
          "name": "_index",
          "type": "uint256"
        }
      ],
      "name": "tokenOfOwnerByIndex",
      "outputs": [
        {
          "internalType": "uint256",
          "name": "",
          "type": "uint256"
        }
      ],
      "stateMutability": "view",
      "type": "function"
    },
    {
      "inputs": [
        {
          "internalType": "uint256",
          "name": "_tokenId",
          "type": "uint256"
        }
      ],
      "name": "tokenURI",
      "outputs": [
        {
          "internalType": "string",
          "name": "",
          "type": "string"
        }
      ],
      "stateMutability": "view",
      "type": "function"
    },
    {
      "inputs": [],
      "name": "totalSupply",
      "outputs": [
        {
          "internalType": "uint256",
          "name": "",
          "type": "uint256"
        }
      ],
      "stateMutability": "view",
      "type": "function"
    },
    {
      "inputs": [
        {
          "internalType": "address",
          "name": "_from",
          "type": "address"
        },
        {
          "internalType": "address",
          "name": "_to",
          "type": "address"
        },
        {
          "internalType": "uint256",
          "name": "_tokenId",
          "type": "uint256"
        }
      ],
      "name": "transferFrom",
      "outputs": [],
      "stateMutability": "nonpayable",
      "type": "function"
    },
    {
      "inputs": [
        {
          "internalType": "address",
          "name": "_newOwner",
          "type": "address"
        }
      ],
      "name": "transferOwnership",
      "outputs": [],
      "stateMutability": "nonpayable",
      "type": "function"
    },
    {
      "inputs": [
        {
          "internalType": "string",
          "name": "_msg",
          "type": "string"
        }
      ],
      "name": "validateMsg",
      "outputs": [
        {
          "internalType": "bool",
          "name": "",
          "type": "bool"
        }
      ],
      "stateMutability": "pure",
      "type": "function"
    }
  ],
  "bytecode": "0x60806040523480156200001157600080fd5b506040516200550f3803806200550f8339818101604052810190620000379190620003d6565b60016000806301ffc9a760e01b7bffffffffffffffffffffffffffffffffffffffffffffffffffffffff1916815260200190815260200160002060006101000a81548160ff02191690831515021790555060016000806380ac58cd60e01b7bffffffffffffffffffffffffffffffffffffffffffffffffffffffff1916815260200190815260200160002060006101000a81548160ff021916908315150217905550600160008063780e9d6360e01b7bffffffffffffffffffffffffffffffffffffffffffffffffffffffff1916815260200190815260200160002060006101000a81548160ff0219169083151502179055506001600080635b5e139f60e01b7bffffffffffffffffffffffffffffffffffffffffffffffffffffffff1916815260200190815260200160002060006101000a81548160ff0219169083151502179055506001600080632a55205a60e01b7bffffffffffffffffffffffffffffffffffffffffffffffffffffffff1916815260200190815260200160002060006101000a81548160ff021916908315150217905550620001dc6200021660201b60201c565b81600a9080519060200190620001f4929190620002b4565b5080600b90805190602001906200020d929190620002b4565b50505062000644565b33600160006101000a81548173ffffffffffffffffffffffffffffffffffffffff021916908373ffffffffffffffffffffffffffffffffffffffff1602179055507f2d5a82cbc34270500c60b0532ca36cd4716c295bf0351b25835351664a3125bf600160009054906101000a900473ffffffffffffffffffffffffffffffffffffffff16604051620002aa91906200049c565b60405180910390a1565b828054620002c290620005b0565b90600052602060002090601f016020900481019282620002e6576000855562000332565b82601f106200030157805160ff191683800117855562000332565b8280016001018555821562000332579182015b828111156200033157825182559160200191906001019062000314565b5b50905062000341919062000345565b5090565b5b808211156200036057600081600090555060010162000346565b5090565b60006200037b620003758462000502565b620004ce565b9050828152602081018484840111156200039457600080fd5b620003a18482856200057a565b509392505050565b600082601f830112620003bb57600080fd5b8151620003cd84826020860162000364565b91505092915050565b60008060408385031215620003ea57600080fd5b600083015167ffffffffffffffff8111156200040557600080fd5b6200041385828601620003a9565b925050602083015167ffffffffffffffff8111156200043157600080fd5b6200043f85828601620003a9565b9150509250929050565b620004548162000546565b82525050565b60006200046960098362000535565b91507f736574206f776e657200000000000000000000000000000000000000000000006000830152602082019050919050565b6000604082019050620004b3600083018462000449565b8181036020830152620004c6816200045a565b905092915050565b6000604051905081810181811067ffffffffffffffff82111715620004f857620004f762000615565b5b8060405250919050565b600067ffffffffffffffff82111562000520576200051f62000615565b5b601f19601f8301169050602081019050919050565b600082825260208201905092915050565b600062000553826200055a565b9050919050565b600073ffffffffffffffffffffffffffffffffffffffff82169050919050565b60005b838110156200059a5780820151818401526020810190506200057d565b83811115620005aa576000848401525b50505050565b60006002820490506001821680620005c957607f821691505b60208210811415620005e057620005df620005e6565b5b50919050565b7f4e487b7100000000000000000000000000000000000000000000000000000000600052602260045260246000fd5b7f4e487b7100000000000000000000000000000000000000000000000000000000600052604160045260246000fd5b614ebb80620006546000396000f3fe608060405234801561001057600080fd5b50600436106101e55760003560e01c806370a082311161010f578063b88d4fde116100a2578063e4b7baeb11610071578063e4b7baeb146105db578063e985e9c51461060b578063f2fde38b1461063b578063f3fe3bc314610657576101e5565b8063b88d4fde14610543578063bd7f4c8d1461055f578063c2af674f1461058f578063c87b56dd146105ab576101e5565b8063894b5b3c116100de578063894b5b3c146104bb5780638da5cb5b146104eb57806395d89b4114610509578063a22cb46514610527576101e5565b806370a08231146104335780637ff0bf0714610463578063860d248a1461047f578063893d20e81461049d576101e5565b80632a55205a1161018757806342966c681161015657806342966c68146103875780634f558e79146103a35780634f6ccce7146103d35780636352211e14610403576101e5565b80632a55205a146102ee5780632f745c591461031f5780633c173a4f1461034f57806342842e0e1461036b576101e5565b8063095ea7b3116101c3578063095ea7b31461026857806318160ddd146102845780631dadae8e146102a257806323b872dd146102d2576101e5565b806301ffc9a7146101ea57806306fdde031461021a578063081812fc14610238575b600080fd5b61020460048036038101906101ff91906144ea565b610675565b60405161021191906149b3565b60405180910390f35b6102226106dc565b60405161022f91906149ce565b60405180910390f35b610252600480360381019061024d919061457d565b61076e565b60405161025f9190614889565b60405180910390f35b610282600480360381019061027d919061444b565b610889565b005b61028c610c73565b6040516102999190614a30565b60405180910390f35b6102bc60048036038101906102b791906142db565b610c80565b6040516102c99190614991565b60405180910390f35b6102ec60048036038101906102e79190614340565b610d17565b005b610308600480360381019061030391906145fa565b611177565b604051610316929190614968565b60405180910390f35b6103396004803603810190610334919061444b565b61122a565b6040516103469190614a30565b60405180910390f35b61036960048036038101906103649190614487565b611373565b005b61038560048036038101906103809190614340565b61161f565b005b6103a1600480360381019061039c919061457d565b61163f565b005b6103bd60048036038101906103b8919061457d565b611777565b6040516103ca91906149b3565b60405180910390f35b6103ed60048036038101906103e8919061457d565b6117f3565b6040516103fa9190614a30565b60405180910390f35b61041d6004803603810190610418919061457d565b6118c1565b60405161042a9190614889565b60405180910390f35b61044d600480360381019061044891906142db565b6119a7565b60405161045a9190614a30565b60405180910390f35b61047d6004803603810190610478919061457d565b611a61565b005b610487611b94565b60405161049491906149ce565b60405180910390f35b6104a5611bcd565b6040516104b29190614889565b60405180910390f35b6104d560048036038101906104d0919061453c565b611bf7565b6040516104e291906149b3565b60405180910390f35b6104f3611c31565b6040516105009190614889565b60405180910390f35b610511611c57565b60405161051e91906149ce565b60405180910390f35b610541600480360381019061053c919061440f565b611ce9565b005b61055d6004803603810190610558919061438f565b611de6565b005b610579600480360381019061057491906142db565b611e3d565b6040516105869190614a30565b60405180910390f35b6105a960048036038101906105a491906145a6565b611e4f565b005b6105c560048036038101906105c0919061457d565b612162565b6040516105d291906149ce565b60405180910390f35b6105f560048036038101906105f0919061457d565b6122e5565b60405161060291906149ce565b60405180910390f35b61062560048036038101906106209190614304565b612468565b60405161063291906149b3565b60405180910390f35b610655600480360381019061065091906142db565b6124fc565b005b61065f61274e565b60405161066c91906149ce565b60405180910390f35b6000806000837bffffffffffffffffffffffffffffffffffffffffffffffffffffffff19167bffffffffffffffffffffffffffffffffffffffffffffffffffffffff1916815260200190815260200160002060009054906101000a900460ff169050919050565b6060600a80546106eb90614ce1565b80601f016020809104026020016040519081016040528092919081815260200182805461071790614ce1565b80156107645780601f1061073957610100808354040283529160200191610764565b820191906000526020600020905b81548152906001019060200180831161074757829003601f168201915b5050505050905090565b600081600073ffffffffffffffffffffffffffffffffffffffff166002600083815260200190815260200160002060009054906101000a900473ffffffffffffffffffffffffffffffffffffffff1673ffffffffffffffffffffffffffffffffffffffff1614156040518060400160405280600481526020017f30333032000000000000000000000000000000000000000000000000000000008152509061084c576040517f08c379a000000000000000000000000000000000000000000000000000000000815260040161084391906149ce565b60405180910390fd5b506003600084815260200190815260200160002060009054906101000a900473ffffffffffffffffffffffffffffffffffffffff16915050919050565b8060006002600083815260200190815260200160002060009054906101000a900473ffffffffffffffffffffffffffffffffffffffff1690506108ca612787565b73ffffffffffffffffffffffffffffffffffffffff168173ffffffffffffffffffffffffffffffffffffffff1614806109895750600560008273ffffffffffffffffffffffffffffffffffffffff1673ffffffffffffffffffffffffffffffffffffffff16815260200190815260200160002060003373ffffffffffffffffffffffffffffffffffffffff1673ffffffffffffffffffffffffffffffffffffffff16815260200190815260200160002060009054906101000a900460ff165b6040518060400160405280600481526020017f303330330000000000000000000000000000000000000000000000000000000081525090610a00576040517f08c379a00000000000000000000000000000000000000000000000000000000081526004016109f791906149ce565b60405180910390fd5b5082600073ffffffffffffffffffffffffffffffffffffffff166002600083815260200190815260200160002060009054906101000a900473ffffffffffffffffffffffffffffffffffffffff1673ffffffffffffffffffffffffffffffffffffffff1614156040518060400160405280600481526020017f303330320000000000000000000000000000000000000000000000000000000081525090610add576040517f08c379a0000000000000000000000000000000000000000000000000000000008152600401610ad491906149ce565b60405180910390fd5b5060006002600086815260200190815260200160002060009054906101000a900473ffffffffffffffffffffffffffffffffffffffff1690508073ffffffffffffffffffffffffffffffffffffffff168673ffffffffffffffffffffffffffffffffffffffff1614156040518060400160405280600481526020017f303330380000000000000000000000000000000000000000000000000000000081525090610bbd576040517f08c379a0000000000000000000000000000000000000000000000000000000008152600401610bb491906149ce565b60405180910390fd5b50856003600087815260200190815260200160002060006101000a81548173ffffffffffffffffffffffffffffffffffffffff021916908373ffffffffffffffffffffffffffffffffffffffff160217905550848673ffffffffffffffffffffffffffffffffffffffff168273ffffffffffffffffffffffffffffffffffffffff167f8c5be1e5ebec7d5bd14f71427d1e84f3dd0314c0f7b2291e5b200ac8c7c3b92560405160405180910390a4505050505050565b6000600680549050905090565b6060600860008373ffffffffffffffffffffffffffffffffffffffff1673ffffffffffffffffffffffffffffffffffffffff168152602001908152602001600020805480602002602001604051908101604052809291908181526020018280548015610d0b57602002820191906000526020600020905b815481526020019060010190808311610cf7575b50505050509050919050565b8060006002600083815260200190815260200160002060009054906101000a900473ffffffffffffffffffffffffffffffffffffffff169050610d58612787565b73ffffffffffffffffffffffffffffffffffffffff168173ffffffffffffffffffffffffffffffffffffffff161480610df65750610d94612787565b73ffffffffffffffffffffffffffffffffffffffff166003600084815260200190815260200160002060009054906101000a900473ffffffffffffffffffffffffffffffffffffffff1673ffffffffffffffffffffffffffffffffffffffff16145b80610e875750600560008273ffffffffffffffffffffffffffffffffffffffff1673ffffffffffffffffffffffffffffffffffffffff16815260200190815260200160002060003373ffffffffffffffffffffffffffffffffffffffff1673ffffffffffffffffffffffffffffffffffffffff16815260200190815260200160002060009054906101000a900460ff165b6040518060400160405280600481526020017f303330340000000000000000000000000000000000000000000000000000000081525090610efe576040517f08c379a0000000000000000000000000000000000000000000000000000000008152600401610ef591906149ce565b60405180910390fd5b5082600073ffffffffffffffffffffffffffffffffffffffff166002600083815260200190815260200160002060009054906101000a900473ffffffffffffffffffffffffffffffffffffffff1673ffffffffffffffffffffffffffffffffffffffff1614156040518060400160405280600481526020017f303330320000000000000000000000000000000000000000000000000000000081525090610fdb576040517f08c379a0000000000000000000000000000000000000000000000000000000008152600401610fd291906149ce565b60405180910390fd5b5060006002600086815260200190815260200160002060009054906101000a900473ffffffffffffffffffffffffffffffffffffffff1690508673ffffffffffffffffffffffffffffffffffffffff168173ffffffffffffffffffffffffffffffffffffffff16146040518060400160405280600481526020017f3033303700000000000000000000000000000000000000000000000000000000815250906110ba576040517f08c379a00000000000000000000000000000000000000000000000000000000081526004016110b191906149ce565b60405180910390fd5b50600073ffffffffffffffffffffffffffffffffffffffff168673ffffffffffffffffffffffffffffffffffffffff1614156040518060400160405280600481526020017f303330310000000000000000000000000000000000000000000000000000000081525090611163576040517f08c379a000000000000000000000000000000000000000000000000000000000815260040161115a91906149ce565b60405180910390fd5b5061116e868661278f565b50505050505050565b6000806000600d60008681526020019081526020016000206040518060400160405290816000820160009054906101000a900473ffffffffffffffffffffffffffffffffffffffff1673ffffffffffffffffffffffffffffffffffffffff1673ffffffffffffffffffffffffffffffffffffffff168152602001600182015481525050905080600001516127108260200151866112149190614b90565b61121e9190614b5f565b92509250509250929050565b6000600860008473ffffffffffffffffffffffffffffffffffffffff1673ffffffffffffffffffffffffffffffffffffffff1681526020019081526020016000208054905082106040518060400160405280600481526020017f3032303100000000000000000000000000000000000000000000000000000000815250906112e8576040517f08c379a00000000000000000000000000000000000000000000000000000000081526004016112df91906149ce565b60405180910390fd5b50600860008473ffffffffffffffffffffffffffffffffffffffff1673ffffffffffffffffffffffffffffffffffffffff1681526020019081526020016000208281548110611360577f4e487b7100000000000000000000000000000000000000000000000000000000600052603260045260246000fd5b9060005260206000200154905092915050565b600160009054906101000a900473ffffffffffffffffffffffffffffffffffffffff1673ffffffffffffffffffffffffffffffffffffffff163373ffffffffffffffffffffffffffffffffffffffff1614611403576040517f08c379a00000000000000000000000000000000000000000000000000000000081526004016113fa90614a10565b60405180910390fd5b7f2d5a82cbc34270500c60b0532ca36cd4716c295bf0351b25835351664a3125bf600160009054906101000a900473ffffffffffffffffffffffffffffffffffffffff16604051611454919061493a565b60405180910390a161146684846129ac565b600061147184612a3f565b905080600c6000868152602001908152602001600020908051906020019061149a9291906140dd565b5060008211156114b0576114af848484612ab9565b5b600560008673ffffffffffffffffffffffffffffffffffffffff1673ffffffffffffffffffffffffffffffffffffffff1681526020019081526020016000206000600160009054906101000a900473ffffffffffffffffffffffffffffffffffffffff1673ffffffffffffffffffffffffffffffffffffffff1673ffffffffffffffffffffffffffffffffffffffff16815260200190815260200160002060009054906101000a900460ff16611618576001600560008773ffffffffffffffffffffffffffffffffffffffff1673ffffffffffffffffffffffffffffffffffffffff1681526020019081526020016000206000600160009054906101000a900473ffffffffffffffffffffffffffffffffffffffff1673ffffffffffffffffffffffffffffffffffffffff1673ffffffffffffffffffffffffffffffffffffffff16815260200190815260200160002060006101000a81548160ff0219169083151502179055505b5050505050565b61163a83838360405180602001604052806000815250612b95565b505050565b600160009054906101000a900473ffffffffffffffffffffffffffffffffffffffff1673ffffffffffffffffffffffffffffffffffffffff163373ffffffffffffffffffffffffffffffffffffffff16146116cf576040517f08c379a00000000000000000000000000000000000000000000000000000000081526004016116c690614a10565b60405180910390fd5b7f2d5a82cbc34270500c60b0532ca36cd4716c295bf0351b25835351664a3125bf600160009054906101000a900473ffffffffffffffffffffffffffffffffffffffff16604051611720919061493a565b60405180910390a160405180602001604052806000815250600c6000838152602001908152602001600020908051906020019061175e9291906140dd565b5061176b81600080612ab9565b61177481613171565b50565b60008073ffffffffffffffffffffffffffffffffffffffff166002600084815260200190815260200160002060009054906101000a900473ffffffffffffffffffffffffffffffffffffffff1673ffffffffffffffffffffffffffffffffffffffff1614156117e957600090506117ee565b600190505b919050565b600060068054905082106040518060400160405280600481526020017f303230310000000000000000000000000000000000000000000000000000000081525090611874576040517f08c379a000000000000000000000000000000000000000000000000000000000815260040161186b91906149ce565b60405180910390fd5b50600682815481106118af577f4e487b7100000000000000000000000000000000000000000000000000000000600052603260045260246000fd5b90600052602060002001549050919050565b60006002600083815260200190815260200160002060009054906101000a900473ffffffffffffffffffffffffffffffffffffffff169050600073ffffffffffffffffffffffffffffffffffffffff168173ffffffffffffffffffffffffffffffffffffffff1614156040518060400160405280600481526020017f3033303200000000000000000000000000000000000000000000000000000000815250906119a1576040517f08c379a000000000000000000000000000000000000000000000000000000000815260040161199891906149ce565b60405180910390fd5b50919050565b60008073ffffffffffffffffffffffffffffffffffffffff168273ffffffffffffffffffffffffffffffffffffffff1614156040518060400160405280600481526020017f303330310000000000000000000000000000000000000000000000000000000081525090611a50576040517f08c379a0000000000000000000000000000000000000000000000000000000008152600401611a4791906149ce565b60405180910390fd5b50611a5a8261317d565b9050919050565b600160009054906101000a900473ffffffffffffffffffffffffffffffffffffffff1673ffffffffffffffffffffffffffffffffffffffff163373ffffffffffffffffffffffffffffffffffffffff1614611af1576040517f08c379a0000000000000000000000000000000000000000000000000000000008152600401611ae890614a10565b60405180910390fd5b7f2d5a82cbc34270500c60b0532ca36cd4716c295bf0351b25835351664a3125bf600160009054906101000a900473ffffffffffffffffffffffffffffffffffffffff16604051611b42919061493a565b60405180910390a16202f1458114611b5957600080fd5b600160009054906101000a900473ffffffffffffffffffffffffffffffffffffffff1673ffffffffffffffffffffffffffffffffffffffff16ff5b6040518060400160405280600481526020017f303130320000000000000000000000000000000000000000000000000000000081525081565b6000600160009054906101000a900473ffffffffffffffffffffffffffffffffffffffff16905090565b600080829050600181511015611c11576000915050611c2c565b61012c81511115611c26576000915050611c2c565b60019150505b919050565b600160009054906101000a900473ffffffffffffffffffffffffffffffffffffffff1681565b6060600b8054611c6690614ce1565b80601f0160208091040260200160405190810160405280929190818152602001828054611c9290614ce1565b8015611cdf5780601f10611cb457610100808354040283529160200191611cdf565b820191906000526020600020905b815481529060010190602001808311611cc257829003601f168201915b5050505050905090565b80600560003373ffffffffffffffffffffffffffffffffffffffff1673ffffffffffffffffffffffffffffffffffffffff16815260200190815260200160002060008473ffffffffffffffffffffffffffffffffffffffff1673ffffffffffffffffffffffffffffffffffffffff16815260200190815260200160002060006101000a81548160ff0219169083151502179055508173ffffffffffffffffffffffffffffffffffffffff163373ffffffffffffffffffffffffffffffffffffffff167f17307eab39ab6107e8899845ad3d59bd9653f200f220920489ca2b5937696c3183604051611dda91906149b3565b60405180910390a35050565b611e3685858585858080601f016020809104026020016040519081016040528093929190818152602001838380828437600081840152601f19601f82011690508083019250505050505050612b95565b5050505050565b6000611e488261317d565b9050919050565b81600073ffffffffffffffffffffffffffffffffffffffff166002600083815260200190815260200160002060009054906101000a900473ffffffffffffffffffffffffffffffffffffffff1673ffffffffffffffffffffffffffffffffffffffff1614156040518060400160405280600481526020017f303330320000000000000000000000000000000000000000000000000000000081525090611f2b576040517f08c379a0000000000000000000000000000000000000000000000000000000008152600401611f2291906149ce565b60405180910390fd5b5060006002600085815260200190815260200160002060009054906101000a900473ffffffffffffffffffffffffffffffffffffffff1690508073ffffffffffffffffffffffffffffffffffffffff16611f83612787565b73ffffffffffffffffffffffffffffffffffffffff16146040518060400160405280600481526020017f303330370000000000000000000000000000000000000000000000000000000081525090612011576040517f08c379a000000000000000000000000000000000000000000000000000000000815260040161200891906149ce565b60405180910390fd5b506000600e6000868152602001908152602001600020805461203290614ce1565b9050146040518060400160405280600481526020017f3034303200000000000000000000000000000000000000000000000000000000815250906120ac576040517f08c379a00000000000000000000000000000000000000000000000000000000081526004016120a391906149ce565b60405180910390fd5b5060006120b884611bf7565b9050806040518060400160405280600481526020017f303430330000000000000000000000000000000000000000000000000000000081525090612132576040517f08c379a000000000000000000000000000000000000000000000000000000000815260040161212991906149ce565b60405180910390fd5b5083600e6000878152602001908152602001600020908051906020019061215a9291906140dd565b505050505050565b606081600073ffffffffffffffffffffffffffffffffffffffff166002600083815260200190815260200160002060009054906101000a900473ffffffffffffffffffffffffffffffffffffffff1673ffffffffffffffffffffffffffffffffffffffff1614156040518060400160405280600481526020017f303330320000000000000000000000000000000000000000000000000000000081525090612240576040517f08c379a000000000000000000000000000000000000000000000000000000000815260040161223791906149ce565b60405180910390fd5b50600c6000848152602001908152602001600020805461225f90614ce1565b80601f016020809104026020016040519081016040528092919081815260200182805461228b90614ce1565b80156122d85780601f106122ad576101008083540402835291602001916122d8565b820191906000526020600020905b8154815290600101906020018083116122bb57829003601f168201915b5050505050915050919050565b606081600073ffffffffffffffffffffffffffffffffffffffff166002600083815260200190815260200160002060009054906101000a900473ffffffffffffffffffffffffffffffffffffffff1673ffffffffffffffffffffffffffffffffffffffff1614156040518060400160405280600481526020017f3033303200000000000000000000000000000000000000000000000000000000815250906123c3576040517f08c379a00000000000000000000000000000000000000000000000000000000081526004016123ba91906149ce565b60405180910390fd5b50600e600084815260200190815260200160002080546123e290614ce1565b80601f016020809104026020016040519081016040528092919081815260200182805461240e90614ce1565b801561245b5780601f106124305761010080835404028352916020019161245b565b820191906000526020600020905b81548152906001019060200180831161243e57829003601f168201915b5050505050915050919050565b6000600560008473ffffffffffffffffffffffffffffffffffffffff1673ffffffffffffffffffffffffffffffffffffffff16815260200190815260200160002060008373ffffffffffffffffffffffffffffffffffffffff1673ffffffffffffffffffffffffffffffffffffffff16815260200190815260200160002060009054906101000a900460ff16905092915050565b600160009054906101000a900473ffffffffffffffffffffffffffffffffffffffff1673ffffffffffffffffffffffffffffffffffffffff163373ffffffffffffffffffffffffffffffffffffffff161461258c576040517f08c379a000000000000000000000000000000000000000000000000000000000815260040161258390614a10565b60405180910390fd5b7f2d5a82cbc34270500c60b0532ca36cd4716c295bf0351b25835351664a3125bf600160009054906101000a900473ffffffffffffffffffffffffffffffffffffffff166040516125dd919061493a565b60405180910390a1600073ffffffffffffffffffffffffffffffffffffffff168173ffffffffffffffffffffffffffffffffffffffff1614156040518060400160405280600481526020017f30313032000000000000000000000000000000000000000000000000000000008152509061268d576040517f08c379a000000000000000000000000000000000000000000000000000000000815260040161268491906149ce565b60405180910390fd5b508073ffffffffffffffffffffffffffffffffffffffff16600160009054906101000a900473ffffffffffffffffffffffffffffffffffffffff1673ffffffffffffffffffffffffffffffffffffffff167f8be0079c531659141344cd1fd0a4f28419497f9722a3daafe3b4186f6b6457e060405160405180910390a380600160006101000a81548173ffffffffffffffffffffffffffffffffffffffff021916908373ffffffffffffffffffffffffffffffffffffffff16021790555050565b6040518060400160405280600481526020017f303130310000000000000000000000000000000000000000000000000000000081525081565b600033905090565b60006002600083815260200190815260200160002060009054906101000a900473ffffffffffffffffffffffffffffffffffffffff1690506127d08261318f565b6127da8183613230565b6127e4838361323e565b600560008473ffffffffffffffffffffffffffffffffffffffff1673ffffffffffffffffffffffffffffffffffffffff1681526020019081526020016000206000600160009054906101000a900473ffffffffffffffffffffffffffffffffffffffff1673ffffffffffffffffffffffffffffffffffffffff1673ffffffffffffffffffffffffffffffffffffffff16815260200190815260200160002060009054906101000a900460ff1661294c576001600560008573ffffffffffffffffffffffffffffffffffffffff1673ffffffffffffffffffffffffffffffffffffffff1681526020019081526020016000206000600160009054906101000a900473ffffffffffffffffffffffffffffffffffffffff1673ffffffffffffffffffffffffffffffffffffffff1673ffffffffffffffffffffffffffffffffffffffff16815260200190815260200160002060006101000a81548160ff0219169083151502179055505b818373ffffffffffffffffffffffffffffffffffffffff168273ffffffffffffffffffffffffffffffffffffffff167fddf252ad1be2c89b69c2b068fc378daa952ba7f163c4a11628f55a4df523b3ef60405160405180910390a4505050565b600261ffff16600680549050106040518060400160405280600481526020017f303430310000000000000000000000000000000000000000000000000000000081525090612a30576040517f08c379a0000000000000000000000000000000000000000000000000000000008152600401612a2791906149ce565b60405180910390fd5b50612a3b828261324c565b5050565b60606000612a4c836132ac565b905060006040518060400160405280601081526020017f697066733a2f2f46303137303132323000000000000000000000000000000000815250905060008183604051602001612a9d929190614865565b6040516020818303038152906040529050809350505050919050565b612710811115612afe576040517f08c379a0000000000000000000000000000000000000000000000000000000008152600401612af5906149f0565b60405180910390fd5b60405180604001604052808373ffffffffffffffffffffffffffffffffffffffff16815260200182815250600d600085815260200190815260200160002060008201518160000160006101000a81548173ffffffffffffffffffffffffffffffffffffffff021916908373ffffffffffffffffffffffffffffffffffffffff16021790555060208201518160010155905050505050565b8160006002600083815260200190815260200160002060009054906101000a900473ffffffffffffffffffffffffffffffffffffffff169050612bd6612787565b73ffffffffffffffffffffffffffffffffffffffff168173ffffffffffffffffffffffffffffffffffffffff161480612c745750612c12612787565b73ffffffffffffffffffffffffffffffffffffffff166003600084815260200190815260200160002060009054906101000a900473ffffffffffffffffffffffffffffffffffffffff1673ffffffffffffffffffffffffffffffffffffffff16145b80612d055750600560008273ffffffffffffffffffffffffffffffffffffffff1673ffffffffffffffffffffffffffffffffffffffff16815260200190815260200160002060003373ffffffffffffffffffffffffffffffffffffffff1673ffffffffffffffffffffffffffffffffffffffff16815260200190815260200160002060009054906101000a900460ff165b6040518060400160405280600481526020017f303330340000000000000000000000000000000000000000000000000000000081525090612d7c576040517f08c379a0000000000000000000000000000000000000000000000000000000008152600401612d7391906149ce565b60405180910390fd5b5083600073ffffffffffffffffffffffffffffffffffffffff166002600083815260200190815260200160002060009054906101000a900473ffffffffffffffffffffffffffffffffffffffff1673ffffffffffffffffffffffffffffffffffffffff1614156040518060400160405280600481526020017f303330320000000000000000000000000000000000000000000000000000000081525090612e59576040517f08c379a0000000000000000000000000000000000000000000000000000000008152600401612e5091906149ce565b60405180910390fd5b5060006002600087815260200190815260200160002060009054906101000a900473ffffffffffffffffffffffffffffffffffffffff1690508773ffffffffffffffffffffffffffffffffffffffff168173ffffffffffffffffffffffffffffffffffffffff16146040518060400160405280600481526020017f303330370000000000000000000000000000000000000000000000000000000081525090612f38576040517f08c379a0000000000000000000000000000000000000000000000000000000008152600401612f2f91906149ce565b60405180910390fd5b50600073ffffffffffffffffffffffffffffffffffffffff168773ffffffffffffffffffffffffffffffffffffffff1614156040518060400160405280600481526020017f303330310000000000000000000000000000000000000000000000000000000081525090612fe1576040517f08c379a0000000000000000000000000000000000000000000000000000000008152600401612fd891906149ce565b60405180910390fd5b50612fec878761278f565b61300b8773ffffffffffffffffffffffffffffffffffffffff1661347e565b156131675760008773ffffffffffffffffffffffffffffffffffffffff1663150b7a02338b8a8a6040518563ffffffff1660e01b815260040161305194939291906148a4565b602060405180830381600087803b15801561306b57600080fd5b505af115801561307f573d6000803e3d6000fd5b505050506040513d601f19601f820116820180604052508101906130a39190614513565b905063150b7a0260e01b7bffffffffffffffffffffffffffffffffffffffffffffffffffffffff1916817bffffffffffffffffffffffffffffffffffffffffffffffffffffffff1916146040518060400160405280600481526020017f303330350000000000000000000000000000000000000000000000000000000081525090613164576040517f08c379a000000000000000000000000000000000000000000000000000000000815260040161315b91906149ce565b60405180910390fd5b50505b5050505050505050565b61317a816134c9565b50565b60006131888261351c565b9050919050565b600073ffffffffffffffffffffffffffffffffffffffff166003600083815260200190815260200160002060009054906101000a900473ffffffffffffffffffffffffffffffffffffffff1673ffffffffffffffffffffffffffffffffffffffff161461322d576003600082815260200190815260200160002060006101000a81549073ffffffffffffffffffffffffffffffffffffffff02191690555b50565b61323a8282613568565b5050565b61324882826138a1565b5050565b6132568282613a9e565b600681908060018154018082558091505060019003906000526020600020016000909190919091505560016006805490506132919190614bea565b60076000838152602001908152602001600020819055505050565b606060008214156040518060400160405280600481526020017f30343034000000000000000000000000000000000000000000000000000000008152509061332a576040517f08c379a000000000000000000000000000000000000000000000000000000000815260040161332191906149ce565b60405180910390fd5b506000604067ffffffffffffffff81111561336e577f4e487b7100000000000000000000000000000000000000000000000000000000600052604160045260246000fd5b6040519080825280601f01601f1916602001820160405280156133a05781602001600182028036833780820191505090505b50905060005b6040811015613474576000600f85169050600981116133d4578060306133cc9190614b28565b60f81b6133e5565b8060376133e19190614b28565b60f81b5b8383603f6133f39190614bea565b8151811061342a577f4e487b7100000000000000000000000000000000000000000000000000000000600052603260045260246000fd5b60200101907effffffffffffffffffffffffffffffffffffffffffffffffffffffffffffff1916908160001a905350600485901c945050808061346c90614d13565b9150506133a6565b5080915050919050565b60008060007fc5d2460186f7233c927e7db2dcc703c0e500b653ca82273b7bfad8045d85a47060001b9050833f91506000801b82141580156134c05750808214155b92505050919050565b6134d281613e06565b6000600c600083815260200190815260200160002080546134f290614ce1565b90501461351957600c600082815260200190815260200160002060006135189190614163565b5b50565b6000600860008373ffffffffffffffffffffffffffffffffffffffff1673ffffffffffffffffffffffffffffffffffffffff168152602001908152602001600020805490509050919050565b8173ffffffffffffffffffffffffffffffffffffffff166002600083815260200190815260200160002060009054906101000a900473ffffffffffffffffffffffffffffffffffffffff1673ffffffffffffffffffffffffffffffffffffffff16146040518060400160405280600481526020017f303330370000000000000000000000000000000000000000000000000000000081525090613641576040517f08c379a000000000000000000000000000000000000000000000000000000000815260040161363891906149ce565b60405180910390fd5b506002600082815260200190815260200160002060006101000a81549073ffffffffffffffffffffffffffffffffffffffff021916905560006009600083815260200190815260200160002054905060006001600860008673ffffffffffffffffffffffffffffffffffffffff1673ffffffffffffffffffffffffffffffffffffffff168152602001908152602001600020805490506136e19190614bea565b9050818114613810576000600860008673ffffffffffffffffffffffffffffffffffffffff1673ffffffffffffffffffffffffffffffffffffffff1681526020019081526020016000208281548110613763577f4e487b7100000000000000000000000000000000000000000000000000000000600052603260045260246000fd5b9060005260206000200154905080600860008773ffffffffffffffffffffffffffffffffffffffff1673ffffffffffffffffffffffffffffffffffffffff16815260200190815260200160002084815481106137e8577f4e487b7100000000000000000000000000000000000000000000000000000000600052603260045260246000fd5b9060005260206000200181905550826009600083815260200190815260200160002081905550505b600860008573ffffffffffffffffffffffffffffffffffffffff1673ffffffffffffffffffffffffffffffffffffffff168152602001908152602001600020805480613885577f4e487b7100000000000000000000000000000000000000000000000000000000600052603160045260246000fd5b6001900381819060005260206000200160009055905550505050565b600073ffffffffffffffffffffffffffffffffffffffff166002600083815260200190815260200160002060009054906101000a900473ffffffffffffffffffffffffffffffffffffffff1673ffffffffffffffffffffffffffffffffffffffff16146040518060400160405280600481526020017f30333036000000000000000000000000000000000000000000000000000000008152509061397b576040517f08c379a000000000000000000000000000000000000000000000000000000000815260040161397291906149ce565b60405180910390fd5b50816002600083815260200190815260200160002060006101000a81548173ffffffffffffffffffffffffffffffffffffffff021916908373ffffffffffffffffffffffffffffffffffffffff160217905550600860008373ffffffffffffffffffffffffffffffffffffffff1673ffffffffffffffffffffffffffffffffffffffff1681526020019081526020016000208190806001815401808255809150506001900390600052602060002001600090919091909150556001600860008473ffffffffffffffffffffffffffffffffffffffff1673ffffffffffffffffffffffffffffffffffffffff16815260200190815260200160002080549050613a839190614bea565b60096000838152602001908152602001600020819055505050565b600073ffffffffffffffffffffffffffffffffffffffff168273ffffffffffffffffffffffffffffffffffffffff1614156040518060400160405280600481526020017f303330310000000000000000000000000000000000000000000000000000000081525090613b46576040517f08c379a0000000000000000000000000000000000000000000000000000000008152600401613b3d91906149ce565b60405180910390fd5b50600073ffffffffffffffffffffffffffffffffffffffff166002600083815260200190815260200160002060009054906101000a900473ffffffffffffffffffffffffffffffffffffffff1673ffffffffffffffffffffffffffffffffffffffff16146040518060400160405280600481526020017f303330360000000000000000000000000000000000000000000000000000000081525090613c21576040517f08c379a0000000000000000000000000000000000000000000000000000000008152600401613c1891906149ce565b60405180910390fd5b50613c2c828261323e565b613c4b8273ffffffffffffffffffffffffffffffffffffffff1661347e565b15613da65760008273ffffffffffffffffffffffffffffffffffffffff1663150b7a02336000856040518463ffffffff1660e01b8152600401613c90939291906148f0565b602060405180830381600087803b158015613caa57600080fd5b505af1158015613cbe573d6000803e3d6000fd5b505050506040513d601f19601f82011682018060405250810190613ce29190614513565b905063150b7a0260e01b7bffffffffffffffffffffffffffffffffffffffffffffffffffffffff1916817bffffffffffffffffffffffffffffffffffffffffffffffffffffffff1916146040518060400160405280600481526020017f303330350000000000000000000000000000000000000000000000000000000081525090613da3576040517f08c379a0000000000000000000000000000000000000000000000000000000008152600401613d9a91906149ce565b60405180910390fd5b50505b808273ffffffffffffffffffffffffffffffffffffffff16600073ffffffffffffffffffffffffffffffffffffffff167fddf252ad1be2c89b69c2b068fc378daa952ba7f163c4a11628f55a4df523b3ef60405160405180910390a45050565b613e0f81613f54565b60006007600083815260200190815260200160002054905060006001600680549050613e3b9190614bea565b9050600060068281548110613e79577f4e487b7100000000000000000000000000000000000000000000000000000000600052603260045260246000fd5b906000526020600020015490508060068481548110613ec1577f4e487b7100000000000000000000000000000000000000000000000000000000600052603260045260246000fd5b90600052602060002001819055506006805480613f07577f4e487b7100000000000000000000000000000000000000000000000000000000600052603160045260246000fd5b600190038181906000526020600020016000905590558260076000838152602001908152602001600020819055506000600760008681526020019081526020016000208190555050505050565b80600073ffffffffffffffffffffffffffffffffffffffff166002600083815260200190815260200160002060009054906101000a900473ffffffffffffffffffffffffffffffffffffffff1673ffffffffffffffffffffffffffffffffffffffff1614156040518060400160405280600481526020017f303330320000000000000000000000000000000000000000000000000000000081525090614030576040517f08c379a000000000000000000000000000000000000000000000000000000000815260040161402791906149ce565b60405180910390fd5b5060006002600084815260200190815260200160002060009054906101000a900473ffffffffffffffffffffffffffffffffffffffff1690506140728361318f565b61407c8184613230565b82600073ffffffffffffffffffffffffffffffffffffffff168273ffffffffffffffffffffffffffffffffffffffff167fddf252ad1be2c89b69c2b068fc378daa952ba7f163c4a11628f55a4df523b3ef60405160405180910390a4505050565b8280546140e990614ce1565b90600052602060002090601f01602090048101928261410b5760008555614152565b82601f1061412457805160ff1916838001178555614152565b82800160010185558215614152579182015b82811115614151578251825591602001919060010190614136565b5b50905061415f91906141a3565b5090565b50805461416f90614ce1565b6000825580601f1061418157506141a0565b601f01602090049060005260206000209081019061419f91906141a3565b5b50565b5b808211156141bc5760008160009055506001016141a4565b5090565b60006141d36141ce84614a7c565b614a4b565b9050828152602081018484840111156141eb57600080fd5b6141f6848285614c9f565b509392505050565b60008135905061420d81614e29565b92915050565b60008135905061422281614e40565b92915050565b60008135905061423781614e57565b92915050565b60008151905061424c81614e57565b92915050565b60008083601f84011261426457600080fd5b8235905067ffffffffffffffff81111561427d57600080fd5b60208301915083600182028301111561429557600080fd5b9250929050565b600082601f8301126142ad57600080fd5b81356142bd8482602086016141c0565b91505092915050565b6000813590506142d581614e6e565b92915050565b6000602082840312156142ed57600080fd5b60006142fb848285016141fe565b91505092915050565b6000806040838503121561431757600080fd5b6000614325858286016141fe565b9250506020614336858286016141fe565b9150509250929050565b60008060006060848603121561435557600080fd5b6000614363868287016141fe565b9350506020614374868287016141fe565b9250506040614385868287016142c6565b9150509250925092565b6000806000806000608086880312156143a757600080fd5b60006143b5888289016141fe565b95505060206143c6888289016141fe565b94505060406143d7888289016142c6565b935050606086013567ffffffffffffffff8111156143f457600080fd5b61440088828901614252565b92509250509295509295909350565b6000806040838503121561442257600080fd5b6000614430858286016141fe565b925050602061444185828601614213565b9150509250929050565b6000806040838503121561445e57600080fd5b600061446c858286016141fe565b925050602061447d858286016142c6565b9150509250929050565b6000806000806080858703121561449d57600080fd5b60006144ab878288016141fe565b94505060206144bc878288016142c6565b93505060406144cd878288016141fe565b92505060606144de878288016142c6565b91505092959194509250565b6000602082840312156144fc57600080fd5b600061450a84828501614228565b91505092915050565b60006020828403121561452557600080fd5b60006145338482850161423d565b91505092915050565b60006020828403121561454e57600080fd5b600082013567ffffffffffffffff81111561456857600080fd5b6145748482850161429c565b91505092915050565b60006020828403121561458f57600080fd5b600061459d848285016142c6565b91505092915050565b600080604083850312156145b957600080fd5b60006145c7858286016142c6565b925050602083013567ffffffffffffffff8111156145e457600080fd5b6145f08582860161429c565b9150509250929050565b6000806040838503121561460d57600080fd5b600061461b858286016142c6565b925050602061462c858286016142c6565b9150509250929050565b60006146428383614847565b60208301905092915050565b61465781614c1e565b82525050565b600061466882614abc565b6146728185614aea565b935061467d83614aac565b8060005b838110156146ae5781516146958882614636565b97506146a083614add565b925050600181019050614681565b5085935050505092915050565b6146c481614c30565b82525050565b60006146d582614ac7565b6146df8185614afb565b93506146ef818560208601614cae565b6146f881614e18565b840191505092915050565b600061470e82614ad2565b6147188185614b0c565b9350614728818560208601614cae565b61473181614e18565b840191505092915050565b600061474782614ad2565b6147518185614b1d565b9350614761818560208601614cae565b80840191505092915050565b600061477a601a83614b0c565b91507f45524332393831526f79616c746965733a20546f6f20686967680000000000006000830152602082019050919050565b60006147ba600983614b0c565b91507f4e6f74206f776e657200000000000000000000000000000000000000000000006000830152602082019050919050565b60006147fa600083614afb565b9150600082019050919050565b6000614814601c83614b0c565b91507f706173736564206f776e65727368697020726571756972656d656e74000000006000830152602082019050919050565b61485081614c88565b82525050565b61485f81614c88565b82525050565b6000614871828561473c565b915061487d828461473c565b91508190509392505050565b600060208201905061489e600083018461464e565b92915050565b60006080820190506148b9600083018761464e565b6148c6602083018661464e565b6148d36040830185614856565b81810360608301526148e581846146ca565b905095945050505050565b6000608082019050614905600083018661464e565b614912602083018561464e565b61491f6040830184614856565b8181036060830152614930816147ed565b9050949350505050565b600060408201905061494f600083018461464e565b818103602083015261496081614807565b905092915050565b600060408201905061497d600083018561464e565b61498a6020830184614856565b9392505050565b600060208201905081810360008301526149ab818461465d565b905092915050565b60006020820190506149c860008301846146bb565b92915050565b600060208201905081810360008301526149e88184614703565b905092915050565b60006020820190508181036000830152614a098161476d565b9050919050565b60006020820190508181036000830152614a29816147ad565b9050919050565b6000602082019050614a456000830184614856565b92915050565b6000604051905081810181811067ffffffffffffffff82111715614a7257614a71614de9565b5b8060405250919050565b600067ffffffffffffffff821115614a9757614a96614de9565b5b601f19601f8301169050602081019050919050565b6000819050602082019050919050565b600081519050919050565b600081519050919050565b600081519050919050565b6000602082019050919050565b600082825260208201905092915050565b600082825260208201905092915050565b600082825260208201905092915050565b600081905092915050565b6000614b3382614c92565b9150614b3e83614c92565b92508260ff03821115614b5457614b53614d5c565b5b828201905092915050565b6000614b6a82614c88565b9150614b7583614c88565b925082614b8557614b84614d8b565b5b828204905092915050565b6000614b9b82614c88565b9150614ba683614c88565b9250817fffffffffffffffffffffffffffffffffffffffffffffffffffffffffffffffff0483118215151615614bdf57614bde614d5c565b5b828202905092915050565b6000614bf582614c88565b9150614c0083614c88565b925082821015614c1357614c12614d5c565b5b828203905092915050565b6000614c2982614c68565b9050919050565b60008115159050919050565b60007fffffffff0000000000000000000000000000000000000000000000000000000082169050919050565b600073ffffffffffffffffffffffffffffffffffffffff82169050919050565b6000819050919050565b600060ff82169050919050565b82818337600083830152505050565b60005b83811015614ccc578082015181840152602081019050614cb1565b83811115614cdb576000848401525b50505050565b60006002820490506001821680614cf957607f821691505b60208210811415614d0d57614d0c614dba565b5b50919050565b6000614d1e82614c88565b91507fffffffffffffffffffffffffffffffffffffffffffffffffffffffffffffffff821415614d5157614d50614d5c565b5b600182019050919050565b7f4e487b7100000000000000000000000000000000000000000000000000000000600052601160045260246000fd5b7f4e487b7100000000000000000000000000000000000000000000000000000000600052601260045260246000fd5b7f4e487b7100000000000000000000000000000000000000000000000000000000600052602260045260246000fd5b7f4e487b7100000000000000000000000000000000000000000000000000000000600052604160045260246000fd5b6000601f19601f8301169050919050565b614e3281614c1e565b8114614e3d57600080fd5b50565b614e4981614c30565b8114614e5457600080fd5b50565b614e6081614c3c565b8114614e6b57600080fd5b50565b614e7781614c88565b8114614e8257600080fd5b5056fea2646970667358221220b0fe6f011afcb8128c5a50b9e226f5fb8930d45bca80c5b5acea048d0f83f7c564736f6c63430008000033",
  "linkReferences": {},
  "deployedLinkReferences": {}
}