{
  "_format": "hh-sol-artifact-1",
  "contractName": "NMWDMarketPlace",
  "sourceName": "contracts/NMWDMarketPlace.sol",
  "abi": [
    {
      "inputs": [],
      "stateMutability": "nonpayable",
      "type": "constructor"
    },
    {
      "anonymous": false,
      "inputs": [
        {
          "indexed": true,
          "internalType": "address",
          "name": "previousOwner",
          "type": "address"
        },
        {
          "indexed": true,
          "internalType": "address",
          "name": "newOwner",
          "type": "address"
        }
      ],
      "name": "OwnershipTransferred",
      "type": "event"
    },
    {
      "anonymous": false,
      "inputs": [
        {
          "indexed": true,
          "internalType": "address",
          "name": "payer",
          "type": "address"
        },
        {
          "indexed": false,
          "internalType": "uint256",
          "name": "tokenId",
          "type": "uint256"
        },
        {
          "indexed": false,
          "internalType": "uint256",
          "name": "amount",
          "type": "uint256"
        },
        {
          "indexed": false,
          "internalType": "uint256",
          "name": "balance",
          "type": "uint256"
        }
      ],
      "name": "Received",
      "type": "event"
    },
    {
      "anonymous": false,
      "inputs": [
        {
          "indexed": true,
          "internalType": "address",
          "name": "payee",
          "type": "address"
        },
        {
          "indexed": false,
          "internalType": "uint256",
          "name": "amount",
          "type": "uint256"
        },
        {
          "indexed": false,
          "internalType": "uint256",
          "name": "balance",
          "type": "uint256"
        }
      ],
      "name": "Sent",
      "type": "event"
    },
    {
      "anonymous": false,
      "inputs": [
        {
          "indexed": false,
          "internalType": "address",
          "name": "deliveredTo",
          "type": "address"
        },
        {
          "indexed": false,
          "internalType": "string",
          "name": "msg",
          "type": "string"
        }
      ],
      "name": "_msg",
      "type": "event"
    },
    {
      "inputs": [],
      "name": "CANNOT_TRANSFER_TO_ZERO_ADDRESS",
      "outputs": [
        {
          "internalType": "string",
          "name": "",
          "type": "string"
        }
      ],
      "stateMutability": "view",
      "type": "function"
    },
    {
      "inputs": [],
      "name": "NMWDcontract",
      "outputs": [
        {
          "internalType": "contract NoMoreWarOnDrugs",
          "name": "",
          "type": "address"
        }
      ],
      "stateMutability": "view",
      "type": "function"
    },
    {
      "inputs": [],
      "name": "NOT_CURRENT_OWNER",
      "outputs": [
        {
          "internalType": "string",
          "name": "",
          "type": "string"
        }
      ],
      "stateMutability": "view",
      "type": "function"
    },
    {
      "inputs": [
        {
          "internalType": "address",
          "name": "",
          "type": "address"
        }
      ],
      "name": "ethBalance",
      "outputs": [
        {
          "internalType": "uint256",
          "name": "",
          "type": "uint256"
        }
      ],
      "stateMutability": "view",
      "type": "function"
    },
    {
      "inputs": [],
      "name": "getBackOwnership",
      "outputs": [],
      "stateMutability": "nonpayable",
      "type": "function"
    },
    {
      "inputs": [
        {
          "internalType": "uint256",
          "name": "_tokenId",
          "type": "uint256"
        }
      ],
      "name": "getForSale",
      "outputs": [
        {
          "internalType": "bool",
          "name": "",
          "type": "bool"
        }
      ],
      "stateMutability": "view",
      "type": "function"
    },
    {
      "inputs": [],
      "name": "getMarketPlaceBalance",
      "outputs": [
        {
          "internalType": "uint256",
          "name": "",
          "type": "uint256"
        }
      ],
      "stateMutability": "view",
      "type": "function"
    },
    {
      "inputs": [
        {
          "internalType": "uint256",
          "name": "_tokenId",
          "type": "uint256"
        }
      ],
      "name": "getPrice",
      "outputs": [
        {
          "internalType": "uint256",
          "name": "",
          "type": "uint256"
        }
      ],
      "stateMutability": "view",
      "type": "function"
    },
    {
      "inputs": [
        {
          "internalType": "address",
          "name": "userAddress",
          "type": "address"
        }
      ],
      "name": "getUserBalance",
      "outputs": [
        {
          "internalType": "uint256",
          "name": "",
          "type": "uint256"
        }
      ],
      "stateMutability": "view",
      "type": "function"
    },
    {
      "inputs": [
        {
          "internalType": "address",
          "name": "_to",
          "type": "address"
        },
        {
          "internalType": "uint256",
          "name": "_tokenId",
          "type": "uint256"
        },
        {
          "internalType": "string",
          "name": "_uri",
          "type": "string"
        }
      ],
      "name": "mintThroughPurchase",
      "outputs": [],
      "stateMutability": "payable",
      "type": "function"
    },
    {
      "inputs": [],
      "name": "owner",
      "outputs": [
        {
          "internalType": "address",
          "name": "",
          "type": "address"
        }
      ],
      "stateMutability": "view",
      "type": "function"
    },
    {
      "inputs": [
        {
          "internalType": "uint256",
          "name": "_tokenId",
          "type": "uint256"
        }
      ],
      "name": "purchaseToken",
      "outputs": [],
      "stateMutability": "payable",
      "type": "function"
    },
    {
      "inputs": [
        {
          "internalType": "uint256",
          "name": "_tokenId",
          "type": "uint256"
        },
        {
          "internalType": "bool",
          "name": "_forSale",
          "type": "bool"
        }
      ],
      "name": "setForSale",
      "outputs": [
        {
          "internalType": "bool",
          "name": "",
          "type": "bool"
        }
      ],
      "stateMutability": "nonpayable",
      "type": "function"
    },
    {
      "inputs": [
        {
          "internalType": "uint256",
          "name": "_price",
          "type": "uint256"
        },
        {
          "internalType": "uint256",
          "name": "_tokenId",
          "type": "uint256"
        }
      ],
      "name": "setPrice",
      "outputs": [],
      "stateMutability": "nonpayable",
      "type": "function"
    },
    {
      "inputs": [
        {
          "internalType": "address",
          "name": "_newOwner",
          "type": "address"
        }
      ],
      "name": "transferOwnership",
      "outputs": [],
      "stateMutability": "nonpayable",
      "type": "function"
    },
    {
      "inputs": [
        {
          "internalType": "address",
          "name": "nmwdAddress",
          "type": "address"
        }
      ],
      "name": "updateNMWDcontract",
      "outputs": [],
      "stateMutability": "nonpayable",
      "type": "function"
    },
    {
      "inputs": [
        {
          "internalType": "address",
          "name": "_payee",
          "type": "address"
        },
        {
          "internalType": "uint256",
          "name": "_amount",
          "type": "uint256"
        }
      ],
      "name": "withdrawFromContract",
      "outputs": [],
      "stateMutability": "nonpayable",
      "type": "function"
    },
    {
      "inputs": [
        {
          "internalType": "uint256",
          "name": "_amount",
          "type": "uint256"
        }
      ],
      "name": "withdrawUserFunds",
      "outputs": [],
      "stateMutability": "nonpayable",
      "type": "function"
    }
  ],
  "bytecode": "0x60806040523480156200001157600080fd5b50620000226200002860201b60201c565b6200018d565b336000806101000a81548173ffffffffffffffffffffffffffffffffffffffff021916908373ffffffffffffffffffffffffffffffffffffffff1602179055507f2d5a82cbc34270500c60b0532ca36cd4716c295bf0351b25835351664a3125bf60008054906101000a900473ffffffffffffffffffffffffffffffffffffffff16604051620000b9919062000116565b60405180910390a1565b620000ce8162000159565b82525050565b6000620000e360098362000148565b91507f736574206f776e657200000000000000000000000000000000000000000000006000830152602082019050919050565b60006040820190506200012d6000830184620000c3565b81810360208301526200014081620000d4565b905092915050565b600082825260208201905092915050565b600062000166826200016d565b9050919050565b600073ffffffffffffffffffffffffffffffffffffffff82169050919050565b612ac6806200019d6000396000f3fe6080604052600436106101095760003560e01c8063c2db2c4211610095578063ecdf156111610064578063ecdf15611461034f578063f0a6c16b14610378578063f2fde38b146103b5578063f3fe3bc3146103de578063f7d975771461040957610109565b8063c2db2c421461029d578063d8f3790f146102b9578063db228cfe146102f6578063e75722301461031257610109565b8063860d248a116100dc578063860d248a146101c85780638da5cb5b146101f3578063b0e857ec1461021e578063b4c49d0914610247578063be4185f41461027257610109565b80632abacf8c1461010e578063477348921461014b5780635c93bec714610188578063837381fa1461019f575b600080fd5b34801561011a57600080fd5b50610135600480360381019061013091906122ad565b610432565b60405161014291906125aa565b60405180910390f35b34801561015757600080fd5b50610172600480360381019061016d919061218f565b61045c565b60405161017f91906126f2565b60405180910390f35b34801561019457600080fd5b5061019d6104a5565b005b3480156101ab57600080fd5b506101c660048036038101906101c191906121e1565b610704565b005b3480156101d457600080fd5b506101dd61090f565b6040516101ea91906125e0565b60405180910390f35b3480156101ff57600080fd5b50610208610948565b60405161021591906124c3565b60405180910390f35b34801561022a57600080fd5b506102456004803603810190610240919061218f565b61096c565b005b34801561025357600080fd5b5061025c610bd7565b60405161026991906126f2565b60405180910390f35b34801561027e57600080fd5b50610287610be1565b60405161029491906125c5565b60405180910390f35b6102b760048036038101906102b291906122ad565b610c07565b005b3480156102c557600080fd5b506102e060048036038101906102db919061218f565b6113ad565b6040516102ed91906126f2565b60405180910390f35b610310600480360381019061030b919061221d565b6113c5565b005b34801561031e57600080fd5b50610339600480360381019061033491906122ad565b61169f565b60405161034691906126f2565b60405180910390f35b34801561035b57600080fd5b50610376600480360381019061037191906122ad565b6116bc565b005b34801561038457600080fd5b5061039f600480360381019061039a91906122d6565b611843565b6040516103ac91906125aa565b60405180910390f35b3480156103c157600080fd5b506103dc60048036038101906103d7919061218f565b61199b565b005b3480156103ea57600080fd5b506103f3611be6565b60405161040091906125e0565b60405180910390f35b34801561041557600080fd5b50610430600480360381019061042b9190612312565b611c1f565b005b60006003600083815260200190815260200160002060009054906101000a900460ff169050919050565b6000600560008373ffffffffffffffffffffffffffffffffffffffff1673ffffffffffffffffffffffffffffffffffffffff168152602001908152602001600020549050919050565b60008054906101000a900473ffffffffffffffffffffffffffffffffffffffff1673ffffffffffffffffffffffffffffffffffffffff163373ffffffffffffffffffffffffffffffffffffffff1614610533576040517f08c379a000000000000000000000000000000000000000000000000000000000815260040161052a90612692565b60405180910390fd5b7f2d5a82cbc34270500c60b0532ca36cd4716c295bf0351b25835351664a3125bf60008054906101000a900473ffffffffffffffffffffffffffffffffffffffff16604051610582919061253e565b60405180910390a1600073ffffffffffffffffffffffffffffffffffffffff16600160009054906101000a900473ffffffffffffffffffffffffffffffffffffffff1673ffffffffffffffffffffffffffffffffffffffff1614156040518060400160405280600681526020017f303033303032000000000000000000000000000000000000000000000000000081525090610654576040517f08c379a000000000000000000000000000000000000000000000000000000000815260040161064b91906125e0565b60405180910390fd5b50600160009054906101000a900473ffffffffffffffffffffffffffffffffffffffff1673ffffffffffffffffffffffffffffffffffffffff1663f2fde38b60008054906101000a900473ffffffffffffffffffffffffffffffffffffffff166040518263ffffffff1660e01b81526004016106d091906124c3565b600060405180830381600087803b1580156106ea57600080fd5b505af11580156106fe573d6000803e3d6000fd5b50505050565b60008054906101000a900473ffffffffffffffffffffffffffffffffffffffff1673ffffffffffffffffffffffffffffffffffffffff163373ffffffffffffffffffffffffffffffffffffffff1614610792576040517f08c379a000000000000000000000000000000000000000000000000000000000815260040161078990612692565b60405180910390fd5b7f2d5a82cbc34270500c60b0532ca36cd4716c295bf0351b25835351664a3125bf60008054906101000a900473ffffffffffffffffffffffffffffffffffffffff166040516107e1919061253e565b60405180910390a1600073ffffffffffffffffffffffffffffffffffffffff168273ffffffffffffffffffffffffffffffffffffffff161415801561085257503073ffffffffffffffffffffffffffffffffffffffff168273ffffffffffffffffffffffffffffffffffffffff1614155b61085b57600080fd5b60008111801561086b5750478111155b61087457600080fd5b8173ffffffffffffffffffffffffffffffffffffffff166108fc829081150290604051600060405180830381858888f193505050501580156108ba573d6000803e3d6000fd5b508173ffffffffffffffffffffffffffffffffffffffff167f6356739d963da01dc3533acba7203430fcc14f2175d48a8dd0973d7db49c785e824760405161090392919061270d565b60405180910390a25050565b6040518060400160405280600681526020017f303138303032000000000000000000000000000000000000000000000000000081525081565b60008054906101000a900473ffffffffffffffffffffffffffffffffffffffff1681565b60008054906101000a900473ffffffffffffffffffffffffffffffffffffffff1673ffffffffffffffffffffffffffffffffffffffff163373ffffffffffffffffffffffffffffffffffffffff16146109fa576040517f08c379a00000000000000000000000000000000000000000000000000000000081526004016109f190612692565b60405180910390fd5b7f2d5a82cbc34270500c60b0532ca36cd4716c295bf0351b25835351664a3125bf60008054906101000a900473ffffffffffffffffffffffffffffffffffffffff16604051610a49919061253e565b60405180910390a1600073ffffffffffffffffffffffffffffffffffffffff168173ffffffffffffffffffffffffffffffffffffffff1614158015610aba57503073ffffffffffffffffffffffffffffffffffffffff168173ffffffffffffffffffffffffffffffffffffffff1614155b6040518060400160405280600681526020017f303033303031000000000000000000000000000000000000000000000000000081525090610b31576040517f08c379a0000000000000000000000000000000000000000000000000000000008152600401610b2891906125e0565b60405180910390fd5b5080600160006101000a81548173ffffffffffffffffffffffffffffffffffffffff021916908373ffffffffffffffffffffffffffffffffffffffff160217905550610bd46040518060400160405280601781526020017f61646472657373284e4d5744636f6e7472616374293a20000000000000000000815250600160009054906101000a900473ffffffffffffffffffffffffffffffffffffffff16611ec1565b50565b6000600454905090565b600160009054906101000a900473ffffffffffffffffffffffffffffffffffffffff1681565b6003600082815260200190815260200160002060009054906101000a900460ff166040518060400160405280600681526020017f303033303035000000000000000000000000000000000000000000000000000081525090610c9f576040517f08c379a0000000000000000000000000000000000000000000000000000000008152600401610c9691906125e0565b60405180910390fd5b50600073ffffffffffffffffffffffffffffffffffffffff163373ffffffffffffffffffffffffffffffffffffffff1614158015610d0957503073ffffffffffffffffffffffffffffffffffffffff163373ffffffffffffffffffffffffffffffffffffffff1614155b610d1257600080fd5b6002600082815260200190815260200160002054341015610d3257600080fd5b600073ffffffffffffffffffffffffffffffffffffffff16600160009054906101000a900473ffffffffffffffffffffffffffffffffffffffff1673ffffffffffffffffffffffffffffffffffffffff16636352211e836040518263ffffffff1660e01b8152600401610da591906126f2565b60206040518083038186803b158015610dbd57600080fd5b505afa158015610dd1573d6000803e3d6000fd5b505050506040513d601f19601f82011682018060405250810190610df591906121b8565b73ffffffffffffffffffffffffffffffffffffffff1614156040518060400160405280600681526020017f303033303034000000000000000000000000000000000000000000000000000081525090610e84576040517f08c379a0000000000000000000000000000000000000000000000000000000008152600401610e7b91906125e0565b60405180910390fd5b506000600160009054906101000a900473ffffffffffffffffffffffffffffffffffffffff1673ffffffffffffffffffffffffffffffffffffffff16636352211e836040518263ffffffff1660e01b8152600401610ee291906126f2565b60206040518083038186803b158015610efa57600080fd5b505afa158015610f0e573d6000803e3d6000fd5b505050506040513d601f19601f82011682018060405250810190610f3291906121b8565b90503073ffffffffffffffffffffffffffffffffffffffff16600160009054906101000a900473ffffffffffffffffffffffffffffffffffffffff1673ffffffffffffffffffffffffffffffffffffffff1663081812fc846040518263ffffffff1660e01b8152600401610fa691906126f2565b60206040518083038186803b158015610fbe57600080fd5b505afa158015610fd2573d6000803e3d6000fd5b505050506040513d601f19601f82011682018060405250810190610ff691906121b8565b73ffffffffffffffffffffffffffffffffffffffff1614806110c15750600160009054906101000a900473ffffffffffffffffffffffffffffffffffffffff1673ffffffffffffffffffffffffffffffffffffffff1663e985e9c582306040518363ffffffff1660e01b81526004016110709291906124de565b60206040518083038186803b15801561108857600080fd5b505afa15801561109c573d6000803e3d6000fd5b505050506040513d601f19601f820116820180604052508101906110c09190612284565b5b6040518060400160405280600681526020017f303033303033000000000000000000000000000000000000000000000000000081525090611138576040517f08c379a000000000000000000000000000000000000000000000000000000000815260040161112f91906125e0565b60405180910390fd5b50600160009054906101000a900473ffffffffffffffffffffffffffffffffffffffff1673ffffffffffffffffffffffffffffffffffffffff166342842e0e8233856040518463ffffffff1660e01b815260040161119893929190612507565b600060405180830381600087803b1580156111b257600080fd5b505af11580156111c6573d6000803e3d6000fd5b505050506112486040518060400160405280601981526020017f65746842616c616e63655b746f6b656e53656c6c65725d3a2000000000000000815250600560008473ffffffffffffffffffffffffffffffffffffffff1673ffffffffffffffffffffffffffffffffffffffff16815260200190815260200160002054611f5d565b6112896040518060400160405280601181526020017f636f6e747261637442616c616e63653a20000000000000000000000000000000815250600454611f5d565b6103e66103e83461129a9190612840565b6112a49190612871565b600560008373ffffffffffffffffffffffffffffffffffffffff1673ffffffffffffffffffffffffffffffffffffffff16815260200190815260200160002060008282546112f291906127ea565b9250508190555060026103e8346113099190612840565b6113139190612871565b6004600082825461132491906127ea565b9250508190555060006003600084815260200190815260200160002060006101000a81548160ff0219169083151502179055503373ffffffffffffffffffffffffffffffffffffffff167f02d08db2db312fc60b41a046c46a7772a6c2dcdca0c32a9d3423c6dcbde693e98334476040516113a193929190612736565b60405180910390a25050565b60056020528060005260406000206000915090505481565b6114176040518060400160405280601081526020017f70726963655b5f746f6b656e49645d20000000000000000000000000000000008152506002600085815260200190815260200160002054611f5d565b60006002600084815260200190815260200160002054141561143857600080fd5b600260008381526020019081526020016000205434101561148e576040517f08c379a0000000000000000000000000000000000000000000000000000000008152600401611485906126b2565b60405180910390fd5b600073ffffffffffffffffffffffffffffffffffffffff163373ffffffffffffffffffffffffffffffffffffffff16141580156114f757503073ffffffffffffffffffffffffffffffffffffffff163373ffffffffffffffffffffffffffffffffffffffff1614155b61150057600080fd5b346004600082825461151291906127ea565b92505081905550600160009054906101000a900473ffffffffffffffffffffffffffffffffffffffff1673ffffffffffffffffffffffffffffffffffffffff1663d3fc98648484846040518463ffffffff1660e01b81526004016115789392919061256c565b600060405180830381600087803b15801561159257600080fd5b505af11580156115a6573d6000803e3d6000fd5b505050506115e96040518060400160405280600a81526020017f6d73672e76616c7565200000000000000000000000000000000000000000000081525034611f5d565b6116486040518060400160405280601381526020017f666f7253616c655b5f746f6b656e49645d2020000000000000000000000000008152506003600085815260200190815260200160002060009054906101000a900460ff16611ff9565b8273ffffffffffffffffffffffffffffffffffffffff167f02d08db2db312fc60b41a046c46a7772a6c2dcdca0c32a9d3423c6dcbde693e983344760405161169293929190612736565b60405180910390a2505050565b600060026000838152602001908152602001600020549050919050565b60008111801561170b5750600560003373ffffffffffffffffffffffffffffffffffffffff1673ffffffffffffffffffffffffffffffffffffffff168152602001908152602001600020548111155b61171457600080fd5b3373ffffffffffffffffffffffffffffffffffffffff166108fc829081150290604051600060405180830381858888f1935050505015801561175a573d6000803e3d6000fd5b503373ffffffffffffffffffffffffffffffffffffffff167f6356739d963da01dc3533acba7203430fcc14f2175d48a8dd0973d7db49c785e82600560003373ffffffffffffffffffffffffffffffffffffffff1673ffffffffffffffffffffffffffffffffffffffff168152602001908152602001600020546040516117e292919061270d565b60405180910390a280600560003373ffffffffffffffffffffffffffffffffffffffff1673ffffffffffffffffffffffffffffffffffffffff168152602001908152602001600020600082825461183991906128cb565b9250508190555050565b6000600160009054906101000a900473ffffffffffffffffffffffffffffffffffffffff1673ffffffffffffffffffffffffffffffffffffffff16636352211e846040518263ffffffff1660e01b81526004016118a091906126f2565b60206040518083038186803b1580156118b857600080fd5b505afa9250505080156118e957506040513d601f19601f820116820180604052508101906118e691906121b8565b60015b6118f65760009050611995565b3373ffffffffffffffffffffffffffffffffffffffff168173ffffffffffffffffffffffffffffffffffffffff1614611964576040517f08c379a000000000000000000000000000000000000000000000000000000000815260040161195b906126d2565b60405180910390fd5b50816003600085815260200190815260200160002060006101000a81548160ff021916908315150217905550600190505b92915050565b60008054906101000a900473ffffffffffffffffffffffffffffffffffffffff1673ffffffffffffffffffffffffffffffffffffffff163373ffffffffffffffffffffffffffffffffffffffff1614611a29576040517f08c379a0000000000000000000000000000000000000000000000000000000008152600401611a2090612692565b60405180910390fd5b7f2d5a82cbc34270500c60b0532ca36cd4716c295bf0351b25835351664a3125bf60008054906101000a900473ffffffffffffffffffffffffffffffffffffffff16604051611a78919061253e565b60405180910390a1600073ffffffffffffffffffffffffffffffffffffffff168173ffffffffffffffffffffffffffffffffffffffff1614156040518060400160405280600681526020017f303138303032000000000000000000000000000000000000000000000000000081525090611b28576040517f08c379a0000000000000000000000000000000000000000000000000000000008152600401611b1f91906125e0565b60405180910390fd5b508073ffffffffffffffffffffffffffffffffffffffff1660008054906101000a900473ffffffffffffffffffffffffffffffffffffffff1673ffffffffffffffffffffffffffffffffffffffff167f8be0079c531659141344cd1fd0a4f28419497f9722a3daafe3b4186f6b6457e060405160405180910390a3806000806101000a81548173ffffffffffffffffffffffffffffffffffffffff021916908373ffffffffffffffffffffffffffffffffffffffff16021790555050565b6040518060400160405280600681526020017f303138303031000000000000000000000000000000000000000000000000000081525081565b6509184e72a0008211611c3157600080fd5b611c926040518060400160405280601781526020017f61646472657373284e4d5744636f6e7472616374293a20000000000000000000815250600160009054906101000a900473ffffffffffffffffffffffffffffffffffffffff16611ec1565b611cf16040518060400160405280600781526020017f6f776e65723a200000000000000000000000000000000000000000000000000081525060008054906101000a900473ffffffffffffffffffffffffffffffffffffffff16611ec1565b611d306040518060400160405280600c81526020017f6d73672e73656e6465723a20000000000000000000000000000000000000000081525033611ec1565b600160009054906101000a900473ffffffffffffffffffffffffffffffffffffffff1673ffffffffffffffffffffffffffffffffffffffff16636352211e826040518263ffffffff1660e01b8152600401611d8b91906126f2565b60206040518083038186803b158015611da357600080fd5b505afa925050508015611dd457506040513d601f19601f82011682018060405250810190611dd191906121b8565b60015b611e6b573373ffffffffffffffffffffffffffffffffffffffff1660008054906101000a900473ffffffffffffffffffffffffffffffffffffffff1673ffffffffffffffffffffffffffffffffffffffff1614611e66576040517f08c379a0000000000000000000000000000000000000000000000000000000008152600401611e5d90612692565b60405180910390fd5b611ea5565b3373ffffffffffffffffffffffffffffffffffffffff168173ffffffffffffffffffffffffffffffffffffffff1614611ea357600080fd5b505b8160026000838152602001908152602001600020819055505050565b611f598282604051602401611ed7929190612602565b6040516020818303038152906040527f319af333000000000000000000000000000000000000000000000000000000007bffffffffffffffffffffffffffffffffffffffffffffffffffffffff19166020820180517bffffffffffffffffffffffffffffffffffffffffffffffffffffffff8381831617835250505050612095565b5050565b611ff58282604051602401611f73929190612662565b6040516020818303038152906040527f9710a9d0000000000000000000000000000000000000000000000000000000007bffffffffffffffffffffffffffffffffffffffffffffffffffffffff19166020820180517bffffffffffffffffffffffffffffffffffffffffffffffffffffffff8381831617835250505050612095565b5050565b612091828260405160240161200f929190612632565b6040516020818303038152906040527fc3b55635000000000000000000000000000000000000000000000000000000007bffffffffffffffffffffffffffffffffffffffffffffffffffffffff19166020820180517bffffffffffffffffffffffffffffffffffffffffffffffffffffffff8381831617835250505050612095565b5050565b60008151905060006a636f6e736f6c652e6c6f679050602083016000808483855afa5050505050565b60006120d16120cc8461279e565b61276d565b9050828152602081018484840111156120e957600080fd5b6120f484828561296b565b509392505050565b60008135905061210b81612a4b565b92915050565b60008151905061212081612a4b565b92915050565b60008135905061213581612a62565b92915050565b60008151905061214a81612a62565b92915050565b600082601f83011261216157600080fd5b81356121718482602086016120be565b91505092915050565b60008135905061218981612a79565b92915050565b6000602082840312156121a157600080fd5b60006121af848285016120fc565b91505092915050565b6000602082840312156121ca57600080fd5b60006121d884828501612111565b91505092915050565b600080604083850312156121f457600080fd5b6000612202858286016120fc565b92505060206122138582860161217a565b9150509250929050565b60008060006060848603121561223257600080fd5b6000612240868287016120fc565b93505060206122518682870161217a565b925050604084013567ffffffffffffffff81111561226e57600080fd5b61227a86828701612150565b9150509250925092565b60006020828403121561229657600080fd5b60006122a48482850161213b565b91505092915050565b6000602082840312156122bf57600080fd5b60006122cd8482850161217a565b91505092915050565b600080604083850312156122e957600080fd5b60006122f78582860161217a565b925050602061230885828601612126565b9150509250929050565b6000806040838503121561232557600080fd5b60006123338582860161217a565b92505060206123448582860161217a565b9150509250929050565b612357816128ff565b82525050565b61236681612911565b82525050565b61237581612947565b82525050565b6000612386826127ce565b61239081856127d9565b93506123a081856020860161297a565b6123a981612a3a565b840191505092915050565b60006123c16009836127d9565b91507f4e6f74206f776e657200000000000000000000000000000000000000000000006000830152602082019050919050565b6000612401601c836127d9565b91507f706173736564206f776e65727368697020726571756972656d656e74000000006000830152602082019050919050565b60006124416010836127d9565b91507f4e6f7420656e6f756768204568746572000000000000000000000000000000006000830152602082019050919050565b6000612481600d836127d9565b91507f4e6f74204e4654206f776e6572000000000000000000000000000000000000006000830152602082019050919050565b6124bd8161293d565b82525050565b60006020820190506124d8600083018461234e565b92915050565b60006040820190506124f3600083018561234e565b612500602083018461234e565b9392505050565b600060608201905061251c600083018661234e565b612529602083018561234e565b61253660408301846124b4565b949350505050565b6000604082019050612553600083018461234e565b8181036020830152612564816123f4565b905092915050565b6000606082019050612581600083018661234e565b61258e60208301856124b4565b81810360408301526125a0818461237b565b9050949350505050565b60006020820190506125bf600083018461235d565b92915050565b60006020820190506125da600083018461236c565b92915050565b600060208201905081810360008301526125fa818461237b565b905092915050565b6000604082019050818103600083015261261c818561237b565b905061262b602083018461234e565b9392505050565b6000604082019050818103600083015261264c818561237b565b905061265b602083018461235d565b9392505050565b6000604082019050818103600083015261267c818561237b565b905061268b60208301846124b4565b9392505050565b600060208201905081810360008301526126ab816123b4565b9050919050565b600060208201905081810360008301526126cb81612434565b9050919050565b600060208201905081810360008301526126eb81612474565b9050919050565b600060208201905061270760008301846124b4565b92915050565b600060408201905061272260008301856124b4565b61272f60208301846124b4565b9392505050565b600060608201905061274b60008301866124b4565b61275860208301856124b4565b61276560408301846124b4565b949350505050565b6000604051905081810181811067ffffffffffffffff8211171561279457612793612a0b565b5b8060405250919050565b600067ffffffffffffffff8211156127b9576127b8612a0b565b5b601f19601f8301169050602081019050919050565b600081519050919050565b600082825260208201905092915050565b60006127f58261293d565b91506128008361293d565b9250827fffffffffffffffffffffffffffffffffffffffffffffffffffffffffffffffff03821115612835576128346129ad565b5b828201905092915050565b600061284b8261293d565b91506128568361293d565b925082612866576128656129dc565b5b828204905092915050565b600061287c8261293d565b91506128878361293d565b9250817fffffffffffffffffffffffffffffffffffffffffffffffffffffffffffffffff04831182151516156128c0576128bf6129ad565b5b828202905092915050565b60006128d68261293d565b91506128e18361293d565b9250828210156128f4576128f36129ad565b5b828203905092915050565b600061290a8261291d565b9050919050565b60008115159050919050565b600073ffffffffffffffffffffffffffffffffffffffff82169050919050565b6000819050919050565b600061295282612959565b9050919050565b60006129648261291d565b9050919050565b82818337600083830152505050565b60005b8381101561299857808201518184015260208101905061297d565b838111156129a7576000848401525b50505050565b7f4e487b7100000000000000000000000000000000000000000000000000000000600052601160045260246000fd5b7f4e487b7100000000000000000000000000000000000000000000000000000000600052601260045260246000fd5b7f4e487b7100000000000000000000000000000000000000000000000000000000600052604160045260246000fd5b6000601f19601f8301169050919050565b612a54816128ff565b8114612a5f57600080fd5b50565b612a6b81612911565b8114612a7657600080fd5b50565b612a828161293d565b8114612a8d57600080fd5b5056fea264697066735822122001675c2bd045b9ea7e238af199814a022caa4099d79ed238ffd2ca4d2f211f4c64736f6c63430008000033",
  "linkReferences": {},
  "deployedLinkReferences": {}
}