{
  "_format": "hh-sol-artifact-1",
  "contractName": "StopTheWarOnDrugs",
  "sourceName": "contracts/NMWD/StopTheWarOnDrugs.sol",
  "abi": [
    {
      "inputs": [
        {
          "internalType": "string",
          "name": "_name",
          "type": "string"
        },
        {
          "internalType": "string",
          "name": "_symbol",
          "type": "string"
        }
      ],
      "stateMutability": "nonpayable",
      "type": "constructor"
    },
    {
      "anonymous": false,
      "inputs": [
        {
          "indexed": true,
          "internalType": "address",
          "name": "_owner",
          "type": "address"
        },
        {
          "indexed": true,
          "internalType": "address",
          "name": "_approved",
          "type": "address"
        },
        {
          "indexed": true,
          "internalType": "uint256",
          "name": "_tokenId",
          "type": "uint256"
        }
      ],
      "name": "Approval",
      "type": "event"
    },
    {
      "anonymous": false,
      "inputs": [
        {
          "indexed": true,
          "internalType": "address",
          "name": "_owner",
          "type": "address"
        },
        {
          "indexed": true,
          "internalType": "address",
          "name": "_operator",
          "type": "address"
        },
        {
          "indexed": false,
          "internalType": "bool",
          "name": "_approved",
          "type": "bool"
        }
      ],
      "name": "ApprovalForAll",
      "type": "event"
    },
    {
      "anonymous": false,
      "inputs": [
        {
          "indexed": true,
          "internalType": "address",
          "name": "previousOwner",
          "type": "address"
        },
        {
          "indexed": true,
          "internalType": "address",
          "name": "newOwner",
          "type": "address"
        }
      ],
      "name": "OwnershipTransferred",
      "type": "event"
    },
    {
      "anonymous": false,
      "inputs": [
        {
          "indexed": true,
          "internalType": "address",
          "name": "_from",
          "type": "address"
        },
        {
          "indexed": true,
          "internalType": "address",
          "name": "_to",
          "type": "address"
        },
        {
          "indexed": true,
          "internalType": "uint256",
          "name": "_tokenId",
          "type": "uint256"
        }
      ],
      "name": "Transfer",
      "type": "event"
    },
    {
      "anonymous": false,
      "inputs": [
        {
          "indexed": false,
          "internalType": "address",
          "name": "deliveredTo",
          "type": "address"
        },
        {
          "indexed": false,
          "internalType": "string",
          "name": "msg",
          "type": "string"
        }
      ],
      "name": "_msg",
      "type": "event"
    },
    {
      "inputs": [],
      "name": "CANNOT_TRANSFER_TO_ZERO_ADDRESS",
      "outputs": [
        {
          "internalType": "string",
          "name": "",
          "type": "string"
        }
      ],
      "stateMutability": "view",
      "type": "function"
    },
    {
      "inputs": [],
      "name": "NOT_CURRENT_OWNER",
      "outputs": [
        {
          "internalType": "string",
          "name": "",
          "type": "string"
        }
      ],
      "stateMutability": "view",
      "type": "function"
    },
    {
      "inputs": [
        {
          "internalType": "address",
          "name": "_approved",
          "type": "address"
        },
        {
          "internalType": "uint256",
          "name": "_tokenId",
          "type": "uint256"
        }
      ],
      "name": "approve",
      "outputs": [],
      "stateMutability": "nonpayable",
      "type": "function"
    },
    {
      "inputs": [
        {
          "internalType": "address",
          "name": "_owner",
          "type": "address"
        }
      ],
      "name": "balanceOf",
      "outputs": [
        {
          "internalType": "uint256",
          "name": "",
          "type": "uint256"
        }
      ],
      "stateMutability": "view",
      "type": "function"
    },
    {
      "inputs": [
        {
          "internalType": "uint256",
          "name": "_tokenId",
          "type": "uint256"
        }
      ],
      "name": "burn",
      "outputs": [],
      "stateMutability": "nonpayable",
      "type": "function"
    },
    {
      "inputs": [
        {
          "internalType": "uint256",
          "name": "_tokenId",
          "type": "uint256"
        }
      ],
      "name": "exists",
      "outputs": [
        {
          "internalType": "bool",
          "name": "",
          "type": "bool"
        }
      ],
      "stateMutability": "view",
      "type": "function"
    },
    {
      "inputs": [
        {
          "internalType": "uint256",
          "name": "_tokenId",
          "type": "uint256"
        }
      ],
      "name": "getApproved",
      "outputs": [
        {
          "internalType": "address",
          "name": "",
          "type": "address"
        }
      ],
      "stateMutability": "view",
      "type": "function"
    },
    {
      "inputs": [
        {
          "internalType": "uint256",
          "name": "_tokenId",
          "type": "uint256"
        },
        {
          "internalType": "address",
          "name": "_address",
          "type": "address"
        }
      ],
      "name": "getCanTransfer",
      "outputs": [
        {
          "internalType": "bool",
          "name": "",
          "type": "bool"
        }
      ],
      "stateMutability": "view",
      "type": "function"
    },
    {
      "inputs": [
        {
          "internalType": "address",
          "name": "_address",
          "type": "address"
        }
      ],
      "name": "getNFTsByAddress",
      "outputs": [
        {
          "internalType": "uint256[]",
          "name": "",
          "type": "uint256[]"
        }
      ],
      "stateMutability": "view",
      "type": "function"
    },
    {
      "inputs": [],
      "name": "getOwner",
      "outputs": [
        {
          "internalType": "address",
          "name": "",
          "type": "address"
        }
      ],
      "stateMutability": "view",
      "type": "function"
    },
    {
      "inputs": [
        {
          "internalType": "address",
          "name": "_owner",
          "type": "address"
        }
      ],
      "name": "getOwnerNFTCount",
      "outputs": [
        {
          "internalType": "uint256",
          "name": "",
          "type": "uint256"
        }
      ],
      "stateMutability": "view",
      "type": "function"
    },
    {
      "inputs": [
        {
          "internalType": "address",
          "name": "_owner",
          "type": "address"
        },
        {
          "internalType": "address",
          "name": "_operator",
          "type": "address"
        }
      ],
      "name": "isApprovedForAll",
      "outputs": [
        {
          "internalType": "bool",
          "name": "",
          "type": "bool"
        }
      ],
      "stateMutability": "view",
      "type": "function"
    },
    {
      "inputs": [
        {
          "internalType": "address",
          "name": "_to",
          "type": "address"
        },
        {
          "internalType": "uint256",
          "name": "_tokenId",
          "type": "uint256"
        },
        {
          "internalType": "address",
          "name": "royaltyRecipient",
          "type": "address"
        },
        {
          "internalType": "uint256",
          "name": "royaltyValue",
          "type": "uint256"
        }
      ],
      "name": "mint",
      "outputs": [],
      "stateMutability": "nonpayable",
      "type": "function"
    },
    {
      "inputs": [],
      "name": "name",
      "outputs": [
        {
          "internalType": "string",
          "name": "_name",
          "type": "string"
        }
      ],
      "stateMutability": "view",
      "type": "function"
    },
    {
      "inputs": [],
      "name": "owner",
      "outputs": [
        {
          "internalType": "address",
          "name": "",
          "type": "address"
        }
      ],
      "stateMutability": "view",
      "type": "function"
    },
    {
      "inputs": [
        {
          "internalType": "uint256",
          "name": "_tokenId",
          "type": "uint256"
        }
      ],
      "name": "ownerOf",
      "outputs": [
        {
          "internalType": "address",
          "name": "_owner",
          "type": "address"
        }
      ],
      "stateMutability": "view",
      "type": "function"
    },
    {
      "inputs": [
        {
          "internalType": "uint256",
          "name": "_tokenId",
          "type": "uint256"
        },
        {
          "internalType": "uint256",
          "name": "_salePrice",
          "type": "uint256"
        }
      ],
      "name": "royaltyInfo",
      "outputs": [
        {
          "internalType": "address",
          "name": "receiver",
          "type": "address"
        },
        {
          "internalType": "uint256",
          "name": "royaltyAmount",
          "type": "uint256"
        }
      ],
      "stateMutability": "view",
      "type": "function"
    },
    {
      "inputs": [
        {
          "internalType": "address",
          "name": "_from",
          "type": "address"
        },
        {
          "internalType": "address",
          "name": "_to",
          "type": "address"
        },
        {
          "internalType": "uint256",
          "name": "_tokenId",
          "type": "uint256"
        }
      ],
      "name": "safeTransferFrom",
      "outputs": [],
      "stateMutability": "nonpayable",
      "type": "function"
    },
    {
      "inputs": [
        {
          "internalType": "address",
          "name": "_from",
          "type": "address"
        },
        {
          "internalType": "address",
          "name": "_to",
          "type": "address"
        },
        {
          "internalType": "uint256",
          "name": "_tokenId",
          "type": "uint256"
        },
        {
          "internalType": "bytes",
          "name": "_data",
          "type": "bytes"
        }
      ],
      "name": "safeTransferFrom",
      "outputs": [],
      "stateMutability": "nonpayable",
      "type": "function"
    },
    {
      "inputs": [
        {
          "internalType": "uint256",
          "name": "security_value",
          "type": "uint256"
        }
      ],
      "name": "seflDestruct",
      "outputs": [],
      "stateMutability": "nonpayable",
      "type": "function"
    },
    {
      "inputs": [
        {
          "internalType": "address",
          "name": "_operator",
          "type": "address"
        },
        {
          "internalType": "bool",
          "name": "_approved",
          "type": "bool"
        }
      ],
      "name": "setApprovalForAll",
      "outputs": [],
      "stateMutability": "nonpayable",
      "type": "function"
    },
    {
      "inputs": [
        {
          "internalType": "uint256",
          "name": "_tokenId",
          "type": "uint256"
        },
        {
          "internalType": "string",
          "name": "_msg",
          "type": "string"
        }
      ],
      "name": "setTokenMessage",
      "outputs": [],
      "stateMutability": "nonpayable",
      "type": "function"
    },
    {
      "inputs": [
        {
          "internalType": "bytes4",
          "name": "_interfaceID",
          "type": "bytes4"
        }
      ],
      "name": "supportsInterface",
      "outputs": [
        {
          "internalType": "bool",
          "name": "",
          "type": "bool"
        }
      ],
      "stateMutability": "view",
      "type": "function"
    },
    {
      "inputs": [],
      "name": "symbol",
      "outputs": [
        {
          "internalType": "string",
          "name": "_symbol",
          "type": "string"
        }
      ],
      "stateMutability": "view",
      "type": "function"
    },
    {
      "inputs": [
        {
          "internalType": "uint256",
          "name": "_index",
          "type": "uint256"
        }
      ],
      "name": "tokenByIndex",
      "outputs": [
        {
          "internalType": "uint256",
          "name": "",
          "type": "uint256"
        }
      ],
      "stateMutability": "view",
      "type": "function"
    },
    {
      "inputs": [
        {
          "internalType": "uint256",
          "name": "_tokenId",
          "type": "uint256"
        }
      ],
      "name": "tokenMessage",
      "outputs": [
        {
          "internalType": "string",
          "name": "",
          "type": "string"
        }
      ],
      "stateMutability": "view",
      "type": "function"
    },
    {
      "inputs": [
        {
          "internalType": "address",
          "name": "_owner",
          "type": "address"
        },
        {
          "internalType": "uint256",
          "name": "_index",
          "type": "uint256"
        }
      ],
      "name": "tokenOfOwnerByIndex",
      "outputs": [
        {
          "internalType": "uint256",
          "name": "",
          "type": "uint256"
        }
      ],
      "stateMutability": "view",
      "type": "function"
    },
    {
      "inputs": [
        {
          "internalType": "uint256",
          "name": "_tokenId",
          "type": "uint256"
        }
      ],
      "name": "tokenURI",
      "outputs": [
        {
          "internalType": "string",
          "name": "",
          "type": "string"
        }
      ],
      "stateMutability": "view",
      "type": "function"
    },
    {
      "inputs": [],
      "name": "totalSupply",
      "outputs": [
        {
          "internalType": "uint256",
          "name": "",
          "type": "uint256"
        }
      ],
      "stateMutability": "view",
      "type": "function"
    },
    {
      "inputs": [
        {
          "internalType": "address",
          "name": "_from",
          "type": "address"
        },
        {
          "internalType": "address",
          "name": "_to",
          "type": "address"
        },
        {
          "internalType": "uint256",
          "name": "_tokenId",
          "type": "uint256"
        }
      ],
      "name": "transferFrom",
      "outputs": [],
      "stateMutability": "nonpayable",
      "type": "function"
    },
    {
      "inputs": [
        {
          "internalType": "address",
          "name": "_newOwner",
          "type": "address"
        }
      ],
      "name": "transferOwnership",
      "outputs": [],
      "stateMutability": "nonpayable",
      "type": "function"
    },
    {
      "inputs": [
        {
          "internalType": "string",
          "name": "_msg",
          "type": "string"
        }
      ],
      "name": "validateMsg",
      "outputs": [
        {
          "internalType": "bool",
          "name": "",
          "type": "bool"
        }
      ],
      "stateMutability": "pure",
      "type": "function"
    }
  ],
  "bytecode": "0x60806040523480156200001157600080fd5b5060405162005526380380620055268339818101604052810190620000379190620003d6565b60016000806301ffc9a760e01b7bffffffffffffffffffffffffffffffffffffffffffffffffffffffff1916815260200190815260200160002060006101000a81548160ff02191690831515021790555060016000806380ac58cd60e01b7bffffffffffffffffffffffffffffffffffffffffffffffffffffffff1916815260200190815260200160002060006101000a81548160ff021916908315150217905550600160008063780e9d6360e01b7bffffffffffffffffffffffffffffffffffffffffffffffffffffffff1916815260200190815260200160002060006101000a81548160ff0219169083151502179055506001600080635b5e139f60e01b7bffffffffffffffffffffffffffffffffffffffffffffffffffffffff1916815260200190815260200160002060006101000a81548160ff0219169083151502179055506001600080632a55205a60e01b7bffffffffffffffffffffffffffffffffffffffffffffffffffffffff1916815260200190815260200160002060006101000a81548160ff021916908315150217905550620001dc6200021660201b60201c565b81600a9080519060200190620001f4929190620002b4565b5080600b90805190602001906200020d929190620002b4565b50505062000644565b33600160006101000a81548173ffffffffffffffffffffffffffffffffffffffff021916908373ffffffffffffffffffffffffffffffffffffffff1602179055507f2d5a82cbc34270500c60b0532ca36cd4716c295bf0351b25835351664a3125bf600160009054906101000a900473ffffffffffffffffffffffffffffffffffffffff16604051620002aa91906200049c565b60405180910390a1565b828054620002c290620005b0565b90600052602060002090601f016020900481019282620002e6576000855562000332565b82601f106200030157805160ff191683800117855562000332565b8280016001018555821562000332579182015b828111156200033157825182559160200191906001019062000314565b5b50905062000341919062000345565b5090565b5b808211156200036057600081600090555060010162000346565b5090565b60006200037b620003758462000502565b620004ce565b9050828152602081018484840111156200039457600080fd5b620003a18482856200057a565b509392505050565b600082601f830112620003bb57600080fd5b8151620003cd84826020860162000364565b91505092915050565b60008060408385031215620003ea57600080fd5b600083015167ffffffffffffffff8111156200040557600080fd5b6200041385828601620003a9565b925050602083015167ffffffffffffffff8111156200043157600080fd5b6200043f85828601620003a9565b9150509250929050565b620004548162000546565b82525050565b60006200046960098362000535565b91507f736574206f776e657200000000000000000000000000000000000000000000006000830152602082019050919050565b6000604082019050620004b3600083018462000449565b8181036020830152620004c6816200045a565b905092915050565b6000604051905081810181811067ffffffffffffffff82111715620004f857620004f762000615565b5b8060405250919050565b600067ffffffffffffffff82111562000520576200051f62000615565b5b601f19601f8301169050602081019050919050565b600082825260208201905092915050565b600062000553826200055a565b9050919050565b600073ffffffffffffffffffffffffffffffffffffffff82169050919050565b60005b838110156200059a5780820151818401526020810190506200057d565b83811115620005aa576000848401525b50505050565b60006002820490506001821680620005c957607f821691505b60208210811415620005e057620005df620005e6565b5b50919050565b7f4e487b7100000000000000000000000000000000000000000000000000000000600052602260045260246000fd5b7f4e487b7100000000000000000000000000000000000000000000000000000000600052604160045260246000fd5b614ed280620006546000396000f3fe608060405234801561001057600080fd5b50600436106101f05760003560e01c80637ff0bf071161010f578063bd7f4c8d116100a2578063e985e9c511610071578063e985e9c514610616578063f2fde38b14610646578063f3fe3bc314610662578063ffd913fe14610680576101f0565b8063bd7f4c8d1461056a578063c2af674f1461059a578063c87b56dd146105b6578063e4b7baeb146105e6576101f0565b80638da5cb5b116100de5780638da5cb5b146104f657806395d89b4114610514578063a22cb46514610532578063b88d4fde1461054e576101f0565b80637ff0bf071461046e578063860d248a1461048a578063893d20e8146104a8578063894b5b3c146104c6576101f0565b80632f745c59116101875780634f558e79116101565780634f558e79146103ae5780634f6ccce7146103de5780636352211e1461040e57806370a082311461043e576101f0565b80632f745c591461032a5780633c173a4f1461035a57806342842e0e1461037657806342966c6814610392576101f0565b806318160ddd116101c357806318160ddd1461028f5780631dadae8e146102ad57806323b872dd146102dd5780632a55205a146102f9576101f0565b806301ffc9a7146101f557806306fdde0314610225578063081812fc14610243578063095ea7b314610273575b600080fd5b61020f600480360381019061020a9190614529565b6106b0565b60405161021c91906149ca565b60405180910390f35b61022d610717565b60405161023a91906149e5565b60405180910390f35b61025d600480360381019061025891906145bc565b6107a9565b60405161026a91906148ea565b60405180910390f35b61028d6004803603810190610288919061448a565b6108c4565b005b610297610cae565b6040516102a49190614a47565b60405180910390f35b6102c760048036038101906102c2919061431a565b610cbb565b6040516102d491906149a8565b60405180910390f35b6102f760048036038101906102f2919061437f565b610d52565b005b610313600480360381019061030e9190614675565b6111b2565b60405161032192919061497f565b60405180910390f35b610344600480360381019061033f919061448a565b611265565b6040516103519190614a47565b60405180910390f35b610374600480360381019061036f91906144c6565b6113ae565b005b610390600480360381019061038b919061437f565b61165a565b005b6103ac60048036038101906103a791906145bc565b61167a565b005b6103c860048036038101906103c391906145bc565b6117b2565b6040516103d591906149ca565b60405180910390f35b6103f860048036038101906103f391906145bc565b61182e565b6040516104059190614a47565b60405180910390f35b610428600480360381019061042391906145bc565b6118fc565b60405161043591906148ea565b60405180910390f35b6104586004803603810190610453919061431a565b6119e2565b6040516104659190614a47565b60405180910390f35b610488600480360381019061048391906145bc565b611a9c565b005b610492611bcf565b60405161049f91906149e5565b60405180910390f35b6104b0611c08565b6040516104bd91906148ea565b60405180910390f35b6104e060048036038101906104db919061457b565b611c32565b6040516104ed91906149ca565b60405180910390f35b6104fe611c6c565b60405161050b91906148ea565b60405180910390f35b61051c611c92565b60405161052991906149e5565b60405180910390f35b61054c6004803603810190610547919061444e565b611d24565b005b610568600480360381019061056391906143ce565b611e21565b005b610584600480360381019061057f919061431a565b611e78565b6040516105919190614a47565b60405180910390f35b6105b460048036038101906105af9190614621565b611e8a565b005b6105d060048036038101906105cb91906145bc565b61219d565b6040516105dd91906149e5565b60405180910390f35b61060060048036038101906105fb91906145bc565b612320565b60405161060d91906149e5565b60405180910390f35b610630600480360381019061062b9190614343565b6124a3565b60405161063d91906149ca565b60405180910390f35b610660600480360381019061065b919061431a565b612537565b005b61066a612789565b60405161067791906149e5565b60405180910390f35b61069a600480360381019061069591906145e5565b6127c2565b6040516106a791906149ca565b60405180910390f35b6000806000837bffffffffffffffffffffffffffffffffffffffffffffffffffffffff19167bffffffffffffffffffffffffffffffffffffffffffffffffffffffff1916815260200190815260200160002060009054906101000a900460ff169050919050565b6060600a805461072690614cf8565b80601f016020809104026020016040519081016040528092919081815260200182805461075290614cf8565b801561079f5780601f106107745761010080835404028352916020019161079f565b820191906000526020600020905b81548152906001019060200180831161078257829003601f168201915b5050505050905090565b600081600073ffffffffffffffffffffffffffffffffffffffff166002600083815260200190815260200160002060009054906101000a900473ffffffffffffffffffffffffffffffffffffffff1673ffffffffffffffffffffffffffffffffffffffff1614156040518060400160405280600481526020017f303330320000000000000000000000000000000000000000000000000000000081525090610887576040517f08c379a000000000000000000000000000000000000000000000000000000000815260040161087e91906149e5565b60405180910390fd5b506003600084815260200190815260200160002060009054906101000a900473ffffffffffffffffffffffffffffffffffffffff16915050919050565b8060006002600083815260200190815260200160002060009054906101000a900473ffffffffffffffffffffffffffffffffffffffff16905061090561293f565b73ffffffffffffffffffffffffffffffffffffffff168173ffffffffffffffffffffffffffffffffffffffff1614806109c45750600560008273ffffffffffffffffffffffffffffffffffffffff1673ffffffffffffffffffffffffffffffffffffffff16815260200190815260200160002060003373ffffffffffffffffffffffffffffffffffffffff1673ffffffffffffffffffffffffffffffffffffffff16815260200190815260200160002060009054906101000a900460ff165b6040518060400160405280600481526020017f303330330000000000000000000000000000000000000000000000000000000081525090610a3b576040517f08c379a0000000000000000000000000000000000000000000000000000000008152600401610a3291906149e5565b60405180910390fd5b5082600073ffffffffffffffffffffffffffffffffffffffff166002600083815260200190815260200160002060009054906101000a900473ffffffffffffffffffffffffffffffffffffffff1673ffffffffffffffffffffffffffffffffffffffff1614156040518060400160405280600481526020017f303330320000000000000000000000000000000000000000000000000000000081525090610b18576040517f08c379a0000000000000000000000000000000000000000000000000000000008152600401610b0f91906149e5565b60405180910390fd5b5060006002600086815260200190815260200160002060009054906101000a900473ffffffffffffffffffffffffffffffffffffffff1690508073ffffffffffffffffffffffffffffffffffffffff168673ffffffffffffffffffffffffffffffffffffffff1614156040518060400160405280600481526020017f303330380000000000000000000000000000000000000000000000000000000081525090610bf8576040517f08c379a0000000000000000000000000000000000000000000000000000000008152600401610bef91906149e5565b60405180910390fd5b50856003600087815260200190815260200160002060006101000a81548173ffffffffffffffffffffffffffffffffffffffff021916908373ffffffffffffffffffffffffffffffffffffffff160217905550848673ffffffffffffffffffffffffffffffffffffffff168273ffffffffffffffffffffffffffffffffffffffff167f8c5be1e5ebec7d5bd14f71427d1e84f3dd0314c0f7b2291e5b200ac8c7c3b92560405160405180910390a4505050505050565b6000600680549050905090565b6060600860008373ffffffffffffffffffffffffffffffffffffffff1673ffffffffffffffffffffffffffffffffffffffff168152602001908152602001600020805480602002602001604051908101604052809291908181526020018280548015610d4657602002820191906000526020600020905b815481526020019060010190808311610d32575b50505050509050919050565b8060006002600083815260200190815260200160002060009054906101000a900473ffffffffffffffffffffffffffffffffffffffff169050610d9361293f565b73ffffffffffffffffffffffffffffffffffffffff168173ffffffffffffffffffffffffffffffffffffffff161480610e315750610dcf61293f565b73ffffffffffffffffffffffffffffffffffffffff166003600084815260200190815260200160002060009054906101000a900473ffffffffffffffffffffffffffffffffffffffff1673ffffffffffffffffffffffffffffffffffffffff16145b80610ec25750600560008273ffffffffffffffffffffffffffffffffffffffff1673ffffffffffffffffffffffffffffffffffffffff16815260200190815260200160002060003373ffffffffffffffffffffffffffffffffffffffff1673ffffffffffffffffffffffffffffffffffffffff16815260200190815260200160002060009054906101000a900460ff165b6040518060400160405280600481526020017f303330340000000000000000000000000000000000000000000000000000000081525090610f39576040517f08c379a0000000000000000000000000000000000000000000000000000000008152600401610f3091906149e5565b60405180910390fd5b5082600073ffffffffffffffffffffffffffffffffffffffff166002600083815260200190815260200160002060009054906101000a900473ffffffffffffffffffffffffffffffffffffffff1673ffffffffffffffffffffffffffffffffffffffff1614156040518060400160405280600481526020017f303330320000000000000000000000000000000000000000000000000000000081525090611016576040517f08c379a000000000000000000000000000000000000000000000000000000000815260040161100d91906149e5565b60405180910390fd5b5060006002600086815260200190815260200160002060009054906101000a900473ffffffffffffffffffffffffffffffffffffffff1690508673ffffffffffffffffffffffffffffffffffffffff168173ffffffffffffffffffffffffffffffffffffffff16146040518060400160405280600481526020017f3033303700000000000000000000000000000000000000000000000000000000815250906110f5576040517f08c379a00000000000000000000000000000000000000000000000000000000081526004016110ec91906149e5565b60405180910390fd5b50600073ffffffffffffffffffffffffffffffffffffffff168673ffffffffffffffffffffffffffffffffffffffff1614156040518060400160405280600481526020017f30333031000000000000000000000000000000000000000000000000000000008152509061119e576040517f08c379a000000000000000000000000000000000000000000000000000000000815260040161119591906149e5565b60405180910390fd5b506111a98686612947565b50505050505050565b6000806000600d60008681526020019081526020016000206040518060400160405290816000820160009054906101000a900473ffffffffffffffffffffffffffffffffffffffff1673ffffffffffffffffffffffffffffffffffffffff1673ffffffffffffffffffffffffffffffffffffffff1681526020016001820154815250509050806000015161271082602001518661124f9190614ba7565b6112599190614b76565b92509250509250929050565b6000600860008473ffffffffffffffffffffffffffffffffffffffff1673ffffffffffffffffffffffffffffffffffffffff1681526020019081526020016000208054905082106040518060400160405280600481526020017f303230310000000000000000000000000000000000000000000000000000000081525090611323576040517f08c379a000000000000000000000000000000000000000000000000000000000815260040161131a91906149e5565b60405180910390fd5b50600860008473ffffffffffffffffffffffffffffffffffffffff1673ffffffffffffffffffffffffffffffffffffffff168152602001908152602001600020828154811061139b577f4e487b7100000000000000000000000000000000000000000000000000000000600052603260045260246000fd5b9060005260206000200154905092915050565b600160009054906101000a900473ffffffffffffffffffffffffffffffffffffffff1673ffffffffffffffffffffffffffffffffffffffff163373ffffffffffffffffffffffffffffffffffffffff161461143e576040517f08c379a000000000000000000000000000000000000000000000000000000000815260040161143590614a27565b60405180910390fd5b7f2d5a82cbc34270500c60b0532ca36cd4716c295bf0351b25835351664a3125bf600160009054906101000a900473ffffffffffffffffffffffffffffffffffffffff1660405161148f9190614951565b60405180910390a16114a18484612b64565b60006114ac84612bf8565b905080600c600086815260200190815260200160002090805190602001906114d592919061411c565b5060008211156114eb576114ea848484612c72565b5b600560008673ffffffffffffffffffffffffffffffffffffffff1673ffffffffffffffffffffffffffffffffffffffff1681526020019081526020016000206000600160009054906101000a900473ffffffffffffffffffffffffffffffffffffffff1673ffffffffffffffffffffffffffffffffffffffff1673ffffffffffffffffffffffffffffffffffffffff16815260200190815260200160002060009054906101000a900460ff16611653576001600560008773ffffffffffffffffffffffffffffffffffffffff1673ffffffffffffffffffffffffffffffffffffffff1681526020019081526020016000206000600160009054906101000a900473ffffffffffffffffffffffffffffffffffffffff1673ffffffffffffffffffffffffffffffffffffffff1673ffffffffffffffffffffffffffffffffffffffff16815260200190815260200160002060006101000a81548160ff0219169083151502179055505b5050505050565b61167583838360405180602001604052806000815250612d4e565b505050565b600160009054906101000a900473ffffffffffffffffffffffffffffffffffffffff1673ffffffffffffffffffffffffffffffffffffffff163373ffffffffffffffffffffffffffffffffffffffff161461170a576040517f08c379a000000000000000000000000000000000000000000000000000000000815260040161170190614a27565b60405180910390fd5b7f2d5a82cbc34270500c60b0532ca36cd4716c295bf0351b25835351664a3125bf600160009054906101000a900473ffffffffffffffffffffffffffffffffffffffff1660405161175b9190614951565b60405180910390a160405180602001604052806000815250600c6000838152602001908152602001600020908051906020019061179992919061411c565b506117a681600080612c72565b6117af8161332a565b50565b60008073ffffffffffffffffffffffffffffffffffffffff166002600084815260200190815260200160002060009054906101000a900473ffffffffffffffffffffffffffffffffffffffff1673ffffffffffffffffffffffffffffffffffffffff1614156118245760009050611829565b600190505b919050565b600060068054905082106040518060400160405280600481526020017f3032303100000000000000000000000000000000000000000000000000000000815250906118af576040517f08c379a00000000000000000000000000000000000000000000000000000000081526004016118a691906149e5565b60405180910390fd5b50600682815481106118ea577f4e487b7100000000000000000000000000000000000000000000000000000000600052603260045260246000fd5b90600052602060002001549050919050565b60006002600083815260200190815260200160002060009054906101000a900473ffffffffffffffffffffffffffffffffffffffff169050600073ffffffffffffffffffffffffffffffffffffffff168173ffffffffffffffffffffffffffffffffffffffff1614156040518060400160405280600481526020017f3033303200000000000000000000000000000000000000000000000000000000815250906119dc576040517f08c379a00000000000000000000000000000000000000000000000000000000081526004016119d391906149e5565b60405180910390fd5b50919050565b60008073ffffffffffffffffffffffffffffffffffffffff168273ffffffffffffffffffffffffffffffffffffffff1614156040518060400160405280600481526020017f303330310000000000000000000000000000000000000000000000000000000081525090611a8b576040517f08c379a0000000000000000000000000000000000000000000000000000000008152600401611a8291906149e5565b60405180910390fd5b50611a9582613336565b9050919050565b600160009054906101000a900473ffffffffffffffffffffffffffffffffffffffff1673ffffffffffffffffffffffffffffffffffffffff163373ffffffffffffffffffffffffffffffffffffffff1614611b2c576040517f08c379a0000000000000000000000000000000000000000000000000000000008152600401611b2390614a27565b60405180910390fd5b7f2d5a82cbc34270500c60b0532ca36cd4716c295bf0351b25835351664a3125bf600160009054906101000a900473ffffffffffffffffffffffffffffffffffffffff16604051611b7d9190614951565b60405180910390a16202f1458114611b9457600080fd5b600160009054906101000a900473ffffffffffffffffffffffffffffffffffffffff1673ffffffffffffffffffffffffffffffffffffffff16ff5b6040518060400160405280600481526020017f303130320000000000000000000000000000000000000000000000000000000081525081565b6000600160009054906101000a900473ffffffffffffffffffffffffffffffffffffffff16905090565b600080829050600181511015611c4c576000915050611c67565b61012c81511115611c61576000915050611c67565b60019150505b919050565b600160009054906101000a900473ffffffffffffffffffffffffffffffffffffffff1681565b6060600b8054611ca190614cf8565b80601f0160208091040260200160405190810160405280929190818152602001828054611ccd90614cf8565b8015611d1a5780601f10611cef57610100808354040283529160200191611d1a565b820191906000526020600020905b815481529060010190602001808311611cfd57829003601f168201915b5050505050905090565b80600560003373ffffffffffffffffffffffffffffffffffffffff1673ffffffffffffffffffffffffffffffffffffffff16815260200190815260200160002060008473ffffffffffffffffffffffffffffffffffffffff1673ffffffffffffffffffffffffffffffffffffffff16815260200190815260200160002060006101000a81548160ff0219169083151502179055508173ffffffffffffffffffffffffffffffffffffffff163373ffffffffffffffffffffffffffffffffffffffff167f17307eab39ab6107e8899845ad3d59bd9653f200f220920489ca2b5937696c3183604051611e1591906149ca565b60405180910390a35050565b611e7185858585858080601f016020809104026020016040519081016040528093929190818152602001838380828437600081840152601f19601f82011690508083019250505050505050612d4e565b5050505050565b6000611e8382613336565b9050919050565b81600073ffffffffffffffffffffffffffffffffffffffff166002600083815260200190815260200160002060009054906101000a900473ffffffffffffffffffffffffffffffffffffffff1673ffffffffffffffffffffffffffffffffffffffff1614156040518060400160405280600481526020017f303330320000000000000000000000000000000000000000000000000000000081525090611f66576040517f08c379a0000000000000000000000000000000000000000000000000000000008152600401611f5d91906149e5565b60405180910390fd5b5060006002600085815260200190815260200160002060009054906101000a900473ffffffffffffffffffffffffffffffffffffffff1690508073ffffffffffffffffffffffffffffffffffffffff16611fbe61293f565b73ffffffffffffffffffffffffffffffffffffffff16146040518060400160405280600481526020017f30333037000000000000000000000000000000000000000000000000000000008152509061204c576040517f08c379a000000000000000000000000000000000000000000000000000000000815260040161204391906149e5565b60405180910390fd5b506000600e6000868152602001908152602001600020805461206d90614cf8565b9050146040518060400160405280600481526020017f3034303200000000000000000000000000000000000000000000000000000000815250906120e7576040517f08c379a00000000000000000000000000000000000000000000000000000000081526004016120de91906149e5565b60405180910390fd5b5060006120f384611c32565b9050806040518060400160405280600481526020017f30343033000000000000000000000000000000000000000000000000000000008152509061216d576040517f08c379a000000000000000000000000000000000000000000000000000000000815260040161216491906149e5565b60405180910390fd5b5083600e6000878152602001908152602001600020908051906020019061219592919061411c565b505050505050565b606081600073ffffffffffffffffffffffffffffffffffffffff166002600083815260200190815260200160002060009054906101000a900473ffffffffffffffffffffffffffffffffffffffff1673ffffffffffffffffffffffffffffffffffffffff1614156040518060400160405280600481526020017f30333032000000000000000000000000000000000000000000000000000000008152509061227b576040517f08c379a000000000000000000000000000000000000000000000000000000000815260040161227291906149e5565b60405180910390fd5b50600c6000848152602001908152602001600020805461229a90614cf8565b80601f01602080910402602001604051908101604052809291908181526020018280546122c690614cf8565b80156123135780601f106122e857610100808354040283529160200191612313565b820191906000526020600020905b8154815290600101906020018083116122f657829003601f168201915b5050505050915050919050565b606081600073ffffffffffffffffffffffffffffffffffffffff166002600083815260200190815260200160002060009054906101000a900473ffffffffffffffffffffffffffffffffffffffff1673ffffffffffffffffffffffffffffffffffffffff1614156040518060400160405280600481526020017f3033303200000000000000000000000000000000000000000000000000000000815250906123fe576040517f08c379a00000000000000000000000000000000000000000000000000000000081526004016123f591906149e5565b60405180910390fd5b50600e6000848152602001908152602001600020805461241d90614cf8565b80601f016020809104026020016040519081016040528092919081815260200182805461244990614cf8565b80156124965780601f1061246b57610100808354040283529160200191612496565b820191906000526020600020905b81548152906001019060200180831161247957829003601f168201915b5050505050915050919050565b6000600560008473ffffffffffffffffffffffffffffffffffffffff1673ffffffffffffffffffffffffffffffffffffffff16815260200190815260200160002060008373ffffffffffffffffffffffffffffffffffffffff1673ffffffffffffffffffffffffffffffffffffffff16815260200190815260200160002060009054906101000a900460ff16905092915050565b600160009054906101000a900473ffffffffffffffffffffffffffffffffffffffff1673ffffffffffffffffffffffffffffffffffffffff163373ffffffffffffffffffffffffffffffffffffffff16146125c7576040517f08c379a00000000000000000000000000000000000000000000000000000000081526004016125be90614a27565b60405180910390fd5b7f2d5a82cbc34270500c60b0532ca36cd4716c295bf0351b25835351664a3125bf600160009054906101000a900473ffffffffffffffffffffffffffffffffffffffff166040516126189190614951565b60405180910390a1600073ffffffffffffffffffffffffffffffffffffffff168173ffffffffffffffffffffffffffffffffffffffff1614156040518060400160405280600481526020017f3031303200000000000000000000000000000000000000000000000000000000815250906126c8576040517f08c379a00000000000000000000000000000000000000000000000000000000081526004016126bf91906149e5565b60405180910390fd5b508073ffffffffffffffffffffffffffffffffffffffff16600160009054906101000a900473ffffffffffffffffffffffffffffffffffffffff1673ffffffffffffffffffffffffffffffffffffffff167f8be0079c531659141344cd1fd0a4f28419497f9722a3daafe3b4186f6b6457e060405160405180910390a380600160006101000a81548173ffffffffffffffffffffffffffffffffffffffff021916908373ffffffffffffffffffffffffffffffffffffffff16021790555050565b6040518060400160405280600481526020017f303130310000000000000000000000000000000000000000000000000000000081525081565b6000806002600085815260200190815260200160002060009054906101000a900473ffffffffffffffffffffffffffffffffffffffff1690508273ffffffffffffffffffffffffffffffffffffffff168173ffffffffffffffffffffffffffffffffffffffff16148061289357508273ffffffffffffffffffffffffffffffffffffffff166003600086815260200190815260200160002060009054906101000a900473ffffffffffffffffffffffffffffffffffffffff1673ffffffffffffffffffffffffffffffffffffffff16145b806129245750600560008273ffffffffffffffffffffffffffffffffffffffff1673ffffffffffffffffffffffffffffffffffffffff16815260200190815260200160002060008473ffffffffffffffffffffffffffffffffffffffff1673ffffffffffffffffffffffffffffffffffffffff16815260200190815260200160002060009054906101000a900460ff165b15612933576001915050612939565b60009150505b92915050565b600033905090565b60006002600083815260200190815260200160002060009054906101000a900473ffffffffffffffffffffffffffffffffffffffff16905061298882613348565b61299281836133e9565b61299c83836133f7565b600560008473ffffffffffffffffffffffffffffffffffffffff1673ffffffffffffffffffffffffffffffffffffffff1681526020019081526020016000206000600160009054906101000a900473ffffffffffffffffffffffffffffffffffffffff1673ffffffffffffffffffffffffffffffffffffffff1673ffffffffffffffffffffffffffffffffffffffff16815260200190815260200160002060009054906101000a900460ff16612b04576001600560008573ffffffffffffffffffffffffffffffffffffffff1673ffffffffffffffffffffffffffffffffffffffff1681526020019081526020016000206000600160009054906101000a900473ffffffffffffffffffffffffffffffffffffffff1673ffffffffffffffffffffffffffffffffffffffff1673ffffffffffffffffffffffffffffffffffffffff16815260200190815260200160002060006101000a81548160ff0219169083151502179055505b818373ffffffffffffffffffffffffffffffffffffffff168273ffffffffffffffffffffffffffffffffffffffff167fddf252ad1be2c89b69c2b068fc378daa952ba7f163c4a11628f55a4df523b3ef60405160405180910390a4505050565b61038861ffff16600680549050106040518060400160405280600481526020017f303430310000000000000000000000000000000000000000000000000000000081525090612be9576040517f08c379a0000000000000000000000000000000000000000000000000000000008152600401612be091906149e5565b60405180910390fd5b50612bf48282613405565b5050565b60606000612c0583613465565b905060006040518060400160405280601081526020017f697066733a2f2f46303137303132323000000000000000000000000000000000815250905060008183604051602001612c569291906148c6565b6040516020818303038152906040529050809350505050919050565b612710811115612cb7576040517f08c379a0000000000000000000000000000000000000000000000000000000008152600401612cae90614a07565b60405180910390fd5b60405180604001604052808373ffffffffffffffffffffffffffffffffffffffff16815260200182815250600d600085815260200190815260200160002060008201518160000160006101000a81548173ffffffffffffffffffffffffffffffffffffffff021916908373ffffffffffffffffffffffffffffffffffffffff16021790555060208201518160010155905050505050565b8160006002600083815260200190815260200160002060009054906101000a900473ffffffffffffffffffffffffffffffffffffffff169050612d8f61293f565b73ffffffffffffffffffffffffffffffffffffffff168173ffffffffffffffffffffffffffffffffffffffff161480612e2d5750612dcb61293f565b73ffffffffffffffffffffffffffffffffffffffff166003600084815260200190815260200160002060009054906101000a900473ffffffffffffffffffffffffffffffffffffffff1673ffffffffffffffffffffffffffffffffffffffff16145b80612ebe5750600560008273ffffffffffffffffffffffffffffffffffffffff1673ffffffffffffffffffffffffffffffffffffffff16815260200190815260200160002060003373ffffffffffffffffffffffffffffffffffffffff1673ffffffffffffffffffffffffffffffffffffffff16815260200190815260200160002060009054906101000a900460ff165b6040518060400160405280600481526020017f303330340000000000000000000000000000000000000000000000000000000081525090612f35576040517f08c379a0000000000000000000000000000000000000000000000000000000008152600401612f2c91906149e5565b60405180910390fd5b5083600073ffffffffffffffffffffffffffffffffffffffff166002600083815260200190815260200160002060009054906101000a900473ffffffffffffffffffffffffffffffffffffffff1673ffffffffffffffffffffffffffffffffffffffff1614156040518060400160405280600481526020017f303330320000000000000000000000000000000000000000000000000000000081525090613012576040517f08c379a000000000000000000000000000000000000000000000000000000000815260040161300991906149e5565b60405180910390fd5b5060006002600087815260200190815260200160002060009054906101000a900473ffffffffffffffffffffffffffffffffffffffff1690508773ffffffffffffffffffffffffffffffffffffffff168173ffffffffffffffffffffffffffffffffffffffff16146040518060400160405280600481526020017f3033303700000000000000000000000000000000000000000000000000000000815250906130f1576040517f08c379a00000000000000000000000000000000000000000000000000000000081526004016130e891906149e5565b60405180910390fd5b50600073ffffffffffffffffffffffffffffffffffffffff168773ffffffffffffffffffffffffffffffffffffffff1614156040518060400160405280600481526020017f30333031000000000000000000000000000000000000000000000000000000008152509061319a576040517f08c379a000000000000000000000000000000000000000000000000000000000815260040161319191906149e5565b60405180910390fd5b506131a58787612947565b6131c48773ffffffffffffffffffffffffffffffffffffffff16613637565b156133205760008773ffffffffffffffffffffffffffffffffffffffff1663150b7a02338b8a8a6040518563ffffffff1660e01b815260040161320a9493929190614905565b602060405180830381600087803b15801561322457600080fd5b505af1158015613238573d6000803e3d6000fd5b505050506040513d601f19601f8201168201806040525081019061325c9190614552565b905063150b7a0260e01b7bffffffffffffffffffffffffffffffffffffffffffffffffffffffff1916817bffffffffffffffffffffffffffffffffffffffffffffffffffffffff1916146040518060400160405280600481526020017f30333035000000000000000000000000000000000000000000000000000000008152509061331d576040517f08c379a000000000000000000000000000000000000000000000000000000000815260040161331491906149e5565b60405180910390fd5b50505b5050505050505050565b61333381613682565b50565b6000613341826136d5565b9050919050565b600073ffffffffffffffffffffffffffffffffffffffff166003600083815260200190815260200160002060009054906101000a900473ffffffffffffffffffffffffffffffffffffffff1673ffffffffffffffffffffffffffffffffffffffff16146133e6576003600082815260200190815260200160002060006101000a81549073ffffffffffffffffffffffffffffffffffffffff02191690555b50565b6133f38282613721565b5050565b6134018282613a5a565b5050565b61340f8282613c57565b6006819080600181540180825580915050600190039060005260206000200160009091909190915055600160068054905061344a9190614c01565b60076000838152602001908152602001600020819055505050565b606060008214156040518060400160405280600481526020017f3034303400000000000000000000000000000000000000000000000000000000815250906134e3576040517f08c379a00000000000000000000000000000000000000000000000000000000081526004016134da91906149e5565b60405180910390fd5b506000604067ffffffffffffffff811115613527577f4e487b7100000000000000000000000000000000000000000000000000000000600052604160045260246000fd5b6040519080825280601f01601f1916602001820160405280156135595781602001600182028036833780820191505090505b50905060005b604081101561362d576000600f851690506009811161358d578060306135859190614b3f565b60f81b61359e565b80603761359a9190614b3f565b60f81b5b8383603f6135ac9190614c01565b815181106135e3577f4e487b7100000000000000000000000000000000000000000000000000000000600052603260045260246000fd5b60200101907effffffffffffffffffffffffffffffffffffffffffffffffffffffffffffff1916908160001a905350600485901c945050808061362590614d2a565b91505061355f565b5080915050919050565b60008060007fc5d2460186f7233c927e7db2dcc703c0e500b653ca82273b7bfad8045d85a47060001b9050833f91506000801b82141580156136795750808214155b92505050919050565b61368b81613e45565b6000600c600083815260200190815260200160002080546136ab90614cf8565b9050146136d257600c600082815260200190815260200160002060006136d191906141a2565b5b50565b6000600860008373ffffffffffffffffffffffffffffffffffffffff1673ffffffffffffffffffffffffffffffffffffffff168152602001908152602001600020805490509050919050565b8173ffffffffffffffffffffffffffffffffffffffff166002600083815260200190815260200160002060009054906101000a900473ffffffffffffffffffffffffffffffffffffffff1673ffffffffffffffffffffffffffffffffffffffff16146040518060400160405280600481526020017f3033303700000000000000000000000000000000000000000000000000000000815250906137fa576040517f08c379a00000000000000000000000000000000000000000000000000000000081526004016137f191906149e5565b60405180910390fd5b506002600082815260200190815260200160002060006101000a81549073ffffffffffffffffffffffffffffffffffffffff021916905560006009600083815260200190815260200160002054905060006001600860008673ffffffffffffffffffffffffffffffffffffffff1673ffffffffffffffffffffffffffffffffffffffff1681526020019081526020016000208054905061389a9190614c01565b90508181146139c9576000600860008673ffffffffffffffffffffffffffffffffffffffff1673ffffffffffffffffffffffffffffffffffffffff168152602001908152602001600020828154811061391c577f4e487b7100000000000000000000000000000000000000000000000000000000600052603260045260246000fd5b9060005260206000200154905080600860008773ffffffffffffffffffffffffffffffffffffffff1673ffffffffffffffffffffffffffffffffffffffff16815260200190815260200160002084815481106139a1577f4e487b7100000000000000000000000000000000000000000000000000000000600052603260045260246000fd5b9060005260206000200181905550826009600083815260200190815260200160002081905550505b600860008573ffffffffffffffffffffffffffffffffffffffff1673ffffffffffffffffffffffffffffffffffffffff168152602001908152602001600020805480613a3e577f4e487b7100000000000000000000000000000000000000000000000000000000600052603160045260246000fd5b6001900381819060005260206000200160009055905550505050565b600073ffffffffffffffffffffffffffffffffffffffff166002600083815260200190815260200160002060009054906101000a900473ffffffffffffffffffffffffffffffffffffffff1673ffffffffffffffffffffffffffffffffffffffff16146040518060400160405280600481526020017f303330360000000000000000000000000000000000000000000000000000000081525090613b34576040517f08c379a0000000000000000000000000000000000000000000000000000000008152600401613b2b91906149e5565b60405180910390fd5b50816002600083815260200190815260200160002060006101000a81548173ffffffffffffffffffffffffffffffffffffffff021916908373ffffffffffffffffffffffffffffffffffffffff160217905550600860008373ffffffffffffffffffffffffffffffffffffffff1673ffffffffffffffffffffffffffffffffffffffff1681526020019081526020016000208190806001815401808255809150506001900390600052602060002001600090919091909150556001600860008473ffffffffffffffffffffffffffffffffffffffff1673ffffffffffffffffffffffffffffffffffffffff16815260200190815260200160002080549050613c3c9190614c01565b60096000838152602001908152602001600020819055505050565b600073ffffffffffffffffffffffffffffffffffffffff168273ffffffffffffffffffffffffffffffffffffffff1614156040518060400160405280600481526020017f303330310000000000000000000000000000000000000000000000000000000081525090613cff576040517f08c379a0000000000000000000000000000000000000000000000000000000008152600401613cf691906149e5565b60405180910390fd5b50600073ffffffffffffffffffffffffffffffffffffffff166002600083815260200190815260200160002060009054906101000a900473ffffffffffffffffffffffffffffffffffffffff1673ffffffffffffffffffffffffffffffffffffffff16146040518060400160405280600481526020017f303330360000000000000000000000000000000000000000000000000000000081525090613dda576040517f08c379a0000000000000000000000000000000000000000000000000000000008152600401613dd191906149e5565b60405180910390fd5b50613de582826133f7565b808273ffffffffffffffffffffffffffffffffffffffff16600073ffffffffffffffffffffffffffffffffffffffff167fddf252ad1be2c89b69c2b068fc378daa952ba7f163c4a11628f55a4df523b3ef60405160405180910390a45050565b613e4e81613f93565b60006007600083815260200190815260200160002054905060006001600680549050613e7a9190614c01565b9050600060068281548110613eb8577f4e487b7100000000000000000000000000000000000000000000000000000000600052603260045260246000fd5b906000526020600020015490508060068481548110613f00577f4e487b7100000000000000000000000000000000000000000000000000000000600052603260045260246000fd5b90600052602060002001819055506006805480613f46577f4e487b7100000000000000000000000000000000000000000000000000000000600052603160045260246000fd5b600190038181906000526020600020016000905590558260076000838152602001908152602001600020819055506000600760008681526020019081526020016000208190555050505050565b80600073ffffffffffffffffffffffffffffffffffffffff166002600083815260200190815260200160002060009054906101000a900473ffffffffffffffffffffffffffffffffffffffff1673ffffffffffffffffffffffffffffffffffffffff1614156040518060400160405280600481526020017f30333032000000000000000000000000000000000000000000000000000000008152509061406f576040517f08c379a000000000000000000000000000000000000000000000000000000000815260040161406691906149e5565b60405180910390fd5b5060006002600084815260200190815260200160002060009054906101000a900473ffffffffffffffffffffffffffffffffffffffff1690506140b183613348565b6140bb81846133e9565b82600073ffffffffffffffffffffffffffffffffffffffff168273ffffffffffffffffffffffffffffffffffffffff167fddf252ad1be2c89b69c2b068fc378daa952ba7f163c4a11628f55a4df523b3ef60405160405180910390a4505050565b82805461412890614cf8565b90600052602060002090601f01602090048101928261414a5760008555614191565b82601f1061416357805160ff1916838001178555614191565b82800160010185558215614191579182015b82811115614190578251825591602001919060010190614175565b5b50905061419e91906141e2565b5090565b5080546141ae90614cf8565b6000825580601f106141c057506141df565b601f0160209004906000526020600020908101906141de91906141e2565b5b50565b5b808211156141fb5760008160009055506001016141e3565b5090565b600061421261420d84614a93565b614a62565b90508281526020810184848401111561422a57600080fd5b614235848285614cb6565b509392505050565b60008135905061424c81614e40565b92915050565b60008135905061426181614e57565b92915050565b60008135905061427681614e6e565b92915050565b60008151905061428b81614e6e565b92915050565b60008083601f8401126142a357600080fd5b8235905067ffffffffffffffff8111156142bc57600080fd5b6020830191508360018202830111156142d457600080fd5b9250929050565b600082601f8301126142ec57600080fd5b81356142fc8482602086016141ff565b91505092915050565b60008135905061431481614e85565b92915050565b60006020828403121561432c57600080fd5b600061433a8482850161423d565b91505092915050565b6000806040838503121561435657600080fd5b60006143648582860161423d565b92505060206143758582860161423d565b9150509250929050565b60008060006060848603121561439457600080fd5b60006143a28682870161423d565b93505060206143b38682870161423d565b92505060406143c486828701614305565b9150509250925092565b6000806000806000608086880312156143e657600080fd5b60006143f48882890161423d565b95505060206144058882890161423d565b945050604061441688828901614305565b935050606086013567ffffffffffffffff81111561443357600080fd5b61443f88828901614291565b92509250509295509295909350565b6000806040838503121561446157600080fd5b600061446f8582860161423d565b925050602061448085828601614252565b9150509250929050565b6000806040838503121561449d57600080fd5b60006144ab8582860161423d565b92505060206144bc85828601614305565b9150509250929050565b600080600080608085870312156144dc57600080fd5b60006144ea8782880161423d565b94505060206144fb87828801614305565b935050604061450c8782880161423d565b925050606061451d87828801614305565b91505092959194509250565b60006020828403121561453b57600080fd5b600061454984828501614267565b91505092915050565b60006020828403121561456457600080fd5b60006145728482850161427c565b91505092915050565b60006020828403121561458d57600080fd5b600082013567ffffffffffffffff8111156145a757600080fd5b6145b3848285016142db565b91505092915050565b6000602082840312156145ce57600080fd5b60006145dc84828501614305565b91505092915050565b600080604083850312156145f857600080fd5b600061460685828601614305565b92505060206146178582860161423d565b9150509250929050565b6000806040838503121561463457600080fd5b600061464285828601614305565b925050602083013567ffffffffffffffff81111561465f57600080fd5b61466b858286016142db565b9150509250929050565b6000806040838503121561468857600080fd5b600061469685828601614305565b92505060206146a785828601614305565b9150509250929050565b60006146bd83836148a8565b60208301905092915050565b6146d281614c35565b82525050565b60006146e382614ad3565b6146ed8185614b01565b93506146f883614ac3565b8060005b8381101561472957815161471088826146b1565b975061471b83614af4565b9250506001810190506146fc565b5085935050505092915050565b61473f81614c47565b82525050565b600061475082614ade565b61475a8185614b12565b935061476a818560208601614cc5565b61477381614e2f565b840191505092915050565b600061478982614ae9565b6147938185614b23565b93506147a3818560208601614cc5565b6147ac81614e2f565b840191505092915050565b60006147c282614ae9565b6147cc8185614b34565b93506147dc818560208601614cc5565b80840191505092915050565b60006147f5601a83614b23565b91507f45524332393831526f79616c746965733a20546f6f20686967680000000000006000830152602082019050919050565b6000614835600983614b23565b91507f4e6f74206f776e657200000000000000000000000000000000000000000000006000830152602082019050919050565b6000614875601c83614b23565b91507f706173736564206f776e65727368697020726571756972656d656e74000000006000830152602082019050919050565b6148b181614c9f565b82525050565b6148c081614c9f565b82525050565b60006148d282856147b7565b91506148de82846147b7565b91508190509392505050565b60006020820190506148ff60008301846146c9565b92915050565b600060808201905061491a60008301876146c9565b61492760208301866146c9565b61493460408301856148b7565b81810360608301526149468184614745565b905095945050505050565b600060408201905061496660008301846146c9565b818103602083015261497781614868565b905092915050565b600060408201905061499460008301856146c9565b6149a160208301846148b7565b9392505050565b600060208201905081810360008301526149c281846146d8565b905092915050565b60006020820190506149df6000830184614736565b92915050565b600060208201905081810360008301526149ff818461477e565b905092915050565b60006020820190508181036000830152614a20816147e8565b9050919050565b60006020820190508181036000830152614a4081614828565b9050919050565b6000602082019050614a5c60008301846148b7565b92915050565b6000604051905081810181811067ffffffffffffffff82111715614a8957614a88614e00565b5b8060405250919050565b600067ffffffffffffffff821115614aae57614aad614e00565b5b601f19601f8301169050602081019050919050565b6000819050602082019050919050565b600081519050919050565b600081519050919050565b600081519050919050565b6000602082019050919050565b600082825260208201905092915050565b600082825260208201905092915050565b600082825260208201905092915050565b600081905092915050565b6000614b4a82614ca9565b9150614b5583614ca9565b92508260ff03821115614b6b57614b6a614d73565b5b828201905092915050565b6000614b8182614c9f565b9150614b8c83614c9f565b925082614b9c57614b9b614da2565b5b828204905092915050565b6000614bb282614c9f565b9150614bbd83614c9f565b9250817fffffffffffffffffffffffffffffffffffffffffffffffffffffffffffffffff0483118215151615614bf657614bf5614d73565b5b828202905092915050565b6000614c0c82614c9f565b9150614c1783614c9f565b925082821015614c2a57614c29614d73565b5b828203905092915050565b6000614c4082614c7f565b9050919050565b60008115159050919050565b60007fffffffff0000000000000000000000000000000000000000000000000000000082169050919050565b600073ffffffffffffffffffffffffffffffffffffffff82169050919050565b6000819050919050565b600060ff82169050919050565b82818337600083830152505050565b60005b83811015614ce3578082015181840152602081019050614cc8565b83811115614cf2576000848401525b50505050565b60006002820490506001821680614d1057607f821691505b60208210811415614d2457614d23614dd1565b5b50919050565b6000614d3582614c9f565b91507fffffffffffffffffffffffffffffffffffffffffffffffffffffffffffffffff821415614d6857614d67614d73565b5b600182019050919050565b7f4e487b7100000000000000000000000000000000000000000000000000000000600052601160045260246000fd5b7f4e487b7100000000000000000000000000000000000000000000000000000000600052601260045260246000fd5b7f4e487b7100000000000000000000000000000000000000000000000000000000600052602260045260246000fd5b7f4e487b7100000000000000000000000000000000000000000000000000000000600052604160045260246000fd5b6000601f19601f8301169050919050565b614e4981614c35565b8114614e5457600080fd5b50565b614e6081614c47565b8114614e6b57600080fd5b50565b614e7781614c53565b8114614e8257600080fd5b50565b614e8e81614c9f565b8114614e9957600080fd5b5056fea26469706673582212200710cc2b41721dd39589046fa22f712956bdd186c81c46dd08501a7e4d6dee7364736f6c63430008000033",
  "linkReferences": {},
  "deployedLinkReferences": {}
}